{"abi":[{"type":"constructor","inputs":[],"stateMutability":"nonpayable"},{"type":"function","name":"balanceOf","inputs":[{"name":"owner","type":"address","internalType":"address"}],"outputs":[{"name":"balance","type":"uint256","internalType":"uint256"}],"stateMutability":"view"},{"type":"function","name":"creat","inputs":[{"name":"id","type":"uint256","internalType":"uint256"},{"name":"pw","type":"uint256","internalType":"uint256"}],"outputs":[],"stateMutability":"nonpayable"},{"type":"function","name":"ownerOf","inputs":[{"name":"tokenId","type":"uint256","internalType":"uint256"}],"outputs":[{"name":"owner","type":"address","internalType":"address"}],"stateMutability":"view"},{"type":"function","name":"transfer","inputs":[{"name":"to","type":"address","internalType":"address"},{"name":"tokenId","type":"uint256","internalType":"uint256"}],"outputs":[{"name":"","type":"bool","internalType":"bool"}],"stateMutability":"nonpayable"},{"type":"function","name":"transferFrom","inputs":[{"name":"from","type":"address","internalType":"address"},{"name":"to","type":"address","internalType":"address"},{"name":"tokenId","type":"uint256","internalType":"uint256"}],"outputs":[],"stateMutability":"nonpayable"},{"type":"event","name":"Approval","inputs":[{"name":"owner","type":"address","indexed":true,"internalType":"address"},{"name":"approved","type":"address","indexed":true,"internalType":"address"},{"name":"tokenId","type":"uint256","indexed":true,"internalType":"uint256"}],"anonymous":false},{"type":"event","name":"ApprovalForAll","inputs":[{"name":"owner","type":"address","indexed":true,"internalType":"address"},{"name":"operator","type":"address","indexed":true,"internalType":"address"},{"name":"approved","type":"bool","indexed":false,"internalType":"bool"}],"anonymous":false},{"type":"event","name":"Transfer","inputs":[{"name":"from","type":"address","indexed":true,"internalType":"address"},{"name":"to","type":"address","indexed":true,"internalType":"address"},{"name":"tokenId","type":"uint256","indexed":true,"internalType":"uint256"}],"anonymous":false}],"bytecode":{"object":"0x6080604052348015600e575f5ffd5b50335f5f6101000a81548173ffffffffffffffffffffffffffffffffffffffff021916908373ffffffffffffffffffffffffffffffffffffffff1602179055506107e38061005b5f395ff3fe608060405234801561000f575f5ffd5b5060043610610055575f3560e01c806323b872dd146100595780636352211e1461007557806370a08231146100a5578063a9059cbb146100d5578063b95a51ee14610105575b5f5ffd5b610073600480360381019061006e91906104f5565b610121565b005b61008f600480360381019061008a9190610545565b610258565b60405161009c919061057f565b60405180910390f35b6100bf60048036038101906100ba9190610598565b610291565b6040516100cc91906105d2565b60405180910390f35b6100ef60048036038101906100ea91906105eb565b6102d7565b6040516100fc9190610643565b60405180910390f35b61011f600480360381019061011a919061065c565b610363565b005b8273ffffffffffffffffffffffffffffffffffffffff1661014182610258565b73ffffffffffffffffffffffffffffffffffffffff1614610160575f5ffd5b8160015f8381526020019081526020015f205f6101000a81548173ffffffffffffffffffffffffffffffffffffffff021916908373ffffffffffffffffffffffffffffffffffffffff16021790555060025f8473ffffffffffffffffffffffffffffffffffffffff1673ffffffffffffffffffffffffffffffffffffffff1681526020019081526020015f205f8154809291906101fc906106c7565b919050555060025f8373ffffffffffffffffffffffffffffffffffffffff1673ffffffffffffffffffffffffffffffffffffffff1681526020019081526020015f205f81548092919061024e906106ee565b9190505550505050565b5f60015f8381526020019081526020015f205f9054906101000a900473ffffffffffffffffffffffffffffffffffffffff169050919050565b5f60025f8373ffffffffffffffffffffffffffffffffffffffff1673ffffffffffffffffffffffffffffffffffffffff1681526020019081526020015f20549050919050565b5f6102e3338484610121565b8273ffffffffffffffffffffffffffffffffffffffff1661030383610258565b73ffffffffffffffffffffffffffffffffffffffff1614610359576040517f08c379a00000000000000000000000000000000000000000000000000000000081526004016103509061078f565b60405180910390fd5b6001905092915050565b5f60405180604001604052808481526020018381525090505f5f9054906101000a900473ffffffffffffffffffffffffffffffffffffffff1660015f835f015181526020019081526020015f205f6101000a81548173ffffffffffffffffffffffffffffffffffffffff021916908373ffffffffffffffffffffffffffffffffffffffff16021790555060025f5f5f9054906101000a900473ffffffffffffffffffffffffffffffffffffffff1673ffffffffffffffffffffffffffffffffffffffff1673ffffffffffffffffffffffffffffffffffffffff1681526020019081526020015f205f81548092919061045a906106ee565b9190505550505050565b5f5ffd5b5f73ffffffffffffffffffffffffffffffffffffffff82169050919050565b5f61049182610468565b9050919050565b6104a181610487565b81146104ab575f5ffd5b50565b5f813590506104bc81610498565b92915050565b5f819050919050565b6104d4816104c2565b81146104de575f5ffd5b50565b5f813590506104ef816104cb565b92915050565b5f5f5f6060848603121561050c5761050b610464565b5b5f610519868287016104ae565b935050602061052a868287016104ae565b925050604061053b868287016104e1565b9150509250925092565b5f6020828403121561055a57610559610464565b5b5f610567848285016104e1565b91505092915050565b61057981610487565b82525050565b5f6020820190506105925f830184610570565b92915050565b5f602082840312156105ad576105ac610464565b5b5f6105ba848285016104ae565b91505092915050565b6105cc816104c2565b82525050565b5f6020820190506105e55f8301846105c3565b92915050565b5f5f6040838503121561060157610600610464565b5b5f61060e858286016104ae565b925050602061061f858286016104e1565b9150509250929050565b5f8115159050919050565b61063d81610629565b82525050565b5f6020820190506106565f830184610634565b92915050565b5f5f6040838503121561067257610671610464565b5b5f61067f858286016104e1565b9250506020610690858286016104e1565b9150509250929050565b7f4e487b71000000000000000000000000000000000000000000000000000000005f52601160045260245ffd5b5f6106d1826104c2565b91505f82036106e3576106e261069a565b5b600182039050919050565b5f6106f8826104c2565b91507fffffffffffffffffffffffffffffffffffffffffffffffffffffffffffffffff820361072a5761072961069a565b5b600182019050919050565b5f82825260208201905092915050565b7f5472616e736c617465204661696c6564000000000000000000000000000000005f82015250565b5f610779601083610735565b915061078482610745565b602082019050919050565b5f6020820190508181035f8301526107a68161076d565b905091905056fea26469706673582212203991f262da8419e8f5eca63486ee06cce93d4af00f1e2e531068f664fec2e66b64736f6c634300081c0033","linkReferences":{}},"methodIdentifiers":{"balanceOf(address)":"70a08231","creat(uint256,uint256)":"b95a51ee","ownerOf(uint256)":"6352211e","transfer(address,uint256)":"a9059cbb","transferFrom(address,address,uint256)":"23b872dd"},"id":1}