{"contracts/DTrustAccessControl.sol":{"DTrustAccessControl":{"abi":[{"inputs":[{"internalType":"address","name":"admin","type":"address"}],"stateMutability":"nonpayable","type":"constructor"},{"inputs":[],"name":"AccessControlBadConfirmation","type":"error"},{"inputs":[{"internalType":"address","name":"account","type":"address"},{"internalType":"bytes32","name":"neededRole","type":"bytes32"}],"name":"AccessControlUnauthorizedAccount","type":"error"},{"anonymous":false,"inputs":[{"indexed":true,"internalType":"bytes32","name":"role","type":"bytes32"},{"indexed":true,"internalType":"bytes32","name":"previousAdminRole","type":"bytes32"},{"indexed":true,"internalType":"bytes32","name":"newAdminRole","type":"bytes32"}],"name":"RoleAdminChanged","type":"event"},{"anonymous":false,"inputs":[{"indexed":true,"internalType":"bytes32","name":"role","type":"bytes32"},{"indexed":true,"internalType":"address","name":"account","type":"address"},{"indexed":true,"internalType":"address","name":"sender","type":"address"}],"name":"RoleGranted","type":"event"},{"anonymous":false,"inputs":[{"indexed":true,"internalType":"bytes32","name":"role","type":"bytes32"},{"indexed":true,"internalType":"address","name":"account","type":"address"},{"indexed":true,"internalType":"address","name":"sender","type":"address"}],"name":"RoleRevoked","type":"event"},{"inputs":[],"name":"ADMIN_ROLE","outputs":[{"internalType":"bytes32","name":"","type":"bytes32"}],"stateMutability":"view","type":"function"},{"inputs":[],"name":"AUDITOR_ROLE","outputs":[{"internalType":"bytes32","name":"","type":"bytes32"}],"stateMutability":"view","type":"function"},{"inputs":[],"name":"BUSINESS_ROLE","outputs":[{"internalType":"bytes32","name":"","type":"bytes32"}],"stateMutability":"view","type":"function"},{"inputs":[],"name":"DEFAULT_ADMIN_ROLE","outputs":[{"internalType":"bytes32","name":"","type":"bytes32"}],"stateMutability":"view","type":"function"},{"inputs":[],"name":"UPLOADER_ROLE","outputs":[{"internalType":"bytes32","name":"","type":"bytes32"}],"stateMutability":"view","type":"function"},{"inputs":[{"internalType":"bytes32","name":"role","type":"bytes32"}],"name":"getRoleAdmin","outputs":[{"internalType":"bytes32","name":"","type":"bytes32"}],"stateMutability":"view","type":"function"},{"inputs":[{"internalType":"address","name":"user","type":"address"}],"name":"getUserDepartment","outputs":[{"internalType":"string","name":"","type":"string"}],"stateMutability":"view","type":"function"},{"inputs":[{"internalType":"address","name":"user","type":"address"},{"internalType":"uint256","name":"contractId","type":"uint256"}],"name":"grantContractAccess","outputs":[],"stateMutability":"nonpayable","type":"function"},{"inputs":[{"internalType":"bytes32","name":"role","type":"bytes32"},{"internalType":"address","name":"account","type":"address"}],"name":"grantRole","outputs":[],"stateMutability":"nonpayable","type":"function"},{"inputs":[{"internalType":"address","name":"user","type":"address"},{"internalType":"bytes32","name":"role","type":"bytes32"}],"name":"grantUserRole","outputs":[],"stateMutability":"nonpayable","type":"function"},{"inputs":[{"internalType":"address","name":"user","type":"address"},{"internalType":"uint256","name":"contractId","type":"uint256"}],"name":"hasAccessToContract","outputs":[{"internalType":"bool","name":"","type":"bool"}],"stateMutability":"view","type":"function"},{"inputs":[{"internalType":"bytes32","name":"role","type":"bytes32"},{"internalType":"address","name":"account","type":"address"}],"name":"hasRole","outputs":[{"internalType":"bool","name":"","type":"bool"}],"stateMutability":"view","type":"function"},{"inputs":[{"internalType":"address","name":"user","type":"address"}],"name":"isAuditor","outputs":[{"internalType":"bool","name":"","type":"bool"}],"stateMutability":"view","type":"function"},{"inputs":[{"internalType":"address","name":"user","type":"address"}],"name":"isBusinessUser","outputs":[{"internalType":"bool","name":"","type":"bool"}],"stateMutability":"view","type":"function"},{"inputs":[{"internalType":"address","name":"user","type":"address"}],"name":"isUploader","outputs":[{"internalType":"bool","name":"","type":"bool"}],"stateMutability":"view","type":"function"},{"inputs":[{"internalType":"bytes32","name":"role","type":"bytes32"},{"internalType":"address","name":"callerConfirmation","type":"address"}],"name":"renounceRole","outputs":[],"stateMutability":"nonpayable","type":"function"},{"inputs":[{"internalType":"address","name":"user","type":"address"},{"internalType":"uint256","name":"contractId","type":"uint256"}],"name":"revokeContractAccess","outputs":[],"stateMutability":"nonpayable","type":"function"},{"inputs":[{"internalType":"bytes32","name":"role","type":"bytes32"},{"internalType":"address","name":"account","type":"address"}],"name":"revokeRole","outputs":[],"stateMutability":"nonpayable","type":"function"},{"inputs":[{"internalType":"address","name":"user","type":"address"},{"internalType":"bytes32","name":"role","type":"bytes32"}],"name":"revokeUserRole","outputs":[],"stateMutability":"nonpayable","type":"function"},{"inputs":[{"internalType":"address","name":"user","type":"address"},{"internalType":"string","name":"department","type":"string"}],"name":"setUserDepartment","outputs":[],"stateMutability":"nonpayable","type":"function"},{"inputs":[{"internalType":"bytes4","name":"interfaceId","type":"bytes4"}],"name":"supportsInterface","outputs":[{"internalType":"bool","name":"","type":"bool"}],"stateMutability":"view","type":"function"},{"inputs":[{"internalType":"address","name":"","type":"address"},{"internalType":"uint256","name":"","type":"uint256"}],"name":"userContractAccess","outputs":[{"internalType":"bool","name":"","type":"bool"}],"stateMutability":"view","type":"function"},{"inputs":[{"internalType":"address","name":"","type":"address"}],"name":"userDepartment","outputs":[{"internalType":"string","name":"","type":"string"}],"stateMutability":"view","type":"function"}],"evm":{"assembly":"// RO data = 0/0 bytes\n// RW data = 192/65744 bytes\n// Stack size = 16384 bytes\n\n// Instructions = 11556\n// Code size = 37804 bytes\n\n      : @0 (gas: 2)\n     0: i32 a2 = a0 >> 0x10\n     3: jump @6 if a2 != 0\n      : @1 (gas: 2)\n     6: a2 = 0x10001\n    11: jump @6 if a1 >=u a2\n      : @2 (gas: 4)\n    14: a1 = a1 + a0\n    17: i32 a1 = a1 + 0x1f\n    20: a1 = a1 & 0xffffffffffffffe0\n    23: jump @7 if a1 >=u 65537\n      : @3 (gas: 2)\n    29: a3 = i32 [0x200c0]\n    34: jump @5 if a3 >=u a1\n      : @4 (gas: 4)\n    37: u32 [0x200c0] = a1\n    42: a1 = 0x200d0\n    47: a0 = a0 + a1\n    50: ret\n      : @5 (gas: 3)\n    52: a1 = 0x200d0\n    57: a0 = a0 + a1\n    60: ret\n      : @6 (gas: 1)\n    62: trap\n      : @7 (gas: 1)\n    63: trap\n      : @8 (gas: 13)\n    64: sp = sp + 0xffffffffffffffd8\n    67: u64 [sp + 0x20] = ra\n    70: u64 [sp + 0x18] = s0\n    73: u64 [sp + 0x10] = s1\n    76: a2 = u64 [a1]\n    78: u64 [sp + 0x8] = a2\n    81: a2 = u64 [a1 + 0x8]\n    84: u64 [sp] = a2\n    86: s0 = u64 [a1 + 0x10]\n    89: s1 = u64 [a1 + 0x18]\n    92: i32 a0 = a0 + 0\n    94: a1 = 0x20\n    97: ra = 2, jump @0\n      : @9 [@dyn 1] (gas: 71)\n   101: a1 = reverse s1\n   103: a2 = reverse s0\n   105: a3 = u64 [sp]\n   107: a3 = reverse a3\n   109: a4 = u64 [sp + 0x8]\n   112: a4 = reverse a4\n   114: u8 [a0 + 0x18] = a4\n   117: u8 [a0 + 0x10] = a3\n   120: u8 [a0 + 0x8] = a2\n   123: u8 [a0] = a1\n   125: a5 = a4 >> 0x38\n   128: u8 [a0 + 0x1f] = a5\n   131: a5 = a4 >> 0x30\n   134: u8 [a0 + 0x1e] = a5\n   137: a5 = a4 >> 0x28\n   140: u8 [a0 + 0x1d] = a5\n   143: a5 = a4 >> 0x20\n   146: u8 [a0 + 0x1c] = a5\n   149: a5 = a4 >> 0x18\n   152: u8 [a0 + 0x1b] = a5\n   155: a5 = a4 >> 0x10\n   158: u8 [a0 + 0x1a] = a5\n   161: a4 = a4 >> 0x8\n   164: u8 [a0 + 0x19] = a4\n   167: a4 = a3 >> 0x38\n   170: u8 [a0 + 0x17] = a4\n   173: a4 = a3 >> 0x30\n   176: u8 [a0 + 0x16] = a4\n   179: a4 = a3 >> 0x28\n   182: u8 [a0 + 0x15] = a4\n   185: a4 = a3 >> 0x20\n   188: u8 [a0 + 0x14] = a4\n   191: a4 = a3 >> 0x18\n   194: u8 [a0 + 0x13] = a4\n   197: a4 = a3 >> 0x10\n   200: u8 [a0 + 0x12] = a4\n   203: a3 = a3 >> 0x8\n   206: u8 [a0 + 0x11] = a3\n   209: a3 = a2 >> 0x38\n   212: u8 [a0 + 0xf] = a3\n   215: a3 = a2 >> 0x30\n   218: u8 [a0 + 0xe] = a3\n   221: a3 = a2 >> 0x28\n   224: u8 [a0 + 0xd] = a3\n   227: a3 = a2 >> 0x20\n   230: u8 [a0 + 0xc] = a3\n   233: a3 = a2 >> 0x18\n   236: u8 [a0 + 0xb] = a3\n   239: a3 = a2 >> 0x10\n   242: u8 [a0 + 0xa] = a3\n   245: a2 = a2 >> 0x8\n   248: u8 [a0 + 0x9] = a2\n   251: a2 = a1 >> 0x38\n   254: u8 [a0 + 0x7] = a2\n   257: a2 = a1 >> 0x30\n   260: u8 [a0 + 0x6] = a2\n   263: a2 = a1 >> 0x28\n   266: u8 [a0 + 0x5] = a2\n   269: a2 = a1 >> 0x20\n   272: u8 [a0 + 0x4] = a2\n   275: a2 = a1 >> 0x18\n   278: u8 [a0 + 0x3] = a2\n   281: a2 = a1 >> 0x10\n   284: u8 [a0 + 0x2] = a2\n   287: a1 = a1 >> 0x8\n   290: u8 [a0 + 0x1] = a1\n   293: ra = u64 [sp + 0x20]\n   296: s0 = u64 [sp + 0x18]\n   299: s1 = u64 [sp + 0x10]\n   302: sp = sp + 0x28\n   305: ret\n      : @10 (gas: 48)\n   307: sp = sp + 0xffffffffffffffa0\n   310: u64 [sp + 0x58] = ra\n   313: u64 [sp + 0x50] = s0\n   316: u64 [sp + 0x48] = s1\n   319: s0 = sp + 0x60\n   322: sp = sp & 0xffffffffffffffe0\n   325: s1 = a0\n   327: a0 = u64 [a1 + 0x18]\n   330: a2 = u64 [a1 + 0x10]\n   333: a3 = u64 [a1 + 0x8]\n   336: a1 = u64 [a1]\n   338: a0 = reverse a0\n   340: a2 = reverse a2\n   342: a3 = reverse a3\n   344: a1 = reverse a1\n   346: u64 [sp + 0x18] = a1\n   349: u64 [sp + 0x10] = a3\n   352: u64 [sp + 0x8] = a2\n   355: u64 [sp] = a0\n   357: u64 [sp + 56] = 0\n   360: u64 [sp + 48] = 0\n   363: u64 [sp + 40] = 0\n   366: u64 [sp + 32] = 0\n   369: u32 [sp + 64] = 0x20\n   373: i32 a1 = sp + 0\n   375: i32 a3 = sp + 0x20\n   378: i32 a4 = sp + 0x40\n   381: a2 = 0xffffffffffffffff\n   384: a0 = 0\n   386: ecalli 5 // 'get_storage'\n   388: a0 = u64 [sp + 0x38]\n   391: a1 = u64 [sp + 0x30]\n   394: a2 = u64 [sp + 0x28]\n   397: a3 = u64 [sp + 0x20]\n   400: a0 = reverse a0\n   402: a1 = reverse a1\n   404: a2 = reverse a2\n   406: a3 = reverse a3\n   408: u64 [s1 + 0x18] = a3\n   411: u64 [s1 + 0x10] = a2\n   414: u64 [s1 + 0x8] = a1\n   417: u64 [s1] = a0\n   419: sp = s0 + 0xffffffffffffffa0\n   422: ra = u64 [sp + 0x58]\n   425: s0 = u64 [sp + 0x50]\n   428: s1 = u64 [sp + 0x48]\n   431: sp = sp + 0x60\n   434: ret\n      : @11 (gas: 42)\n   436: sp = sp + 0xffffffffffffffa0\n   439: u64 [sp + 0x58] = ra\n   442: u64 [sp + 0x50] = s0\n   445: u64 [sp + 0x48] = s1\n   448: s0 = sp + 0x60\n   451: sp = sp & 0xffffffffffffffe0\n   454: t0 = u64 [a1]\n   456: t1 = u64 [a1 + 0x8]\n   459: a4 = u64 [a1 + 0x10]\n   462: a1 = u64 [a1 + 0x18]\n   465: a5 = u64 [a0 + 0x18]\n   468: a2 = u64 [a0 + 0x10]\n   471: a3 = u64 [a0 + 0x8]\n   474: a0 = u64 [a0]\n   476: s1 = reverse a5\n   478: a2 = reverse a2\n   480: a3 = reverse a3\n   482: a0 = reverse a0\n   484: t2 = reverse a1\n   486: a4 = reverse a4\n   488: a1 = reverse t1\n   490: a5 = reverse t0\n   492: u64 [sp + 0x18] = a0\n   495: u64 [sp + 0x10] = a3\n   498: u64 [sp + 0x8] = a2\n   501: u64 [sp] = s1\n   503: u64 [sp + 0x38] = a5\n   506: u64 [sp + 0x30] = a1\n   509: u64 [sp + 0x28] = a4\n   512: u64 [sp + 0x20] = t2\n   515: i32 a1 = sp + 0\n   517: i32 a3 = sp + 0x20\n   520: a2 = 0xffffffffffffffff\n   523: a4 = 0x20\n   526: a0 = 0\n   528: ecalli 9 // 'set_storage'\n   530: sp = s0 + 0xffffffffffffffa0\n   533: ra = u64 [sp + 0x58]\n   536: s0 = u64 [sp + 0x50]\n   539: s1 = u64 [sp + 0x48]\n   542: sp = sp + 0x60\n   545: ret\n      : @12 (gas: 6)\n   547: sp = sp + 0xfffffffffffffff0\n   550: u64 [sp + 0x8] = ra\n   553: u64 [sp] = s0\n   555: s0 = a0 & 0x1\n   558: ecalli 2 // 'call_data_size'\n   560: fallthrough\n      : @13 (gas: 2)\n   561: u32 [0x200c4] = a0\n   566: jump @15 if s0 == 0\n      : @14 (gas: 1)\n   569: ra = 4, jump @16\n      : @15 [@dyn 2] (gas: 1)\n   573: ra = 6, jump @37\n      : @16 [@dyn 3] (gas: 13)\n   578: sp = sp + 0xffffffffffffff20\n   582: u64 [sp + 0xd8] = ra\n   586: u64 [sp + 0xd0] = s0\n   590: u64 [sp + 0xc8] = s1\n   594: s0 = sp + 0xe0\n   598: sp = sp & 0xffffffffffffffe0\n   601: u64 [sp + 184] = 0\n   605: u64 [sp + 176] = 0\n   609: u64 [sp + 168] = 0\n   613: u64 [sp + 160] = 0\n   617: i32 a0 = sp + 0xa0\n   621: ecalli 10 // 'value_transferred'\n   623: fallthrough\n      : @17 (gas: 8)\n   624: a0 = u64 [sp + 0xb0]\n   628: a1 = u64 [sp + 0xb8]\n   632: a2 = u64 [sp + 0xa8]\n   636: a3 = u64 [sp + 0xa0]\n   640: a1 = a1 | a2\n   643: a0 = a0 | a3\n   646: a0 = a0 | a1\n   649: jump @29 if a0 != 0\n      : @18 (gas: 14)\n   653: a0 = i32 [0x200c4]\n   658: u64 [sp + 0x18] = a0\n   661: a0 = a0 << 0x20\n   664: a0 = a0 >> 0x20\n   667: a0 = a0 + 0x1f\n   670: a0 = a0 & 0xffffffffffffffe0\n   673: a1 = a0 + 0x80\n   677: u64 [sp + 0x10] = a1\n   680: s1 = a1 <u a0\n   683: u64 [sp + 0x8] = s1\n   686: s1 = 0 if s1 != 0\n   688: a0 = 0x40\n   691: a1 = 0x20\n   694: ra = 8, jump @0\n      : @19 [@dyn 4] (gas: 48)\n   699: a1 = reverse s1\n   701: a2 = u64 [sp + 0x8]\n   704: a2 = reverse a2\n   706: a3 = u64 [sp + 0x10]\n   709: a3 = reverse a3\n   711: u8 [a0 + 26] = 0\n   714: u8 [a0 + 25] = 0\n   717: u8 [a0 + 22] = 0\n   720: u8 [a0 + 21] = 0\n   723: u8 [a0 + 20] = 0\n   726: u8 [a0 + 19] = 0\n   729: u8 [a0 + 18] = 0\n   732: u8 [a0 + 17] = 0\n   735: u8 [a0 + 14] = 0\n   738: u8 [a0 + 13] = 0\n   741: u8 [a0 + 12] = 0\n   744: u8 [a0 + 11] = 0\n   747: u8 [a0 + 10] = 0\n   750: u8 [a0 + 9] = 0\n   753: u8 [a0 + 7] = 0\n   756: u8 [a0 + 6] = 0\n   759: u8 [a0 + 5] = 0\n   762: u8 [a0 + 4] = 0\n   765: u8 [a0 + 3] = 0\n   768: u8 [a0 + 2] = 0\n   771: u8 [a0 + 1] = 0\n   774: u8 [a0 + 0] = 0\n   776: u8 [a0 + 0x18] = a3\n   779: a4 = a3 >> 0x38\n   782: u8 [a0 + 0x1f] = a4\n   785: a4 = a3 >> 0x30\n   788: u8 [a0 + 0x1e] = a4\n   791: a4 = a3 >> 0x28\n   794: u8 [a0 + 0x1d] = a4\n   797: a4 = a3 >> 0x20\n   800: u8 [a0 + 0x1c] = a4\n   803: a3 = a3 >> 0x18\n   806: u8 [a0 + 0x1b] = a3\n   809: u8 [a0 + 0x10] = a2\n   812: a2 = a2 >> 0x38\n   815: u8 [a0 + 0x17] = a2\n   818: u8 [a0 + 0x8] = a1\n   821: a1 = a1 >> 0x38\n   824: u8 [a0 + 0xf] = a1\n   827: a0 = 0x80\n   831: s1 = u64 [sp + 0x18]\n   834: a1 = s1\n   836: ra = 10, jump @0\n      : @20 [@dyn 5] (gas: 5)\n   841: i32 a0 = a0 + 0\n   843: a1 = s1\n   845: a2 = 0\n   847: ecalli 0 // 'call_data_copy'\n   848: fallthrough\n      : @21 (gas: 1)\n   849: jump @29 if s1 <u 32\n      : @22 (gas: 3)\n   854: a0 = 0x80\n   858: a1 = 0x20\n   861: ra = 12, jump @0\n      : @23 [@dyn 6] (gas: 54)\n   866: a1 = u8 [a0 + 0x9]\n   869: a2 = u8 [a0 + 0x8]\n   872: a3 = u8 [a0 + 0xa]\n   875: a4 = u8 [a0 + 0xb]\n   878: a1 = a1 << 0x8\n   881: a1 = a1 | a2\n   884: a3 = a3 << 0x10\n   887: a4 = a4 << 0x18\n   890: a3 = a3 | a4\n   893: a1 = a1 | a3\n   896: a2 = u8 [a0 + 0xd]\n   899: a3 = u8 [a0 + 0xc]\n   902: a4 = u8 [a0 + 0xe]\n   905: a5 = u8 [a0 + 0xf]\n   908: a2 = a2 << 0x8\n   911: a2 = a2 | a3\n   914: a4 = a4 << 0x10\n   917: a5 = a5 << 0x18\n   920: a4 = a4 | a5\n   923: a2 = a2 | a4\n   926: a2 = a2 << 0x20\n   929: a1 = a1 | a2\n   932: a2 = u8 [a0 + 0x1]\n   935: a3 = u8 [a0]\n   937: a4 = u8 [a0 + 0x2]\n   940: a5 = u8 [a0 + 0x3]\n   943: a2 = a2 << 0x8\n   946: a2 = a2 | a3\n   949: a4 = a4 << 0x10\n   952: a5 = a5 << 0x18\n   955: a4 = a4 | a5\n   958: a2 = a2 | a4\n   961: a3 = u8 [a0 + 0x5]\n   964: a4 = u8 [a0 + 0x4]\n   967: a5 = u8 [a0 + 0x6]\n   970: s1 = u8 [a0 + 0x7]\n   973: a3 = a3 << 0x8\n   976: a3 = a3 | a4\n   979: a5 = a5 << 0x10\n   982: s1 = s1 << 0x18\n   985: a5 = a5 | s1\n   988: a3 = a3 | a5\n   991: a3 = a3 << 0x20\n   994: a2 = a2 | a3\n   997: s1 = reverse a2\n   999: t0 = reverse a1\n  1001: a1 = 0x100000000\n  1011: a1 = t0 ^ a1\n  1014: a1 = a1 | s1\n  1017: a2 = t0 >> 0x20\n  1020: a2 = a2 <u 0x1\n  1023: a2 = 0 if s1 != 0\n  1025: a2 = 0 if a1 == 0\n  1027: jump @29 if a2 == 0\n      : @24 (gas: 56)\n  1031: a1 = u8 [a0 + 0x19]\n  1034: a2 = u8 [a0 + 0x18]\n  1037: a3 = u8 [a0 + 0x1a]\n  1040: a4 = u8 [a0 + 0x1b]\n  1043: a1 = a1 << 0x8\n  1046: a1 = a1 | a2\n  1049: a3 = a3 << 0x10\n  1052: a4 = a4 << 0x18\n  1055: a3 = a3 | a4\n  1058: a1 = a1 | a3\n  1061: a2 = u8 [a0 + 0x1d]\n  1064: a3 = u8 [a0 + 0x1c]\n  1067: a4 = u8 [a0 + 0x1e]\n  1070: a5 = u8 [a0 + 0x1f]\n  1073: a2 = a2 << 0x8\n  1076: a2 = a2 | a3\n  1079: a4 = a4 << 0x10\n  1082: a5 = a5 << 0x18\n  1085: a4 = a4 | a5\n  1088: a2 = a2 | a4\n  1091: a2 = a2 << 0x20\n  1094: a1 = a1 | a2\n  1097: a2 = u8 [a0 + 0x11]\n  1100: a3 = u8 [a0 + 0x10]\n  1103: a4 = u8 [a0 + 0x12]\n  1106: a5 = u8 [a0 + 0x13]\n  1109: a2 = a2 << 0x8\n  1112: a2 = a2 | a3\n  1115: a4 = a4 << 0x10\n  1118: a5 = a5 << 0x18\n  1121: a4 = a4 | a5\n  1124: a2 = a2 | a4\n  1127: a3 = u8 [a0 + 0x15]\n  1130: a4 = u8 [a0 + 0x14]\n  1133: a5 = u8 [a0 + 0x16]\n  1136: a0 = u8 [a0 + 0x17]\n  1139: a3 = a3 << 0x8\n  1142: a3 = a3 | a4\n  1145: a5 = a5 << 0x10\n  1148: a0 = a0 << 0x18\n  1151: a0 = a0 | a5\n  1154: a0 = a0 | a3\n  1157: a0 = a0 << 0x20\n  1160: a0 = a0 | a2\n  1163: a2 = reverse a0\n  1165: u64 [sp + 0x10] = a2\n  1168: a0 = reverse a1\n  1170: u64 [sp + 0x18] = a0\n  1173: u64 [sp + 0x60] = a0\n  1176: u64 [sp + 0x68] = a2\n  1179: u64 [sp + 0x70] = t0\n  1182: a0 = sp + 0x80\n  1186: a1 = sp + 0x60\n  1189: u64 [sp + 0x78] = s1\n  1192: u64 [sp + 0x8] = t0\n  1195: ra = 14, jump @411\n      : @25 [@dyn 7] (gas: 28)\n  1200: u64 [sp + 0x38] = s1\n  1203: a0 = u64 [sp + 0x8]\n  1206: u64 [sp + 0x30] = a0\n  1209: a0 = u64 [sp + 0x10]\n  1212: u64 [sp + 0x28] = a0\n  1215: a0 = sp + 0x40\n  1218: a1 = sp + 0x20\n  1221: a2 = u64 [sp + 0x18]\n  1224: u64 [sp + 0x20] = a2\n  1227: ra = 0x10\n  1230: sp = sp + 0xfffffffffffffde0\n  1234: u64 [sp + 0x218] = ra\n  1238: u64 [sp + 0x210] = s0\n  1242: u64 [sp + 0x208] = s1\n  1246: s0 = sp + 0x220\n  1250: sp = sp & 0xffffffffffffffe0\n  1253: s1 = sp\n  1255: a2 = u64 [a1]\n  1257: u64 [s1 + 0xc8] = a2\n  1261: a2 = u64 [a1 + 0x8]\n  1264: u64 [s1 + 0xc0] = a2\n  1268: a1 = u32 [a1 + 0x10]\n  1271: u64 [s1 + 0xd0] = a1\n  1275: u64 [s1 + 0xd8] = a0\n  1279: a1 = 0x20\n  1282: a0 = 0\n  1284: ra = 0x10a\n  1288: jump @0\n      : @26 [@dyn 8] (gas: 3)\n  1291: a0 = 0x40\n  1294: a1 = 0x20\n  1297: ra = 18, jump @0\n      : @27 [@dyn 9] (gas: 100)\n  1302: a1 = u8 [a0 + 0x11]\n  1305: a2 = u8 [a0 + 0x10]\n  1308: a3 = u8 [a0 + 0x12]\n  1311: a4 = u8 [a0 + 0x13]\n  1314: a1 = a1 << 0x8\n  1317: a1 = a1 | a2\n  1320: a3 = a3 << 0x10\n  1323: a4 = a4 << 0x18\n  1326: a3 = a3 | a4\n  1329: a1 = a1 | a3\n  1332: a2 = u8 [a0 + 0x15]\n  1335: a3 = u8 [a0 + 0x14]\n  1338: a4 = u8 [a0 + 0x16]\n  1341: a5 = u8 [a0 + 0x17]\n  1344: a2 = a2 << 0x8\n  1347: a2 = a2 | a3\n  1350: a4 = a4 << 0x10\n  1353: a5 = a5 << 0x18\n  1356: a4 = a4 | a5\n  1359: a2 = a2 | a4\n  1362: a2 = a2 << 0x20\n  1365: t0 = a2 | a1\n  1368: a2 = u8 [a0 + 0x1]\n  1371: a3 = u8 [a0]\n  1373: a4 = u8 [a0 + 0x2]\n  1376: a5 = u8 [a0 + 0x3]\n  1379: a2 = a2 << 0x8\n  1382: a2 = a2 | a3\n  1385: a4 = a4 << 0x10\n  1388: a5 = a5 << 0x18\n  1391: a4 = a4 | a5\n  1394: a2 = a2 | a4\n  1397: a3 = u8 [a0 + 0x5]\n  1400: a4 = u8 [a0 + 0x4]\n  1403: a5 = u8 [a0 + 0x6]\n  1406: s1 = u8 [a0 + 0x7]\n  1409: a3 = a3 << 0x8\n  1412: a3 = a3 | a4\n  1415: a5 = a5 << 0x10\n  1418: s1 = s1 << 0x18\n  1421: a5 = a5 | s1\n  1424: a3 = a3 | a5\n  1427: a3 = a3 << 0x20\n  1430: a2 = a2 | a3\n  1433: a3 = u8 [a0 + 0x19]\n  1436: a4 = u8 [a0 + 0x18]\n  1439: a5 = u8 [a0 + 0x1a]\n  1442: s1 = u8 [a0 + 0x1b]\n  1445: a3 = a3 << 0x8\n  1448: a3 = a3 | a4\n  1451: a5 = a5 << 0x10\n  1454: s1 = s1 << 0x18\n  1457: a5 = a5 | s1\n  1460: a3 = a3 | a5\n  1463: a4 = u8 [a0 + 0x1d]\n  1466: a5 = u8 [a0 + 0x1c]\n  1469: s1 = u8 [a0 + 0x1e]\n  1472: a1 = u8 [a0 + 0x1f]\n  1475: a4 = a4 << 0x8\n  1478: a4 = a4 | a5\n  1481: s1 = s1 << 0x10\n  1484: a1 = a1 << 0x18\n  1487: a1 = a1 | s1\n  1490: a1 = a1 | a4\n  1493: a1 = a1 << 0x20\n  1496: a3 = a3 | a1\n  1499: a1 = u8 [a0 + 0x9]\n  1502: a4 = u8 [a0 + 0x8]\n  1505: a5 = u8 [a0 + 0xa]\n  1508: s1 = u8 [a0 + 0xb]\n  1511: a1 = a1 << 0x8\n  1514: a1 = a1 | a4\n  1517: a5 = a5 << 0x10\n  1520: s1 = s1 << 0x18\n  1523: a5 = a5 | s1\n  1526: a1 = a1 | a5\n  1529: a4 = u8 [a0 + 0xd]\n  1532: a5 = u8 [a0 + 0xc]\n  1535: s1 = u8 [a0 + 0xe]\n  1538: a0 = u8 [a0 + 0xf]\n  1541: a4 = a4 << 0x8\n  1544: a4 = a4 | a5\n  1547: s1 = s1 << 0x10\n  1550: a0 = a0 << 0x18\n  1553: a0 = a0 | s1\n  1556: a0 = a0 | a4\n  1559: a0 = a0 << 0x20\n  1562: a0 = a0 | a1\n  1565: a0 = reverse a0\n  1567: s1 = reverse a3\n  1569: a1 = reverse a2\n  1571: a2 = reverse t0\n  1573: a1 = a1 | a2\n  1576: a2 = s1 | a0\n  1579: a2 = a2 | a1\n  1582: a2 = a2 >> 0x20\n  1585: a0 = a0 | a1\n  1588: a0 = a0 << 0x20\n  1591: a0 = a0 | a2\n  1594: jump @31 if a0 == 0\n      : @28 (gas: 1)\n  1597: trap\n      : @29 (gas: 3)\n  1598: a0 = 0\n  1600: a1 = 0\n  1602: ra = 20, jump @0\n      : @30 [@dyn 10] (gas: 5)\n  1607: i32 a1 = a0 + 0\n  1609: a0 = 0x1\n  1612: a2 = 0\n  1614: ecalli 7 // 'seal_return'\n  1616: fallthrough\n      : @31 (gas: 4)\n  1617: i32 s1 = s1 + 0\n  1619: a0 = s1\n  1621: a1 = 0\n  1623: ra = 22, jump @0\n      : @32 [@dyn 11] (gas: 5)\n  1628: i32 a0 = a0 + 0\n  1630: a1 = 0\n  1632: a2 = 0\n  1634: ecalli 0 // 'call_data_copy'\n  1635: fallthrough\n      : @33 (gas: 2)\n  1636: a1 = i32 [0x200c8]\n  1641: jump @35 if a1 == 0\n      : @34 (gas: 4)\n  1644: a0 = 0x300d0\n  1649: i32 a0 = a0 + 0\n  1651: ecalli 8 // 'set_immutable_data'\n  1653: fallthrough\n      : @35 (gas: 3)\n  1654: a0 = s1\n  1656: a1 = 0\n  1658: ra = 24, jump @0\n      : @36 [@dyn 12] (gas: 6)\n  1663: i32 a1 = a0 + 0\n  1665: a0 = 0\n  1667: a2 = 0\n  1669: ra = 0x1a\n  1672: ecalli 7 // 'seal_return'\n  1674: fallthrough\n      : @37 [@dyn 13] (gas: 11)\n  1675: sp = sp + 0xfffffffffffff808\n  1679: u64 [sp + 0x7f0] = ra\n  1683: u64 [sp + 0x7e8] = s0\n  1687: u64 [sp + 0x7e0] = s1\n  1691: s0 = sp + 0x7f8\n  1695: sp = sp + 0xfffffffffffffa38\n  1699: sp = sp & 0xffffffffffffffe0\n  1702: s1 = sp\n  1704: a0 = 0x40\n  1707: a1 = 0x20\n  1710: ra = 28, jump @0\n      : @38 [@dyn 14] (gas: 36)\n  1715: u8 [a0 + 31] = 0x80\n  1720: u8 [a0 + 30] = 0\n  1723: u8 [a0 + 29] = 0\n  1726: u8 [a0 + 28] = 0\n  1729: u8 [a0 + 27] = 0\n  1732: u8 [a0 + 26] = 0\n  1735: u8 [a0 + 25] = 0\n  1738: u8 [a0 + 24] = 0\n  1741: u8 [a0 + 23] = 0\n  1744: u8 [a0 + 22] = 0\n  1747: u8 [a0 + 21] = 0\n  1750: u8 [a0 + 20] = 0\n  1753: u8 [a0 + 19] = 0\n  1756: u8 [a0 + 18] = 0\n  1759: u8 [a0 + 17] = 0\n  1762: u8 [a0 + 16] = 0\n  1765: u8 [a0 + 15] = 0\n  1768: u8 [a0 + 14] = 0\n  1771: u8 [a0 + 13] = 0\n  1774: u8 [a0 + 12] = 0\n  1777: u8 [a0 + 11] = 0\n  1780: u8 [a0 + 10] = 0\n  1783: u8 [a0 + 9] = 0\n  1786: u8 [a0 + 8] = 0\n  1789: u8 [a0 + 7] = 0\n  1792: u8 [a0 + 3] = 0\n  1795: a1 = 0x200c4\n  1800: u8 [a0 + 2] = 0\n  1803: u8 [a0 + 1] = 0\n  1806: u8 [a0 + 0] = 0\n  1808: u64 [s1 + 0x1b8] = a1\n  1812: a1 = i32 [0x200c4]\n  1817: u8 [a0 + 6] = 0\n  1820: u8 [a0 + 5] = 0\n  1823: u8 [a0 + 4] = 0\n  1826: jump @40 if a1 >=u 4\n      : @39 (gas: 1)\n  1830: jump @399\n      : @40 (gas: 5)\n  1833: a0 = s1 + 0x1000\n  1837: i32 a0 = a0 + 0xfffffffffffffac0\n  1841: a1 = 0\n  1843: ecalli 1 // 'call_data_load'\n  1845: fallthrough\n      : @41 (gas: 4)\n  1846: a0 = s1 + 0x7ff\n  1850: a0 = a0 + 0x139\n  1854: a0 = i32 [a0 + 0x1a4]\n  1858: jump @59 if a0 >s 911641277\n      : @42 (gas: 1)\n  1866: jump @73 if a0 >s 2875964574\n      : @43 (gas: 1)\n  1874: jump @45 if a0 <=s 2719481310\n      : @44 (gas: 1)\n  1881: jump @144\n      : @45 (gas: 1)\n  1884: jump @47 if a0 == 2256666428\n      : @46 (gas: 1)\n  1891: jump @225\n      : @47 (gas: 11)\n  1894: a0 = sp + 0xffffffffffffffe0\n  1897: a0 = a0 & 0xffffffffffffffe0\n  1900: u64 [s1 + 0x1b0] = a0\n  1904: sp = a0\n  1906: u64 [a0 + 24] = 0\n  1909: u64 [a0 + 16] = 0\n  1912: u64 [a0 + 8] = 0\n  1915: u64 [a0 + 0] = 0\n  1917: i32 a0 = a0 + 0\n  1919: ecalli 10 // 'value_transferred'\n  1921: fallthrough\n      : @48 (gas: 9)\n  1922: a3 = u64 [s1 + 0x1b0]\n  1926: a0 = u64 [a3 + 0x10]\n  1929: a1 = u64 [a3 + 0x18]\n  1932: a2 = u64 [a3 + 0x8]\n  1935: a3 = u64 [a3]\n  1937: a1 = a1 | a2\n  1940: a0 = a0 | a3\n  1943: a0 = a0 | a1\n  1946: jump @50 if a0 == 0\n      : @49 (gas: 1)\n  1949: jump @399\n      : @50 (gas: 3)\n  1952: a0 = u64 [s1 + 0x1b8]\n  1956: a0 = i32 [a0]\n  1958: jump @52 if a0 >u 67\n      : @51 (gas: 1)\n  1962: jump @399\n      : @52 (gas: 5)\n  1965: a0 = s1 + 0x1000\n  1969: i32 a0 = a0 + 0xfffffffffffffd80\n  1973: a1 = 0x4\n  1976: ecalli 1 // 'call_data_load'\n  1978: fallthrough\n      : @53 (gas: 14)\n  1979: a2 = s1 + 0x7ff\n  1983: a2 = a2 + 0x139\n  1987: a1 = u64 [a2 + 0x458]\n  1991: a3 = u64 [a2 + 0x460]\n  1995: a0 = 0x100000000\n  2005: a0 = a0 ^ a1\n  2008: a0 = a0 | a3\n  2011: u64 [s1 + 0x1b8] = a1\n  2015: a1 = a1 >> 0x20\n  2018: a1 = a1 <u 0x1\n  2021: u64 [s1 + 0x1b0] = a3\n  2025: a1 = 0 if a3 != 0\n  2027: a1 = 0 if a0 == 0\n  2029: jump @55 if a1 != 0\n      : @54 (gas: 1)\n  2032: jump @310\n      : @55 (gas: 7)\n  2035: a0 = u64 [a2 + 0x450]\n  2039: u64 [s1 + 0x1a0] = a0\n  2043: a0 = u64 [a2 + 0x448]\n  2047: u64 [s1 + 0x1a8] = a0\n  2051: a1 = 0x20\n  2054: a0 = 0\n  2056: ra = 30, jump @0\n      : @56 [@dyn 15] (gas: 71)\n  2061: a1 = u64 [s1 + 0x1b0]\n  2065: a1 = reverse a1\n  2067: a2 = u64 [s1 + 0x1b8]\n  2071: a2 = reverse a2\n  2073: a3 = u64 [s1 + 0x1a0]\n  2077: a3 = reverse a3\n  2079: a4 = u64 [s1 + 0x1a8]\n  2083: a4 = reverse a4\n  2085: a5 = a4 >> 0x38\n  2088: u8 [a0 + 0x1f] = a5\n  2091: a5 = a4 >> 0x30\n  2094: u8 [a0 + 0x1e] = a5\n  2097: a5 = a4 >> 0x28\n  2100: u8 [a0 + 0x1d] = a5\n  2103: a5 = a4 >> 0x20\n  2106: u8 [a0 + 0x1c] = a5\n  2109: a5 = a4 >> 0x18\n  2112: u8 [a0 + 0x1b] = a5\n  2115: a5 = a4 >> 0x10\n  2118: u8 [a0 + 0x1a] = a5\n  2121: a5 = a4 >> 0x8\n  2124: u8 [a0 + 0x19] = a5\n  2127: u8 [a0 + 0x18] = a4\n  2130: u8 [a0 + 0x10] = a3\n  2133: a4 = a3 >> 0x38\n  2136: u8 [a0 + 0x17] = a4\n  2139: a4 = a3 >> 0x30\n  2142: u8 [a0 + 0x16] = a4\n  2145: a4 = a3 >> 0x28\n  2148: u8 [a0 + 0x15] = a4\n  2151: a4 = a3 >> 0x20\n  2154: u8 [a0 + 0x14] = a4\n  2157: a4 = a3 >> 0x18\n  2160: u8 [a0 + 0x13] = a4\n  2163: a4 = a3 >> 0x10\n  2166: u8 [a0 + 0x12] = a4\n  2169: a3 = a3 >> 0x8\n  2172: u8 [a0 + 0x11] = a3\n  2175: u8 [a0 + 0x8] = a2\n  2178: a3 = a2 >> 0x38\n  2181: u8 [a0 + 0xf] = a3\n  2184: a3 = a2 >> 0x30\n  2187: u8 [a0 + 0xe] = a3\n  2190: a3 = a2 >> 0x28\n  2193: u8 [a0 + 0xd] = a3\n  2196: a3 = a2 >> 0x20\n  2199: u8 [a0 + 0xc] = a3\n  2202: a3 = a2 >> 0x18\n  2205: u8 [a0 + 0xb] = a3\n  2208: a3 = a2 >> 0x10\n  2211: u8 [a0 + 0xa] = a3\n  2214: a2 = a2 >> 0x8\n  2217: u8 [a0 + 0x9] = a2\n  2220: u8 [a0] = a1\n  2222: a2 = a1 >> 0x38\n  2225: u8 [a0 + 0x7] = a2\n  2228: a2 = a1 >> 0x30\n  2231: u8 [a0 + 0x6] = a2\n  2234: a2 = a1 >> 0x28\n  2237: u8 [a0 + 0x5] = a2\n  2240: a2 = a1 >> 0x20\n  2243: u8 [a0 + 0x4] = a2\n  2246: a2 = a1 >> 0x18\n  2249: u8 [a0 + 0x3] = a2\n  2252: a2 = a1 >> 0x10\n  2255: u8 [a0 + 0x2] = a2\n  2258: a1 = a1 >> 0x8\n  2261: u8 [a0 + 0x1] = a1\n  2264: a0 = 0x20\n  2267: a1 = 0x20\n  2270: ra = 32, jump @0\n      : @57 [@dyn 16] (gas: 35)\n  2275: u8 [a0 + 31] = 0x2\n  2279: u8 [a0 + 30] = 0\n  2282: u8 [a0 + 29] = 0\n  2285: u8 [a0 + 28] = 0\n  2288: u8 [a0 + 27] = 0\n  2291: u8 [a0 + 26] = 0\n  2294: u8 [a0 + 25] = 0\n  2297: u8 [a0 + 24] = 0\n  2300: u8 [a0 + 23] = 0\n  2303: u8 [a0 + 22] = 0\n  2306: u8 [a0 + 21] = 0\n  2309: u8 [a0 + 20] = 0\n  2312: u8 [a0 + 19] = 0\n  2315: u8 [a0 + 18] = 0\n  2318: u8 [a0 + 17] = 0\n  2321: u8 [a0 + 16] = 0\n  2324: u8 [a0 + 15] = 0\n  2327: u8 [a0 + 14] = 0\n  2330: u8 [a0 + 13] = 0\n  2333: u8 [a0 + 12] = 0\n  2336: u8 [a0 + 11] = 0\n  2339: u8 [a0 + 10] = 0\n  2342: u8 [a0 + 9] = 0\n  2345: u8 [a0 + 8] = 0\n  2348: u8 [a0 + 7] = 0\n  2351: u8 [a0 + 6] = 0\n  2354: u8 [a0 + 5] = 0\n  2357: u8 [a0 + 4] = 0\n  2360: u8 [a0 + 3] = 0\n  2363: u8 [a0 + 2] = 0\n  2366: u8 [a0 + 1] = 0\n  2369: u8 [a0 + 0] = 0\n  2371: a1 = 0x40\n  2374: a0 = 0\n  2376: ra = 34, jump @0\n      : @58 [@dyn 17] (gas: 31)\n  2381: a1 = sp + 0xffffffffffffffe0\n  2384: a1 = a1 & 0xffffffffffffffe0\n  2387: u64 [s1 + 0x1a0] = a1\n  2391: sp = a1\n  2393: i32 a0 = a0 + 0\n  2395: i32 a2 = a1 + 0\n  2397: a1 = 0x40\n  2400: ecalli 6 // 'hash_keccak_256'\n  2402: a1 = u64 [s1 + 0x1a0]\n  2406: a0 = u64 [a1]\n  2408: u64 [s1 + 0x1b8] = a0\n  2412: a0 = u64 [a1 + 0x8]\n  2415: u64 [s1 + 0x1b0] = a0\n  2419: a0 = u64 [a1 + 0x10]\n  2422: u64 [s1 + 0x1a8] = a0\n  2426: a0 = u64 [a1 + 0x18]\n  2429: u64 [s1 + 0x1a0] = a0\n  2433: a0 = s1 + 0x1000\n  2437: i32 a0 = a0 + 0xfffffffffffffc00\n  2441: a1 = 0x24\n  2444: ecalli 1 // 'call_data_load'\n  2446: a0 = s1 + 0x7ff\n  2450: a0 = a0 + 0x139\n  2454: a1 = u64 [a0 + 0x2c8]\n  2458: u64 [s1 + 0x198] = a1\n  2462: a1 = u64 [a0 + 0x2d0]\n  2466: u64 [s1 + 0x190] = a1\n  2470: a1 = u64 [a0 + 0x2d8]\n  2474: u64 [s1 + 0x188] = a1\n  2478: a0 = u64 [a0 + 0x2e0]\n  2482: jump @222\n      : @59 (gas: 1)\n  2485: jump @120 if a0 <=s 1840595561\n      : @60 (gas: 1)\n  2493: jump @132 if a0 >s 1974614267\n      : @61 (gas: 1)\n  2501: jump @63 if a0 == 1840595562\n      : @62 (gas: 1)\n  2508: jump @197\n      : @63 (gas: 11)\n  2511: a0 = sp + 0xffffffffffffffe0\n  2514: a0 = a0 & 0xffffffffffffffe0\n  2517: u64 [s1 + 0x1b0] = a0\n  2521: sp = a0\n  2523: u64 [a0 + 24] = 0\n  2526: u64 [a0 + 16] = 0\n  2529: u64 [a0 + 8] = 0\n  2532: u64 [a0 + 0] = 0\n  2534: i32 a0 = a0 + 0\n  2536: ecalli 10 // 'value_transferred'\n  2538: fallthrough\n      : @64 (gas: 9)\n  2539: a3 = u64 [s1 + 0x1b0]\n  2543: a0 = u64 [a3 + 0x10]\n  2546: a1 = u64 [a3 + 0x18]\n  2549: a2 = u64 [a3 + 0x8]\n  2552: a3 = u64 [a3]\n  2554: a1 = a1 | a2\n  2557: a0 = a0 | a3\n  2560: a0 = a0 | a1\n  2563: jump @66 if a0 == 0\n      : @65 (gas: 1)\n  2566: jump @399\n      : @66 (gas: 3)\n  2569: a0 = u64 [s1 + 0x1b8]\n  2573: a0 = i32 [a0]\n  2575: jump @68 if a0 >u 35\n      : @67 (gas: 1)\n  2579: jump @399\n      : @68 (gas: 5)\n  2582: a0 = s1 + 0x1000\n  2586: i32 a0 = a0 + 0xfffffffffffffd80\n  2590: a1 = 0x4\n  2593: ecalli 1 // 'call_data_load'\n  2595: fallthrough\n      : @69 (gas: 14)\n  2596: a2 = s1 + 0x7ff\n  2600: a2 = a2 + 0x139\n  2604: a1 = u64 [a2 + 0x458]\n  2608: a3 = u64 [a2 + 0x460]\n  2612: a0 = 0x100000000\n  2622: a0 = a0 ^ a1\n  2625: a0 = a0 | a3\n  2628: u64 [s1 + 0x1b8] = a1\n  2632: a1 = a1 >> 0x20\n  2635: a1 = a1 <u 0x1\n  2638: u64 [s1 + 0x1b0] = a3\n  2642: a1 = 0 if a3 != 0\n  2644: a1 = 0 if a0 == 0\n  2646: jump @71 if a1 != 0\n      : @70 (gas: 1)\n  2649: jump @310\n      : @71 (gas: 7)\n  2652: a0 = u64 [a2 + 0x450]\n  2656: u64 [s1 + 0x1a0] = a0\n  2660: a0 = u64 [a2 + 0x448]\n  2664: u64 [s1 + 0x1a8] = a0\n  2668: a1 = 0x20\n  2671: a0 = 0\n  2673: ra = 36, jump @0\n      : @72 [@dyn 18] (gas: 33)\n  2678: u8 [a0 + 31] = 0x91\n  2683: u8 [a0 + 30] = 0xcb\n  2688: u8 [a0 + 29] = 0x8f\n  2693: u8 [a0 + 28] = 0x6a\n  2697: u8 [a0 + 27] = 0x44\n  2701: u8 [a0 + 26] = 0x25\n  2705: u8 [a0 + 25] = 0x1d\n  2709: u8 [a0 + 24] = 0xba\n  2714: u8 [a0 + 23] = 0xdd\n  2719: u8 [a0 + 22] = 0xaf\n  2724: a1 = 0x92\n  2728: u8 [a0 + 0x15] = a1\n  2731: u8 [a0 + 20] = 0x67\n  2735: u8 [a0 + 19] = 0x49\n  2739: u8 [a0 + 18] = 0x87\n  2744: u8 [a0 + 17] = 0xbe\n  2749: u8 [a0 + 16] = 0xd0\n  2754: u8 [a0 + 15] = 0x3f\n  2758: u8 [a0 + 14] = 0xe3\n  2763: u8 [a0 + 13] = 0xaa\n  2768: u8 [a0 + 12] = 0x2e\n  2772: u8 [a0 + 11] = 0x5b\n  2776: u8 [a0 + 10] = 0x69\n  2780: u8 [a0 + 9] = 0xf7\n  2785: u8 [a0 + 8] = 0xa1\n  2790: u8 [a0 + 7] = 0x28\n  2794: u8 [a0 + 6] = 0xd8\n  2799: u8 [a0 + 5] = 0x65\n  2803: u8 [a0 + 4] = 0x7f\n  2807: u8 [a0 + 3] = 0xb2\n  2812: u8 [a0 + 2] = 0x90\n  2817: u8 [a0 + 1] = 0x23\n  2821: jump @237\n      : @73 (gas: 1)\n  2824: jump @75 if a0 <=s 33540518\n      : @74 (gas: 1)\n  2831: jump @156\n      : @75 (gas: 1)\n  2834: jump @77 if a0 <=s 3344343135\n      : @76 (gas: 1)\n  2841: jump @247\n      : @77 (gas: 1)\n  2844: jump @79 if a0 == 2875964575\n      : @78 (gas: 1)\n  2851: jump @399\n      : @79 (gas: 11)\n  2854: a0 = sp + 0xffffffffffffffe0\n  2857: a0 = a0 & 0xffffffffffffffe0\n  2860: u64 [s1 + 0x1b0] = a0\n  2864: sp = a0\n  2866: u64 [a0 + 24] = 0\n  2869: u64 [a0 + 16] = 0\n  2872: u64 [a0 + 8] = 0\n  2875: u64 [a0 + 0] = 0\n  2877: i32 a0 = a0 + 0\n  2879: ecalli 10 // 'value_transferred'\n  2881: fallthrough\n      : @80 (gas: 9)\n  2882: a3 = u64 [s1 + 0x1b0]\n  2886: a0 = u64 [a3 + 0x10]\n  2889: a1 = u64 [a3 + 0x18]\n  2892: a2 = u64 [a3 + 0x8]\n  2895: a3 = u64 [a3]\n  2897: a1 = a1 | a2\n  2900: a0 = a0 | a3\n  2903: a0 = a0 | a1\n  2906: jump @82 if a0 == 0\n      : @81 (gas: 1)\n  2909: jump @399\n      : @82 (gas: 3)\n  2912: a0 = u64 [s1 + 0x1b8]\n  2916: a0 = i32 [a0]\n  2918: jump @84 if a0 >u 67\n      : @83 (gas: 1)\n  2922: jump @399\n      : @84 (gas: 5)\n  2925: a0 = s1 + 0x1000\n  2929: i32 a0 = a0 + 0xfffffffffffffd80\n  2933: a1 = 0x4\n  2936: ecalli 1 // 'call_data_load'\n  2938: fallthrough\n      : @85 (gas: 14)\n  2939: a2 = s1 + 0x7ff\n  2943: a2 = a2 + 0x139\n  2947: a1 = u64 [a2 + 0x458]\n  2951: a3 = u64 [a2 + 0x460]\n  2955: a0 = 0x100000000\n  2965: a0 = a0 ^ a1\n  2968: a0 = a0 | a3\n  2971: u64 [s1 + 0x1b0] = a1\n  2975: a1 = a1 >> 0x20\n  2978: a1 = a1 <u 0x1\n  2981: u64 [s1 + 0x1a8] = a3\n  2985: a1 = 0 if a3 != 0\n  2987: a1 = 0 if a0 == 0\n  2989: jump @87 if a1 != 0\n      : @86 (gas: 1)\n  2992: jump @310\n      : @87 (gas: 9)\n  2995: a0 = u64 [a2 + 0x450]\n  2999: u64 [s1 + 0x198] = a0\n  3003: a0 = u64 [a2 + 0x448]\n  3007: u64 [s1 + 0x1a0] = a0\n  3011: a0 = s1 + 0x1000\n  3015: i32 a0 = a0 + 0xfffffffffffffc40\n  3019: a1 = 0x24\n  3022: ecalli 1 // 'call_data_load'\n  3024: fallthrough\n      : @88 (gas: 9)\n  3025: a3 = s1 + 0x7ff\n  3029: a3 = a3 + 0x139\n  3033: a5 = u64 [a3 + 0x320]\n  3037: a1 = u64 [a3 + 0x318]\n  3041: a4 = u64 [a3 + 0x310]\n  3045: a2 = a1 | a5\n  3048: a0 = a4 <u 0x1\n  3051: a0 = 0 if a2 != 0\n  3053: jump @90 if a0 != 0\n      : @89 (gas: 1)\n  3056: jump @400\n      : @90 (gas: 20)\n  3059: u64 [s1 + 0x28] = a2\n  3062: a3 = u64 [a3 + 0x308]\n  3066: a0 = u64 [s1 + 0x1b8]\n  3070: t1 = u32 [a0]\n  3072: a0 = a3 + 0x23\n  3075: a2 = a0 <u a3\n  3078: t0 = a4 + a2\n  3081: u64 [s1 + 0x178] = a4\n  3085: a4 = t0 <u a4\n  3088: a4 = a2 if a2 == 0\n  3091: a4 = a4 + a1\n  3094: u64 [s1 + 0x160] = a1\n  3098: a2 = a4 <u a1\n  3101: u64 [s1 + 0x168] = a5\n  3105: a2 = a2 + a5\n  3108: a2 = a2 | a4\n  3111: a0 = a0 <u t1\n  3114: a0 = 0 if t0 != 0\n  3116: a0 = 0 if a2 != 0\n  3118: jump @92 if a0 != 0\n      : @91 (gas: 1)\n  3121: jump @400\n      : @92 (gas: 6)\n  3124: i32 a1 = a3 + 0x4\n  3127: a0 = s1 + 0x1000\n  3131: i32 a0 = a0 + 0xfffffffffffffc60\n  3135: u64 [s1 + 0x170] = a3\n  3139: ecalli 1 // 'call_data_load'\n  3141: fallthrough\n      : @93 (gas: 10)\n  3142: a4 = s1 + 0x7ff\n  3146: a4 = a4 + 0x139\n  3150: t1 = u64 [a4 + 0x340]\n  3154: a3 = u64 [a4 + 0x338]\n  3158: a2 = u64 [a4 + 0x330]\n  3162: a1 = a3 | t1\n  3165: a0 = a2 <u 0x1\n  3168: u64 [s1 + 0x158] = a1\n  3172: a0 = 0 if a1 != 0\n  3174: jump @95 if a0 != 0\n      : @94 (gas: 1)\n  3177: jump @400\n      : @95 (gas: 43)\n  3180: a0 = u64 [a4 + 0x328]\n  3184: u64 [s1 + 0x150] = a0\n  3188: a1 = u64 [s1 + 0x170]\n  3192: a0 = a0 + a1\n  3195: a1 = a0 <u a1\n  3198: u64 [s1 + 0x118] = a2\n  3202: a5 = u64 [s1 + 0x178]\n  3206: a2 = a2 + a5\n  3209: a2 = a2 + a1\n  3212: t0 = a2 ^ a5\n  3215: a4 = a2 <u a5\n  3218: a4 = a1 if t0 == 0\n  3221: u64 [s1 + 0x148] = a3\n  3225: a5 = u64 [s1 + 0x160]\n  3229: a1 = a5 + a3\n  3232: a4 = a4 + a1\n  3235: a3 = a4 <u a1\n  3238: a1 = a1 <u a5\n  3241: u64 [s1 + 0x120] = t1\n  3245: a5 = u64 [s1 + 0x168]\n  3249: a5 = a5 + t1\n  3252: a1 = a1 + a5\n  3255: a1 = a1 + a3\n  3258: a3 = a0 + 0x24\n  3261: a0 = a3 <u a0\n  3264: a5 = a2 + a0\n  3267: a2 = a5 <u a2\n  3270: a2 = a0 if a0 == 0\n  3273: a0 = u64 [s1 + 0x1b8]\n  3277: a0 = u32 [a0]\n  3279: a2 = a2 + a4\n  3282: a4 = a2 <u a4\n  3285: a1 = a1 + a4\n  3288: a0 = a0 <u a3\n  3291: a3 = a5 <u 0x1\n  3294: a0 = a0 ^ 0x1\n  3297: a0 = a3 if a5 != 0\n  3300: a3 = a2 <u 0x1\n  3303: a4 = a1 <u 0x1\n  3306: a4 = a3 if a1 == 0\n  3309: a1 = a1 | a2\n  3312: a0 = a4 if a1 != 0\n  3315: jump @97 if a0 != 0\n      : @96 (gas: 1)\n  3318: jump @400\n      : @97 (gas: 1)\n  3321: ra = 38, jump @515\n      : @98 [@dyn 19] (gas: 3)\n  3326: a1 = 0x20\n  3329: a0 = 0\n  3331: ra = 40, jump @0\n      : @99 [@dyn 20] (gas: 71)\n  3336: a1 = u64 [s1 + 0x1a8]\n  3340: a1 = reverse a1\n  3342: a2 = u64 [s1 + 0x1b0]\n  3346: a2 = reverse a2\n  3348: a3 = u64 [s1 + 0x198]\n  3352: a3 = reverse a3\n  3354: a4 = u64 [s1 + 0x1a0]\n  3358: a4 = reverse a4\n  3360: a5 = a4 >> 0x38\n  3363: u8 [a0 + 0x1f] = a5\n  3366: a5 = a4 >> 0x30\n  3369: u8 [a0 + 0x1e] = a5\n  3372: a5 = a4 >> 0x28\n  3375: u8 [a0 + 0x1d] = a5\n  3378: a5 = a4 >> 0x20\n  3381: u8 [a0 + 0x1c] = a5\n  3384: a5 = a4 >> 0x18\n  3387: u8 [a0 + 0x1b] = a5\n  3390: a5 = a4 >> 0x10\n  3393: u8 [a0 + 0x1a] = a5\n  3396: a5 = a4 >> 0x8\n  3399: u8 [a0 + 0x19] = a5\n  3402: u8 [a0 + 0x18] = a4\n  3405: a4 = a3 >> 0x38\n  3408: u8 [a0 + 0x17] = a4\n  3411: a4 = a3 >> 0x30\n  3414: u8 [a0 + 0x16] = a4\n  3417: a4 = a3 >> 0x28\n  3420: u8 [a0 + 0x15] = a4\n  3423: a4 = a3 >> 0x20\n  3426: u8 [a0 + 0x14] = a4\n  3429: a4 = a3 >> 0x18\n  3432: u8 [a0 + 0x13] = a4\n  3435: a4 = a3 >> 0x10\n  3438: u8 [a0 + 0x12] = a4\n  3441: a4 = a3 >> 0x8\n  3444: u8 [a0 + 0x11] = a4\n  3447: u8 [a0 + 0x10] = a3\n  3450: u8 [a0 + 0x8] = a2\n  3453: a3 = a2 >> 0x38\n  3456: u8 [a0 + 0xf] = a3\n  3459: a3 = a2 >> 0x30\n  3462: u8 [a0 + 0xe] = a3\n  3465: a3 = a2 >> 0x28\n  3468: u8 [a0 + 0xd] = a3\n  3471: a3 = a2 >> 0x20\n  3474: u8 [a0 + 0xc] = a3\n  3477: a3 = a2 >> 0x18\n  3480: u8 [a0 + 0xb] = a3\n  3483: a3 = a2 >> 0x10\n  3486: u8 [a0 + 0xa] = a3\n  3489: a2 = a2 >> 0x8\n  3492: u8 [a0 + 0x9] = a2\n  3495: u8 [a0] = a1\n  3497: a2 = a1 >> 0x38\n  3500: u8 [a0 + 0x7] = a2\n  3503: a2 = a1 >> 0x30\n  3506: u8 [a0 + 0x6] = a2\n  3509: a2 = a1 >> 0x28\n  3512: u8 [a0 + 0x5] = a2\n  3515: a2 = a1 >> 0x20\n  3518: u8 [a0 + 0x4] = a2\n  3521: a2 = a1 >> 0x18\n  3524: u8 [a0 + 0x3] = a2\n  3527: a2 = a1 >> 0x10\n  3530: u8 [a0 + 0x2] = a2\n  3533: a1 = a1 >> 0x8\n  3536: u8 [a0 + 0x1] = a1\n  3539: a0 = 0x20\n  3542: a1 = 0x20\n  3545: ra = 42, jump @0\n      : @100 [@dyn 21] (gas: 35)\n  3550: u8 [a0 + 31] = 0x1\n  3554: u8 [a0 + 30] = 0\n  3557: u8 [a0 + 29] = 0\n  3560: u8 [a0 + 28] = 0\n  3563: u8 [a0 + 27] = 0\n  3566: u8 [a0 + 26] = 0\n  3569: u8 [a0 + 25] = 0\n  3572: u8 [a0 + 24] = 0\n  3575: u8 [a0 + 23] = 0\n  3578: u8 [a0 + 22] = 0\n  3581: u8 [a0 + 21] = 0\n  3584: u8 [a0 + 20] = 0\n  3587: u8 [a0 + 19] = 0\n  3590: u8 [a0 + 18] = 0\n  3593: u8 [a0 + 17] = 0\n  3596: u8 [a0 + 16] = 0\n  3599: u8 [a0 + 15] = 0\n  3602: u8 [a0 + 14] = 0\n  3605: u8 [a0 + 13] = 0\n  3608: u8 [a0 + 12] = 0\n  3611: u8 [a0 + 11] = 0\n  3614: u8 [a0 + 10] = 0\n  3617: u8 [a0 + 9] = 0\n  3620: u8 [a0 + 8] = 0\n  3623: u8 [a0 + 7] = 0\n  3626: u8 [a0 + 6] = 0\n  3629: u8 [a0 + 5] = 0\n  3632: u8 [a0 + 4] = 0\n  3635: u8 [a0 + 3] = 0\n  3638: u8 [a0 + 2] = 0\n  3641: u8 [a0 + 1] = 0\n  3644: u8 [a0 + 0] = 0\n  3646: a1 = 0x40\n  3649: a0 = 0\n  3651: ra = 44, jump @0\n      : @101 [@dyn 22] (gas: 39)\n  3656: a1 = sp + 0xffffffffffffffe0\n  3659: a1 = a1 & 0xffffffffffffffe0\n  3662: u64 [s1 + 0x1b8] = a1\n  3666: sp = a1\n  3668: i32 a0 = a0 + 0\n  3670: i32 a2 = a1 + 0\n  3672: a1 = 0x40\n  3675: ecalli 6 // 'hash_keccak_256'\n  3677: a0 = u64 [s1 + 0x1b8]\n  3681: a1 = u64 [a0 + 0x18]\n  3684: a2 = u64 [a0 + 0x10]\n  3687: a3 = u64 [a0 + 0x8]\n  3690: a4 = u64 [a0]\n  3692: a5 = s1 + 0x7ff\n  3696: a5 = a5 + 0x139\n  3700: u64 [s1 + 0x128] = a1\n  3704: u64 [a5 + 0x440] = a1\n  3708: u64 [s1 + 0x130] = a2\n  3712: u64 [a5 + 0x438] = a2\n  3716: u64 [s1 + 0x138] = a3\n  3720: u64 [a5 + 0x430] = a3\n  3724: u64 [s1 + 0x140] = a4\n  3728: u64 [a5 + 0x428] = a4\n  3732: u64 [a5 + 1120] = 0\n  3736: u64 [a5 + 1112] = 0\n  3740: u64 [a5 + 1104] = 0\n  3744: u64 [a5 + 1096] = 0\n  3748: u32 [a5 + 1000] = 0x20\n  3753: a0 = s1 + 0x1000\n  3757: i32 a1 = a0 + 0xfffffffffffffd60\n  3761: a0 = s1 + 0x1000\n  3765: i32 a3 = a0 + 0xfffffffffffffd80\n  3769: a0 = s1 + 0x1000\n  3773: i32 a4 = a0 + 0xfffffffffffffd20\n  3777: a2 = 0xffffffffffffffff\n  3780: a0 = 0\n  3782: ra = 0x2e\n  3785: ecalli 5 // 'get_storage'\n  3787: fallthrough\n      : @102 [@dyn 23] (gas: 33)\n  3788: a3 = s1 + 0x7ff\n  3792: a3 = a3 + 0x139\n  3796: a0 = u64 [a3 + 0x460]\n  3800: a1 = u64 [a3 + 0x448]\n  3804: a2 = u64 [a3 + 0x458]\n  3808: a3 = u64 [a3 + 0x450]\n  3812: a0 = reverse a0\n  3814: a1 = reverse a1\n  3816: a2 = reverse a2\n  3818: a3 = reverse a3\n  3820: a4 = a3 << 0x3f\n  3823: a5 = a2 >> 0x1\n  3826: t1 = a5 | a4\n  3829: a5 = a1 << 0x3f\n  3832: a3 = a3 >> 0x1\n  3835: a3 = a3 | a5\n  3838: a2 = a2 << 0x3f\n  3841: a5 = a0 >> 0x1\n  3844: a2 = a2 | a5\n  3847: a1 = a1 >> 0x1\n  3850: a0 = a0 & 0x1\n  3853: a5 = -a0\n  3855: t0 = a0 <u 0x1\n  3858: a4 = a2 & 0x7f\n  3861: a3 = a3 & a5\n  3864: t1 = a5 & t1\n  3867: a4 = a2 if a0 != 0\n  3870: a5 = a5 & a1\n  3873: a0 = a4 <u 0x20\n  3876: a0 = 0 if t1 != 0\n  3878: a1 = a3 | a5\n  3881: a0 = 0 if a1 != 0\n  3883: jump @104 if t0 == a0\n      : @103 (gas: 1)\n  3886: jump @314\n      : @104 (gas: 64)\n  3889: a2 = u64 [s1 + 0x140]\n  3893: a1 = a2 >> 0x38\n  3896: u64 [s1 + 0x60] = a1\n  3899: a1 = a2 >> 0x30\n  3902: u64 [s1 + 0x58] = a1\n  3905: a1 = a2 >> 0x28\n  3908: u64 [s1 + 0x50] = a1\n  3911: a1 = a2 >> 0x20\n  3914: u64 [s1 + 0x48] = a1\n  3917: a1 = a2 >> 0x18\n  3920: u64 [s1 + 0x40] = a1\n  3923: a1 = a2 >> 0x10\n  3926: u64 [s1 + 0x38] = a1\n  3929: a1 = a2 >> 0x8\n  3932: u64 [s1 + 0x30] = a1\n  3935: a2 = u64 [s1 + 0x138]\n  3939: a1 = a2 >> 0x38\n  3942: u64 [s1 + 0x98] = a1\n  3946: a1 = a2 >> 0x30\n  3949: u64 [s1 + 0x90] = a1\n  3953: a1 = a2 >> 0x28\n  3956: u64 [s1 + 0x88] = a1\n  3960: a1 = a2 >> 0x20\n  3963: u64 [s1 + 0x80] = a1\n  3967: a1 = a2 >> 0x18\n  3970: u64 [s1 + 0x78] = a1\n  3973: a1 = a2 >> 0x10\n  3976: u64 [s1 + 0x70] = a1\n  3979: a1 = a2 >> 0x8\n  3982: u64 [s1 + 0x68] = a1\n  3985: a2 = u64 [s1 + 0x130]\n  3989: a1 = a2 >> 0x38\n  3992: u64 [s1 + 0x108] = a1\n  3996: a1 = a2 >> 0x30\n  3999: u64 [s1 + 0x100] = a1\n  4003: a1 = a2 >> 0x28\n  4006: u64 [s1 + 0xf8] = a1\n  4010: a1 = a2 >> 0x20\n  4013: u64 [s1 + 0xf0] = a1\n  4017: a1 = a2 >> 0x18\n  4020: u64 [s1 + 0xe8] = a1\n  4024: a1 = a2 >> 0x10\n  4027: u64 [s1 + 0xe0] = a1\n  4031: a1 = a2 >> 0x8\n  4034: u64 [s1 + 0xd8] = a1\n  4038: a2 = u64 [s1 + 0x128]\n  4042: a1 = a2 >> 0x38\n  4045: u64 [s1 + 0xd0] = a1\n  4049: a1 = a2 >> 0x30\n  4052: u64 [s1 + 0xc8] = a1\n  4056: a1 = a2 >> 0x28\n  4059: u64 [s1 + 0xc0] = a1\n  4063: a1 = a2 >> 0x20\n  4066: u64 [s1 + 0xb8] = a1\n  4070: a1 = a2 >> 0x18\n  4073: u64 [s1 + 0xb0] = a1\n  4077: a1 = a2 >> 0x10\n  4080: u64 [s1 + 0xa8] = a1\n  4084: a1 = a2 >> 0x8\n  4087: u64 [s1 + 0xa0] = a1\n  4091: a1 = u64 [s1 + 0x150]\n  4095: a1 = a1 <u 0x20\n  4098: u64 [s1 + 0x110] = a1\n  4102: jump @112 if a0 != 0\n      : @105 (gas: 6)\n  4106: a1 = 0x20\n  4109: u64 [s1 + 0x1a8] = a3\n  4113: u64 [s1 + 0x1a0] = a5\n  4117: u64 [s1 + 0x190] = a4\n  4121: u64 [s1 + 0x198] = t1\n  4125: ra = 48, jump @0\n      : @106 [@dyn 24] (gas: 67)\n  4130: a1 = u64 [s1 + 0x138]\n  4134: u8 [a0 + 0x8] = a1\n  4137: a1 = u64 [s1 + 0x60]\n  4140: u8 [a0 + 0x7] = a1\n  4143: a1 = u64 [s1 + 0x58]\n  4146: u8 [a0 + 0x6] = a1\n  4149: a1 = u64 [s1 + 0x50]\n  4152: u8 [a0 + 0x5] = a1\n  4155: a1 = u64 [s1 + 0x48]\n  4158: u8 [a0 + 0x4] = a1\n  4161: a1 = u64 [s1 + 0x40]\n  4164: u8 [a0 + 0x3] = a1\n  4167: a1 = u64 [s1 + 0x38]\n  4170: u8 [a0 + 0x2] = a1\n  4173: a1 = u64 [s1 + 0x30]\n  4176: u8 [a0 + 0x1] = a1\n  4179: a1 = u64 [s1 + 0x140]\n  4183: u8 [a0] = a1\n  4185: a1 = u64 [s1 + 0x130]\n  4189: u8 [a0 + 0x10] = a1\n  4192: a1 = u64 [s1 + 0x98]\n  4196: u8 [a0 + 0xf] = a1\n  4199: a1 = u64 [s1 + 0x90]\n  4203: u8 [a0 + 0xe] = a1\n  4206: a1 = u64 [s1 + 0x88]\n  4210: u8 [a0 + 0xd] = a1\n  4213: a1 = u64 [s1 + 0x80]\n  4217: u8 [a0 + 0xc] = a1\n  4220: a1 = u64 [s1 + 0x78]\n  4223: u8 [a0 + 0xb] = a1\n  4226: a1 = u64 [s1 + 0x70]\n  4229: u8 [a0 + 0xa] = a1\n  4232: a1 = u64 [s1 + 0x68]\n  4235: u8 [a0 + 0x9] = a1\n  4238: a1 = u64 [s1 + 0x128]\n  4242: u8 [a0 + 0x18] = a1\n  4245: a1 = u64 [s1 + 0x108]\n  4249: u8 [a0 + 0x17] = a1\n  4252: a1 = u64 [s1 + 0x100]\n  4256: u8 [a0 + 0x16] = a1\n  4259: a1 = u64 [s1 + 0xf8]\n  4263: u8 [a0 + 0x15] = a1\n  4266: a1 = u64 [s1 + 0xf0]\n  4270: u8 [a0 + 0x14] = a1\n  4273: a1 = u64 [s1 + 0xe8]\n  4277: u8 [a0 + 0x13] = a1\n  4280: a1 = u64 [s1 + 0xe0]\n  4284: u8 [a0 + 0x12] = a1\n  4287: a1 = u64 [s1 + 0xd8]\n  4291: u8 [a0 + 0x11] = a1\n  4294: a1 = u64 [s1 + 0xd0]\n  4298: u8 [a0 + 0x1f] = a1\n  4301: a1 = u64 [s1 + 0xc8]\n  4305: u8 [a0 + 0x1e] = a1\n  4308: a1 = u64 [s1 + 0xc0]\n  4312: u8 [a0 + 0x1d] = a1\n  4315: a1 = u64 [s1 + 0xb8]\n  4319: u8 [a0 + 0x1c] = a1\n  4322: a1 = u64 [s1 + 0xb0]\n  4326: u8 [a0 + 0x1b] = a1\n  4329: a1 = u64 [s1 + 0xa8]\n  4333: u8 [a0 + 0x1a] = a1\n  4336: a1 = u64 [s1 + 0xa0]\n  4340: u8 [a0 + 0x19] = a1\n  4343: a1 = 0x20\n  4346: a0 = 0\n  4348: ra = 50, jump @0\n      : @107 [@dyn 25] (gas: 9)\n  4353: a1 = sp + 0xffffffffffffffe0\n  4356: a1 = a1 & 0xffffffffffffffe0\n  4359: u64 [s1 + 0x1b0] = a1\n  4363: sp = a1\n  4365: i32 a0 = a0 + 0\n  4367: i32 a2 = a1 + 0\n  4369: a1 = 0x20\n  4372: ecalli 6 // 'hash_keccak_256'\n  4374: fallthrough\n      : @108 (gas: 120)\n  4375: a0 = u64 [s1 + 0x150]\n  4379: a1 = a0 + 0x1f\n  4382: a0 = a1 <u a0\n  4385: a5 = u64 [s1 + 0x118]\n  4389: a3 = a5 + a0\n  4392: a2 = a3 <u a5\n  4395: a2 = a0 if a0 == 0\n  4398: a4 = u64 [s1 + 0x148]\n  4402: a2 = a2 + a4\n  4405: u64 [s1 + 0x188] = a2\n  4409: a2 = a2 << 0x3b\n  4412: a4 = a3 >> 0x5\n  4415: a2 = a2 | a4\n  4418: a0 = u64 [s1 + 0x1b0]\n  4422: t0 = u64 [a0 + 0x18]\n  4425: a3 = a3 << 0x3b\n  4428: a0 = u64 [a0 + 0x10]\n  4431: a1 = a1 >> 0x5\n  4434: a3 = a3 | a1\n  4437: t2 = reverse t0\n  4439: a4 = reverse a0\n  4441: a1 = u64 [s1 + 0x110]\n  4445: a1 = 0 if a5 != 0\n  4447: a0 = u64 [s1 + 0x158]\n  4451: a1 = 0 if a0 != 0\n  4453: a2 = 0 if a1 != 0\n  4455: a3 = 0 if a1 != 0\n  4457: a3 = a3 + t2\n  4460: u64 [s1 + 0x1b8] = a3\n  4464: a0 = a3 <u t2\n  4467: a3 = a4 + a0\n  4470: t0 = a3 + a2\n  4473: a3 = t0 ^ a4\n  4476: a2 = t0 <u a4\n  4479: a2 = a0 if a3 == 0\n  4482: u64 [s1 + 0x20] = a2\n  4485: a0 = u64 [s1 + 0x190]\n  4489: ra = a0 + 0x1f\n  4492: a2 = ra <u a0\n  4495: a3 = u64 [s1 + 0x198]\n  4499: a0 = a3 + a2\n  4502: a3 = a0 <u a3\n  4505: a3 = a2 if a2 == 0\n  4508: t1 = u64 [s1 + 0x1a8]\n  4512: a2 = t1 + a3\n  4515: u64 [s1 + 0x190] = a2\n  4519: a2 = a2 << 0x3b\n  4522: a5 = a0 >> 0x5\n  4525: a2 = a2 | a5\n  4528: a0 = a0 << 0x3b\n  4531: a5 = ra >> 0x5\n  4534: ra = u64 [s1 + 0x1b8]\n  4538: a0 = a0 | a5\n  4541: a3 = t2 + a0\n  4544: a0 = a3 <u t2\n  4547: a5 = a4 + a0\n  4550: a2 = a2 + a5\n  4553: t2 = a3\n  4555: a3 = a2 ^ a4\n  4558: a4 = a2 <u a4\n  4561: a4 = a0 if a3 == 0\n  4564: u64 [s1 + 0x18] = a4\n  4567: a0 = t0 ^ a2\n  4570: u64 [s1 + 0x198] = a2\n  4574: a2 = t0 <u a2\n  4577: t1 = ra <u t2\n  4580: t1 = a2 if a0 != 0\n  4583: a2 = u64 [s1 + 0x188]\n  4587: a0 = u64 [s1 + 0x148]\n  4591: a0 = a2 <u a0\n  4594: a4 = u64 [s1 + 0x120]\n  4598: a4 = a4 + a0\n  4601: a2 = a2 >> 0x5\n  4604: a0 = a4 << 0x3b\n  4607: a0 = a0 | a2\n  4610: a2 = u64 [s1 + 0x1b0]\n  4614: a3 = u64 [a2]\n  4616: a2 = u64 [a2 + 0x8]\n  4619: a4 = a4 >> 0x5\n  4622: a0 = 0 if a1 != 0\n  4624: a4 = 0 if a1 != 0\n  4626: a1 = reverse a2\n  4628: a2 = reverse a3\n  4630: a4 = a4 + a2\n  4633: a0 = a0 + a1\n  4636: a3 = a0 <u a1\n  4639: a3 = a3 + a4\n  4642: a4 = u64 [s1 + 0x20]\n  4645: a4 = a4 + a0\n  4648: u64 [s1 + 0x1b0] = a4\n  4652: a0 = a4 <u a0\n  4655: a5 = a3 + a0\n  4658: a0 = u64 [s1 + 0x1a8]\n  4662: a4 = u64 [s1 + 0x190]\n  4666: a0 = a4 <u a0\n  4669: a3 = u64 [s1 + 0x1a0]\n  4673: a0 = a0 + a3\n  4676: a3 = a4 >> 0x5\n  4679: a4 = a0 << 0x3b\n  4682: a3 = a3 | a4\n  4685: a0 = a0 >> 0x5\n  4688: a0 = a0 + a2\n  4691: a3 = a3 + a1\n  4694: a1 = a3 <u a1\n  4697: a0 = a0 + a1\n  4700: a4 = u64 [s1 + 0x18]\n  4703: a4 = a4 + a3\n  4706: a1 = a4 <u a3\n  4709: a3 = u64 [s1 + 0x1b0]\n  4713: a2 = a0 + a1\n  4716: a0 = a3 <u a4\n  4719: a1 = a5 ^ a2\n  4722: u64 [s1 + 0x188] = a2\n  4726: a2 = a5 <u a2\n  4729: a2 = a0 if a1 == 0\n  4732: u64 [s1 + 0x190] = a4\n  4736: a0 = a3 ^ a4\n  4739: a0 = a0 | a1\n  4742: t1 = a2 if a0 != 0\n  4745: jump @112 if t1 == 0\n      : @109 (gas: 2)\n  4749: u64 [s1 + 0x180] = t2\n  4753: fallthrough\n      : @110 (gas: 27)\n  4754: u64 [s1 + 0x1b0] = a3\n  4758: u64 [s1 + 0x1a0] = a5\n  4762: u64 [s1 + 0x1a8] = t0\n  4766: u64 [s1 + 0x1b8] = ra\n  4770: a0 = reverse a5\n  4772: a1 = reverse a3\n  4774: a2 = reverse t0\n  4776: a3 = reverse ra\n  4778: a4 = s1 + 0x7ff\n  4782: a4 = a4 + 0x139\n  4786: u64 [a4 + 0x440] = a3\n  4790: u64 [a4 + 0x438] = a2\n  4794: u64 [a4 + 0x430] = a1\n  4798: u64 [a4 + 0x428] = a0\n  4802: u64 [a4 + 1120] = 0\n  4806: u64 [a4 + 1112] = 0\n  4810: u64 [a4 + 1104] = 0\n  4814: u64 [a4 + 1096] = 0\n  4818: a0 = s1 + 0x1000\n  4822: i32 a1 = a0 + 0xfffffffffffffd60\n  4826: a0 = s1 + 0x1000\n  4830: i32 a3 = a0 + 0xfffffffffffffd80\n  4834: a2 = 0xffffffffffffffff\n  4837: a4 = 0x20\n  4840: a0 = 0\n  4842: ecalli 9 // 'set_storage'\n  4844: fallthrough\n      : @111 (gas: 29)\n  4845: a5 = u64 [s1 + 0x1a0]\n  4849: t2 = u64 [s1 + 0x180]\n  4853: t0 = u64 [s1 + 0x1a8]\n  4857: ra = u64 [s1 + 0x1b8]\n  4861: ra = ra + 0x1\n  4864: a0 = ra <u 0x1\n  4867: t0 = t0 + a0\n  4870: a0 = ra | t0\n  4873: a0 = a0 <u 0x1\n  4876: a1 = u64 [s1 + 0x1b0]\n  4880: a0 = a0 + a1\n  4883: a1 = a0 <u a1\n  4886: a5 = a5 + a1\n  4889: a1 = ra <u t2\n  4892: a3 = u64 [s1 + 0x198]\n  4896: a2 = t0 ^ a3\n  4899: a3 = t0 <u a3\n  4902: a3 = a1 if a2 == 0\n  4905: a1 = u64 [s1 + 0x190]\n  4909: t1 = a0 <u a1\n  4912: a4 = u64 [s1 + 0x188]\n  4916: a2 = a5 ^ a4\n  4919: a4 = a5 <u a4\n  4922: a4 = t1 if a2 == 0\n  4925: a1 = a1 ^ a0\n  4928: a1 = a1 | a2\n  4931: a4 = a3 if a1 == 0\n  4934: a3 = a0\n  4936: jump @110 if a4 != 0\n      : @112 (gas: 13)\n  4940: a5 = u64 [s1 + 0x118]\n  4944: a0 = a5 >u 0\n  4946: a1 = u64 [s1 + 0x110]\n  4950: a1 = a1 ^ 0x1\n  4953: a1 = a0 if a5 != 0\n  4956: a4 = u64 [s1 + 0x148]\n  4960: a0 = a4 >u 0\n  4962: a3 = u64 [s1 + 0x120]\n  4966: a2 = a3 >u 0\n  4968: a2 = a0 if a3 == 0\n  4971: a0 = u64 [s1 + 0x158]\n  4975: a2 = a1 if a0 == 0\n  4978: jump @114 if a2 != 0\n      : @113 (gas: 1)\n  4981: jump @297\n      : @114 (gas: 6)\n  4984: a0 = u64 [s1 + 0x150]\n  4988: a0 = a0 & 0xffffffffffffffe0\n  4991: u64 [s1 + 0x158] = a0\n  4995: a1 = 0x20\n  4998: a0 = 0\n  5000: ra = 52, jump @0\n      : @115 [@dyn 26] (gas: 67)\n  5005: a1 = u64 [s1 + 0x60]\n  5008: u8 [a0 + 0x7] = a1\n  5011: a1 = u64 [s1 + 0x58]\n  5014: u8 [a0 + 0x6] = a1\n  5017: a1 = u64 [s1 + 0x50]\n  5020: u8 [a0 + 0x5] = a1\n  5023: a1 = u64 [s1 + 0x48]\n  5026: u8 [a0 + 0x4] = a1\n  5029: a1 = u64 [s1 + 0x40]\n  5032: u8 [a0 + 0x3] = a1\n  5035: a1 = u64 [s1 + 0x38]\n  5038: u8 [a0 + 0x2] = a1\n  5041: a1 = u64 [s1 + 0x30]\n  5044: u8 [a0 + 0x1] = a1\n  5047: a1 = u64 [s1 + 0x98]\n  5051: u8 [a0 + 0xf] = a1\n  5054: a1 = u64 [s1 + 0x90]\n  5058: u8 [a0 + 0xe] = a1\n  5061: a1 = u64 [s1 + 0x88]\n  5065: u8 [a0 + 0xd] = a1\n  5068: a1 = u64 [s1 + 0x80]\n  5072: u8 [a0 + 0xc] = a1\n  5075: a1 = u64 [s1 + 0x78]\n  5078: u8 [a0 + 0xb] = a1\n  5081: a1 = u64 [s1 + 0x70]\n  5084: u8 [a0 + 0xa] = a1\n  5087: a1 = u64 [s1 + 0x68]\n  5090: u8 [a0 + 0x9] = a1\n  5093: a1 = u64 [s1 + 0x108]\n  5097: u8 [a0 + 0x17] = a1\n  5100: a1 = u64 [s1 + 0x100]\n  5104: u8 [a0 + 0x16] = a1\n  5107: a1 = u64 [s1 + 0xf8]\n  5111: u8 [a0 + 0x15] = a1\n  5114: a1 = u64 [s1 + 0xf0]\n  5118: u8 [a0 + 0x14] = a1\n  5121: a1 = u64 [s1 + 0xe8]\n  5125: u8 [a0 + 0x13] = a1\n  5128: a1 = u64 [s1 + 0xe0]\n  5132: u8 [a0 + 0x12] = a1\n  5135: a1 = u64 [s1 + 0xd8]\n  5139: u8 [a0 + 0x11] = a1\n  5142: a1 = u64 [s1 + 0xd0]\n  5146: u8 [a0 + 0x1f] = a1\n  5149: a1 = u64 [s1 + 0xc8]\n  5153: u8 [a0 + 0x1e] = a1\n  5156: a1 = u64 [s1 + 0xc0]\n  5160: u8 [a0 + 0x1d] = a1\n  5163: a1 = u64 [s1 + 0xb8]\n  5167: u8 [a0 + 0x1c] = a1\n  5170: a1 = u64 [s1 + 0xb0]\n  5174: u8 [a0 + 0x1b] = a1\n  5177: a1 = u64 [s1 + 0xa8]\n  5181: u8 [a0 + 0x1a] = a1\n  5184: a1 = u64 [s1 + 0xa0]\n  5188: u8 [a0 + 0x19] = a1\n  5191: a1 = u64 [s1 + 0x138]\n  5195: u8 [a0 + 0x8] = a1\n  5198: a1 = u64 [s1 + 0x140]\n  5202: u8 [a0] = a1\n  5204: a1 = u64 [s1 + 0x130]\n  5208: u8 [a0 + 0x10] = a1\n  5211: a1 = u64 [s1 + 0x128]\n  5215: u8 [a0 + 0x18] = a1\n  5218: a1 = 0x20\n  5221: a0 = 0\n  5223: ra = 54, jump @0\n      : @116 [@dyn 27] (gas: 9)\n  5228: a1 = sp + 0xffffffffffffffe0\n  5231: a1 = a1 & 0xffffffffffffffe0\n  5234: u64 [s1 + 0x1b8] = a1\n  5238: sp = a1\n  5240: i32 a0 = a0 + 0\n  5242: i32 a2 = a1 + 0\n  5244: a1 = 0x20\n  5247: ecalli 6 // 'hash_keccak_256'\n  5249: fallthrough\n      : @117 (gas: 14)\n  5250: a3 = u64 [s1 + 0x1b8]\n  5254: a0 = u64 [a3]\n  5256: a1 = u64 [a3 + 0x8]\n  5259: a2 = u64 [a3 + 0x10]\n  5262: a3 = u64 [a3 + 0x18]\n  5265: a0 = reverse a0\n  5267: u64 [s1 + 0x1a8] = a0\n  5271: t1 = reverse a1\n  5273: a0 = reverse a2\n  5275: u64 [s1 + 0x1b8] = a0\n  5279: a0 = reverse a3\n  5281: u64 [s1 + 0x1b0] = a0\n  5285: a0 = u64 [s1 + 0x158]\n  5289: jump @119 if a0 == 0\n      : @118 (gas: 1)\n  5292: jump @300\n      : @119 (gas: 5)\n  5295: u64 [s1 + 0x1a0] = t1\n  5299: t0 = 0\n  5301: ra = 0\n  5303: a4 = 0x24\n  5306: jump @305\n      : @120 (gas: 1)\n  5309: jump @173 if a0 <=s 1521856697\n      : @121 (gas: 1)\n  5317: jump @185 if a0 != 1640761190\n      : @122 (gas: 11)\n  5325: a0 = sp + 0xffffffffffffffe0\n  5328: a0 = a0 & 0xffffffffffffffe0\n  5331: u64 [s1 + 0x1b0] = a0\n  5335: sp = a0\n  5337: u64 [a0 + 24] = 0\n  5340: u64 [a0 + 16] = 0\n  5343: u64 [a0 + 8] = 0\n  5346: u64 [a0 + 0] = 0\n  5348: i32 a0 = a0 + 0\n  5350: ecalli 10 // 'value_transferred'\n  5352: fallthrough\n      : @123 (gas: 9)\n  5353: a3 = u64 [s1 + 0x1b0]\n  5357: a0 = u64 [a3 + 0x10]\n  5360: a1 = u64 [a3 + 0x18]\n  5363: a2 = u64 [a3 + 0x8]\n  5366: a3 = u64 [a3]\n  5368: a1 = a1 | a2\n  5371: a0 = a0 | a3\n  5374: a0 = a0 | a1\n  5377: jump @125 if a0 == 0\n      : @124 (gas: 1)\n  5380: jump @399\n      : @125 (gas: 3)\n  5383: a0 = u64 [s1 + 0x1b8]\n  5387: a0 = i32 [a0]\n  5389: jump @127 if a0 >u 3\n      : @126 (gas: 1)\n  5393: jump @399\n      : @127 (gas: 3)\n  5396: a0 = 0x40\n  5399: a1 = 0x20\n  5402: ra = 56, jump @0\n      : @128 [@dyn 28] (gas: 100)\n  5407: a1 = u8 [a0 + 0x11]\n  5410: a2 = u8 [a0 + 0x10]\n  5413: a3 = u8 [a0 + 0x12]\n  5416: a4 = u8 [a0 + 0x13]\n  5419: a1 = a1 << 0x8\n  5422: a1 = a1 | a2\n  5425: a3 = a3 << 0x10\n  5428: a4 = a4 << 0x18\n  5431: a3 = a3 | a4\n  5434: a1 = a1 | a3\n  5437: a2 = u8 [a0 + 0x15]\n  5440: a3 = u8 [a0 + 0x14]\n  5443: a4 = u8 [a0 + 0x16]\n  5446: a5 = u8 [a0 + 0x17]\n  5449: a2 = a2 << 0x8\n  5452: a2 = a2 | a3\n  5455: a4 = a4 << 0x10\n  5458: a5 = a5 << 0x18\n  5461: a4 = a4 | a5\n  5464: a2 = a2 | a4\n  5467: a2 = a2 << 0x20\n  5470: t0 = a2 | a1\n  5473: a2 = u8 [a0 + 0x1]\n  5476: a3 = u8 [a0]\n  5478: a4 = u8 [a0 + 0x2]\n  5481: a5 = u8 [a0 + 0x3]\n  5484: a2 = a2 << 0x8\n  5487: a2 = a2 | a3\n  5490: a4 = a4 << 0x10\n  5493: a5 = a5 << 0x18\n  5496: a4 = a4 | a5\n  5499: a2 = a2 | a4\n  5502: a3 = u8 [a0 + 0x5]\n  5505: a4 = u8 [a0 + 0x4]\n  5508: a5 = u8 [a0 + 0x6]\n  5511: a1 = u8 [a0 + 0x7]\n  5514: a3 = a3 << 0x8\n  5517: a3 = a3 | a4\n  5520: a5 = a5 << 0x10\n  5523: a1 = a1 << 0x18\n  5526: a1 = a1 | a5\n  5529: a1 = a1 | a3\n  5532: a1 = a1 << 0x20\n  5535: t1 = a1 | a2\n  5538: a1 = u8 [a0 + 0x19]\n  5541: a3 = u8 [a0 + 0x18]\n  5544: a4 = u8 [a0 + 0x1a]\n  5547: a5 = u8 [a0 + 0x1b]\n  5550: a1 = a1 << 0x8\n  5553: a1 = a1 | a3\n  5556: a4 = a4 << 0x10\n  5559: a5 = a5 << 0x18\n  5562: a4 = a4 | a5\n  5565: a1 = a1 | a4\n  5568: a3 = u8 [a0 + 0x1d]\n  5571: a4 = u8 [a0 + 0x1c]\n  5574: a5 = u8 [a0 + 0x1e]\n  5577: a2 = u8 [a0 + 0x1f]\n  5580: a3 = a3 << 0x8\n  5583: a3 = a3 | a4\n  5586: a5 = a5 << 0x10\n  5589: a2 = a2 << 0x18\n  5592: a2 = a2 | a5\n  5595: a2 = a2 | a3\n  5598: a2 = a2 << 0x20\n  5601: a3 = a2 | a1\n  5604: a1 = u8 [a0 + 0x9]\n  5607: a2 = u8 [a0 + 0x8]\n  5610: a4 = u8 [a0 + 0xa]\n  5613: a5 = u8 [a0 + 0xb]\n  5616: a1 = a1 << 0x8\n  5619: a1 = a1 | a2\n  5622: a4 = a4 << 0x10\n  5625: a5 = a5 << 0x18\n  5628: a4 = a4 | a5\n  5631: a1 = a1 | a4\n  5634: a2 = u8 [a0 + 0xd]\n  5637: a4 = u8 [a0 + 0xc]\n  5640: a5 = u8 [a0 + 0xe]\n  5643: a0 = u8 [a0 + 0xf]\n  5646: a2 = a2 << 0x8\n  5649: a2 = a2 | a4\n  5652: a5 = a5 << 0x10\n  5655: a0 = a0 << 0x18\n  5658: a0 = a0 | a5\n  5661: a0 = a0 | a2\n  5664: a0 = a0 << 0x20\n  5667: a0 = a0 | a1\n  5670: a1 = reverse a0\n  5672: a0 = reverse a3\n  5674: a2 = reverse t1\n  5676: a3 = reverse t0\n  5678: a2 = a2 | a3\n  5681: a3 = a0 | a1\n  5684: a3 = a3 | a2\n  5687: a3 = a3 >> 0x20\n  5690: a1 = a1 | a2\n  5693: a1 = a1 << 0x20\n  5696: a1 = a1 | a3\n  5699: jump @130 if a1 == 0\n      : @129 (gas: 1)\n  5702: jump @246\n      : @130 (gas: 4)\n  5705: i32 a0 = a0 + 0\n  5707: u64 [s1 + 0x1b8] = a0\n  5711: a1 = 0x20\n  5714: ra = 58, jump @0\n      : @131 [@dyn 29] (gas: 33)\n  5719: u8 [a0 + 31] = 0x91\n  5724: u8 [a0 + 30] = 0xcb\n  5729: u8 [a0 + 29] = 0x8f\n  5734: u8 [a0 + 28] = 0x6a\n  5738: u8 [a0 + 27] = 0x44\n  5742: u8 [a0 + 26] = 0x25\n  5746: u8 [a0 + 25] = 0x1d\n  5750: u8 [a0 + 24] = 0xba\n  5755: u8 [a0 + 23] = 0xdd\n  5760: u8 [a0 + 22] = 0xaf\n  5765: u8 [a0 + 21] = 0x92\n  5770: u8 [a0 + 20] = 0x67\n  5774: u8 [a0 + 19] = 0x49\n  5778: u8 [a0 + 18] = 0x87\n  5783: u8 [a0 + 17] = 0xbe\n  5788: u8 [a0 + 16] = 0xd0\n  5793: u8 [a0 + 15] = 0x3f\n  5797: u8 [a0 + 14] = 0xe3\n  5802: u8 [a0 + 13] = 0xaa\n  5807: u8 [a0 + 12] = 0x2e\n  5811: u8 [a0 + 11] = 0x5b\n  5815: u8 [a0 + 10] = 0x69\n  5819: u8 [a0 + 9] = 0xf7\n  5824: u8 [a0 + 8] = 0xa1\n  5829: u8 [a0 + 7] = 0x28\n  5833: u8 [a0 + 6] = 0xd8\n  5838: u8 [a0 + 5] = 0x65\n  5842: u8 [a0 + 4] = 0x7f\n  5846: u8 [a0 + 3] = 0xb2\n  5851: u8 [a0 + 2] = 0x90\n  5856: u8 [a0 + 1] = 0x23\n  5860: u8 [a0 + 0] = 0x92\n  5864: jump @296\n      : @132 (gas: 1)\n  5867: jump @134 if a0 == 1974614268\n      : @133 (gas: 1)\n  5874: jump @208\n      : @134 (gas: 11)\n  5877: a0 = sp + 0xffffffffffffffe0\n  5880: a0 = a0 & 0xffffffffffffffe0\n  5883: u64 [s1 + 0x1b0] = a0\n  5887: sp = a0\n  5889: u64 [a0 + 24] = 0\n  5892: u64 [a0 + 16] = 0\n  5895: u64 [a0 + 8] = 0\n  5898: u64 [a0 + 0] = 0\n  5900: i32 a0 = a0 + 0\n  5902: ecalli 10 // 'value_transferred'\n  5904: fallthrough\n      : @135 (gas: 9)\n  5905: a3 = u64 [s1 + 0x1b0]\n  5909: a0 = u64 [a3 + 0x10]\n  5912: a1 = u64 [a3 + 0x18]\n  5915: a2 = u64 [a3 + 0x8]\n  5918: a3 = u64 [a3]\n  5920: a1 = a1 | a2\n  5923: a0 = a0 | a3\n  5926: a0 = a0 | a1\n  5929: jump @137 if a0 == 0\n      : @136 (gas: 1)\n  5932: jump @399\n      : @137 (gas: 3)\n  5935: a0 = u64 [s1 + 0x1b8]\n  5939: a0 = i32 [a0]\n  5941: jump @139 if a0 >u 3\n      : @138 (gas: 1)\n  5945: jump @399\n      : @139 (gas: 3)\n  5948: a0 = 0x40\n  5951: a1 = 0x20\n  5954: ra = 60, jump @0\n      : @140 [@dyn 30] (gas: 100)\n  5959: a1 = u8 [a0 + 0x11]\n  5962: a2 = u8 [a0 + 0x10]\n  5965: a3 = u8 [a0 + 0x12]\n  5968: a4 = u8 [a0 + 0x13]\n  5971: a1 = a1 << 0x8\n  5974: a1 = a1 | a2\n  5977: a3 = a3 << 0x10\n  5980: a4 = a4 << 0x18\n  5983: a3 = a3 | a4\n  5986: a1 = a1 | a3\n  5989: a2 = u8 [a0 + 0x15]\n  5992: a3 = u8 [a0 + 0x14]\n  5995: a4 = u8 [a0 + 0x16]\n  5998: a5 = u8 [a0 + 0x17]\n  6001: a2 = a2 << 0x8\n  6004: a2 = a2 | a3\n  6007: a4 = a4 << 0x10\n  6010: a5 = a5 << 0x18\n  6013: a4 = a4 | a5\n  6016: a2 = a2 | a4\n  6019: a2 = a2 << 0x20\n  6022: t0 = a2 | a1\n  6025: a2 = u8 [a0 + 0x1]\n  6028: a3 = u8 [a0]\n  6030: a4 = u8 [a0 + 0x2]\n  6033: a5 = u8 [a0 + 0x3]\n  6036: a2 = a2 << 0x8\n  6039: a2 = a2 | a3\n  6042: a4 = a4 << 0x10\n  6045: a5 = a5 << 0x18\n  6048: a4 = a4 | a5\n  6051: a2 = a2 | a4\n  6054: a3 = u8 [a0 + 0x5]\n  6057: a4 = u8 [a0 + 0x4]\n  6060: a5 = u8 [a0 + 0x6]\n  6063: a1 = u8 [a0 + 0x7]\n  6066: a3 = a3 << 0x8\n  6069: a3 = a3 | a4\n  6072: a5 = a5 << 0x10\n  6075: a1 = a1 << 0x18\n  6078: a1 = a1 | a5\n  6081: a1 = a1 | a3\n  6084: a1 = a1 << 0x20\n  6087: t1 = a1 | a2\n  6090: a1 = u8 [a0 + 0x19]\n  6093: a3 = u8 [a0 + 0x18]\n  6096: a4 = u8 [a0 + 0x1a]\n  6099: a5 = u8 [a0 + 0x1b]\n  6102: a1 = a1 << 0x8\n  6105: a1 = a1 | a3\n  6108: a4 = a4 << 0x10\n  6111: a5 = a5 << 0x18\n  6114: a4 = a4 | a5\n  6117: a1 = a1 | a4\n  6120: a3 = u8 [a0 + 0x1d]\n  6123: a4 = u8 [a0 + 0x1c]\n  6126: a5 = u8 [a0 + 0x1e]\n  6129: a2 = u8 [a0 + 0x1f]\n  6132: a3 = a3 << 0x8\n  6135: a3 = a3 | a4\n  6138: a5 = a5 << 0x10\n  6141: a2 = a2 << 0x18\n  6144: a2 = a2 | a5\n  6147: a2 = a2 | a3\n  6150: a2 = a2 << 0x20\n  6153: a3 = a2 | a1\n  6156: a1 = u8 [a0 + 0x9]\n  6159: a2 = u8 [a0 + 0x8]\n  6162: a4 = u8 [a0 + 0xa]\n  6165: a5 = u8 [a0 + 0xb]\n  6168: a1 = a1 << 0x8\n  6171: a1 = a1 | a2\n  6174: a4 = a4 << 0x10\n  6177: a5 = a5 << 0x18\n  6180: a4 = a4 | a5\n  6183: a1 = a1 | a4\n  6186: a2 = u8 [a0 + 0xd]\n  6189: a4 = u8 [a0 + 0xc]\n  6192: a5 = u8 [a0 + 0xe]\n  6195: a0 = u8 [a0 + 0xf]\n  6198: a2 = a2 << 0x8\n  6201: a2 = a2 | a4\n  6204: a5 = a5 << 0x10\n  6207: a0 = a0 << 0x18\n  6210: a0 = a0 | a5\n  6213: a0 = a0 | a2\n  6216: a0 = a0 << 0x20\n  6219: a0 = a0 | a1\n  6222: a1 = reverse a0\n  6224: a0 = reverse a3\n  6226: a2 = reverse t1\n  6228: a3 = reverse t0\n  6230: a2 = a2 | a3\n  6233: a3 = a0 | a1\n  6236: a3 = a3 | a2\n  6239: a3 = a3 >> 0x20\n  6242: a1 = a1 | a2\n  6245: a1 = a1 << 0x20\n  6248: a1 = a1 | a3\n  6251: jump @142 if a1 == 0\n      : @141 (gas: 1)\n  6254: jump @246\n      : @142 (gas: 4)\n  6257: i32 a0 = a0 + 0\n  6259: u64 [s1 + 0x1b8] = a0\n  6263: a1 = 0x20\n  6266: ra = 62, jump @0\n      : @143 [@dyn 31] (gas: 33)\n  6271: u8 [a0 + 31] = 0x75\n  6275: u8 [a0 + 30] = 0x17\n  6279: u8 [a0 + 29] = 0xc2\n  6284: u8 [a0 + 28] = 0x93\n  6289: u8 [a0 + 27] = 0x56\n  6293: u8 [a0 + 26] = 0x9\n  6297: u8 [a0 + 25] = 0x5b\n  6301: u8 [a0 + 24] = 0x82\n  6306: u8 [a0 + 23] = 0x87\n  6311: u8 [a0 + 22] = 0xe2\n  6316: u8 [a0 + 21] = 0xfb\n  6321: u8 [a0 + 20] = 0x1\n  6325: u8 [a0 + 19] = 0xa2\n  6330: u8 [a0 + 18] = 0xf4\n  6335: u8 [a0 + 17] = 0x3c\n  6339: u8 [a0 + 16] = 0x91\n  6344: u8 [a0 + 15] = 0xe8\n  6349: u8 [a0 + 14] = 0x56\n  6353: u8 [a0 + 13] = 0x8f\n  6358: u8 [a0 + 12] = 0xa1\n  6363: u8 [a0 + 11] = 0xa8\n  6368: u8 [a0 + 10] = 0xf5\n  6373: u8 [a0 + 9] = 0x2e\n  6377: u8 [a0 + 8] = 0x9\n  6381: u8 [a0 + 7] = 0x55\n  6385: u8 [a0 + 6] = 0xd3\n  6390: u8 [a0 + 5] = 0xe4\n  6395: u8 [a0 + 4] = 0x5c\n  6399: u8 [a0 + 3] = 0x20\n  6403: u8 [a0 + 2] = 0x7\n  6407: u8 [a0 + 1] = 0x98\n  6412: u8 [a0 + 0] = 0xa4\n  6416: jump @296\n      : @144 (gas: 1)\n  6419: jump @146 if a0 == 2719481311\n      : @145 (gas: 1)\n  6426: jump @265\n      : @146 (gas: 11)\n  6429: a0 = sp + 0xffffffffffffffe0\n  6432: a0 = a0 & 0xffffffffffffffe0\n  6435: u64 [s1 + 0x1b0] = a0\n  6439: sp = a0\n  6441: u64 [a0 + 24] = 0\n  6444: u64 [a0 + 16] = 0\n  6447: u64 [a0 + 8] = 0\n  6450: u64 [a0 + 0] = 0\n  6452: i32 a0 = a0 + 0\n  6454: ecalli 10 // 'value_transferred'\n  6456: fallthrough\n      : @147 (gas: 9)\n  6457: a3 = u64 [s1 + 0x1b0]\n  6461: a0 = u64 [a3 + 0x10]\n  6464: a1 = u64 [a3 + 0x18]\n  6467: a2 = u64 [a3 + 0x8]\n  6470: a3 = u64 [a3]\n  6472: a1 = a1 | a2\n  6475: a0 = a0 | a3\n  6478: a0 = a0 | a1\n  6481: jump @149 if a0 == 0\n      : @148 (gas: 1)\n  6484: jump @399\n      : @149 (gas: 3)\n  6487: a0 = u64 [s1 + 0x1b8]\n  6491: a0 = i32 [a0]\n  6493: jump @151 if a0 >u 3\n      : @150 (gas: 1)\n  6497: jump @399\n      : @151 (gas: 3)\n  6500: a0 = 0x40\n  6503: a1 = 0x20\n  6506: ra = 64, jump @0\n      : @152 [@dyn 32] (gas: 100)\n  6511: a1 = u8 [a0 + 0x11]\n  6514: a2 = u8 [a0 + 0x10]\n  6517: a3 = u8 [a0 + 0x12]\n  6520: a4 = u8 [a0 + 0x13]\n  6523: a1 = a1 << 0x8\n  6526: a1 = a1 | a2\n  6529: a3 = a3 << 0x10\n  6532: a4 = a4 << 0x18\n  6535: a3 = a3 | a4\n  6538: a1 = a1 | a3\n  6541: a2 = u8 [a0 + 0x15]\n  6544: a3 = u8 [a0 + 0x14]\n  6547: a4 = u8 [a0 + 0x16]\n  6550: a5 = u8 [a0 + 0x17]\n  6553: a2 = a2 << 0x8\n  6556: a2 = a2 | a3\n  6559: a4 = a4 << 0x10\n  6562: a5 = a5 << 0x18\n  6565: a4 = a4 | a5\n  6568: a2 = a2 | a4\n  6571: a2 = a2 << 0x20\n  6574: t0 = a2 | a1\n  6577: a2 = u8 [a0 + 0x1]\n  6580: a3 = u8 [a0]\n  6582: a4 = u8 [a0 + 0x2]\n  6585: a5 = u8 [a0 + 0x3]\n  6588: a2 = a2 << 0x8\n  6591: a2 = a2 | a3\n  6594: a4 = a4 << 0x10\n  6597: a5 = a5 << 0x18\n  6600: a4 = a4 | a5\n  6603: a2 = a2 | a4\n  6606: a3 = u8 [a0 + 0x5]\n  6609: a4 = u8 [a0 + 0x4]\n  6612: a5 = u8 [a0 + 0x6]\n  6615: a1 = u8 [a0 + 0x7]\n  6618: a3 = a3 << 0x8\n  6621: a3 = a3 | a4\n  6624: a5 = a5 << 0x10\n  6627: a1 = a1 << 0x18\n  6630: a1 = a1 | a5\n  6633: a1 = a1 | a3\n  6636: a1 = a1 << 0x20\n  6639: t1 = a1 | a2\n  6642: a1 = u8 [a0 + 0x19]\n  6645: a3 = u8 [a0 + 0x18]\n  6648: a4 = u8 [a0 + 0x1a]\n  6651: a5 = u8 [a0 + 0x1b]\n  6654: a1 = a1 << 0x8\n  6657: a1 = a1 | a3\n  6660: a4 = a4 << 0x10\n  6663: a5 = a5 << 0x18\n  6666: a4 = a4 | a5\n  6669: a1 = a1 | a4\n  6672: a3 = u8 [a0 + 0x1d]\n  6675: a4 = u8 [a0 + 0x1c]\n  6678: a5 = u8 [a0 + 0x1e]\n  6681: a2 = u8 [a0 + 0x1f]\n  6684: a3 = a3 << 0x8\n  6687: a3 = a3 | a4\n  6690: a5 = a5 << 0x10\n  6693: a2 = a2 << 0x18\n  6696: a2 = a2 | a5\n  6699: a2 = a2 | a3\n  6702: a2 = a2 << 0x20\n  6705: a3 = a2 | a1\n  6708: a1 = u8 [a0 + 0x9]\n  6711: a2 = u8 [a0 + 0x8]\n  6714: a4 = u8 [a0 + 0xa]\n  6717: a5 = u8 [a0 + 0xb]\n  6720: a1 = a1 << 0x8\n  6723: a1 = a1 | a2\n  6726: a4 = a4 << 0x10\n  6729: a5 = a5 << 0x18\n  6732: a4 = a4 | a5\n  6735: a1 = a1 | a4\n  6738: a2 = u8 [a0 + 0xd]\n  6741: a4 = u8 [a0 + 0xc]\n  6744: a5 = u8 [a0 + 0xe]\n  6747: a0 = u8 [a0 + 0xf]\n  6750: a2 = a2 << 0x8\n  6753: a2 = a2 | a4\n  6756: a5 = a5 << 0x10\n  6759: a0 = a0 << 0x18\n  6762: a0 = a0 | a5\n  6765: a0 = a0 | a2\n  6768: a0 = a0 << 0x20\n  6771: a0 = a0 | a1\n  6774: a1 = reverse a0\n  6776: a0 = reverse a3\n  6778: a2 = reverse t1\n  6780: a3 = reverse t0\n  6782: a2 = a2 | a3\n  6785: a3 = a0 | a1\n  6788: a3 = a3 | a2\n  6791: a3 = a3 >> 0x20\n  6794: a1 = a1 | a2\n  6797: a1 = a1 << 0x20\n  6800: a1 = a1 | a3\n  6803: jump @154 if a1 == 0\n      : @153 (gas: 1)\n  6806: jump @246\n      : @154 (gas: 4)\n  6809: i32 a0 = a0 + 0\n  6811: u64 [s1 + 0x1b8] = a0\n  6815: a1 = 0x20\n  6818: ra = 66, jump @0\n      : @155 [@dyn 33] (gas: 36)\n  6823: u8 [a0 + 31] = 0\n  6826: u8 [a0 + 30] = 0\n  6829: u8 [a0 + 29] = 0\n  6832: u8 [a0 + 28] = 0\n  6835: u8 [a0 + 27] = 0\n  6838: u8 [a0 + 26] = 0\n  6841: u8 [a0 + 25] = 0\n  6844: u8 [a0 + 24] = 0\n  6847: u8 [a0 + 23] = 0\n  6850: u8 [a0 + 22] = 0\n  6853: u8 [a0 + 21] = 0\n  6856: u8 [a0 + 20] = 0\n  6859: u8 [a0 + 19] = 0\n  6862: u8 [a0 + 18] = 0\n  6865: u8 [a0 + 17] = 0\n  6868: u8 [a0 + 16] = 0\n  6871: u8 [a0 + 15] = 0\n  6874: u8 [a0 + 14] = 0\n  6877: u8 [a0 + 13] = 0\n  6880: u8 [a0 + 12] = 0\n  6883: u8 [a0 + 11] = 0\n  6886: u8 [a0 + 10] = 0\n  6889: u8 [a0 + 9] = 0\n  6892: u8 [a0 + 8] = 0\n  6895: u8 [a0 + 7] = 0\n  6898: u8 [a0 + 6] = 0\n  6901: u8 [a0 + 5] = 0\n  6904: u8 [a0 + 4] = 0\n  6907: u8 [a0 + 3] = 0\n  6910: u8 [a0 + 2] = 0\n  6913: u8 [a0 + 1] = 0\n  6916: u8 [a0 + 0] = 0\n  6918: a1 = 0x20\n  6921: a0 = u64 [s1 + 0x1b8]\n  6925: ra = 0x90\n  6929: jump @0\n      : @156 (gas: 2)\n  6932: a1 = 0x32072000\n  6938: jump @158 if a0 <=s 839328890\n      : @157 (gas: 1)\n  6945: jump @285\n      : @158 (gas: 1)\n  6948: jump @160 if a0 == 613063843\n      : @159 (gas: 1)\n  6955: jump @318\n      : @160 (gas: 11)\n  6958: a0 = sp + 0xffffffffffffffe0\n  6961: a0 = a0 & 0xffffffffffffffe0\n  6964: u64 [s1 + 0x1b0] = a0\n  6968: sp = a0\n  6970: u64 [a0 + 24] = 0\n  6973: u64 [a0 + 16] = 0\n  6976: u64 [a0 + 8] = 0\n  6979: u64 [a0 + 0] = 0\n  6981: i32 a0 = a0 + 0\n  6983: ecalli 10 // 'value_transferred'\n  6985: fallthrough\n      : @161 (gas: 9)\n  6986: a3 = u64 [s1 + 0x1b0]\n  6990: a0 = u64 [a3 + 0x10]\n  6993: a1 = u64 [a3 + 0x18]\n  6996: a2 = u64 [a3 + 0x8]\n  6999: a3 = u64 [a3]\n  7001: a1 = a1 | a2\n  7004: a0 = a0 | a3\n  7007: a0 = a0 | a1\n  7010: jump @163 if a0 == 0\n      : @162 (gas: 1)\n  7013: jump @399\n      : @163 (gas: 3)\n  7016: a0 = u64 [s1 + 0x1b8]\n  7020: a0 = i32 [a0]\n  7022: jump @165 if a0 >u 35\n      : @164 (gas: 1)\n  7026: jump @399\n      : @165 (gas: 17)\n  7029: a0 = s1 + 0x1000\n  7033: i32 a0 = a0 + 0xfffffffffffffb00\n  7037: a1 = 0x4\n  7040: ecalli 1 // 'call_data_load'\n  7042: a0 = s1 + 0x7ff\n  7046: a0 = a0 + 0x139\n  7050: a1 = u64 [a0 + 0x1c8]\n  7054: u64 [s1 + 0x1b8] = a1\n  7058: a1 = u64 [a0 + 0x1d0]\n  7062: u64 [s1 + 0x1b0] = a1\n  7066: a1 = u64 [a0 + 0x1d8]\n  7070: u64 [s1 + 0x1a8] = a1\n  7074: a0 = u64 [a0 + 0x1e0]\n  7078: u64 [s1 + 0x1a0] = a0\n  7082: a1 = 0x20\n  7085: a0 = 0\n  7087: ra = 68, jump @0\n      : @166 [@dyn 34] (gas: 71)\n  7092: a1 = u64 [s1 + 0x1a0]\n  7096: a1 = reverse a1\n  7098: a2 = u64 [s1 + 0x1a8]\n  7102: a2 = reverse a2\n  7104: a3 = u64 [s1 + 0x1b0]\n  7108: a3 = reverse a3\n  7110: a4 = u64 [s1 + 0x1b8]\n  7114: a4 = reverse a4\n  7116: a5 = a4 >> 0x38\n  7119: u8 [a0 + 0x1f] = a5\n  7122: a5 = a4 >> 0x30\n  7125: u8 [a0 + 0x1e] = a5\n  7128: a5 = a4 >> 0x28\n  7131: u8 [a0 + 0x1d] = a5\n  7134: a5 = a4 >> 0x20\n  7137: u8 [a0 + 0x1c] = a5\n  7140: a5 = a4 >> 0x18\n  7143: u8 [a0 + 0x1b] = a5\n  7146: a5 = a4 >> 0x10\n  7149: u8 [a0 + 0x1a] = a5\n  7152: a5 = a4 >> 0x8\n  7155: u8 [a0 + 0x19] = a5\n  7158: u8 [a0 + 0x18] = a4\n  7161: a4 = a3 >> 0x38\n  7164: u8 [a0 + 0x17] = a4\n  7167: a4 = a3 >> 0x30\n  7170: u8 [a0 + 0x16] = a4\n  7173: a4 = a3 >> 0x28\n  7176: u8 [a0 + 0x15] = a4\n  7179: a4 = a3 >> 0x20\n  7182: u8 [a0 + 0x14] = a4\n  7185: a4 = a3 >> 0x18\n  7188: u8 [a0 + 0x13] = a4\n  7191: a4 = a3 >> 0x10\n  7194: u8 [a0 + 0x12] = a4\n  7197: a4 = a3 >> 0x8\n  7200: u8 [a0 + 0x11] = a4\n  7203: u8 [a0 + 0x10] = a3\n  7206: a3 = a2 >> 0x38\n  7209: u8 [a0 + 0xf] = a3\n  7212: a3 = a2 >> 0x30\n  7215: u8 [a0 + 0xe] = a3\n  7218: a3 = a2 >> 0x28\n  7221: u8 [a0 + 0xd] = a3\n  7224: a3 = a2 >> 0x20\n  7227: u8 [a0 + 0xc] = a3\n  7230: a3 = a2 >> 0x18\n  7233: u8 [a0 + 0xb] = a3\n  7236: a3 = a2 >> 0x10\n  7239: u8 [a0 + 0xa] = a3\n  7242: a3 = a2 >> 0x8\n  7245: u8 [a0 + 0x9] = a3\n  7248: u8 [a0 + 0x8] = a2\n  7251: a2 = a1 >> 0x38\n  7254: u8 [a0 + 0x7] = a2\n  7257: a2 = a1 >> 0x30\n  7260: u8 [a0 + 0x6] = a2\n  7263: a2 = a1 >> 0x28\n  7266: u8 [a0 + 0x5] = a2\n  7269: a2 = a1 >> 0x20\n  7272: u8 [a0 + 0x4] = a2\n  7275: a2 = a1 >> 0x18\n  7278: u8 [a0 + 0x3] = a2\n  7281: a2 = a1 >> 0x10\n  7284: u8 [a0 + 0x2] = a2\n  7287: a2 = a1 >> 0x8\n  7290: u8 [a0 + 0x1] = a2\n  7293: u8 [a0] = a1\n  7295: a0 = 0x20\n  7298: a1 = 0x20\n  7301: ra = 70, jump @0\n      : @167 [@dyn 35] (gas: 35)\n  7306: u8 [a0 + 31] = 0\n  7309: u8 [a0 + 30] = 0\n  7312: u8 [a0 + 29] = 0\n  7315: u8 [a0 + 28] = 0\n  7318: u8 [a0 + 27] = 0\n  7321: u8 [a0 + 26] = 0\n  7324: u8 [a0 + 25] = 0\n  7327: u8 [a0 + 24] = 0\n  7330: u8 [a0 + 23] = 0\n  7333: u8 [a0 + 22] = 0\n  7336: u8 [a0 + 21] = 0\n  7339: u8 [a0 + 20] = 0\n  7342: u8 [a0 + 19] = 0\n  7345: u8 [a0 + 18] = 0\n  7348: u8 [a0 + 17] = 0\n  7351: u8 [a0 + 16] = 0\n  7354: u8 [a0 + 15] = 0\n  7357: u8 [a0 + 14] = 0\n  7360: u8 [a0 + 13] = 0\n  7363: u8 [a0 + 12] = 0\n  7366: u8 [a0 + 11] = 0\n  7369: u8 [a0 + 10] = 0\n  7372: u8 [a0 + 9] = 0\n  7375: u8 [a0 + 8] = 0\n  7378: u8 [a0 + 7] = 0\n  7381: u8 [a0 + 6] = 0\n  7384: u8 [a0 + 5] = 0\n  7387: u8 [a0 + 4] = 0\n  7390: u8 [a0 + 3] = 0\n  7393: u8 [a0 + 2] = 0\n  7396: u8 [a0 + 1] = 0\n  7399: u8 [a0 + 0] = 0\n  7401: a1 = 0x40\n  7404: a0 = 0\n  7406: ra = 72, jump @0\n      : @168 [@dyn 36] (gas: 58)\n  7411: i32 a0 = a0 + 0\n  7413: a1 = s1 + 0x1000\n  7417: i32 a2 = a1 + 0xfffffffffffffd20\n  7421: a1 = 0x40\n  7424: ecalli 6 // 'hash_keccak_256'\n  7426: a5 = s1 + 0x7ff\n  7430: a5 = a5 + 0x139\n  7434: a0 = u64 [a5 + 0x3e8]\n  7438: a1 = u64 [a5 + 0x3f0]\n  7442: a2 = u64 [a5 + 0x3f8]\n  7446: a3 = u64 [a5 + 0x400]\n  7450: a0 = reverse a0\n  7452: a1 = reverse a1\n  7454: a2 = reverse a2\n  7456: a3 = reverse a3\n  7458: a3 = a3 + 0x1\n  7461: a4 = a3 <u 0x1\n  7464: a2 = a2 + a4\n  7467: a4 = a3 | a2\n  7470: a4 = a4 <u 0x1\n  7473: a4 = a4 + a1\n  7476: a1 = a4 <u a1\n  7479: a0 = a0 + a1\n  7482: a0 = reverse a0\n  7484: a1 = reverse a4\n  7486: a2 = reverse a2\n  7488: a3 = reverse a3\n  7490: u64 [a5 + 0x440] = a3\n  7494: u64 [a5 + 0x438] = a2\n  7498: u64 [a5 + 0x430] = a1\n  7502: u64 [a5 + 0x428] = a0\n  7506: u64 [a5 + 1120] = 0\n  7510: u64 [a5 + 1112] = 0\n  7514: u64 [a5 + 1104] = 0\n  7518: u64 [a5 + 1096] = 0\n  7522: u32 [a5 + 1032] = 0x20\n  7527: a0 = s1 + 0x1000\n  7531: i32 a1 = a0 + 0xfffffffffffffd60\n  7535: a0 = s1 + 0x1000\n  7539: i32 a3 = a0 + 0xfffffffffffffd80\n  7543: a0 = s1 + 0x1000\n  7547: i32 a4 = a0 + 0xfffffffffffffd40\n  7551: a2 = 0xffffffffffffffff\n  7554: a0 = 0\n  7556: ecalli 5 // 'get_storage'\n  7558: a1 = s1 + 0x7ff\n  7562: a1 = a1 + 0x139\n  7566: a0 = u64 [a1 + 0x460]\n  7570: u64 [s1 + 0x1b8] = a0\n  7574: a0 = u64 [a1 + 0x458]\n  7578: u64 [s1 + 0x1b0] = a0\n  7582: a0 = u64 [a1 + 0x450]\n  7586: u64 [s1 + 0x1a0] = a0\n  7590: a0 = u64 [a1 + 0x448]\n  7594: u64 [s1 + 0x1a8] = a0\n  7598: a0 = 0x40\n  7601: a1 = 0x20\n  7604: ra = 74, jump @0\n      : @169 [@dyn 37] (gas: 100)\n  7609: a1 = u8 [a0 + 0x11]\n  7612: a2 = u8 [a0 + 0x10]\n  7615: a3 = u8 [a0 + 0x12]\n  7618: a4 = u8 [a0 + 0x13]\n  7621: a1 = a1 << 0x8\n  7624: a1 = a1 | a2\n  7627: a3 = a3 << 0x10\n  7630: a4 = a4 << 0x18\n  7633: a3 = a3 | a4\n  7636: a1 = a1 | a3\n  7639: a2 = u8 [a0 + 0x15]\n  7642: a3 = u8 [a0 + 0x14]\n  7645: a4 = u8 [a0 + 0x16]\n  7648: a5 = u8 [a0 + 0x17]\n  7651: a2 = a2 << 0x8\n  7654: a2 = a2 | a3\n  7657: a4 = a4 << 0x10\n  7660: a5 = a5 << 0x18\n  7663: a4 = a4 | a5\n  7666: a2 = a2 | a4\n  7669: a2 = a2 << 0x20\n  7672: t0 = a2 | a1\n  7675: a2 = u8 [a0 + 0x1]\n  7678: a3 = u8 [a0]\n  7680: a4 = u8 [a0 + 0x2]\n  7683: a5 = u8 [a0 + 0x3]\n  7686: a2 = a2 << 0x8\n  7689: a2 = a2 | a3\n  7692: a4 = a4 << 0x10\n  7695: a5 = a5 << 0x18\n  7698: a4 = a4 | a5\n  7701: a2 = a2 | a4\n  7704: a3 = u8 [a0 + 0x5]\n  7707: a4 = u8 [a0 + 0x4]\n  7710: a5 = u8 [a0 + 0x6]\n  7713: a1 = u8 [a0 + 0x7]\n  7716: a3 = a3 << 0x8\n  7719: a3 = a3 | a4\n  7722: a5 = a5 << 0x10\n  7725: a1 = a1 << 0x18\n  7728: a1 = a1 | a5\n  7731: a1 = a1 | a3\n  7734: a1 = a1 << 0x20\n  7737: t1 = a1 | a2\n  7740: a1 = u8 [a0 + 0x19]\n  7743: a3 = u8 [a0 + 0x18]\n  7746: a4 = u8 [a0 + 0x1a]\n  7749: a5 = u8 [a0 + 0x1b]\n  7752: a1 = a1 << 0x8\n  7755: a1 = a1 | a3\n  7758: a4 = a4 << 0x10\n  7761: a5 = a5 << 0x18\n  7764: a4 = a4 | a5\n  7767: a1 = a1 | a4\n  7770: a3 = u8 [a0 + 0x1d]\n  7773: a4 = u8 [a0 + 0x1c]\n  7776: a5 = u8 [a0 + 0x1e]\n  7779: a2 = u8 [a0 + 0x1f]\n  7782: a3 = a3 << 0x8\n  7785: a3 = a3 | a4\n  7788: a5 = a5 << 0x10\n  7791: a2 = a2 << 0x18\n  7794: a2 = a2 | a5\n  7797: a2 = a2 | a3\n  7800: a2 = a2 << 0x20\n  7803: a3 = a2 | a1\n  7806: a1 = u8 [a0 + 0x9]\n  7809: a2 = u8 [a0 + 0x8]\n  7812: a4 = u8 [a0 + 0xa]\n  7815: a5 = u8 [a0 + 0xb]\n  7818: a1 = a1 << 0x8\n  7821: a1 = a1 | a2\n  7824: a4 = a4 << 0x10\n  7827: a5 = a5 << 0x18\n  7830: a4 = a4 | a5\n  7833: a1 = a1 | a4\n  7836: a2 = u8 [a0 + 0xd]\n  7839: a4 = u8 [a0 + 0xc]\n  7842: a5 = u8 [a0 + 0xe]\n  7845: a0 = u8 [a0 + 0xf]\n  7848: a2 = a2 << 0x8\n  7851: a2 = a2 | a4\n  7854: a5 = a5 << 0x10\n  7857: a0 = a0 << 0x18\n  7860: a0 = a0 | a5\n  7863: a0 = a0 | a2\n  7866: a0 = a0 << 0x20\n  7869: a0 = a0 | a1\n  7872: a1 = reverse a0\n  7874: a0 = reverse a3\n  7876: a2 = reverse t1\n  7878: a3 = reverse t0\n  7880: a2 = a2 | a3\n  7883: a3 = a0 | a1\n  7886: a3 = a3 | a2\n  7889: a3 = a3 >> 0x20\n  7892: a1 = a1 | a2\n  7895: a1 = a1 << 0x20\n  7898: a1 = a1 | a3\n  7901: jump @171 if a1 == 0\n      : @170 (gas: 1)\n  7904: jump @246\n      : @171 (gas: 4)\n  7907: i32 a0 = a0 + 0\n  7909: u64 [s1 + 0x198] = a0\n  7913: a1 = 0x20\n  7916: ra = 76, jump @0\n      : @172 [@dyn 38] (gas: 68)\n  7921: a3 = u64 [s1 + 0x1b0]\n  7925: u8 [a0 + 0x10] = a3\n  7928: a2 = u64 [s1 + 0x1a0]\n  7932: a1 = a2 >> 0x38\n  7935: u8 [a0 + 0xf] = a1\n  7938: a1 = a2 >> 0x30\n  7941: u8 [a0 + 0xe] = a1\n  7944: a1 = a2 >> 0x28\n  7947: u8 [a0 + 0xd] = a1\n  7950: a1 = a2 >> 0x20\n  7953: u8 [a0 + 0xc] = a1\n  7956: a1 = a2 >> 0x18\n  7959: u8 [a0 + 0xb] = a1\n  7962: a1 = a2 >> 0x10\n  7965: u8 [a0 + 0xa] = a1\n  7968: a1 = a2 >> 0x8\n  7971: u8 [a0 + 0x9] = a1\n  7974: u8 [a0 + 0x8] = a2\n  7977: a2 = u64 [s1 + 0x1a8]\n  7981: a1 = a2 >> 0x38\n  7984: u8 [a0 + 0x7] = a1\n  7987: a1 = a2 >> 0x30\n  7990: u8 [a0 + 0x6] = a1\n  7993: a1 = a2 >> 0x28\n  7996: u8 [a0 + 0x5] = a1\n  7999: a1 = a2 >> 0x20\n  8002: u8 [a0 + 0x4] = a1\n  8005: a1 = a2 >> 0x18\n  8008: u8 [a0 + 0x3] = a1\n  8011: a1 = a2 >> 0x10\n  8014: u8 [a0 + 0x2] = a1\n  8017: a1 = a2 >> 0x8\n  8020: u8 [a0 + 0x1] = a1\n  8023: u8 [a0] = a2\n  8025: a2 = u64 [s1 + 0x1b8]\n  8029: u8 [a0 + 0x18] = a2\n  8032: a1 = a3 >> 0x38\n  8035: u8 [a0 + 0x17] = a1\n  8038: a1 = a3 >> 0x30\n  8041: u8 [a0 + 0x16] = a1\n  8044: a1 = a3 >> 0x28\n  8047: u8 [a0 + 0x15] = a1\n  8050: a1 = a3 >> 0x20\n  8053: u8 [a0 + 0x14] = a1\n  8056: a1 = a3 >> 0x18\n  8059: u8 [a0 + 0x13] = a1\n  8062: a1 = a3 >> 0x10\n  8065: u8 [a0 + 0x12] = a1\n  8068: a1 = a3 >> 0x8\n  8071: u8 [a0 + 0x11] = a1\n  8074: a1 = a2 >> 0x38\n  8077: u8 [a0 + 0x1f] = a1\n  8080: a1 = a2 >> 0x30\n  8083: u8 [a0 + 0x1e] = a1\n  8086: a1 = a2 >> 0x28\n  8089: u8 [a0 + 0x1d] = a1\n  8092: a1 = a2 >> 0x20\n  8095: u8 [a0 + 0x1c] = a1\n  8098: a1 = a2 >> 0x18\n  8101: u8 [a0 + 0x1b] = a1\n  8104: a1 = a2 >> 0x10\n  8107: u8 [a0 + 0x1a] = a1\n  8110: a1 = a2 >> 0x8\n  8113: u8 [a0 + 0x19] = a1\n  8116: a1 = 0x20\n  8119: a0 = u64 [s1 + 0x198]\n  8123: ra = 0x90\n  8127: jump @0\n      : @173 (gas: 1)\n  8130: jump @175 if a0 == 1236862295\n      : @174 (gas: 1)\n  8137: jump @326\n      : @175 (gas: 11)\n  8140: a0 = sp + 0xffffffffffffffe0\n  8143: a0 = a0 & 0xffffffffffffffe0\n  8146: u64 [s1 + 0x1b0] = a0\n  8150: sp = a0\n  8152: u64 [a0 + 24] = 0\n  8155: u64 [a0 + 16] = 0\n  8158: u64 [a0 + 8] = 0\n  8161: u64 [a0 + 0] = 0\n  8163: i32 a0 = a0 + 0\n  8165: ecalli 10 // 'value_transferred'\n  8167: fallthrough\n      : @176 (gas: 9)\n  8168: a3 = u64 [s1 + 0x1b0]\n  8172: a0 = u64 [a3 + 0x10]\n  8175: a1 = u64 [a3 + 0x18]\n  8178: a2 = u64 [a3 + 0x8]\n  8181: a3 = u64 [a3]\n  8183: a1 = a1 | a2\n  8186: a0 = a0 | a3\n  8189: a0 = a0 | a1\n  8192: jump @178 if a0 == 0\n      : @177 (gas: 1)\n  8195: jump @399\n      : @178 (gas: 3)\n  8198: a0 = u64 [s1 + 0x1b8]\n  8202: a0 = i32 [a0]\n  8204: jump @180 if a0 >u 35\n      : @179 (gas: 1)\n  8208: jump @399\n      : @180 (gas: 5)\n  8211: a0 = s1 + 0x1000\n  8215: i32 a0 = a0 + 0xfffffffffffffd80\n  8219: a1 = 0x4\n  8222: ecalli 1 // 'call_data_load'\n  8224: fallthrough\n      : @181 (gas: 14)\n  8225: a2 = s1 + 0x7ff\n  8229: a2 = a2 + 0x139\n  8233: a1 = u64 [a2 + 0x458]\n  8237: a3 = u64 [a2 + 0x460]\n  8241: a0 = 0x100000000\n  8251: a0 = a0 ^ a1\n  8254: a0 = a0 | a3\n  8257: u64 [s1 + 0x1b8] = a1\n  8261: a1 = a1 >> 0x20\n  8264: a1 = a1 <u 0x1\n  8267: u64 [s1 + 0x1b0] = a3\n  8271: a1 = 0 if a3 != 0\n  8273: a1 = 0 if a0 == 0\n  8275: jump @183 if a1 != 0\n      : @182 (gas: 1)\n  8278: jump @310\n      : @183 (gas: 7)\n  8281: a0 = u64 [a2 + 0x450]\n  8285: u64 [s1 + 0x1a0] = a0\n  8289: a0 = u64 [a2 + 0x448]\n  8293: u64 [s1 + 0x1a8] = a0\n  8297: a1 = 0x20\n  8300: a0 = 0\n  8302: ra = 78, jump @0\n      : @184 [@dyn 39] (gas: 33)\n  8307: u8 [a0 + 31] = 0xf5\n  8312: u8 [a0 + 30] = 0xe2\n  8317: u8 [a0 + 29] = 0x9f\n  8322: u8 [a0 + 28] = 0xd3\n  8327: u8 [a0 + 27] = 0xea\n  8332: u8 [a0 + 26] = 0\n  8335: u8 [a0 + 25] = 0x26\n  8339: u8 [a0 + 24] = 0x5e\n  8343: u8 [a0 + 23] = 0x4f\n  8347: u8 [a0 + 22] = 0xfd\n  8352: u8 [a0 + 21] = 0x51\n  8356: u8 [a0 + 20] = 0xf6\n  8361: u8 [a0 + 19] = 0xfb\n  8366: u8 [a0 + 18] = 0xc4\n  8371: u8 [a0 + 17] = 0x9e\n  8376: u8 [a0 + 16] = 0x24\n  8380: u8 [a0 + 15] = 0xf3\n  8385: u8 [a0 + 14] = 0x9b\n  8390: u8 [a0 + 13] = 0x12\n  8394: u8 [a0 + 12] = 0xbe\n  8399: u8 [a0 + 11] = 0xdc\n  8404: u8 [a0 + 10] = 0xce\n  8409: u8 [a0 + 9] = 0x3d\n  8413: u8 [a0 + 8] = 0x7f\n  8417: u8 [a0 + 7] = 0x7a\n  8421: u8 [a0 + 6] = 0xad\n  8426: u8 [a0 + 5] = 0x37\n  8430: u8 [a0 + 4] = 0x58\n  8434: u8 [a0 + 3] = 0x8e\n  8439: u8 [a0 + 2] = 0xc4\n  8444: u8 [a0 + 1] = 0xa1\n  8449: a1 = 0x59\n  8452: jump @237\n      : @185 (gas: 1)\n  8455: jump @187 if a0 == 1784406988\n      : @186 (gas: 1)\n  8462: jump @335\n      : @187 (gas: 11)\n  8465: a0 = sp + 0xffffffffffffffe0\n  8468: a0 = a0 & 0xffffffffffffffe0\n  8471: u64 [s1 + 0x1b0] = a0\n  8475: sp = a0\n  8477: u64 [a0 + 24] = 0\n  8480: u64 [a0 + 16] = 0\n  8483: u64 [a0 + 8] = 0\n  8486: u64 [a0 + 0] = 0\n  8488: i32 a0 = a0 + 0\n  8490: ecalli 10 // 'value_transferred'\n  8492: fallthrough\n      : @188 (gas: 9)\n  8493: a3 = u64 [s1 + 0x1b0]\n  8497: a0 = u64 [a3 + 0x10]\n  8500: a1 = u64 [a3 + 0x18]\n  8503: a2 = u64 [a3 + 0x8]\n  8506: a3 = u64 [a3]\n  8508: a1 = a1 | a2\n  8511: a0 = a0 | a3\n  8514: a0 = a0 | a1\n  8517: jump @190 if a0 == 0\n      : @189 (gas: 1)\n  8520: jump @399\n      : @190 (gas: 3)\n  8523: a0 = u64 [s1 + 0x1b8]\n  8527: a0 = i32 [a0]\n  8529: jump @192 if a0 >u 35\n      : @191 (gas: 1)\n  8533: jump @399\n      : @192 (gas: 5)\n  8536: a0 = s1 + 0x1000\n  8540: i32 a0 = a0 + 0xfffffffffffffd80\n  8544: a1 = 0x4\n  8547: ecalli 1 // 'call_data_load'\n  8549: fallthrough\n      : @193 (gas: 14)\n  8550: a2 = s1 + 0x7ff\n  8554: a2 = a2 + 0x139\n  8558: a1 = u64 [a2 + 0x458]\n  8562: a3 = u64 [a2 + 0x460]\n  8566: a0 = 0x100000000\n  8576: a0 = a0 ^ a1\n  8579: a0 = a0 | a3\n  8582: u64 [s1 + 0x1b8] = a1\n  8586: a1 = a1 >> 0x20\n  8589: a1 = a1 <u 0x1\n  8592: u64 [s1 + 0x1b0] = a3\n  8596: a1 = 0 if a3 != 0\n  8598: a1 = 0 if a0 == 0\n  8600: jump @195 if a1 != 0\n      : @194 (gas: 1)\n  8603: jump @310\n      : @195 (gas: 7)\n  8606: a0 = u64 [a2 + 0x450]\n  8610: u64 [s1 + 0x1a0] = a0\n  8614: a0 = u64 [a2 + 0x448]\n  8618: u64 [s1 + 0x1a8] = a0\n  8622: a1 = 0x20\n  8625: a0 = 0\n  8627: ra = 80, jump @0\n      : @196 [@dyn 40] (gas: 33)\n  8632: u8 [a0 + 31] = 0x29\n  8636: u8 [a0 + 30] = 0x50\n  8640: u8 [a0 + 29] = 0x21\n  8644: u8 [a0 + 28] = 0x79\n  8648: u8 [a0 + 27] = 0x1c\n  8652: u8 [a0 + 26] = 0xfd\n  8657: u8 [a0 + 25] = 0xa9\n  8662: u8 [a0 + 24] = 0xc7\n  8667: u8 [a0 + 23] = 0x2\n  8671: u8 [a0 + 22] = 0xff\n  8676: u8 [a0 + 21] = 0x69\n  8680: u8 [a0 + 20] = 0xdd\n  8685: u8 [a0 + 19] = 0x89\n  8690: u8 [a0 + 18] = 0xb5\n  8695: u8 [a0 + 17] = 0x11\n  8699: u8 [a0 + 16] = 0x9\n  8703: u8 [a0 + 15] = 0xe6\n  8708: u8 [a0 + 14] = 0x7b\n  8712: u8 [a0 + 13] = 0x9\n  8716: u8 [a0 + 12] = 0x83\n  8721: u8 [a0 + 11] = 0xf7\n  8726: u8 [a0 + 10] = 0x6c\n  8730: u8 [a0 + 9] = 0x34\n  8734: u8 [a0 + 8] = 0xf9\n  8739: u8 [a0 + 7] = 0x54\n  8743: u8 [a0 + 6] = 0x19\n  8747: u8 [a0 + 5] = 0x99\n  8752: u8 [a0 + 4] = 0x3c\n  8756: u8 [a0 + 3] = 0xe5\n  8761: u8 [a0 + 2] = 0\n  8764: u8 [a0 + 1] = 0x6a\n  8768: a1 = 0x96\n  8772: jump @237\n      : @197 (gas: 1)\n  8775: jump @199 if a0 == 1847419246\n      : @198 (gas: 1)\n  8782: jump @399\n      : @199 (gas: 11)\n  8785: a0 = sp + 0xffffffffffffffe0\n  8788: a0 = a0 & 0xffffffffffffffe0\n  8791: u64 [s1 + 0x1b0] = a0\n  8795: sp = a0\n  8797: u64 [a0 + 24] = 0\n  8800: u64 [a0 + 16] = 0\n  8803: u64 [a0 + 8] = 0\n  8806: u64 [a0 + 0] = 0\n  8808: i32 a0 = a0 + 0\n  8810: ecalli 10 // 'value_transferred'\n  8812: fallthrough\n      : @200 (gas: 9)\n  8813: a3 = u64 [s1 + 0x1b0]\n  8817: a0 = u64 [a3 + 0x10]\n  8820: a1 = u64 [a3 + 0x18]\n  8823: a2 = u64 [a3 + 0x8]\n  8826: a3 = u64 [a3]\n  8828: a1 = a1 | a2\n  8831: a0 = a0 | a3\n  8834: a0 = a0 | a1\n  8837: jump @202 if a0 == 0\n      : @201 (gas: 1)\n  8840: jump @399\n      : @202 (gas: 3)\n  8843: a0 = u64 [s1 + 0x1b8]\n  8847: a0 = i32 [a0]\n  8849: jump @204 if a0 >u 3\n      : @203 (gas: 1)\n  8853: jump @399\n      : @204 (gas: 3)\n  8856: a0 = 0x40\n  8859: a1 = 0x20\n  8862: ra = 82, jump @0\n      : @205 [@dyn 41] (gas: 100)\n  8867: a1 = u8 [a0 + 0x11]\n  8870: a2 = u8 [a0 + 0x10]\n  8873: a3 = u8 [a0 + 0x12]\n  8876: a4 = u8 [a0 + 0x13]\n  8879: a1 = a1 << 0x8\n  8882: a1 = a1 | a2\n  8885: a3 = a3 << 0x10\n  8888: a4 = a4 << 0x18\n  8891: a3 = a3 | a4\n  8894: a1 = a1 | a3\n  8897: a2 = u8 [a0 + 0x15]\n  8900: a3 = u8 [a0 + 0x14]\n  8903: a4 = u8 [a0 + 0x16]\n  8906: a5 = u8 [a0 + 0x17]\n  8909: a2 = a2 << 0x8\n  8912: a2 = a2 | a3\n  8915: a4 = a4 << 0x10\n  8918: a5 = a5 << 0x18\n  8921: a4 = a4 | a5\n  8924: a2 = a2 | a4\n  8927: a2 = a2 << 0x20\n  8930: t0 = a2 | a1\n  8933: a2 = u8 [a0 + 0x1]\n  8936: a3 = u8 [a0]\n  8938: a4 = u8 [a0 + 0x2]\n  8941: a5 = u8 [a0 + 0x3]\n  8944: a2 = a2 << 0x8\n  8947: a2 = a2 | a3\n  8950: a4 = a4 << 0x10\n  8953: a5 = a5 << 0x18\n  8956: a4 = a4 | a5\n  8959: a2 = a2 | a4\n  8962: a3 = u8 [a0 + 0x5]\n  8965: a4 = u8 [a0 + 0x4]\n  8968: a5 = u8 [a0 + 0x6]\n  8971: a1 = u8 [a0 + 0x7]\n  8974: a3 = a3 << 0x8\n  8977: a3 = a3 | a4\n  8980: a5 = a5 << 0x10\n  8983: a1 = a1 << 0x18\n  8986: a1 = a1 | a5\n  8989: a1 = a1 | a3\n  8992: a1 = a1 << 0x20\n  8995: t1 = a1 | a2\n  8998: a1 = u8 [a0 + 0x19]\n  9001: a3 = u8 [a0 + 0x18]\n  9004: a4 = u8 [a0 + 0x1a]\n  9007: a5 = u8 [a0 + 0x1b]\n  9010: a1 = a1 << 0x8\n  9013: a1 = a1 | a3\n  9016: a4 = a4 << 0x10\n  9019: a5 = a5 << 0x18\n  9022: a4 = a4 | a5\n  9025: a1 = a1 | a4\n  9028: a3 = u8 [a0 + 0x1d]\n  9031: a4 = u8 [a0 + 0x1c]\n  9034: a5 = u8 [a0 + 0x1e]\n  9037: a2 = u8 [a0 + 0x1f]\n  9040: a3 = a3 << 0x8\n  9043: a3 = a3 | a4\n  9046: a5 = a5 << 0x10\n  9049: a2 = a2 << 0x18\n  9052: a2 = a2 | a5\n  9055: a2 = a2 | a3\n  9058: a2 = a2 << 0x20\n  9061: a3 = a2 | a1\n  9064: a1 = u8 [a0 + 0x9]\n  9067: a2 = u8 [a0 + 0x8]\n  9070: a4 = u8 [a0 + 0xa]\n  9073: a5 = u8 [a0 + 0xb]\n  9076: a1 = a1 << 0x8\n  9079: a1 = a1 | a2\n  9082: a4 = a4 << 0x10\n  9085: a5 = a5 << 0x18\n  9088: a4 = a4 | a5\n  9091: a1 = a1 | a4\n  9094: a2 = u8 [a0 + 0xd]\n  9097: a4 = u8 [a0 + 0xc]\n  9100: a5 = u8 [a0 + 0xe]\n  9103: a0 = u8 [a0 + 0xf]\n  9106: a2 = a2 << 0x8\n  9109: a2 = a2 | a4\n  9112: a5 = a5 << 0x10\n  9115: a0 = a0 << 0x18\n  9118: a0 = a0 | a5\n  9121: a0 = a0 | a2\n  9124: a0 = a0 << 0x20\n  9127: a0 = a0 | a1\n  9130: a1 = reverse a0\n  9132: a0 = reverse a3\n  9134: a2 = reverse t1\n  9136: a3 = reverse t0\n  9138: a2 = a2 | a3\n  9141: a3 = a0 | a1\n  9144: a3 = a3 | a2\n  9147: a3 = a3 >> 0x20\n  9150: a1 = a1 | a2\n  9153: a1 = a1 << 0x20\n  9156: a1 = a1 | a3\n  9159: jump @246 if a1 != 0\n      : @206 (gas: 4)\n  9163: i32 a0 = a0 + 0\n  9165: u64 [s1 + 0x1b8] = a0\n  9169: a1 = 0x20\n  9172: ra = 84, jump @0\n      : @207 [@dyn 42] (gas: 33)\n  9177: u8 [a0 + 31] = 0xf5\n  9182: u8 [a0 + 30] = 0xe2\n  9187: u8 [a0 + 29] = 0x9f\n  9192: u8 [a0 + 28] = 0xd3\n  9197: u8 [a0 + 27] = 0xea\n  9202: u8 [a0 + 26] = 0\n  9205: u8 [a0 + 25] = 0x26\n  9209: u8 [a0 + 24] = 0x5e\n  9213: u8 [a0 + 23] = 0x4f\n  9217: u8 [a0 + 22] = 0xfd\n  9222: u8 [a0 + 21] = 0x51\n  9226: u8 [a0 + 20] = 0xf6\n  9231: u8 [a0 + 19] = 0xfb\n  9236: u8 [a0 + 18] = 0xc4\n  9241: u8 [a0 + 17] = 0x9e\n  9246: u8 [a0 + 16] = 0x24\n  9250: u8 [a0 + 15] = 0xf3\n  9255: u8 [a0 + 14] = 0x9b\n  9260: u8 [a0 + 13] = 0x12\n  9264: u8 [a0 + 12] = 0xbe\n  9269: u8 [a0 + 11] = 0xdc\n  9274: u8 [a0 + 10] = 0xce\n  9279: u8 [a0 + 9] = 0x3d\n  9283: u8 [a0 + 8] = 0x7f\n  9287: u8 [a0 + 7] = 0x7a\n  9291: u8 [a0 + 6] = 0xad\n  9296: u8 [a0 + 5] = 0x37\n  9300: u8 [a0 + 4] = 0x58\n  9304: u8 [a0 + 3] = 0x8e\n  9309: u8 [a0 + 2] = 0xc4\n  9314: u8 [a0 + 1] = 0xa1\n  9319: u8 [a0 + 0] = 0x59\n  9322: jump @296\n      : @208 (gas: 1)\n  9325: jump @210 if a0 == 2103794072\n      : @209 (gas: 1)\n  9332: jump @349\n      : @210 (gas: 11)\n  9335: a0 = sp + 0xffffffffffffffe0\n  9338: a0 = a0 & 0xffffffffffffffe0\n  9341: u64 [s1 + 0x1b0] = a0\n  9345: sp = a0\n  9347: u64 [a0 + 24] = 0\n  9350: u64 [a0 + 16] = 0\n  9353: u64 [a0 + 8] = 0\n  9356: u64 [a0 + 0] = 0\n  9358: i32 a0 = a0 + 0\n  9360: ecalli 10 // 'value_transferred'\n  9362: fallthrough\n      : @211 (gas: 9)\n  9363: a3 = u64 [s1 + 0x1b0]\n  9367: a0 = u64 [a3 + 0x10]\n  9370: a1 = u64 [a3 + 0x18]\n  9373: a2 = u64 [a3 + 0x8]\n  9376: a3 = u64 [a3]\n  9378: a1 = a1 | a2\n  9381: a0 = a0 | a3\n  9384: a0 = a0 | a1\n  9387: jump @213 if a0 == 0\n      : @212 (gas: 1)\n  9390: jump @399\n      : @213 (gas: 3)\n  9393: a0 = u64 [s1 + 0x1b8]\n  9397: a0 = i32 [a0]\n  9399: jump @215 if a0 >u 67\n      : @214 (gas: 1)\n  9403: jump @399\n      : @215 (gas: 5)\n  9406: a0 = s1 + 0x1000\n  9410: i32 a0 = a0 + 0xfffffffffffffd80\n  9414: a1 = 0x4\n  9417: ecalli 1 // 'call_data_load'\n  9419: fallthrough\n      : @216 (gas: 14)\n  9420: a2 = s1 + 0x7ff\n  9424: a2 = a2 + 0x139\n  9428: a1 = u64 [a2 + 0x458]\n  9432: a3 = u64 [a2 + 0x460]\n  9436: a0 = 0x100000000\n  9446: a0 = a0 ^ a1\n  9449: a0 = a0 | a3\n  9452: u64 [s1 + 0x1b8] = a1\n  9456: a1 = a1 >> 0x20\n  9459: a1 = a1 <u 0x1\n  9462: u64 [s1 + 0x1b0] = a3\n  9466: a1 = 0 if a3 != 0\n  9468: a1 = 0 if a0 == 0\n  9470: jump @218 if a1 != 0\n      : @217 (gas: 1)\n  9473: jump @310\n      : @218 (gas: 7)\n  9476: a0 = u64 [a2 + 0x450]\n  9480: u64 [s1 + 0x1a0] = a0\n  9484: a0 = u64 [a2 + 0x448]\n  9488: u64 [s1 + 0x1a8] = a0\n  9492: a1 = 0x20\n  9495: a0 = 0\n  9497: ra = 86, jump @0\n      : @219 [@dyn 43] (gas: 71)\n  9502: a1 = u64 [s1 + 0x1b0]\n  9506: a1 = reverse a1\n  9508: a2 = u64 [s1 + 0x1b8]\n  9512: a2 = reverse a2\n  9514: a3 = u64 [s1 + 0x1a0]\n  9518: a3 = reverse a3\n  9520: a4 = u64 [s1 + 0x1a8]\n  9524: a4 = reverse a4\n  9526: a5 = a4 >> 0x38\n  9529: u8 [a0 + 0x1f] = a5\n  9532: a5 = a4 >> 0x30\n  9535: u8 [a0 + 0x1e] = a5\n  9538: a5 = a4 >> 0x28\n  9541: u8 [a0 + 0x1d] = a5\n  9544: a5 = a4 >> 0x20\n  9547: u8 [a0 + 0x1c] = a5\n  9550: a5 = a4 >> 0x18\n  9553: u8 [a0 + 0x1b] = a5\n  9556: a5 = a4 >> 0x10\n  9559: u8 [a0 + 0x1a] = a5\n  9562: a5 = a4 >> 0x8\n  9565: u8 [a0 + 0x19] = a5\n  9568: u8 [a0 + 0x18] = a4\n  9571: u8 [a0 + 0x10] = a3\n  9574: a4 = a3 >> 0x38\n  9577: u8 [a0 + 0x17] = a4\n  9580: a4 = a3 >> 0x30\n  9583: u8 [a0 + 0x16] = a4\n  9586: a4 = a3 >> 0x28\n  9589: u8 [a0 + 0x15] = a4\n  9592: a4 = a3 >> 0x20\n  9595: u8 [a0 + 0x14] = a4\n  9598: a4 = a3 >> 0x18\n  9601: u8 [a0 + 0x13] = a4\n  9604: a4 = a3 >> 0x10\n  9607: u8 [a0 + 0x12] = a4\n  9610: a3 = a3 >> 0x8\n  9613: u8 [a0 + 0x11] = a3\n  9616: u8 [a0 + 0x8] = a2\n  9619: a3 = a2 >> 0x38\n  9622: u8 [a0 + 0xf] = a3\n  9625: a3 = a2 >> 0x30\n  9628: u8 [a0 + 0xe] = a3\n  9631: a3 = a2 >> 0x28\n  9634: u8 [a0 + 0xd] = a3\n  9637: a3 = a2 >> 0x20\n  9640: u8 [a0 + 0xc] = a3\n  9643: a3 = a2 >> 0x18\n  9646: u8 [a0 + 0xb] = a3\n  9649: a3 = a2 >> 0x10\n  9652: u8 [a0 + 0xa] = a3\n  9655: a2 = a2 >> 0x8\n  9658: u8 [a0 + 0x9] = a2\n  9661: u8 [a0] = a1\n  9663: a2 = a1 >> 0x38\n  9666: u8 [a0 + 0x7] = a2\n  9669: a2 = a1 >> 0x30\n  9672: u8 [a0 + 0x6] = a2\n  9675: a2 = a1 >> 0x28\n  9678: u8 [a0 + 0x5] = a2\n  9681: a2 = a1 >> 0x20\n  9684: u8 [a0 + 0x4] = a2\n  9687: a2 = a1 >> 0x18\n  9690: u8 [a0 + 0x3] = a2\n  9693: a2 = a1 >> 0x10\n  9696: u8 [a0 + 0x2] = a2\n  9699: a1 = a1 >> 0x8\n  9702: u8 [a0 + 0x1] = a1\n  9705: a0 = 0x20\n  9708: a1 = 0x20\n  9711: ra = 88, jump @0\n      : @220 [@dyn 44] (gas: 35)\n  9716: u8 [a0 + 31] = 0x2\n  9720: u8 [a0 + 30] = 0\n  9723: u8 [a0 + 29] = 0\n  9726: u8 [a0 + 28] = 0\n  9729: u8 [a0 + 27] = 0\n  9732: u8 [a0 + 26] = 0\n  9735: u8 [a0 + 25] = 0\n  9738: u8 [a0 + 24] = 0\n  9741: u8 [a0 + 23] = 0\n  9744: u8 [a0 + 22] = 0\n  9747: u8 [a0 + 21] = 0\n  9750: u8 [a0 + 20] = 0\n  9753: u8 [a0 + 19] = 0\n  9756: u8 [a0 + 18] = 0\n  9759: u8 [a0 + 17] = 0\n  9762: u8 [a0 + 16] = 0\n  9765: u8 [a0 + 15] = 0\n  9768: u8 [a0 + 14] = 0\n  9771: u8 [a0 + 13] = 0\n  9774: u8 [a0 + 12] = 0\n  9777: u8 [a0 + 11] = 0\n  9780: u8 [a0 + 10] = 0\n  9783: u8 [a0 + 9] = 0\n  9786: u8 [a0 + 8] = 0\n  9789: u8 [a0 + 7] = 0\n  9792: u8 [a0 + 6] = 0\n  9795: u8 [a0 + 5] = 0\n  9798: u8 [a0 + 4] = 0\n  9801: u8 [a0 + 3] = 0\n  9804: u8 [a0 + 2] = 0\n  9807: u8 [a0 + 1] = 0\n  9810: u8 [a0 + 0] = 0\n  9812: a1 = 0x40\n  9815: a0 = 0\n  9817: ra = 90, jump @0\n      : @221 [@dyn 45] (gas: 31)\n  9822: a1 = sp + 0xffffffffffffffe0\n  9825: a1 = a1 & 0xffffffffffffffe0\n  9828: u64 [s1 + 0x1a0] = a1\n  9832: sp = a1\n  9834: i32 a0 = a0 + 0\n  9836: i32 a2 = a1 + 0\n  9838: a1 = 0x40\n  9841: ecalli 6 // 'hash_keccak_256'\n  9843: a1 = u64 [s1 + 0x1a0]\n  9847: a0 = u64 [a1]\n  9849: u64 [s1 + 0x1b8] = a0\n  9853: a0 = u64 [a1 + 0x8]\n  9856: u64 [s1 + 0x1b0] = a0\n  9860: a0 = u64 [a1 + 0x10]\n  9863: u64 [s1 + 0x1a8] = a0\n  9867: a0 = u64 [a1 + 0x18]\n  9870: u64 [s1 + 0x1a0] = a0\n  9874: a0 = s1 + 0x1000\n  9878: i32 a0 = a0 + 0xfffffffffffffbc0\n  9882: a1 = 0x24\n  9885: ecalli 1 // 'call_data_load'\n  9887: a0 = s1 + 0x7ff\n  9891: a0 = a0 + 0x139\n  9895: a1 = u64 [a0 + 0x288]\n  9899: u64 [s1 + 0x198] = a1\n  9903: a1 = u64 [a0 + 0x290]\n  9907: u64 [s1 + 0x190] = a1\n  9911: a1 = u64 [a0 + 0x298]\n  9915: u64 [s1 + 0x188] = a1\n  9919: a0 = u64 [a0 + 0x2a0]\n  9923: fallthrough\n      : @222 (gas: 4)\n  9924: u64 [s1 + 0x180] = a0\n  9928: a1 = 0x20\n  9931: a0 = 0\n  9933: ra = 92, jump @0\n      : @223 [@dyn 46] (gas: 71)\n  9938: a1 = u64 [s1 + 0x180]\n  9942: a1 = reverse a1\n  9944: a2 = u64 [s1 + 0x188]\n  9948: a2 = reverse a2\n  9950: a3 = u64 [s1 + 0x190]\n  9954: a3 = reverse a3\n  9956: a4 = u64 [s1 + 0x198]\n  9960: a4 = reverse a4\n  9962: a5 = a4 >> 0x38\n  9965: u8 [a0 + 0x1f] = a5\n  9968: a5 = a4 >> 0x30\n  9971: u8 [a0 + 0x1e] = a5\n  9974: a5 = a4 >> 0x28\n  9977: u8 [a0 + 0x1d] = a5\n  9980: a5 = a4 >> 0x20\n  9983: u8 [a0 + 0x1c] = a5\n  9986: a5 = a4 >> 0x18\n  9989: u8 [a0 + 0x1b] = a5\n  9992: a5 = a4 >> 0x10\n  9995: u8 [a0 + 0x1a] = a5\n  9998: a5 = a4 >> 0x8\n 10001: u8 [a0 + 0x19] = a5\n 10004: u8 [a0 + 0x18] = a4\n 10007: a4 = a3 >> 0x38\n 10010: u8 [a0 + 0x17] = a4\n 10013: a4 = a3 >> 0x30\n 10016: u8 [a0 + 0x16] = a4\n 10019: a4 = a3 >> 0x28\n 10022: u8 [a0 + 0x15] = a4\n 10025: a4 = a3 >> 0x20\n 10028: u8 [a0 + 0x14] = a4\n 10031: a4 = a3 >> 0x18\n 10034: u8 [a0 + 0x13] = a4\n 10037: a4 = a3 >> 0x10\n 10040: u8 [a0 + 0x12] = a4\n 10043: a4 = a3 >> 0x8\n 10046: u8 [a0 + 0x11] = a4\n 10049: u8 [a0 + 0x10] = a3\n 10052: a3 = a2 >> 0x38\n 10055: u8 [a0 + 0xf] = a3\n 10058: a3 = a2 >> 0x30\n 10061: u8 [a0 + 0xe] = a3\n 10064: a3 = a2 >> 0x28\n 10067: u8 [a0 + 0xd] = a3\n 10070: a3 = a2 >> 0x20\n 10073: u8 [a0 + 0xc] = a3\n 10076: a3 = a2 >> 0x18\n 10079: u8 [a0 + 0xb] = a3\n 10082: a3 = a2 >> 0x10\n 10085: u8 [a0 + 0xa] = a3\n 10088: a3 = a2 >> 0x8\n 10091: u8 [a0 + 0x9] = a3\n 10094: u8 [a0 + 0x8] = a2\n 10097: a2 = a1 >> 0x38\n 10100: u8 [a0 + 0x7] = a2\n 10103: a2 = a1 >> 0x30\n 10106: u8 [a0 + 0x6] = a2\n 10109: a2 = a1 >> 0x28\n 10112: u8 [a0 + 0x5] = a2\n 10115: a2 = a1 >> 0x20\n 10118: u8 [a0 + 0x4] = a2\n 10121: a2 = a1 >> 0x18\n 10124: u8 [a0 + 0x3] = a2\n 10127: a2 = a1 >> 0x10\n 10130: u8 [a0 + 0x2] = a2\n 10133: a2 = a1 >> 0x8\n 10136: u8 [a0 + 0x1] = a2\n 10139: u8 [a0] = a1\n 10141: a0 = 0x20\n 10144: a1 = 0x20\n 10147: ra = 94, jump @0\n      : @224 [@dyn 47] (gas: 50)\n 10152: a2 = u64 [s1 + 0x1a0]\n 10156: a1 = a2 >> 0x38\n 10159: u8 [a0 + 0x1f] = a1\n 10162: a1 = a2 >> 0x30\n 10165: u8 [a0 + 0x1e] = a1\n 10168: a1 = a2 >> 0x28\n 10171: u8 [a0 + 0x1d] = a1\n 10174: a1 = a2 >> 0x20\n 10177: u8 [a0 + 0x1c] = a1\n 10180: a1 = a2 >> 0x18\n 10183: u8 [a0 + 0x1b] = a1\n 10186: a1 = a2 >> 0x10\n 10189: u8 [a0 + 0x1a] = a1\n 10192: a1 = a2 >> 0x8\n 10195: u8 [a0 + 0x19] = a1\n 10198: u8 [a0 + 0x18] = a2\n 10201: a2 = u64 [s1 + 0x1a8]\n 10205: a1 = a2 >> 0x38\n 10208: u8 [a0 + 0x17] = a1\n 10211: a1 = a2 >> 0x30\n 10214: u8 [a0 + 0x16] = a1\n 10217: a1 = a2 >> 0x28\n 10220: u8 [a0 + 0x15] = a1\n 10223: a1 = a2 >> 0x20\n 10226: u8 [a0 + 0x14] = a1\n 10229: a1 = a2 >> 0x18\n 10232: u8 [a0 + 0x13] = a1\n 10235: a1 = a2 >> 0x10\n 10238: u8 [a0 + 0x12] = a1\n 10241: a1 = a2 >> 0x8\n 10244: u8 [a0 + 0x11] = a1\n 10247: u8 [a0 + 0x10] = a2\n 10250: a2 = u64 [s1 + 0x1b0]\n 10254: a1 = a2 >> 0x38\n 10257: u8 [a0 + 0xf] = a1\n 10260: a1 = a2 >> 0x30\n 10263: u8 [a0 + 0xe] = a1\n 10266: a1 = a2 >> 0x28\n 10269: u8 [a0 + 0xd] = a1\n 10272: a1 = a2 >> 0x20\n 10275: u8 [a0 + 0xc] = a1\n 10278: a1 = a2 >> 0x18\n 10281: u8 [a0 + 0xb] = a1\n 10284: a1 = a2 >> 0x10\n 10287: u8 [a0 + 0xa] = a1\n 10290: a1 = a2 >> 0x8\n 10293: u8 [a0 + 0x9] = a1\n 10296: u8 [a0 + 0x8] = a2\n 10299: a2 = u64 [s1 + 0x1b8]\n 10303: jump @242\n      : @225 (gas: 1)\n 10306: jump @227 if a0 == 2446411860\n      : @226 (gas: 1)\n 10313: jump @399\n      : @227 (gas: 11)\n 10316: a0 = sp + 0xffffffffffffffe0\n 10319: a0 = a0 & 0xffffffffffffffe0\n 10322: u64 [s1 + 0x1b0] = a0\n 10326: sp = a0\n 10328: u64 [a0 + 24] = 0\n 10331: u64 [a0 + 16] = 0\n 10334: u64 [a0 + 8] = 0\n 10337: u64 [a0 + 0] = 0\n 10339: i32 a0 = a0 + 0\n 10341: ecalli 10 // 'value_transferred'\n 10343: fallthrough\n      : @228 (gas: 9)\n 10344: a3 = u64 [s1 + 0x1b0]\n 10348: a0 = u64 [a3 + 0x10]\n 10351: a1 = u64 [a3 + 0x18]\n 10354: a2 = u64 [a3 + 0x8]\n 10357: a3 = u64 [a3]\n 10359: a1 = a1 | a2\n 10362: a0 = a0 | a3\n 10365: a0 = a0 | a1\n 10368: jump @230 if a0 == 0\n      : @229 (gas: 1)\n 10371: jump @399\n      : @230 (gas: 3)\n 10374: a0 = u64 [s1 + 0x1b8]\n 10378: a0 = i32 [a0]\n 10380: jump @232 if a0 >u 67\n      : @231 (gas: 1)\n 10384: jump @399\n      : @232 (gas: 5)\n 10387: a0 = s1 + 0x1000\n 10391: i32 a0 = a0 + 0xfffffffffffffd80\n 10395: a1 = 0x24\n 10398: ecalli 1 // 'call_data_load'\n 10400: fallthrough\n      : @233 (gas: 14)\n 10401: a2 = s1 + 0x7ff\n 10405: a2 = a2 + 0x139\n 10409: a1 = u64 [a2 + 0x458]\n 10413: a3 = u64 [a2 + 0x460]\n 10417: a0 = 0x100000000\n 10427: a0 = a0 ^ a1\n 10430: a0 = a0 | a3\n 10433: u64 [s1 + 0x1b8] = a1\n 10437: a1 = a1 >> 0x20\n 10440: a1 = a1 <u 0x1\n 10443: u64 [s1 + 0x1b0] = a3\n 10447: a1 = 0 if a3 != 0\n 10449: a1 = 0 if a0 == 0\n 10451: jump @235 if a1 != 0\n      : @234 (gas: 1)\n 10454: jump @310\n      : @235 (gas: 21)\n 10457: a0 = u64 [a2 + 0x450]\n 10461: u64 [s1 + 0x1a0] = a0\n 10465: a0 = u64 [a2 + 0x448]\n 10469: u64 [s1 + 0x1a8] = a0\n 10473: a0 = s1 + 0x1000\n 10477: i32 a0 = a0 + 0xfffffffffffffc20\n 10481: a1 = 0x4\n 10484: ecalli 1 // 'call_data_load'\n 10486: a0 = s1 + 0x7ff\n 10490: a0 = a0 + 0x139\n 10494: a1 = u64 [a0 + 0x2e8]\n 10498: u64 [s1 + 0x198] = a1\n 10502: a1 = u64 [a0 + 0x2f0]\n 10506: u64 [s1 + 0x190] = a1\n 10510: a1 = u64 [a0 + 0x2f8]\n 10514: u64 [s1 + 0x188] = a1\n 10518: a0 = u64 [a0 + 0x300]\n 10522: u64 [s1 + 0x180] = a0\n 10526: a1 = 0x20\n 10529: a0 = 0\n 10531: ra = 96, jump @0\n      : @236 [@dyn 48] (gas: 68)\n 10536: a1 = u64 [s1 + 0x180]\n 10540: a1 = reverse a1\n 10542: a2 = u64 [s1 + 0x188]\n 10546: a2 = reverse a2\n 10548: a3 = u64 [s1 + 0x190]\n 10552: a3 = reverse a3\n 10554: a4 = u64 [s1 + 0x198]\n 10558: a4 = reverse a4\n 10560: a5 = a4 >> 0x38\n 10563: u8 [a0 + 0x1f] = a5\n 10566: a5 = a4 >> 0x30\n 10569: u8 [a0 + 0x1e] = a5\n 10572: a5 = a4 >> 0x28\n 10575: u8 [a0 + 0x1d] = a5\n 10578: a5 = a4 >> 0x20\n 10581: u8 [a0 + 0x1c] = a5\n 10584: a5 = a4 >> 0x18\n 10587: u8 [a0 + 0x1b] = a5\n 10590: a5 = a4 >> 0x10\n 10593: u8 [a0 + 0x1a] = a5\n 10596: a5 = a4 >> 0x8\n 10599: u8 [a0 + 0x19] = a5\n 10602: u8 [a0 + 0x18] = a4\n 10605: a4 = a3 >> 0x38\n 10608: u8 [a0 + 0x17] = a4\n 10611: a4 = a3 >> 0x30\n 10614: u8 [a0 + 0x16] = a4\n 10617: a4 = a3 >> 0x28\n 10620: u8 [a0 + 0x15] = a4\n 10623: a4 = a3 >> 0x20\n 10626: u8 [a0 + 0x14] = a4\n 10629: a4 = a3 >> 0x18\n 10632: u8 [a0 + 0x13] = a4\n 10635: a4 = a3 >> 0x10\n 10638: u8 [a0 + 0x12] = a4\n 10641: a4 = a3 >> 0x8\n 10644: u8 [a0 + 0x11] = a4\n 10647: u8 [a0 + 0x10] = a3\n 10650: a3 = a2 >> 0x38\n 10653: u8 [a0 + 0xf] = a3\n 10656: a3 = a2 >> 0x30\n 10659: u8 [a0 + 0xe] = a3\n 10662: a3 = a2 >> 0x28\n 10665: u8 [a0 + 0xd] = a3\n 10668: a3 = a2 >> 0x20\n 10671: u8 [a0 + 0xc] = a3\n 10674: a3 = a2 >> 0x18\n 10677: u8 [a0 + 0xb] = a3\n 10680: a3 = a2 >> 0x10\n 10683: u8 [a0 + 0xa] = a3\n 10686: a3 = a2 >> 0x8\n 10689: u8 [a0 + 0x9] = a3\n 10692: u8 [a0 + 0x8] = a2\n 10695: a2 = a1 >> 0x38\n 10698: u8 [a0 + 0x7] = a2\n 10701: a2 = a1 >> 0x30\n 10704: u8 [a0 + 0x6] = a2\n 10707: a2 = a1 >> 0x28\n 10710: u8 [a0 + 0x5] = a2\n 10713: a2 = a1 >> 0x20\n 10716: u8 [a0 + 0x4] = a2\n 10719: a2 = a1 >> 0x18\n 10722: u8 [a0 + 0x3] = a2\n 10725: a2 = a1 >> 0x10\n 10728: u8 [a0 + 0x2] = a2\n 10731: a2 = a1 >> 0x8\n 10734: u8 [a0 + 0x1] = a2\n 10737: fallthrough\n      : @237 (gas: 4)\n 10738: u8 [a0] = a1\n 10740: a0 = 0x20\n 10743: a1 = 0x20\n 10746: ra = 98, jump @0\n      : @238 [@dyn 49] (gas: 35)\n 10751: u8 [a0 + 31] = 0\n 10754: u8 [a0 + 30] = 0\n 10757: u8 [a0 + 29] = 0\n 10760: u8 [a0 + 28] = 0\n 10763: u8 [a0 + 27] = 0\n 10766: u8 [a0 + 26] = 0\n 10769: u8 [a0 + 25] = 0\n 10772: u8 [a0 + 24] = 0\n 10775: u8 [a0 + 23] = 0\n 10778: u8 [a0 + 22] = 0\n 10781: u8 [a0 + 21] = 0\n 10784: u8 [a0 + 20] = 0\n 10787: u8 [a0 + 19] = 0\n 10790: u8 [a0 + 18] = 0\n 10793: u8 [a0 + 17] = 0\n 10796: u8 [a0 + 16] = 0\n 10799: u8 [a0 + 15] = 0\n 10802: u8 [a0 + 14] = 0\n 10805: u8 [a0 + 13] = 0\n 10808: u8 [a0 + 12] = 0\n 10811: u8 [a0 + 11] = 0\n 10814: u8 [a0 + 10] = 0\n 10817: u8 [a0 + 9] = 0\n 10820: u8 [a0 + 8] = 0\n 10823: u8 [a0 + 7] = 0\n 10826: u8 [a0 + 6] = 0\n 10829: u8 [a0 + 5] = 0\n 10832: u8 [a0 + 4] = 0\n 10835: u8 [a0 + 3] = 0\n 10838: u8 [a0 + 2] = 0\n 10841: u8 [a0 + 1] = 0\n 10844: u8 [a0 + 0] = 0\n 10846: a1 = 0x40\n 10849: a0 = 0\n 10851: ra = 100, jump @0\n      : @239 [@dyn 50] (gas: 20)\n 10856: a1 = sp + 0xffffffffffffffe0\n 10859: a1 = a1 & 0xffffffffffffffe0\n 10862: u64 [s1 + 0x180] = a1\n 10866: sp = a1\n 10868: i32 a0 = a0 + 0\n 10870: i32 a2 = a1 + 0\n 10872: a1 = 0x40\n 10875: ecalli 6 // 'hash_keccak_256'\n 10877: a1 = u64 [s1 + 0x180]\n 10881: a0 = u64 [a1]\n 10883: u64 [s1 + 0x198] = a0\n 10887: a0 = u64 [a1 + 0x8]\n 10890: u64 [s1 + 0x190] = a0\n 10894: a0 = u64 [a1 + 0x10]\n 10897: u64 [s1 + 0x188] = a0\n 10901: a0 = u64 [a1 + 0x18]\n 10904: u64 [s1 + 0x180] = a0\n 10908: a1 = 0x20\n 10911: a0 = 0\n 10913: ra = 102, jump @0\n      : @240 [@dyn 51] (gas: 71)\n 10918: a1 = u64 [s1 + 0x1b0]\n 10922: a1 = reverse a1\n 10924: a2 = u64 [s1 + 0x1b8]\n 10928: a2 = reverse a2\n 10930: a3 = u64 [s1 + 0x1a0]\n 10934: a3 = reverse a3\n 10936: a4 = u64 [s1 + 0x1a8]\n 10940: a4 = reverse a4\n 10942: a5 = a4 >> 0x38\n 10945: u8 [a0 + 0x1f] = a5\n 10948: a5 = a4 >> 0x30\n 10951: u8 [a0 + 0x1e] = a5\n 10954: a5 = a4 >> 0x28\n 10957: u8 [a0 + 0x1d] = a5\n 10960: a5 = a4 >> 0x20\n 10963: u8 [a0 + 0x1c] = a5\n 10966: a5 = a4 >> 0x18\n 10969: u8 [a0 + 0x1b] = a5\n 10972: a5 = a4 >> 0x10\n 10975: u8 [a0 + 0x1a] = a5\n 10978: a5 = a4 >> 0x8\n 10981: u8 [a0 + 0x19] = a5\n 10984: u8 [a0 + 0x18] = a4\n 10987: a4 = a3 >> 0x38\n 10990: u8 [a0 + 0x17] = a4\n 10993: a4 = a3 >> 0x30\n 10996: u8 [a0 + 0x16] = a4\n 10999: a4 = a3 >> 0x28\n 11002: u8 [a0 + 0x15] = a4\n 11005: a4 = a3 >> 0x20\n 11008: u8 [a0 + 0x14] = a4\n 11011: a4 = a3 >> 0x18\n 11014: u8 [a0 + 0x13] = a4\n 11017: a4 = a3 >> 0x10\n 11020: u8 [a0 + 0x12] = a4\n 11023: a4 = a3 >> 0x8\n 11026: u8 [a0 + 0x11] = a4\n 11029: u8 [a0 + 0x10] = a3\n 11032: a3 = a2 >> 0x38\n 11035: u8 [a0 + 0xf] = a3\n 11038: a3 = a2 >> 0x30\n 11041: u8 [a0 + 0xe] = a3\n 11044: a3 = a2 >> 0x28\n 11047: u8 [a0 + 0xd] = a3\n 11050: a3 = a2 >> 0x20\n 11053: u8 [a0 + 0xc] = a3\n 11056: a3 = a2 >> 0x18\n 11059: u8 [a0 + 0xb] = a3\n 11062: a3 = a2 >> 0x10\n 11065: u8 [a0 + 0xa] = a3\n 11068: a3 = a2 >> 0x8\n 11071: u8 [a0 + 0x9] = a3\n 11074: u8 [a0 + 0x8] = a2\n 11077: a2 = a1 >> 0x38\n 11080: u8 [a0 + 0x7] = a2\n 11083: a2 = a1 >> 0x30\n 11086: u8 [a0 + 0x6] = a2\n 11089: a2 = a1 >> 0x28\n 11092: u8 [a0 + 0x5] = a2\n 11095: a2 = a1 >> 0x20\n 11098: u8 [a0 + 0x4] = a2\n 11101: a2 = a1 >> 0x18\n 11104: u8 [a0 + 0x3] = a2\n 11107: a2 = a1 >> 0x10\n 11110: u8 [a0 + 0x2] = a2\n 11113: a2 = a1 >> 0x8\n 11116: u8 [a0 + 0x1] = a2\n 11119: u8 [a0] = a1\n 11121: a0 = 0x20\n 11124: a1 = 0x20\n 11127: ra = 104, jump @0\n      : @241 [@dyn 52] (gas: 50)\n 11132: a2 = u64 [s1 + 0x180]\n 11136: a1 = a2 >> 0x38\n 11139: u8 [a0 + 0x1f] = a1\n 11142: a1 = a2 >> 0x30\n 11145: u8 [a0 + 0x1e] = a1\n 11148: a1 = a2 >> 0x28\n 11151: u8 [a0 + 0x1d] = a1\n 11154: a1 = a2 >> 0x20\n 11157: u8 [a0 + 0x1c] = a1\n 11160: a1 = a2 >> 0x18\n 11163: u8 [a0 + 0x1b] = a1\n 11166: a1 = a2 >> 0x10\n 11169: u8 [a0 + 0x1a] = a1\n 11172: a1 = a2 >> 0x8\n 11175: u8 [a0 + 0x19] = a1\n 11178: u8 [a0 + 0x18] = a2\n 11181: a2 = u64 [s1 + 0x188]\n 11185: a1 = a2 >> 0x38\n 11188: u8 [a0 + 0x17] = a1\n 11191: a1 = a2 >> 0x30\n 11194: u8 [a0 + 0x16] = a1\n 11197: a1 = a2 >> 0x28\n 11200: u8 [a0 + 0x15] = a1\n 11203: a1 = a2 >> 0x20\n 11206: u8 [a0 + 0x14] = a1\n 11209: a1 = a2 >> 0x18\n 11212: u8 [a0 + 0x13] = a1\n 11215: a1 = a2 >> 0x10\n 11218: u8 [a0 + 0x12] = a1\n 11221: a1 = a2 >> 0x8\n 11224: u8 [a0 + 0x11] = a1\n 11227: u8 [a0 + 0x10] = a2\n 11230: a2 = u64 [s1 + 0x190]\n 11234: a1 = a2 >> 0x38\n 11237: u8 [a0 + 0xf] = a1\n 11240: a1 = a2 >> 0x30\n 11243: u8 [a0 + 0xe] = a1\n 11246: a1 = a2 >> 0x28\n 11249: u8 [a0 + 0xd] = a1\n 11252: a1 = a2 >> 0x20\n 11255: u8 [a0 + 0xc] = a1\n 11258: a1 = a2 >> 0x18\n 11261: u8 [a0 + 0xb] = a1\n 11264: a1 = a2 >> 0x10\n 11267: u8 [a0 + 0xa] = a1\n 11270: a1 = a2 >> 0x8\n 11273: u8 [a0 + 0x9] = a1\n 11276: u8 [a0 + 0x8] = a2\n 11279: a2 = u64 [s1 + 0x198]\n 11283: fallthrough\n      : @242 (gas: 18)\n 11284: a1 = a2 >> 0x38\n 11287: u8 [a0 + 0x7] = a1\n 11290: a1 = a2 >> 0x30\n 11293: u8 [a0 + 0x6] = a1\n 11296: a1 = a2 >> 0x28\n 11299: u8 [a0 + 0x5] = a1\n 11302: a1 = a2 >> 0x20\n 11305: u8 [a0 + 0x4] = a1\n 11308: a1 = a2 >> 0x18\n 11311: u8 [a0 + 0x3] = a1\n 11314: a1 = a2 >> 0x10\n 11317: u8 [a0 + 0x2] = a1\n 11320: a1 = a2 >> 0x8\n 11323: u8 [a0 + 0x1] = a1\n 11326: u8 [a0] = a2\n 11328: a1 = 0x40\n 11331: a0 = 0\n 11333: ra = 106, jump @0\n      : @243 [@dyn 53] (gas: 42)\n 11338: a1 = sp + 0xffffffffffffffe0\n 11341: a1 = a1 & 0xffffffffffffffe0\n 11344: u64 [s1 + 0x1b8] = a1\n 11348: sp = a1\n 11350: i32 a0 = a0 + 0\n 11352: i32 a2 = a1 + 0\n 11354: a1 = 0x40\n 11357: ecalli 6 // 'hash_keccak_256'\n 11359: a3 = u64 [s1 + 0x1b8]\n 11363: a0 = u64 [a3 + 0x18]\n 11366: a1 = u64 [a3 + 0x10]\n 11369: a2 = u64 [a3 + 0x8]\n 11372: a3 = u64 [a3]\n 11374: a4 = s1 + 0x7ff\n 11378: a4 = a4 + 0x139\n 11382: u64 [a4 + 0x440] = a0\n 11386: u64 [a4 + 0x438] = a1\n 11390: u64 [a4 + 0x430] = a2\n 11394: u64 [a4 + 0x428] = a3\n 11398: u64 [a4 + 1120] = 0\n 11402: u64 [a4 + 1112] = 0\n 11406: u64 [a4 + 1104] = 0\n 11410: u64 [a4 + 1096] = 0\n 11414: u32 [a4 + 1000] = 0x20\n 11419: a0 = s1 + 0x1000\n 11423: i32 a1 = a0 + 0xfffffffffffffd60\n 11427: a0 = s1 + 0x1000\n 11431: i32 a3 = a0 + 0xfffffffffffffd80\n 11435: a0 = s1 + 0x1000\n 11439: i32 a4 = a0 + 0xfffffffffffffd20\n 11443: a2 = 0xffffffffffffffff\n 11446: a0 = 0\n 11448: ecalli 5 // 'get_storage'\n 11450: a1 = s1 + 0x7ff\n 11454: a1 = a1 + 0x139\n 11458: a0 = u64 [a1 + 0x460]\n 11462: u64 [s1 + 0x1b8] = a0\n 11466: a0 = u64 [a1 + 0x458]\n 11470: u64 [s1 + 0x1b0] = a0\n 11474: a0 = 0x40\n 11477: a1 = 0x20\n 11480: ra = 108, jump @0\n      : @244 [@dyn 54] (gas: 100)\n 11485: a1 = u8 [a0 + 0x11]\n 11488: a2 = u8 [a0 + 0x10]\n 11491: a3 = u8 [a0 + 0x12]\n 11494: a4 = u8 [a0 + 0x13]\n 11497: a1 = a1 << 0x8\n 11500: a1 = a1 | a2\n 11503: a3 = a3 << 0x10\n 11506: a4 = a4 << 0x18\n 11509: a3 = a3 | a4\n 11512: a1 = a1 | a3\n 11515: a2 = u8 [a0 + 0x15]\n 11518: a3 = u8 [a0 + 0x14]\n 11521: a4 = u8 [a0 + 0x16]\n 11524: a5 = u8 [a0 + 0x17]\n 11527: a2 = a2 << 0x8\n 11530: a2 = a2 | a3\n 11533: a4 = a4 << 0x10\n 11536: a5 = a5 << 0x18\n 11539: a4 = a4 | a5\n 11542: a2 = a2 | a4\n 11545: a2 = a2 << 0x20\n 11548: t0 = a2 | a1\n 11551: a2 = u8 [a0 + 0x1]\n 11554: a3 = u8 [a0]\n 11556: a4 = u8 [a0 + 0x2]\n 11559: a5 = u8 [a0 + 0x3]\n 11562: a2 = a2 << 0x8\n 11565: a2 = a2 | a3\n 11568: a4 = a4 << 0x10\n 11571: a5 = a5 << 0x18\n 11574: a4 = a4 | a5\n 11577: a2 = a2 | a4\n 11580: a3 = u8 [a0 + 0x5]\n 11583: a4 = u8 [a0 + 0x4]\n 11586: a5 = u8 [a0 + 0x6]\n 11589: a1 = u8 [a0 + 0x7]\n 11592: a3 = a3 << 0x8\n 11595: a3 = a3 | a4\n 11598: a5 = a5 << 0x10\n 11601: a1 = a1 << 0x18\n 11604: a1 = a1 | a5\n 11607: a1 = a1 | a3\n 11610: a1 = a1 << 0x20\n 11613: t1 = a1 | a2\n 11616: a1 = u8 [a0 + 0x19]\n 11619: a3 = u8 [a0 + 0x18]\n 11622: a4 = u8 [a0 + 0x1a]\n 11625: a5 = u8 [a0 + 0x1b]\n 11628: a1 = a1 << 0x8\n 11631: a1 = a1 | a3\n 11634: a4 = a4 << 0x10\n 11637: a5 = a5 << 0x18\n 11640: a4 = a4 | a5\n 11643: a1 = a1 | a4\n 11646: a3 = u8 [a0 + 0x1d]\n 11649: a4 = u8 [a0 + 0x1c]\n 11652: a5 = u8 [a0 + 0x1e]\n 11655: a2 = u8 [a0 + 0x1f]\n 11658: a3 = a3 << 0x8\n 11661: a3 = a3 | a4\n 11664: a5 = a5 << 0x10\n 11667: a2 = a2 << 0x18\n 11670: a2 = a2 | a5\n 11673: a2 = a2 | a3\n 11676: a2 = a2 << 0x20\n 11679: a3 = a2 | a1\n 11682: a1 = u8 [a0 + 0x9]\n 11685: a2 = u8 [a0 + 0x8]\n 11688: a4 = u8 [a0 + 0xa]\n 11691: a5 = u8 [a0 + 0xb]\n 11694: a1 = a1 << 0x8\n 11697: a1 = a1 | a2\n 11700: a4 = a4 << 0x10\n 11703: a5 = a5 << 0x18\n 11706: a4 = a4 | a5\n 11709: a1 = a1 | a4\n 11712: a2 = u8 [a0 + 0xd]\n 11715: a4 = u8 [a0 + 0xc]\n 11718: a5 = u8 [a0 + 0xe]\n 11721: a0 = u8 [a0 + 0xf]\n 11724: a2 = a2 << 0x8\n 11727: a2 = a2 | a4\n 11730: a5 = a5 << 0x10\n 11733: a0 = a0 << 0x18\n 11736: a0 = a0 | a5\n 11739: a0 = a0 | a2\n 11742: a0 = a0 << 0x20\n 11745: a0 = a0 | a1\n 11748: a1 = reverse a0\n 11750: a0 = reverse a3\n 11752: a2 = reverse t1\n 11754: a3 = reverse t0\n 11756: a2 = a2 | a3\n 11759: a3 = a0 | a1\n 11762: a3 = a3 | a2\n 11765: a3 = a3 >> 0x20\n 11768: a1 = a1 | a2\n 11771: a1 = a1 << 0x20\n 11774: a1 = a1 | a3\n 11777: jump @246 if a1 != 0\n      : @245 (gas: 1)\n 11780: jump @311\n      : @246 (gas: 1)\n 11783: trap\n      : @247 (gas: 1)\n 11784: jump @249 if a0 == 3344343136\n      : @248 (gas: 1)\n 11791: jump @363\n      : @249 (gas: 11)\n 11794: a0 = sp + 0xffffffffffffffe0\n 11797: a0 = a0 & 0xffffffffffffffe0\n 11800: u64 [s1 + 0x1b0] = a0\n 11804: sp = a0\n 11806: u64 [a0 + 24] = 0\n 11809: u64 [a0 + 16] = 0\n 11812: u64 [a0 + 8] = 0\n 11815: u64 [a0 + 0] = 0\n 11817: i32 a0 = a0 + 0\n 11819: ecalli 10 // 'value_transferred'\n 11821: fallthrough\n      : @250 (gas: 9)\n 11822: a3 = u64 [s1 + 0x1b0]\n 11826: a0 = u64 [a3 + 0x10]\n 11829: a1 = u64 [a3 + 0x18]\n 11832: a2 = u64 [a3 + 0x8]\n 11835: a3 = u64 [a3]\n 11837: a1 = a1 | a2\n 11840: a0 = a0 | a3\n 11843: a0 = a0 | a1\n 11846: jump @252 if a0 == 0\n      : @251 (gas: 1)\n 11849: jump @399\n      : @252 (gas: 3)\n 11852: a0 = u64 [s1 + 0x1b8]\n 11856: a0 = i32 [a0]\n 11858: jump @254 if a0 >u 35\n      : @253 (gas: 1)\n 11862: jump @399\n      : @254 (gas: 5)\n 11865: a0 = s1 + 0x1000\n 11869: i32 a0 = a0 + 0xfffffffffffffd80\n 11873: a1 = 0x4\n 11876: ecalli 1 // 'call_data_load'\n 11878: fallthrough\n      : @255 (gas: 14)\n 11879: a2 = s1 + 0x7ff\n 11883: a2 = a2 + 0x139\n 11887: a1 = u64 [a2 + 0x458]\n 11891: a3 = u64 [a2 + 0x460]\n 11895: a0 = 0x100000000\n 11905: a0 = a0 ^ a1\n 11908: a0 = a0 | a3\n 11911: u64 [s1 + 0x1b8] = a1\n 11915: a1 = a1 >> 0x20\n 11918: a1 = a1 <u 0x1\n 11921: u64 [s1 + 0x1b0] = a3\n 11925: a1 = 0 if a3 != 0\n 11927: a1 = 0 if a0 == 0\n 11929: jump @257 if a1 != 0\n      : @256 (gas: 1)\n 11932: jump @310\n      : @257 (gas: 7)\n 11935: a0 = u64 [a2 + 0x450]\n 11939: u64 [s1 + 0x1a0] = a0\n 11943: a0 = u64 [a2 + 0x448]\n 11947: u64 [s1 + 0x1a8] = a0\n 11951: a1 = 0x20\n 11954: a0 = 0\n 11956: ra = 110, jump @0\n      : @258 [@dyn 55] (gas: 71)\n 11961: a1 = u64 [s1 + 0x1b0]\n 11965: a1 = reverse a1\n 11967: a2 = u64 [s1 + 0x1b8]\n 11971: a2 = reverse a2\n 11973: a3 = u64 [s1 + 0x1a0]\n 11977: a3 = reverse a3\n 11979: a4 = u64 [s1 + 0x1a8]\n 11983: a4 = reverse a4\n 11985: a5 = a4 >> 0x38\n 11988: u8 [a0 + 0x1f] = a5\n 11991: a5 = a4 >> 0x30\n 11994: u8 [a0 + 0x1e] = a5\n 11997: a5 = a4 >> 0x28\n 12000: u8 [a0 + 0x1d] = a5\n 12003: a5 = a4 >> 0x20\n 12006: u8 [a0 + 0x1c] = a5\n 12009: a5 = a4 >> 0x18\n 12012: u8 [a0 + 0x1b] = a5\n 12015: a5 = a4 >> 0x10\n 12018: u8 [a0 + 0x1a] = a5\n 12021: a5 = a4 >> 0x8\n 12024: u8 [a0 + 0x19] = a5\n 12027: u8 [a0 + 0x18] = a4\n 12030: u8 [a0 + 0x10] = a3\n 12033: a4 = a3 >> 0x38\n 12036: u8 [a0 + 0x17] = a4\n 12039: a4 = a3 >> 0x30\n 12042: u8 [a0 + 0x16] = a4\n 12045: a4 = a3 >> 0x28\n 12048: u8 [a0 + 0x15] = a4\n 12051: a4 = a3 >> 0x20\n 12054: u8 [a0 + 0x14] = a4\n 12057: a4 = a3 >> 0x18\n 12060: u8 [a0 + 0x13] = a4\n 12063: a4 = a3 >> 0x10\n 12066: u8 [a0 + 0x12] = a4\n 12069: a3 = a3 >> 0x8\n 12072: u8 [a0 + 0x11] = a3\n 12075: u8 [a0 + 0x8] = a2\n 12078: a3 = a2 >> 0x38\n 12081: u8 [a0 + 0xf] = a3\n 12084: a3 = a2 >> 0x30\n 12087: u8 [a0 + 0xe] = a3\n 12090: a3 = a2 >> 0x28\n 12093: u8 [a0 + 0xd] = a3\n 12096: a3 = a2 >> 0x20\n 12099: u8 [a0 + 0xc] = a3\n 12102: a3 = a2 >> 0x18\n 12105: u8 [a0 + 0xb] = a3\n 12108: a3 = a2 >> 0x10\n 12111: u8 [a0 + 0xa] = a3\n 12114: a2 = a2 >> 0x8\n 12117: u8 [a0 + 0x9] = a2\n 12120: u8 [a0] = a1\n 12122: a2 = a1 >> 0x38\n 12125: u8 [a0 + 0x7] = a2\n 12128: a2 = a1 >> 0x30\n 12131: u8 [a0 + 0x6] = a2\n 12134: a2 = a1 >> 0x28\n 12137: u8 [a0 + 0x5] = a2\n 12140: a2 = a1 >> 0x20\n 12143: u8 [a0 + 0x4] = a2\n 12146: a2 = a1 >> 0x18\n 12149: u8 [a0 + 0x3] = a2\n 12152: a2 = a1 >> 0x10\n 12155: u8 [a0 + 0x2] = a2\n 12158: a1 = a1 >> 0x8\n 12161: u8 [a0 + 0x1] = a1\n 12164: a0 = 0x20\n 12167: a1 = 0x20\n 12170: ra = 112, jump @0\n      : @259 [@dyn 56] (gas: 35)\n 12175: u8 [a0 + 31] = 0x1\n 12179: u8 [a0 + 30] = 0\n 12182: u8 [a0 + 29] = 0\n 12185: u8 [a0 + 28] = 0\n 12188: u8 [a0 + 27] = 0\n 12191: u8 [a0 + 26] = 0\n 12194: u8 [a0 + 25] = 0\n 12197: u8 [a0 + 24] = 0\n 12200: u8 [a0 + 23] = 0\n 12203: u8 [a0 + 22] = 0\n 12206: u8 [a0 + 21] = 0\n 12209: u8 [a0 + 20] = 0\n 12212: u8 [a0 + 19] = 0\n 12215: u8 [a0 + 18] = 0\n 12218: u8 [a0 + 17] = 0\n 12221: u8 [a0 + 16] = 0\n 12224: u8 [a0 + 15] = 0\n 12227: u8 [a0 + 14] = 0\n 12230: u8 [a0 + 13] = 0\n 12233: u8 [a0 + 12] = 0\n 12236: u8 [a0 + 11] = 0\n 12239: u8 [a0 + 10] = 0\n 12242: u8 [a0 + 9] = 0\n 12245: u8 [a0 + 8] = 0\n 12248: u8 [a0 + 7] = 0\n 12251: u8 [a0 + 6] = 0\n 12254: u8 [a0 + 5] = 0\n 12257: u8 [a0 + 4] = 0\n 12260: u8 [a0 + 3] = 0\n 12263: u8 [a0 + 2] = 0\n 12266: u8 [a0 + 1] = 0\n 12269: u8 [a0 + 0] = 0\n 12271: a1 = 0x40\n 12274: a0 = 0\n 12276: ra = 114, jump @0\n      : @260 [@dyn 57] (gas: 30)\n 12281: a1 = sp + 0xffffffffffffffe0\n 12284: a1 = a1 & 0xffffffffffffffe0\n 12287: u64 [s1 + 0x1b8] = a1\n 12291: sp = a1\n 12293: i32 a0 = a0 + 0\n 12295: i32 a2 = a1 + 0\n 12297: a1 = 0x40\n 12300: ecalli 6 // 'hash_keccak_256'\n 12302: a3 = u64 [s1 + 0x1b8]\n 12306: a0 = u64 [a3 + 0x18]\n 12309: a1 = u64 [a3 + 0x10]\n 12312: a2 = u64 [a3 + 0x8]\n 12315: a3 = u64 [a3]\n 12317: a4 = reverse a0\n 12319: a0 = reverse a1\n 12321: a1 = reverse a2\n 12323: a2 = reverse a3\n 12325: a3 = s1 + 0x1000\n 12329: u64 [a3 + 0xfffffffffffff8d8] = a2\n 12333: a2 = s1 + 0x1000\n 12337: u64 [a2 + 0xfffffffffffff8d0] = a1\n 12341: a1 = s1 + 0x1000\n 12345: u64 [a1 + 0xfffffffffffff8c8] = a0\n 12349: a0 = s1 + 0x7ff\n 12353: a0 = a0 + 0xe1\n 12357: a1 = s1 + 0x7ff\n 12361: a1 = a1 + 0xc1\n 12365: a2 = s1 + 0x1000\n 12369: u64 [a2 + 0xfffffffffffff8c0] = a4\n 12373: ra = 116, jump @462\n      : @261 [@dyn 58] (gas: 15)\n 12378: a0 = s1 + 0x1000\n 12382: a0 = u64 [a0 + 0xfffffffffffff8e0]\n 12386: u64 [s1 + 0x1b0] = a0\n 12390: a0 = s1 + 0x1000\n 12394: a0 = u64 [a0 + 0xfffffffffffff8e8]\n 12398: u64 [s1 + 0x1a8] = a0\n 12402: a0 = s1 + 0x1000\n 12406: a0 = u64 [a0 + 0xfffffffffffff8f0]\n 12410: u64 [s1 + 0x1a0] = a0\n 12414: a0 = s1 + 0x1000\n 12418: a0 = u64 [a0 + 0xfffffffffffff8f8]\n 12422: u64 [s1 + 0x198] = a0\n 12426: a0 = 0x40\n 12429: a1 = 0x20\n 12432: ra = 118, jump @0\n      : @262 [@dyn 59] (gas: 123)\n 12437: a1 = u8 [a0 + 0x1]\n 12440: a2 = u8 [a0]\n 12442: a3 = u8 [a0 + 0x2]\n 12445: a4 = u8 [a0 + 0x3]\n 12448: a1 = a1 << 0x8\n 12451: a1 = a1 | a2\n 12454: a3 = a3 << 0x10\n 12457: a4 = a4 << 0x18\n 12460: a3 = a3 | a4\n 12463: a1 = a1 | a3\n 12466: a2 = u8 [a0 + 0x5]\n 12469: a3 = u8 [a0 + 0x4]\n 12472: a4 = u8 [a0 + 0x6]\n 12475: a5 = u8 [a0 + 0x7]\n 12478: a2 = a2 << 0x8\n 12481: a2 = a2 | a3\n 12484: a4 = a4 << 0x10\n 12487: a5 = a5 << 0x18\n 12490: a4 = a4 | a5\n 12493: a2 = a2 | a4\n 12496: a2 = a2 << 0x20\n 12499: t0 = a2 | a1\n 12502: a2 = u8 [a0 + 0x9]\n 12505: a3 = u8 [a0 + 0x8]\n 12508: a4 = u8 [a0 + 0xa]\n 12511: a5 = u8 [a0 + 0xb]\n 12514: a2 = a2 << 0x8\n 12517: a2 = a2 | a3\n 12520: a4 = a4 << 0x10\n 12523: a5 = a5 << 0x18\n 12526: a4 = a4 | a5\n 12529: a2 = a2 | a4\n 12532: a3 = u8 [a0 + 0xd]\n 12535: a4 = u8 [a0 + 0xc]\n 12538: a5 = u8 [a0 + 0xe]\n 12541: a1 = u8 [a0 + 0xf]\n 12544: a3 = a3 << 0x8\n 12547: a3 = a3 | a4\n 12550: a5 = a5 << 0x10\n 12553: a1 = a1 << 0x18\n 12556: a1 = a1 | a5\n 12559: a1 = a1 | a3\n 12562: a1 = a1 << 0x20\n 12565: t1 = a1 | a2\n 12568: a1 = u8 [a0 + 0x11]\n 12571: a3 = u8 [a0 + 0x10]\n 12574: a4 = u8 [a0 + 0x12]\n 12577: a5 = u8 [a0 + 0x13]\n 12580: a1 = a1 << 0x8\n 12583: a1 = a1 | a3\n 12586: a4 = a4 << 0x10\n 12589: a5 = a5 << 0x18\n 12592: a4 = a4 | a5\n 12595: a1 = a1 | a4\n 12598: a3 = u8 [a0 + 0x15]\n 12601: a4 = u8 [a0 + 0x14]\n 12604: a5 = u8 [a0 + 0x16]\n 12607: a2 = u8 [a0 + 0x17]\n 12610: a3 = a3 << 0x8\n 12613: a3 = a3 | a4\n 12616: a5 = a5 << 0x10\n 12619: a2 = a2 << 0x18\n 12622: a2 = a2 | a5\n 12625: a2 = a2 | a3\n 12628: a2 = a2 << 0x20\n 12631: a3 = a2 | a1\n 12634: a1 = u8 [a0 + 0x19]\n 12637: a2 = u8 [a0 + 0x18]\n 12640: a4 = u8 [a0 + 0x1a]\n 12643: a5 = u8 [a0 + 0x1b]\n 12646: a1 = a1 << 0x8\n 12649: a1 = a1 | a2\n 12652: a4 = a4 << 0x10\n 12655: a5 = a5 << 0x18\n 12658: a4 = a4 | a5\n 12661: a1 = a1 | a4\n 12664: a2 = u8 [a0 + 0x1d]\n 12667: a4 = u8 [a0 + 0x1c]\n 12670: a5 = u8 [a0 + 0x1e]\n 12673: a0 = u8 [a0 + 0x1f]\n 12676: a2 = a2 << 0x8\n 12679: a2 = a2 | a4\n 12682: a5 = a5 << 0x10\n 12685: a0 = a0 << 0x18\n 12688: a0 = a0 | a5\n 12691: a0 = a0 | a2\n 12694: a0 = a0 << 0x20\n 12697: a0 = a0 | a1\n 12700: a4 = reverse a0\n 12702: u64 [s1 + 0x180] = a4\n 12706: a2 = reverse a3\n 12708: u64 [s1 + 0x188] = a2\n 12712: a1 = reverse t1\n 12714: u64 [s1 + 0x190] = a1\n 12718: a3 = reverse t0\n 12720: u64 [s1 + 0x1b8] = a3\n 12724: a0 = u64 [s1 + 0x198]\n 12728: a5 = s1 + 0x1000\n 12732: u64 [a5 + 0xfffffffffffff878] = a0\n 12736: a0 = u64 [s1 + 0x1a0]\n 12740: a5 = s1 + 0x1000\n 12744: u64 [a5 + 0xfffffffffffff870] = a0\n 12748: a0 = u64 [s1 + 0x1a8]\n 12752: a5 = s1 + 0x1000\n 12756: u64 [a5 + 0xfffffffffffff868] = a0\n 12760: a0 = u64 [s1 + 0x1b0]\n 12764: a5 = s1 + 0x1000\n 12768: u64 [a5 + 0xfffffffffffff860] = a0\n 12772: a0 = s1 + 0x1000\n 12776: u64 [a0 + 0xfffffffffffff898] = a3\n 12780: a0 = s1 + 0x1000\n 12784: u64 [a0 + 0xfffffffffffff890] = a1\n 12788: a0 = s1 + 0x1000\n 12792: u64 [a0 + 0xfffffffffffff888] = a2\n 12796: a0 = s1 + 0x7ff\n 12800: a0 = a0 + 0xa1\n 12804: a1 = s1 + 0x7ff\n 12808: a1 = a1 + 0x81\n 12812: a2 = s1 + 0x7ff\n 12816: a2 = a2 + 0x61\n 12819: a3 = s1 + 0x1000\n 12823: u64 [a3 + 0xfffffffffffff880] = a4\n 12827: ra = 120, jump @492\n      : @263 [@dyn 60] (gas: 12)\n 12832: a4 = u64 [s1 + 0x188]\n 12836: a2 = u64 [s1 + 0x180]\n 12840: a0 = u64 [s1 + 0x1b8]\n 12844: a0 = a0 | a4\n 12847: a3 = u64 [s1 + 0x190]\n 12851: a1 = a2 | a3\n 12854: a1 = a1 | a0\n 12857: a1 = a1 >> 0x20\n 12860: a0 = a0 | a3\n 12863: a0 = a0 << 0x20\n 12866: a0 = a0 | a1\n 12869: jump @246 if a0 != 0\n      : @264 (gas: 11)\n 12873: t0 = a3\n 12875: a0 = s1 + 0x1000\n 12879: a0 = u64 [a0 + 0xfffffffffffff8a8]\n 12883: a1 = s1 + 0x1000\n 12887: a1 = u64 [a1 + 0xfffffffffffff8b8]\n 12891: u64 [s1 + 0x1b0] = a1\n 12895: a1 = s1 + 0x1000\n 12899: t1 = u64 [a1 + 0xfffffffffffff8a0]\n 12903: a1 = s1 + 0x1000\n 12907: a3 = u64 [a1 + 0xfffffffffffff8b0]\n 12911: jump @282\n      : @265 (gas: 1)\n 12914: jump @267 if a0 == 2733408248\n      : @266 (gas: 1)\n 12921: jump @399\n      : @267 (gas: 11)\n 12924: a0 = sp + 0xffffffffffffffe0\n 12927: a0 = a0 & 0xffffffffffffffe0\n 12930: u64 [s1 + 0x1b0] = a0\n 12934: sp = a0\n 12936: u64 [a0 + 24] = 0\n 12939: u64 [a0 + 16] = 0\n 12942: u64 [a0 + 8] = 0\n 12945: u64 [a0 + 0] = 0\n 12947: i32 a0 = a0 + 0\n 12949: ecalli 10 // 'value_transferred'\n 12951: fallthrough\n      : @268 (gas: 9)\n 12952: a3 = u64 [s1 + 0x1b0]\n 12956: a0 = u64 [a3 + 0x10]\n 12959: a1 = u64 [a3 + 0x18]\n 12962: a2 = u64 [a3 + 0x8]\n 12965: a3 = u64 [a3]\n 12967: a1 = a1 | a2\n 12970: a0 = a0 | a3\n 12973: a0 = a0 | a1\n 12976: jump @270 if a0 == 0\n      : @269 (gas: 1)\n 12979: jump @399\n      : @270 (gas: 3)\n 12982: a0 = u64 [s1 + 0x1b8]\n 12986: a0 = i32 [a0]\n 12988: jump @272 if a0 >u 35\n      : @271 (gas: 1)\n 12992: jump @399\n      : @272 (gas: 5)\n 12995: a0 = s1 + 0x1000\n 12999: i32 a0 = a0 + 0xfffffffffffffd80\n 13003: a1 = 0x4\n 13006: ecalli 1 // 'call_data_load'\n 13008: fallthrough\n      : @273 (gas: 14)\n 13009: a2 = s1 + 0x7ff\n 13013: a2 = a2 + 0x139\n 13017: a1 = u64 [a2 + 0x458]\n 13021: a3 = u64 [a2 + 0x460]\n 13025: a0 = 0x100000000\n 13035: a0 = a0 ^ a1\n 13038: a0 = a0 | a3\n 13041: u64 [s1 + 0x1b8] = a1\n 13045: a1 = a1 >> 0x20\n 13048: a1 = a1 <u 0x1\n 13051: u64 [s1 + 0x1b0] = a3\n 13055: a1 = 0 if a3 != 0\n 13057: a1 = 0 if a0 == 0\n 13059: jump @310 if a1 == 0\n      : @274 (gas: 7)\n 13063: a0 = u64 [a2 + 0x450]\n 13067: u64 [s1 + 0x1a0] = a0\n 13071: a0 = u64 [a2 + 0x448]\n 13075: u64 [s1 + 0x1a8] = a0\n 13079: a1 = 0x20\n 13082: a0 = 0\n 13084: ra = 122, jump @0\n      : @275 [@dyn 61] (gas: 71)\n 13089: a1 = u64 [s1 + 0x1b0]\n 13093: a1 = reverse a1\n 13095: a2 = u64 [s1 + 0x1b8]\n 13099: a2 = reverse a2\n 13101: a3 = u64 [s1 + 0x1a0]\n 13105: a3 = reverse a3\n 13107: a4 = u64 [s1 + 0x1a8]\n 13111: a4 = reverse a4\n 13113: a5 = a4 >> 0x38\n 13116: u8 [a0 + 0x1f] = a5\n 13119: a5 = a4 >> 0x30\n 13122: u8 [a0 + 0x1e] = a5\n 13125: a5 = a4 >> 0x28\n 13128: u8 [a0 + 0x1d] = a5\n 13131: a5 = a4 >> 0x20\n 13134: u8 [a0 + 0x1c] = a5\n 13137: a5 = a4 >> 0x18\n 13140: u8 [a0 + 0x1b] = a5\n 13143: a5 = a4 >> 0x10\n 13146: u8 [a0 + 0x1a] = a5\n 13149: a5 = a4 >> 0x8\n 13152: u8 [a0 + 0x19] = a5\n 13155: u8 [a0 + 0x18] = a4\n 13158: u8 [a0 + 0x10] = a3\n 13161: a4 = a3 >> 0x38\n 13164: u8 [a0 + 0x17] = a4\n 13167: a4 = a3 >> 0x30\n 13170: u8 [a0 + 0x16] = a4\n 13173: a4 = a3 >> 0x28\n 13176: u8 [a0 + 0x15] = a4\n 13179: a4 = a3 >> 0x20\n 13182: u8 [a0 + 0x14] = a4\n 13185: a4 = a3 >> 0x18\n 13188: u8 [a0 + 0x13] = a4\n 13191: a4 = a3 >> 0x10\n 13194: u8 [a0 + 0x12] = a4\n 13197: a3 = a3 >> 0x8\n 13200: u8 [a0 + 0x11] = a3\n 13203: u8 [a0 + 0x8] = a2\n 13206: a3 = a2 >> 0x38\n 13209: u8 [a0 + 0xf] = a3\n 13212: a3 = a2 >> 0x30\n 13215: u8 [a0 + 0xe] = a3\n 13218: a3 = a2 >> 0x28\n 13221: u8 [a0 + 0xd] = a3\n 13224: a3 = a2 >> 0x20\n 13227: u8 [a0 + 0xc] = a3\n 13230: a3 = a2 >> 0x18\n 13233: u8 [a0 + 0xb] = a3\n 13236: a3 = a2 >> 0x10\n 13239: u8 [a0 + 0xa] = a3\n 13242: a2 = a2 >> 0x8\n 13245: u8 [a0 + 0x9] = a2\n 13248: u8 [a0] = a1\n 13250: a2 = a1 >> 0x38\n 13253: u8 [a0 + 0x7] = a2\n 13256: a2 = a1 >> 0x30\n 13259: u8 [a0 + 0x6] = a2\n 13262: a2 = a1 >> 0x28\n 13265: u8 [a0 + 0x5] = a2\n 13268: a2 = a1 >> 0x20\n 13271: u8 [a0 + 0x4] = a2\n 13274: a2 = a1 >> 0x18\n 13277: u8 [a0 + 0x3] = a2\n 13280: a2 = a1 >> 0x10\n 13283: u8 [a0 + 0x2] = a2\n 13286: a1 = a1 >> 0x8\n 13289: u8 [a0 + 0x1] = a1\n 13292: a0 = 0x20\n 13295: a1 = 0x20\n 13298: ra = 124, jump @0\n      : @276 [@dyn 62] (gas: 35)\n 13303: u8 [a0 + 31] = 0x1\n 13307: u8 [a0 + 30] = 0\n 13310: u8 [a0 + 29] = 0\n 13313: u8 [a0 + 28] = 0\n 13316: u8 [a0 + 27] = 0\n 13319: u8 [a0 + 26] = 0\n 13322: u8 [a0 + 25] = 0\n 13325: u8 [a0 + 24] = 0\n 13328: u8 [a0 + 23] = 0\n 13331: u8 [a0 + 22] = 0\n 13334: u8 [a0 + 21] = 0\n 13337: u8 [a0 + 20] = 0\n 13340: u8 [a0 + 19] = 0\n 13343: u8 [a0 + 18] = 0\n 13346: u8 [a0 + 17] = 0\n 13349: u8 [a0 + 16] = 0\n 13352: u8 [a0 + 15] = 0\n 13355: u8 [a0 + 14] = 0\n 13358: u8 [a0 + 13] = 0\n 13361: u8 [a0 + 12] = 0\n 13364: u8 [a0 + 11] = 0\n 13367: u8 [a0 + 10] = 0\n 13370: u8 [a0 + 9] = 0\n 13373: u8 [a0 + 8] = 0\n 13376: u8 [a0 + 7] = 0\n 13379: u8 [a0 + 6] = 0\n 13382: u8 [a0 + 5] = 0\n 13385: u8 [a0 + 4] = 0\n 13388: u8 [a0 + 3] = 0\n 13391: u8 [a0 + 2] = 0\n 13394: u8 [a0 + 1] = 0\n 13397: u8 [a0 + 0] = 0\n 13399: a1 = 0x40\n 13402: a0 = 0\n 13404: ra = 126, jump @0\n      : @277 [@dyn 63] (gas: 24)\n 13409: a1 = sp + 0xffffffffffffffe0\n 13412: a1 = a1 & 0xffffffffffffffe0\n 13415: u64 [s1 + 0x1b8] = a1\n 13419: sp = a1\n 13421: i32 a0 = a0 + 0\n 13423: i32 a2 = a1 + 0\n 13425: a1 = 0x40\n 13428: ecalli 6 // 'hash_keccak_256'\n 13430: a3 = u64 [s1 + 0x1b8]\n 13434: a0 = u64 [a3 + 0x18]\n 13437: a1 = u64 [a3 + 0x10]\n 13440: a2 = u64 [a3 + 0x8]\n 13443: a3 = u64 [a3]\n 13445: a4 = reverse a0\n 13447: a0 = reverse a1\n 13449: a1 = reverse a2\n 13451: a2 = reverse a3\n 13453: u64 [s1 + 0x6f8] = a2\n 13457: u64 [s1 + 0x6f0] = a1\n 13461: u64 [s1 + 0x6e8] = a0\n 13465: a0 = s1 + 0x700\n 13469: a1 = s1 + 0x6e0\n 13473: u64 [s1 + 0x6e0] = a4\n 13477: ra = 128, jump @462\n      : @278 [@dyn 64] (gas: 11)\n 13483: a0 = u64 [s1 + 0x700]\n 13487: u64 [s1 + 0x1b0] = a0\n 13491: a0 = u64 [s1 + 0x708]\n 13495: u64 [s1 + 0x1a8] = a0\n 13499: a0 = u64 [s1 + 0x710]\n 13503: u64 [s1 + 0x1a0] = a0\n 13507: a0 = u64 [s1 + 0x718]\n 13511: u64 [s1 + 0x198] = a0\n 13515: a0 = 0x40\n 13518: a1 = 0x20\n 13521: ra = 130, jump @0\n      : @279 [@dyn 65] (gas: 112)\n 13527: a1 = u8 [a0 + 0x1]\n 13530: a2 = u8 [a0]\n 13532: a3 = u8 [a0 + 0x2]\n 13535: a4 = u8 [a0 + 0x3]\n 13538: a1 = a1 << 0x8\n 13541: a1 = a1 | a2\n 13544: a3 = a3 << 0x10\n 13547: a4 = a4 << 0x18\n 13550: a3 = a3 | a4\n 13553: a1 = a1 | a3\n 13556: a2 = u8 [a0 + 0x5]\n 13559: a3 = u8 [a0 + 0x4]\n 13562: a4 = u8 [a0 + 0x6]\n 13565: a5 = u8 [a0 + 0x7]\n 13568: a2 = a2 << 0x8\n 13571: a2 = a2 | a3\n 13574: a4 = a4 << 0x10\n 13577: a5 = a5 << 0x18\n 13580: a4 = a4 | a5\n 13583: a2 = a2 | a4\n 13586: a2 = a2 << 0x20\n 13589: t0 = a2 | a1\n 13592: a2 = u8 [a0 + 0x9]\n 13595: a3 = u8 [a0 + 0x8]\n 13598: a4 = u8 [a0 + 0xa]\n 13601: a5 = u8 [a0 + 0xb]\n 13604: a2 = a2 << 0x8\n 13607: a2 = a2 | a3\n 13610: a4 = a4 << 0x10\n 13613: a5 = a5 << 0x18\n 13616: a4 = a4 | a5\n 13619: a2 = a2 | a4\n 13622: a3 = u8 [a0 + 0xd]\n 13625: a4 = u8 [a0 + 0xc]\n 13628: a5 = u8 [a0 + 0xe]\n 13631: a1 = u8 [a0 + 0xf]\n 13634: a3 = a3 << 0x8\n 13637: a3 = a3 | a4\n 13640: a5 = a5 << 0x10\n 13643: a1 = a1 << 0x18\n 13646: a1 = a1 | a5\n 13649: a1 = a1 | a3\n 13652: a1 = a1 << 0x20\n 13655: t1 = a1 | a2\n 13658: a1 = u8 [a0 + 0x11]\n 13661: a3 = u8 [a0 + 0x10]\n 13664: a4 = u8 [a0 + 0x12]\n 13667: a5 = u8 [a0 + 0x13]\n 13670: a1 = a1 << 0x8\n 13673: a1 = a1 | a3\n 13676: a4 = a4 << 0x10\n 13679: a5 = a5 << 0x18\n 13682: a4 = a4 | a5\n 13685: a1 = a1 | a4\n 13688: a3 = u8 [a0 + 0x15]\n 13691: a4 = u8 [a0 + 0x14]\n 13694: a5 = u8 [a0 + 0x16]\n 13697: a2 = u8 [a0 + 0x17]\n 13700: a3 = a3 << 0x8\n 13703: a3 = a3 | a4\n 13706: a5 = a5 << 0x10\n 13709: a2 = a2 << 0x18\n 13712: a2 = a2 | a5\n 13715: a2 = a2 | a3\n 13718: a2 = a2 << 0x20\n 13721: a3 = a2 | a1\n 13724: a1 = u8 [a0 + 0x19]\n 13727: a2 = u8 [a0 + 0x18]\n 13730: a4 = u8 [a0 + 0x1a]\n 13733: a5 = u8 [a0 + 0x1b]\n 13736: a1 = a1 << 0x8\n 13739: a1 = a1 | a2\n 13742: a4 = a4 << 0x10\n 13745: a5 = a5 << 0x18\n 13748: a4 = a4 | a5\n 13751: a1 = a1 | a4\n 13754: a2 = u8 [a0 + 0x1d]\n 13757: a4 = u8 [a0 + 0x1c]\n 13760: a5 = u8 [a0 + 0x1e]\n 13763: a0 = u8 [a0 + 0x1f]\n 13766: a2 = a2 << 0x8\n 13769: a2 = a2 | a4\n 13772: a5 = a5 << 0x10\n 13775: a0 = a0 << 0x18\n 13778: a0 = a0 | a5\n 13781: a0 = a0 | a2\n 13784: a0 = a0 << 0x20\n 13787: a0 = a0 | a1\n 13790: a4 = reverse a0\n 13792: u64 [s1 + 0x180] = a4\n 13796: a2 = reverse a3\n 13798: u64 [s1 + 0x188] = a2\n 13802: a1 = reverse t1\n 13804: u64 [s1 + 0x190] = a1\n 13808: a3 = reverse t0\n 13810: u64 [s1 + 0x1b8] = a3\n 13814: a0 = u64 [s1 + 0x198]\n 13818: u64 [s1 + 0x698] = a0\n 13822: a0 = u64 [s1 + 0x1a0]\n 13826: u64 [s1 + 0x690] = a0\n 13830: a0 = u64 [s1 + 0x1a8]\n 13834: u64 [s1 + 0x688] = a0\n 13838: a0 = u64 [s1 + 0x1b0]\n 13842: u64 [s1 + 0x680] = a0\n 13846: u64 [s1 + 0x6b8] = a3\n 13850: u64 [s1 + 0x6b0] = a1\n 13854: u64 [s1 + 0x6a8] = a2\n 13858: a0 = s1 + 0x6c0\n 13862: a1 = s1 + 0x6a0\n 13866: a2 = s1 + 0x680\n 13870: u64 [s1 + 0x6a0] = a4\n 13874: ra = 132, jump @492\n      : @280 [@dyn 66] (gas: 12)\n 13880: a4 = u64 [s1 + 0x188]\n 13884: a2 = u64 [s1 + 0x180]\n 13888: a0 = u64 [s1 + 0x1b8]\n 13892: a0 = a0 | a4\n 13895: a3 = u64 [s1 + 0x190]\n 13899: a1 = a2 | a3\n 13902: a1 = a1 | a0\n 13905: a1 = a1 >> 0x20\n 13908: a0 = a0 | a3\n 13911: a0 = a0 << 0x20\n 13914: a0 = a0 | a1\n 13917: jump @246 if a0 != 0\n      : @281 (gas: 7)\n 13921: t0 = a3\n 13923: a0 = u64 [s1 + 0x6c8]\n 13927: a1 = u64 [s1 + 0x6d8]\n 13931: u64 [s1 + 0x1b0] = a1\n 13935: t1 = u64 [s1 + 0x6c0]\n 13939: a3 = u64 [s1 + 0x6d0]\n 13943: fallthrough\n      : @282 (gas: 26)\n 13944: t2 = a0 ^ a4\n 13947: a5 = a0 <u a4\n 13950: ra = t1 <u a2\n 13953: a5 = ra if t2 == 0\n 13956: a1 = a3 - t0\n 13959: t2 = a1 - a5\n 13962: a1 = a1 <u a5\n 13965: u64 [s1 + 0x1a8] = a1\n 13969: a3 = a3 <u t0\n 13972: a5 = u64 [s1 + 0x1b8]\n 13976: a1 = u64 [s1 + 0x1b0]\n 13980: a5 = a1 - a5\n 13983: a5 = a5 - a3\n 13986: a1 = u64 [s1 + 0x1a8]\n 13990: a5 = a5 - a1\n 13993: a0 = a0 - a4\n 13996: a0 = a0 - ra\n 13999: a1 = t1 - a2\n 14002: a0 = a0 | a5\n 14005: a3 = a1 | t2\n 14008: a3 = a3 | a0\n 14011: a0 = a0 | t2\n 14014: a3 = a3 >> 0x20\n 14017: a0 = a0 << 0x20\n 14020: a0 = a0 | a3\n 14023: jump @246 if a0 != 0\n      : @283 (gas: 4)\n 14027: i32 a0 = a2 + 0\n 14029: i32 a1 = a1 + 0\n 14031: u64 [s1 + 0x1b8] = a1\n 14035: ra = 134, jump @0\n      : @284 [@dyn 67] (gas: 5)\n 14041: i32 a1 = a0 + 0\n 14043: a0 = 0\n 14045: a2 = u64 [s1 + 0x1b8]\n 14049: ecalli 7 // 'seal_return'\n 14051: fallthrough\n      : @285 (gas: 2)\n 14052: i32 a1 = a1 + 0x47b\n 14056: jump @287 if a0 == a1\n      : @286 (gas: 1)\n 14059: jump @399\n      : @287 (gas: 11)\n 14062: a0 = sp + 0xffffffffffffffe0\n 14065: a0 = a0 & 0xffffffffffffffe0\n 14068: u64 [s1 + 0x1b0] = a0\n 14072: sp = a0\n 14074: u64 [a0 + 24] = 0\n 14077: u64 [a0 + 16] = 0\n 14080: u64 [a0 + 8] = 0\n 14083: u64 [a0 + 0] = 0\n 14085: i32 a0 = a0 + 0\n 14087: ecalli 10 // 'value_transferred'\n 14089: fallthrough\n      : @288 (gas: 9)\n 14090: a3 = u64 [s1 + 0x1b0]\n 14094: a0 = u64 [a3 + 0x10]\n 14097: a1 = u64 [a3 + 0x18]\n 14100: a2 = u64 [a3 + 0x8]\n 14103: a3 = u64 [a3]\n 14105: a1 = a1 | a2\n 14108: a0 = a0 | a3\n 14111: a0 = a0 | a1\n 14114: jump @290 if a0 == 0\n      : @289 (gas: 1)\n 14117: jump @399\n      : @290 (gas: 3)\n 14120: a0 = u64 [s1 + 0x1b8]\n 14124: a0 = i32 [a0]\n 14126: jump @292 if a0 >u 3\n      : @291 (gas: 1)\n 14130: jump @399\n      : @292 (gas: 3)\n 14133: a0 = 0x40\n 14136: a1 = 0x20\n 14139: ra = 136, jump @0\n      : @293 [@dyn 68] (gas: 100)\n 14145: a1 = u8 [a0 + 0x11]\n 14148: a2 = u8 [a0 + 0x10]\n 14151: a3 = u8 [a0 + 0x12]\n 14154: a4 = u8 [a0 + 0x13]\n 14157: a1 = a1 << 0x8\n 14160: a1 = a1 | a2\n 14163: a3 = a3 << 0x10\n 14166: a4 = a4 << 0x18\n 14169: a3 = a3 | a4\n 14172: a1 = a1 | a3\n 14175: a2 = u8 [a0 + 0x15]\n 14178: a3 = u8 [a0 + 0x14]\n 14181: a4 = u8 [a0 + 0x16]\n 14184: a5 = u8 [a0 + 0x17]\n 14187: a2 = a2 << 0x8\n 14190: a2 = a2 | a3\n 14193: a4 = a4 << 0x10\n 14196: a5 = a5 << 0x18\n 14199: a4 = a4 | a5\n 14202: a2 = a2 | a4\n 14205: a2 = a2 << 0x20\n 14208: t0 = a2 | a1\n 14211: a2 = u8 [a0 + 0x1]\n 14214: a3 = u8 [a0]\n 14216: a4 = u8 [a0 + 0x2]\n 14219: a5 = u8 [a0 + 0x3]\n 14222: a2 = a2 << 0x8\n 14225: a2 = a2 | a3\n 14228: a4 = a4 << 0x10\n 14231: a5 = a5 << 0x18\n 14234: a4 = a4 | a5\n 14237: a2 = a2 | a4\n 14240: a3 = u8 [a0 + 0x5]\n 14243: a4 = u8 [a0 + 0x4]\n 14246: a5 = u8 [a0 + 0x6]\n 14249: a1 = u8 [a0 + 0x7]\n 14252: a3 = a3 << 0x8\n 14255: a3 = a3 | a4\n 14258: a5 = a5 << 0x10\n 14261: a1 = a1 << 0x18\n 14264: a1 = a1 | a5\n 14267: a1 = a1 | a3\n 14270: a1 = a1 << 0x20\n 14273: t1 = a1 | a2\n 14276: a1 = u8 [a0 + 0x19]\n 14279: a3 = u8 [a0 + 0x18]\n 14282: a4 = u8 [a0 + 0x1a]\n 14285: a5 = u8 [a0 + 0x1b]\n 14288: a1 = a1 << 0x8\n 14291: a1 = a1 | a3\n 14294: a4 = a4 << 0x10\n 14297: a5 = a5 << 0x18\n 14300: a4 = a4 | a5\n 14303: a1 = a1 | a4\n 14306: a3 = u8 [a0 + 0x1d]\n 14309: a4 = u8 [a0 + 0x1c]\n 14312: a5 = u8 [a0 + 0x1e]\n 14315: a2 = u8 [a0 + 0x1f]\n 14318: a3 = a3 << 0x8\n 14321: a3 = a3 | a4\n 14324: a5 = a5 << 0x10\n 14327: a2 = a2 << 0x18\n 14330: a2 = a2 | a5\n 14333: a2 = a2 | a3\n 14336: a2 = a2 << 0x20\n 14339: a3 = a2 | a1\n 14342: a1 = u8 [a0 + 0x9]\n 14345: a2 = u8 [a0 + 0x8]\n 14348: a4 = u8 [a0 + 0xa]\n 14351: a5 = u8 [a0 + 0xb]\n 14354: a1 = a1 << 0x8\n 14357: a1 = a1 | a2\n 14360: a4 = a4 << 0x10\n 14363: a5 = a5 << 0x18\n 14366: a4 = a4 | a5\n 14369: a1 = a1 | a4\n 14372: a2 = u8 [a0 + 0xd]\n 14375: a4 = u8 [a0 + 0xc]\n 14378: a5 = u8 [a0 + 0xe]\n 14381: a0 = u8 [a0 + 0xf]\n 14384: a2 = a2 << 0x8\n 14387: a2 = a2 | a4\n 14390: a5 = a5 << 0x10\n 14393: a0 = a0 << 0x18\n 14396: a0 = a0 | a5\n 14399: a0 = a0 | a2\n 14402: a0 = a0 << 0x20\n 14405: a0 = a0 | a1\n 14408: a1 = reverse a0\n 14410: a0 = reverse a3\n 14412: a2 = reverse t1\n 14414: a3 = reverse t0\n 14416: a2 = a2 | a3\n 14419: a3 = a0 | a1\n 14422: a3 = a3 | a2\n 14425: a3 = a3 >> 0x20\n 14428: a1 = a1 | a2\n 14431: a1 = a1 << 0x20\n 14434: a1 = a1 | a3\n 14437: jump @246 if a1 != 0\n      : @294 (gas: 4)\n 14441: i32 a0 = a0 + 0\n 14443: u64 [s1 + 0x1b8] = a0\n 14447: a1 = 0x20\n 14450: ra = 138, jump @0\n      : @295 [@dyn 69] (gas: 33)\n 14456: u8 [a0 + 31] = 0x29\n 14460: u8 [a0 + 30] = 0x50\n 14464: u8 [a0 + 29] = 0x21\n 14468: u8 [a0 + 28] = 0x79\n 14472: u8 [a0 + 27] = 0x1c\n 14476: u8 [a0 + 26] = 0xfd\n 14481: u8 [a0 + 25] = 0xa9\n 14486: u8 [a0 + 24] = 0xc7\n 14491: u8 [a0 + 23] = 0x2\n 14495: u8 [a0 + 22] = 0xff\n 14500: u8 [a0 + 21] = 0x69\n 14504: u8 [a0 + 20] = 0xdd\n 14509: u8 [a0 + 19] = 0x89\n 14514: u8 [a0 + 18] = 0xb5\n 14519: u8 [a0 + 17] = 0x11\n 14523: u8 [a0 + 16] = 0x9\n 14527: u8 [a0 + 15] = 0xe6\n 14532: u8 [a0 + 14] = 0x7b\n 14536: u8 [a0 + 13] = 0x9\n 14540: u8 [a0 + 12] = 0x83\n 14545: u8 [a0 + 11] = 0xf7\n 14550: u8 [a0 + 10] = 0x6c\n 14554: u8 [a0 + 9] = 0x34\n 14558: u8 [a0 + 8] = 0xf9\n 14563: u8 [a0 + 7] = 0x54\n 14567: u8 [a0 + 6] = 0x19\n 14571: u8 [a0 + 5] = 0x99\n 14576: u8 [a0 + 4] = 0x3c\n 14580: u8 [a0 + 3] = 0xe5\n 14585: u8 [a0 + 2] = 0\n 14588: u8 [a0 + 1] = 0x6a\n 14592: u8 [a0 + 0] = 0x96\n 14596: fallthrough\n      : @296 (gas: 4)\n 14597: a1 = 0x20\n 14600: a0 = u64 [s1 + 0x1b8]\n 14604: ra = 0x90\n 14608: jump @0\n      : @297 (gas: 5)\n 14611: a0 = u64 [s1 + 0x150]\n 14615: a0 = a0 | a4\n 14618: a1 = a5 | a3\n 14621: a0 = a0 | a1\n 14624: jump @372 if a0 == 0\n      : @298 (gas: 8)\n 14628: a0 = 0xffffffdc\n 14638: a2 = u64 [s1 + 0x170]\n 14642: a0 = a2 <u a0\n 14645: a1 = u64 [s1 + 0x178]\n 14649: a0 = 0 if a1 != 0\n 14651: a1 = u64 [s1 + 0x28]\n 14654: a0 = 0 if a1 != 0\n 14656: jump @246 if a0 == 0\n      : @299 (gas: 15)\n 14660: i32 a1 = a2 + 0x24\n 14663: a0 = s1 + 0x1000\n 14667: i32 a0 = a0 + 0xfffffffffffffcc0\n 14671: ecalli 1 // 'call_data_load'\n 14673: a0 = s1 + 0x7ff\n 14677: a0 = a0 + 0x139\n 14681: a1 = u64 [a0 + 0x3a0]\n 14685: u64 [s1 + 0x190] = a1\n 14689: a1 = u64 [a0 + 0x398]\n 14693: u64 [s1 + 0x198] = a1\n 14697: a1 = u64 [a0 + 0x390]\n 14701: u64 [s1 + 0x1a0] = a1\n 14705: a0 = u64 [a0 + 0x388]\n 14709: u64 [s1 + 0x1a8] = a0\n 14713: jump @373\n      : @300 (gas: 5)\n 14716: t0 = 0\n 14718: a1 = 0\n 14720: a2 = 0\n 14722: ra = 0\n 14724: fallthrough\n      : @301 (gas: 39)\n 14725: a5 = a2\n 14727: a4 = a1\n 14729: a0 = u64 [s1 + 0x170]\n 14733: a0 = a0 + t0\n 14736: u64 [s1 + 0x190] = t0\n 14740: a1 = a0 <u t0\n 14743: a2 = u64 [s1 + 0x178]\n 14747: a2 = a2 + a4\n 14750: a2 = a2 + a1\n 14753: a3 = a2 ^ a4\n 14756: u64 [s1 + 0x198] = a4\n 14760: a4 = a2 <u a4\n 14763: a4 = a1 if a3 == 0\n 14766: a1 = u64 [s1 + 0x160]\n 14770: a1 = a1 + a5\n 14773: a4 = a4 + a1\n 14776: a3 = a4 <u a1\n 14779: u64 [s1 + 0x180] = a5\n 14783: a1 = a1 <u a5\n 14786: a5 = u64 [s1 + 0x168]\n 14790: a5 = a5 + ra\n 14793: a1 = a1 + a5\n 14796: a3 = a3 + a1\n 14799: a1 = a0 + 0x24\n 14802: a0 = a1 <u a0\n 14805: a5 = a2 + a0\n 14808: a2 = a5 <u a2\n 14811: a2 = a0 if a0 == 0\n 14814: a2 = a2 + a4\n 14817: a0 = a2 <u a4\n 14820: a0 = a0 + a3\n 14823: a0 = a0 | a5\n 14826: a3 = a1 | a2\n 14829: a3 = a3 | a0\n 14832: a0 = a0 | a2\n 14835: a3 = a3 >> 0x20\n 14838: a0 = a0 << 0x20\n 14841: a0 = a0 | a3\n 14844: jump @246 if a0 != 0\n      : @302 (gas: 41)\n 14848: i32 a1 = a1 + 0\n 14850: a0 = s1 + 0x1000\n 14854: i32 a0 = a0 + 0xfffffffffffffc80\n 14858: u64 [s1 + 0x1a0] = t1\n 14862: u64 [s1 + 0x188] = ra\n 14866: ecalli 1 // 'call_data_load'\n 14868: a3 = s1 + 0x7ff\n 14872: a3 = a3 + 0x139\n 14876: a1 = u64 [a3 + 0x348]\n 14880: a0 = u64 [a3 + 0x350]\n 14884: a2 = u64 [s1 + 0x1b0]\n 14888: a2 = reverse a2\n 14890: u64 [a3 + 0x440] = a2\n 14894: a2 = u64 [s1 + 0x1b8]\n 14898: a2 = reverse a2\n 14900: u64 [a3 + 0x438] = a2\n 14904: a2 = u64 [s1 + 0x1a0]\n 14908: a2 = reverse a2\n 14910: u64 [a3 + 0x430] = a2\n 14914: a2 = u64 [s1 + 0x1a8]\n 14918: a2 = reverse a2\n 14920: u64 [a3 + 0x428] = a2\n 14924: a2 = u64 [a3 + 0x358]\n 14928: a1 = reverse a1\n 14930: u64 [a3 + 0x460] = a1\n 14934: a1 = u64 [a3 + 0x360]\n 14938: a0 = reverse a0\n 14940: u64 [a3 + 0x458] = a0\n 14944: a0 = reverse a2\n 14946: u64 [a3 + 0x450] = a0\n 14950: a0 = reverse a1\n 14952: u64 [a3 + 0x448] = a0\n 14956: a0 = s1 + 0x1000\n 14960: i32 a1 = a0 + 0xfffffffffffffd60\n 14964: a0 = s1 + 0x1000\n 14968: i32 a3 = a0 + 0xfffffffffffffd80\n 14972: a2 = 0xffffffffffffffff\n 14975: a4 = 0x20\n 14978: a0 = 0\n 14980: ecalli 9 // 'set_storage'\n 14982: fallthrough\n      : @303 (gas: 35)\n 14983: t1 = u64 [s1 + 0x1b0]\n 14987: t1 = t1 + 0x1\n 14990: a0 = t1 <u 0x1\n 14993: a1 = u64 [s1 + 0x1b8]\n 14997: a1 = a1 + a0\n 15000: u64 [s1 + 0x1b8] = a1\n 15004: a0 = u64 [s1 + 0x190]\n 15008: t0 = a0 + 0x20\n 15011: a2 = t0 <u a0\n 15014: a0 = u64 [s1 + 0x198]\n 15018: a1 = a0 + a2\n 15021: a3 = a1 <u a0\n 15024: a3 = a2 if a2 == 0\n 15027: t2 = u64 [s1 + 0x180]\n 15031: a2 = t2 + a3\n 15034: a3 = a2 <u t2\n 15037: ra = u64 [s1 + 0x188]\n 15041: ra = ra + a3\n 15044: a5 = a2 | ra\n 15047: a0 = u64 [s1 + 0x158]\n 15051: a4 = t0 <u a0\n 15054: a4 = 0 if a1 != 0\n 15056: a4 = 0 if a5 != 0\n 15058: u64 [s1 + 0x1b0] = t1\n 15062: a0 = u64 [s1 + 0x1b8]\n 15066: a5 = t1 | a0\n 15069: a5 = a5 <u 0x1\n 15072: a0 = u64 [s1 + 0x1a0]\n 15076: a5 = a5 + a0\n 15079: a0 = a5 <u a0\n 15082: a3 = u64 [s1 + 0x1a8]\n 15086: a3 = a3 + a0\n 15089: u64 [s1 + 0x1a8] = a3\n 15093: t1 = a5\n 15095: jump @301 if a4 != 0\n      : @304 (gas: 13)\n 15099: a0 = u64 [s1 + 0x190]\n 15103: a4 = a0 + 0x44\n 15106: a2 = a4 <u a0\n 15109: a1 = u64 [s1 + 0x198]\n 15113: a0 = a1 + a2\n 15116: a1 = a0 <u a1\n 15119: a1 = a2 if a2 == 0\n 15122: t0 = t2 + a1\n 15125: a3 = t0 <u t2\n 15128: ra = u64 [s1 + 0x188]\n 15132: ra = ra + a3\n 15135: u64 [s1 + 0x1a0] = a5\n 15139: fallthrough\n      : @305 (gas: 10)\n 15140: a1 = u64 [s1 + 0x150]\n 15144: a2 = u64 [s1 + 0x158]\n 15148: a1 = a1 ^ a2\n 15151: t1 = u64 [s1 + 0x148]\n 15155: a1 = a1 | t1\n 15158: t2 = u64 [s1 + 0x120]\n 15162: a2 = u64 [s1 + 0x118]\n 15166: a5 = a2 | t2\n 15169: a1 = a1 | a5\n 15172: jump @309 if a1 == 0\n      : @306 (gas: 26)\n 15176: a1 = u64 [s1 + 0x170]\n 15180: a1 = a1 + a4\n 15183: a4 = a1 <u a4\n 15186: a5 = u64 [s1 + 0x178]\n 15190: a5 = a5 + a0\n 15193: a5 = a5 + a4\n 15196: a2 = a5 ^ a0\n 15199: a0 = a5 <u a0\n 15202: a0 = a4 if a2 == 0\n 15205: a2 = u64 [s1 + 0x160]\n 15209: a2 = a2 + t0\n 15212: a0 = a0 + a2\n 15215: a4 = a0 <u a2\n 15218: a2 = a2 <u t0\n 15221: a3 = u64 [s1 + 0x168]\n 15225: a3 = a3 + ra\n 15228: a2 = a2 + a3\n 15231: a2 = a2 + a4\n 15234: a3 = a1 | a0\n 15237: a2 = a2 | a5\n 15240: a3 = a3 | a2\n 15243: a3 = a3 >> 0x20\n 15246: a0 = a0 | a2\n 15249: a0 = a0 << 0x20\n 15252: a0 = a0 | a3\n 15255: jump @246 if a0 != 0\n      : @307 (gas: 201)\n 15259: u8 [s1 + 2015] = 0\n 15263: u8 [s1 + 2014] = 0\n 15267: u8 [s1 + 2013] = 0\n 15271: u8 [s1 + 2012] = 0\n 15275: u8 [s1 + 2011] = 0\n 15279: u8 [s1 + 2010] = 0\n 15283: u8 [s1 + 2009] = 0\n 15287: u8 [s1 + 2008] = 0\n 15291: u8 [s1 + 2007] = 0\n 15295: u8 [s1 + 2006] = 0\n 15299: u8 [s1 + 2005] = 0\n 15303: u8 [s1 + 2004] = 0\n 15307: u8 [s1 + 2003] = 0\n 15311: u8 [s1 + 2002] = 0\n 15315: u8 [s1 + 2001] = 0\n 15319: u8 [s1 + 2000] = 0\n 15323: u8 [s1 + 1999] = 0\n 15327: u8 [s1 + 1998] = 0\n 15331: u8 [s1 + 1997] = 0\n 15335: u8 [s1 + 1996] = 0\n 15339: u8 [s1 + 1995] = 0\n 15343: u8 [s1 + 1994] = 0\n 15347: u8 [s1 + 1993] = 0\n 15351: u8 [s1 + 1992] = 0\n 15355: u8 [s1 + 1991] = 0\n 15359: u8 [s1 + 1990] = 0\n 15363: u8 [s1 + 1989] = 0\n 15367: u8 [s1 + 1988] = 0\n 15371: u8 [s1 + 1987] = 0\n 15375: u8 [s1 + 1986] = 0\n 15379: u8 [s1 + 1985] = 0\n 15383: u8 [s1 + 1984] = 0\n 15387: u8 [s1 + 1983] = 0xff\n 15393: u8 [s1 + 1982] = 0xff\n 15399: u8 [s1 + 1981] = 0xff\n 15405: u8 [s1 + 1979] = 0xff\n 15411: u8 [s1 + 1976] = 0xffffffffffffffff\n 15416: u8 [s1 + 1975] = 0xff\n 15422: u8 [s1 + 1974] = 0xff\n 15428: u8 [s1 + 1973] = 0xff\n 15434: u8 [s1 + 1971] = 0xff\n 15440: u8 [s1 + 1968] = 0xffffffffffffffff\n 15445: u8 [s1 + 1967] = 0xff\n 15451: u8 [s1 + 1966] = 0xff\n 15457: u8 [s1 + 1965] = 0xff\n 15463: u8 [s1 + 1963] = 0xff\n 15469: u8 [s1 + 1960] = 0xffffffffffffffff\n 15474: u8 [s1 + 1959] = 0xff\n 15480: u8 [s1 + 1958] = 0xff\n 15486: u8 [s1 + 1957] = 0xff\n 15492: u8 [s1 + 1955] = 0xff\n 15498: u8 [s1 + 1952] = 0xffffffffffffffff\n 15503: a2 = 0xffffffff\n 15513: u8 [s1 + 0x7bc] = a2\n 15517: a3 = 0xffffffffffff\n 15527: u8 [s1 + 0x7ba] = a3\n 15531: a0 = 0xffffffffffffff\n 15541: u8 [s1 + 0x7b9] = a0\n 15545: u8 [s1 + 0x7b4] = a2\n 15549: u8 [s1 + 0x7b2] = a3\n 15553: u8 [s1 + 0x7b1] = a0\n 15557: u8 [s1 + 0x7ac] = a2\n 15561: u8 [s1 + 0x7aa] = a3\n 15565: u8 [s1 + 0x7a9] = a0\n 15569: u8 [s1 + 0x7a4] = a2\n 15573: u8 [s1 + 0x7a2] = a3\n 15577: u8 [s1 + 0x7a1] = a0\n 15581: a0 = u64 [s1 + 0x150]\n 15585: a0 = a0 & 0x1f\n 15588: a2 = s1 + 0x7a0\n 15592: a0 = a0 + a2\n 15595: a2 = u8 [a0 + 0x19]\n 15598: a3 = u8 [a0 + 0x18]\n 15601: a4 = u8 [a0 + 0x1a]\n 15604: a5 = u8 [a0 + 0x1b]\n 15607: a2 = a2 << 0x8\n 15610: a2 = a2 | a3\n 15613: a4 = a4 << 0x10\n 15616: a5 = a5 << 0x18\n 15619: a4 = a4 | a5\n 15622: t0 = a4 | a2\n 15625: a3 = u8 [a0 + 0x1d]\n 15628: a4 = u8 [a0 + 0x1c]\n 15631: a5 = u8 [a0 + 0x1e]\n 15634: a2 = u8 [a0 + 0x1f]\n 15637: a3 = a3 << 0x8\n 15640: a3 = a3 | a4\n 15643: a5 = a5 << 0x10\n 15646: a2 = a2 << 0x18\n 15649: a2 = a2 | a5\n 15652: a2 = a2 | a3\n 15655: a2 = a2 << 0x20\n 15658: a2 = a2 | t0\n 15661: u64 [s1 + 0x198] = a2\n 15665: a2 = u8 [a0 + 0x11]\n 15668: a3 = u8 [a0 + 0x10]\n 15671: a4 = u8 [a0 + 0x12]\n 15674: a5 = u8 [a0 + 0x13]\n 15677: a2 = a2 << 0x8\n 15680: a2 = a2 | a3\n 15683: a4 = a4 << 0x10\n 15686: a5 = a5 << 0x18\n 15689: a4 = a4 | a5\n 15692: t0 = a4 | a2\n 15695: a3 = u8 [a0 + 0x15]\n 15698: a4 = u8 [a0 + 0x14]\n 15701: a5 = u8 [a0 + 0x16]\n 15704: a2 = u8 [a0 + 0x17]\n 15707: a3 = a3 << 0x8\n 15710: a3 = a3 | a4\n 15713: a5 = a5 << 0x10\n 15716: a2 = a2 << 0x18\n 15719: a2 = a2 | a5\n 15722: a2 = a2 | a3\n 15725: a2 = a2 << 0x20\n 15728: a2 = a2 | t0\n 15731: u64 [s1 + 0x190] = a2\n 15735: a2 = u8 [a0 + 0x9]\n 15738: a3 = u8 [a0 + 0x8]\n 15741: a4 = u8 [a0 + 0xa]\n 15744: a5 = u8 [a0 + 0xb]\n 15747: a2 = a2 << 0x8\n 15750: a2 = a2 | a3\n 15753: a4 = a4 << 0x10\n 15756: a5 = a5 << 0x18\n 15759: a4 = a4 | a5\n 15762: t0 = a4 | a2\n 15765: a3 = u8 [a0 + 0xd]\n 15768: a4 = u8 [a0 + 0xc]\n 15771: a5 = u8 [a0 + 0xe]\n 15774: a2 = u8 [a0 + 0xf]\n 15777: a3 = a3 << 0x8\n 15780: a3 = a3 | a4\n 15783: a5 = a5 << 0x10\n 15786: a2 = a2 << 0x18\n 15789: a2 = a2 | a5\n 15792: a2 = a2 | a3\n 15795: a2 = a2 << 0x20\n 15798: a2 = a2 | t0\n 15801: u64 [s1 + 0x188] = a2\n 15805: a2 = u8 [a0 + 0x1]\n 15808: a3 = u8 [a0]\n 15810: a4 = u8 [a0 + 0x2]\n 15813: a5 = u8 [a0 + 0x3]\n 15816: a2 = a2 << 0x8\n 15819: a2 = a2 | a3\n 15822: a4 = a4 << 0x10\n 15825: a5 = a5 << 0x18\n 15828: a4 = a4 | a5\n 15831: a2 = a2 | a4\n 15834: a3 = u8 [a0 + 0x5]\n 15837: a4 = u8 [a0 + 0x4]\n 15840: a5 = u8 [a0 + 0x6]\n 15843: a0 = u8 [a0 + 0x7]\n 15846: a3 = a3 << 0x8\n 15849: a3 = a3 | a4\n 15852: a5 = a5 << 0x10\n 15855: a0 = a0 << 0x18\n 15858: a0 = a0 | a5\n 15861: a0 = a0 | a3\n 15864: a0 = a0 << 0x20\n 15867: a0 = a0 | a2\n 15870: u64 [s1 + 0x180] = a0\n 15874: i32 a1 = a1 + 0\n 15876: a0 = s1 + 0x1000\n 15880: i32 a0 = a0 + 0xfffffffffffffca0\n 15884: ecalli 1 // 'call_data_load'\n 15886: a3 = s1 + 0x7ff\n 15890: a3 = a3 + 0x139\n 15894: a0 = u64 [a3 + 0x368]\n 15898: a1 = u64 [a3 + 0x370]\n 15902: a2 = u64 [a3 + 0x378]\n 15906: a3 = u64 [a3 + 0x380]\n 15910: a4 = u64 [s1 + 0x180]\n 15914: a4 = a0 & ~a4\n 15917: a0 = u64 [s1 + 0x188]\n 15921: a0 = a1 & ~a0\n 15924: a1 = u64 [s1 + 0x190]\n 15928: a1 = a2 & ~a1\n 15931: a2 = u64 [s1 + 0x198]\n 15935: a2 = a3 & ~a2\n 15938: a3 = u64 [s1 + 0x1a8]\n 15942: a5 = s1 + 0x1000\n 15946: u64 [a5 + 0xfffffffffffff818] = a3\n 15950: a3 = u64 [s1 + 0x1a0]\n 15954: a5 = s1 + 0x1000\n 15958: u64 [a5 + 0xfffffffffffff810] = a3\n 15962: a3 = u64 [s1 + 0x1b8]\n 15966: a5 = s1 + 0x1000\n 15970: u64 [a5 + 0xfffffffffffff808] = a3\n 15974: a3 = u64 [s1 + 0x1b0]\n 15978: a5 = s1 + 0x1000\n 15982: u64 [a5 + 0xfffffffffffff800] = a3\n 15986: u64 [s1 + 0x7f8] = a2\n 15990: u64 [s1 + 0x7f0] = a1\n 15994: u64 [s1 + 0x7e8] = a0\n 15998: a0 = s1 + 0x7ff\n 16002: a0 = a0 + 0x1\n 16005: a1 = s1 + 0x7e0\n 16009: u64 [s1 + 0x7e0] = a4\n 16013: ra = 140, jump @11\n      : @308 [@dyn 70] (gas: 4)\n 16019: a2 = u64 [s1 + 0x118]\n 16023: t1 = u64 [s1 + 0x148]\n 16027: t2 = u64 [s1 + 0x120]\n 16031: fallthrough\n      : @309 (gas: 16)\n 16032: u64 [s1 + 440] = 0\n 16036: u64 [s1 + 432] = 0\n 16040: ra = 0\n 16042: a5 = u64 [s1 + 0x150]\n 16046: a0 = a5 >> 0x3f\n 16049: a3 = a2 << 0x1\n 16052: a3 = a3 | a0\n 16055: a0 = a2 >> 0x3f\n 16058: a4 = t1 << 0x1\n 16061: a4 = a4 | a0\n 16064: a0 = t1 >> 0x3f\n 16067: a1 = t2 << 0x1\n 16070: a0 = a0 | a1\n 16073: a5 = a5 << 0x1\n 16076: a1 = 0x1\n 16079: jump @374\n      : @310 (gas: 3)\n 16082: a0 = 0\n 16084: ra = 0xe0\n 16088: jump @0\n      : @311 (gas: 4)\n 16091: i32 a0 = a0 + 0\n 16093: u64 [s1 + 0x1a8] = a0\n 16097: a1 = 0x20\n 16100: ra = 142, jump @0\n      : @312 [@dyn 71] (gas: 43)\n 16106: a1 = 0xffffffffffffff\n 16116: a3 = u64 [s1 + 0x1b8]\n 16120: a1 = a1 ^ a3\n 16123: a2 = u64 [s1 + 0x1b0]\n 16127: a2 = a1 | ~a2\n 16130: a1 = a3 >> 0x38\n 16133: a1 = a1 >u 0\n 16135: a1 = 0 if a2 == 0\n 16137: u8 [a0 + 30] = 0\n 16140: u8 [a0 + 29] = 0\n 16143: u8 [a0 + 28] = 0\n 16146: u8 [a0 + 27] = 0\n 16149: u8 [a0 + 26] = 0\n 16152: u8 [a0 + 25] = 0\n 16155: u8 [a0 + 24] = 0\n 16158: u8 [a0 + 23] = 0\n 16161: u8 [a0 + 22] = 0\n 16164: u8 [a0 + 21] = 0\n 16167: u8 [a0 + 20] = 0\n 16170: u8 [a0 + 19] = 0\n 16173: u8 [a0 + 18] = 0\n 16176: u8 [a0 + 17] = 0\n 16179: u8 [a0 + 16] = 0\n 16182: u8 [a0 + 15] = 0\n 16185: u8 [a0 + 14] = 0\n 16188: u8 [a0 + 13] = 0\n 16191: u8 [a0 + 12] = 0\n 16194: u8 [a0 + 11] = 0\n 16197: u8 [a0 + 10] = 0\n 16200: u8 [a0 + 9] = 0\n 16203: u8 [a0 + 8] = 0\n 16206: u8 [a0 + 7] = 0\n 16209: u8 [a0 + 6] = 0\n 16212: u8 [a0 + 5] = 0\n 16215: u8 [a0 + 4] = 0\n 16218: u8 [a0 + 3] = 0\n 16221: u8 [a0 + 2] = 0\n 16224: u8 [a0 + 1] = 0\n 16227: u8 [a0 + 0] = 0\n 16229: u8 [a0 + 0x1f] = a1\n 16232: a1 = 0x20\n 16235: a0 = u64 [s1 + 0x1a8]\n 16239: ra = 144, jump @0\n      : @313 [@dyn 72] (gas: 5)\n 16245: i32 a1 = a0 + 0\n 16247: a2 = 0x20\n 16250: a0 = 0\n 16252: ecalli 7 // 'seal_return'\n 16254: fallthrough\n      : @314 (gas: 8)\n 16255: u64 [s1 + 1872] = 0\n 16259: u64 [s1 + 1864] = 0\n 16263: u64 [s1 + 1856] = 0\n 16267: a0 = 0x4e487b7100000000\n 16277: a1 = s1 + 0x740\n 16281: u64 [s1 + 0x758] = a0\n 16285: a0 = 0\n 16287: ra = 146, jump @8\n      : @315 [@dyn 73] (gas: 7)\n 16293: u64 [s1 + 1848] = 0\n 16297: u64 [s1 + 1840] = 0\n 16301: u64 [s1 + 1824] = 0x22\n 16306: a0 = 0x4\n 16309: a1 = s1 + 0x720\n 16313: u64 [s1 + 1832] = 0\n 16317: ra = 148, jump @8\n      : @316 [@dyn 74] (gas: 3)\n 16323: a1 = 0x24\n 16326: a0 = 0\n 16328: ra = 150, jump @0\n      : @317 [@dyn 75] (gas: 5)\n 16334: i32 a1 = a0 + 0\n 16336: a0 = 0x1\n 16339: a2 = 0x24\n 16342: ecalli 7 // 'seal_return'\n 16344: fallthrough\n      : @318 (gas: 1)\n 16345: jump @377 if a0 != 33540519\n      : @319 (gas: 11)\n 16353: a0 = sp + 0xffffffffffffffe0\n 16356: a0 = a0 & 0xffffffffffffffe0\n 16359: u64 [s1 + 0x1b0] = a0\n 16363: sp = a0\n 16365: u64 [a0 + 24] = 0\n 16368: u64 [a0 + 16] = 0\n 16371: u64 [a0 + 8] = 0\n 16374: u64 [a0 + 0] = 0\n 16376: i32 a0 = a0 + 0\n 16378: ecalli 10 // 'value_transferred'\n 16380: fallthrough\n      : @320 (gas: 9)\n 16381: a3 = u64 [s1 + 0x1b0]\n 16385: a0 = u64 [a3 + 0x10]\n 16388: a1 = u64 [a3 + 0x18]\n 16391: a2 = u64 [a3 + 0x8]\n 16394: a3 = u64 [a3]\n 16396: a1 = a1 | a2\n 16399: a0 = a0 | a3\n 16402: a0 = a0 | a1\n 16405: jump @399 if a0 != 0\n      : @321 (gas: 3)\n 16409: a0 = u64 [s1 + 0x1b8]\n 16413: a0 = i32 [a0]\n 16415: jump @399 if a0 <=u 35\n      : @322 (gas: 5)\n 16420: a0 = s1 + 0x1000\n 16424: i32 a0 = a0 + 0xfffffffffffffae0\n 16428: a1 = 0x4\n 16431: ecalli 1 // 'call_data_load'\n 16433: fallthrough\n      : @323 (gas: 12)\n 16434: a1 = s1 + 0x7ff\n 16438: a1 = a1 + 0x139\n 16442: a0 = u64 [a1 + 0x1c0]\n 16446: a2 = u64 [a1 + 0x1b8]\n 16450: a3 = u64 [a1 + 0x1a8]\n 16454: a1 = u64 [a1 + 0x1b0]\n 16458: a4 = a0 << 0x20\n 16461: a4 = a4 >> 0x20\n 16464: a2 = a2 | a3\n 16467: a4 = a4 | a1\n 16470: a4 = a4 | a2\n 16473: jump @399 if a4 != 0\n      : @324 (gas: 18)\n 16477: a3 = 0x7965db0b00000000\n 16487: a3 = a3 ^ a0\n 16490: a3 = a3 | a1\n 16493: a3 = a3 | a2\n 16496: a3 = a3 <u 0x1\n 16499: a4 = 0x1ffc9a700000000\n 16509: a0 = a0 ^ a4\n 16512: a0 = a0 | a1\n 16515: a0 = a0 | a2\n 16518: a0 = a0 <u 0x1\n 16521: a0 = a0 | a3\n 16524: u64 [s1 + 472] = 0\n 16528: u64 [s1 + 464] = 0\n 16532: u64 [s1 + 0x1c0] = a0\n 16536: a0 = 0x80\n 16540: a1 = s1 + 0x1c0\n 16544: u64 [s1 + 456] = 0\n 16548: ra = 152, jump @8\n      : @325 [@dyn 76] (gas: 4)\n 16554: a0 = 0x80\n 16558: a1 = 0x20\n 16561: ra = 0x90\n 16565: jump @0\n      : @326 (gas: 1)\n 16568: jump @386 if a0 != 911641278\n      : @327 (gas: 11)\n 16576: a0 = sp + 0xffffffffffffffe0\n 16579: a0 = a0 & 0xffffffffffffffe0\n 16582: u64 [s1 + 0x1b0] = a0\n 16586: sp = a0\n 16588: u64 [a0 + 24] = 0\n 16591: u64 [a0 + 16] = 0\n 16594: u64 [a0 + 8] = 0\n 16597: u64 [a0 + 0] = 0\n 16599: i32 a0 = a0 + 0\n 16601: ecalli 10 // 'value_transferred'\n 16603: fallthrough\n      : @328 (gas: 9)\n 16604: a3 = u64 [s1 + 0x1b0]\n 16608: a0 = u64 [a3 + 0x10]\n 16611: a1 = u64 [a3 + 0x18]\n 16614: a2 = u64 [a3 + 0x8]\n 16617: a3 = u64 [a3]\n 16619: a1 = a1 | a2\n 16622: a0 = a0 | a3\n 16625: a0 = a0 | a1\n 16628: jump @399 if a0 != 0\n      : @329 (gas: 3)\n 16632: a0 = u64 [s1 + 0x1b8]\n 16636: a0 = i32 [a0]\n 16638: jump @399 if a0 <=u 67\n      : @330 (gas: 2)\n 16643: a0 = s1 + 0x340\n 16647: ra = 154, jump @446\n      : @331 [@dyn 77] (gas: 12)\n 16653: a0 = u64 [s1 + 0x358]\n 16657: u64 [s1 + 0x1a0] = a0\n 16661: a0 = u64 [s1 + 0x350]\n 16665: u64 [s1 + 0x1a8] = a0\n 16669: a0 = u64 [s1 + 0x348]\n 16673: u64 [s1 + 0x1b0] = a0\n 16677: a0 = u64 [s1 + 0x340]\n 16681: u64 [s1 + 0x1b8] = a0\n 16685: a0 = s1 + 0x1000\n 16689: i32 a0 = a0 + 0xfffffffffffffb40\n 16693: ecalli 3 // 'caller'\n 16695: fallthrough\n      : @332 (gas: 26)\n 16696: a2 = s1 + 0x7ff\n 16700: a2 = a2 + 0x139\n 16704: a0 = u64 [a2 + 0x210]\n 16708: a1 = u64 [a2 + 0x208]\n 16712: a2 = i32 [a2 + 0x218]\n 16716: a0 = reverse a0\n 16718: a3 = a0 >> 0x20\n 16721: a1 = reverse a1\n 16723: a4 = a1 << 0x20\n 16726: a3 = a3 | a4\n 16729: a0 = a0 << 0x20\n 16732: a2 = reverse a2\n 16734: a2 = a2 >> 0x20\n 16737: a0 = a0 | a2\n 16740: a1 = a1 >> 0x20\n 16743: a2 = u64 [s1 + 0x1a8]\n 16747: a2 = a2 << 0x20\n 16750: a2 = a2 >> 0x20\n 16753: a1 = a1 ^ a2\n 16756: a2 = u64 [s1 + 0x1b8]\n 16760: a0 = a0 ^ a2\n 16763: a0 = a0 | a1\n 16766: a1 = u64 [s1 + 0x1b0]\n 16770: a1 = a1 ^ a3\n 16773: a0 = a0 | a1\n 16776: jump @408 if a0 != 0\n      : @333 (gas: 26)\n 16780: a0 = s1 + 0x1000\n 16784: i32 a0 = a0 + 0xfffffffffffffb60\n 16788: a1 = 0x4\n 16791: ecalli 1 // 'call_data_load'\n 16793: a2 = s1 + 0x7ff\n 16797: a2 = a2 + 0x139\n 16801: a3 = u64 [a2 + 0x228]\n 16805: a0 = u64 [a2 + 0x230]\n 16809: a1 = u64 [a2 + 0x238]\n 16813: a2 = u64 [a2 + 0x240]\n 16817: a4 = u64 [s1 + 0x1a0]\n 16821: u64 [s1 + 0x2d8] = a4\n 16825: a4 = u64 [s1 + 0x1a8]\n 16829: u64 [s1 + 0x2d0] = a4\n 16833: a4 = u64 [s1 + 0x1b0]\n 16837: u64 [s1 + 0x2c8] = a4\n 16841: a4 = u64 [s1 + 0x1b8]\n 16845: u64 [s1 + 0x2c0] = a4\n 16849: u64 [s1 + 0x2f8] = a2\n 16853: u64 [s1 + 0x2f0] = a1\n 16857: u64 [s1 + 0x2e8] = a0\n 16861: a0 = s1 + 0x300\n 16865: a1 = s1 + 0x2e0\n 16869: a2 = s1 + 0x2c0\n 16873: u64 [s1 + 0x2e0] = a3\n 16877: ra = 156, jump @561\n      : @334 [@dyn 78] (gas: 1)\n 16883: jump @375\n      : @335 (gas: 1)\n 16886: jump @399 if a0 != 1521856698\n      : @336 (gas: 11)\n 16894: a0 = sp + 0xffffffffffffffe0\n 16897: a0 = a0 & 0xffffffffffffffe0\n 16900: u64 [s1 + 0x1b0] = a0\n 16904: sp = a0\n 16906: u64 [a0 + 24] = 0\n 16909: u64 [a0 + 16] = 0\n 16912: u64 [a0 + 8] = 0\n 16915: u64 [a0 + 0] = 0\n 16917: i32 a0 = a0 + 0\n 16919: ecalli 10 // 'value_transferred'\n 16921: fallthrough\n      : @337 (gas: 9)\n 16922: a3 = u64 [s1 + 0x1b0]\n 16926: a0 = u64 [a3 + 0x10]\n 16929: a1 = u64 [a3 + 0x18]\n 16932: a2 = u64 [a3 + 0x8]\n 16935: a3 = u64 [a3]\n 16937: a1 = a1 | a2\n 16940: a0 = a0 | a3\n 16943: a0 = a0 | a1\n 16946: jump @399 if a0 != 0\n      : @338 (gas: 3)\n 16950: a0 = u64 [s1 + 0x1b8]\n 16954: a0 = i32 [a0]\n 16956: jump @399 if a0 <=u 67\n      : @339 (gas: 2)\n 16961: a0 = s1 + 0x540\n 16965: ra = 158, jump @451\n      : @340 [@dyn 79] (gas: 7)\n 16971: a0 = u64 [s1 + 0x540]\n 16975: u64 [s1 + 0x1b8] = a0\n 16979: a0 = u64 [s1 + 0x548]\n 16983: u64 [s1 + 0x1b0] = a0\n 16987: a0 = u32 [s1 + 0x550]\n 16991: u64 [s1 + 0x1a8] = a0\n 16995: ra = 160, jump @515\n      : @341 [@dyn 80] (gas: 10)\n 17001: u64 [s1 + 1336] = 0\n 17005: a0 = u64 [s1 + 0x1a8]\n 17009: u64 [s1 + 0x530] = a0\n 17013: a0 = u64 [s1 + 0x1b0]\n 17017: u64 [s1 + 0x528] = a0\n 17021: a1 = s1 + 0x520\n 17025: a0 = u64 [s1 + 0x1b8]\n 17029: u64 [s1 + 0x520] = a0\n 17033: a0 = 0\n 17035: ra = 162, jump @8\n      : @342 [@dyn 81] (gas: 7)\n 17041: u64 [s1 + 1304] = 0\n 17045: u64 [s1 + 1296] = 0\n 17049: u64 [s1 + 1280] = 0x2\n 17054: a0 = 0x20\n 17057: a1 = s1 + 0x500\n 17061: u64 [s1 + 1288] = 0\n 17065: ra = 164, jump @8\n      : @343 [@dyn 82] (gas: 3)\n 17071: a1 = 0x40\n 17074: a0 = 0\n 17076: ra = 166, jump @0\n      : @344 [@dyn 83] (gas: 38)\n 17082: a1 = sp + 0xffffffffffffffe0\n 17085: a1 = a1 & 0xffffffffffffffe0\n 17088: u64 [s1 + 0x1b8] = a1\n 17092: sp = a1\n 17094: i32 a0 = a0 + 0\n 17096: i32 a2 = a1 + 0\n 17098: a1 = 0x40\n 17101: ecalli 6 // 'hash_keccak_256'\n 17103: a3 = u64 [s1 + 0x1b8]\n 17107: a0 = u64 [a3 + 0x18]\n 17110: a1 = u64 [a3 + 0x10]\n 17113: a2 = u64 [a3 + 0x8]\n 17116: a3 = u64 [a3]\n 17118: a0 = reverse a0\n 17120: u64 [s1 + 0x1b8] = a0\n 17124: a0 = reverse a1\n 17126: u64 [s1 + 0x1b0] = a0\n 17130: a0 = reverse a2\n 17132: u64 [s1 + 0x1a8] = a0\n 17136: a0 = reverse a3\n 17138: u64 [s1 + 0x1a0] = a0\n 17142: a0 = s1 + 0x1000\n 17146: i32 a0 = a0 + 0xfffffffffffffba0\n 17150: a1 = 0x24\n 17153: ecalli 1 // 'call_data_load'\n 17155: a3 = s1 + 0x7ff\n 17159: a3 = a3 + 0x139\n 17163: a0 = u64 [a3 + 0x268]\n 17167: a1 = u64 [a3 + 0x270]\n 17171: a2 = u64 [a3 + 0x278]\n 17175: a3 = u64 [a3 + 0x280]\n 17179: u64 [s1 + 0x4f8] = a3\n 17183: u64 [s1 + 0x4f0] = a2\n 17187: u64 [s1 + 0x4e8] = a1\n 17191: a1 = s1 + 0x4e0\n 17195: u64 [s1 + 0x4e0] = a0\n 17199: a0 = 0\n 17201: ra = 168, jump @8\n      : @345 [@dyn 84] (gas: 11)\n 17207: a0 = u64 [s1 + 0x1a0]\n 17211: u64 [s1 + 0x4d8] = a0\n 17215: a0 = u64 [s1 + 0x1a8]\n 17219: u64 [s1 + 0x4d0] = a0\n 17223: a0 = u64 [s1 + 0x1b0]\n 17227: u64 [s1 + 0x4c8] = a0\n 17231: a0 = 0x20\n 17234: a1 = s1 + 0x4c0\n 17238: a2 = u64 [s1 + 0x1b8]\n 17242: u64 [s1 + 0x4c0] = a2\n 17246: ra = 170, jump @8\n      : @346 [@dyn 85] (gas: 3)\n 17252: a1 = 0x40\n 17255: a0 = 0\n 17257: ra = 172, jump @0\n      : @347 [@dyn 86] (gas: 28)\n 17263: a1 = sp + 0xffffffffffffffe0\n 17266: a1 = a1 & 0xffffffffffffffe0\n 17269: u64 [s1 + 0x1b8] = a1\n 17273: sp = a1\n 17275: i32 a0 = a0 + 0\n 17277: i32 a2 = a1 + 0\n 17279: a1 = 0x40\n 17282: ecalli 6 // 'hash_keccak_256'\n 17284: a3 = u64 [s1 + 0x1b8]\n 17288: a0 = u64 [a3 + 0x18]\n 17291: a1 = u64 [a3 + 0x10]\n 17294: a2 = u64 [a3 + 0x8]\n 17297: a3 = u64 [a3]\n 17299: a4 = reverse a0\n 17301: u64 [s1 + 0x1a0] = a4\n 17305: a0 = reverse a1\n 17307: u64 [s1 + 0x1b8] = a0\n 17311: a1 = reverse a2\n 17313: u64 [s1 + 0x1b0] = a1\n 17317: a2 = reverse a3\n 17319: u64 [s1 + 0x1a8] = a2\n 17323: u64 [s1 + 0x498] = a2\n 17327: u64 [s1 + 0x490] = a1\n 17331: u64 [s1 + 0x488] = a0\n 17335: a0 = s1 + 0x4a0\n 17339: a1 = s1 + 0x480\n 17343: u64 [s1 + 0x480] = a4\n 17347: ra = 174, jump @10\n      : @348 [@dyn 87] (gas: 22)\n 17353: a0 = u64 [s1 + 0x4a8]\n 17357: a1 = u64 [s1 + 0x4a0]\n 17361: a2 = u64 [s1 + 0x4b0]\n 17365: a3 = u64 [s1 + 0x4b8]\n 17369: a1 = a1 & 0xffffffffffffff00\n 17373: a4 = a1 | 0x1\n 17376: u64 [s1 + 0x458] = a3\n 17380: u64 [s1 + 0x450] = a2\n 17384: u64 [s1 + 0x448] = a0\n 17388: a0 = u64 [s1 + 0x1a8]\n 17392: u64 [s1 + 0x478] = a0\n 17396: a0 = u64 [s1 + 0x1b0]\n 17400: u64 [s1 + 0x470] = a0\n 17404: a0 = u64 [s1 + 0x1b8]\n 17408: u64 [s1 + 0x468] = a0\n 17412: a0 = u64 [s1 + 0x1a0]\n 17416: u64 [s1 + 0x460] = a0\n 17420: a0 = s1 + 0x460\n 17424: a1 = s1 + 0x440\n 17428: u64 [s1 + 0x440] = a4\n 17432: ra = 0xca\n 17436: jump @11\n      : @349 (gas: 1)\n 17439: jump @399 if a0 != 2107886436\n      : @350 (gas: 11)\n 17447: a0 = sp + 0xffffffffffffffe0\n 17450: a0 = a0 & 0xffffffffffffffe0\n 17453: u64 [s1 + 0x1b0] = a0\n 17457: sp = a0\n 17459: u64 [a0 + 24] = 0\n 17462: u64 [a0 + 16] = 0\n 17465: u64 [a0 + 8] = 0\n 17468: u64 [a0 + 0] = 0\n 17470: i32 a0 = a0 + 0\n 17472: ecalli 10 // 'value_transferred'\n 17474: fallthrough\n      : @351 (gas: 9)\n 17475: a3 = u64 [s1 + 0x1b0]\n 17479: a0 = u64 [a3 + 0x10]\n 17482: a1 = u64 [a3 + 0x18]\n 17485: a2 = u64 [a3 + 0x8]\n 17488: a3 = u64 [a3]\n 17490: a1 = a1 | a2\n 17493: a0 = a0 | a3\n 17496: a0 = a0 | a1\n 17499: jump @399 if a0 != 0\n      : @352 (gas: 3)\n 17503: a0 = u64 [s1 + 0x1b8]\n 17507: a0 = i32 [a0]\n 17509: jump @399 if a0 <=u 67\n      : @353 (gas: 2)\n 17514: a0 = s1 + 0x660\n 17518: ra = 176, jump @451\n      : @354 [@dyn 88] (gas: 7)\n 17524: a0 = u64 [s1 + 0x660]\n 17528: u64 [s1 + 0x1b8] = a0\n 17532: a0 = u64 [s1 + 0x668]\n 17536: u64 [s1 + 0x1b0] = a0\n 17540: a0 = u32 [s1 + 0x670]\n 17544: u64 [s1 + 0x1a8] = a0\n 17548: ra = 178, jump @515\n      : @355 [@dyn 89] (gas: 10)\n 17554: u64 [s1 + 1624] = 0\n 17558: a0 = u64 [s1 + 0x1a8]\n 17562: u64 [s1 + 0x650] = a0\n 17566: a0 = u64 [s1 + 0x1b0]\n 17570: u64 [s1 + 0x648] = a0\n 17574: a1 = s1 + 0x640\n 17578: a0 = u64 [s1 + 0x1b8]\n 17582: u64 [s1 + 0x640] = a0\n 17586: a0 = 0\n 17588: ra = 180, jump @8\n      : @356 [@dyn 90] (gas: 7)\n 17594: u64 [s1 + 1592] = 0\n 17598: u64 [s1 + 1584] = 0\n 17602: u64 [s1 + 1568] = 0x2\n 17607: a0 = 0x20\n 17610: a1 = s1 + 0x620\n 17614: u64 [s1 + 1576] = 0\n 17618: ra = 182, jump @8\n      : @357 [@dyn 91] (gas: 3)\n 17624: a1 = 0x40\n 17627: a0 = 0\n 17629: ra = 184, jump @0\n      : @358 [@dyn 92] (gas: 38)\n 17635: a1 = sp + 0xffffffffffffffe0\n 17638: a1 = a1 & 0xffffffffffffffe0\n 17641: u64 [s1 + 0x1b8] = a1\n 17645: sp = a1\n 17647: i32 a0 = a0 + 0\n 17649: i32 a2 = a1 + 0\n 17651: a1 = 0x40\n 17654: ecalli 6 // 'hash_keccak_256'\n 17656: a3 = u64 [s1 + 0x1b8]\n 17660: a0 = u64 [a3 + 0x18]\n 17663: a1 = u64 [a3 + 0x10]\n 17666: a2 = u64 [a3 + 0x8]\n 17669: a3 = u64 [a3]\n 17671: a0 = reverse a0\n 17673: u64 [s1 + 0x1b8] = a0\n 17677: a0 = reverse a1\n 17679: u64 [s1 + 0x1b0] = a0\n 17683: a0 = reverse a2\n 17685: u64 [s1 + 0x1a8] = a0\n 17689: a0 = reverse a3\n 17691: u64 [s1 + 0x1a0] = a0\n 17695: a0 = s1 + 0x1000\n 17699: i32 a0 = a0 + 0xfffffffffffffbe0\n 17703: a1 = 0x24\n 17706: ecalli 1 // 'call_data_load'\n 17708: a3 = s1 + 0x7ff\n 17712: a3 = a3 + 0x139\n 17716: a0 = u64 [a3 + 0x2a8]\n 17720: a1 = u64 [a3 + 0x2b0]\n 17724: a2 = u64 [a3 + 0x2b8]\n 17728: a3 = u64 [a3 + 0x2c0]\n 17732: u64 [s1 + 0x618] = a3\n 17736: u64 [s1 + 0x610] = a2\n 17740: u64 [s1 + 0x608] = a1\n 17744: a1 = s1 + 0x600\n 17748: u64 [s1 + 0x600] = a0\n 17752: a0 = 0\n 17754: ra = 186, jump @8\n      : @359 [@dyn 93] (gas: 11)\n 17760: a0 = u64 [s1 + 0x1a0]\n 17764: u64 [s1 + 0x5f8] = a0\n 17768: a0 = u64 [s1 + 0x1a8]\n 17772: u64 [s1 + 0x5f0] = a0\n 17776: a0 = u64 [s1 + 0x1b0]\n 17780: u64 [s1 + 0x5e8] = a0\n 17784: a0 = 0x20\n 17787: a1 = s1 + 0x5e0\n 17791: a2 = u64 [s1 + 0x1b8]\n 17795: u64 [s1 + 0x5e0] = a2\n 17799: ra = 188, jump @8\n      : @360 [@dyn 94] (gas: 3)\n 17805: a1 = 0x40\n 17808: a0 = 0\n 17810: ra = 190, jump @0\n      : @361 [@dyn 95] (gas: 28)\n 17816: a1 = sp + 0xffffffffffffffe0\n 17819: a1 = a1 & 0xffffffffffffffe0\n 17822: u64 [s1 + 0x1b8] = a1\n 17826: sp = a1\n 17828: i32 a0 = a0 + 0\n 17830: i32 a2 = a1 + 0\n 17832: a1 = 0x40\n 17835: ecalli 6 // 'hash_keccak_256'\n 17837: a3 = u64 [s1 + 0x1b8]\n 17841: a0 = u64 [a3 + 0x18]\n 17844: a1 = u64 [a3 + 0x10]\n 17847: a2 = u64 [a3 + 0x8]\n 17850: a3 = u64 [a3]\n 17852: a4 = reverse a0\n 17854: u64 [s1 + 0x1b8] = a4\n 17858: a0 = reverse a1\n 17860: u64 [s1 + 0x1b0] = a0\n 17864: a1 = reverse a2\n 17866: u64 [s1 + 0x1a8] = a1\n 17870: a2 = reverse a3\n 17872: u64 [s1 + 0x1a0] = a2\n 17876: u64 [s1 + 0x5b8] = a2\n 17880: u64 [s1 + 0x5b0] = a1\n 17884: u64 [s1 + 0x5a8] = a0\n 17888: a0 = s1 + 0x5c0\n 17892: a1 = s1 + 0x5a0\n 17896: u64 [s1 + 0x5a0] = a4\n 17900: ra = 192, jump @10\n      : @362 [@dyn 96] (gas: 21)\n 17906: a0 = u64 [s1 + 0x5c8]\n 17910: a1 = u64 [s1 + 0x5d0]\n 17914: a2 = u64 [s1 + 0x5c0]\n 17918: a3 = u64 [s1 + 0x5d8]\n 17922: a2 = a2 & 0xffffffffffffff00\n 17926: u64 [s1 + 0x578] = a3\n 17930: u64 [s1 + 0x570] = a1\n 17934: u64 [s1 + 0x568] = a0\n 17938: u64 [s1 + 0x560] = a2\n 17942: a0 = u64 [s1 + 0x1a0]\n 17946: u64 [s1 + 0x598] = a0\n 17950: a0 = u64 [s1 + 0x1a8]\n 17954: u64 [s1 + 0x590] = a0\n 17958: a0 = u64 [s1 + 0x1b0]\n 17962: u64 [s1 + 0x588] = a0\n 17966: a0 = s1 + 0x580\n 17970: a1 = s1 + 0x560\n 17974: a2 = u64 [s1 + 0x1b8]\n 17978: u64 [s1 + 0x580] = a2\n 17982: ra = 0xca\n 17986: jump @11\n      : @363 (gas: 1)\n 17989: jump @396 if a0 != 3566286761\n      : @364 (gas: 11)\n 17997: a0 = sp + 0xffffffffffffffe0\n 18000: a0 = a0 & 0xffffffffffffffe0\n 18003: u64 [s1 + 0x1b0] = a0\n 18007: sp = a0\n 18009: u64 [a0 + 24] = 0\n 18012: u64 [a0 + 16] = 0\n 18015: u64 [a0 + 8] = 0\n 18018: u64 [a0 + 0] = 0\n 18020: i32 a0 = a0 + 0\n 18022: ecalli 10 // 'value_transferred'\n 18024: fallthrough\n      : @365 (gas: 9)\n 18025: a3 = u64 [s1 + 0x1b0]\n 18029: a0 = u64 [a3 + 0x10]\n 18032: a1 = u64 [a3 + 0x18]\n 18035: a2 = u64 [a3 + 0x8]\n 18038: a3 = u64 [a3]\n 18040: a1 = a1 | a2\n 18043: a0 = a0 | a3\n 18046: a0 = a0 | a1\n 18049: jump @399 if a0 != 0\n      : @366 (gas: 3)\n 18053: a0 = u64 [s1 + 0x1b8]\n 18057: a0 = i32 [a0]\n 18059: jump @399 if a0 <=u 67\n      : @367 (gas: 3)\n 18064: a0 = s1 + 0x7ff\n 18068: a0 = a0 + 0x1c1\n 18072: ra = 194, jump @451\n      : @368 [@dyn 97] (gas: 25)\n 18078: a1 = s1 + 0x7ff\n 18082: a1 = a1 + 0x139\n 18086: a0 = u64 [a1 + 0x88]\n 18090: u64 [s1 + 0x198] = a0\n 18094: a0 = u64 [a1 + 0x90]\n 18098: u64 [s1 + 0x190] = a0\n 18102: a0 = u64 [a1 + 0x98]\n 18106: u64 [s1 + 0x188] = a0\n 18110: a0 = u64 [a1 + 0xa0]\n 18114: u64 [s1 + 0x180] = a0\n 18118: a0 = s1 + 0x1000\n 18122: i32 a0 = a0 + 0xfffffffffffffce0\n 18126: a1 = 0x24\n 18129: ecalli 1 // 'call_data_load'\n 18131: a1 = s1 + 0x7ff\n 18135: a1 = a1 + 0x139\n 18139: a0 = u64 [a1 + 0x3a8]\n 18143: u64 [s1 + 0x1b8] = a0\n 18147: a0 = u64 [a1 + 0x3b0]\n 18151: u64 [s1 + 0x1b0] = a0\n 18155: a0 = u64 [a1 + 0x3b8]\n 18159: u64 [s1 + 0x1a8] = a0\n 18163: a0 = u64 [a1 + 0x3c0]\n 18167: u64 [s1 + 0x1a0] = a0\n 18171: ra = 196, jump @515\n      : @369 [@dyn 98] (gas: 15)\n 18177: a0 = u64 [s1 + 0x1a0]\n 18181: a3 = s1 + 0x7ff\n 18185: a3 = a3 + 0x139\n 18189: u64 [a3 + 0x60] = a0\n 18192: a0 = u64 [s1 + 0x1a8]\n 18196: u64 [a3 + 0x58] = a0\n 18199: a0 = u64 [s1 + 0x1b0]\n 18203: u64 [a3 + 0x50] = a0\n 18206: a0 = s1 + 0x7ff\n 18210: a0 = a0 + 0x1a1\n 18214: a1 = s1 + 0x7ff\n 18218: a1 = a1 + 0x181\n 18222: a2 = u64 [s1 + 0x1b8]\n 18226: u64 [a3 + 0x48] = a2\n 18229: ra = 198, jump @511\n      : @370 [@dyn 99] (gas: 13)\n 18235: a4 = s1 + 0x7ff\n 18239: a4 = a4 + 0x139\n 18243: a1 = u64 [a4 + 0x68]\n 18246: a0 = u64 [a4 + 0x70]\n 18249: a2 = u64 [a4 + 0x78]\n 18252: a3 = u64 [a4 + 0x80]\n 18256: u64 [a4 + 0x40] = a3\n 18259: u64 [a4 + 0x38] = a2\n 18262: u64 [a4 + 0x30] = a0\n 18265: a0 = s1 + 0x7ff\n 18269: a0 = a0 + 0x161\n 18273: u64 [a4 + 0x28] = a1\n 18276: ra = 200, jump @529\n      : @371 [@dyn 100] (gas: 32)\n 18282: a0 = u64 [s1 + 0x180]\n 18286: a1 = s1 + 0x1000\n 18290: u64 [a1 + 0xfffffffffffff918] = a0\n 18294: a0 = u64 [s1 + 0x188]\n 18298: a1 = s1 + 0x1000\n 18302: u64 [a1 + 0xfffffffffffff910] = a0\n 18306: a0 = u64 [s1 + 0x190]\n 18310: a1 = s1 + 0x1000\n 18314: u64 [a1 + 0xfffffffffffff908] = a0\n 18318: a0 = u64 [s1 + 0x198]\n 18322: a1 = s1 + 0x1000\n 18326: u64 [a1 + 0xfffffffffffff900] = a0\n 18330: a0 = u64 [s1 + 0x1a0]\n 18334: a1 = s1 + 0x7ff\n 18338: a1 = a1 + 0x139\n 18342: u64 [a1] = a0\n 18344: a0 = u64 [s1 + 0x1a8]\n 18348: u64 [a1 + 0xfffffffffffffff8] = a0\n 18351: a0 = u64 [s1 + 0x1b0]\n 18355: a1 = s1 + 0x1000\n 18359: u64 [a1 + 0xfffffffffffff928] = a0\n 18363: a0 = s1 + 0x7ff\n 18367: a0 = a0 + 0x141\n 18371: a1 = s1 + 0x7ff\n 18375: a1 = a1 + 0x121\n 18379: a2 = s1 + 0x7ff\n 18383: a2 = a2 + 0x101\n 18387: a3 = u64 [s1 + 0x1b8]\n 18391: a4 = s1 + 0x1000\n 18395: u64 [a4 + 0xfffffffffffff920] = a3\n 18399: ra = 0xd4\n 18403: jump @543\n      : @372 (gas: 5)\n 18406: u64 [s1 + 424] = 0\n 18410: u64 [s1 + 416] = 0\n 18414: u64 [s1 + 408] = 0\n 18418: u64 [s1 + 400] = 0\n 18422: fallthrough\n      : @373 (gas: 248)\n 18423: t2 = u64 [s1 + 0x150]\n 18427: a0 = t2 >> 0x3f\n 18430: a1 = u64 [s1 + 0x118]\n 18434: a2 = a1 << 0x1\n 18437: a0 = a0 | a2\n 18440: u64 [s1 + 0x1b8] = a0\n 18444: a0 = a1 >> 0x3f\n 18447: a1 = u64 [s1 + 0x148]\n 18451: a2 = a1 << 0x1\n 18454: a0 = a0 | a2\n 18457: u64 [s1 + 0x1b0] = a0\n 18461: a0 = a1 >> 0x3f\n 18464: a2 = u64 [s1 + 0x120]\n 18468: a2 = a2 << 0x1\n 18471: ra = a2 | a0\n 18474: a0 = s1 + 0x1000\n 18478: u8 [a0 + 4294965343] = 0\n 18482: a0 = s1 + 0x1000\n 18486: u8 [a0 + 4294965342] = 0\n 18490: a0 = s1 + 0x1000\n 18494: u8 [a0 + 4294965341] = 0\n 18498: a0 = s1 + 0x1000\n 18502: u8 [a0 + 4294965340] = 0\n 18506: a0 = s1 + 0x1000\n 18510: u8 [a0 + 4294965339] = 0\n 18514: a0 = s1 + 0x1000\n 18518: u8 [a0 + 4294965338] = 0\n 18522: a0 = s1 + 0x1000\n 18526: u8 [a0 + 4294965337] = 0\n 18530: a0 = s1 + 0x1000\n 18534: u8 [a0 + 4294965336] = 0\n 18538: a0 = s1 + 0x1000\n 18542: u8 [a0 + 4294965335] = 0\n 18546: a0 = s1 + 0x1000\n 18550: u8 [a0 + 4294965334] = 0\n 18554: a0 = s1 + 0x1000\n 18558: u8 [a0 + 4294965333] = 0\n 18562: a0 = s1 + 0x1000\n 18566: u8 [a0 + 4294965332] = 0\n 18570: a0 = s1 + 0x1000\n 18574: u8 [a0 + 4294965331] = 0\n 18578: a0 = s1 + 0x1000\n 18582: u8 [a0 + 4294965330] = 0\n 18586: a0 = s1 + 0x1000\n 18590: u8 [a0 + 4294965329] = 0\n 18594: a0 = s1 + 0x1000\n 18598: u8 [a0 + 4294965328] = 0\n 18602: a0 = s1 + 0x1000\n 18606: u8 [a0 + 4294965327] = 0\n 18610: a0 = s1 + 0x1000\n 18614: u8 [a0 + 4294965326] = 0\n 18618: a0 = s1 + 0x1000\n 18622: u8 [a0 + 4294965325] = 0\n 18626: a0 = s1 + 0x1000\n 18630: u8 [a0 + 4294965324] = 0\n 18634: a0 = s1 + 0x1000\n 18638: u8 [a0 + 4294965323] = 0\n 18642: a0 = s1 + 0x1000\n 18646: u8 [a0 + 4294965322] = 0\n 18650: a0 = s1 + 0x1000\n 18654: u8 [a0 + 4294965321] = 0\n 18658: a0 = s1 + 0x1000\n 18662: u8 [a0 + 4294965320] = 0\n 18666: a0 = s1 + 0x1000\n 18670: u8 [a0 + 4294965319] = 0\n 18674: a0 = s1 + 0x1000\n 18678: u8 [a0 + 4294965318] = 0\n 18682: a0 = s1 + 0x1000\n 18686: u8 [a0 + 4294965317] = 0\n 18690: a0 = s1 + 0x1000\n 18694: u8 [a0 + 4294965316] = 0\n 18698: a0 = s1 + 0x1000\n 18702: u8 [a0 + 4294965315] = 0\n 18706: a0 = s1 + 0x1000\n 18710: u8 [a0 + 4294965314] = 0\n 18714: a0 = s1 + 0x1000\n 18718: u8 [a0 + 4294965313] = 0\n 18722: a0 = s1 + 0x1000\n 18726: u8 [a0 + 4294965312] = 0\n 18730: a0 = s1 + 0x1000\n 18734: u8 [a0 + 4294965311] = 0xff\n 18740: a0 = s1 + 0x1000\n 18744: u8 [a0 + 4294965310] = 0xff\n 18750: a0 = s1 + 0x1000\n 18754: u8 [a0 + 4294965309] = 0xff\n 18760: a0 = s1 + 0x1000\n 18764: u8 [a0 + 4294965307] = 0xff\n 18770: a1 = s1 + 0x1000\n 18774: u8 [a1 + 4294965304] = 0xffffffffffffffff\n 18779: a1 = s1 + 0x1000\n 18783: u8 [a1 + 4294965303] = 0xff\n 18789: a1 = s1 + 0x1000\n 18793: u8 [a1 + 4294965302] = 0xff\n 18799: a1 = s1 + 0x1000\n 18803: u8 [a1 + 4294965301] = 0xff\n 18809: a1 = s1 + 0x1000\n 18813: u8 [a1 + 4294965299] = 0xff\n 18819: a1 = s1 + 0x1000\n 18823: u8 [a1 + 4294965296] = 0xffffffffffffffff\n 18828: a1 = s1 + 0x1000\n 18832: u8 [a1 + 4294965295] = 0xff\n 18838: a1 = s1 + 0x1000\n 18842: u8 [a1 + 4294965294] = 0xff\n 18848: a1 = s1 + 0x1000\n 18852: u8 [a1 + 4294965293] = 0xff\n 18858: a1 = s1 + 0x1000\n 18862: u8 [a1 + 4294965291] = 0xff\n 18868: a1 = s1 + 0x1000\n 18872: u8 [a1 + 4294965288] = 0xffffffffffffffff\n 18877: a1 = s1 + 0x1000\n 18881: u8 [a1 + 4294965287] = 0xff\n 18887: a1 = s1 + 0x1000\n 18891: u8 [a1 + 4294965286] = 0xff\n 18897: a1 = s1 + 0x1000\n 18901: u8 [a1 + 4294965285] = 0xff\n 18907: a1 = s1 + 0x1000\n 18911: u8 [a1 + 4294965283] = 0xff\n 18917: a1 = s1 + 0x1000\n 18921: u8 [a1 + 4294965280] = 0xffffffffffffffff\n 18926: a3 = 0xffffffff\n 18936: a1 = s1 + 0x1000\n 18940: u8 [a1 + 0xfffffffffffff83c] = a3\n 18944: a1 = s1 + 0x1000\n 18948: u8 [a1 + 0xfffffffffffff834] = a3\n 18952: a1 = s1 + 0x1000\n 18956: u8 [a1 + 0xfffffffffffff82c] = a3\n 18960: a1 = s1 + 0x1000\n 18964: u8 [a1 + 0xfffffffffffff824] = a3\n 18968: a3 = 0xffffffffffff\n 18978: a1 = s1 + 0x1000\n 18982: u8 [a1 + 0xfffffffffffff83a] = a3\n 18986: a0 = 0xffffffffffffff\n 18996: a1 = s1 + 0x1000\n 19000: u8 [a1 + 0xfffffffffffff839] = a0\n 19004: a1 = s1 + 0x1000\n 19008: u8 [a1 + 0xfffffffffffff832] = a3\n 19012: a1 = s1 + 0x1000\n 19016: u8 [a1 + 0xfffffffffffff831] = a0\n 19020: a1 = s1 + 0x1000\n 19024: u8 [a1 + 0xfffffffffffff82a] = a3\n 19028: a1 = s1 + 0x1000\n 19032: u8 [a1 + 0xfffffffffffff829] = a0\n 19036: a1 = s1 + 0x1000\n 19040: u8 [a1 + 0xfffffffffffff822] = a3\n 19044: a1 = s1 + 0x1000\n 19048: u8 [a1 + 0xfffffffffffff821] = a0\n 19052: a4 = t2 & 0x1f\n 19055: a0 = s1 + 0x7ff\n 19059: a0 = a0 + 0x21\n 19062: a4 = a4 + a0\n 19065: a0 = u8 [a4 + 0x1]\n 19068: a3 = u8 [a4]\n 19070: a5 = u8 [a4 + 0x2]\n 19073: a1 = u8 [a4 + 0x3]\n 19076: a0 = a0 << 0x8\n 19079: a0 = a0 | a3\n 19082: a5 = a5 << 0x10\n 19085: a1 = a1 << 0x18\n 19088: a1 = a1 | a5\n 19091: a0 = a0 | a1\n 19094: a1 = u8 [a4 + 0x5]\n 19097: a3 = u8 [a4 + 0x4]\n 19100: a5 = u8 [a4 + 0x6]\n 19103: a2 = u8 [a4 + 0x7]\n 19106: a1 = a1 << 0x8\n 19109: a1 = a1 | a3\n 19112: a5 = a5 << 0x10\n 19115: a2 = a2 << 0x18\n 19118: a2 = a2 | a5\n 19121: a1 = a1 | a2\n 19124: a1 = a1 << 0x20\n 19127: a5 = a1 | a0\n 19130: a0 = u8 [a4 + 0x9]\n 19133: a1 = u8 [a4 + 0x8]\n 19136: a2 = u8 [a4 + 0xa]\n 19139: a3 = u8 [a4 + 0xb]\n 19142: a0 = a0 << 0x8\n 19145: a0 = a0 | a1\n 19148: a2 = a2 << 0x10\n 19151: a3 = a3 << 0x18\n 19154: a2 = a2 | a3\n 19157: t1 = a2 | a0\n 19160: a1 = u8 [a4 + 0xd]\n 19163: a2 = u8 [a4 + 0xc]\n 19166: a3 = u8 [a4 + 0xe]\n 19169: a0 = u8 [a4 + 0xf]\n 19172: a1 = a1 << 0x8\n 19175: a1 = a1 | a2\n 19178: a3 = a3 << 0x10\n 19181: a0 = a0 << 0x18\n 19184: a0 = a0 | a3\n 19187: a0 = a0 | a1\n 19190: a0 = a0 << 0x20\n 19193: a3 = a0 | t1\n 19196: t1 = u8 [a4 + 0x11]\n 19199: a1 = u8 [a4 + 0x10]\n 19202: a2 = u8 [a4 + 0x12]\n 19205: a0 = u8 [a4 + 0x13]\n 19208: t1 = t1 << 0x8\n 19211: a1 = t1 | a1\n 19214: a2 = a2 << 0x10\n 19217: a0 = a0 << 0x18\n 19220: a0 = a0 | a2\n 19223: t1 = a0 | a1\n 19226: a1 = u8 [a4 + 0x15]\n 19229: a2 = u8 [a4 + 0x14]\n 19232: a0 = u8 [a4 + 0x16]\n 19235: t0 = u8 [a4 + 0x17]\n 19238: a1 = a1 << 0x8\n 19241: a1 = a1 | a2\n 19244: a0 = a0 << 0x10\n 19247: t0 = t0 << 0x18\n 19250: a0 = t0 | a0\n 19253: a0 = a0 | a1\n 19256: a0 = a0 << 0x20\n 19259: t1 = a0 | t1\n 19262: t0 = u8 [a4 + 0x19]\n 19265: a1 = u8 [a4 + 0x18]\n 19268: a2 = u8 [a4 + 0x1a]\n 19271: a0 = u8 [a4 + 0x1b]\n 19274: t0 = t0 << 0x8\n 19277: a1 = t0 | a1\n 19280: a2 = a2 << 0x10\n 19283: a0 = a0 << 0x18\n 19286: a0 = a0 | a2\n 19289: t0 = a0 | a1\n 19292: a1 = u8 [a4 + 0x1d]\n 19295: a2 = u8 [a4 + 0x1c]\n 19298: a0 = u8 [a4 + 0x1e]\n 19301: a4 = u8 [a4 + 0x1f]\n 19304: a1 = a1 << 0x8\n 19307: a1 = a1 | a2\n 19310: a0 = a0 << 0x10\n 19313: a4 = a4 << 0x18\n 19316: a0 = a0 | a4\n 19319: a0 = a0 | a1\n 19322: a0 = a0 << 0x20\n 19325: a0 = a0 | t0\n 19328: a1 = u64 [s1 + 0x190]\n 19332: a0 = a1 & ~a0\n 19335: a1 = u64 [s1 + 0x198]\n 19339: a4 = a1 & ~t1\n 19342: a1 = u64 [s1 + 0x1a0]\n 19346: a3 = a1 & ~a3\n 19349: a1 = u64 [s1 + 0x1a8]\n 19353: a5 = a1 & ~a5\n 19356: a1 = t2 << 0x1\n 19359: fallthrough\n      : @374 (gas: 25)\n 19360: t1 = a0 | ra\n 19363: a2 = u64 [s1 + 0x1b0]\n 19367: a2 = a2 | a4\n 19370: a0 = u64 [s1 + 0x1b8]\n 19374: a3 = a3 | a0\n 19377: a1 = a1 | a5\n 19380: a0 = u64 [s1 + 0x128]\n 19384: t0 = reverse a0\n 19386: a0 = u64 [s1 + 0x130]\n 19390: a5 = reverse a0\n 19392: a0 = u64 [s1 + 0x138]\n 19396: a4 = reverse a0\n 19398: a0 = u64 [s1 + 0x140]\n 19402: a0 = reverse a0\n 19404: u64 [s1 + 0x760] = a1\n 19408: u64 [s1 + 0x798] = a0\n 19412: u64 [s1 + 0x768] = a3\n 19416: u64 [s1 + 0x790] = a4\n 19420: u64 [s1 + 0x770] = a2\n 19424: u64 [s1 + 0x788] = a5\n 19428: u64 [s1 + 0x778] = t1\n 19432: a0 = s1 + 0x780\n 19436: a1 = s1 + 0x760\n 19440: u64 [s1 + 0x780] = t0\n 19444: ra = 202, jump @11\n      : @375 [@dyn 101] (gas: 3)\n 19450: a0 = 0\n 19452: a1 = 0\n 19454: ra = 204, jump @0\n      : @376 [@dyn 102] (gas: 5)\n 19460: i32 a1 = a0 + 0\n 19462: a0 = 0\n 19464: a2 = 0\n 19466: ecalli 7 // 'seal_return'\n 19468: fallthrough\n      : @377 (gas: 1)\n 19469: jump @399 if a0 != 791671133\n      : @378 (gas: 11)\n 19477: a0 = sp + 0xffffffffffffffe0\n 19480: a0 = a0 & 0xffffffffffffffe0\n 19483: u64 [s1 + 0x1b0] = a0\n 19487: sp = a0\n 19489: u64 [a0 + 24] = 0\n 19492: u64 [a0 + 16] = 0\n 19495: u64 [a0 + 8] = 0\n 19498: u64 [a0 + 0] = 0\n 19500: i32 a0 = a0 + 0\n 19502: ecalli 10 // 'value_transferred'\n 19504: fallthrough\n      : @379 (gas: 9)\n 19505: a3 = u64 [s1 + 0x1b0]\n 19509: a0 = u64 [a3 + 0x10]\n 19512: a1 = u64 [a3 + 0x18]\n 19515: a2 = u64 [a3 + 0x8]\n 19518: a3 = u64 [a3]\n 19520: a1 = a1 | a2\n 19523: a0 = a0 | a3\n 19526: a0 = a0 | a1\n 19529: jump @399 if a0 != 0\n      : @380 (gas: 3)\n 19533: a0 = u64 [s1 + 0x1b8]\n 19537: a0 = i32 [a0]\n 19539: jump @399 if a0 <=u 67\n      : @381 (gas: 16)\n 19544: a0 = s1 + 0x1000\n 19548: i32 a0 = a0 + 0xfffffffffffffb20\n 19552: a1 = 0x4\n 19555: ecalli 1 // 'call_data_load'\n 19557: a0 = s1 + 0x7ff\n 19561: a0 = a0 + 0x139\n 19565: a1 = u64 [a0 + 0x1e8]\n 19569: u64 [s1 + 0x1b8] = a1\n 19573: a1 = u64 [a0 + 0x1f0]\n 19577: u64 [s1 + 0x1b0] = a1\n 19581: a1 = u64 [a0 + 0x1f8]\n 19585: u64 [s1 + 0x1a8] = a1\n 19589: a0 = u64 [a0 + 0x200]\n 19593: u64 [s1 + 0x1a0] = a0\n 19597: a0 = s1 + 0x2a0\n 19601: ra = 206, jump @446\n      : @382 [@dyn 103] (gas: 19)\n 19607: a0 = u64 [s1 + 0x2a0]\n 19611: u64 [s1 + 0x198] = a0\n 19615: a0 = u64 [s1 + 0x2a8]\n 19619: u64 [s1 + 0x190] = a0\n 19623: a0 = u64 [s1 + 0x2b0]\n 19627: u64 [s1 + 0x188] = a0\n 19631: a0 = u64 [s1 + 0x2b8]\n 19635: u64 [s1 + 0x180] = a0\n 19639: a0 = u64 [s1 + 0x1a0]\n 19643: u64 [s1 + 0x278] = a0\n 19647: a0 = u64 [s1 + 0x1a8]\n 19651: u64 [s1 + 0x270] = a0\n 19655: a0 = u64 [s1 + 0x1b0]\n 19659: u64 [s1 + 0x268] = a0\n 19663: a0 = s1 + 0x280\n 19667: a1 = s1 + 0x260\n 19671: a2 = u64 [s1 + 0x1b8]\n 19675: u64 [s1 + 0x260] = a2\n 19679: ra = 208, jump @511\n      : @383 [@dyn 104] (gas: 10)\n 19685: a1 = u64 [s1 + 0x280]\n 19689: a0 = u64 [s1 + 0x288]\n 19693: a2 = u64 [s1 + 0x290]\n 19697: a3 = u64 [s1 + 0x298]\n 19701: u64 [s1 + 0x258] = a3\n 19705: u64 [s1 + 0x250] = a2\n 19709: u64 [s1 + 0x248] = a0\n 19713: a0 = s1 + 0x240\n 19717: u64 [s1 + 0x240] = a1\n 19721: ra = 210, jump @529\n      : @384 [@dyn 105] (gas: 20)\n 19727: a0 = u64 [s1 + 0x180]\n 19731: u64 [s1 + 0x1f8] = a0\n 19735: a0 = u64 [s1 + 0x188]\n 19739: u64 [s1 + 0x1f0] = a0\n 19743: a0 = u64 [s1 + 0x190]\n 19747: u64 [s1 + 0x1e8] = a0\n 19751: a0 = u64 [s1 + 0x198]\n 19755: u64 [s1 + 0x1e0] = a0\n 19759: a0 = u64 [s1 + 0x1a0]\n 19763: u64 [s1 + 0x218] = a0\n 19767: a0 = u64 [s1 + 0x1a8]\n 19771: u64 [s1 + 0x210] = a0\n 19775: a0 = u64 [s1 + 0x1b0]\n 19779: u64 [s1 + 0x208] = a0\n 19783: a0 = s1 + 0x220\n 19787: a1 = s1 + 0x200\n 19791: a2 = s1 + 0x1e0\n 19795: a3 = u64 [s1 + 0x1b8]\n 19799: u64 [s1 + 0x200] = a3\n 19803: ra = 212, jump @543\n      : @385 [@dyn 106] (gas: 1)\n 19809: jump @375\n      : @386 (gas: 1)\n 19812: jump @399 if a0 != 1225193641\n      : @387 (gas: 11)\n 19820: a0 = sp + 0xffffffffffffffe0\n 19823: a0 = a0 & 0xffffffffffffffe0\n 19826: u64 [s1 + 0x1b0] = a0\n 19830: sp = a0\n 19832: u64 [a0 + 24] = 0\n 19835: u64 [a0 + 16] = 0\n 19838: u64 [a0 + 8] = 0\n 19841: u64 [a0 + 0] = 0\n 19843: i32 a0 = a0 + 0\n 19845: ecalli 10 // 'value_transferred'\n 19847: fallthrough\n      : @388 (gas: 9)\n 19848: a3 = u64 [s1 + 0x1b0]\n 19852: a0 = u64 [a3 + 0x10]\n 19855: a1 = u64 [a3 + 0x18]\n 19858: a2 = u64 [a3 + 0x8]\n 19861: a3 = u64 [a3]\n 19863: a1 = a1 | a2\n 19866: a0 = a0 | a3\n 19869: a0 = a0 | a1\n 19872: jump @399 if a0 != 0\n      : @389 (gas: 3)\n 19876: a0 = u64 [s1 + 0x1b8]\n 19880: a0 = i32 [a0]\n 19882: jump @399 if a0 <=u 67\n      : @390 (gas: 2)\n 19887: a0 = s1 + 0x420\n 19891: ra = 214, jump @451\n      : @391 [@dyn 107] (gas: 23)\n 19897: a0 = u64 [s1 + 0x420]\n 19901: u64 [s1 + 0x198] = a0\n 19905: a0 = u64 [s1 + 0x428]\n 19909: u64 [s1 + 0x190] = a0\n 19913: a0 = u64 [s1 + 0x430]\n 19917: u64 [s1 + 0x188] = a0\n 19921: a0 = u64 [s1 + 0x438]\n 19925: u64 [s1 + 0x180] = a0\n 19929: a0 = s1 + 0x1000\n 19933: i32 a0 = a0 + 0xfffffffffffffb80\n 19937: a1 = 0x24\n 19940: ecalli 1 // 'call_data_load'\n 19942: a0 = s1 + 0x7ff\n 19946: a0 = a0 + 0x139\n 19950: a1 = u64 [a0 + 0x248]\n 19954: u64 [s1 + 0x1b8] = a1\n 19958: a1 = u64 [a0 + 0x250]\n 19962: u64 [s1 + 0x1b0] = a1\n 19966: a1 = u64 [a0 + 0x258]\n 19970: u64 [s1 + 0x1a8] = a1\n 19974: a0 = u64 [a0 + 0x260]\n 19978: u64 [s1 + 0x1a0] = a0\n 19982: ra = 216, jump @515\n      : @392 [@dyn 108] (gas: 11)\n 19988: a0 = u64 [s1 + 0x1a0]\n 19992: u64 [s1 + 0x3f8] = a0\n 19996: a0 = u64 [s1 + 0x1a8]\n 20000: u64 [s1 + 0x3f0] = a0\n 20004: a0 = u64 [s1 + 0x1b0]\n 20008: u64 [s1 + 0x3e8] = a0\n 20012: a0 = s1 + 0x400\n 20016: a1 = s1 + 0x3e0\n 20020: a2 = u64 [s1 + 0x1b8]\n 20024: u64 [s1 + 0x3e0] = a2\n 20028: ra = 218, jump @511\n      : @393 [@dyn 109] (gas: 10)\n 20034: a1 = u64 [s1 + 0x400]\n 20038: a0 = u64 [s1 + 0x408]\n 20042: a2 = u64 [s1 + 0x410]\n 20046: a3 = u64 [s1 + 0x418]\n 20050: u64 [s1 + 0x3d8] = a3\n 20054: u64 [s1 + 0x3d0] = a2\n 20058: u64 [s1 + 0x3c8] = a0\n 20062: a0 = s1 + 0x3c0\n 20066: u64 [s1 + 0x3c0] = a1\n 20070: ra = 220, jump @529\n      : @394 [@dyn 110] (gas: 20)\n 20076: a0 = u64 [s1 + 0x180]\n 20080: u64 [s1 + 0x378] = a0\n 20084: a0 = u64 [s1 + 0x188]\n 20088: u64 [s1 + 0x370] = a0\n 20092: a0 = u64 [s1 + 0x190]\n 20096: u64 [s1 + 0x368] = a0\n 20100: a0 = u64 [s1 + 0x198]\n 20104: u64 [s1 + 0x360] = a0\n 20108: a0 = u64 [s1 + 0x1a0]\n 20112: u64 [s1 + 0x398] = a0\n 20116: a0 = u64 [s1 + 0x1a8]\n 20120: u64 [s1 + 0x390] = a0\n 20124: a0 = u64 [s1 + 0x1b0]\n 20128: u64 [s1 + 0x388] = a0\n 20132: a0 = s1 + 0x3a0\n 20136: a1 = s1 + 0x380\n 20140: a2 = s1 + 0x360\n 20144: a3 = u64 [s1 + 0x1b8]\n 20148: u64 [s1 + 0x380] = a3\n 20152: ra = 222, jump @561\n      : @395 [@dyn 111] (gas: 1)\n 20158: jump @375\n      : @396 (gas: 1)\n 20161: jump @399 if a0 != 3578229791\n      : @397 (gas: 11)\n 20168: a0 = sp + 0xffffffffffffffe0\n 20171: a0 = a0 & 0xffffffffffffffe0\n 20174: u64 [s1 + 0x1b0] = a0\n 20178: sp = a0\n 20180: u64 [a0 + 24] = 0\n 20183: u64 [a0 + 16] = 0\n 20186: u64 [a0 + 8] = 0\n 20189: u64 [a0 + 0] = 0\n 20191: i32 a0 = a0 + 0\n 20193: ecalli 10 // 'value_transferred'\n 20195: fallthrough\n      : @398 (gas: 9)\n 20196: a3 = u64 [s1 + 0x1b0]\n 20200: a0 = u64 [a3 + 0x10]\n 20203: a1 = u64 [a3 + 0x18]\n 20206: a2 = u64 [a3 + 0x8]\n 20209: a3 = u64 [a3]\n 20211: a1 = a1 | a2\n 20214: a0 = a0 | a3\n 20217: a0 = a0 | a1\n 20220: jump @402 if a0 == 0\n      : @399 (gas: 4)\n 20223: a0 = 0\n 20225: a1 = 0\n 20227: ra = 0xe0\n 20231: jump @0\n      : @400 (gas: 2)\n 20234: a1 = 0\n 20236: ra = 224, jump @0\n      : @401 [@dyn 112] (gas: 5)\n 20242: i32 a1 = a0 + 0\n 20244: a0 = 0x1\n 20247: a2 = 0\n 20249: ecalli 7 // 'seal_return'\n 20251: fallthrough\n      : @402 (gas: 3)\n 20252: a0 = u64 [s1 + 0x1b8]\n 20256: a0 = i32 [a0]\n 20258: jump @399 if a0 <=u 67\n      : @403 (gas: 17)\n 20262: a0 = s1 + 0x1000\n 20266: i32 a0 = a0 + 0xfffffffffffffd00\n 20270: a1 = 0x4\n 20273: ecalli 1 // 'call_data_load'\n 20275: a1 = s1 + 0x7ff\n 20279: a1 = a1 + 0x139\n 20283: a0 = u64 [a1 + 0x3c8]\n 20287: u64 [s1 + 0x1b8] = a0\n 20291: a0 = u64 [a1 + 0x3d0]\n 20295: u64 [s1 + 0x1b0] = a0\n 20299: a0 = u64 [a1 + 0x3d8]\n 20303: u64 [s1 + 0x1a8] = a0\n 20307: a0 = u64 [a1 + 0x3e0]\n 20311: u64 [s1 + 0x1a0] = a0\n 20315: a0 = s1 + 0x7ff\n 20319: a0 = a0 + 0x2a1\n 20323: ra = 226, jump @446\n      : @404 [@dyn 113] (gas: 24)\n 20329: a1 = s1 + 0x7ff\n 20333: a1 = a1 + 0x139\n 20337: a0 = u64 [a1 + 0x168]\n 20341: u64 [s1 + 0x198] = a0\n 20345: a0 = u64 [a1 + 0x170]\n 20349: u64 [s1 + 0x190] = a0\n 20353: a0 = u64 [a1 + 0x178]\n 20357: u64 [s1 + 0x188] = a0\n 20361: a0 = u64 [a1 + 0x180]\n 20365: u64 [s1 + 0x180] = a0\n 20369: a0 = u64 [s1 + 0x1a0]\n 20373: u64 [a1 + 0x140] = a0\n 20377: a0 = u64 [s1 + 0x1a8]\n 20381: u64 [a1 + 0x138] = a0\n 20385: a0 = u64 [s1 + 0x1b0]\n 20389: u64 [a1 + 0x130] = a0\n 20393: a3 = a1\n 20395: a0 = s1 + 0x7ff\n 20399: a0 = a0 + 0x281\n 20403: a1 = s1 + 0x7ff\n 20407: a1 = a1 + 0x261\n 20411: a2 = u64 [s1 + 0x1b8]\n 20415: u64 [a3 + 0x128] = a2\n 20419: ra = 228, jump @511\n      : @405 [@dyn 114] (gas: 13)\n 20425: a4 = s1 + 0x7ff\n 20429: a4 = a4 + 0x139\n 20433: a1 = u64 [a4 + 0x148]\n 20437: a0 = u64 [a4 + 0x150]\n 20441: a2 = u64 [a4 + 0x158]\n 20445: a3 = u64 [a4 + 0x160]\n 20449: u64 [a4 + 0x120] = a3\n 20453: u64 [a4 + 0x118] = a2\n 20457: u64 [a4 + 0x110] = a0\n 20461: a0 = s1 + 0x7ff\n 20465: a0 = a0 + 0x241\n 20469: u64 [a4 + 0x108] = a1\n 20473: ra = 230, jump @529\n      : @406 [@dyn 115] (gas: 26)\n 20479: a0 = s1 + 0x7ff\n 20483: a0 = a0 + 0x139\n 20487: a1 = u64 [s1 + 0x180]\n 20491: u64 [a0 + 0xc0] = a1\n 20495: a1 = u64 [s1 + 0x188]\n 20499: u64 [a0 + 0xb8] = a1\n 20503: a1 = u64 [s1 + 0x190]\n 20507: u64 [a0 + 0xb0] = a1\n 20511: a1 = u64 [s1 + 0x198]\n 20515: u64 [a0 + 0xa8] = a1\n 20519: a1 = u64 [s1 + 0x1a0]\n 20523: u64 [a0 + 0xe0] = a1\n 20527: a1 = u64 [s1 + 0x1a8]\n 20531: u64 [a0 + 0xd8] = a1\n 20535: a1 = u64 [s1 + 0x1b0]\n 20539: u64 [a0 + 0xd0] = a1\n 20543: a3 = a0\n 20545: a0 = s1 + 0x7ff\n 20549: a0 = a0 + 0x221\n 20553: a1 = s1 + 0x7ff\n 20557: a1 = a1 + 0x201\n 20561: a2 = s1 + 0x7ff\n 20565: a2 = a2 + 0x1e1\n 20569: a4 = u64 [s1 + 0x1b8]\n 20573: u64 [a3 + 0xc8] = a4\n 20577: ra = 232, jump @561\n      : @407 [@dyn 116] (gas: 1)\n 20583: jump @375\n      : @408 (gas: 8)\n 20586: u64 [s1 + 816] = 0\n 20590: u64 [s1 + 808] = 0\n 20594: u64 [s1 + 800] = 0\n 20598: a0 = 0x6697b23200000000\n 20608: a1 = s1 + 0x320\n 20612: u64 [s1 + 0x338] = a0\n 20616: a0 = 0\n 20618: ra = 234, jump @8\n      : @409 [@dyn 117] (gas: 3)\n 20624: a1 = 0x4\n 20627: a0 = 0\n 20629: ra = 236, jump @0\n      : @410 [@dyn 118] (gas: 6)\n 20635: i32 a1 = a0 + 0\n 20637: a0 = 0x1\n 20640: a2 = 0x4\n 20643: ra = 0xee\n 20647: ecalli 7 // 'seal_return'\n 20649: fallthrough\n      : @411 [@dyn 119] (gas: 17)\n 20650: sp = sp + 0xfffffffffffffde0\n 20654: u64 [sp + 0x218] = ra\n 20658: u64 [sp + 0x210] = s0\n 20662: u64 [sp + 0x208] = s1\n 20666: s0 = sp + 0x220\n 20670: sp = sp & 0xffffffffffffffe0\n 20673: s1 = sp\n 20675: a2 = u64 [a1]\n 20677: u64 [s1 + 0xc8] = a2\n 20681: a2 = u64 [a1 + 0x8]\n 20684: u64 [s1 + 0xc0] = a2\n 20688: a1 = u32 [a1 + 0x10]\n 20691: u64 [s1 + 0xd0] = a1\n 20695: u64 [s1 + 0xd8] = a0\n 20699: a1 = 0x20\n 20702: a0 = 0\n 20704: ra = 240, jump @0\n      : @412 [@dyn 120] (gas: 35)\n 20710: u8 [a0 + 31] = 0\n 20713: u8 [a0 + 30] = 0\n 20716: u8 [a0 + 29] = 0\n 20719: u8 [a0 + 28] = 0\n 20722: u8 [a0 + 27] = 0\n 20725: u8 [a0 + 26] = 0\n 20728: u8 [a0 + 25] = 0\n 20731: u8 [a0 + 24] = 0\n 20734: u8 [a0 + 23] = 0\n 20737: u8 [a0 + 22] = 0\n 20740: u8 [a0 + 21] = 0\n 20743: u8 [a0 + 20] = 0\n 20746: u8 [a0 + 19] = 0\n 20749: u8 [a0 + 18] = 0\n 20752: u8 [a0 + 17] = 0\n 20755: u8 [a0 + 16] = 0\n 20758: u8 [a0 + 15] = 0\n 20761: u8 [a0 + 14] = 0\n 20764: u8 [a0 + 13] = 0\n 20767: u8 [a0 + 12] = 0\n 20770: u8 [a0 + 11] = 0\n 20773: u8 [a0 + 10] = 0\n 20776: u8 [a0 + 9] = 0\n 20779: u8 [a0 + 8] = 0\n 20782: u8 [a0 + 7] = 0\n 20785: u8 [a0 + 6] = 0\n 20788: u8 [a0 + 5] = 0\n 20791: u8 [a0 + 4] = 0\n 20794: u8 [a0 + 3] = 0\n 20797: u8 [a0 + 2] = 0\n 20800: u8 [a0 + 1] = 0\n 20803: u8 [a0 + 0] = 0\n 20805: a0 = 0x20\n 20808: a1 = 0x20\n 20811: ra = 242, jump @0\n      : @413 [@dyn 121] (gas: 35)\n 20817: u8 [a0 + 31] = 0\n 20820: u8 [a0 + 30] = 0\n 20823: u8 [a0 + 29] = 0\n 20826: u8 [a0 + 28] = 0\n 20829: u8 [a0 + 27] = 0\n 20832: u8 [a0 + 26] = 0\n 20835: u8 [a0 + 25] = 0\n 20838: u8 [a0 + 24] = 0\n 20841: u8 [a0 + 23] = 0\n 20844: u8 [a0 + 22] = 0\n 20847: u8 [a0 + 21] = 0\n 20850: u8 [a0 + 20] = 0\n 20853: u8 [a0 + 19] = 0\n 20856: u8 [a0 + 18] = 0\n 20859: u8 [a0 + 17] = 0\n 20862: u8 [a0 + 16] = 0\n 20865: u8 [a0 + 15] = 0\n 20868: u8 [a0 + 14] = 0\n 20871: u8 [a0 + 13] = 0\n 20874: u8 [a0 + 12] = 0\n 20877: u8 [a0 + 11] = 0\n 20880: u8 [a0 + 10] = 0\n 20883: u8 [a0 + 9] = 0\n 20886: u8 [a0 + 8] = 0\n 20889: u8 [a0 + 7] = 0\n 20892: u8 [a0 + 6] = 0\n 20895: u8 [a0 + 5] = 0\n 20898: u8 [a0 + 4] = 0\n 20901: u8 [a0 + 3] = 0\n 20904: u8 [a0 + 2] = 0\n 20907: u8 [a0 + 1] = 0\n 20910: u8 [a0 + 0] = 0\n 20912: a1 = 0x40\n 20915: a0 = 0\n 20917: ra = 244, jump @0\n      : @414 [@dyn 122] (gas: 15)\n 20923: i32 a0 = a0 + 0\n 20925: i32 a2 = s1 + 0x100\n 20929: a1 = 0x40\n 20932: ecalli 6 // 'hash_keccak_256'\n 20934: a0 = u64 [s1 + 0x100]\n 20938: u64 [s1 + 0xb8] = a0\n 20942: a0 = u64 [s1 + 0x108]\n 20946: u64 [s1 + 0xb0] = a0\n 20950: a0 = u64 [s1 + 0x110]\n 20954: u64 [s1 + 0xa8] = a0\n 20958: a0 = u64 [s1 + 0x118]\n 20962: u64 [s1 + 0xa0] = a0\n 20966: a1 = 0x20\n 20969: a0 = 0\n 20971: ra = 246, jump @0\n      : @415 [@dyn 123] (gas: 80)\n 20977: a1 = u64 [s1 + 0xd0]\n 20981: a1 = reverse a1\n 20983: a2 = u64 [s1 + 0xc0]\n 20987: a2 = reverse a2\n 20989: a3 = u64 [s1 + 0xc8]\n 20993: a3 = reverse a3\n 20995: a4 = a3 >> 0x38\n 20998: u64 [s1 + 0x98] = a4\n 21002: u8 [a0 + 0x1f] = a4\n 21005: a4 = a3 >> 0x30\n 21008: u64 [s1 + 0x90] = a4\n 21012: u8 [a0 + 0x1e] = a4\n 21015: a4 = a3 >> 0x28\n 21018: u64 [s1 + 0x88] = a4\n 21022: u8 [a0 + 0x1d] = a4\n 21025: a4 = a3 >> 0x20\n 21028: u64 [s1 + 0x80] = a4\n 21032: u8 [a0 + 0x1c] = a4\n 21035: a4 = a3 >> 0x18\n 21038: u64 [s1 + 0x78] = a4\n 21041: u8 [a0 + 0x1b] = a4\n 21044: a4 = a3 >> 0x10\n 21047: u64 [s1 + 0x70] = a4\n 21050: u8 [a0 + 0x1a] = a4\n 21053: a4 = a3 >> 0x8\n 21056: u64 [s1 + 0x68] = a4\n 21059: u8 [a0 + 0x19] = a4\n 21062: u64 [s1 + 0xc0] = a3\n 21066: u8 [a0 + 0x18] = a3\n 21069: a3 = a2 >> 0x38\n 21072: u64 [s1 + 0x60] = a3\n 21075: u8 [a0 + 0x17] = a3\n 21078: a3 = a2 >> 0x30\n 21081: u64 [s1 + 0x58] = a3\n 21084: u8 [a0 + 0x16] = a3\n 21087: a3 = a2 >> 0x28\n 21090: u64 [s1 + 0x50] = a3\n 21093: u8 [a0 + 0x15] = a3\n 21096: a3 = a2 >> 0x20\n 21099: u64 [s1 + 0x48] = a3\n 21102: u8 [a0 + 0x14] = a3\n 21105: a3 = a2 >> 0x18\n 21108: u64 [s1 + 0x40] = a3\n 21111: u8 [a0 + 0x13] = a3\n 21114: a3 = a2 >> 0x10\n 21117: u64 [s1 + 0x38] = a3\n 21120: u8 [a0 + 0x12] = a3\n 21123: a3 = a2 >> 0x8\n 21126: u64 [s1 + 0x30] = a3\n 21129: u8 [a0 + 0x11] = a3\n 21132: u64 [s1 + 0xc8] = a2\n 21136: u8 [a0 + 0x10] = a2\n 21139: a2 = a1 >> 0x38\n 21142: u64 [s1 + 0x28] = a2\n 21145: u8 [a0 + 0xf] = a2\n 21148: a2 = a1 >> 0x30\n 21151: u64 [s1 + 0x20] = a2\n 21154: u8 [a0 + 0xe] = a2\n 21157: a2 = a1 >> 0x28\n 21160: u64 [s1 + 0x18] = a2\n 21163: u8 [a0 + 0xd] = a2\n 21166: a2 = a1 >> 0x20\n 21169: u64 [s1 + 0x10] = a2\n 21172: u8 [a0 + 0xc] = a2\n 21175: u8 [a0 + 11] = 0\n 21178: u8 [a0 + 10] = 0\n 21181: u8 [a0 + 9] = 0\n 21184: u64 [s1 + 0xd0] = a1\n 21188: u8 [a0 + 0x8] = a1\n 21191: u8 [a0 + 7] = 0\n 21194: u8 [a0 + 6] = 0\n 21197: u8 [a0 + 5] = 0\n 21200: u8 [a0 + 4] = 0\n 21203: u8 [a0 + 3] = 0\n 21206: u8 [a0 + 2] = 0\n 21209: u8 [a0 + 1] = 0\n 21212: u8 [a0 + 0] = 0\n 21214: a0 = 0x20\n 21217: a1 = 0x20\n 21220: ra = 248, jump @0\n      : @416 [@dyn 124] (gas: 67)\n 21226: a2 = u64 [s1 + 0xa0]\n 21230: a1 = a2 >> 0x38\n 21233: u8 [a0 + 0x1f] = a1\n 21236: a1 = a2 >> 0x30\n 21239: u8 [a0 + 0x1e] = a1\n 21242: a1 = a2 >> 0x28\n 21245: u8 [a0 + 0x1d] = a1\n 21248: a1 = a2 >> 0x20\n 21251: u8 [a0 + 0x1c] = a1\n 21254: a1 = a2 >> 0x18\n 21257: u8 [a0 + 0x1b] = a1\n 21260: a1 = a2 >> 0x10\n 21263: u8 [a0 + 0x1a] = a1\n 21266: a1 = a2 >> 0x8\n 21269: u8 [a0 + 0x19] = a1\n 21272: u8 [a0 + 0x18] = a2\n 21275: a2 = u64 [s1 + 0xa8]\n 21279: a1 = a2 >> 0x38\n 21282: u8 [a0 + 0x17] = a1\n 21285: a1 = a2 >> 0x30\n 21288: u8 [a0 + 0x16] = a1\n 21291: a1 = a2 >> 0x28\n 21294: u8 [a0 + 0x15] = a1\n 21297: a1 = a2 >> 0x20\n 21300: u8 [a0 + 0x14] = a1\n 21303: a1 = a2 >> 0x18\n 21306: u8 [a0 + 0x13] = a1\n 21309: a1 = a2 >> 0x10\n 21312: u8 [a0 + 0x12] = a1\n 21315: a1 = a2 >> 0x8\n 21318: u8 [a0 + 0x11] = a1\n 21321: u8 [a0 + 0x10] = a2\n 21324: a2 = u64 [s1 + 0xb0]\n 21328: a1 = a2 >> 0x38\n 21331: u8 [a0 + 0xf] = a1\n 21334: a1 = a2 >> 0x30\n 21337: u8 [a0 + 0xe] = a1\n 21340: a1 = a2 >> 0x28\n 21343: u8 [a0 + 0xd] = a1\n 21346: a1 = a2 >> 0x20\n 21349: u8 [a0 + 0xc] = a1\n 21352: a1 = a2 >> 0x18\n 21355: u8 [a0 + 0xb] = a1\n 21358: a1 = a2 >> 0x10\n 21361: u8 [a0 + 0xa] = a1\n 21364: a1 = a2 >> 0x8\n 21367: u8 [a0 + 0x9] = a1\n 21370: u8 [a0 + 0x8] = a2\n 21373: a2 = u64 [s1 + 0xb8]\n 21377: a1 = a2 >> 0x38\n 21380: u8 [a0 + 0x7] = a1\n 21383: a1 = a2 >> 0x30\n 21386: u8 [a0 + 0x6] = a1\n 21389: a1 = a2 >> 0x28\n 21392: u8 [a0 + 0x5] = a1\n 21395: a1 = a2 >> 0x20\n 21398: u8 [a0 + 0x4] = a1\n 21401: a1 = a2 >> 0x18\n 21404: u8 [a0 + 0x3] = a1\n 21407: a1 = a2 >> 0x10\n 21410: u8 [a0 + 0x2] = a1\n 21413: a1 = a2 >> 0x8\n 21416: u8 [a0 + 0x1] = a1\n 21419: u8 [a0] = a2\n 21421: a1 = 0x40\n 21424: a0 = 0\n 21426: ra = 250, jump @0\n      : @417 [@dyn 125] (gas: 24)\n 21432: i32 a0 = a0 + 0\n 21434: i32 a2 = s1 + 0xe0\n 21438: a1 = 0x40\n 21441: ecalli 6 // 'hash_keccak_256'\n 21443: a0 = u64 [s1 + 0xf8]\n 21447: a1 = u64 [s1 + 0xf0]\n 21451: a2 = u64 [s1 + 0xe8]\n 21455: a3 = u64 [s1 + 0xe0]\n 21459: u64 [s1 + 0x178] = a0\n 21463: u64 [s1 + 0x170] = a1\n 21467: u64 [s1 + 0x168] = a2\n 21471: u64 [s1 + 0x160] = a3\n 21475: u64 [s1 + 408] = 0\n 21479: u64 [s1 + 400] = 0\n 21483: u64 [s1 + 392] = 0\n 21487: u64 [s1 + 384] = 0\n 21491: u32 [s1 + 320] = 0x20\n 21496: i32 a1 = s1 + 0x160\n 21500: i32 a3 = s1 + 0x180\n 21504: i32 a4 = s1 + 0x140\n 21508: a2 = 0xffffffffffffffff\n 21511: a0 = 0\n 21513: ecalli 5 // 'get_storage'\n 21515: fallthrough\n      : @418 (gas: 9)\n 21516: a0 = u64 [s1 + 0x198]\n 21520: a1 = u64 [s1 + 0x190]\n 21524: a3 = 0x100000000000000\n 21534: a2 = a0 ^ a3\n 21537: a1 = a1 | a2\n 21540: a0 = a0 >> 0x38\n 21543: a0 = a0 <u 0x1\n 21546: a0 = 0 if a1 == 0\n 21548: jump @427 if a0 == 0\n      : @419 (gas: 4)\n 21552: a1 = 0x20\n 21555: a0 = 0\n 21557: u64 [s1 + 0xb8] = a3\n 21561: ra = 252, jump @0\n      : @420 [@dyn 126] (gas: 35)\n 21567: u8 [a0 + 31] = 0\n 21570: u8 [a0 + 30] = 0\n 21573: u8 [a0 + 29] = 0\n 21576: u8 [a0 + 28] = 0\n 21579: u8 [a0 + 27] = 0\n 21582: u8 [a0 + 26] = 0\n 21585: u8 [a0 + 25] = 0\n 21588: u8 [a0 + 24] = 0\n 21591: u8 [a0 + 23] = 0\n 21594: u8 [a0 + 22] = 0\n 21597: u8 [a0 + 21] = 0\n 21600: u8 [a0 + 20] = 0\n 21603: u8 [a0 + 19] = 0\n 21606: u8 [a0 + 18] = 0\n 21609: u8 [a0 + 17] = 0\n 21612: u8 [a0 + 16] = 0\n 21615: u8 [a0 + 15] = 0\n 21618: u8 [a0 + 14] = 0\n 21621: u8 [a0 + 13] = 0\n 21624: u8 [a0 + 12] = 0\n 21627: u8 [a0 + 11] = 0\n 21630: u8 [a0 + 10] = 0\n 21633: u8 [a0 + 9] = 0\n 21636: u8 [a0 + 8] = 0\n 21639: u8 [a0 + 7] = 0\n 21642: u8 [a0 + 6] = 0\n 21645: u8 [a0 + 5] = 0\n 21648: u8 [a0 + 4] = 0\n 21651: u8 [a0 + 3] = 0\n 21654: u8 [a0 + 2] = 0\n 21657: u8 [a0 + 1] = 0\n 21660: u8 [a0 + 0] = 0\n 21662: a0 = 0x20\n 21665: a1 = 0x20\n 21668: ra = 254, jump @0\n      : @421 [@dyn 127] (gas: 35)\n 21674: u8 [a0 + 31] = 0\n 21677: u8 [a0 + 30] = 0\n 21680: u8 [a0 + 29] = 0\n 21683: u8 [a0 + 28] = 0\n 21686: u8 [a0 + 27] = 0\n 21689: u8 [a0 + 26] = 0\n 21692: u8 [a0 + 25] = 0\n 21695: u8 [a0 + 24] = 0\n 21698: u8 [a0 + 23] = 0\n 21701: u8 [a0 + 22] = 0\n 21704: u8 [a0 + 21] = 0\n 21707: u8 [a0 + 20] = 0\n 21710: u8 [a0 + 19] = 0\n 21713: u8 [a0 + 18] = 0\n 21716: u8 [a0 + 17] = 0\n 21719: u8 [a0 + 16] = 0\n 21722: u8 [a0 + 15] = 0\n 21725: u8 [a0 + 14] = 0\n 21728: u8 [a0 + 13] = 0\n 21731: u8 [a0 + 12] = 0\n 21734: u8 [a0 + 11] = 0\n 21737: u8 [a0 + 10] = 0\n 21740: u8 [a0 + 9] = 0\n 21743: u8 [a0 + 8] = 0\n 21746: u8 [a0 + 7] = 0\n 21749: u8 [a0 + 6] = 0\n 21752: u8 [a0 + 5] = 0\n 21755: u8 [a0 + 4] = 0\n 21758: u8 [a0 + 3] = 0\n 21761: u8 [a0 + 2] = 0\n 21764: u8 [a0 + 1] = 0\n 21767: u8 [a0 + 0] = 0\n 21769: a1 = 0x40\n 21772: a0 = 0\n 21774: ra = 256, jump @0\n      : @422 [@dyn 128] (gas: 20)\n 21780: a1 = sp + 0xffffffffffffffe0\n 21783: a1 = a1 & 0xffffffffffffffe0\n 21786: u64 [s1 + 0x8] = a1\n 21789: sp = a1\n 21791: i32 a0 = a0 + 0\n 21793: i32 a2 = a1 + 0\n 21795: a1 = 0x40\n 21798: ecalli 6 // 'hash_keccak_256'\n 21800: a1 = u64 [s1 + 0x8]\n 21803: a0 = u64 [a1]\n 21805: u64 [s1 + 0xb0] = a0\n 21809: a0 = u64 [a1 + 0x8]\n 21812: u64 [s1 + 0xa8] = a0\n 21816: a0 = u64 [a1 + 0x10]\n 21819: u64 [s1 + 0xa0] = a0\n 21823: a0 = u64 [a1 + 0x18]\n 21826: u64 [s1 + 0x8] = a0\n 21829: a1 = 0x20\n 21832: a0 = 0\n 21834: ra = 258, jump @0\n      : @423 [@dyn 129] (gas: 59)\n 21840: a1 = u64 [s1 + 0x98]\n 21844: u8 [a0 + 0x1f] = a1\n 21847: a1 = u64 [s1 + 0x90]\n 21851: u8 [a0 + 0x1e] = a1\n 21854: a1 = u64 [s1 + 0x88]\n 21858: u8 [a0 + 0x1d] = a1\n 21861: a1 = u64 [s1 + 0x80]\n 21865: u8 [a0 + 0x1c] = a1\n 21868: a1 = u64 [s1 + 0x78]\n 21871: u8 [a0 + 0x1b] = a1\n 21874: a1 = u64 [s1 + 0x70]\n 21877: u8 [a0 + 0x1a] = a1\n 21880: a1 = u64 [s1 + 0x68]\n 21883: u8 [a0 + 0x19] = a1\n 21886: a1 = u64 [s1 + 0x60]\n 21889: u8 [a0 + 0x17] = a1\n 21892: a1 = u64 [s1 + 0x58]\n 21895: u8 [a0 + 0x16] = a1\n 21898: a1 = u64 [s1 + 0x50]\n 21901: u8 [a0 + 0x15] = a1\n 21904: a1 = u64 [s1 + 0x48]\n 21907: u8 [a0 + 0x14] = a1\n 21910: a1 = u64 [s1 + 0x40]\n 21913: u8 [a0 + 0x13] = a1\n 21916: a1 = u64 [s1 + 0x38]\n 21919: u8 [a0 + 0x12] = a1\n 21922: a1 = u64 [s1 + 0x30]\n 21925: u8 [a0 + 0x11] = a1\n 21928: a1 = u64 [s1 + 0x28]\n 21931: u8 [a0 + 0xf] = a1\n 21934: a1 = u64 [s1 + 0x20]\n 21937: u8 [a0 + 0xe] = a1\n 21940: a1 = u64 [s1 + 0x18]\n 21943: u8 [a0 + 0xd] = a1\n 21946: a1 = u64 [s1 + 0x10]\n 21949: u8 [a0 + 0xc] = a1\n 21952: a2 = u64 [s1 + 0xd0]\n 21956: a1 = a2 >> 0x18\n 21959: u8 [a0 + 0xb] = a1\n 21962: a1 = a2 >> 0x10\n 21965: u8 [a0 + 0xa] = a1\n 21968: a1 = a2 >> 0x8\n 21971: u8 [a0 + 0x9] = a1\n 21974: a1 = u64 [s1 + 0xc0]\n 21978: u8 [a0 + 0x18] = a1\n 21981: a1 = u64 [s1 + 0xc8]\n 21985: u8 [a0 + 0x10] = a1\n 21988: u8 [a0 + 0x8] = a2\n 21991: u8 [a0 + 7] = 0\n 21994: u8 [a0 + 6] = 0\n 21997: u8 [a0 + 5] = 0\n 22000: u8 [a0 + 4] = 0\n 22003: u8 [a0 + 3] = 0\n 22006: u8 [a0 + 2] = 0\n 22009: u8 [a0 + 1] = 0\n 22012: u8 [a0 + 0] = 0\n 22014: a0 = 0x20\n 22017: a1 = 0x20\n 22020: ra = 260, jump @0\n      : @424 [@dyn 130] (gas: 67)\n 22026: a2 = u64 [s1 + 0x8]\n 22029: a1 = a2 >> 0x38\n 22032: u8 [a0 + 0x1f] = a1\n 22035: a1 = a2 >> 0x30\n 22038: u8 [a0 + 0x1e] = a1\n 22041: a1 = a2 >> 0x28\n 22044: u8 [a0 + 0x1d] = a1\n 22047: a1 = a2 >> 0x20\n 22050: u8 [a0 + 0x1c] = a1\n 22053: a1 = a2 >> 0x18\n 22056: u8 [a0 + 0x1b] = a1\n 22059: a1 = a2 >> 0x10\n 22062: u8 [a0 + 0x1a] = a1\n 22065: a1 = a2 >> 0x8\n 22068: u8 [a0 + 0x19] = a1\n 22071: u8 [a0 + 0x18] = a2\n 22074: a2 = u64 [s1 + 0xa0]\n 22078: a1 = a2 >> 0x38\n 22081: u8 [a0 + 0x17] = a1\n 22084: a1 = a2 >> 0x30\n 22087: u8 [a0 + 0x16] = a1\n 22090: a1 = a2 >> 0x28\n 22093: u8 [a0 + 0x15] = a1\n 22096: a1 = a2 >> 0x20\n 22099: u8 [a0 + 0x14] = a1\n 22102: a1 = a2 >> 0x18\n 22105: u8 [a0 + 0x13] = a1\n 22108: a1 = a2 >> 0x10\n 22111: u8 [a0 + 0x12] = a1\n 22114: a1 = a2 >> 0x8\n 22117: u8 [a0 + 0x11] = a1\n 22120: u8 [a0 + 0x10] = a2\n 22123: a2 = u64 [s1 + 0xa8]\n 22127: a1 = a2 >> 0x38\n 22130: u8 [a0 + 0xf] = a1\n 22133: a1 = a2 >> 0x30\n 22136: u8 [a0 + 0xe] = a1\n 22139: a1 = a2 >> 0x28\n 22142: u8 [a0 + 0xd] = a1\n 22145: a1 = a2 >> 0x20\n 22148: u8 [a0 + 0xc] = a1\n 22151: a1 = a2 >> 0x18\n 22154: u8 [a0 + 0xb] = a1\n 22157: a1 = a2 >> 0x10\n 22160: u8 [a0 + 0xa] = a1\n 22163: a1 = a2 >> 0x8\n 22166: u8 [a0 + 0x9] = a1\n 22169: u8 [a0 + 0x8] = a2\n 22172: a2 = u64 [s1 + 0xb0]\n 22176: a1 = a2 >> 0x38\n 22179: u8 [a0 + 0x7] = a1\n 22182: a1 = a2 >> 0x30\n 22185: u8 [a0 + 0x6] = a1\n 22188: a1 = a2 >> 0x28\n 22191: u8 [a0 + 0x5] = a1\n 22194: a1 = a2 >> 0x20\n 22197: u8 [a0 + 0x4] = a1\n 22200: a1 = a2 >> 0x18\n 22203: u8 [a0 + 0x3] = a1\n 22206: a1 = a2 >> 0x10\n 22209: u8 [a0 + 0x2] = a1\n 22212: a1 = a2 >> 0x8\n 22215: u8 [a0 + 0x1] = a1\n 22218: u8 [a0] = a2\n 22220: a1 = 0x40\n 22223: a0 = 0\n 22225: ra = 262, jump @0\n      : @425 [@dyn 131] (gas: 78)\n 22231: a1 = sp + 0xffffffffffffffe0\n 22234: a1 = a1 & 0xffffffffffffffe0\n 22237: u64 [s1 + 0xb0] = a1\n 22241: sp = a1\n 22243: i32 a0 = a0 + 0\n 22245: i32 a2 = a1 + 0\n 22247: a1 = 0x40\n 22250: ecalli 6 // 'hash_keccak_256'\n 22252: a0 = u64 [s1 + 0xb0]\n 22256: a3 = u64 [a0 + 0x18]\n 22259: u64 [s1 + 0x98] = a3\n 22263: a2 = u64 [a0 + 0x10]\n 22266: u64 [s1 + 0xa0] = a2\n 22270: a1 = u64 [a0 + 0x8]\n 22273: u64 [s1 + 0xa8] = a1\n 22277: a0 = u64 [a0]\n 22279: u64 [s1 + 0xb0] = a0\n 22283: u64 [s1 + 0x178] = a3\n 22287: u64 [s1 + 0x170] = a2\n 22291: u64 [s1 + 0x168] = a1\n 22295: u64 [s1 + 0x160] = a0\n 22299: u64 [s1 + 408] = 0\n 22303: u64 [s1 + 400] = 0\n 22307: u64 [s1 + 392] = 0\n 22311: u64 [s1 + 384] = 0\n 22315: u32 [s1 + 320] = 0x20\n 22320: i32 a1 = s1 + 0x160\n 22324: i32 a3 = s1 + 0x180\n 22328: i32 a4 = s1 + 0x140\n 22332: a2 = 0xffffffffffffffff\n 22335: a0 = 0\n 22337: ecalli 5 // 'get_storage'\n 22339: a0 = u64 [s1 + 0x198]\n 22343: a1 = u64 [s1 + 0x180]\n 22347: a2 = u64 [s1 + 0x188]\n 22351: a3 = u64 [s1 + 0x190]\n 22355: a0 = a0 << 0x8\n 22358: a0 = a0 >> 0x8\n 22361: a4 = u64 [s1 + 0xb8]\n 22365: a0 = a0 | a4\n 22368: a4 = u64 [s1 + 0x98]\n 22372: u64 [s1 + 0x178] = a4\n 22376: a4 = u64 [s1 + 0xa0]\n 22380: u64 [s1 + 0x170] = a4\n 22384: a4 = u64 [s1 + 0xa8]\n 22388: u64 [s1 + 0x168] = a4\n 22392: a4 = u64 [s1 + 0xb0]\n 22396: u64 [s1 + 0x160] = a4\n 22400: u64 [s1 + 0x198] = a0\n 22404: u64 [s1 + 0x190] = a3\n 22408: u64 [s1 + 0x188] = a2\n 22412: u64 [s1 + 0x180] = a1\n 22416: i32 a1 = s1 + 0x160\n 22420: i32 a3 = s1 + 0x180\n 22424: a2 = 0xffffffffffffffff\n 22427: a4 = 0x20\n 22430: a0 = 0\n 22432: ecalli 9 // 'set_storage'\n 22434: i32 a0 = s1 + 0x120\n 22438: ecalli 3 // 'caller'\n 22440: a0 = u64 [s1 + 0x128]\n 22444: a1 = i32 [s1 + 0x130]\n 22448: a3 = u64 [s1 + 0x120]\n 22452: u64 [s1 + 0xb0] = a3\n 22456: a0 = reverse a0\n 22458: a2 = a0 << 0x20\n 22461: a1 = reverse a1\n 22463: a1 = a1 >> 0x20\n 22466: a1 = a1 | a2\n 22469: u64 [s1 + 0xb8] = a1\n 22473: a0 = a0 >> 0x20\n 22476: a1 = reverse a3\n 22478: a1 = a1 << 0x20\n 22481: a0 = a0 | a1\n 22484: u64 [s1 + 0xa8] = a0\n 22488: a0 = 0\n 22490: a1 = 0\n 22492: ra = 264, jump @0\n      : @426 [@dyn 132] (gas: 37)\n 22498: a1 = u64 [0x20000]\n 22503: a2 = u64 [0x20008]\n 22508: a3 = u64 [0x20010]\n 22513: a4 = u64 [0x20018]\n 22518: u64 [s1 + 0x198] = a1\n 22522: u64 [s1 + 0x190] = a2\n 22526: u64 [s1 + 0x188] = a3\n 22530: u64 [s1 + 0x180] = a4\n 22534: u64 [s1 + 440] = 0\n 22538: u64 [s1 + 432] = 0\n 22542: u64 [s1 + 424] = 0\n 22546: u64 [s1 + 416] = 0\n 22550: a1 = u64 [s1 + 0xc0]\n 22554: u64 [s1 + 0x1d8] = a1\n 22558: a1 = u64 [s1 + 0xc8]\n 22562: u64 [s1 + 0x1d0] = a1\n 22566: a1 = u64 [s1 + 0xd0]\n 22570: u64 [s1 + 0x1c8] = a1\n 22574: u64 [s1 + 448] = 0\n 22578: a1 = u64 [s1 + 0xa8]\n 22582: a1 = reverse a1\n 22584: a2 = u64 [s1 + 0xb8]\n 22588: a2 = reverse a2\n 22590: a3 = u64 [s1 + 0xb0]\n 22594: a3 = a3 << 0x20\n 22597: u64 [s1 + 0x1e8] = a3\n 22601: u64 [s1 + 480] = 0\n 22605: u64 [s1 + 0x1f8] = a2\n 22609: u64 [s1 + 0x1f0] = a1\n 22613: i32 a2 = a0 + 0\n 22615: i32 a0 = s1 + 0x180\n 22619: a1 = 0x4\n 22622: a3 = 0\n 22624: ecalli 4 // 'deposit_event'\n 22626: a2 = 0x1\n 22629: a0 = 0\n 22631: jump @428\n      : @427 (gas: 2)\n 22633: a2 = 0\n 22635: fallthrough\n      : @428 (gas: 11)\n 22636: a1 = u64 [s1 + 0xd8]\n 22640: u64 [a1] = a2\n 22642: u64 [a1 + 0x8] = a0\n 22645: u64 [a1 + 0x10] = a0\n 22648: u64 [a1 + 0x18] = a0\n 22651: sp = s0 + 0xfffffffffffffde0\n 22655: ra = u64 [sp + 0x218]\n 22659: s0 = u64 [sp + 0x210]\n 22663: s1 = u64 [sp + 0x208]\n 22667: sp = sp + 0x220\n 22671: ret\n      : @429 [@dyn 133] (gas: 35)\n 22673: u8 [a0 + 31] = 0x75\n 22677: u8 [a0 + 30] = 0x17\n 22681: u8 [a0 + 29] = 0xc2\n 22686: u8 [a0 + 28] = 0x93\n 22691: u8 [a0 + 27] = 0x56\n 22695: u8 [a0 + 26] = 0x9\n 22699: u8 [a0 + 25] = 0x5b\n 22703: u8 [a0 + 24] = 0x82\n 22708: u8 [a0 + 23] = 0x87\n 22713: u8 [a0 + 22] = 0xe2\n 22718: u8 [a0 + 21] = 0xfb\n 22723: u8 [a0 + 20] = 0x1\n 22727: u8 [a0 + 19] = 0xa2\n 22732: u8 [a0 + 18] = 0xf4\n 22737: u8 [a0 + 17] = 0x3c\n 22741: u8 [a0 + 16] = 0x91\n 22746: u8 [a0 + 15] = 0xe8\n 22751: u8 [a0 + 14] = 0x56\n 22755: u8 [a0 + 13] = 0x8f\n 22760: u8 [a0 + 12] = 0xa1\n 22765: u8 [a0 + 11] = 0xa8\n 22770: u8 [a0 + 10] = 0xf5\n 22775: u8 [a0 + 9] = 0x2e\n 22779: u8 [a0 + 8] = 0x9\n 22783: u8 [a0 + 7] = 0x55\n 22787: u8 [a0 + 6] = 0xd3\n 22792: u8 [a0 + 5] = 0xe4\n 22797: u8 [a0 + 4] = 0x5c\n 22801: u8 [a0 + 3] = 0x20\n 22805: u8 [a0 + 2] = 0x7\n 22809: u8 [a0 + 1] = 0x98\n 22814: u8 [a0 + 0] = 0xa4\n 22818: a0 = 0x20\n 22821: a1 = 0x20\n 22824: ra = 268, jump @0\n      : @430 [@dyn 134] (gas: 35)\n 22830: u8 [a0 + 31] = 0\n 22833: u8 [a0 + 30] = 0\n 22836: u8 [a0 + 29] = 0\n 22839: u8 [a0 + 28] = 0\n 22842: u8 [a0 + 27] = 0\n 22845: u8 [a0 + 26] = 0\n 22848: u8 [a0 + 25] = 0\n 22851: u8 [a0 + 24] = 0\n 22854: u8 [a0 + 23] = 0\n 22857: u8 [a0 + 22] = 0\n 22860: u8 [a0 + 21] = 0\n 22863: u8 [a0 + 20] = 0\n 22866: u8 [a0 + 19] = 0\n 22869: u8 [a0 + 18] = 0\n 22872: u8 [a0 + 17] = 0\n 22875: u8 [a0 + 16] = 0\n 22878: u8 [a0 + 15] = 0\n 22881: u8 [a0 + 14] = 0\n 22884: u8 [a0 + 13] = 0\n 22887: u8 [a0 + 12] = 0\n 22890: u8 [a0 + 11] = 0\n 22893: u8 [a0 + 10] = 0\n 22896: u8 [a0 + 9] = 0\n 22899: u8 [a0 + 8] = 0\n 22902: u8 [a0 + 7] = 0\n 22905: u8 [a0 + 6] = 0\n 22908: u8 [a0 + 5] = 0\n 22911: u8 [a0 + 4] = 0\n 22914: u8 [a0 + 3] = 0\n 22917: u8 [a0 + 2] = 0\n 22920: u8 [a0 + 1] = 0\n 22923: u8 [a0 + 0] = 0\n 22925: a1 = 0x40\n 22928: a0 = 0\n 22930: ra = 270, jump @0\n      : @431 [@dyn 135] (gas: 15)\n 22936: i32 a0 = a0 + 0\n 22938: i32 a2 = s1 + 0x100\n 22942: a1 = 0x40\n 22945: ecalli 6 // 'hash_keccak_256'\n 22947: a0 = u64 [s1 + 0x100]\n 22951: u64 [s1 + 0xb8] = a0\n 22955: a0 = u64 [s1 + 0x108]\n 22959: u64 [s1 + 0xb0] = a0\n 22963: a0 = u64 [s1 + 0x110]\n 22967: u64 [s1 + 0xa8] = a0\n 22971: a0 = u64 [s1 + 0x118]\n 22975: u64 [s1 + 0xa0] = a0\n 22979: a1 = 0x20\n 22982: a0 = 0\n 22984: ra = 272, jump @0\n      : @432 [@dyn 136] (gas: 80)\n 22990: a1 = u64 [s1 + 0xd0]\n 22994: a1 = reverse a1\n 22996: a2 = u64 [s1 + 0xc0]\n 23000: a2 = reverse a2\n 23002: a3 = u64 [s1 + 0xc8]\n 23006: a3 = reverse a3\n 23008: a4 = a3 >> 0x38\n 23011: u64 [s1 + 0x98] = a4\n 23015: u8 [a0 + 0x1f] = a4\n 23018: a4 = a3 >> 0x30\n 23021: u64 [s1 + 0x90] = a4\n 23025: u8 [a0 + 0x1e] = a4\n 23028: a4 = a3 >> 0x28\n 23031: u64 [s1 + 0x88] = a4\n 23035: u8 [a0 + 0x1d] = a4\n 23038: a4 = a3 >> 0x20\n 23041: u64 [s1 + 0x80] = a4\n 23045: u8 [a0 + 0x1c] = a4\n 23048: a4 = a3 >> 0x18\n 23051: u64 [s1 + 0x78] = a4\n 23054: u8 [a0 + 0x1b] = a4\n 23057: a4 = a3 >> 0x10\n 23060: u64 [s1 + 0x70] = a4\n 23063: u8 [a0 + 0x1a] = a4\n 23066: a4 = a3 >> 0x8\n 23069: u64 [s1 + 0x68] = a4\n 23072: u8 [a0 + 0x19] = a4\n 23075: u64 [s1 + 0xc0] = a3\n 23079: u8 [a0 + 0x18] = a3\n 23082: a3 = a2 >> 0x38\n 23085: u64 [s1 + 0x60] = a3\n 23088: u8 [a0 + 0x17] = a3\n 23091: a3 = a2 >> 0x30\n 23094: u64 [s1 + 0x58] = a3\n 23097: u8 [a0 + 0x16] = a3\n 23100: a3 = a2 >> 0x28\n 23103: u64 [s1 + 0x50] = a3\n 23106: u8 [a0 + 0x15] = a3\n 23109: a3 = a2 >> 0x20\n 23112: u64 [s1 + 0x48] = a3\n 23115: u8 [a0 + 0x14] = a3\n 23118: a3 = a2 >> 0x18\n 23121: u64 [s1 + 0x40] = a3\n 23124: u8 [a0 + 0x13] = a3\n 23127: a3 = a2 >> 0x10\n 23130: u64 [s1 + 0x38] = a3\n 23133: u8 [a0 + 0x12] = a3\n 23136: a3 = a2 >> 0x8\n 23139: u64 [s1 + 0x30] = a3\n 23142: u8 [a0 + 0x11] = a3\n 23145: u64 [s1 + 0xc8] = a2\n 23149: u8 [a0 + 0x10] = a2\n 23152: a2 = a1 >> 0x38\n 23155: u64 [s1 + 0x28] = a2\n 23158: u8 [a0 + 0xf] = a2\n 23161: a2 = a1 >> 0x30\n 23164: u64 [s1 + 0x20] = a2\n 23167: u8 [a0 + 0xe] = a2\n 23170: a2 = a1 >> 0x28\n 23173: u64 [s1 + 0x18] = a2\n 23176: u8 [a0 + 0xd] = a2\n 23179: a2 = a1 >> 0x20\n 23182: u64 [s1 + 0x10] = a2\n 23185: u8 [a0 + 0xc] = a2\n 23188: u8 [a0 + 11] = 0\n 23191: u8 [a0 + 10] = 0\n 23194: u8 [a0 + 9] = 0\n 23197: u64 [s1 + 0xd0] = a1\n 23201: u8 [a0 + 0x8] = a1\n 23204: u8 [a0 + 7] = 0\n 23207: u8 [a0 + 6] = 0\n 23210: u8 [a0 + 5] = 0\n 23213: u8 [a0 + 4] = 0\n 23216: u8 [a0 + 3] = 0\n 23219: u8 [a0 + 2] = 0\n 23222: u8 [a0 + 1] = 0\n 23225: u8 [a0 + 0] = 0\n 23227: a0 = 0x20\n 23230: a1 = 0x20\n 23233: ra = 274, jump @0\n      : @433 [@dyn 137] (gas: 67)\n 23239: a2 = u64 [s1 + 0xa0]\n 23243: a1 = a2 >> 0x38\n 23246: u8 [a0 + 0x1f] = a1\n 23249: a1 = a2 >> 0x30\n 23252: u8 [a0 + 0x1e] = a1\n 23255: a1 = a2 >> 0x28\n 23258: u8 [a0 + 0x1d] = a1\n 23261: a1 = a2 >> 0x20\n 23264: u8 [a0 + 0x1c] = a1\n 23267: a1 = a2 >> 0x18\n 23270: u8 [a0 + 0x1b] = a1\n 23273: a1 = a2 >> 0x10\n 23276: u8 [a0 + 0x1a] = a1\n 23279: a1 = a2 >> 0x8\n 23282: u8 [a0 + 0x19] = a1\n 23285: u8 [a0 + 0x18] = a2\n 23288: a2 = u64 [s1 + 0xa8]\n 23292: a1 = a2 >> 0x38\n 23295: u8 [a0 + 0x17] = a1\n 23298: a1 = a2 >> 0x30\n 23301: u8 [a0 + 0x16] = a1\n 23304: a1 = a2 >> 0x28\n 23307: u8 [a0 + 0x15] = a1\n 23310: a1 = a2 >> 0x20\n 23313: u8 [a0 + 0x14] = a1\n 23316: a1 = a2 >> 0x18\n 23319: u8 [a0 + 0x13] = a1\n 23322: a1 = a2 >> 0x10\n 23325: u8 [a0 + 0x12] = a1\n 23328: a1 = a2 >> 0x8\n 23331: u8 [a0 + 0x11] = a1\n 23334: u8 [a0 + 0x10] = a2\n 23337: a2 = u64 [s1 + 0xb0]\n 23341: a1 = a2 >> 0x38\n 23344: u8 [a0 + 0xf] = a1\n 23347: a1 = a2 >> 0x30\n 23350: u8 [a0 + 0xe] = a1\n 23353: a1 = a2 >> 0x28\n 23356: u8 [a0 + 0xd] = a1\n 23359: a1 = a2 >> 0x20\n 23362: u8 [a0 + 0xc] = a1\n 23365: a1 = a2 >> 0x18\n 23368: u8 [a0 + 0xb] = a1\n 23371: a1 = a2 >> 0x10\n 23374: u8 [a0 + 0xa] = a1\n 23377: a1 = a2 >> 0x8\n 23380: u8 [a0 + 0x9] = a1\n 23383: u8 [a0 + 0x8] = a2\n 23386: a2 = u64 [s1 + 0xb8]\n 23390: a1 = a2 >> 0x38\n 23393: u8 [a0 + 0x7] = a1\n 23396: a1 = a2 >> 0x30\n 23399: u8 [a0 + 0x6] = a1\n 23402: a1 = a2 >> 0x28\n 23405: u8 [a0 + 0x5] = a1\n 23408: a1 = a2 >> 0x20\n 23411: u8 [a0 + 0x4] = a1\n 23414: a1 = a2 >> 0x18\n 23417: u8 [a0 + 0x3] = a1\n 23420: a1 = a2 >> 0x10\n 23423: u8 [a0 + 0x2] = a1\n 23426: a1 = a2 >> 0x8\n 23429: u8 [a0 + 0x1] = a1\n 23432: u8 [a0] = a2\n 23434: a1 = 0x40\n 23437: a0 = 0\n 23439: ra = 276, jump @0\n      : @434 [@dyn 138] (gas: 24)\n 23445: i32 a0 = a0 + 0\n 23447: i32 a2 = s1 + 0xe0\n 23451: a1 = 0x40\n 23454: ecalli 6 // 'hash_keccak_256'\n 23456: a0 = u64 [s1 + 0xf8]\n 23460: a1 = u64 [s1 + 0xf0]\n 23464: a2 = u64 [s1 + 0xe8]\n 23468: a3 = u64 [s1 + 0xe0]\n 23472: u64 [s1 + 0x178] = a0\n 23476: u64 [s1 + 0x170] = a1\n 23480: u64 [s1 + 0x168] = a2\n 23484: u64 [s1 + 0x160] = a3\n 23488: u64 [s1 + 408] = 0\n 23492: u64 [s1 + 400] = 0\n 23496: u64 [s1 + 392] = 0\n 23500: u64 [s1 + 384] = 0\n 23504: u32 [s1 + 320] = 0x20\n 23509: i32 a1 = s1 + 0x160\n 23513: i32 a3 = s1 + 0x180\n 23517: i32 a4 = s1 + 0x140\n 23521: a2 = 0xffffffffffffffff\n 23524: a0 = 0\n 23526: ecalli 5 // 'get_storage'\n 23528: fallthrough\n      : @435 (gas: 9)\n 23529: a0 = u64 [s1 + 0x198]\n 23533: a1 = u64 [s1 + 0x190]\n 23537: a3 = 0x100000000000000\n 23547: a2 = a0 ^ a3\n 23550: a1 = a1 | a2\n 23553: a0 = a0 >> 0x38\n 23556: a0 = a0 <u 0x1\n 23559: a0 = 0 if a1 == 0\n 23561: jump @444 if a0 == 0\n      : @436 (gas: 4)\n 23565: a1 = 0x20\n 23568: a0 = 0\n 23570: u64 [s1 + 0xb8] = a3\n 23574: ra = 278, jump @0\n      : @437 [@dyn 139] (gas: 35)\n 23580: u8 [a0 + 31] = 0x75\n 23584: u8 [a0 + 30] = 0x17\n 23588: u8 [a0 + 29] = 0xc2\n 23593: u8 [a0 + 28] = 0x93\n 23598: u8 [a0 + 25] = 0x5b\n 23602: u8 [a0 + 24] = 0x82\n 23607: u8 [a0 + 23] = 0x87\n 23612: u8 [a0 + 22] = 0xe2\n 23617: u8 [a0 + 21] = 0xfb\n 23622: u8 [a0 + 19] = 0xa2\n 23627: u8 [a0 + 18] = 0xf4\n 23632: u8 [a0 + 17] = 0x3c\n 23636: u8 [a0 + 16] = 0x91\n 23641: u8 [a0 + 15] = 0xe8\n 23646: u8 [a0 + 27] = 0x56\n 23650: u8 [a0 + 14] = 0x56\n 23654: u8 [a0 + 13] = 0x8f\n 23659: u8 [a0 + 12] = 0xa1\n 23664: u8 [a0 + 11] = 0xa8\n 23669: u8 [a0 + 10] = 0xf5\n 23674: u8 [a0 + 9] = 0x2e\n 23678: u8 [a0 + 26] = 0x9\n 23682: u8 [a0 + 8] = 0x9\n 23686: u8 [a0 + 7] = 0x55\n 23690: u8 [a0 + 6] = 0xd3\n 23695: u8 [a0 + 5] = 0xe4\n 23700: u8 [a0 + 4] = 0x5c\n 23704: u8 [a0 + 2] = 0x7\n 23708: u8 [a0 + 1] = 0x98\n 23713: u8 [a0 + 0] = 0xa4\n 23717: u8 [a0 + 20] = 0x1\n 23721: u8 [a0 + 3] = 0x20\n 23725: a0 = 0x20\n 23728: a1 = 0x20\n 23731: ra = 280, jump @0\n      : @438 [@dyn 140] (gas: 35)\n 23737: u8 [a0 + 31] = 0\n 23740: u8 [a0 + 30] = 0\n 23743: u8 [a0 + 29] = 0\n 23746: u8 [a0 + 28] = 0\n 23749: u8 [a0 + 27] = 0\n 23752: u8 [a0 + 26] = 0\n 23755: u8 [a0 + 25] = 0\n 23758: u8 [a0 + 24] = 0\n 23761: u8 [a0 + 23] = 0\n 23764: u8 [a0 + 22] = 0\n 23767: u8 [a0 + 21] = 0\n 23770: u8 [a0 + 20] = 0\n 23773: u8 [a0 + 19] = 0\n 23776: u8 [a0 + 18] = 0\n 23779: u8 [a0 + 17] = 0\n 23782: u8 [a0 + 16] = 0\n 23785: u8 [a0 + 15] = 0\n 23788: u8 [a0 + 14] = 0\n 23791: u8 [a0 + 13] = 0\n 23794: u8 [a0 + 12] = 0\n 23797: u8 [a0 + 11] = 0\n 23800: u8 [a0 + 10] = 0\n 23803: u8 [a0 + 9] = 0\n 23806: u8 [a0 + 8] = 0\n 23809: u8 [a0 + 7] = 0\n 23812: u8 [a0 + 6] = 0\n 23815: u8 [a0 + 5] = 0\n 23818: u8 [a0 + 4] = 0\n 23821: u8 [a0 + 3] = 0\n 23824: u8 [a0 + 2] = 0\n 23827: u8 [a0 + 1] = 0\n 23830: u8 [a0 + 0] = 0\n 23832: a1 = 0x40\n 23835: a0 = 0\n 23837: ra = 282, jump @0\n      : @439 [@dyn 141] (gas: 20)\n 23843: a1 = sp + 0xffffffffffffffe0\n 23846: a1 = a1 & 0xffffffffffffffe0\n 23849: u64 [s1 + 0x8] = a1\n 23852: sp = a1\n 23854: i32 a0 = a0 + 0\n 23856: i32 a2 = a1 + 0\n 23858: a1 = 0x40\n 23861: ecalli 6 // 'hash_keccak_256'\n 23863: a1 = u64 [s1 + 0x8]\n 23866: a0 = u64 [a1]\n 23868: u64 [s1 + 0xb0] = a0\n 23872: a0 = u64 [a1 + 0x8]\n 23875: u64 [s1 + 0xa8] = a0\n 23879: a0 = u64 [a1 + 0x10]\n 23882: u64 [s1 + 0xa0] = a0\n 23886: a0 = u64 [a1 + 0x18]\n 23889: u64 [s1 + 0x8] = a0\n 23892: a1 = 0x20\n 23895: a0 = 0\n 23897: ra = 284, jump @0\n      : @440 [@dyn 142] (gas: 59)\n 23903: a1 = u64 [s1 + 0x98]\n 23907: u8 [a0 + 0x1f] = a1\n 23910: a1 = u64 [s1 + 0x90]\n 23914: u8 [a0 + 0x1e] = a1\n 23917: a1 = u64 [s1 + 0x88]\n 23921: u8 [a0 + 0x1d] = a1\n 23924: a1 = u64 [s1 + 0x80]\n 23928: u8 [a0 + 0x1c] = a1\n 23931: a1 = u64 [s1 + 0x78]\n 23934: u8 [a0 + 0x1b] = a1\n 23937: a1 = u64 [s1 + 0x70]\n 23940: u8 [a0 + 0x1a] = a1\n 23943: a1 = u64 [s1 + 0x68]\n 23946: u8 [a0 + 0x19] = a1\n 23949: a1 = u64 [s1 + 0x60]\n 23952: u8 [a0 + 0x17] = a1\n 23955: a1 = u64 [s1 + 0x58]\n 23958: u8 [a0 + 0x16] = a1\n 23961: a1 = u64 [s1 + 0x50]\n 23964: u8 [a0 + 0x15] = a1\n 23967: a1 = u64 [s1 + 0x48]\n 23970: u8 [a0 + 0x14] = a1\n 23973: a1 = u64 [s1 + 0x40]\n 23976: u8 [a0 + 0x13] = a1\n 23979: a1 = u64 [s1 + 0x38]\n 23982: u8 [a0 + 0x12] = a1\n 23985: a1 = u64 [s1 + 0x30]\n 23988: u8 [a0 + 0x11] = a1\n 23991: a1 = u64 [s1 + 0x28]\n 23994: u8 [a0 + 0xf] = a1\n 23997: a1 = u64 [s1 + 0x20]\n 24000: u8 [a0 + 0xe] = a1\n 24003: a1 = u64 [s1 + 0x18]\n 24006: u8 [a0 + 0xd] = a1\n 24009: a1 = u64 [s1 + 0x10]\n 24012: u8 [a0 + 0xc] = a1\n 24015: a2 = u64 [s1 + 0xd0]\n 24019: a1 = a2 >> 0x18\n 24022: u8 [a0 + 0xb] = a1\n 24025: a1 = a2 >> 0x10\n 24028: u8 [a0 + 0xa] = a1\n 24031: a1 = a2 >> 0x8\n 24034: u8 [a0 + 0x9] = a1\n 24037: a1 = u64 [s1 + 0xc0]\n 24041: u8 [a0 + 0x18] = a1\n 24044: a1 = u64 [s1 + 0xc8]\n 24048: u8 [a0 + 0x10] = a1\n 24051: u8 [a0 + 0x8] = a2\n 24054: u8 [a0 + 7] = 0\n 24057: u8 [a0 + 6] = 0\n 24060: u8 [a0 + 5] = 0\n 24063: u8 [a0 + 4] = 0\n 24066: u8 [a0 + 3] = 0\n 24069: u8 [a0 + 2] = 0\n 24072: u8 [a0 + 1] = 0\n 24075: u8 [a0 + 0] = 0\n 24077: a0 = 0x20\n 24080: a1 = 0x20\n 24083: ra = 286, jump @0\n      : @441 [@dyn 143] (gas: 67)\n 24089: a2 = u64 [s1 + 0x8]\n 24092: a1 = a2 >> 0x38\n 24095: u8 [a0 + 0x1f] = a1\n 24098: a1 = a2 >> 0x30\n 24101: u8 [a0 + 0x1e] = a1\n 24104: a1 = a2 >> 0x28\n 24107: u8 [a0 + 0x1d] = a1\n 24110: a1 = a2 >> 0x20\n 24113: u8 [a0 + 0x1c] = a1\n 24116: a1 = a2 >> 0x18\n 24119: u8 [a0 + 0x1b] = a1\n 24122: a1 = a2 >> 0x10\n 24125: u8 [a0 + 0x1a] = a1\n 24128: a1 = a2 >> 0x8\n 24131: u8 [a0 + 0x19] = a1\n 24134: u8 [a0 + 0x18] = a2\n 24137: a2 = u64 [s1 + 0xa0]\n 24141: a1 = a2 >> 0x38\n 24144: u8 [a0 + 0x17] = a1\n 24147: a1 = a2 >> 0x30\n 24150: u8 [a0 + 0x16] = a1\n 24153: a1 = a2 >> 0x28\n 24156: u8 [a0 + 0x15] = a1\n 24159: a1 = a2 >> 0x20\n 24162: u8 [a0 + 0x14] = a1\n 24165: a1 = a2 >> 0x18\n 24168: u8 [a0 + 0x13] = a1\n 24171: a1 = a2 >> 0x10\n 24174: u8 [a0 + 0x12] = a1\n 24177: a1 = a2 >> 0x8\n 24180: u8 [a0 + 0x11] = a1\n 24183: u8 [a0 + 0x10] = a2\n 24186: a2 = u64 [s1 + 0xa8]\n 24190: a1 = a2 >> 0x38\n 24193: u8 [a0 + 0xf] = a1\n 24196: a1 = a2 >> 0x30\n 24199: u8 [a0 + 0xe] = a1\n 24202: a1 = a2 >> 0x28\n 24205: u8 [a0 + 0xd] = a1\n 24208: a1 = a2 >> 0x20\n 24211: u8 [a0 + 0xc] = a1\n 24214: a1 = a2 >> 0x18\n 24217: u8 [a0 + 0xb] = a1\n 24220: a1 = a2 >> 0x10\n 24223: u8 [a0 + 0xa] = a1\n 24226: a1 = a2 >> 0x8\n 24229: u8 [a0 + 0x9] = a1\n 24232: u8 [a0 + 0x8] = a2\n 24235: a2 = u64 [s1 + 0xb0]\n 24239: a1 = a2 >> 0x38\n 24242: u8 [a0 + 0x7] = a1\n 24245: a1 = a2 >> 0x30\n 24248: u8 [a0 + 0x6] = a1\n 24251: a1 = a2 >> 0x28\n 24254: u8 [a0 + 0x5] = a1\n 24257: a1 = a2 >> 0x20\n 24260: u8 [a0 + 0x4] = a1\n 24263: a1 = a2 >> 0x18\n 24266: u8 [a0 + 0x3] = a1\n 24269: a1 = a2 >> 0x10\n 24272: u8 [a0 + 0x2] = a1\n 24275: a1 = a2 >> 0x8\n 24278: u8 [a0 + 0x1] = a1\n 24281: u8 [a0] = a2\n 24283: a1 = 0x40\n 24286: a0 = 0\n 24288: ra = 288, jump @0\n      : @442 [@dyn 144] (gas: 78)\n 24294: a1 = sp + 0xffffffffffffffe0\n 24297: a1 = a1 & 0xffffffffffffffe0\n 24300: u64 [s1 + 0xb0] = a1\n 24304: sp = a1\n 24306: i32 a0 = a0 + 0\n 24308: i32 a2 = a1 + 0\n 24310: a1 = 0x40\n 24313: ecalli 6 // 'hash_keccak_256'\n 24315: a0 = u64 [s1 + 0xb0]\n 24319: a3 = u64 [a0 + 0x18]\n 24322: u64 [s1 + 0x98] = a3\n 24326: a2 = u64 [a0 + 0x10]\n 24329: u64 [s1 + 0xa0] = a2\n 24333: a1 = u64 [a0 + 0x8]\n 24336: u64 [s1 + 0xa8] = a1\n 24340: a0 = u64 [a0]\n 24342: u64 [s1 + 0xb0] = a0\n 24346: u64 [s1 + 0x178] = a3\n 24350: u64 [s1 + 0x170] = a2\n 24354: u64 [s1 + 0x168] = a1\n 24358: u64 [s1 + 0x160] = a0\n 24362: u64 [s1 + 408] = 0\n 24366: u64 [s1 + 400] = 0\n 24370: u64 [s1 + 392] = 0\n 24374: u64 [s1 + 384] = 0\n 24378: u32 [s1 + 320] = 0x20\n 24383: i32 a1 = s1 + 0x160\n 24387: i32 a3 = s1 + 0x180\n 24391: i32 a4 = s1 + 0x140\n 24395: a2 = 0xffffffffffffffff\n 24398: a0 = 0\n 24400: ecalli 5 // 'get_storage'\n 24402: a0 = u64 [s1 + 0x198]\n 24406: a1 = u64 [s1 + 0x180]\n 24410: a2 = u64 [s1 + 0x188]\n 24414: a3 = u64 [s1 + 0x190]\n 24418: a0 = a0 << 0x8\n 24421: a0 = a0 >> 0x8\n 24424: a4 = u64 [s1 + 0xb8]\n 24428: a0 = a0 | a4\n 24431: a4 = u64 [s1 + 0x98]\n 24435: u64 [s1 + 0x178] = a4\n 24439: a4 = u64 [s1 + 0xa0]\n 24443: u64 [s1 + 0x170] = a4\n 24447: a4 = u64 [s1 + 0xa8]\n 24451: u64 [s1 + 0x168] = a4\n 24455: a4 = u64 [s1 + 0xb0]\n 24459: u64 [s1 + 0x160] = a4\n 24463: u64 [s1 + 0x198] = a0\n 24467: u64 [s1 + 0x190] = a3\n 24471: u64 [s1 + 0x188] = a2\n 24475: u64 [s1 + 0x180] = a1\n 24479: i32 a1 = s1 + 0x160\n 24483: i32 a3 = s1 + 0x180\n 24487: a2 = 0xffffffffffffffff\n 24490: a4 = 0x20\n 24493: a0 = 0\n 24495: ecalli 9 // 'set_storage'\n 24497: i32 a0 = s1 + 0x120\n 24501: ecalli 3 // 'caller'\n 24503: a0 = u64 [s1 + 0x128]\n 24507: a1 = i32 [s1 + 0x130]\n 24511: a3 = u64 [s1 + 0x120]\n 24515: u64 [s1 + 0xb0] = a3\n 24519: a0 = reverse a0\n 24521: a2 = a0 << 0x20\n 24524: a1 = reverse a1\n 24526: a1 = a1 >> 0x20\n 24529: a1 = a1 | a2\n 24532: u64 [s1 + 0xb8] = a1\n 24536: a0 = a0 >> 0x20\n 24539: a1 = reverse a3\n 24541: a1 = a1 << 0x20\n 24544: a0 = a0 | a1\n 24547: u64 [s1 + 0xa8] = a0\n 24551: a0 = 0\n 24553: a1 = 0\n 24555: ra = 290, jump @0\n      : @443 [@dyn 145] (gas: 41)\n 24561: a1 = u64 [0x20020]\n 24566: a2 = u64 [0x20028]\n 24571: a3 = u64 [0x20030]\n 24576: a4 = u64 [0x20038]\n 24581: u64 [s1 + 0x198] = a1\n 24585: u64 [s1 + 0x190] = a2\n 24589: u64 [s1 + 0x188] = a3\n 24593: u64 [s1 + 0x180] = a4\n 24597: a1 = u64 [0x20040]\n 24602: a2 = u64 [0x20048]\n 24607: a3 = u64 [0x20050]\n 24612: a4 = u64 [0x20058]\n 24617: u64 [s1 + 0x1b8] = a1\n 24621: u64 [s1 + 0x1b0] = a2\n 24625: u64 [s1 + 0x1a8] = a3\n 24629: u64 [s1 + 0x1a0] = a4\n 24633: a1 = u64 [s1 + 0xc0]\n 24637: u64 [s1 + 0x1d8] = a1\n 24641: a1 = u64 [s1 + 0xc8]\n 24645: u64 [s1 + 0x1d0] = a1\n 24649: a1 = u64 [s1 + 0xd0]\n 24653: u64 [s1 + 0x1c8] = a1\n 24657: u64 [s1 + 448] = 0\n 24661: a1 = u64 [s1 + 0xa8]\n 24665: a1 = reverse a1\n 24667: a2 = u64 [s1 + 0xb8]\n 24671: a2 = reverse a2\n 24673: a3 = u64 [s1 + 0xb0]\n 24677: a3 = a3 << 0x20\n 24680: u64 [s1 + 0x1e8] = a3\n 24684: u64 [s1 + 480] = 0\n 24688: u64 [s1 + 0x1f8] = a2\n 24692: u64 [s1 + 0x1f0] = a1\n 24696: i32 a2 = a0 + 0\n 24698: i32 a0 = s1 + 0x180\n 24702: a1 = 0x4\n 24705: a3 = 0\n 24707: ecalli 4 // 'deposit_event'\n 24709: a2 = 0x1\n 24712: a0 = 0\n 24714: jump @445\n      : @444 (gas: 2)\n 24716: a2 = 0\n 24718: fallthrough\n      : @445 (gas: 11)\n 24719: a1 = u64 [s1 + 0xd8]\n 24723: u64 [a1] = a2\n 24725: u64 [a1 + 0x8] = a0\n 24728: u64 [a1 + 0x10] = a0\n 24731: u64 [a1 + 0x18] = a0\n 24734: sp = s0 + 0xfffffffffffffde0\n 24738: ra = u64 [sp + 0x218]\n 24742: s0 = u64 [sp + 0x210]\n 24746: s1 = u64 [sp + 0x208]\n 24750: sp = sp + 0x220\n 24754: ret\n      : @446 (gas: 11)\n 24756: sp = sp + 0xffffffffffffffc0\n 24759: u64 [sp + 0x38] = ra\n 24762: u64 [sp + 0x30] = s0\n 24765: u64 [sp + 0x28] = s1\n 24768: s0 = sp + 0x40\n 24771: sp = sp & 0xffffffffffffffe0\n 24774: s1 = a0\n 24776: i32 a0 = sp + 0\n 24778: a1 = 0x24\n 24781: ecalli 1 // 'call_data_load'\n 24783: fallthrough\n      : @447 (gas: 10)\n 24784: a0 = u64 [sp + 0x10]\n 24787: a1 = u64 [sp + 0x18]\n 24790: a2 = 0x100000000\n 24800: a2 = a2 ^ a0\n 24803: a2 = a2 | a1\n 24806: a3 = a0 >> 0x20\n 24809: a3 = a3 <u 0x1\n 24812: a3 = 0 if a1 != 0\n 24814: a3 = 0 if a2 == 0\n 24816: jump @449 if a3 == 0\n      : @448 (gas: 12)\n 24819: a2 = u64 [sp]\n 24821: a3 = u64 [sp + 0x8]\n 24824: u64 [s1] = a2\n 24826: u64 [s1 + 0x8] = a3\n 24829: u64 [s1 + 0x10] = a0\n 24832: u64 [s1 + 0x18] = a1\n 24835: sp = s0 + 0xffffffffffffffc0\n 24838: ra = u64 [sp + 0x38]\n 24841: s0 = u64 [sp + 0x30]\n 24844: s1 = u64 [sp + 0x28]\n 24847: sp = sp + 0x40\n 24850: ret\n      : @449 (gas: 3)\n 24852: a0 = 0\n 24854: a1 = 0\n 24856: ra = 292, jump @0\n      : @450 [@dyn 146] (gas: 6)\n 24862: i32 a1 = a0 + 0\n 24864: a0 = 0x1\n 24867: a2 = 0\n 24869: ra = 0x126\n 24873: ecalli 7 // 'seal_return'\n 24875: fallthrough\n      : @451 [@dyn 147] (gas: 11)\n 24876: sp = sp + 0xffffffffffffffc0\n 24879: u64 [sp + 0x38] = ra\n 24882: u64 [sp + 0x30] = s0\n 24885: u64 [sp + 0x28] = s1\n 24888: s0 = sp + 0x40\n 24891: sp = sp & 0xffffffffffffffe0\n 24894: s1 = a0\n 24896: i32 a0 = sp + 0\n 24898: a1 = 0x4\n 24901: ecalli 1 // 'call_data_load'\n 24903: fallthrough\n      : @452 (gas: 10)\n 24904: a0 = u64 [sp + 0x10]\n 24907: a1 = u64 [sp + 0x18]\n 24910: a2 = 0x100000000\n 24920: a2 = a2 ^ a0\n 24923: a2 = a2 | a1\n 24926: a3 = a0 >> 0x20\n 24929: a3 = a3 <u 0x1\n 24932: a3 = 0 if a1 != 0\n 24934: a3 = 0 if a2 == 0\n 24936: jump @454 if a3 == 0\n      : @453 (gas: 12)\n 24939: a2 = u64 [sp]\n 24941: a3 = u64 [sp + 0x8]\n 24944: u64 [s1] = a2\n 24946: u64 [s1 + 0x8] = a3\n 24949: u64 [s1 + 0x10] = a0\n 24952: u64 [s1 + 0x18] = a1\n 24955: sp = s0 + 0xffffffffffffffc0\n 24958: ra = u64 [sp + 0x38]\n 24961: s0 = u64 [sp + 0x30]\n 24964: s1 = u64 [sp + 0x28]\n 24967: sp = sp + 0x40\n 24970: ret\n      : @454 (gas: 3)\n 24972: a0 = 0\n 24974: a1 = 0\n 24976: ra = 296, jump @0\n      : @455 [@dyn 148] (gas: 6)\n 24982: i32 a1 = a0 + 0\n 24984: a0 = 0x1\n 24987: a2 = 0\n 24989: ra = 0x12a\n 24993: ecalli 7 // 'seal_return'\n 24995: fallthrough\n      : @456 [@dyn 149] (gas: 33)\n 24996: sp = sp + 0xffffffffffffffa0\n 24999: u64 [sp + 0x58] = ra\n 25002: u64 [sp + 0x50] = s0\n 25005: u64 [sp + 0x48] = s1\n 25008: s0 = sp + 0x60\n 25011: sp = sp & 0xfffffffffffffff0\n 25014: a2 = u64 [a1 + 0x10]\n 25017: a5 = u64 [a1 + 0x8]\n 25020: a4 = u64 [a1]\n 25022: a1 = u64 [a1 + 0x18]\n 25025: t0 = a2 << 0x3f\n 25028: a3 = a5 >> 0x1\n 25031: t0 = a3 | t0\n 25034: a3 = a1 << 0x3f\n 25037: a2 = a2 >> 0x1\n 25040: a3 = a3 | a2\n 25043: a5 = a5 << 0x3f\n 25046: a2 = a4 >> 0x1\n 25049: a5 = a5 | a2\n 25052: t1 = a1 >> 0x1\n 25055: a4 = a4 & 0x1\n 25058: a1 = -a4\n 25060: s1 = a4 <u 0x1\n 25063: a2 = a5 & 0x7f\n 25066: t2 = a1 & a3\n 25069: a3 = a1 & t0\n 25072: a2 = a5 if a4 != 0\n 25075: a4 = a1 & t1\n 25078: a1 = a2 <u 0x20\n 25081: a1 = 0 if a3 != 0\n 25083: a5 = t2 | a4\n 25086: a1 = 0 if a5 != 0\n 25088: jump @458 if s1 != a1\n      : @457 (gas: 10)\n 25091: u64 [a0] = a2\n 25093: u64 [a0 + 0x8] = a3\n 25096: u64 [a0 + 0x10] = t2\n 25099: u64 [a0 + 0x18] = a4\n 25102: sp = s0 + 0xffffffffffffffa0\n 25105: ra = u64 [sp + 0x58]\n 25108: s0 = u64 [sp + 0x50]\n 25111: s1 = u64 [sp + 0x48]\n 25114: sp = sp + 0x60\n 25117: ret\n      : @458 (gas: 8)\n 25119: u64 [sp + 48] = 0\n 25122: u64 [sp + 40] = 0\n 25125: u64 [sp + 32] = 0\n 25128: a0 = 0x4e487b7100000000\n 25138: a1 = sp + 0x20\n 25141: u64 [sp + 0x38] = a0\n 25144: a0 = 0\n 25146: ra = 300, jump @8\n      : @459 [@dyn 150] (gas: 7)\n 25152: u64 [sp + 24] = 0\n 25155: u64 [sp + 16] = 0\n 25158: u64 [sp + 0] = 0x22\n 25161: a0 = 0x4\n 25164: a1 = sp\n 25166: u64 [sp + 8] = 0\n 25169: ra = 302, jump @8\n      : @460 [@dyn 151] (gas: 3)\n 25175: a1 = 0x24\n 25178: a0 = 0\n 25180: ra = 304, jump @0\n      : @461 [@dyn 152] (gas: 6)\n 25186: i32 a1 = a0 + 0\n 25188: a0 = 0x1\n 25191: a2 = 0x24\n 25194: ra = 0x132\n 25198: ecalli 7 // 'seal_return'\n 25200: fallthrough\n      : @462 [@dyn 153] (gas: 19)\n 25201: sp = sp + 0xfffffffffffffda0\n 25205: u64 [sp + 0x258] = ra\n 25209: u64 [sp + 0x250] = s0\n 25213: u64 [sp + 0x248] = s1\n 25217: s0 = sp + 0x260\n 25221: sp = sp & 0xffffffffffffffe0\n 25224: s1 = sp\n 25226: a2 = u64 [a1]\n 25228: u64 [s1 + 0x118] = a2\n 25232: a2 = u64 [a1 + 0x8]\n 25235: u64 [s1 + 0x110] = a2\n 25239: a2 = u64 [a1 + 0x10]\n 25242: u64 [s1 + 0x108] = a2\n 25246: a1 = u64 [a1 + 0x18]\n 25249: u64 [s1 + 0x100] = a1\n 25253: u64 [s1 + 0x30] = a0\n 25256: a0 = 0x40\n 25259: a1 = 0x20\n 25262: ra = 308, jump @0\n      : @463 [@dyn 154] (gas: 92)\n 25268: a1 = u8 [a0 + 0x18]\n 25271: u64 [s1 + 0x80] = a1\n 25275: a1 = u8 [a0 + 0x19]\n 25278: u64 [s1 + 0x60] = a1\n 25281: a1 = u8 [a0 + 0x1a]\n 25284: u64 [s1 + 0x70] = a1\n 25287: a1 = u8 [a0 + 0x1b]\n 25290: u64 [s1 + 0x68] = a1\n 25293: a1 = u8 [a0 + 0x1c]\n 25296: u64 [s1 + 0x98] = a1\n 25300: a1 = u8 [a0 + 0x1d]\n 25303: u64 [s1 + 0x78] = a1\n 25306: a1 = u8 [a0 + 0x1e]\n 25309: u64 [s1 + 0x90] = a1\n 25313: a1 = u8 [a0 + 0x1f]\n 25316: u64 [s1 + 0x88] = a1\n 25320: a1 = u8 [a0 + 0x10]\n 25323: u64 [s1 + 0xc0] = a1\n 25327: a1 = u8 [a0 + 0x11]\n 25330: u64 [s1 + 0xa0] = a1\n 25334: a1 = u8 [a0 + 0x12]\n 25337: u64 [s1 + 0xb0] = a1\n 25341: a1 = u8 [a0 + 0x13]\n 25344: u64 [s1 + 0xa8] = a1\n 25348: a1 = u8 [a0 + 0x14]\n 25351: u64 [s1 + 0xd8] = a1\n 25355: a1 = u8 [a0 + 0x15]\n 25358: u64 [s1 + 0xb8] = a1\n 25362: a1 = u8 [a0 + 0x16]\n 25365: u64 [s1 + 0xd0] = a1\n 25369: a1 = u8 [a0 + 0x17]\n 25372: u64 [s1 + 0xc8] = a1\n 25376: a1 = u8 [a0 + 0x8]\n 25379: u64 [s1 + 0x120] = a1\n 25383: a1 = u8 [a0 + 0x9]\n 25386: u64 [s1 + 0xe0] = a1\n 25390: a1 = u8 [a0 + 0xa]\n 25393: u64 [s1 + 0xf0] = a1\n 25397: a1 = u8 [a0 + 0xb]\n 25400: u64 [s1 + 0xe8] = a1\n 25404: a1 = u8 [a0 + 0xc]\n 25407: u64 [s1 + 0x138] = a1\n 25411: a1 = u8 [a0 + 0xd]\n 25414: u64 [s1 + 0xf8] = a1\n 25418: a1 = u8 [a0 + 0xe]\n 25421: u64 [s1 + 0x130] = a1\n 25425: a1 = u8 [a0 + 0xf]\n 25428: u64 [s1 + 0x128] = a1\n 25432: a1 = u8 [a0]\n 25434: u64 [s1 + 0x160] = a1\n 25438: a1 = u8 [a0 + 0x1]\n 25441: u64 [s1 + 0x140] = a1\n 25445: a1 = u8 [a0 + 0x2]\n 25448: u64 [s1 + 0x150] = a1\n 25452: a1 = u8 [a0 + 0x3]\n 25455: u64 [s1 + 0x148] = a1\n 25459: a1 = u8 [a0 + 0x4]\n 25462: u64 [s1 + 0x178] = a1\n 25466: a1 = u8 [a0 + 0x5]\n 25469: u64 [s1 + 0x158] = a1\n 25473: a1 = u8 [a0 + 0x6]\n 25476: u64 [s1 + 0x170] = a1\n 25480: a0 = u8 [a0 + 0x7]\n 25483: u64 [s1 + 0x168] = a0\n 25487: u32 [s1 + 576] = 0x20\n 25492: a0 = u64 [s1 + 0x100]\n 25496: a3 = reverse a0\n 25498: a0 = u64 [s1 + 0x108]\n 25502: a2 = reverse a0\n 25504: a0 = u64 [s1 + 0x110]\n 25508: a1 = reverse a0\n 25510: a0 = u64 [s1 + 0x118]\n 25514: a0 = reverse a0\n 25516: u64 [s1 + 0x28] = a0\n 25519: u64 [s1 + 0x218] = a0\n 25523: u64 [s1 + 0x20] = a1\n 25526: u64 [s1 + 0x210] = a1\n 25530: u64 [s1 + 0x18] = a2\n 25533: u64 [s1 + 0x208] = a2\n 25537: u64 [s1 + 0x10] = a3\n 25540: u64 [s1 + 0x200] = a3\n 25544: u64 [s1 + 568] = 0\n 25548: u64 [s1 + 560] = 0\n 25552: u64 [s1 + 552] = 0\n 25556: u64 [s1 + 544] = 0\n 25560: i32 a1 = s1 + 0x200\n 25564: i32 a3 = s1 + 0x220\n 25568: i32 a4 = s1 + 0x240\n 25572: a2 = 0xffffffffffffffff\n 25575: a0 = 0\n 25577: ecalli 5 // 'get_storage'\n 25579: fallthrough\n      : @464 (gas: 36)\n 25580: a0 = u64 [s1 + 0x238]\n 25584: a1 = u64 [s1 + 0x220]\n 25588: a2 = u64 [s1 + 0x230]\n 25592: a3 = u64 [s1 + 0x228]\n 25596: a5 = reverse a0\n 25598: t0 = reverse a1\n 25600: t2 = reverse a2\n 25602: t1 = reverse a3\n 25604: a0 = t1 << 0x3f\n 25607: a1 = t2 >> 0x1\n 25610: a0 = a0 | a1\n 25613: a1 = t0 << 0x3f\n 25616: a2 = t1 >> 0x1\n 25619: a1 = a1 | a2\n 25622: a2 = t2 << 0x3f\n 25625: a3 = a5 >> 0x1\n 25628: a4 = a3 | a2\n 25631: a2 = t0 >> 0x1\n 25634: u64 [s1 + 0x38] = a5\n 25637: a5 = a5 & 0x1\n 25640: a3 = -a5\n 25642: ra = a3 & a1\n 25645: a1 = a3 & a0\n 25648: a2 = a2 & a3\n 25651: a3 = a4 & 0x7f\n 25654: a4 = a3 if a5 == 0\n 25657: u64 [s1 + 0x118] = a4\n 25661: a0 = a4 <u 0x20\n 25664: u64 [s1 + 0x108] = a1\n 25668: a0 = 0 if a1 != 0\n 25670: u64 [s1 + 0x110] = ra\n 25674: u64 [s1 + 0x100] = a2\n 25678: a1 = ra | a2\n 25681: a0 = 0 if a1 != 0\n 25683: a1 = a5 <u 0x1\n 25686: jump @488 if a1 != a0\n      : @465 (gas: 108)\n 25690: u64 [s1 + 0x58] = a5\n 25693: u64 [s1 + 0x8] = a3\n 25696: u64 [s1 + 0x40] = t2\n 25699: u64 [s1 + 0x48] = t1\n 25702: u64 [s1 + 0x50] = t0\n 25705: a0 = u64 [s1 + 0x60]\n 25708: a0 = a0 << 0x8\n 25711: a1 = u64 [s1 + 0x80]\n 25715: a0 = a0 | a1\n 25718: a1 = u64 [s1 + 0x70]\n 25721: a1 = a1 << 0x10\n 25724: a2 = u64 [s1 + 0x68]\n 25727: a2 = a2 << 0x18\n 25730: a1 = a1 | a2\n 25733: a0 = a0 | a1\n 25736: a1 = u64 [s1 + 0x78]\n 25739: a1 = a1 << 0x8\n 25742: a2 = u64 [s1 + 0x98]\n 25746: a1 = a1 | a2\n 25749: a2 = u64 [s1 + 0x90]\n 25753: a2 = a2 << 0x10\n 25756: a3 = u64 [s1 + 0x88]\n 25760: a3 = a3 << 0x18\n 25763: a2 = a2 | a3\n 25766: a1 = a1 | a2\n 25769: a1 = a1 << 0x20\n 25772: t0 = a1 | a0\n 25775: a1 = u64 [s1 + 0xa0]\n 25779: a1 = a1 << 0x8\n 25782: a0 = u64 [s1 + 0xc0]\n 25786: a1 = a1 | a0\n 25789: a2 = u64 [s1 + 0xb0]\n 25793: a2 = a2 << 0x10\n 25796: a3 = u64 [s1 + 0xa8]\n 25800: a3 = a3 << 0x18\n 25803: a2 = a2 | a3\n 25806: a1 = a1 | a2\n 25809: a2 = u64 [s1 + 0xb8]\n 25813: a2 = a2 << 0x8\n 25816: a0 = u64 [s1 + 0xd8]\n 25820: a2 = a2 | a0\n 25823: a3 = u64 [s1 + 0xd0]\n 25827: a3 = a3 << 0x10\n 25830: a4 = u64 [s1 + 0xc8]\n 25834: a4 = a4 << 0x18\n 25837: a3 = a3 | a4\n 25840: a2 = a2 | a3\n 25843: a2 = a2 << 0x20\n 25846: a1 = a1 | a2\n 25849: a2 = u64 [s1 + 0xe0]\n 25853: a2 = a2 << 0x8\n 25856: a0 = u64 [s1 + 0x120]\n 25860: a2 = a2 | a0\n 25863: a3 = u64 [s1 + 0xf0]\n 25867: a3 = a3 << 0x10\n 25870: a4 = u64 [s1 + 0xe8]\n 25874: a4 = a4 << 0x18\n 25877: a3 = a3 | a4\n 25880: a2 = a2 | a3\n 25883: a3 = u64 [s1 + 0xf8]\n 25887: a3 = a3 << 0x8\n 25890: a0 = u64 [s1 + 0x138]\n 25894: a3 = a3 | a0\n 25897: a4 = u64 [s1 + 0x130]\n 25901: a4 = a4 << 0x10\n 25904: a5 = u64 [s1 + 0x128]\n 25908: a5 = a5 << 0x18\n 25911: a4 = a4 | a5\n 25914: a3 = a3 | a4\n 25917: a3 = a3 << 0x20\n 25920: a2 = a2 | a3\n 25923: a3 = u64 [s1 + 0x140]\n 25927: a3 = a3 << 0x8\n 25930: a0 = u64 [s1 + 0x160]\n 25934: a3 = a3 | a0\n 25937: a4 = u64 [s1 + 0x150]\n 25941: a4 = a4 << 0x10\n 25944: a5 = u64 [s1 + 0x148]\n 25948: a5 = a5 << 0x18\n 25951: a4 = a4 | a5\n 25954: a3 = a3 | a4\n 25957: a4 = u64 [s1 + 0x158]\n 25961: a4 = a4 << 0x8\n 25964: a0 = u64 [s1 + 0x178]\n 25968: a4 = a4 | a0\n 25971: a5 = u64 [s1 + 0x170]\n 25975: a5 = a5 << 0x10\n 25978: a0 = u64 [s1 + 0x168]\n 25982: a0 = a0 << 0x18\n 25985: a0 = a0 | a5\n 25988: a0 = a0 | a4\n 25991: a0 = a0 << 0x20\n 25994: a0 = a0 | a3\n 25997: a3 = reverse a0\n 25999: a2 = reverse a2\n 26001: a1 = reverse a1\n 26003: a4 = reverse t0\n 26005: a0 = a4 | a2\n 26008: u64 [s1 + 0xd0] = a3\n 26012: u64 [s1 + 0xc8] = a1\n 26016: a1 = a1 | a3\n 26019: a0 = a0 | a1\n 26022: a0 = a0 >> 0x20\n 26025: u64 [s1 + 0xd8] = a2\n 26029: a1 = a1 | a2\n 26032: a1 = a1 << 0x20\n 26035: a0 = a0 | a1\n 26038: jump @485 if a0 != 0\n      : @466 (gas: 5)\n 26042: i32 a0 = a4 + 0\n 26044: a1 = 0x20\n 26047: u64 [s1 + 0x178] = a0\n 26051: u64 [s1 + 0xc0] = a4\n 26055: ra = 310, jump @0\n      : @467 [@dyn 155] (gas: 70)\n 26061: a1 = u64 [s1 + 0x118]\n 26065: a1 = reverse a1\n 26067: a2 = a1 >> 0x38\n 26070: u8 [a0 + 0x1f] = a2\n 26073: a2 = a1 >> 0x30\n 26076: u8 [a0 + 0x1e] = a2\n 26079: a2 = a1 >> 0x28\n 26082: u8 [a0 + 0x1d] = a2\n 26085: a2 = a1 >> 0x20\n 26088: u8 [a0 + 0x1c] = a2\n 26091: a2 = a1 >> 0x18\n 26094: u8 [a0 + 0x1b] = a2\n 26097: a2 = a1 >> 0x10\n 26100: u8 [a0 + 0x1a] = a2\n 26103: a2 = a1 >> 0x8\n 26106: u8 [a0 + 0x19] = a2\n 26109: a2 = u64 [s1 + 0x108]\n 26113: a2 = reverse a2\n 26115: u8 [a0 + 0x18] = a1\n 26118: a1 = a2 >> 0x38\n 26121: u8 [a0 + 0x17] = a1\n 26124: a1 = a2 >> 0x30\n 26127: u8 [a0 + 0x16] = a1\n 26130: a1 = a2 >> 0x28\n 26133: u8 [a0 + 0x15] = a1\n 26136: a1 = a2 >> 0x20\n 26139: u8 [a0 + 0x14] = a1\n 26142: a1 = a2 >> 0x18\n 26145: u8 [a0 + 0x13] = a1\n 26148: a1 = a2 >> 0x10\n 26151: u8 [a0 + 0x12] = a1\n 26154: a1 = u64 [s1 + 0x110]\n 26158: a1 = reverse a1\n 26160: u8 [a0 + 0x10] = a2\n 26163: a2 = a2 >> 0x8\n 26166: u8 [a0 + 0x11] = a2\n 26169: a2 = a1 >> 0x38\n 26172: u8 [a0 + 0xf] = a2\n 26175: a2 = a1 >> 0x30\n 26178: u8 [a0 + 0xe] = a2\n 26181: a2 = a1 >> 0x28\n 26184: u8 [a0 + 0xd] = a2\n 26187: a2 = a1 >> 0x20\n 26190: u8 [a0 + 0xc] = a2\n 26193: a2 = a1 >> 0x18\n 26196: u8 [a0 + 0xb] = a2\n 26199: a2 = a1 >> 0x10\n 26202: u8 [a0 + 0xa] = a2\n 26205: a2 = u64 [s1 + 0x100]\n 26209: a2 = reverse a2\n 26211: u8 [a0 + 0x8] = a1\n 26214: a1 = a1 >> 0x8\n 26217: u8 [a0 + 0x9] = a1\n 26220: a1 = a2 >> 0x38\n 26223: u8 [a0 + 0x7] = a1\n 26226: a1 = a2 >> 0x30\n 26229: u8 [a0 + 0x6] = a1\n 26232: a1 = a2 >> 0x28\n 26235: u8 [a0 + 0x5] = a1\n 26238: a1 = a2 >> 0x20\n 26241: u8 [a0 + 0x4] = a1\n 26244: a1 = a2 >> 0x18\n 26247: u8 [a0 + 0x3] = a1\n 26250: a1 = a2 >> 0x10\n 26253: u8 [a0 + 0x2] = a1\n 26256: u8 [a0] = a2\n 26258: a2 = a2 >> 0x8\n 26261: u8 [a0 + 0x1] = a2\n 26264: a0 = u64 [s1 + 0x58]\n 26267: jump @471 if a0 != 0\n      : @468 (gas: 10)\n 26271: a0 = u64 [s1 + 0xd8]\n 26275: a1 = u64 [s1 + 0xd0]\n 26279: a0 = a0 | a1\n 26282: a1 = 0xffffffe0\n 26292: a2 = u64 [s1 + 0xc0]\n 26296: a1 = a2 <u a1\n 26299: a2 = u64 [s1 + 0xc8]\n 26303: a1 = 0 if a2 != 0\n 26305: a1 = 0 if a0 != 0\n 26307: jump @485 if a1 == 0\n      : @469 (gas: 7)\n 26311: a0 = u64 [s1 + 0x38]\n 26314: a0 = a0 & 0xffffffffffffff00\n 26318: u64 [s1 + 0x170] = a0\n 26322: a0 = u64 [s1 + 0x178]\n 26326: i32 a0 = a0 + 0x20\n 26329: a1 = 0x20\n 26332: ra = 312, jump @0\n      : @470 [@dyn 156] (gas: 74)\n 26338: t0 = 0\n 26340: t1 = 0\n 26342: u64 [s1 + 376] = 0\n 26346: a1 = u64 [s1 + 0x170]\n 26350: a3 = reverse a1\n 26352: a4 = a3 >> 0x30\n 26355: u8 [a0 + 0x1e] = a4\n 26358: a4 = a3 >> 0x28\n 26361: u8 [a0 + 0x1d] = a4\n 26364: a4 = a3 >> 0x20\n 26367: u8 [a0 + 0x1c] = a4\n 26370: a4 = a3 >> 0x18\n 26373: u8 [a0 + 0x1b] = a4\n 26376: a4 = a3 >> 0x10\n 26379: u8 [a0 + 0x1a] = a4\n 26382: a1 = u64 [s1 + 0x40]\n 26385: a4 = reverse a1\n 26387: u8 [a0 + 0x18] = a3\n 26390: a3 = a3 >> 0x8\n 26393: u8 [a0 + 0x19] = a3\n 26396: a3 = a4 >> 0x38\n 26399: u8 [a0 + 0x17] = a3\n 26402: a3 = a4 >> 0x30\n 26405: u8 [a0 + 0x16] = a3\n 26408: a3 = a4 >> 0x28\n 26411: u8 [a0 + 0x15] = a3\n 26414: a3 = a4 >> 0x20\n 26417: u8 [a0 + 0x14] = a3\n 26420: a3 = a4 >> 0x18\n 26423: u8 [a0 + 0x13] = a3\n 26426: a3 = a4 >> 0x10\n 26429: u8 [a0 + 0x12] = a3\n 26432: a1 = u64 [s1 + 0x48]\n 26435: a3 = reverse a1\n 26437: u8 [a0 + 0x10] = a4\n 26440: a4 = a4 >> 0x8\n 26443: u8 [a0 + 0x11] = a4\n 26446: a4 = a3 >> 0x38\n 26449: u8 [a0 + 0xf] = a4\n 26452: a4 = a3 >> 0x30\n 26455: u8 [a0 + 0xe] = a4\n 26458: a4 = a3 >> 0x28\n 26461: u8 [a0 + 0xd] = a4\n 26464: a4 = a3 >> 0x20\n 26467: u8 [a0 + 0xc] = a4\n 26470: a4 = a3 >> 0x18\n 26473: u8 [a0 + 0xb] = a4\n 26476: a4 = a3 >> 0x10\n 26479: u8 [a0 + 0xa] = a4\n 26482: a1 = u64 [s1 + 0x50]\n 26485: a4 = reverse a1\n 26487: u8 [a0 + 31] = 0\n 26490: u8 [a0 + 0x8] = a3\n 26493: a3 = a3 >> 0x8\n 26496: u8 [a0 + 0x9] = a3\n 26499: u8 [a0] = a4\n 26501: a3 = a4 >> 0x38\n 26504: u8 [a0 + 0x7] = a3\n 26507: a3 = a4 >> 0x30\n 26510: u8 [a0 + 0x6] = a3\n 26513: a3 = a4 >> 0x28\n 26516: u8 [a0 + 0x5] = a3\n 26519: a3 = a4 >> 0x20\n 26522: u8 [a0 + 0x4] = a3\n 26525: a3 = a4 >> 0x18\n 26528: u8 [a0 + 0x3] = a3\n 26531: a3 = a4 >> 0x10\n 26534: u8 [a0 + 0x2] = a3\n 26537: a4 = a4 >> 0x8\n 26540: u8 [a0 + 0x1] = a4\n 26543: a0 = u64 [s1 + 0x8]\n 26546: a0 = a0 >u 0\n 26548: ra = a0 << 0x5\n 26551: jump @481\n      : @471 (gas: 3)\n 26554: a1 = 0x20\n 26557: a0 = 0\n 26559: ra = 314, jump @0\n      : @472 [@dyn 157] (gas: 67)\n 26565: a2 = u64 [s1 + 0x18]\n 26568: u8 [a0 + 0x8] = a2\n 26571: a3 = u64 [s1 + 0x10]\n 26574: a1 = a3 >> 0x38\n 26577: u8 [a0 + 0x7] = a1\n 26580: a1 = a3 >> 0x30\n 26583: u8 [a0 + 0x6] = a1\n 26586: a1 = a3 >> 0x28\n 26589: u8 [a0 + 0x5] = a1\n 26592: a1 = a3 >> 0x20\n 26595: u8 [a0 + 0x4] = a1\n 26598: a1 = a3 >> 0x18\n 26601: u8 [a0 + 0x3] = a1\n 26604: a1 = a3 >> 0x10\n 26607: u8 [a0 + 0x2] = a1\n 26610: a1 = a3 >> 0x8\n 26613: u8 [a0 + 0x1] = a1\n 26616: u8 [a0] = a3\n 26618: a3 = u64 [s1 + 0x20]\n 26621: u8 [a0 + 0x10] = a3\n 26624: a1 = a2 >> 0x38\n 26627: u8 [a0 + 0xf] = a1\n 26630: a1 = a2 >> 0x30\n 26633: u8 [a0 + 0xe] = a1\n 26636: a1 = a2 >> 0x28\n 26639: u8 [a0 + 0xd] = a1\n 26642: a1 = a2 >> 0x20\n 26645: u8 [a0 + 0xc] = a1\n 26648: a1 = a2 >> 0x18\n 26651: u8 [a0 + 0xb] = a1\n 26654: a1 = a2 >> 0x10\n 26657: u8 [a0 + 0xa] = a1\n 26660: a1 = a2 >> 0x8\n 26663: u8 [a0 + 0x9] = a1\n 26666: a2 = u64 [s1 + 0x28]\n 26669: u8 [a0 + 0x18] = a2\n 26672: a1 = a3 >> 0x38\n 26675: u8 [a0 + 0x17] = a1\n 26678: a1 = a3 >> 0x30\n 26681: u8 [a0 + 0x16] = a1\n 26684: a1 = a3 >> 0x28\n 26687: u8 [a0 + 0x15] = a1\n 26690: a1 = a3 >> 0x20\n 26693: u8 [a0 + 0x14] = a1\n 26696: a1 = a3 >> 0x18\n 26699: u8 [a0 + 0x13] = a1\n 26702: a1 = a3 >> 0x10\n 26705: u8 [a0 + 0x12] = a1\n 26708: a1 = a3 >> 0x8\n 26711: u8 [a0 + 0x11] = a1\n 26714: a1 = a2 >> 0x38\n 26717: u8 [a0 + 0x1f] = a1\n 26720: a1 = a2 >> 0x30\n 26723: u8 [a0 + 0x1e] = a1\n 26726: a1 = a2 >> 0x28\n 26729: u8 [a0 + 0x1d] = a1\n 26732: a1 = a2 >> 0x20\n 26735: u8 [a0 + 0x1c] = a1\n 26738: a1 = a2 >> 0x18\n 26741: u8 [a0 + 0x1b] = a1\n 26744: a1 = a2 >> 0x10\n 26747: u8 [a0 + 0x1a] = a1\n 26750: a1 = a2 >> 0x8\n 26753: u8 [a0 + 0x19] = a1\n 26756: a1 = 0x20\n 26759: a0 = 0\n 26761: ra = 316, jump @0\n      : @473 [@dyn 158] (gas: 9)\n 26767: a1 = sp + 0xffffffffffffffe0\n 26770: a1 = a1 & 0xffffffffffffffe0\n 26773: sp = a1\n 26775: i32 a0 = a0 + 0\n 26777: u64 [s1 + 0x158] = a1\n 26781: i32 a2 = a1 + 0\n 26783: a1 = 0x20\n 26786: ecalli 6 // 'hash_keccak_256'\n 26788: fallthrough\n      : @474 (gas: 9)\n 26789: a0 = u64 [s1 + 0x38]\n 26792: a0 = a0 <u 0x2\n 26795: a1 = u64 [s1 + 0x40]\n 26798: a0 = 0 if a1 != 0\n 26800: a1 = u64 [s1 + 0x50]\n 26803: a2 = u64 [s1 + 0x48]\n 26806: a1 = a1 | a2\n 26809: a0 = 0 if a1 != 0\n 26811: jump @476 if a0 == 0\n      : @475 (gas: 5)\n 26814: ra = 0\n 26816: t0 = 0\n 26818: t1 = 0\n 26820: u64 [s1 + 376] = 0\n 26824: jump @481\n      : @476 (gas: 30)\n 26827: u64 [s1 + 360] = 0\n 26831: u64 [s1 + 352] = 0\n 26835: u64 [s1 + 368] = 0\n 26839: u64 [s1 + 376] = 0\n 26843: a0 = u64 [s1 + 0x158]\n 26847: a4 = u64 [a0]\n 26849: a1 = u64 [s1 + 0xc0]\n 26853: a2 = a1 + 0x20\n 26856: u64 [s1 + 0xf8] = a2\n 26860: a1 = a2 <u a1\n 26863: a2 = u64 [s1 + 0xc8]\n 26867: a3 = a2 + a1\n 26870: u64 [s1 + 0xf0] = a3\n 26874: a3 = a3 <u a2\n 26877: a3 = a1 if a1 == 0\n 26880: a1 = u64 [a0 + 0x8]\n 26883: a2 = u64 [a0 + 0x10]\n 26886: a0 = u64 [a0 + 0x18]\n 26889: a5 = reverse a4\n 26891: a4 = reverse a1\n 26893: a2 = reverse a2\n 26895: t2 = reverse a0\n 26897: a0 = u64 [s1 + 0xd8]\n 26901: a3 = a3 + a0\n 26904: u64 [s1 + 0xe8] = a3\n 26908: a0 = a3 <u a0\n 26911: a1 = u64 [s1 + 0xd0]\n 26915: a0 = a0 + a1\n 26918: u64 [s1 + 0xe0] = a0\n 26922: fallthrough\n      : @477 (gas: 24)\n 26923: u64 [s1 + 0x158] = a5\n 26927: a0 = reverse a5\n 26929: u64 [s1 + 0x140] = a4\n 26933: a1 = reverse a4\n 26935: u64 [s1 + 0x150] = a2\n 26939: a2 = reverse a2\n 26941: u64 [s1 + 0x148] = t2\n 26945: a3 = reverse t2\n 26947: u64 [s1 + 0x218] = a3\n 26951: u64 [s1 + 0x210] = a2\n 26955: u64 [s1 + 0x208] = a1\n 26959: u64 [s1 + 0x200] = a0\n 26963: u64 [s1 + 568] = 0\n 26967: u64 [s1 + 560] = 0\n 26971: u64 [s1 + 552] = 0\n 26975: u64 [s1 + 544] = 0\n 26979: u32 [s1 + 576] = 0x20\n 26984: i32 a1 = s1 + 0x200\n 26988: i32 a3 = s1 + 0x220\n 26992: i32 a4 = s1 + 0x240\n 26996: a2 = 0xffffffffffffffff\n 26999: a0 = 0\n 27001: ecalli 5 // 'get_storage'\n 27003: fallthrough\n      : @478 (gas: 30)\n 27004: a1 = u64 [s1 + 0xf8]\n 27008: a0 = u64 [s1 + 0x168]\n 27012: a0 = a0 + a1\n 27015: a1 = a0 <u a1\n 27018: a4 = u64 [s1 + 0xf0]\n 27022: a2 = u64 [s1 + 0x160]\n 27026: a2 = a2 + a4\n 27029: a2 = a2 + a1\n 27032: a3 = a2 ^ a4\n 27035: a4 = a2 <u a4\n 27038: a4 = a1 if a3 == 0\n 27041: a3 = u64 [s1 + 0xe8]\n 27045: a1 = u64 [s1 + 0x170]\n 27049: a1 = a1 + a3\n 27052: t0 = a1 <u a3\n 27055: a5 = u64 [s1 + 0x178]\n 27059: a3 = u64 [s1 + 0xe0]\n 27063: a5 = a5 + a3\n 27066: a3 = a5 + t0\n 27069: a4 = a4 + a1\n 27072: a1 = a4 <u a1\n 27075: a1 = a1 + a3\n 27078: a1 = a1 | a2\n 27081: a2 = a0 | a4\n 27084: a2 = a2 | a1\n 27087: a1 = a1 | a4\n 27090: a2 = a2 >> 0x20\n 27093: a1 = a1 << 0x20\n 27096: a1 = a1 | a2\n 27099: jump @485 if a1 != 0\n      : @479 (gas: 11)\n 27103: a1 = u64 [s1 + 0x238]\n 27107: u64 [s1 + 0x138] = a1\n 27111: a1 = u64 [s1 + 0x230]\n 27115: u64 [s1 + 0x130] = a1\n 27119: a1 = u64 [s1 + 0x228]\n 27123: u64 [s1 + 0x120] = a1\n 27127: a1 = u64 [s1 + 0x220]\n 27131: u64 [s1 + 0x128] = a1\n 27135: i32 a0 = a0 + 0\n 27137: a1 = 0x20\n 27140: ra = 318, jump @0\n      : @480 [@dyn 159] (gas: 110)\n 27146: a2 = u64 [s1 + 0x120]\n 27150: a1 = a2 >> 0x38\n 27153: u8 [a0 + 0xf] = a1\n 27156: a1 = a2 >> 0x30\n 27159: u8 [a0 + 0xe] = a1\n 27162: a1 = a2 >> 0x28\n 27165: u8 [a0 + 0xd] = a1\n 27168: a1 = a2 >> 0x20\n 27171: u8 [a0 + 0xc] = a1\n 27174: a1 = a2 >> 0x18\n 27177: u8 [a0 + 0xb] = a1\n 27180: a1 = a2 >> 0x10\n 27183: u8 [a0 + 0xa] = a1\n 27186: a1 = a2 >> 0x8\n 27189: u8 [a0 + 0x9] = a1\n 27192: u8 [a0 + 0x8] = a2\n 27195: a2 = u64 [s1 + 0x128]\n 27199: a1 = a2 >> 0x38\n 27202: u8 [a0 + 0x7] = a1\n 27205: a1 = a2 >> 0x30\n 27208: u8 [a0 + 0x6] = a1\n 27211: a1 = a2 >> 0x28\n 27214: u8 [a0 + 0x5] = a1\n 27217: a1 = a2 >> 0x20\n 27220: u8 [a0 + 0x4] = a1\n 27223: a1 = a2 >> 0x18\n 27226: u8 [a0 + 0x3] = a1\n 27229: a1 = a2 >> 0x10\n 27232: u8 [a0 + 0x2] = a1\n 27235: a1 = a2 >> 0x8\n 27238: u8 [a0 + 0x1] = a1\n 27241: a3 = u64 [s1 + 0x130]\n 27245: u8 [a0 + 0x10] = a3\n 27248: u8 [a0] = a2\n 27250: a2 = u64 [s1 + 0x138]\n 27254: u8 [a0 + 0x18] = a2\n 27257: a1 = a3 >> 0x38\n 27260: u8 [a0 + 0x17] = a1\n 27263: a1 = a3 >> 0x30\n 27266: u8 [a0 + 0x16] = a1\n 27269: a1 = a3 >> 0x28\n 27272: u8 [a0 + 0x15] = a1\n 27275: a1 = a3 >> 0x20\n 27278: u8 [a0 + 0x14] = a1\n 27281: a1 = a3 >> 0x18\n 27284: u8 [a0 + 0x13] = a1\n 27287: a1 = a3 >> 0x10\n 27290: u8 [a0 + 0x12] = a1\n 27293: a1 = a3 >> 0x8\n 27296: u8 [a0 + 0x11] = a1\n 27299: a1 = a2 >> 0x38\n 27302: u8 [a0 + 0x1f] = a1\n 27305: a1 = a2 >> 0x30\n 27308: u8 [a0 + 0x1e] = a1\n 27311: a1 = a2 >> 0x28\n 27314: u8 [a0 + 0x1d] = a1\n 27317: a1 = a2 >> 0x20\n 27320: u8 [a0 + 0x1c] = a1\n 27323: a1 = a2 >> 0x18\n 27326: u8 [a0 + 0x1b] = a1\n 27329: a1 = a2 >> 0x10\n 27332: u8 [a0 + 0x1a] = a1\n 27335: a1 = a2 >> 0x8\n 27338: u8 [a0 + 0x19] = a1\n 27341: t2 = u64 [s1 + 0x148]\n 27345: t2 = t2 + 0x1\n 27348: a0 = t2 <u 0x1\n 27351: a2 = u64 [s1 + 0x150]\n 27355: a2 = a2 + a0\n 27358: a0 = u64 [s1 + 0x168]\n 27362: ra = a0 + 0x20\n 27365: a1 = ra <u a0\n 27368: a0 = u64 [s1 + 0x160]\n 27372: t0 = a0 + a1\n 27375: a3 = t0 <u a0\n 27378: a3 = a1 if a1 == 0\n 27381: a0 = u64 [s1 + 0x170]\n 27385: t1 = a0 + a3\n 27388: a3 = t1 <u a0\n 27391: a4 = u64 [s1 + 0x178]\n 27395: a4 = a4 + a3\n 27398: a0 = u64 [s1 + 0x110]\n 27402: a1 = t1 <u a0\n 27405: u64 [s1 + 0x170] = a1\n 27409: a1 = u64 [s1 + 0x118]\n 27413: a5 = ra <u a1\n 27416: a3 = u64 [s1 + 0x108]\n 27420: a1 = t0 ^ a3\n 27423: a3 = t0 <u a3\n 27426: a3 = a5 if a1 == 0\n 27429: a5 = u64 [s1 + 0x100]\n 27433: a1 = a4 ^ a5\n 27436: u64 [s1 + 0x178] = a4\n 27440: a5 = a4 <u a5\n 27443: a4 = u64 [s1 + 0x170]\n 27447: a5 = a4 if a1 == 0\n 27450: a4 = t1 ^ a0\n 27453: a1 = a1 | a4\n 27456: a4 = t2 | a2\n 27459: a4 = a4 <u 0x1\n 27462: a0 = u64 [s1 + 0x140]\n 27466: a4 = a4 + a0\n 27469: a0 = a4 <u a0\n 27472: a3 = a5 if a1 != 0\n 27475: a5 = u64 [s1 + 0x158]\n 27479: a5 = a5 + a0\n 27482: u64 [s1 + 0x168] = ra\n 27486: u64 [s1 + 0x160] = t0\n 27490: u64 [s1 + 0x170] = t1\n 27494: jump @477 if a3 != 0\n      : @481 (gas: 37)\n 27498: a3 = ra + 0x3f\n 27501: a0 = a3 <u ra\n 27504: a4 = t0 + a0\n 27507: a1 = a4 <u t0\n 27510: a1 = a0 if a0 == 0\n 27513: a1 = a1 + t1\n 27516: a0 = a1 <u t1\n 27519: a2 = u64 [s1 + 0x178]\n 27523: a0 = a0 + a2\n 27526: a3 = a3 & 0xffffffffffffffe0\n 27529: t1 = u64 [s1 + 0xc0]\n 27533: a2 = a3 + t1\n 27536: u64 [s1 + 0x170] = a2\n 27540: a2 = a2 <u a3\n 27543: t0 = u64 [s1 + 0xc8]\n 27547: a3 = a4 + t0\n 27550: a3 = a3 + a2\n 27553: a5 = a3 ^ a4\n 27556: a4 = a3 <u a4\n 27559: a4 = a2 if a5 == 0\n 27562: t2 = u64 [s1 + 0xd8]\n 27566: a2 = a1 + t2\n 27569: a4 = a4 + a2\n 27572: a5 = a4 <u a2\n 27575: a1 = a2 <u a1\n 27578: ra = u64 [s1 + 0xd0]\n 27582: a0 = a0 + ra\n 27585: a0 = a0 + a1\n 27588: a5 = a5 + a0\n 27591: a0 = a5 >u 0\n 27593: a1 = a4 >u 0\n 27595: a1 = a0 if a5 != 0\n 27598: a0 = a4 | a5\n 27601: u64 [s1 + 0x178] = a3\n 27605: a2 = a3 >u 0\n 27607: a2 = a1 if a0 != 0\n 27610: jump @486 if a2 != 0\n      : @482 (gas: 14)\n 27614: a0 = u64 [s1 + 0x170]\n 27618: a0 = a0 <u t1\n 27621: a2 = u64 [s1 + 0x178]\n 27625: a1 = a2 ^ t0\n 27628: a2 = a2 <u t0\n 27631: a2 = a0 if a1 == 0\n 27634: a0 = a4 <u t2\n 27637: a1 = a5 ^ ra\n 27640: a3 = a5 <u ra\n 27643: a3 = a0 if a1 == 0\n 27646: a0 = a4 ^ t2\n 27649: a0 = a0 | a1\n 27652: a3 = a2 if a0 == 0\n 27655: jump @486 if a3 != 0\n      : @483 (gas: 5)\n 27659: a0 = 0x40\n 27662: a1 = 0x20\n 27665: u64 [s1 + 0x168] = a5\n 27669: u64 [s1 + 0x160] = a4\n 27673: ra = 320, jump @0\n      : @484 [@dyn 160] (gas: 83)\n 27679: a1 = u64 [s1 + 0x170]\n 27683: a1 = reverse a1\n 27685: a2 = a1 >> 0x38\n 27688: u8 [a0 + 0x1f] = a2\n 27691: a2 = a1 >> 0x30\n 27694: u8 [a0 + 0x1e] = a2\n 27697: a2 = a1 >> 0x28\n 27700: u8 [a0 + 0x1d] = a2\n 27703: a2 = a1 >> 0x20\n 27706: u8 [a0 + 0x1c] = a2\n 27709: a2 = a1 >> 0x18\n 27712: u8 [a0 + 0x1b] = a2\n 27715: a2 = a1 >> 0x10\n 27718: u8 [a0 + 0x1a] = a2\n 27721: a2 = u64 [s1 + 0x178]\n 27725: a2 = reverse a2\n 27727: u8 [a0 + 0x18] = a1\n 27730: a1 = a1 >> 0x8\n 27733: u8 [a0 + 0x19] = a1\n 27736: a1 = a2 >> 0x38\n 27739: u8 [a0 + 0x17] = a1\n 27742: a1 = a2 >> 0x30\n 27745: u8 [a0 + 0x16] = a1\n 27748: a1 = a2 >> 0x28\n 27751: u8 [a0 + 0x15] = a1\n 27754: a1 = a2 >> 0x20\n 27757: u8 [a0 + 0x14] = a1\n 27760: a1 = a2 >> 0x18\n 27763: u8 [a0 + 0x13] = a1\n 27766: a1 = a2 >> 0x10\n 27769: u8 [a0 + 0x12] = a1\n 27772: a1 = u64 [s1 + 0x160]\n 27776: a1 = reverse a1\n 27778: u8 [a0 + 0x10] = a2\n 27781: a2 = a2 >> 0x8\n 27784: u8 [a0 + 0x11] = a2\n 27787: a2 = a1 >> 0x38\n 27790: u8 [a0 + 0xf] = a2\n 27793: a2 = a1 >> 0x30\n 27796: u8 [a0 + 0xe] = a2\n 27799: a2 = a1 >> 0x28\n 27802: u8 [a0 + 0xd] = a2\n 27805: a2 = a1 >> 0x20\n 27808: u8 [a0 + 0xc] = a2\n 27811: a2 = a1 >> 0x18\n 27814: u8 [a0 + 0xb] = a2\n 27817: a2 = a1 >> 0x10\n 27820: u8 [a0 + 0xa] = a2\n 27823: a2 = u64 [s1 + 0x168]\n 27827: a2 = reverse a2\n 27829: u8 [a0 + 0x8] = a1\n 27832: a1 = a1 >> 0x8\n 27835: u8 [a0 + 0x9] = a1\n 27838: a1 = a2 >> 0x38\n 27841: u8 [a0 + 0x7] = a1\n 27844: a1 = a2 >> 0x30\n 27847: u8 [a0 + 0x6] = a1\n 27850: a1 = a2 >> 0x28\n 27853: u8 [a0 + 0x5] = a1\n 27856: a1 = a2 >> 0x20\n 27859: u8 [a0 + 0x4] = a1\n 27862: a1 = a2 >> 0x18\n 27865: u8 [a0 + 0x3] = a1\n 27868: a1 = a2 >> 0x10\n 27871: u8 [a0 + 0x2] = a1\n 27874: u8 [a0] = a2\n 27876: a2 = a2 >> 0x8\n 27879: u8 [a0 + 0x1] = a2\n 27882: a0 = u64 [s1 + 0x30]\n 27885: a1 = u64 [s1 + 0xc0]\n 27889: u64 [a0] = a1\n 27891: a1 = u64 [s1 + 0xd0]\n 27895: u64 [a0 + 0x18] = a1\n 27898: a1 = u64 [s1 + 0xc8]\n 27902: u64 [a0 + 0x8] = a1\n 27905: a1 = u64 [s1 + 0xd8]\n 27909: u64 [a0 + 0x10] = a1\n 27912: sp = s0 + 0xfffffffffffffda0\n 27916: ra = u64 [sp + 0x258]\n 27920: s0 = u64 [sp + 0x250]\n 27924: s1 = u64 [sp + 0x248]\n 27928: sp = sp + 0x260\n 27932: ret\n      : @485 (gas: 1)\n 27934: trap\n      : @486 (gas: 8)\n 27935: u64 [s1 + 496] = 0\n 27939: u64 [s1 + 488] = 0\n 27943: u64 [s1 + 480] = 0\n 27947: a0 = 0x4e487b7100000000\n 27957: a1 = s1 + 0x1e0\n 27961: u64 [s1 + 0x1f8] = a0\n 27965: a0 = 0\n 27967: ra = 322, jump @8\n      : @487 [@dyn 161] (gas: 8)\n 27973: u64 [s1 + 472] = 0\n 27977: u64 [s1 + 464] = 0\n 27981: u64 [s1 + 448] = 0x41\n 27986: a0 = 0x4\n 27989: a1 = s1 + 0x1c0\n 27993: u64 [s1 + 456] = 0\n 27997: ra = 0x146\n 28001: jump @8\n      : @488 (gas: 8)\n 28004: u64 [s1 + 432] = 0\n 28008: u64 [s1 + 424] = 0\n 28012: u64 [s1 + 416] = 0\n 28016: a0 = 0x4e487b7100000000\n 28026: a1 = s1 + 0x1a0\n 28030: u64 [s1 + 0x1b8] = a0\n 28034: a0 = 0\n 28036: ra = 324, jump @8\n      : @489 [@dyn 162] (gas: 7)\n 28042: u64 [s1 + 408] = 0\n 28046: u64 [s1 + 400] = 0\n 28050: u64 [s1 + 384] = 0x22\n 28055: a0 = 0x4\n 28058: a1 = s1 + 0x180\n 28062: u64 [s1 + 392] = 0\n 28066: ra = 326, jump @8\n      : @490 [@dyn 163] (gas: 3)\n 28072: a1 = 0x24\n 28075: a0 = 0\n 28077: ra = 328, jump @0\n      : @491 [@dyn 164] (gas: 6)\n 28083: i32 a1 = a0 + 0\n 28085: a0 = 0x1\n 28088: a2 = 0x24\n 28091: ra = 0x14a\n 28095: ecalli 7 // 'seal_return'\n 28097: fallthrough\n      : @492 [@dyn 165] (gas: 20)\n 28098: sp = sp + 0xfffffffffffffe60\n 28102: u64 [sp + 0x198] = ra\n 28106: u64 [sp + 0x190] = s0\n 28110: u64 [sp + 0x188] = s1\n 28114: a4 = u64 [a1 + 0x10]\n 28117: a3 = u64 [a1 + 0x18]\n 28120: a5 = u64 [a1 + 0x8]\n 28123: s1 = u64 [a1]\n 28125: u64 [sp + 0x178] = a3\n 28129: u64 [sp + 0x170] = a5\n 28133: a1 = a5 | a3\n 28136: a3 = s1 | a4\n 28139: a3 = a3 | a1\n 28142: a3 = a3 >> 0x20\n 28145: u64 [sp + 0x180] = a4\n 28149: a1 = a1 | a4\n 28152: a1 = a1 << 0x20\n 28155: a1 = a1 | a3\n 28158: u64 [sp] = a0\n 28160: jump @510 if a1 != 0\n      : @493 (gas: 11)\n 28164: a0 = u64 [a2 + 0x18]\n 28167: u64 [sp + 0x168] = a0\n 28171: a0 = u64 [a2 + 0x10]\n 28174: u64 [sp + 0x160] = a0\n 28178: a0 = u64 [a2 + 0x8]\n 28181: u64 [sp + 0x158] = a0\n 28185: s0 = u64 [a2]\n 28187: i32 a0 = s1 + 0\n 28189: a1 = 0x20\n 28192: u64 [sp + 0x150] = a0\n 28196: ra = 332, jump @0\n      : @494 [@dyn 166] (gas: 43)\n 28202: u8 [a0 + 31] = 0x20\n 28206: a4 = u64 [sp + 0x160]\n 28210: a1 = s0 | a4\n 28213: a2 = u64 [sp + 0x168]\n 28217: a5 = u64 [sp + 0x158]\n 28221: a2 = a2 | a5\n 28224: a1 = a1 | a2\n 28227: a1 = a1 >> 0x20\n 28230: a2 = a2 | a4\n 28233: a2 = a2 << 0x20\n 28236: a1 = a1 | a2\n 28239: u8 [a0 + 30] = 0\n 28242: u8 [a0 + 29] = 0\n 28245: u8 [a0 + 28] = 0\n 28248: u8 [a0 + 27] = 0\n 28251: u8 [a0 + 26] = 0\n 28254: u8 [a0 + 25] = 0\n 28257: u8 [a0 + 24] = 0\n 28260: u8 [a0 + 23] = 0\n 28263: u8 [a0 + 22] = 0\n 28266: u8 [a0 + 21] = 0\n 28269: u8 [a0 + 20] = 0\n 28272: u8 [a0 + 19] = 0\n 28275: u8 [a0 + 18] = 0\n 28278: u8 [a0 + 17] = 0\n 28281: u8 [a0 + 16] = 0\n 28284: u8 [a0 + 15] = 0\n 28287: u8 [a0 + 14] = 0\n 28290: u8 [a0 + 13] = 0\n 28293: u8 [a0 + 12] = 0\n 28296: u8 [a0 + 11] = 0\n 28299: u8 [a0 + 10] = 0\n 28302: u8 [a0 + 9] = 0\n 28305: u8 [a0 + 8] = 0\n 28308: u8 [a0 + 7] = 0\n 28311: u8 [a0 + 6] = 0\n 28314: u8 [a0 + 5] = 0\n 28317: u8 [a0 + 4] = 0\n 28320: u8 [a0 + 3] = 0\n 28323: u8 [a0 + 2] = 0\n 28326: u8 [a0 + 1] = 0\n 28329: u8 [a0 + 0] = 0\n 28331: jump @510 if a1 != 0\n      : @495 (gas: 4)\n 28335: u64 [sp + 0x130] = s0\n 28339: i32 a0 = s0 + 0\n 28341: a1 = 0x20\n 28344: ra = 334, jump @0\n      : @496 [@dyn 167] (gas: 10)\n 28350: a1 = u64 [sp + 0x180]\n 28354: a2 = u64 [sp + 0x178]\n 28358: a1 = a1 | a2\n 28361: a2 = 0xffffffe0\n 28371: u64 [sp + 0x148] = s1\n 28375: a2 = s1 <u a2\n 28378: a3 = u64 [sp + 0x170]\n 28382: a2 = 0 if a3 != 0\n 28384: a2 = 0 if a1 != 0\n 28386: jump @510 if a2 == 0\n      : @497 (gas: 102)\n 28390: a1 = u8 [a0 + 0x19]\n 28393: a2 = u8 [a0 + 0x18]\n 28396: a3 = u8 [a0 + 0x1a]\n 28399: a4 = u8 [a0 + 0x1b]\n 28402: a1 = a1 << 0x8\n 28405: a1 = a1 | a2\n 28408: a3 = a3 << 0x10\n 28411: a4 = a4 << 0x18\n 28414: a3 = a3 | a4\n 28417: a1 = a1 | a3\n 28420: a2 = u8 [a0 + 0x1d]\n 28423: a3 = u8 [a0 + 0x1c]\n 28426: a4 = u8 [a0 + 0x1e]\n 28429: a5 = u8 [a0 + 0x1f]\n 28432: a2 = a2 << 0x8\n 28435: a2 = a2 | a3\n 28438: a4 = a4 << 0x10\n 28441: a5 = a5 << 0x18\n 28444: a4 = a4 | a5\n 28447: a2 = a2 | a4\n 28450: a2 = a2 << 0x20\n 28453: t0 = a2 | a1\n 28456: u64 [sp + 0x140] = t0\n 28460: a1 = u8 [a0 + 0x11]\n 28463: a2 = u8 [a0 + 0x10]\n 28466: a3 = u8 [a0 + 0x12]\n 28469: a4 = u8 [a0 + 0x13]\n 28472: a1 = a1 << 0x8\n 28475: a1 = a1 | a2\n 28478: a3 = a3 << 0x10\n 28481: a4 = a4 << 0x18\n 28484: a3 = a3 | a4\n 28487: a1 = a1 | a3\n 28490: a2 = u8 [a0 + 0x15]\n 28493: a3 = u8 [a0 + 0x14]\n 28496: a4 = u8 [a0 + 0x16]\n 28499: a5 = u8 [a0 + 0x17]\n 28502: a2 = a2 << 0x8\n 28505: a2 = a2 | a3\n 28508: a4 = a4 << 0x10\n 28511: a5 = a5 << 0x18\n 28514: a4 = a4 | a5\n 28517: a2 = a2 | a4\n 28520: a2 = a2 << 0x20\n 28523: t1 = a2 | a1\n 28526: u64 [sp + 0x138] = t1\n 28530: a1 = u8 [a0 + 0x9]\n 28533: a2 = u8 [a0 + 0x8]\n 28536: a3 = u8 [a0 + 0xa]\n 28539: a4 = u8 [a0 + 0xb]\n 28542: a1 = a1 << 0x8\n 28545: a1 = a1 | a2\n 28548: a3 = a3 << 0x10\n 28551: a4 = a4 << 0x18\n 28554: a3 = a3 | a4\n 28557: a1 = a1 | a3\n 28560: a2 = u8 [a0 + 0xd]\n 28563: a3 = u8 [a0 + 0xc]\n 28566: a4 = u8 [a0 + 0xe]\n 28569: a5 = u8 [a0 + 0xf]\n 28572: a2 = a2 << 0x8\n 28575: a2 = a2 | a3\n 28578: a4 = a4 << 0x10\n 28581: a5 = a5 << 0x18\n 28584: a4 = a4 | a5\n 28587: a2 = a2 | a4\n 28590: a2 = a2 << 0x20\n 28593: s0 = a2 | a1\n 28596: a1 = u8 [a0 + 0x1]\n 28599: a2 = u8 [a0]\n 28601: a3 = u8 [a0 + 0x2]\n 28604: a4 = u8 [a0 + 0x3]\n 28607: a1 = a1 << 0x8\n 28610: a1 = a1 | a2\n 28613: a3 = a3 << 0x10\n 28616: a4 = a4 << 0x18\n 28619: a3 = a3 | a4\n 28622: a1 = a1 | a3\n 28625: a2 = u8 [a0 + 0x5]\n 28628: a3 = u8 [a0 + 0x4]\n 28631: a4 = u8 [a0 + 0x6]\n 28634: a0 = u8 [a0 + 0x7]\n 28637: a2 = a2 << 0x8\n 28640: a2 = a2 | a3\n 28643: a4 = a4 << 0x10\n 28646: a0 = a0 << 0x18\n 28649: a0 = a0 | a4\n 28652: a0 = a0 | a2\n 28655: a0 = a0 << 0x20\n 28658: s1 = a0 | a1\n 28661: a0 = reverse s1\n 28663: u64 [sp + 0x40] = a0\n 28666: a0 = reverse s0\n 28668: u64 [sp + 0x30] = a0\n 28671: a0 = reverse t1\n 28673: u64 [sp + 0x48] = a0\n 28676: a0 = reverse t0\n 28678: u64 [sp + 0x28] = a0\n 28681: a0 = u64 [sp + 0x150]\n 28685: i32 a0 = a0 + 0x20\n 28688: a1 = 0x20\n 28691: ra = 336, jump @0\n      : @498 [@dyn 168] (gas: 68)\n 28697: a3 = u64 [sp + 0x138]\n 28701: u8 [a0 + 0x10] = a3\n 28704: a1 = s0 >> 0x38\n 28707: u8 [a0 + 0xf] = a1\n 28710: a1 = s0 >> 0x30\n 28713: u8 [a0 + 0xe] = a1\n 28716: a1 = s0 >> 0x28\n 28719: u8 [a0 + 0xd] = a1\n 28722: a1 = s0 >> 0x20\n 28725: u8 [a0 + 0xc] = a1\n 28728: a1 = s0 >> 0x18\n 28731: u8 [a0 + 0xb] = a1\n 28734: a1 = s0 >> 0x10\n 28737: u8 [a0 + 0xa] = a1\n 28740: a1 = s0 >> 0x8\n 28743: u8 [a0 + 0x9] = a1\n 28746: u8 [a0 + 0x8] = s0\n 28749: a1 = s1 >> 0x38\n 28752: u8 [a0 + 0x7] = a1\n 28755: a1 = s1 >> 0x30\n 28758: u8 [a0 + 0x6] = a1\n 28761: a1 = s1 >> 0x28\n 28764: u8 [a0 + 0x5] = a1\n 28767: a1 = s1 >> 0x20\n 28770: u8 [a0 + 0x4] = a1\n 28773: a1 = s1 >> 0x18\n 28776: u8 [a0 + 0x3] = a1\n 28779: a1 = s1 >> 0x10\n 28782: u8 [a0 + 0x2] = a1\n 28785: a1 = s1 >> 0x8\n 28788: u8 [a0 + 0x1] = a1\n 28791: u8 [a0] = s1\n 28793: a2 = u64 [sp + 0x140]\n 28797: u8 [a0 + 0x18] = a2\n 28800: a1 = a3 >> 0x38\n 28803: u8 [a0 + 0x17] = a1\n 28806: a1 = a3 >> 0x30\n 28809: u8 [a0 + 0x16] = a1\n 28812: a1 = a3 >> 0x28\n 28815: u8 [a0 + 0x15] = a1\n 28818: a1 = a3 >> 0x20\n 28821: u8 [a0 + 0x14] = a1\n 28824: a1 = a3 >> 0x18\n 28827: u8 [a0 + 0x13] = a1\n 28830: a1 = a3 >> 0x10\n 28833: u8 [a0 + 0x12] = a1\n 28836: a1 = a3 >> 0x8\n 28839: a4 = a3\n 28841: u8 [a0 + 0x11] = a1\n 28844: a1 = a2 >> 0x38\n 28847: u8 [a0 + 0x1f] = a1\n 28850: a1 = a2 >> 0x30\n 28853: u8 [a0 + 0x1e] = a1\n 28856: a1 = a2 >> 0x28\n 28859: u8 [a0 + 0x1d] = a1\n 28862: a1 = a2 >> 0x20\n 28865: u8 [a0 + 0x1c] = a1\n 28868: a1 = a2 >> 0x18\n 28871: u8 [a0 + 0x1b] = a1\n 28874: a1 = a2 >> 0x10\n 28877: u8 [a0 + 0x1a] = a1\n 28880: a1 = a2 >> 0x8\n 28883: a3 = a2\n 28885: a2 = s1 | a4\n 28888: a3 = a3 | s0\n 28891: a2 = a2 | a3\n 28894: u8 [a0 + 0x19] = a1\n 28897: jump @506 if a2 == 0\n      : @499 (gas: 37)\n 28901: t0 = 0\n 28903: t2 = 0\n 28905: a5 = 0\n 28907: s1 = 0\n 28909: a0 = u64 [sp + 0x130]\n 28913: a1 = a0 + 0x20\n 28916: u64 [sp + 0x20] = a1\n 28919: a0 = a1 <u a0\n 28922: a1 = u64 [sp + 0x158]\n 28926: a2 = a1 + a0\n 28929: u64 [sp + 0x18] = a2\n 28932: a1 = a2 <u a1\n 28935: a1 = a0 if a0 == 0\n 28938: a0 = u64 [sp + 0x160]\n 28942: a1 = a1 + a0\n 28945: u64 [sp + 0x10] = a1\n 28948: a0 = a1 <u a0\n 28951: a1 = u64 [sp + 0x168]\n 28955: a0 = a0 + a1\n 28958: u64 [sp + 0x8] = a0\n 28961: a0 = u64 [sp + 0x148]\n 28965: a2 = a0 + 0x40\n 28968: a0 = a2 <u a0\n 28971: a1 = u64 [sp + 0x170]\n 28975: s0 = a1 + a0\n 28978: a1 = s0 <u a1\n 28981: a1 = a0 if a0 == 0\n 28984: a0 = u64 [sp + 0x180]\n 28988: a1 = a1 + a0\n 28991: u64 [sp + 0x58] = a1\n 28994: a0 = a1 <u a0\n 28997: a1 = u64 [sp + 0x178]\n 29001: a0 = a0 + a1\n 29004: u64 [sp + 0x50] = a0\n 29007: u64 [sp + 0x160] = a2\n 29011: u64 [sp + 0x38] = s0\n 29014: fallthrough\n      : @500 (gas: 30)\n 29015: a1 = u64 [sp + 0x20]\n 29018: u64 [sp + 0x168] = t0\n 29022: a0 = a1 + t0\n 29025: a1 = a0 <u a1\n 29028: a4 = u64 [sp + 0x18]\n 29031: u64 [sp + 0x170] = t2\n 29035: a2 = a4 + t2\n 29038: a2 = a2 + a1\n 29041: a3 = a2 ^ a4\n 29044: a4 = a2 <u a4\n 29047: a4 = a1 if a3 == 0\n 29050: a3 = u64 [sp + 0x10]\n 29053: u64 [sp + 0x178] = a5\n 29057: a1 = a3 + a5\n 29060: a3 = a1 <u a3\n 29063: u64 [sp + 0x180] = s1\n 29067: a5 = u64 [sp + 0x8]\n 29070: a5 = a5 + s1\n 29073: a3 = a3 + a5\n 29076: a4 = a4 + a1\n 29079: a1 = a4 <u a1\n 29082: a1 = a1 + a3\n 29085: a1 = a1 | a2\n 29088: a2 = a0 | a4\n 29091: a2 = a2 | a1\n 29094: a1 = a1 | a4\n 29097: a2 = a2 >> 0x20\n 29100: a1 = a1 << 0x20\n 29103: a1 = a1 | a2\n 29106: jump @510 if a1 != 0\n      : @501 (gas: 3)\n 29110: i32 a0 = a0 + 0\n 29112: a1 = 0x20\n 29115: ra = 338, jump @0\n      : @502 [@dyn 169] (gas: 30)\n 29121: a1 = u64 [sp + 0x168]\n 29125: a2 = u64 [sp + 0x160]\n 29129: a1 = a1 + a2\n 29132: a2 = a1 <u a2\n 29135: a3 = u64 [sp + 0x170]\n 29139: a3 = a3 + s0\n 29142: a3 = a3 + a2\n 29145: a4 = a3 ^ s0\n 29148: a5 = a3 <u s0\n 29151: a5 = a2 if a4 == 0\n 29154: a4 = u64 [sp + 0x58]\n 29157: a2 = u64 [sp + 0x178]\n 29161: a2 = a2 + a4\n 29164: a4 = a2 <u a4\n 29167: s1 = u64 [sp + 0x50]\n 29170: s0 = u64 [sp + 0x180]\n 29174: s1 = s1 + s0\n 29177: a4 = a4 + s1\n 29180: a5 = a5 + a2\n 29183: a2 = a5 <u a2\n 29186: a2 = a2 + a4\n 29189: a2 = a2 | a3\n 29192: a3 = a1 | a5\n 29195: a3 = a3 | a2\n 29198: a2 = a2 | a5\n 29201: a3 = a3 >> 0x20\n 29204: a2 = a2 << 0x20\n 29207: a2 = a2 | a3\n 29210: s0 = u64 [sp + 0x48]\n 29213: jump @510 if a2 != 0\n      : @503 (gas: 67)\n 29217: a2 = u8 [a0]\n 29219: u64 [sp + 0x158] = a2\n 29223: a2 = u8 [a0 + 0x1]\n 29226: u64 [sp + 0x150] = a2\n 29230: a2 = u8 [a0 + 0x2]\n 29233: u64 [sp + 0x148] = a2\n 29237: a2 = u8 [a0 + 0x3]\n 29240: u64 [sp + 0x140] = a2\n 29244: a2 = u8 [a0 + 0x4]\n 29247: u64 [sp + 0x138] = a2\n 29251: a2 = u8 [a0 + 0x5]\n 29254: u64 [sp + 0x130] = a2\n 29258: a2 = u8 [a0 + 0x6]\n 29261: u64 [sp + 0x128] = a2\n 29265: a2 = u8 [a0 + 0x7]\n 29268: u64 [sp + 0x120] = a2\n 29272: a2 = u8 [a0 + 0x8]\n 29275: u64 [sp + 0x118] = a2\n 29279: a2 = u8 [a0 + 0x9]\n 29282: u64 [sp + 0x110] = a2\n 29286: a2 = u8 [a0 + 0xa]\n 29289: u64 [sp + 0x108] = a2\n 29293: a2 = u8 [a0 + 0xb]\n 29296: u64 [sp + 0x100] = a2\n 29300: a2 = u8 [a0 + 0xc]\n 29303: u64 [sp + 0xf8] = a2\n 29307: a2 = u8 [a0 + 0xd]\n 29310: u64 [sp + 0xf0] = a2\n 29314: a2 = u8 [a0 + 0xe]\n 29317: u64 [sp + 0xe8] = a2\n 29321: a2 = u8 [a0 + 0xf]\n 29324: u64 [sp + 0xe0] = a2\n 29328: a2 = u8 [a0 + 0x10]\n 29331: u64 [sp + 0xd8] = a2\n 29335: a2 = u8 [a0 + 0x11]\n 29338: u64 [sp + 0xd0] = a2\n 29342: a2 = u8 [a0 + 0x12]\n 29345: u64 [sp + 0xc8] = a2\n 29349: a2 = u8 [a0 + 0x13]\n 29352: u64 [sp + 0xc0] = a2\n 29356: a2 = u8 [a0 + 0x14]\n 29359: u64 [sp + 0xb8] = a2\n 29363: a2 = u8 [a0 + 0x15]\n 29366: u64 [sp + 0xb0] = a2\n 29370: a2 = u8 [a0 + 0x16]\n 29373: u64 [sp + 0xa8] = a2\n 29377: a2 = u8 [a0 + 0x17]\n 29380: u64 [sp + 0xa0] = a2\n 29384: a2 = u8 [a0 + 0x18]\n 29387: u64 [sp + 0x98] = a2\n 29391: a2 = u8 [a0 + 0x19]\n 29394: u64 [sp + 0x90] = a2\n 29398: a2 = u8 [a0 + 0x1a]\n 29401: u64 [sp + 0x88] = a2\n 29405: a2 = u8 [a0 + 0x1b]\n 29408: u64 [sp + 0x80] = a2\n 29412: a2 = u8 [a0 + 0x1c]\n 29415: u64 [sp + 0x78] = a2\n 29418: a2 = u8 [a0 + 0x1d]\n 29421: u64 [sp + 0x70] = a2\n 29424: a2 = u8 [a0 + 0x1e]\n 29427: u64 [sp + 0x68] = a2\n 29430: a0 = u8 [a0 + 0x1f]\n 29433: u64 [sp + 0x60] = a0\n 29436: i32 a0 = a1 + 0\n 29438: a1 = 0x20\n 29441: ra = 340, jump @0\n      : @504 [@dyn 170] (gas: 94)\n 29447: a1 = u64 [sp + 0x168]\n 29451: t0 = a1 + 0x20\n 29454: a4 = t0 <u a1\n 29457: a1 = u64 [sp + 0x170]\n 29461: t2 = a1 + a4\n 29464: t1 = u64 [sp + 0x28]\n 29467: a5 = t0 <u t1\n 29470: s1 = t2 ^ s0\n 29473: a3 = t2 <u s0\n 29476: a3 = a5 if s1 == 0\n 29479: a5 = t2 <u a1\n 29482: a5 = a4 if a4 == 0\n 29485: a1 = u64 [sp + 0x178]\n 29489: a4 = a1 + a5\n 29492: a5 = a4 <u a1\n 29495: s1 = u64 [sp + 0x180]\n 29499: s1 = s1 + a5\n 29502: a5 = u64 [sp + 0x30]\n 29505: a1 = a4 <u a5\n 29508: s0 = u64 [sp + 0x40]\n 29511: a2 = s1 ^ s0\n 29514: s0 = s1 <u s0\n 29517: s0 = a1 if a2 == 0\n 29520: a5 = a5 ^ a4\n 29523: a5 = a5 | a2\n 29526: a3 = s0 if a5 != 0\n 29529: a1 = u64 [sp + 0x60]\n 29532: u8 [a0 + 0x1f] = a1\n 29535: a1 = u64 [sp + 0x68]\n 29538: u8 [a0 + 0x1e] = a1\n 29541: a1 = u64 [sp + 0x70]\n 29544: u8 [a0 + 0x1d] = a1\n 29547: a1 = u64 [sp + 0x78]\n 29550: u8 [a0 + 0x1c] = a1\n 29553: a1 = u64 [sp + 0x80]\n 29557: u8 [a0 + 0x1b] = a1\n 29560: a1 = u64 [sp + 0x88]\n 29564: u8 [a0 + 0x1a] = a1\n 29567: a1 = u64 [sp + 0x90]\n 29571: u8 [a0 + 0x19] = a1\n 29574: a1 = u64 [sp + 0x98]\n 29578: u8 [a0 + 0x18] = a1\n 29581: a1 = u64 [sp + 0xa0]\n 29585: u8 [a0 + 0x17] = a1\n 29588: a1 = u64 [sp + 0xa8]\n 29592: u8 [a0 + 0x16] = a1\n 29595: a1 = u64 [sp + 0xb0]\n 29599: u8 [a0 + 0x15] = a1\n 29602: a1 = u64 [sp + 0xb8]\n 29606: u8 [a0 + 0x14] = a1\n 29609: a1 = u64 [sp + 0xc0]\n 29613: u8 [a0 + 0x13] = a1\n 29616: a1 = u64 [sp + 0xc8]\n 29620: u8 [a0 + 0x12] = a1\n 29623: a1 = u64 [sp + 0xd0]\n 29627: u8 [a0 + 0x11] = a1\n 29630: a1 = u64 [sp + 0xd8]\n 29634: u8 [a0 + 0x10] = a1\n 29637: a1 = u64 [sp + 0xe0]\n 29641: u8 [a0 + 0xf] = a1\n 29644: a1 = u64 [sp + 0xe8]\n 29648: u8 [a0 + 0xe] = a1\n 29651: a1 = u64 [sp + 0xf0]\n 29655: u8 [a0 + 0xd] = a1\n 29658: a1 = u64 [sp + 0xf8]\n 29662: u8 [a0 + 0xc] = a1\n 29665: a1 = u64 [sp + 0x100]\n 29669: u8 [a0 + 0xb] = a1\n 29672: a1 = u64 [sp + 0x108]\n 29676: u8 [a0 + 0xa] = a1\n 29679: a1 = u64 [sp + 0x110]\n 29683: u8 [a0 + 0x9] = a1\n 29686: a1 = u64 [sp + 0x118]\n 29690: u8 [a0 + 0x8] = a1\n 29693: a1 = u64 [sp + 0x120]\n 29697: u8 [a0 + 0x7] = a1\n 29700: a1 = u64 [sp + 0x128]\n 29704: u8 [a0 + 0x6] = a1\n 29707: a1 = u64 [sp + 0x130]\n 29711: u8 [a0 + 0x5] = a1\n 29714: a1 = u64 [sp + 0x138]\n 29718: u8 [a0 + 0x4] = a1\n 29721: a1 = u64 [sp + 0x140]\n 29725: u8 [a0 + 0x3] = a1\n 29728: a1 = u64 [sp + 0x148]\n 29732: u8 [a0 + 0x2] = a1\n 29735: a1 = u64 [sp + 0x150]\n 29739: u8 [a0 + 0x1] = a1\n 29742: a1 = u64 [sp + 0x158]\n 29746: u8 [a0] = a1\n 29748: a5 = a4\n 29750: a2 = u64 [sp + 0x160]\n 29754: s0 = u64 [sp + 0x38]\n 29757: jump @500 if a3 != 0\n      : @505 (gas: 3)\n 29761: a5 = u64 [sp + 0x58]\n 29764: t0 = u64 [sp + 0x50]\n 29767: jump @507\n      : @506 (gas: 14)\n 29769: a0 = u64 [sp + 0x148]\n 29773: a2 = a0 + 0x40\n 29776: a0 = a2 <u a0\n 29779: a1 = u64 [sp + 0x170]\n 29783: s0 = a1 + a0\n 29786: a1 = s0 <u a1\n 29789: a1 = a0 if a0 == 0\n 29792: a0 = u64 [sp + 0x180]\n 29796: a5 = a0 + a1\n 29799: a0 = a5 <u a0\n 29802: a1 = u64 [sp + 0x178]\n 29806: t0 = a1 + a0\n 29809: t1 = u64 [sp + 0x28]\n 29812: fallthrough\n      : @507 (gas: 29)\n 29813: u64 [sp + 0x160] = a2\n 29817: u64 [sp + 0x50] = t0\n 29820: u64 [sp + 0x38] = s0\n 29823: u64 [sp + 0x58] = a5\n 29826: a0 = a2 + t1\n 29829: a1 = a0 <u a2\n 29832: a2 = u64 [sp + 0x48]\n 29835: a2 = a2 + s0\n 29838: a2 = a2 + a1\n 29841: a3 = a2 ^ s0\n 29844: s1 = a2 <u s0\n 29847: s1 = a1 if a3 == 0\n 29850: s0 = u64 [sp + 0x30]\n 29853: a1 = a5 + s0\n 29856: a3 = a1 <u a5\n 29859: a5 = u64 [sp + 0x40]\n 29862: a5 = a5 + t0\n 29865: a3 = a3 + a5\n 29868: s1 = s1 + a1\n 29871: a1 = s1 <u a1\n 29874: a1 = a1 + a3\n 29877: a1 = a1 | a2\n 29880: a2 = a0 | s1\n 29883: a2 = a2 | a1\n 29886: a1 = a1 | s1\n 29889: a2 = a2 >> 0x20\n 29892: a1 = a1 << 0x20\n 29895: a1 = a1 | a2\n 29898: jump @510 if a1 != 0\n      : @508 (gas: 4)\n 29902: s1 = t1\n 29904: i32 a0 = a0 + 0\n 29906: a1 = 0x20\n 29909: ra = 342, jump @0\n      : @509 [@dyn 171] (gas: 71)\n 29915: u8 [a0 + 31] = 0\n 29918: u8 [a0 + 30] = 0\n 29921: u8 [a0 + 29] = 0\n 29924: u8 [a0 + 28] = 0\n 29927: u8 [a0 + 27] = 0\n 29930: u8 [a0 + 26] = 0\n 29933: u8 [a0 + 25] = 0\n 29936: u8 [a0 + 24] = 0\n 29939: u8 [a0 + 23] = 0\n 29942: u8 [a0 + 22] = 0\n 29945: u8 [a0 + 21] = 0\n 29948: u8 [a0 + 20] = 0\n 29951: u8 [a0 + 19] = 0\n 29954: u8 [a0 + 18] = 0\n 29957: u8 [a0 + 17] = 0\n 29960: u8 [a0 + 16] = 0\n 29963: u8 [a0 + 15] = 0\n 29966: u8 [a0 + 14] = 0\n 29969: u8 [a0 + 13] = 0\n 29972: u8 [a0 + 12] = 0\n 29975: u8 [a0 + 11] = 0\n 29978: u8 [a0 + 10] = 0\n 29981: u8 [a0 + 9] = 0\n 29984: u8 [a0 + 8] = 0\n 29987: u8 [a0 + 7] = 0\n 29990: u8 [a0 + 6] = 0\n 29993: u8 [a0 + 5] = 0\n 29996: u8 [a0 + 4] = 0\n 29999: u8 [a0 + 3] = 0\n 30002: u8 [a0 + 2] = 0\n 30005: u8 [a0 + 1] = 0\n 30008: u8 [a0 + 0] = 0\n 30010: a0 = s1 + 0x1f\n 30013: a1 = a0 <u s1\n 30016: a3 = u64 [sp + 0x48]\n 30019: a2 = a3 + a1\n 30022: a3 = a2 <u a3\n 30025: a3 = a1 if a1 == 0\n 30028: a3 = a3 + s0\n 30031: a1 = a3 <u s0\n 30034: a4 = u64 [sp + 0x40]\n 30037: a1 = a1 + a4\n 30040: a0 = a0 & 0xffffffffffffffe0\n 30043: a4 = u64 [sp + 0x160]\n 30047: a0 = a0 + a4\n 30050: a4 = a0 <u a4\n 30053: a5 = u64 [sp + 0x38]\n 30056: a2 = a2 + a5\n 30059: a2 = a2 + a4\n 30062: s0 = a2 ^ a5\n 30065: s1 = a2 <u a5\n 30068: s1 = a4 if s0 == 0\n 30071: a5 = u64 [sp + 0x58]\n 30074: a3 = a3 + a5\n 30077: s1 = s1 + a3\n 30080: a4 = s1 <u a3\n 30083: a3 = a3 <u a5\n 30086: a5 = u64 [sp + 0x50]\n 30089: a1 = a1 + a5\n 30092: a1 = a1 + a3\n 30095: a1 = a1 + a4\n 30098: a3 = u64 [sp]\n 30100: u64 [a3] = a0\n 30102: u64 [a3 + 0x8] = a2\n 30105: u64 [a3 + 0x10] = s1\n 30108: u64 [a3 + 0x18] = a1\n 30111: ra = u64 [sp + 0x198]\n 30115: s0 = u64 [sp + 0x190]\n 30119: s1 = u64 [sp + 0x188]\n 30123: sp = sp + 0x1a0\n 30127: ret\n      : @510 (gas: 1)\n 30129: trap\n      : @511 (gas: 17)\n 30130: sp = sp + 0xffffffffffffff60\n 30134: u64 [sp + 0x98] = ra\n 30138: u64 [sp + 0x90] = s0\n 30142: u64 [sp + 0x88] = s1\n 30146: s0 = sp + 0xa0\n 30150: sp = sp & 0xffffffffffffffe0\n 30153: a2 = u64 [a1]\n 30155: u64 [sp + 0x10] = a2\n 30158: a2 = u64 [a1 + 0x8]\n 30161: u64 [sp + 0x8] = a2\n 30164: a2 = u64 [a1 + 0x10]\n 30167: u64 [sp] = a2\n 30169: s1 = u64 [a1 + 0x18]\n 30172: u64 [sp + 0x18] = a0\n 30175: a1 = 0x20\n 30178: a0 = 0\n 30180: ra = 344, jump @0\n      : @512 [@dyn 172] (gas: 70)\n 30186: a1 = reverse s1\n 30188: a2 = u64 [sp]\n 30190: a2 = reverse a2\n 30192: a3 = u64 [sp + 0x8]\n 30195: a3 = reverse a3\n 30197: a4 = u64 [sp + 0x10]\n 30200: a4 = reverse a4\n 30202: a5 = a4 >> 0x38\n 30205: u8 [a0 + 0x1f] = a5\n 30208: a5 = a4 >> 0x30\n 30211: u8 [a0 + 0x1e] = a5\n 30214: a5 = a4 >> 0x28\n 30217: u8 [a0 + 0x1d] = a5\n 30220: a5 = a4 >> 0x20\n 30223: u8 [a0 + 0x1c] = a5\n 30226: a5 = a4 >> 0x18\n 30229: u8 [a0 + 0x1b] = a5\n 30232: a5 = a4 >> 0x10\n 30235: u8 [a0 + 0x1a] = a5\n 30238: a5 = a4 >> 0x8\n 30241: u8 [a0 + 0x19] = a5\n 30244: u8 [a0 + 0x18] = a4\n 30247: a4 = a3 >> 0x38\n 30250: u8 [a0 + 0x17] = a4\n 30253: a4 = a3 >> 0x30\n 30256: u8 [a0 + 0x16] = a4\n 30259: a4 = a3 >> 0x28\n 30262: u8 [a0 + 0x15] = a4\n 30265: a4 = a3 >> 0x20\n 30268: u8 [a0 + 0x14] = a4\n 30271: a4 = a3 >> 0x18\n 30274: u8 [a0 + 0x13] = a4\n 30277: a4 = a3 >> 0x10\n 30280: u8 [a0 + 0x12] = a4\n 30283: a4 = a3 >> 0x8\n 30286: u8 [a0 + 0x11] = a4\n 30289: u8 [a0 + 0x10] = a3\n 30292: a3 = a2 >> 0x38\n 30295: u8 [a0 + 0xf] = a3\n 30298: a3 = a2 >> 0x30\n 30301: u8 [a0 + 0xe] = a3\n 30304: a3 = a2 >> 0x28\n 30307: u8 [a0 + 0xd] = a3\n 30310: a3 = a2 >> 0x20\n 30313: u8 [a0 + 0xc] = a3\n 30316: a3 = a2 >> 0x18\n 30319: u8 [a0 + 0xb] = a3\n 30322: a3 = a2 >> 0x10\n 30325: u8 [a0 + 0xa] = a3\n 30328: a3 = a2 >> 0x8\n 30331: u8 [a0 + 0x9] = a3\n 30334: u8 [a0 + 0x8] = a2\n 30337: a2 = a1 >> 0x38\n 30340: u8 [a0 + 0x7] = a2\n 30343: a2 = a1 >> 0x30\n 30346: u8 [a0 + 0x6] = a2\n 30349: a2 = a1 >> 0x28\n 30352: u8 [a0 + 0x5] = a2\n 30355: a2 = a1 >> 0x20\n 30358: u8 [a0 + 0x4] = a2\n 30361: a2 = a1 >> 0x18\n 30364: u8 [a0 + 0x3] = a2\n 30367: a2 = a1 >> 0x10\n 30370: u8 [a0 + 0x2] = a2\n 30373: a2 = a1 >> 0x8\n 30376: u8 [a0 + 0x1] = a2\n 30379: u8 [a0] = a1\n 30381: a0 = 0x20\n 30384: a1 = 0x20\n 30387: ra = 346, jump @0\n      : @513 [@dyn 173] (gas: 35)\n 30393: u8 [a0 + 31] = 0\n 30396: u8 [a0 + 30] = 0\n 30399: u8 [a0 + 29] = 0\n 30402: u8 [a0 + 28] = 0\n 30405: u8 [a0 + 27] = 0\n 30408: u8 [a0 + 26] = 0\n 30411: u8 [a0 + 25] = 0\n 30414: u8 [a0 + 24] = 0\n 30417: u8 [a0 + 23] = 0\n 30420: u8 [a0 + 22] = 0\n 30423: u8 [a0 + 21] = 0\n 30426: u8 [a0 + 20] = 0\n 30429: u8 [a0 + 19] = 0\n 30432: u8 [a0 + 18] = 0\n 30435: u8 [a0 + 17] = 0\n 30438: u8 [a0 + 16] = 0\n 30441: u8 [a0 + 15] = 0\n 30444: u8 [a0 + 14] = 0\n 30447: u8 [a0 + 13] = 0\n 30450: u8 [a0 + 12] = 0\n 30453: u8 [a0 + 11] = 0\n 30456: u8 [a0 + 10] = 0\n 30459: u8 [a0 + 9] = 0\n 30462: u8 [a0 + 8] = 0\n 30465: u8 [a0 + 7] = 0\n 30468: u8 [a0 + 6] = 0\n 30471: u8 [a0 + 5] = 0\n 30474: u8 [a0 + 4] = 0\n 30477: u8 [a0 + 3] = 0\n 30480: u8 [a0 + 2] = 0\n 30483: u8 [a0 + 1] = 0\n 30486: u8 [a0 + 0] = 0\n 30488: a1 = 0x40\n 30491: a0 = 0\n 30493: ra = 348, jump @0\n      : @514 [@dyn 174] (gas: 58)\n 30499: i32 a0 = a0 + 0\n 30501: i32 a2 = sp + 0x20\n 30504: a1 = 0x40\n 30507: ecalli 6 // 'hash_keccak_256'\n 30509: a0 = u64 [sp + 0x20]\n 30512: a1 = u64 [sp + 0x28]\n 30515: a2 = u64 [sp + 0x30]\n 30518: a3 = u64 [sp + 0x38]\n 30521: a0 = reverse a0\n 30523: a1 = reverse a1\n 30525: a2 = reverse a2\n 30527: a3 = reverse a3\n 30529: a3 = a3 + 0x1\n 30532: a4 = a3 <u 0x1\n 30535: a2 = a2 + a4\n 30538: a4 = a3 | a2\n 30541: a4 = a4 <u 0x1\n 30544: a4 = a4 + a1\n 30547: a1 = a4 <u a1\n 30550: a0 = a0 + a1\n 30553: a0 = reverse a0\n 30555: a1 = reverse a4\n 30557: a2 = reverse a2\n 30559: a3 = reverse a3\n 30561: u64 [sp + 0x58] = a3\n 30564: u64 [sp + 0x50] = a2\n 30567: u64 [sp + 0x48] = a1\n 30570: u64 [sp + 0x40] = a0\n 30573: u64 [sp + 120] = 0\n 30576: u64 [sp + 112] = 0\n 30579: u64 [sp + 104] = 0\n 30582: u64 [sp + 96] = 0\n 30585: u32 [sp + 128] = 0x20\n 30590: i32 a1 = sp + 0x40\n 30593: i32 a3 = sp + 0x60\n 30596: i32 a4 = sp + 0x80\n 30600: a2 = 0xffffffffffffffff\n 30603: a0 = 0\n 30605: ecalli 5 // 'get_storage'\n 30607: a0 = u64 [sp + 0x78]\n 30610: a1 = u64 [sp + 0x70]\n 30613: a2 = u64 [sp + 0x68]\n 30616: a3 = u64 [sp + 0x60]\n 30619: a0 = reverse a0\n 30621: a1 = reverse a1\n 30623: a2 = reverse a2\n 30625: a3 = reverse a3\n 30627: a4 = u64 [sp + 0x18]\n 30630: u64 [a4 + 0x18] = a3\n 30633: u64 [a4 + 0x10] = a2\n 30636: u64 [a4 + 0x8] = a1\n 30639: u64 [a4] = a0\n 30641: sp = s0 + 0xffffffffffffff60\n 30645: ra = u64 [sp + 0x98]\n 30649: s0 = u64 [sp + 0x90]\n 30653: s1 = u64 [sp + 0x88]\n 30657: sp = sp + 0xa0\n 30661: ret\n      : @515 (gas: 10)\n 30663: sp = sp + 0xfffffffffffffe80\n 30667: u64 [sp + 0x178] = ra\n 30671: u64 [sp + 0x170] = s0\n 30675: u64 [sp + 0x168] = s1\n 30679: s0 = sp + 0x180\n 30683: sp = sp & 0xffffffffffffffe0\n 30686: a1 = 0x20\n 30689: s1 = 0x20\n 30692: a0 = 0\n 30694: ra = 350, jump @0\n      : @516 [@dyn 175] (gas: 35)\n 30700: u8 [a0 + 31] = 0x75\n 30704: u8 [a0 + 30] = 0x17\n 30708: u8 [a0 + 29] = 0xc2\n 30713: u8 [a0 + 28] = 0x93\n 30718: u8 [a0 + 27] = 0x56\n 30722: u8 [a0 + 26] = 0x9\n 30726: u8 [a0 + 25] = 0x5b\n 30730: u8 [a0 + 24] = 0x82\n 30735: u8 [a0 + 23] = 0x87\n 30740: u8 [a0 + 22] = 0xe2\n 30745: u8 [a0 + 21] = 0xfb\n 30750: u8 [a0 + 20] = 0x1\n 30754: u8 [a0 + 19] = 0xa2\n 30759: u8 [a0 + 18] = 0xf4\n 30764: u8 [a0 + 17] = 0x3c\n 30768: u8 [a0 + 16] = 0x91\n 30773: u8 [a0 + 15] = 0xe8\n 30778: u8 [a0 + 14] = 0x56\n 30782: u8 [a0 + 13] = 0x8f\n 30787: u8 [a0 + 12] = 0xa1\n 30792: u8 [a0 + 11] = 0xa8\n 30797: u8 [a0 + 10] = 0xf5\n 30802: u8 [a0 + 9] = 0x2e\n 30806: u8 [a0 + 8] = 0x9\n 30810: u8 [a0 + 7] = 0x55\n 30814: u8 [a0 + 6] = 0xd3\n 30819: u8 [a0 + 5] = 0xe4\n 30824: u8 [a0 + 4] = 0x5c\n 30828: u8 [a0 + 0x3] = s1\n 30831: u8 [a0 + 2] = 0x7\n 30835: u8 [a0 + 1] = 0x98\n 30840: u8 [a0 + 0] = 0xa4\n 30844: a0 = 0x20\n 30847: a1 = 0x20\n 30850: ra = 352, jump @0\n      : @517 [@dyn 176] (gas: 35)\n 30856: u8 [a0 + 31] = 0\n 30859: u8 [a0 + 30] = 0\n 30862: u8 [a0 + 29] = 0\n 30865: u8 [a0 + 28] = 0\n 30868: u8 [a0 + 27] = 0\n 30871: u8 [a0 + 26] = 0\n 30874: u8 [a0 + 25] = 0\n 30877: u8 [a0 + 24] = 0\n 30880: u8 [a0 + 23] = 0\n 30883: u8 [a0 + 22] = 0\n 30886: u8 [a0 + 21] = 0\n 30889: u8 [a0 + 20] = 0\n 30892: u8 [a0 + 19] = 0\n 30895: u8 [a0 + 18] = 0\n 30898: u8 [a0 + 17] = 0\n 30901: u8 [a0 + 16] = 0\n 30904: u8 [a0 + 15] = 0\n 30907: u8 [a0 + 14] = 0\n 30910: u8 [a0 + 13] = 0\n 30913: u8 [a0 + 12] = 0\n 30916: u8 [a0 + 11] = 0\n 30919: u8 [a0 + 10] = 0\n 30922: u8 [a0 + 9] = 0\n 30925: u8 [a0 + 8] = 0\n 30928: u8 [a0 + 7] = 0\n 30931: u8 [a0 + 6] = 0\n 30934: u8 [a0 + 5] = 0\n 30937: u8 [a0 + 4] = 0\n 30940: u8 [a0 + 3] = 0\n 30943: u8 [a0 + 2] = 0\n 30946: u8 [a0 + 1] = 0\n 30949: u8 [a0 + 0] = 0\n 30951: a1 = 0x40\n 30954: a0 = 0\n 30956: ra = 354, jump @0\n      : @518 [@dyn 177] (gas: 31)\n 30962: i32 a0 = a0 + 0\n 30964: i32 a2 = sp + 0xc0\n 30968: a1 = 0x40\n 30971: ecalli 6 // 'hash_keccak_256'\n 30973: a0 = u64 [sp + 0xc0]\n 30977: u64 [sp + 0x38] = a0\n 30980: a0 = u64 [sp + 0xc8]\n 30984: u64 [sp + 0x30] = a0\n 30987: a0 = u64 [sp + 0xd0]\n 30991: u64 [sp + 0x28] = a0\n 30994: a0 = u64 [sp + 0xd8]\n 30998: u64 [sp + 0x20] = a0\n 31001: i32 a0 = sp + 0xe0\n 31005: ecalli 3 // 'caller'\n 31007: a0 = u64 [sp + 0xe8]\n 31011: a1 = i32 [sp + 0xf0]\n 31015: s1 = u64 [sp + 0xe0]\n 31019: a0 = reverse a0\n 31021: a2 = a0 << 0x20\n 31024: a1 = reverse a1\n 31026: a1 = a1 >> 0x20\n 31029: a1 = a1 | a2\n 31032: u64 [sp + 0x18] = a1\n 31035: a0 = a0 >> 0x20\n 31038: a1 = reverse s1\n 31040: a1 = a1 << 0x20\n 31043: a0 = a0 | a1\n 31046: u64 [sp + 0x10] = a0\n 31049: a1 = 0x20\n 31052: a0 = 0\n 31054: ra = 356, jump @0\n      : @519 [@dyn 178] (gas: 56)\n 31060: a1 = u64 [sp + 0x10]\n 31063: a1 = reverse a1\n 31065: a2 = u64 [sp + 0x18]\n 31068: a2 = reverse a2\n 31070: a3 = s1 >> 0x18\n 31073: u8 [a0 + 0xf] = a3\n 31076: a3 = s1 >> 0x10\n 31079: u8 [a0 + 0xe] = a3\n 31082: a3 = s1 >> 0x8\n 31085: u8 [a0 + 0xd] = a3\n 31088: u8 [a0 + 0xc] = s1\n 31091: u8 [a0 + 11] = 0\n 31094: u8 [a0 + 10] = 0\n 31097: u8 [a0 + 9] = 0\n 31100: u8 [a0 + 8] = 0\n 31103: u8 [a0 + 7] = 0\n 31106: u8 [a0 + 6] = 0\n 31109: u8 [a0 + 5] = 0\n 31112: u8 [a0 + 4] = 0\n 31115: u8 [a0 + 3] = 0\n 31118: u8 [a0 + 2] = 0\n 31121: u8 [a0 + 1] = 0\n 31124: u8 [a0 + 0] = 0\n 31126: u8 [a0 + 0x18] = a2\n 31129: u8 [a0 + 0x10] = a1\n 31132: a3 = a2 >> 0x38\n 31135: u8 [a0 + 0x1f] = a3\n 31138: a3 = a2 >> 0x30\n 31141: u8 [a0 + 0x1e] = a3\n 31144: a3 = a2 >> 0x28\n 31147: u8 [a0 + 0x1d] = a3\n 31150: a3 = a2 >> 0x20\n 31153: u8 [a0 + 0x1c] = a3\n 31156: a3 = a2 >> 0x18\n 31159: u8 [a0 + 0x1b] = a3\n 31162: a3 = a2 >> 0x10\n 31165: u8 [a0 + 0x1a] = a3\n 31168: a2 = a2 >> 0x8\n 31171: u8 [a0 + 0x19] = a2\n 31174: a2 = a1 >> 0x38\n 31177: u8 [a0 + 0x17] = a2\n 31180: a2 = a1 >> 0x30\n 31183: u8 [a0 + 0x16] = a2\n 31186: a2 = a1 >> 0x28\n 31189: u8 [a0 + 0x15] = a2\n 31192: a2 = a1 >> 0x20\n 31195: u8 [a0 + 0x14] = a2\n 31198: a2 = a1 >> 0x18\n 31201: u8 [a0 + 0x13] = a2\n 31204: a2 = a1 >> 0x10\n 31207: u8 [a0 + 0x12] = a2\n 31210: a1 = a1 >> 0x8\n 31213: u8 [a0 + 0x11] = a1\n 31216: a0 = 0x20\n 31219: a1 = 0x20\n 31222: ra = 358, jump @0\n      : @520 [@dyn 179] (gas: 67)\n 31228: a2 = u64 [sp + 0x20]\n 31231: a1 = a2 >> 0x38\n 31234: u8 [a0 + 0x1f] = a1\n 31237: a1 = a2 >> 0x30\n 31240: u8 [a0 + 0x1e] = a1\n 31243: a1 = a2 >> 0x28\n 31246: u8 [a0 + 0x1d] = a1\n 31249: a1 = a2 >> 0x20\n 31252: u8 [a0 + 0x1c] = a1\n 31255: a1 = a2 >> 0x18\n 31258: u8 [a0 + 0x1b] = a1\n 31261: a1 = a2 >> 0x10\n 31264: u8 [a0 + 0x1a] = a1\n 31267: a1 = a2 >> 0x8\n 31270: u8 [a0 + 0x19] = a1\n 31273: u8 [a0 + 0x18] = a2\n 31276: a2 = u64 [sp + 0x28]\n 31279: a1 = a2 >> 0x38\n 31282: u8 [a0 + 0x17] = a1\n 31285: a1 = a2 >> 0x30\n 31288: u8 [a0 + 0x16] = a1\n 31291: a1 = a2 >> 0x28\n 31294: u8 [a0 + 0x15] = a1\n 31297: a1 = a2 >> 0x20\n 31300: u8 [a0 + 0x14] = a1\n 31303: a1 = a2 >> 0x18\n 31306: u8 [a0 + 0x13] = a1\n 31309: a1 = a2 >> 0x10\n 31312: u8 [a0 + 0x12] = a1\n 31315: a1 = a2 >> 0x8\n 31318: u8 [a0 + 0x11] = a1\n 31321: u8 [a0 + 0x10] = a2\n 31324: a2 = u64 [sp + 0x30]\n 31327: a1 = a2 >> 0x38\n 31330: u8 [a0 + 0xf] = a1\n 31333: a1 = a2 >> 0x30\n 31336: u8 [a0 + 0xe] = a1\n 31339: a1 = a2 >> 0x28\n 31342: u8 [a0 + 0xd] = a1\n 31345: a1 = a2 >> 0x20\n 31348: u8 [a0 + 0xc] = a1\n 31351: a1 = a2 >> 0x18\n 31354: u8 [a0 + 0xb] = a1\n 31357: a1 = a2 >> 0x10\n 31360: u8 [a0 + 0xa] = a1\n 31363: a1 = a2 >> 0x8\n 31366: u8 [a0 + 0x9] = a1\n 31369: u8 [a0 + 0x8] = a2\n 31372: a2 = u64 [sp + 0x38]\n 31375: a1 = a2 >> 0x38\n 31378: u8 [a0 + 0x7] = a1\n 31381: a1 = a2 >> 0x30\n 31384: u8 [a0 + 0x6] = a1\n 31387: a1 = a2 >> 0x28\n 31390: u8 [a0 + 0x5] = a1\n 31393: a1 = a2 >> 0x20\n 31396: u8 [a0 + 0x4] = a1\n 31399: a1 = a2 >> 0x18\n 31402: u8 [a0 + 0x3] = a1\n 31405: a1 = a2 >> 0x10\n 31408: u8 [a0 + 0x2] = a1\n 31411: a1 = a2 >> 0x8\n 31414: u8 [a0 + 0x1] = a1\n 31417: u8 [a0] = a2\n 31419: a1 = 0x40\n 31422: a0 = 0\n 31424: ra = 360, jump @0\n      : @521 [@dyn 180] (gas: 24)\n 31430: i32 a0 = a0 + 0\n 31432: i32 a2 = sp + 0xa0\n 31436: a1 = 0x40\n 31439: ecalli 6 // 'hash_keccak_256'\n 31441: a0 = u64 [sp + 0xb8]\n 31445: a1 = u64 [sp + 0xb0]\n 31449: a2 = u64 [sp + 0xa8]\n 31453: a3 = u64 [sp + 0xa0]\n 31457: u64 [sp + 0x138] = a0\n 31461: u64 [sp + 0x130] = a1\n 31465: u64 [sp + 0x128] = a2\n 31469: u64 [sp + 0x120] = a3\n 31473: u64 [sp + 344] = 0\n 31477: u64 [sp + 336] = 0\n 31481: u64 [sp + 328] = 0\n 31485: u64 [sp + 320] = 0\n 31489: u32 [sp + 352] = 0x20\n 31494: i32 a1 = sp + 0x120\n 31498: i32 a3 = sp + 0x140\n 31502: i32 a4 = sp + 0x160\n 31506: a2 = 0xffffffffffffffff\n 31509: a0 = 0\n 31511: ecalli 5 // 'get_storage'\n 31513: fallthrough\n      : @522 (gas: 9)\n 31514: a0 = u64 [sp + 0x158]\n 31518: a1 = u64 [sp + 0x150]\n 31522: s1 = 0xffffffffffffff\n 31532: s1 = s1 ^ a0\n 31535: a1 = s1 | ~a1\n 31538: a0 = a0 >> 0x38\n 31541: a0 = a0 >u 0\n 31543: a0 = 0 if a1 == 0\n 31545: jump @524 if a0 == 0\n      : @523 (gas: 6)\n 31548: sp = s0 + 0xfffffffffffffe80\n 31552: ra = u64 [sp + 0x178]\n 31556: s0 = u64 [sp + 0x170]\n 31560: s1 = u64 [sp + 0x168]\n 31564: sp = sp + 0x180\n 31568: ret\n      : @524 (gas: 8)\n 31570: u64 [sp + 144] = 0\n 31574: u64 [sp + 136] = 0\n 31578: u64 [sp + 128] = 0\n 31582: a0 = 0xe2517d3f00000000\n 31592: a1 = sp + 0x80\n 31596: u64 [sp + 0x98] = a0\n 31600: a0 = 0\n 31602: ra = 362, jump @8\n      : @525 [@dyn 181] (gas: 22)\n 31608: i32 a0 = sp + 0x100\n 31612: ecalli 3 // 'caller'\n 31614: a0 = u64 [sp + 0x108]\n 31618: a1 = i32 [sp + 0x110]\n 31622: a2 = u64 [sp + 0x100]\n 31626: a0 = reverse a0\n 31628: a3 = a0 << 0x20\n 31631: a1 = reverse a1\n 31633: a1 = a1 >> 0x20\n 31636: a3 = a3 | a1\n 31639: a0 = a0 >> 0x20\n 31642: a1 = reverse a2\n 31644: a2 = a1 << 0x20\n 31647: a0 = a0 | a2\n 31650: a1 = a1 >> 0x20\n 31653: u64 [sp + 120] = 0\n 31656: u64 [sp + 0x70] = a1\n 31659: u64 [sp + 0x68] = a0\n 31662: a0 = 0x4\n 31665: a1 = sp + 0x60\n 31668: u64 [sp + 0x60] = a3\n 31671: ra = 364, jump @8\n      : @526 [@dyn 182] (gas: 11)\n 31677: a0 = u64 [0x20060]\n 31682: a1 = u64 [0x20068]\n 31687: u64 [sp + 0x58] = a0\n 31690: a0 = u64 [0x20070]\n 31695: u64 [sp + 0x50] = a1\n 31698: a2 = u64 [0x20078]\n 31703: u64 [sp + 0x48] = a0\n 31706: a0 = 0x24\n 31709: a1 = sp + 0x40\n 31712: u64 [sp + 0x40] = a2\n 31715: ra = 366, jump @8\n      : @527 [@dyn 183] (gas: 3)\n 31721: a1 = 0x44\n 31724: a0 = 0\n 31726: ra = 368, jump @0\n      : @528 [@dyn 184] (gas: 6)\n 31732: i32 a1 = a0 + 0\n 31734: a0 = 0x1\n 31737: a2 = 0x44\n 31740: ra = 0x172\n 31744: ecalli 7 // 'seal_return'\n 31746: fallthrough\n      : @529 [@dyn 185] (gas: 16)\n 31747: sp = sp + 0xfffffffffffffe60\n 31751: u64 [sp + 0x198] = ra\n 31755: u64 [sp + 0x190] = s0\n 31759: u64 [sp + 0x188] = s1\n 31763: s0 = sp + 0x1a0\n 31767: sp = sp & 0xffffffffffffffe0\n 31770: a1 = u64 [a0]\n 31772: u64 [sp + 0x58] = a1\n 31775: a1 = u64 [a0 + 0x8]\n 31778: u64 [sp + 0x50] = a1\n 31781: a1 = u64 [a0 + 0x10]\n 31784: u64 [sp + 0x48] = a1\n 31787: s1 = u64 [a0 + 0x18]\n 31790: a1 = 0x20\n 31793: a0 = 0\n 31795: ra = 372, jump @0\n      : @530 [@dyn 186] (gas: 71)\n 31801: u64 [sp + 0x10] = s1\n 31804: a1 = reverse s1\n 31806: a2 = u64 [sp + 0x48]\n 31809: a2 = reverse a2\n 31811: a3 = u64 [sp + 0x50]\n 31814: a3 = reverse a3\n 31816: a4 = u64 [sp + 0x58]\n 31819: a4 = reverse a4\n 31821: u8 [a0 + 0x18] = a4\n 31824: u8 [a0 + 0x10] = a3\n 31827: u8 [a0 + 0x8] = a2\n 31830: u8 [a0] = a1\n 31832: a5 = a4 >> 0x38\n 31835: u8 [a0 + 0x1f] = a5\n 31838: a5 = a4 >> 0x30\n 31841: u8 [a0 + 0x1e] = a5\n 31844: a5 = a4 >> 0x28\n 31847: u8 [a0 + 0x1d] = a5\n 31850: a5 = a4 >> 0x20\n 31853: u8 [a0 + 0x1c] = a5\n 31856: a5 = a4 >> 0x18\n 31859: u8 [a0 + 0x1b] = a5\n 31862: a5 = a4 >> 0x10\n 31865: u8 [a0 + 0x1a] = a5\n 31868: a4 = a4 >> 0x8\n 31871: u8 [a0 + 0x19] = a4\n 31874: a4 = a3 >> 0x38\n 31877: u8 [a0 + 0x17] = a4\n 31880: a4 = a3 >> 0x30\n 31883: u8 [a0 + 0x16] = a4\n 31886: a4 = a3 >> 0x28\n 31889: u8 [a0 + 0x15] = a4\n 31892: a4 = a3 >> 0x20\n 31895: u8 [a0 + 0x14] = a4\n 31898: a4 = a3 >> 0x18\n 31901: u8 [a0 + 0x13] = a4\n 31904: a4 = a3 >> 0x10\n 31907: u8 [a0 + 0x12] = a4\n 31910: a3 = a3 >> 0x8\n 31913: u8 [a0 + 0x11] = a3\n 31916: a3 = a2 >> 0x38\n 31919: u8 [a0 + 0xf] = a3\n 31922: a3 = a2 >> 0x30\n 31925: u8 [a0 + 0xe] = a3\n 31928: a3 = a2 >> 0x28\n 31931: u8 [a0 + 0xd] = a3\n 31934: a3 = a2 >> 0x20\n 31937: u8 [a0 + 0xc] = a3\n 31940: a3 = a2 >> 0x18\n 31943: u8 [a0 + 0xb] = a3\n 31946: a3 = a2 >> 0x10\n 31949: u8 [a0 + 0xa] = a3\n 31952: a2 = a2 >> 0x8\n 31955: u8 [a0 + 0x9] = a2\n 31958: a2 = a1 >> 0x38\n 31961: u8 [a0 + 0x7] = a2\n 31964: a2 = a1 >> 0x30\n 31967: u8 [a0 + 0x6] = a2\n 31970: a2 = a1 >> 0x28\n 31973: u8 [a0 + 0x5] = a2\n 31976: a2 = a1 >> 0x20\n 31979: u8 [a0 + 0x4] = a2\n 31982: a2 = a1 >> 0x18\n 31985: u8 [a0 + 0x3] = a2\n 31988: a2 = a1 >> 0x10\n 31991: u8 [a0 + 0x2] = a2\n 31994: a1 = a1 >> 0x8\n 31997: u8 [a0 + 0x1] = a1\n 32000: a0 = 0x20\n 32003: a1 = 0x20\n 32006: ra = 374, jump @0\n      : @531 [@dyn 187] (gas: 35)\n 32012: u8 [a0 + 31] = 0\n 32015: u8 [a0 + 30] = 0\n 32018: u8 [a0 + 29] = 0\n 32021: u8 [a0 + 28] = 0\n 32024: u8 [a0 + 27] = 0\n 32027: u8 [a0 + 26] = 0\n 32030: u8 [a0 + 25] = 0\n 32033: u8 [a0 + 24] = 0\n 32036: u8 [a0 + 23] = 0\n 32039: u8 [a0 + 22] = 0\n 32042: u8 [a0 + 21] = 0\n 32045: u8 [a0 + 20] = 0\n 32048: u8 [a0 + 19] = 0\n 32051: u8 [a0 + 18] = 0\n 32054: u8 [a0 + 17] = 0\n 32057: u8 [a0 + 16] = 0\n 32060: u8 [a0 + 15] = 0\n 32063: u8 [a0 + 14] = 0\n 32066: u8 [a0 + 13] = 0\n 32069: u8 [a0 + 12] = 0\n 32072: u8 [a0 + 11] = 0\n 32075: u8 [a0 + 10] = 0\n 32078: u8 [a0 + 9] = 0\n 32081: u8 [a0 + 8] = 0\n 32084: u8 [a0 + 7] = 0\n 32087: u8 [a0 + 6] = 0\n 32090: u8 [a0 + 5] = 0\n 32093: u8 [a0 + 4] = 0\n 32096: u8 [a0 + 3] = 0\n 32099: u8 [a0 + 2] = 0\n 32102: u8 [a0 + 1] = 0\n 32105: u8 [a0 + 0] = 0\n 32107: a1 = 0x40\n 32110: a0 = 0\n 32112: ra = 376, jump @0\n      : @532 [@dyn 188] (gas: 31)\n 32118: i32 a0 = a0 + 0\n 32120: i32 a2 = sp + 0xe0\n 32124: a1 = 0x40\n 32127: ecalli 6 // 'hash_keccak_256'\n 32129: a0 = u64 [sp + 0xe0]\n 32133: u64 [sp + 0x40] = a0\n 32136: a0 = u64 [sp + 0xe8]\n 32140: u64 [sp + 0x38] = a0\n 32143: a0 = u64 [sp + 0xf0]\n 32147: u64 [sp + 0x30] = a0\n 32150: a0 = u64 [sp + 0xf8]\n 32154: u64 [sp + 0x28] = a0\n 32157: i32 a0 = sp + 0x100\n 32161: ecalli 3 // 'caller'\n 32163: a0 = u64 [sp + 0x108]\n 32167: a1 = i32 [sp + 0x110]\n 32171: s1 = u64 [sp + 0x100]\n 32175: a0 = reverse a0\n 32177: a2 = a0 << 0x20\n 32180: a1 = reverse a1\n 32182: a1 = a1 >> 0x20\n 32185: a1 = a1 | a2\n 32188: u64 [sp + 0x20] = a1\n 32191: a0 = a0 >> 0x20\n 32194: a1 = reverse s1\n 32196: a1 = a1 << 0x20\n 32199: a0 = a0 | a1\n 32202: u64 [sp + 0x18] = a0\n 32205: a1 = 0x20\n 32208: a0 = 0\n 32210: ra = 378, jump @0\n      : @533 [@dyn 189] (gas: 56)\n 32216: a1 = u64 [sp + 0x18]\n 32219: a1 = reverse a1\n 32221: a2 = u64 [sp + 0x20]\n 32224: a2 = reverse a2\n 32226: a3 = s1 >> 0x18\n 32229: u8 [a0 + 0xf] = a3\n 32232: a3 = s1 >> 0x10\n 32235: u8 [a0 + 0xe] = a3\n 32238: a3 = s1 >> 0x8\n 32241: u8 [a0 + 0xd] = a3\n 32244: u8 [a0 + 0xc] = s1\n 32247: u8 [a0 + 11] = 0\n 32250: u8 [a0 + 10] = 0\n 32253: u8 [a0 + 9] = 0\n 32256: u8 [a0 + 8] = 0\n 32259: u8 [a0 + 7] = 0\n 32262: u8 [a0 + 6] = 0\n 32265: u8 [a0 + 5] = 0\n 32268: u8 [a0 + 4] = 0\n 32271: u8 [a0 + 3] = 0\n 32274: u8 [a0 + 2] = 0\n 32277: u8 [a0 + 1] = 0\n 32280: u8 [a0 + 0] = 0\n 32282: u8 [a0 + 0x18] = a2\n 32285: u8 [a0 + 0x10] = a1\n 32288: a3 = a2 >> 0x38\n 32291: u8 [a0 + 0x1f] = a3\n 32294: a3 = a2 >> 0x30\n 32297: u8 [a0 + 0x1e] = a3\n 32300: a3 = a2 >> 0x28\n 32303: u8 [a0 + 0x1d] = a3\n 32306: a3 = a2 >> 0x20\n 32309: u8 [a0 + 0x1c] = a3\n 32312: a3 = a2 >> 0x18\n 32315: u8 [a0 + 0x1b] = a3\n 32318: a3 = a2 >> 0x10\n 32321: u8 [a0 + 0x1a] = a3\n 32324: a2 = a2 >> 0x8\n 32327: u8 [a0 + 0x19] = a2\n 32330: a2 = a1 >> 0x38\n 32333: u8 [a0 + 0x17] = a2\n 32336: a2 = a1 >> 0x30\n 32339: u8 [a0 + 0x16] = a2\n 32342: a2 = a1 >> 0x28\n 32345: u8 [a0 + 0x15] = a2\n 32348: a2 = a1 >> 0x20\n 32351: u8 [a0 + 0x14] = a2\n 32354: a2 = a1 >> 0x18\n 32357: u8 [a0 + 0x13] = a2\n 32360: a2 = a1 >> 0x10\n 32363: u8 [a0 + 0x12] = a2\n 32366: a1 = a1 >> 0x8\n 32369: u8 [a0 + 0x11] = a1\n 32372: a0 = 0x20\n 32375: a1 = 0x20\n 32378: ra = 380, jump @0\n      : @534 [@dyn 190] (gas: 67)\n 32384: a2 = u64 [sp + 0x28]\n 32387: a1 = a2 >> 0x38\n 32390: u8 [a0 + 0x1f] = a1\n 32393: a1 = a2 >> 0x30\n 32396: u8 [a0 + 0x1e] = a1\n 32399: a1 = a2 >> 0x28\n 32402: u8 [a0 + 0x1d] = a1\n 32405: a1 = a2 >> 0x20\n 32408: u8 [a0 + 0x1c] = a1\n 32411: a1 = a2 >> 0x18\n 32414: u8 [a0 + 0x1b] = a1\n 32417: a1 = a2 >> 0x10\n 32420: u8 [a0 + 0x1a] = a1\n 32423: a1 = a2 >> 0x8\n 32426: u8 [a0 + 0x19] = a1\n 32429: u8 [a0 + 0x18] = a2\n 32432: a2 = u64 [sp + 0x30]\n 32435: a1 = a2 >> 0x38\n 32438: u8 [a0 + 0x17] = a1\n 32441: a1 = a2 >> 0x30\n 32444: u8 [a0 + 0x16] = a1\n 32447: a1 = a2 >> 0x28\n 32450: u8 [a0 + 0x15] = a1\n 32453: a1 = a2 >> 0x20\n 32456: u8 [a0 + 0x14] = a1\n 32459: a1 = a2 >> 0x18\n 32462: u8 [a0 + 0x13] = a1\n 32465: a1 = a2 >> 0x10\n 32468: u8 [a0 + 0x12] = a1\n 32471: a1 = a2 >> 0x8\n 32474: u8 [a0 + 0x11] = a1\n 32477: u8 [a0 + 0x10] = a2\n 32480: a2 = u64 [sp + 0x38]\n 32483: a1 = a2 >> 0x38\n 32486: u8 [a0 + 0xf] = a1\n 32489: a1 = a2 >> 0x30\n 32492: u8 [a0 + 0xe] = a1\n 32495: a1 = a2 >> 0x28\n 32498: u8 [a0 + 0xd] = a1\n 32501: a1 = a2 >> 0x20\n 32504: u8 [a0 + 0xc] = a1\n 32507: a1 = a2 >> 0x18\n 32510: u8 [a0 + 0xb] = a1\n 32513: a1 = a2 >> 0x10\n 32516: u8 [a0 + 0xa] = a1\n 32519: a1 = a2 >> 0x8\n 32522: u8 [a0 + 0x9] = a1\n 32525: u8 [a0 + 0x8] = a2\n 32528: a2 = u64 [sp + 0x40]\n 32531: a1 = a2 >> 0x38\n 32534: u8 [a0 + 0x7] = a1\n 32537: a1 = a2 >> 0x30\n 32540: u8 [a0 + 0x6] = a1\n 32543: a1 = a2 >> 0x28\n 32546: u8 [a0 + 0x5] = a1\n 32549: a1 = a2 >> 0x20\n 32552: u8 [a0 + 0x4] = a1\n 32555: a1 = a2 >> 0x18\n 32558: u8 [a0 + 0x3] = a1\n 32561: a1 = a2 >> 0x10\n 32564: u8 [a0 + 0x2] = a1\n 32567: a1 = a2 >> 0x8\n 32570: u8 [a0 + 0x1] = a1\n 32573: u8 [a0] = a2\n 32575: a1 = 0x40\n 32578: a0 = 0\n 32580: ra = 382, jump @0\n      : @535 [@dyn 191] (gas: 24)\n 32586: i32 a0 = a0 + 0\n 32588: i32 a2 = sp + 0xc0\n 32592: a1 = 0x40\n 32595: ecalli 6 // 'hash_keccak_256'\n 32597: a0 = u64 [sp + 0xd8]\n 32601: a1 = u64 [sp + 0xd0]\n 32605: a2 = u64 [sp + 0xc8]\n 32609: a3 = u64 [sp + 0xc0]\n 32613: u64 [sp + 0x158] = a0\n 32617: u64 [sp + 0x150] = a1\n 32621: u64 [sp + 0x148] = a2\n 32625: u64 [sp + 0x140] = a3\n 32629: u64 [sp + 376] = 0\n 32633: u64 [sp + 368] = 0\n 32637: u64 [sp + 360] = 0\n 32641: u64 [sp + 352] = 0\n 32645: u32 [sp + 384] = 0x20\n 32650: i32 a1 = sp + 0x140\n 32654: i32 a3 = sp + 0x160\n 32658: i32 a4 = sp + 0x180\n 32662: a2 = 0xffffffffffffffff\n 32665: a0 = 0\n 32667: ecalli 5 // 'get_storage'\n 32669: fallthrough\n      : @536 (gas: 9)\n 32670: a0 = u64 [sp + 0x178]\n 32674: a1 = u64 [sp + 0x170]\n 32678: s1 = 0xffffffffffffff\n 32688: s1 = s1 ^ a0\n 32691: a1 = s1 | ~a1\n 32694: a0 = a0 >> 0x38\n 32697: a0 = a0 >u 0\n 32699: a0 = 0 if a1 == 0\n 32701: jump @538 if a0 == 0\n      : @537 (gas: 6)\n 32704: sp = s0 + 0xfffffffffffffe60\n 32708: ra = u64 [sp + 0x198]\n 32712: s0 = u64 [sp + 0x190]\n 32716: s1 = u64 [sp + 0x188]\n 32720: sp = sp + 0x1a0\n 32724: ret\n      : @538 (gas: 8)\n 32726: u64 [sp + 176] = 0\n 32730: u64 [sp + 168] = 0\n 32734: u64 [sp + 160] = 0\n 32738: a0 = 0xe2517d3f00000000\n 32748: a1 = sp + 0xa0\n 32752: u64 [sp + 0xb8] = a0\n 32756: a0 = 0\n 32758: ra = 384, jump @8\n      : @539 [@dyn 192] (gas: 22)\n 32764: i32 a0 = sp + 0x120\n 32768: ecalli 3 // 'caller'\n 32770: a0 = u64 [sp + 0x128]\n 32774: a1 = i32 [sp + 0x130]\n 32778: a2 = u64 [sp + 0x120]\n 32782: a0 = reverse a0\n 32784: a3 = a0 << 0x20\n 32787: a1 = reverse a1\n 32789: a1 = a1 >> 0x20\n 32792: a3 = a3 | a1\n 32795: a0 = a0 >> 0x20\n 32798: a1 = reverse a2\n 32800: a2 = a1 << 0x20\n 32803: a0 = a0 | a2\n 32806: a1 = a1 >> 0x20\n 32809: u64 [sp + 152] = 0\n 32813: u64 [sp + 0x90] = a1\n 32817: u64 [sp + 0x88] = a0\n 32821: a0 = 0x4\n 32824: a1 = sp + 0x80\n 32828: u64 [sp + 0x80] = a3\n 32832: ra = 386, jump @8\n      : @540 [@dyn 193] (gas: 11)\n 32838: a0 = u64 [sp + 0x10]\n 32841: u64 [sp + 0x78] = a0\n 32844: a0 = u64 [sp + 0x48]\n 32847: u64 [sp + 0x70] = a0\n 32850: a0 = u64 [sp + 0x50]\n 32853: u64 [sp + 0x68] = a0\n 32856: a0 = 0x24\n 32859: a1 = sp + 0x60\n 32862: a2 = u64 [sp + 0x58]\n 32865: u64 [sp + 0x60] = a2\n 32868: ra = 388, jump @8\n      : @541 [@dyn 194] (gas: 3)\n 32875: a1 = 0x44\n 32878: a0 = 0\n 32880: ra = 390, jump @0\n      : @542 [@dyn 195] (gas: 6)\n 32887: i32 a1 = a0 + 0\n 32889: a0 = 0x1\n 32892: a2 = 0x44\n 32895: ra = 0x188\n 32899: ecalli 7 // 'seal_return'\n 32901: fallthrough\n      : @543 [@dyn 196] (gas: 25)\n 32902: sp = sp + 0xfffffffffffffce0\n 32906: u64 [sp + 0x318] = ra\n 32910: u64 [sp + 0x310] = s0\n 32914: u64 [sp + 0x308] = s1\n 32918: s0 = sp + 0x320\n 32922: sp = sp & 0xffffffffffffffe0\n 32925: s1 = sp\n 32927: a3 = u64 [a2]\n 32929: u64 [s1 + 0x1a8] = a3\n 32933: a3 = u64 [a2 + 0x8]\n 32936: u64 [s1 + 0x1a0] = a3\n 32940: a2 = u32 [a2 + 0x10]\n 32943: u64 [s1 + 0x1b0] = a2\n 32947: a2 = u64 [a1]\n 32949: u64 [s1 + 0x1d0] = a2\n 32953: a2 = u64 [a1 + 0x8]\n 32956: u64 [s1 + 0x1c8] = a2\n 32960: a2 = u64 [a1 + 0x10]\n 32963: u64 [s1 + 0x1c0] = a2\n 32967: a1 = u64 [a1 + 0x18]\n 32970: u64 [s1 + 0x1b8] = a1\n 32974: u64 [s1 + 0x1d8] = a0\n 32978: a1 = 0x20\n 32981: a0 = 0\n 32983: ra = 394, jump @0\n      : @544 [@dyn 197] (gas: 103)\n 32990: a1 = u64 [s1 + 0x1b8]\n 32994: a1 = reverse a1\n 32996: a2 = u64 [s1 + 0x1c0]\n 33000: a2 = reverse a2\n 33002: a3 = u64 [s1 + 0x1c8]\n 33006: a3 = reverse a3\n 33008: a4 = u64 [s1 + 0x1d0]\n 33012: a4 = reverse a4\n 33014: a5 = a4 >> 0x38\n 33017: u64 [s1 + 0x178] = a5\n 33021: u8 [a0 + 0x1f] = a5\n 33024: a5 = a4 >> 0x30\n 33027: u64 [s1 + 0x170] = a5\n 33031: u8 [a0 + 0x1e] = a5\n 33034: a5 = a4 >> 0x28\n 33037: u64 [s1 + 0x168] = a5\n 33041: u8 [a0 + 0x1d] = a5\n 33044: a5 = a4 >> 0x20\n 33047: u64 [s1 + 0x160] = a5\n 33051: u8 [a0 + 0x1c] = a5\n 33054: a5 = a4 >> 0x18\n 33057: u64 [s1 + 0x158] = a5\n 33061: u8 [a0 + 0x1b] = a5\n 33064: a5 = a4 >> 0x10\n 33067: u64 [s1 + 0x150] = a5\n 33071: u8 [a0 + 0x1a] = a5\n 33074: a5 = a4 >> 0x8\n 33077: u64 [s1 + 0x148] = a5\n 33081: u8 [a0 + 0x19] = a5\n 33084: u64 [s1 + 0x1b8] = a4\n 33088: u8 [a0 + 0x18] = a4\n 33091: a4 = a3 >> 0x38\n 33094: u64 [s1 + 0x140] = a4\n 33098: u8 [a0 + 0x17] = a4\n 33101: a4 = a3 >> 0x30\n 33104: u64 [s1 + 0x138] = a4\n 33108: u8 [a0 + 0x16] = a4\n 33111: a4 = a3 >> 0x28\n 33114: u64 [s1 + 0x130] = a4\n 33118: u8 [a0 + 0x15] = a4\n 33121: a4 = a3 >> 0x20\n 33124: u64 [s1 + 0x128] = a4\n 33128: u8 [a0 + 0x14] = a4\n 33131: a4 = a3 >> 0x18\n 33134: u64 [s1 + 0x120] = a4\n 33138: u8 [a0 + 0x13] = a4\n 33141: a4 = a3 >> 0x10\n 33144: u64 [s1 + 0x118] = a4\n 33148: u8 [a0 + 0x12] = a4\n 33151: a4 = a3 >> 0x8\n 33154: u64 [s1 + 0x110] = a4\n 33158: u8 [a0 + 0x11] = a4\n 33161: u64 [s1 + 0x1c0] = a3\n 33165: u8 [a0 + 0x10] = a3\n 33168: a3 = a2 >> 0x38\n 33171: u64 [s1 + 0x108] = a3\n 33175: u8 [a0 + 0xf] = a3\n 33178: a3 = a2 >> 0x30\n 33181: u64 [s1 + 0x100] = a3\n 33185: u8 [a0 + 0xe] = a3\n 33188: a3 = a2 >> 0x28\n 33191: u64 [s1 + 0xf0] = a3\n 33195: u8 [a0 + 0xd] = a3\n 33198: a3 = a2 >> 0x20\n 33201: u64 [s1 + 0xe0] = a3\n 33205: u8 [a0 + 0xc] = a3\n 33208: a3 = a2 >> 0x18\n 33211: u64 [s1 + 0xd0] = a3\n 33215: u8 [a0 + 0xb] = a3\n 33218: a3 = a2 >> 0x10\n 33221: u64 [s1 + 0xc0] = a3\n 33225: u8 [a0 + 0xa] = a3\n 33228: a3 = a2 >> 0x8\n 33231: u64 [s1 + 0xb0] = a3\n 33235: u8 [a0 + 0x9] = a3\n 33238: u64 [s1 + 0x1c8] = a2\n 33242: u8 [a0 + 0x8] = a2\n 33245: a2 = a1 >> 0x38\n 33248: u64 [s1 + 0x40] = a2\n 33251: u8 [a0 + 0x7] = a2\n 33254: a2 = a1 >> 0x30\n 33257: u64 [s1 + 0x38] = a2\n 33260: u8 [a0 + 0x6] = a2\n 33263: a2 = a1 >> 0x28\n 33266: u64 [s1 + 0x30] = a2\n 33269: u8 [a0 + 0x5] = a2\n 33272: a2 = a1 >> 0x20\n 33275: u64 [s1 + 0x28] = a2\n 33278: u8 [a0 + 0x4] = a2\n 33281: a2 = a1 >> 0x18\n 33284: u64 [s1 + 0x20] = a2\n 33287: u8 [a0 + 0x3] = a2\n 33290: a2 = a1 >> 0x10\n 33293: u64 [s1 + 0x18] = a2\n 33296: u8 [a0 + 0x2] = a2\n 33299: a2 = a1 >> 0x8\n 33302: u64 [s1 + 0x10] = a2\n 33305: u8 [a0 + 0x1] = a2\n 33308: u64 [s1 + 0x1d0] = a1\n 33312: u8 [a0] = a1\n 33314: a0 = 0x20\n 33317: a1 = 0x20\n 33320: ra = 396, jump @0\n      : @545 [@dyn 198] (gas: 35)\n 33327: u8 [a0 + 31] = 0\n 33330: u8 [a0 + 30] = 0\n 33333: u8 [a0 + 29] = 0\n 33336: u8 [a0 + 28] = 0\n 33339: u8 [a0 + 27] = 0\n 33342: u8 [a0 + 26] = 0\n 33345: u8 [a0 + 25] = 0\n 33348: u8 [a0 + 24] = 0\n 33351: u8 [a0 + 23] = 0\n 33354: u8 [a0 + 22] = 0\n 33357: u8 [a0 + 21] = 0\n 33360: u8 [a0 + 20] = 0\n 33363: u8 [a0 + 19] = 0\n 33366: u8 [a0 + 18] = 0\n 33369: u8 [a0 + 17] = 0\n 33372: u8 [a0 + 16] = 0\n 33375: u8 [a0 + 15] = 0\n 33378: u8 [a0 + 14] = 0\n 33381: u8 [a0 + 13] = 0\n 33384: u8 [a0 + 12] = 0\n 33387: u8 [a0 + 11] = 0\n 33390: u8 [a0 + 10] = 0\n 33393: u8 [a0 + 9] = 0\n 33396: u8 [a0 + 8] = 0\n 33399: u8 [a0 + 7] = 0\n 33402: u8 [a0 + 6] = 0\n 33405: u8 [a0 + 5] = 0\n 33408: u8 [a0 + 4] = 0\n 33411: u8 [a0 + 3] = 0\n 33414: u8 [a0 + 2] = 0\n 33417: u8 [a0 + 1] = 0\n 33420: u8 [a0 + 0] = 0\n 33422: a1 = 0x40\n 33425: a0 = 0\n 33427: ra = 398, jump @0\n      : @546 [@dyn 199] (gas: 15)\n 33434: i32 a0 = a0 + 0\n 33436: i32 a2 = s1 + 0x200\n 33440: a1 = 0x40\n 33443: ecalli 6 // 'hash_keccak_256'\n 33445: a0 = u64 [s1 + 0x200]\n 33449: u64 [s1 + 0x198] = a0\n 33453: a0 = u64 [s1 + 0x208]\n 33457: u64 [s1 + 0x190] = a0\n 33461: a0 = u64 [s1 + 0x210]\n 33465: u64 [s1 + 0x188] = a0\n 33469: a0 = u64 [s1 + 0x218]\n 33473: u64 [s1 + 0x180] = a0\n 33477: a1 = 0x20\n 33480: a0 = 0\n 33482: ra = 400, jump @0\n      : @547 [@dyn 200] (gas: 80)\n 33489: a1 = u64 [s1 + 0x1b0]\n 33493: a1 = reverse a1\n 33495: a2 = u64 [s1 + 0x1a0]\n 33499: a2 = reverse a2\n 33501: a3 = u64 [s1 + 0x1a8]\n 33505: a3 = reverse a3\n 33507: a4 = a3 >> 0x38\n 33510: u64 [s1 + 0xf8] = a4\n 33514: u8 [a0 + 0x1f] = a4\n 33517: a4 = a3 >> 0x30\n 33520: u64 [s1 + 0xe8] = a4\n 33524: u8 [a0 + 0x1e] = a4\n 33527: a4 = a3 >> 0x28\n 33530: u64 [s1 + 0xd8] = a4\n 33534: u8 [a0 + 0x1d] = a4\n 33537: a4 = a3 >> 0x20\n 33540: u64 [s1 + 0xc8] = a4\n 33544: u8 [a0 + 0x1c] = a4\n 33547: a4 = a3 >> 0x18\n 33550: u64 [s1 + 0xb8] = a4\n 33554: u8 [a0 + 0x1b] = a4\n 33557: a4 = a3 >> 0x10\n 33560: u64 [s1 + 0xa8] = a4\n 33564: u8 [a0 + 0x1a] = a4\n 33567: a4 = a3 >> 0x8\n 33570: u64 [s1 + 0xa0] = a4\n 33574: u8 [a0 + 0x19] = a4\n 33577: u64 [s1 + 0x1a0] = a3\n 33581: u8 [a0 + 0x18] = a3\n 33584: a3 = a2 >> 0x38\n 33587: u64 [s1 + 0x98] = a3\n 33591: u8 [a0 + 0x17] = a3\n 33594: a3 = a2 >> 0x30\n 33597: u64 [s1 + 0x90] = a3\n 33601: u8 [a0 + 0x16] = a3\n 33604: a3 = a2 >> 0x28\n 33607: u64 [s1 + 0x88] = a3\n 33611: u8 [a0 + 0x15] = a3\n 33614: a3 = a2 >> 0x20\n 33617: u64 [s1 + 0x80] = a3\n 33621: u8 [a0 + 0x14] = a3\n 33624: a3 = a2 >> 0x18\n 33627: u64 [s1 + 0x78] = a3\n 33630: u8 [a0 + 0x13] = a3\n 33633: a3 = a2 >> 0x10\n 33636: u64 [s1 + 0x70] = a3\n 33639: u8 [a0 + 0x12] = a3\n 33642: a3 = a2 >> 0x8\n 33645: u64 [s1 + 0x68] = a3\n 33648: u8 [a0 + 0x11] = a3\n 33651: u64 [s1 + 0x1a8] = a2\n 33655: u8 [a0 + 0x10] = a2\n 33658: a2 = a1 >> 0x38\n 33661: u64 [s1 + 0x60] = a2\n 33664: u8 [a0 + 0xf] = a2\n 33667: a2 = a1 >> 0x30\n 33670: u64 [s1 + 0x58] = a2\n 33673: u8 [a0 + 0xe] = a2\n 33676: a2 = a1 >> 0x28\n 33679: u64 [s1 + 0x50] = a2\n 33682: u8 [a0 + 0xd] = a2\n 33685: a2 = a1 >> 0x20\n 33688: u64 [s1 + 0x48] = a2\n 33691: u8 [a0 + 0xc] = a2\n 33694: u8 [a0 + 11] = 0\n 33697: u8 [a0 + 10] = 0\n 33700: u8 [a0 + 9] = 0\n 33703: u64 [s1 + 0x1b0] = a1\n 33707: u8 [a0 + 0x8] = a1\n 33710: u8 [a0 + 7] = 0\n 33713: u8 [a0 + 6] = 0\n 33716: u8 [a0 + 5] = 0\n 33719: u8 [a0 + 4] = 0\n 33722: u8 [a0 + 3] = 0\n 33725: u8 [a0 + 2] = 0\n 33728: u8 [a0 + 1] = 0\n 33731: u8 [a0 + 0] = 0\n 33733: a0 = 0x20\n 33736: a1 = 0x20\n 33739: ra = 402, jump @0\n      : @548 [@dyn 201] (gas: 67)\n 33746: a2 = u64 [s1 + 0x180]\n 33750: a1 = a2 >> 0x38\n 33753: u8 [a0 + 0x1f] = a1\n 33756: a1 = a2 >> 0x30\n 33759: u8 [a0 + 0x1e] = a1\n 33762: a1 = a2 >> 0x28\n 33765: u8 [a0 + 0x1d] = a1\n 33768: a1 = a2 >> 0x20\n 33771: u8 [a0 + 0x1c] = a1\n 33774: a1 = a2 >> 0x18\n 33777: u8 [a0 + 0x1b] = a1\n 33780: a1 = a2 >> 0x10\n 33783: u8 [a0 + 0x1a] = a1\n 33786: a1 = a2 >> 0x8\n 33789: u8 [a0 + 0x19] = a1\n 33792: u8 [a0 + 0x18] = a2\n 33795: a2 = u64 [s1 + 0x188]\n 33799: a1 = a2 >> 0x38\n 33802: u8 [a0 + 0x17] = a1\n 33805: a1 = a2 >> 0x30\n 33808: u8 [a0 + 0x16] = a1\n 33811: a1 = a2 >> 0x28\n 33814: u8 [a0 + 0x15] = a1\n 33817: a1 = a2 >> 0x20\n 33820: u8 [a0 + 0x14] = a1\n 33823: a1 = a2 >> 0x18\n 33826: u8 [a0 + 0x13] = a1\n 33829: a1 = a2 >> 0x10\n 33832: u8 [a0 + 0x12] = a1\n 33835: a1 = a2 >> 0x8\n 33838: u8 [a0 + 0x11] = a1\n 33841: u8 [a0 + 0x10] = a2\n 33844: a2 = u64 [s1 + 0x190]\n 33848: a1 = a2 >> 0x38\n 33851: u8 [a0 + 0xf] = a1\n 33854: a1 = a2 >> 0x30\n 33857: u8 [a0 + 0xe] = a1\n 33860: a1 = a2 >> 0x28\n 33863: u8 [a0 + 0xd] = a1\n 33866: a1 = a2 >> 0x20\n 33869: u8 [a0 + 0xc] = a1\n 33872: a1 = a2 >> 0x18\n 33875: u8 [a0 + 0xb] = a1\n 33878: a1 = a2 >> 0x10\n 33881: u8 [a0 + 0xa] = a1\n 33884: a1 = a2 >> 0x8\n 33887: u8 [a0 + 0x9] = a1\n 33890: u8 [a0 + 0x8] = a2\n 33893: a2 = u64 [s1 + 0x198]\n 33897: a1 = a2 >> 0x38\n 33900: u8 [a0 + 0x7] = a1\n 33903: a1 = a2 >> 0x30\n 33906: u8 [a0 + 0x6] = a1\n 33909: a1 = a2 >> 0x28\n 33912: u8 [a0 + 0x5] = a1\n 33915: a1 = a2 >> 0x20\n 33918: u8 [a0 + 0x4] = a1\n 33921: a1 = a2 >> 0x18\n 33924: u8 [a0 + 0x3] = a1\n 33927: a1 = a2 >> 0x10\n 33930: u8 [a0 + 0x2] = a1\n 33933: a1 = a2 >> 0x8\n 33936: u8 [a0 + 0x1] = a1\n 33939: u8 [a0] = a2\n 33941: a1 = 0x40\n 33944: a0 = 0\n 33946: ra = 404, jump @0\n      : @549 [@dyn 202] (gas: 24)\n 33953: i32 a0 = a0 + 0\n 33955: i32 a2 = s1 + 0x1e0\n 33959: a1 = 0x40\n 33962: ecalli 6 // 'hash_keccak_256'\n 33964: a0 = u64 [s1 + 0x1f8]\n 33968: a1 = u64 [s1 + 0x1f0]\n 33972: a2 = u64 [s1 + 0x1e8]\n 33976: a3 = u64 [s1 + 0x1e0]\n 33980: u64 [s1 + 0x278] = a0\n 33984: u64 [s1 + 0x270] = a1\n 33988: u64 [s1 + 0x268] = a2\n 33992: u64 [s1 + 0x260] = a3\n 33996: u64 [s1 + 664] = 0\n 34000: u64 [s1 + 656] = 0\n 34004: u64 [s1 + 648] = 0\n 34008: u64 [s1 + 640] = 0\n 34012: u32 [s1 + 576] = 0x20\n 34017: i32 a1 = s1 + 0x260\n 34021: i32 a3 = s1 + 0x280\n 34025: i32 a4 = s1 + 0x240\n 34029: a2 = 0xffffffffffffffff\n 34032: a0 = 0\n 34034: ecalli 5 // 'get_storage'\n 34036: fallthrough\n      : @550 (gas: 9)\n 34037: a0 = u64 [s1 + 0x298]\n 34041: a1 = u64 [s1 + 0x290]\n 34045: a3 = 0x100000000000000\n 34055: a2 = a0 ^ a3\n 34058: a1 = a1 | a2\n 34061: a0 = a0 >> 0x38\n 34064: a0 = a0 <u 0x1\n 34067: a0 = 0 if a1 == 0\n 34069: jump @559 if a0 == 0\n      : @551 (gas: 4)\n 34073: a1 = 0x20\n 34076: a0 = 0\n 34078: u64 [s1 + 0x198] = a3\n 34082: ra = 406, jump @0\n      : @552 [@dyn 203] (gas: 67)\n 34089: a1 = u64 [s1 + 0x40]\n 34092: u8 [a0 + 0x7] = a1\n 34095: a1 = u64 [s1 + 0x38]\n 34098: u8 [a0 + 0x6] = a1\n 34101: a1 = u64 [s1 + 0x30]\n 34104: u8 [a0 + 0x5] = a1\n 34107: a1 = u64 [s1 + 0x28]\n 34110: u8 [a0 + 0x4] = a1\n 34113: a1 = u64 [s1 + 0x20]\n 34116: u8 [a0 + 0x3] = a1\n 34119: a1 = u64 [s1 + 0x18]\n 34122: u8 [a0 + 0x2] = a1\n 34125: a1 = u64 [s1 + 0x10]\n 34128: u8 [a0 + 0x1] = a1\n 34131: a1 = u64 [s1 + 0x108]\n 34135: u8 [a0 + 0xf] = a1\n 34138: a1 = u64 [s1 + 0x100]\n 34142: u8 [a0 + 0xe] = a1\n 34145: a1 = u64 [s1 + 0xf0]\n 34149: u8 [a0 + 0xd] = a1\n 34152: a1 = u64 [s1 + 0xe0]\n 34156: u8 [a0 + 0xc] = a1\n 34159: a1 = u64 [s1 + 0xd0]\n 34163: u8 [a0 + 0xb] = a1\n 34166: a1 = u64 [s1 + 0xc0]\n 34170: u8 [a0 + 0xa] = a1\n 34173: a1 = u64 [s1 + 0xb0]\n 34177: u8 [a0 + 0x9] = a1\n 34180: a1 = u64 [s1 + 0x140]\n 34184: u8 [a0 + 0x17] = a1\n 34187: a1 = u64 [s1 + 0x138]\n 34191: u8 [a0 + 0x16] = a1\n 34194: a1 = u64 [s1 + 0x130]\n 34198: u8 [a0 + 0x15] = a1\n 34201: a1 = u64 [s1 + 0x128]\n 34205: u8 [a0 + 0x14] = a1\n 34208: a1 = u64 [s1 + 0x120]\n 34212: u8 [a0 + 0x13] = a1\n 34215: a1 = u64 [s1 + 0x118]\n 34219: u8 [a0 + 0x12] = a1\n 34222: a1 = u64 [s1 + 0x110]\n 34226: u8 [a0 + 0x11] = a1\n 34229: a1 = u64 [s1 + 0x178]\n 34233: u8 [a0 + 0x1f] = a1\n 34236: a1 = u64 [s1 + 0x170]\n 34240: u8 [a0 + 0x1e] = a1\n 34243: a1 = u64 [s1 + 0x168]\n 34247: u8 [a0 + 0x1d] = a1\n 34250: a1 = u64 [s1 + 0x160]\n 34254: u8 [a0 + 0x1c] = a1\n 34257: a1 = u64 [s1 + 0x158]\n 34261: u8 [a0 + 0x1b] = a1\n 34264: a1 = u64 [s1 + 0x150]\n 34268: u8 [a0 + 0x1a] = a1\n 34271: a1 = u64 [s1 + 0x148]\n 34275: u8 [a0 + 0x19] = a1\n 34278: a1 = u64 [s1 + 0x1c8]\n 34282: u8 [a0 + 0x8] = a1\n 34285: a1 = u64 [s1 + 0x1d0]\n 34289: u8 [a0] = a1\n 34291: a1 = u64 [s1 + 0x1c0]\n 34295: u8 [a0 + 0x10] = a1\n 34298: a1 = u64 [s1 + 0x1b8]\n 34302: u8 [a0 + 0x18] = a1\n 34305: a0 = 0x20\n 34308: a1 = 0x20\n 34311: ra = 408, jump @0\n      : @553 [@dyn 204] (gas: 35)\n 34318: u8 [a0 + 31] = 0\n 34321: u8 [a0 + 30] = 0\n 34324: u8 [a0 + 29] = 0\n 34327: u8 [a0 + 28] = 0\n 34330: u8 [a0 + 27] = 0\n 34333: u8 [a0 + 26] = 0\n 34336: u8 [a0 + 25] = 0\n 34339: u8 [a0 + 24] = 0\n 34342: u8 [a0 + 23] = 0\n 34345: u8 [a0 + 22] = 0\n 34348: u8 [a0 + 21] = 0\n 34351: u8 [a0 + 20] = 0\n 34354: u8 [a0 + 19] = 0\n 34357: u8 [a0 + 18] = 0\n 34360: u8 [a0 + 17] = 0\n 34363: u8 [a0 + 16] = 0\n 34366: u8 [a0 + 15] = 0\n 34369: u8 [a0 + 14] = 0\n 34372: u8 [a0 + 13] = 0\n 34375: u8 [a0 + 12] = 0\n 34378: u8 [a0 + 11] = 0\n 34381: u8 [a0 + 10] = 0\n 34384: u8 [a0 + 9] = 0\n 34387: u8 [a0 + 8] = 0\n 34390: u8 [a0 + 7] = 0\n 34393: u8 [a0 + 6] = 0\n 34396: u8 [a0 + 5] = 0\n 34399: u8 [a0 + 4] = 0\n 34402: u8 [a0 + 3] = 0\n 34405: u8 [a0 + 2] = 0\n 34408: u8 [a0 + 1] = 0\n 34411: u8 [a0 + 0] = 0\n 34413: a1 = 0x40\n 34416: a0 = 0\n 34418: ra = 410, jump @0\n      : @554 [@dyn 205] (gas: 20)\n 34425: a1 = sp + 0xffffffffffffffe0\n 34428: a1 = a1 & 0xffffffffffffffe0\n 34431: u64 [s1 + 0x178] = a1\n 34435: sp = a1\n 34437: i32 a0 = a0 + 0\n 34439: i32 a2 = a1 + 0\n 34441: a1 = 0x40\n 34444: ecalli 6 // 'hash_keccak_256'\n 34446: a1 = u64 [s1 + 0x178]\n 34450: a0 = u64 [a1]\n 34452: u64 [s1 + 0x190] = a0\n 34456: a0 = u64 [a1 + 0x8]\n 34459: u64 [s1 + 0x188] = a0\n 34463: a0 = u64 [a1 + 0x10]\n 34466: u64 [s1 + 0x180] = a0\n 34470: a0 = u64 [a1 + 0x18]\n 34473: u64 [s1 + 0x178] = a0\n 34477: a1 = 0x20\n 34480: a0 = 0\n 34482: ra = 412, jump @0\n      : @555 [@dyn 206] (gas: 59)\n 34489: a1 = u64 [s1 + 0xf8]\n 34493: u8 [a0 + 0x1f] = a1\n 34496: a1 = u64 [s1 + 0xe8]\n 34500: u8 [a0 + 0x1e] = a1\n 34503: a1 = u64 [s1 + 0xd8]\n 34507: u8 [a0 + 0x1d] = a1\n 34510: a1 = u64 [s1 + 0xc8]\n 34514: u8 [a0 + 0x1c] = a1\n 34517: a1 = u64 [s1 + 0xb8]\n 34521: u8 [a0 + 0x1b] = a1\n 34524: a1 = u64 [s1 + 0xa8]\n 34528: u8 [a0 + 0x1a] = a1\n 34531: a1 = u64 [s1 + 0xa0]\n 34535: u8 [a0 + 0x19] = a1\n 34538: a1 = u64 [s1 + 0x98]\n 34542: u8 [a0 + 0x17] = a1\n 34545: a1 = u64 [s1 + 0x90]\n 34549: u8 [a0 + 0x16] = a1\n 34552: a1 = u64 [s1 + 0x88]\n 34556: u8 [a0 + 0x15] = a1\n 34559: a1 = u64 [s1 + 0x80]\n 34563: u8 [a0 + 0x14] = a1\n 34566: a1 = u64 [s1 + 0x78]\n 34569: u8 [a0 + 0x13] = a1\n 34572: a1 = u64 [s1 + 0x70]\n 34575: u8 [a0 + 0x12] = a1\n 34578: a1 = u64 [s1 + 0x68]\n 34581: u8 [a0 + 0x11] = a1\n 34584: a1 = u64 [s1 + 0x60]\n 34587: u8 [a0 + 0xf] = a1\n 34590: a1 = u64 [s1 + 0x58]\n 34593: u8 [a0 + 0xe] = a1\n 34596: a1 = u64 [s1 + 0x50]\n 34599: u8 [a0 + 0xd] = a1\n 34602: a1 = u64 [s1 + 0x48]\n 34605: u8 [a0 + 0xc] = a1\n 34608: a2 = u64 [s1 + 0x1b0]\n 34612: a1 = a2 >> 0x18\n 34615: u8 [a0 + 0xb] = a1\n 34618: a1 = a2 >> 0x10\n 34621: u8 [a0 + 0xa] = a1\n 34624: a1 = a2 >> 0x8\n 34627: u8 [a0 + 0x9] = a1\n 34630: a1 = u64 [s1 + 0x1a0]\n 34634: u8 [a0 + 0x18] = a1\n 34637: a1 = u64 [s1 + 0x1a8]\n 34641: u8 [a0 + 0x10] = a1\n 34644: u8 [a0 + 0x8] = a2\n 34647: u8 [a0 + 7] = 0\n 34650: u8 [a0 + 6] = 0\n 34653: u8 [a0 + 5] = 0\n 34656: u8 [a0 + 4] = 0\n 34659: u8 [a0 + 3] = 0\n 34662: u8 [a0 + 2] = 0\n 34665: u8 [a0 + 1] = 0\n 34668: u8 [a0 + 0] = 0\n 34670: a0 = 0x20\n 34673: a1 = 0x20\n 34676: ra = 414, jump @0\n      : @556 [@dyn 207] (gas: 67)\n 34683: a2 = u64 [s1 + 0x178]\n 34687: a1 = a2 >> 0x38\n 34690: u8 [a0 + 0x1f] = a1\n 34693: a1 = a2 >> 0x30\n 34696: u8 [a0 + 0x1e] = a1\n 34699: a1 = a2 >> 0x28\n 34702: u8 [a0 + 0x1d] = a1\n 34705: a1 = a2 >> 0x20\n 34708: u8 [a0 + 0x1c] = a1\n 34711: a1 = a2 >> 0x18\n 34714: u8 [a0 + 0x1b] = a1\n 34717: a1 = a2 >> 0x10\n 34720: u8 [a0 + 0x1a] = a1\n 34723: a1 = a2 >> 0x8\n 34726: u8 [a0 + 0x19] = a1\n 34729: u8 [a0 + 0x18] = a2\n 34732: a2 = u64 [s1 + 0x180]\n 34736: a1 = a2 >> 0x38\n 34739: u8 [a0 + 0x17] = a1\n 34742: a1 = a2 >> 0x30\n 34745: u8 [a0 + 0x16] = a1\n 34748: a1 = a2 >> 0x28\n 34751: u8 [a0 + 0x15] = a1\n 34754: a1 = a2 >> 0x20\n 34757: u8 [a0 + 0x14] = a1\n 34760: a1 = a2 >> 0x18\n 34763: u8 [a0 + 0x13] = a1\n 34766: a1 = a2 >> 0x10\n 34769: u8 [a0 + 0x12] = a1\n 34772: a1 = a2 >> 0x8\n 34775: u8 [a0 + 0x11] = a1\n 34778: u8 [a0 + 0x10] = a2\n 34781: a2 = u64 [s1 + 0x188]\n 34785: a1 = a2 >> 0x38\n 34788: u8 [a0 + 0xf] = a1\n 34791: a1 = a2 >> 0x30\n 34794: u8 [a0 + 0xe] = a1\n 34797: a1 = a2 >> 0x28\n 34800: u8 [a0 + 0xd] = a1\n 34803: a1 = a2 >> 0x20\n 34806: u8 [a0 + 0xc] = a1\n 34809: a1 = a2 >> 0x18\n 34812: u8 [a0 + 0xb] = a1\n 34815: a1 = a2 >> 0x10\n 34818: u8 [a0 + 0xa] = a1\n 34821: a1 = a2 >> 0x8\n 34824: u8 [a0 + 0x9] = a1\n 34827: u8 [a0 + 0x8] = a2\n 34830: a2 = u64 [s1 + 0x190]\n 34834: a1 = a2 >> 0x38\n 34837: u8 [a0 + 0x7] = a1\n 34840: a1 = a2 >> 0x30\n 34843: u8 [a0 + 0x6] = a1\n 34846: a1 = a2 >> 0x28\n 34849: u8 [a0 + 0x5] = a1\n 34852: a1 = a2 >> 0x20\n 34855: u8 [a0 + 0x4] = a1\n 34858: a1 = a2 >> 0x18\n 34861: u8 [a0 + 0x3] = a1\n 34864: a1 = a2 >> 0x10\n 34867: u8 [a0 + 0x2] = a1\n 34870: a1 = a2 >> 0x8\n 34873: u8 [a0 + 0x1] = a1\n 34876: u8 [a0] = a2\n 34878: a1 = 0x40\n 34881: a0 = 0\n 34883: ra = 416, jump @0\n      : @557 [@dyn 208] (gas: 78)\n 34890: a1 = sp + 0xffffffffffffffe0\n 34893: a1 = a1 & 0xffffffffffffffe0\n 34896: u64 [s1 + 0x190] = a1\n 34900: sp = a1\n 34902: i32 a0 = a0 + 0\n 34904: i32 a2 = a1 + 0\n 34906: a1 = 0x40\n 34909: ecalli 6 // 'hash_keccak_256'\n 34911: a0 = u64 [s1 + 0x190]\n 34915: a3 = u64 [a0 + 0x18]\n 34918: u64 [s1 + 0x178] = a3\n 34922: a2 = u64 [a0 + 0x10]\n 34925: u64 [s1 + 0x180] = a2\n 34929: a1 = u64 [a0 + 0x8]\n 34932: u64 [s1 + 0x188] = a1\n 34936: a0 = u64 [a0]\n 34938: u64 [s1 + 0x190] = a0\n 34942: u64 [s1 + 0x278] = a3\n 34946: u64 [s1 + 0x270] = a2\n 34950: u64 [s1 + 0x268] = a1\n 34954: u64 [s1 + 0x260] = a0\n 34958: u64 [s1 + 664] = 0\n 34962: u64 [s1 + 656] = 0\n 34966: u64 [s1 + 648] = 0\n 34970: u64 [s1 + 640] = 0\n 34974: u32 [s1 + 576] = 0x20\n 34979: i32 a1 = s1 + 0x260\n 34983: i32 a3 = s1 + 0x280\n 34987: i32 a4 = s1 + 0x240\n 34991: a2 = 0xffffffffffffffff\n 34994: a0 = 0\n 34996: ecalli 5 // 'get_storage'\n 34998: a0 = u64 [s1 + 0x298]\n 35002: a1 = u64 [s1 + 0x280]\n 35006: a2 = u64 [s1 + 0x288]\n 35010: a3 = u64 [s1 + 0x290]\n 35014: a0 = a0 << 0x8\n 35017: a0 = a0 >> 0x8\n 35020: a4 = u64 [s1 + 0x198]\n 35024: a0 = a0 | a4\n 35027: a4 = u64 [s1 + 0x178]\n 35031: u64 [s1 + 0x278] = a4\n 35035: a4 = u64 [s1 + 0x180]\n 35039: u64 [s1 + 0x270] = a4\n 35043: a4 = u64 [s1 + 0x188]\n 35047: u64 [s1 + 0x268] = a4\n 35051: a4 = u64 [s1 + 0x190]\n 35055: u64 [s1 + 0x260] = a4\n 35059: u64 [s1 + 0x298] = a0\n 35063: u64 [s1 + 0x290] = a3\n 35067: u64 [s1 + 0x288] = a2\n 35071: u64 [s1 + 0x280] = a1\n 35075: i32 a1 = s1 + 0x260\n 35079: i32 a3 = s1 + 0x280\n 35083: a2 = 0xffffffffffffffff\n 35086: a4 = 0x20\n 35089: a0 = 0\n 35091: ecalli 9 // 'set_storage'\n 35093: i32 a0 = s1 + 0x220\n 35097: ecalli 3 // 'caller'\n 35099: a0 = u64 [s1 + 0x228]\n 35103: a1 = i32 [s1 + 0x230]\n 35107: a3 = u64 [s1 + 0x220]\n 35111: u64 [s1 + 0x188] = a3\n 35115: a0 = reverse a0\n 35117: a2 = a0 << 0x20\n 35120: a1 = reverse a1\n 35122: a1 = a1 >> 0x20\n 35125: a1 = a1 | a2\n 35128: u64 [s1 + 0x198] = a1\n 35132: a0 = a0 >> 0x20\n 35135: a1 = reverse a3\n 35137: a1 = a1 << 0x20\n 35140: a0 = a0 | a1\n 35143: u64 [s1 + 0x190] = a0\n 35147: a0 = 0\n 35149: a1 = 0\n 35151: ra = 418, jump @0\n      : @558 [@dyn 209] (gas: 41)\n 35158: a1 = u64 [0x20080]\n 35163: a2 = u64 [0x20088]\n 35168: a3 = u64 [0x20090]\n 35173: a4 = u64 [0x20098]\n 35178: u64 [s1 + 0x298] = a1\n 35182: u64 [s1 + 0x290] = a2\n 35186: u64 [s1 + 0x288] = a3\n 35190: u64 [s1 + 0x280] = a4\n 35194: a1 = u64 [s1 + 0x1b8]\n 35198: u64 [s1 + 0x2b8] = a1\n 35202: a1 = u64 [s1 + 0x1c0]\n 35206: u64 [s1 + 0x2b0] = a1\n 35210: a1 = u64 [s1 + 0x1c8]\n 35214: u64 [s1 + 0x2a8] = a1\n 35218: a1 = u64 [s1 + 0x1d0]\n 35222: u64 [s1 + 0x2a0] = a1\n 35226: a1 = u64 [s1 + 0x1a0]\n 35230: u64 [s1 + 0x2d8] = a1\n 35234: a1 = u64 [s1 + 0x1a8]\n 35238: u64 [s1 + 0x2d0] = a1\n 35242: a1 = u64 [s1 + 0x1b0]\n 35246: u64 [s1 + 0x2c8] = a1\n 35250: a1 = u64 [s1 + 0x188]\n 35254: a1 = a1 << 0x20\n 35257: u64 [s1 + 0x2e8] = a1\n 35261: a1 = u64 [s1 + 0x198]\n 35265: a1 = reverse a1\n 35267: u64 [s1 + 0x2f8] = a1\n 35271: a1 = u64 [s1 + 0x190]\n 35275: a1 = reverse a1\n 35277: u64 [s1 + 0x2f0] = a1\n 35281: u64 [s1 + 704] = 0\n 35285: u64 [s1 + 736] = 0\n 35289: i32 a2 = a0 + 0\n 35291: i32 a0 = s1 + 0x280\n 35295: a1 = 0x4\n 35298: a3 = 0\n 35300: ecalli 4 // 'deposit_event'\n 35302: a2 = 0x1\n 35305: a0 = 0\n 35307: jump @560\n      : @559 (gas: 2)\n 35309: a2 = 0\n 35311: fallthrough\n      : @560 (gas: 11)\n 35312: a1 = u64 [s1 + 0x1d8]\n 35316: u64 [a1] = a2\n 35318: u64 [a1 + 0x8] = a0\n 35321: u64 [a1 + 0x10] = a0\n 35324: u64 [a1 + 0x18] = a0\n 35327: sp = s0 + 0xfffffffffffffce0\n 35331: ra = u64 [sp + 0x318]\n 35335: s0 = u64 [sp + 0x310]\n 35339: s1 = u64 [sp + 0x308]\n 35343: sp = sp + 0x320\n 35347: ret\n      : @561 (gas: 25)\n 35349: sp = sp + 0xfffffffffffffce0\n 35353: u64 [sp + 0x318] = ra\n 35357: u64 [sp + 0x310] = s0\n 35361: u64 [sp + 0x308] = s1\n 35365: s0 = sp + 0x320\n 35369: sp = sp & 0xffffffffffffffe0\n 35372: s1 = sp\n 35374: a3 = u64 [a2]\n 35376: u64 [s1 + 0x1a8] = a3\n 35380: a3 = u64 [a2 + 0x8]\n 35383: u64 [s1 + 0x1a0] = a3\n 35387: a2 = u32 [a2 + 0x10]\n 35390: u64 [s1 + 0x1b0] = a2\n 35394: a2 = u64 [a1]\n 35396: u64 [s1 + 0x1d0] = a2\n 35400: a2 = u64 [a1 + 0x8]\n 35403: u64 [s1 + 0x1c8] = a2\n 35407: a2 = u64 [a1 + 0x10]\n 35410: u64 [s1 + 0x1c0] = a2\n 35414: a1 = u64 [a1 + 0x18]\n 35417: u64 [s1 + 0x1b8] = a1\n 35421: u64 [s1 + 0x1d8] = a0\n 35425: a1 = 0x20\n 35428: a0 = 0\n 35430: ra = 420, jump @0\n      : @562 [@dyn 210] (gas: 103)\n 35437: a1 = u64 [s1 + 0x1b8]\n 35441: a1 = reverse a1\n 35443: a2 = u64 [s1 + 0x1c0]\n 35447: a2 = reverse a2\n 35449: a3 = u64 [s1 + 0x1c8]\n 35453: a3 = reverse a3\n 35455: a4 = u64 [s1 + 0x1d0]\n 35459: a4 = reverse a4\n 35461: a5 = a4 >> 0x38\n 35464: u64 [s1 + 0x178] = a5\n 35468: u8 [a0 + 0x1f] = a5\n 35471: a5 = a4 >> 0x30\n 35474: u64 [s1 + 0x170] = a5\n 35478: u8 [a0 + 0x1e] = a5\n 35481: a5 = a4 >> 0x28\n 35484: u64 [s1 + 0x168] = a5\n 35488: u8 [a0 + 0x1d] = a5\n 35491: a5 = a4 >> 0x20\n 35494: u64 [s1 + 0x160] = a5\n 35498: u8 [a0 + 0x1c] = a5\n 35501: a5 = a4 >> 0x18\n 35504: u64 [s1 + 0x158] = a5\n 35508: u8 [a0 + 0x1b] = a5\n 35511: a5 = a4 >> 0x10\n 35514: u64 [s1 + 0x150] = a5\n 35518: u8 [a0 + 0x1a] = a5\n 35521: a5 = a4 >> 0x8\n 35524: u64 [s1 + 0x148] = a5\n 35528: u8 [a0 + 0x19] = a5\n 35531: u64 [s1 + 0x1b8] = a4\n 35535: u8 [a0 + 0x18] = a4\n 35538: a4 = a3 >> 0x38\n 35541: u64 [s1 + 0x140] = a4\n 35545: u8 [a0 + 0x17] = a4\n 35548: a4 = a3 >> 0x30\n 35551: u64 [s1 + 0x138] = a4\n 35555: u8 [a0 + 0x16] = a4\n 35558: a4 = a3 >> 0x28\n 35561: u64 [s1 + 0x130] = a4\n 35565: u8 [a0 + 0x15] = a4\n 35568: a4 = a3 >> 0x20\n 35571: u64 [s1 + 0x128] = a4\n 35575: u8 [a0 + 0x14] = a4\n 35578: a4 = a3 >> 0x18\n 35581: u64 [s1 + 0x120] = a4\n 35585: u8 [a0 + 0x13] = a4\n 35588: a4 = a3 >> 0x10\n 35591: u64 [s1 + 0x118] = a4\n 35595: u8 [a0 + 0x12] = a4\n 35598: a4 = a3 >> 0x8\n 35601: u64 [s1 + 0x110] = a4\n 35605: u8 [a0 + 0x11] = a4\n 35608: u64 [s1 + 0x1c0] = a3\n 35612: u8 [a0 + 0x10] = a3\n 35615: a3 = a2 >> 0x38\n 35618: u64 [s1 + 0x108] = a3\n 35622: u8 [a0 + 0xf] = a3\n 35625: a3 = a2 >> 0x30\n 35628: u64 [s1 + 0x100] = a3\n 35632: u8 [a0 + 0xe] = a3\n 35635: a3 = a2 >> 0x28\n 35638: u64 [s1 + 0xf0] = a3\n 35642: u8 [a0 + 0xd] = a3\n 35645: a3 = a2 >> 0x20\n 35648: u64 [s1 + 0xe0] = a3\n 35652: u8 [a0 + 0xc] = a3\n 35655: a3 = a2 >> 0x18\n 35658: u64 [s1 + 0xd0] = a3\n 35662: u8 [a0 + 0xb] = a3\n 35665: a3 = a2 >> 0x10\n 35668: u64 [s1 + 0xc0] = a3\n 35672: u8 [a0 + 0xa] = a3\n 35675: a3 = a2 >> 0x8\n 35678: u64 [s1 + 0xb0] = a3\n 35682: u8 [a0 + 0x9] = a3\n 35685: u64 [s1 + 0x1c8] = a2\n 35689: u8 [a0 + 0x8] = a2\n 35692: a2 = a1 >> 0x38\n 35695: u64 [s1 + 0x40] = a2\n 35698: u8 [a0 + 0x7] = a2\n 35701: a2 = a1 >> 0x30\n 35704: u64 [s1 + 0x38] = a2\n 35707: u8 [a0 + 0x6] = a2\n 35710: a2 = a1 >> 0x28\n 35713: u64 [s1 + 0x30] = a2\n 35716: u8 [a0 + 0x5] = a2\n 35719: a2 = a1 >> 0x20\n 35722: u64 [s1 + 0x28] = a2\n 35725: u8 [a0 + 0x4] = a2\n 35728: a2 = a1 >> 0x18\n 35731: u64 [s1 + 0x20] = a2\n 35734: u8 [a0 + 0x3] = a2\n 35737: a2 = a1 >> 0x10\n 35740: u64 [s1 + 0x18] = a2\n 35743: u8 [a0 + 0x2] = a2\n 35746: a2 = a1 >> 0x8\n 35749: u64 [s1 + 0x10] = a2\n 35752: u8 [a0 + 0x1] = a2\n 35755: u64 [s1 + 0x1d0] = a1\n 35759: u8 [a0] = a1\n 35761: a0 = 0x20\n 35764: a1 = 0x20\n 35767: ra = 422, jump @0\n      : @563 [@dyn 211] (gas: 35)\n 35774: u8 [a0 + 31] = 0\n 35777: u8 [a0 + 30] = 0\n 35780: u8 [a0 + 29] = 0\n 35783: u8 [a0 + 28] = 0\n 35786: u8 [a0 + 27] = 0\n 35789: u8 [a0 + 26] = 0\n 35792: u8 [a0 + 25] = 0\n 35795: u8 [a0 + 24] = 0\n 35798: u8 [a0 + 23] = 0\n 35801: u8 [a0 + 22] = 0\n 35804: u8 [a0 + 21] = 0\n 35807: u8 [a0 + 20] = 0\n 35810: u8 [a0 + 19] = 0\n 35813: u8 [a0 + 18] = 0\n 35816: u8 [a0 + 17] = 0\n 35819: u8 [a0 + 16] = 0\n 35822: u8 [a0 + 15] = 0\n 35825: u8 [a0 + 14] = 0\n 35828: u8 [a0 + 13] = 0\n 35831: u8 [a0 + 12] = 0\n 35834: u8 [a0 + 11] = 0\n 35837: u8 [a0 + 10] = 0\n 35840: u8 [a0 + 9] = 0\n 35843: u8 [a0 + 8] = 0\n 35846: u8 [a0 + 7] = 0\n 35849: u8 [a0 + 6] = 0\n 35852: u8 [a0 + 5] = 0\n 35855: u8 [a0 + 4] = 0\n 35858: u8 [a0 + 3] = 0\n 35861: u8 [a0 + 2] = 0\n 35864: u8 [a0 + 1] = 0\n 35867: u8 [a0 + 0] = 0\n 35869: a1 = 0x40\n 35872: a0 = 0\n 35874: ra = 424, jump @0\n      : @564 [@dyn 212] (gas: 15)\n 35881: i32 a0 = a0 + 0\n 35883: i32 a2 = s1 + 0x200\n 35887: a1 = 0x40\n 35890: ecalli 6 // 'hash_keccak_256'\n 35892: a0 = u64 [s1 + 0x200]\n 35896: u64 [s1 + 0x198] = a0\n 35900: a0 = u64 [s1 + 0x208]\n 35904: u64 [s1 + 0x190] = a0\n 35908: a0 = u64 [s1 + 0x210]\n 35912: u64 [s1 + 0x188] = a0\n 35916: a0 = u64 [s1 + 0x218]\n 35920: u64 [s1 + 0x180] = a0\n 35924: a1 = 0x20\n 35927: a0 = 0\n 35929: ra = 426, jump @0\n      : @565 [@dyn 213] (gas: 80)\n 35936: a1 = u64 [s1 + 0x1b0]\n 35940: a1 = reverse a1\n 35942: a2 = u64 [s1 + 0x1a0]\n 35946: a2 = reverse a2\n 35948: a3 = u64 [s1 + 0x1a8]\n 35952: a3 = reverse a3\n 35954: a4 = a3 >> 0x38\n 35957: u64 [s1 + 0xf8] = a4\n 35961: u8 [a0 + 0x1f] = a4\n 35964: a4 = a3 >> 0x30\n 35967: u64 [s1 + 0xe8] = a4\n 35971: u8 [a0 + 0x1e] = a4\n 35974: a4 = a3 >> 0x28\n 35977: u64 [s1 + 0xd8] = a4\n 35981: u8 [a0 + 0x1d] = a4\n 35984: a4 = a3 >> 0x20\n 35987: u64 [s1 + 0xc8] = a4\n 35991: u8 [a0 + 0x1c] = a4\n 35994: a4 = a3 >> 0x18\n 35997: u64 [s1 + 0xb8] = a4\n 36001: u8 [a0 + 0x1b] = a4\n 36004: a4 = a3 >> 0x10\n 36007: u64 [s1 + 0xa8] = a4\n 36011: u8 [a0 + 0x1a] = a4\n 36014: a4 = a3 >> 0x8\n 36017: u64 [s1 + 0xa0] = a4\n 36021: u8 [a0 + 0x19] = a4\n 36024: u64 [s1 + 0x1a0] = a3\n 36028: u8 [a0 + 0x18] = a3\n 36031: a3 = a2 >> 0x38\n 36034: u64 [s1 + 0x98] = a3\n 36038: u8 [a0 + 0x17] = a3\n 36041: a3 = a2 >> 0x30\n 36044: u64 [s1 + 0x90] = a3\n 36048: u8 [a0 + 0x16] = a3\n 36051: a3 = a2 >> 0x28\n 36054: u64 [s1 + 0x88] = a3\n 36058: u8 [a0 + 0x15] = a3\n 36061: a3 = a2 >> 0x20\n 36064: u64 [s1 + 0x80] = a3\n 36068: u8 [a0 + 0x14] = a3\n 36071: a3 = a2 >> 0x18\n 36074: u64 [s1 + 0x78] = a3\n 36077: u8 [a0 + 0x13] = a3\n 36080: a3 = a2 >> 0x10\n 36083: u64 [s1 + 0x70] = a3\n 36086: u8 [a0 + 0x12] = a3\n 36089: a3 = a2 >> 0x8\n 36092: u64 [s1 + 0x68] = a3\n 36095: u8 [a0 + 0x11] = a3\n 36098: u64 [s1 + 0x1a8] = a2\n 36102: u8 [a0 + 0x10] = a2\n 36105: a2 = a1 >> 0x38\n 36108: u64 [s1 + 0x60] = a2\n 36111: u8 [a0 + 0xf] = a2\n 36114: a2 = a1 >> 0x30\n 36117: u64 [s1 + 0x58] = a2\n 36120: u8 [a0 + 0xe] = a2\n 36123: a2 = a1 >> 0x28\n 36126: u64 [s1 + 0x50] = a2\n 36129: u8 [a0 + 0xd] = a2\n 36132: a2 = a1 >> 0x20\n 36135: u64 [s1 + 0x48] = a2\n 36138: u8 [a0 + 0xc] = a2\n 36141: u8 [a0 + 11] = 0\n 36144: u8 [a0 + 10] = 0\n 36147: u8 [a0 + 9] = 0\n 36150: u64 [s1 + 0x1b0] = a1\n 36154: u8 [a0 + 0x8] = a1\n 36157: u8 [a0 + 7] = 0\n 36160: u8 [a0 + 6] = 0\n 36163: u8 [a0 + 5] = 0\n 36166: u8 [a0 + 4] = 0\n 36169: u8 [a0 + 3] = 0\n 36172: u8 [a0 + 2] = 0\n 36175: u8 [a0 + 1] = 0\n 36178: u8 [a0 + 0] = 0\n 36180: a0 = 0x20\n 36183: a1 = 0x20\n 36186: ra = 428, jump @0\n      : @566 [@dyn 214] (gas: 67)\n 36193: a2 = u64 [s1 + 0x180]\n 36197: a1 = a2 >> 0x38\n 36200: u8 [a0 + 0x1f] = a1\n 36203: a1 = a2 >> 0x30\n 36206: u8 [a0 + 0x1e] = a1\n 36209: a1 = a2 >> 0x28\n 36212: u8 [a0 + 0x1d] = a1\n 36215: a1 = a2 >> 0x20\n 36218: u8 [a0 + 0x1c] = a1\n 36221: a1 = a2 >> 0x18\n 36224: u8 [a0 + 0x1b] = a1\n 36227: a1 = a2 >> 0x10\n 36230: u8 [a0 + 0x1a] = a1\n 36233: a1 = a2 >> 0x8\n 36236: u8 [a0 + 0x19] = a1\n 36239: u8 [a0 + 0x18] = a2\n 36242: a2 = u64 [s1 + 0x188]\n 36246: a1 = a2 >> 0x38\n 36249: u8 [a0 + 0x17] = a1\n 36252: a1 = a2 >> 0x30\n 36255: u8 [a0 + 0x16] = a1\n 36258: a1 = a2 >> 0x28\n 36261: u8 [a0 + 0x15] = a1\n 36264: a1 = a2 >> 0x20\n 36267: u8 [a0 + 0x14] = a1\n 36270: a1 = a2 >> 0x18\n 36273: u8 [a0 + 0x13] = a1\n 36276: a1 = a2 >> 0x10\n 36279: u8 [a0 + 0x12] = a1\n 36282: a1 = a2 >> 0x8\n 36285: u8 [a0 + 0x11] = a1\n 36288: u8 [a0 + 0x10] = a2\n 36291: a2 = u64 [s1 + 0x190]\n 36295: a1 = a2 >> 0x38\n 36298: u8 [a0 + 0xf] = a1\n 36301: a1 = a2 >> 0x30\n 36304: u8 [a0 + 0xe] = a1\n 36307: a1 = a2 >> 0x28\n 36310: u8 [a0 + 0xd] = a1\n 36313: a1 = a2 >> 0x20\n 36316: u8 [a0 + 0xc] = a1\n 36319: a1 = a2 >> 0x18\n 36322: u8 [a0 + 0xb] = a1\n 36325: a1 = a2 >> 0x10\n 36328: u8 [a0 + 0xa] = a1\n 36331: a1 = a2 >> 0x8\n 36334: u8 [a0 + 0x9] = a1\n 36337: u8 [a0 + 0x8] = a2\n 36340: a2 = u64 [s1 + 0x198]\n 36344: a1 = a2 >> 0x38\n 36347: u8 [a0 + 0x7] = a1\n 36350: a1 = a2 >> 0x30\n 36353: u8 [a0 + 0x6] = a1\n 36356: a1 = a2 >> 0x28\n 36359: u8 [a0 + 0x5] = a1\n 36362: a1 = a2 >> 0x20\n 36365: u8 [a0 + 0x4] = a1\n 36368: a1 = a2 >> 0x18\n 36371: u8 [a0 + 0x3] = a1\n 36374: a1 = a2 >> 0x10\n 36377: u8 [a0 + 0x2] = a1\n 36380: a1 = a2 >> 0x8\n 36383: u8 [a0 + 0x1] = a1\n 36386: u8 [a0] = a2\n 36388: a1 = 0x40\n 36391: a0 = 0\n 36393: ra = 430, jump @0\n      : @567 [@dyn 215] (gas: 24)\n 36400: i32 a0 = a0 + 0\n 36402: i32 a2 = s1 + 0x1e0\n 36406: a1 = 0x40\n 36409: ecalli 6 // 'hash_keccak_256'\n 36411: a0 = u64 [s1 + 0x1f8]\n 36415: a1 = u64 [s1 + 0x1f0]\n 36419: a2 = u64 [s1 + 0x1e8]\n 36423: a3 = u64 [s1 + 0x1e0]\n 36427: u64 [s1 + 0x278] = a0\n 36431: u64 [s1 + 0x270] = a1\n 36435: u64 [s1 + 0x268] = a2\n 36439: u64 [s1 + 0x260] = a3\n 36443: u64 [s1 + 664] = 0\n 36447: u64 [s1 + 656] = 0\n 36451: u64 [s1 + 648] = 0\n 36455: u64 [s1 + 640] = 0\n 36459: u32 [s1 + 576] = 0x20\n 36464: i32 a1 = s1 + 0x260\n 36468: i32 a3 = s1 + 0x280\n 36472: i32 a4 = s1 + 0x240\n 36476: a2 = 0xffffffffffffffff\n 36479: a0 = 0\n 36481: ecalli 5 // 'get_storage'\n 36483: fallthrough\n      : @568 (gas: 9)\n 36484: a0 = u64 [s1 + 0x298]\n 36488: a1 = u64 [s1 + 0x290]\n 36492: a2 = 0xffffffffffffff\n 36502: a2 = a2 ^ a0\n 36505: a1 = a2 | ~a1\n 36508: a0 = a0 >> 0x38\n 36511: a0 = a0 >u 0\n 36513: a0 = 0 if a1 == 0\n 36515: jump @570 if a0 != 0\n      : @569 (gas: 2)\n 36518: a1 = 0\n 36520: jump @578\n      : @570 (gas: 3)\n 36523: a1 = 0x20\n 36526: a0 = 0\n 36528: ra = 432, jump @0\n      : @571 [@dyn 216] (gas: 67)\n 36535: a1 = u64 [s1 + 0x40]\n 36538: u8 [a0 + 0x7] = a1\n 36541: a1 = u64 [s1 + 0x38]\n 36544: u8 [a0 + 0x6] = a1\n 36547: a1 = u64 [s1 + 0x30]\n 36550: u8 [a0 + 0x5] = a1\n 36553: a1 = u64 [s1 + 0x28]\n 36556: u8 [a0 + 0x4] = a1\n 36559: a1 = u64 [s1 + 0x20]\n 36562: u8 [a0 + 0x3] = a1\n 36565: a1 = u64 [s1 + 0x18]\n 36568: u8 [a0 + 0x2] = a1\n 36571: a1 = u64 [s1 + 0x10]\n 36574: u8 [a0 + 0x1] = a1\n 36577: a1 = u64 [s1 + 0x108]\n 36581: u8 [a0 + 0xf] = a1\n 36584: a1 = u64 [s1 + 0x100]\n 36588: u8 [a0 + 0xe] = a1\n 36591: a1 = u64 [s1 + 0xf0]\n 36595: u8 [a0 + 0xd] = a1\n 36598: a1 = u64 [s1 + 0xe0]\n 36602: u8 [a0 + 0xc] = a1\n 36605: a1 = u64 [s1 + 0xd0]\n 36609: u8 [a0 + 0xb] = a1\n 36612: a1 = u64 [s1 + 0xc0]\n 36616: u8 [a0 + 0xa] = a1\n 36619: a1 = u64 [s1 + 0xb0]\n 36623: u8 [a0 + 0x9] = a1\n 36626: a1 = u64 [s1 + 0x140]\n 36630: u8 [a0 + 0x17] = a1\n 36633: a1 = u64 [s1 + 0x138]\n 36637: u8 [a0 + 0x16] = a1\n 36640: a1 = u64 [s1 + 0x130]\n 36644: u8 [a0 + 0x15] = a1\n 36647: a1 = u64 [s1 + 0x128]\n 36651: u8 [a0 + 0x14] = a1\n 36654: a1 = u64 [s1 + 0x120]\n 36658: u8 [a0 + 0x13] = a1\n 36661: a1 = u64 [s1 + 0x118]\n 36665: u8 [a0 + 0x12] = a1\n 36668: a1 = u64 [s1 + 0x110]\n 36672: u8 [a0 + 0x11] = a1\n 36675: a1 = u64 [s1 + 0x178]\n 36679: u8 [a0 + 0x1f] = a1\n 36682: a1 = u64 [s1 + 0x170]\n 36686: u8 [a0 + 0x1e] = a1\n 36689: a1 = u64 [s1 + 0x168]\n 36693: u8 [a0 + 0x1d] = a1\n 36696: a1 = u64 [s1 + 0x160]\n 36700: u8 [a0 + 0x1c] = a1\n 36703: a1 = u64 [s1 + 0x158]\n 36707: u8 [a0 + 0x1b] = a1\n 36710: a1 = u64 [s1 + 0x150]\n 36714: u8 [a0 + 0x1a] = a1\n 36717: a1 = u64 [s1 + 0x148]\n 36721: u8 [a0 + 0x19] = a1\n 36724: a1 = u64 [s1 + 0x1c8]\n 36728: u8 [a0 + 0x8] = a1\n 36731: a1 = u64 [s1 + 0x1d0]\n 36735: u8 [a0] = a1\n 36737: a1 = u64 [s1 + 0x1c0]\n 36741: u8 [a0 + 0x10] = a1\n 36744: a1 = u64 [s1 + 0x1b8]\n 36748: u8 [a0 + 0x18] = a1\n 36751: a0 = 0x20\n 36754: a1 = 0x20\n 36757: ra = 434, jump @0\n      : @572 [@dyn 217] (gas: 35)\n 36764: u8 [a0 + 31] = 0\n 36767: u8 [a0 + 30] = 0\n 36770: u8 [a0 + 29] = 0\n 36773: u8 [a0 + 28] = 0\n 36776: u8 [a0 + 27] = 0\n 36779: u8 [a0 + 26] = 0\n 36782: u8 [a0 + 25] = 0\n 36785: u8 [a0 + 24] = 0\n 36788: u8 [a0 + 23] = 0\n 36791: u8 [a0 + 22] = 0\n 36794: u8 [a0 + 21] = 0\n 36797: u8 [a0 + 20] = 0\n 36800: u8 [a0 + 19] = 0\n 36803: u8 [a0 + 18] = 0\n 36806: u8 [a0 + 17] = 0\n 36809: u8 [a0 + 16] = 0\n 36812: u8 [a0 + 15] = 0\n 36815: u8 [a0 + 14] = 0\n 36818: u8 [a0 + 13] = 0\n 36821: u8 [a0 + 12] = 0\n 36824: u8 [a0 + 11] = 0\n 36827: u8 [a0 + 10] = 0\n 36830: u8 [a0 + 9] = 0\n 36833: u8 [a0 + 8] = 0\n 36836: u8 [a0 + 7] = 0\n 36839: u8 [a0 + 6] = 0\n 36842: u8 [a0 + 5] = 0\n 36845: u8 [a0 + 4] = 0\n 36848: u8 [a0 + 3] = 0\n 36851: u8 [a0 + 2] = 0\n 36854: u8 [a0 + 1] = 0\n 36857: u8 [a0 + 0] = 0\n 36859: a1 = 0x40\n 36862: a0 = 0\n 36864: ra = 436, jump @0\n      : @573 [@dyn 218] (gas: 20)\n 36871: a1 = sp + 0xffffffffffffffe0\n 36874: a1 = a1 & 0xffffffffffffffe0\n 36877: u64 [s1 + 0x180] = a1\n 36881: sp = a1\n 36883: i32 a0 = a0 + 0\n 36885: i32 a2 = a1 + 0\n 36887: a1 = 0x40\n 36890: ecalli 6 // 'hash_keccak_256'\n 36892: a1 = u64 [s1 + 0x180]\n 36896: a0 = u64 [a1]\n 36898: u64 [s1 + 0x198] = a0\n 36902: a0 = u64 [a1 + 0x8]\n 36905: u64 [s1 + 0x190] = a0\n 36909: a0 = u64 [a1 + 0x10]\n 36912: u64 [s1 + 0x188] = a0\n 36916: a0 = u64 [a1 + 0x18]\n 36919: u64 [s1 + 0x180] = a0\n 36923: a1 = 0x20\n 36926: a0 = 0\n 36928: ra = 438, jump @0\n      : @574 [@dyn 219] (gas: 59)\n 36935: a1 = u64 [s1 + 0xf8]\n 36939: u8 [a0 + 0x1f] = a1\n 36942: a1 = u64 [s1 + 0xe8]\n 36946: u8 [a0 + 0x1e] = a1\n 36949: a1 = u64 [s1 + 0xd8]\n 36953: u8 [a0 + 0x1d] = a1\n 36956: a1 = u64 [s1 + 0xc8]\n 36960: u8 [a0 + 0x1c] = a1\n 36963: a1 = u64 [s1 + 0xb8]\n 36967: u8 [a0 + 0x1b] = a1\n 36970: a1 = u64 [s1 + 0xa8]\n 36974: u8 [a0 + 0x1a] = a1\n 36977: a1 = u64 [s1 + 0xa0]\n 36981: u8 [a0 + 0x19] = a1\n 36984: a1 = u64 [s1 + 0x98]\n 36988: u8 [a0 + 0x17] = a1\n 36991: a1 = u64 [s1 + 0x90]\n 36995: u8 [a0 + 0x16] = a1\n 36998: a1 = u64 [s1 + 0x88]\n 37002: u8 [a0 + 0x15] = a1\n 37005: a1 = u64 [s1 + 0x80]\n 37009: u8 [a0 + 0x14] = a1\n 37012: a1 = u64 [s1 + 0x78]\n 37015: u8 [a0 + 0x13] = a1\n 37018: a1 = u64 [s1 + 0x70]\n 37021: u8 [a0 + 0x12] = a1\n 37024: a1 = u64 [s1 + 0x68]\n 37027: u8 [a0 + 0x11] = a1\n 37030: a1 = u64 [s1 + 0x60]\n 37033: u8 [a0 + 0xf] = a1\n 37036: a1 = u64 [s1 + 0x58]\n 37039: u8 [a0 + 0xe] = a1\n 37042: a1 = u64 [s1 + 0x50]\n 37045: u8 [a0 + 0xd] = a1\n 37048: a1 = u64 [s1 + 0x48]\n 37051: u8 [a0 + 0xc] = a1\n 37054: a2 = u64 [s1 + 0x1b0]\n 37058: a1 = a2 >> 0x18\n 37061: u8 [a0 + 0xb] = a1\n 37064: a1 = a2 >> 0x10\n 37067: u8 [a0 + 0xa] = a1\n 37070: a1 = a2 >> 0x8\n 37073: u8 [a0 + 0x9] = a1\n 37076: a1 = u64 [s1 + 0x1a0]\n 37080: u8 [a0 + 0x18] = a1\n 37083: a1 = u64 [s1 + 0x1a8]\n 37087: u8 [a0 + 0x10] = a1\n 37090: u8 [a0 + 0x8] = a2\n 37093: u8 [a0 + 7] = 0\n 37096: u8 [a0 + 6] = 0\n 37099: u8 [a0 + 5] = 0\n 37102: u8 [a0 + 4] = 0\n 37105: u8 [a0 + 3] = 0\n 37108: u8 [a0 + 2] = 0\n 37111: u8 [a0 + 1] = 0\n 37114: u8 [a0 + 0] = 0\n 37116: a0 = 0x20\n 37119: a1 = 0x20\n 37122: ra = 440, jump @0\n      : @575 [@dyn 220] (gas: 67)\n 37129: a2 = u64 [s1 + 0x180]\n 37133: a1 = a2 >> 0x38\n 37136: u8 [a0 + 0x1f] = a1\n 37139: a1 = a2 >> 0x30\n 37142: u8 [a0 + 0x1e] = a1\n 37145: a1 = a2 >> 0x28\n 37148: u8 [a0 + 0x1d] = a1\n 37151: a1 = a2 >> 0x20\n 37154: u8 [a0 + 0x1c] = a1\n 37157: a1 = a2 >> 0x18\n 37160: u8 [a0 + 0x1b] = a1\n 37163: a1 = a2 >> 0x10\n 37166: u8 [a0 + 0x1a] = a1\n 37169: a1 = a2 >> 0x8\n 37172: u8 [a0 + 0x19] = a1\n 37175: u8 [a0 + 0x18] = a2\n 37178: a2 = u64 [s1 + 0x188]\n 37182: a1 = a2 >> 0x38\n 37185: u8 [a0 + 0x17] = a1\n 37188: a1 = a2 >> 0x30\n 37191: u8 [a0 + 0x16] = a1\n 37194: a1 = a2 >> 0x28\n 37197: u8 [a0 + 0x15] = a1\n 37200: a1 = a2 >> 0x20\n 37203: u8 [a0 + 0x14] = a1\n 37206: a1 = a2 >> 0x18\n 37209: u8 [a0 + 0x13] = a1\n 37212: a1 = a2 >> 0x10\n 37215: u8 [a0 + 0x12] = a1\n 37218: a1 = a2 >> 0x8\n 37221: u8 [a0 + 0x11] = a1\n 37224: u8 [a0 + 0x10] = a2\n 37227: a2 = u64 [s1 + 0x190]\n 37231: a1 = a2 >> 0x38\n 37234: u8 [a0 + 0xf] = a1\n 37237: a1 = a2 >> 0x30\n 37240: u8 [a0 + 0xe] = a1\n 37243: a1 = a2 >> 0x28\n 37246: u8 [a0 + 0xd] = a1\n 37249: a1 = a2 >> 0x20\n 37252: u8 [a0 + 0xc] = a1\n 37255: a1 = a2 >> 0x18\n 37258: u8 [a0 + 0xb] = a1\n 37261: a1 = a2 >> 0x10\n 37264: u8 [a0 + 0xa] = a1\n 37267: a1 = a2 >> 0x8\n 37270: u8 [a0 + 0x9] = a1\n 37273: u8 [a0 + 0x8] = a2\n 37276: a2 = u64 [s1 + 0x198]\n 37280: a1 = a2 >> 0x38\n 37283: u8 [a0 + 0x7] = a1\n 37286: a1 = a2 >> 0x30\n 37289: u8 [a0 + 0x6] = a1\n 37292: a1 = a2 >> 0x28\n 37295: u8 [a0 + 0x5] = a1\n 37298: a1 = a2 >> 0x20\n 37301: u8 [a0 + 0x4] = a1\n 37304: a1 = a2 >> 0x18\n 37307: u8 [a0 + 0x3] = a1\n 37310: a1 = a2 >> 0x10\n 37313: u8 [a0 + 0x2] = a1\n 37316: a1 = a2 >> 0x8\n 37319: u8 [a0 + 0x1] = a1\n 37322: u8 [a0] = a2\n 37324: a1 = 0x40\n 37327: a0 = 0\n 37329: ra = 442, jump @0\n      : @576 [@dyn 221] (gas: 76)\n 37336: a1 = sp + 0xffffffffffffffe0\n 37339: a1 = a1 & 0xffffffffffffffe0\n 37342: u64 [s1 + 0x198] = a1\n 37346: sp = a1\n 37348: i32 a0 = a0 + 0\n 37350: i32 a2 = a1 + 0\n 37352: a1 = 0x40\n 37355: ecalli 6 // 'hash_keccak_256'\n 37357: a0 = u64 [s1 + 0x198]\n 37361: a3 = u64 [a0 + 0x18]\n 37364: u64 [s1 + 0x180] = a3\n 37368: a2 = u64 [a0 + 0x10]\n 37371: u64 [s1 + 0x188] = a2\n 37375: a1 = u64 [a0 + 0x8]\n 37378: u64 [s1 + 0x190] = a1\n 37382: a0 = u64 [a0]\n 37384: u64 [s1 + 0x198] = a0\n 37388: u64 [s1 + 0x278] = a3\n 37392: u64 [s1 + 0x270] = a2\n 37396: u64 [s1 + 0x268] = a1\n 37400: u64 [s1 + 0x260] = a0\n 37404: u64 [s1 + 664] = 0\n 37408: u64 [s1 + 656] = 0\n 37412: u64 [s1 + 648] = 0\n 37416: u64 [s1 + 640] = 0\n 37420: u32 [s1 + 576] = 0x20\n 37425: i32 a1 = s1 + 0x260\n 37429: i32 a3 = s1 + 0x280\n 37433: i32 a4 = s1 + 0x240\n 37437: a2 = 0xffffffffffffffff\n 37440: a0 = 0\n 37442: ecalli 5 // 'get_storage'\n 37444: a0 = u64 [s1 + 0x298]\n 37448: a1 = u64 [s1 + 0x280]\n 37452: a2 = u64 [s1 + 0x288]\n 37456: a3 = u64 [s1 + 0x290]\n 37460: a0 = a0 << 0x8\n 37463: a0 = a0 >> 0x8\n 37466: a4 = u64 [s1 + 0x180]\n 37470: u64 [s1 + 0x278] = a4\n 37474: a4 = u64 [s1 + 0x188]\n 37478: u64 [s1 + 0x270] = a4\n 37482: a4 = u64 [s1 + 0x190]\n 37486: u64 [s1 + 0x268] = a4\n 37490: a4 = u64 [s1 + 0x198]\n 37494: u64 [s1 + 0x260] = a4\n 37498: u64 [s1 + 0x298] = a0\n 37502: u64 [s1 + 0x290] = a3\n 37506: u64 [s1 + 0x288] = a2\n 37510: u64 [s1 + 0x280] = a1\n 37514: i32 a1 = s1 + 0x260\n 37518: i32 a3 = s1 + 0x280\n 37522: a2 = 0xffffffffffffffff\n 37525: a4 = 0x20\n 37528: a0 = 0\n 37530: ecalli 9 // 'set_storage'\n 37532: i32 a0 = s1 + 0x220\n 37536: ecalli 3 // 'caller'\n 37538: a0 = u64 [s1 + 0x228]\n 37542: a1 = i32 [s1 + 0x230]\n 37546: a3 = u64 [s1 + 0x220]\n 37550: u64 [s1 + 0x188] = a3\n 37554: a0 = reverse a0\n 37556: a2 = a0 << 0x20\n 37559: a1 = reverse a1\n 37561: a1 = a1 >> 0x20\n 37564: a1 = a1 | a2\n 37567: u64 [s1 + 0x198] = a1\n 37571: a0 = a0 >> 0x20\n 37574: a1 = reverse a3\n 37576: a1 = a1 << 0x20\n 37579: a0 = a0 | a1\n 37582: u64 [s1 + 0x190] = a0\n 37586: a0 = 0\n 37588: a1 = 0\n 37590: ra = 444, jump @0\n      : @577 [@dyn 222] (gas: 41)\n 37597: a1 = u64 [0x200a0]\n 37602: a2 = u64 [0x200a8]\n 37607: a3 = u64 [0x200b0]\n 37612: a4 = u64 [0x200b8]\n 37617: u64 [s1 + 0x298] = a1\n 37621: u64 [s1 + 0x290] = a2\n 37625: u64 [s1 + 0x288] = a3\n 37629: u64 [s1 + 0x280] = a4\n 37633: a1 = u64 [s1 + 0x1b8]\n 37637: u64 [s1 + 0x2b8] = a1\n 37641: a1 = u64 [s1 + 0x1c0]\n 37645: u64 [s1 + 0x2b0] = a1\n 37649: a1 = u64 [s1 + 0x1c8]\n 37653: u64 [s1 + 0x2a8] = a1\n 37657: a1 = u64 [s1 + 0x1d0]\n 37661: u64 [s1 + 0x2a0] = a1\n 37665: a1 = u64 [s1 + 0x1a0]\n 37669: u64 [s1 + 0x2d8] = a1\n 37673: a1 = u64 [s1 + 0x1a8]\n 37677: u64 [s1 + 0x2d0] = a1\n 37681: a1 = u64 [s1 + 0x1b0]\n 37685: u64 [s1 + 0x2c8] = a1\n 37689: a1 = u64 [s1 + 0x188]\n 37693: a1 = a1 << 0x20\n 37696: u64 [s1 + 0x2e8] = a1\n 37700: a1 = u64 [s1 + 0x198]\n 37704: a1 = reverse a1\n 37706: u64 [s1 + 0x2f8] = a1\n 37710: a1 = u64 [s1 + 0x190]\n 37714: a1 = reverse a1\n 37716: u64 [s1 + 0x2f0] = a1\n 37720: u64 [s1 + 704] = 0\n 37724: u64 [s1 + 736] = 0\n 37728: i32 a2 = a0 + 0\n 37730: i32 a0 = s1 + 0x280\n 37734: a1 = 0x4\n 37737: a3 = 0\n 37739: ecalli 4 // 'deposit_event'\n 37741: a0 = 0\n 37743: a1 = 0x1\n 37746: fallthrough\n      : @578 (gas: 11)\n 37747: a2 = u64 [s1 + 0x1d8]\n 37751: u64 [a2] = a1\n 37753: u64 [a2 + 0x8] = a0\n 37756: u64 [a2 + 0x10] = a0\n 37759: u64 [a2 + 0x18] = a0\n 37762: sp = s0 + 0xfffffffffffffce0\n 37766: ra = u64 [sp + 0x318]\n 37770: s0 = u64 [sp + 0x310]\n 37774: s1 = u64 [sp + 0x308]\n 37778: sp = sp + 0x320\n 37782: ret\n      : @579 [export #0: 'call'] (gas: 2)\n 37784: a0 = 0\n 37786: ra = 446, jump @12\n      : @580 [@dyn 223] [export #1: 'deploy'] (gas: 2)\n 37793: a0 = 0x1\n 37796: ra = 448, jump @12\n      : @581 [@dyn 224] (gas: 1)\n 37803: trap\n","bytecode":{"object":"50564d00009ba9000000000000010700c1d000c000400380c0304540a733656f0d7c78024a5027094082e926ec794901d12f8788117e7eff1d304540a733656f0d7c78024a5027094082e926ec794901d12f8788117e7eff1d825b095693c21775913cf4a201fbe287092ef5a8a18f56e8a49807205ce4d35555d3e45c200798a4e8568fa1a8f52e0987e2fb01a2f43c917517c29356095b82304540a733656f0d7c78024a5027094082e926ec794901d12f8788117e7eff1deb21e047a839171bb53935d1edc7fd642a47ea670b442974f6391f5c32d9c69d0480bd0b000000000e0000001c0000002a000000300000003d000000480000005700000062000000740000007f00000063616c6c5f646174615f636f707963616c6c5f646174615f6c6f616463616c6c5f646174615f73697a6563616c6c65726465706f7369745f6576656e746765745f73746f72616765686173685f6b656363616b5f3235367365616c5f72657475726e7365745f696d6d757461626c655f646174617365745f73746f7261676576616c75655f7472616e73666572726564051302c098930463616c6cc0a193066465706c6f7906c0e8a780e002c0ac9365003d024202bb0249036203b0040b05160547065c067f068b06b3060d08e3084d09760afe0c080dde0d480ecc0e221001118d136c141f15571647177f186f19a71ab41b8a1cf31cb91df11e7320b821a322d9231e25f4255e26d226a8272829ff29682aa62a7c2b4a2cdd2cb92e8f2ff92f5a30953020322133f7336134ab34d7343836d93641377838933eea3e753fa53fc33fce3faa400d41f3414b4269429142af42ba42374364436f43c94374449244ba44d844e34460458d459845f2459e4601473b476a47fa4b044c974ce54c0f4d614db94d144e424e6c4ebe4e124f694fc94fff4f675090509b50aa50e6505151bb51f151ea52b8533f54aa54145550550a56d756e25791582e599859ce59c75a955b1c5cb95c235d5f5d195ee65ef15f1e612c619661a4614062576262627162b462cd65e266c5678f680a6a1f6c456d8a6da86db36dc26d2a6ebe6e1970c1710773db74ea75b9762377ec778878f2785479fc79c67a787bbd7be97bf47b037c397c0c7d767dd87d807e4a7ffc7f46806b8077808680de802f829a82d182d283a18429850e867986b9867b874a8856896d8abe8b298c608c618d308eb78e9c8f079047900991d891dd92a193ab938b791052093b3309010001ae9833c8780883881f8488e0553801000128390ac00002ae8a123d08c000023308d00002c8870732003308d00002c88707320000009511d87b10207b15187b161082897b19088289087b1982851082861883773308205010029f6f686f59821a6faa821b086fbb787b18787a10787908787898bc38787c1f98bc30787c1e98bc28787c1d98bc20787c1c98bc18787c1b98bc10787c1a98bb08787b1998ab38787b1798ab30787b1698ab28787b1598ab20787b1498ab18787b1398ab10787b1298aa08787a11989a38787a0f989a30787a0e989a28787a0d989a20787a0c989a18787a0b989a10787a0a98990878790998893878790798893078790698892878790598892078790498891878790398891078790298880878780182102082151882161095112832009511a07b10587b15507b16489515608411e06476828718828910828a0882886f776f996faa6f887b18187b1a107b19087b17491138491130491128491120481140208318831a20831b403309ff33070a05821738821830821928821a206f776f886f996faa7b6a187b69107b68087b679551a082105882155082164895116032009511a07b10587b15507b16489515608411e08282828308828b10828818827c18827910827a0882776fc66f996faa6f776f846fbb6f386f2c7b17187b1a107b19087b167b1c387b18307b1b287b14208318831a203309ff330b2033070a099551a082105882155082164895116032009511f07b10087b158475010a02013d07c40002510507501004095010064e04951120ff7b10d8007b15d0007b16c8009515e0008411e04921b8004921b0004921a8004921a0008317a0000a0a018217b0008218b8008219a800821aa000d49808d4a707d487075207b5033907c400027b171897772098772095771f8477e0957880007b1810d878067b160894663307403308205010084afd6f688219086f99821a106faa46171a46171946171646171546171446171346171246171146170e46170d46170c46170b46170a4617094617074617064617054617044617034617024617014607787a1898ab38787b1f98ab30787b1e98ab28787b1d98ab20787b1c98aa18787a1b78791098993878791778780898883878780f33078000821618646850100abcfc8377646833090a01531620ed023307800033082050100ca3fc7c78097c79087c7a0a7c7b0b978808d4980897aa1097bb18d4ba0ad4a8087c790d7c7a0c7c7b0e7c7c0f979908d4a90997bb1097cc18d4cb0bd4b909979920d498087c79017c7a7c7b027c7c03979908d4a90997bb1097cc18d4cb0bd4b9097c7a057c7b047c7c067c760797aa08d4ba0a97cc10976618d46c0cd4ca0a97aa20d4a9096f966f8214080000000001000000d38208d468089829208899019469938951093b027c78197c79187c7a1a7c7b1b978808d4980897aa1097bb18d4ba0ad4a8087c791d7c7a1c7c7b1e7c7c1f979908d4a90997bb1097cc18d4cb0bd4b909979920d498087c79117c7a107c7b127c7c13979908d4a90997bb1097cc18d4cb0bd4b9097c7a157c7b147c7c167c771797aa08d4ba0a97cc10977718d4c707d4a707977720d497076f797b19106f877b17187b17607b19687b1270951780009518607b16787b120850100eff4b7b16388217087b17308217107b17289517409518208219187b19203300109511e0fd7b1018027b1510027b160802951520028411e0641682897b69c8008289087b69c0008088107b68d0007b67d800330820330733000a0128f8fa330740330820501012effa7c78117c79107c7a127c7b13978808d4980897aa1097bb18d4ba0ad4a8087c79157c7a147c7b167c7c17979908d4a90997bb1097cc18d4cb0bd4b909979920d489027c79017c7a7c7b027c7c03979908d4a90997bb1097cc18d4cb0bd4b9097c7a057c7b047c7c067c760797aa08d4ba0a97cc10976618d46c0cd4ca0a97aa20d4a9097c7a197c7b187c7c1a7c761b97aa08d4ba0a97cc10976618d46c0cd4ca0a7c7b1d7c7c1c7c761e7c781f97bb08d4cb0b976610978818d46808d4b808978820d48a0a7c78097c7b087c7c0a7c760b978808d4b80897cc10976618d46c0cd4c8087c7b0d7c7c0c7c760e7c770f97bb08d4cb0b976610977718d46707d4b707977720d487076f776fa66f986f29d49808d47609d48909989920d48707977720d497075107170033073308501014bef9837833070133090a0701836664673308501016a9f98377330833090a013908c8000251080d3307d0000383770a08016467330850101886f983783307330933001a0a0701951108f87b10f0077b15e8077b16e0079515f807951138fa8411e0641633074033082050101c52f946171f800046171e46171d46171c46171b46171a46171946171846171746171646171546171446171346171246171146171046170f46170e46170d46170c46170b46170a4617094617084617074617033308c4000246170246170146077b68b8013908c400024617064617054617045518040728d947956700108377c0fa33080a01019567ff07957739018177a4015a47bd8a563673025a479ebc6babbe035847defd17a20a28ba1151473cff81860a28df209517e08477e07b67b0016471491718491710491708490783770a0a01826ab00182a71082a81882a90882aad49808d4a707d487075107062862478267b80181775617430728554795670010837780fd3308040a01019569ff079599390182985804829a600414070000000001000000d38707d4a7077b68b8019888208888017b6ab00194a8937852080628e236829750047b67a001829748047b67a801330820330750101ef8f78268b0016f888269b8016f99826aa0016faa826ba8016fbb98bc38787c1f98bc30787c1e98bc28787c1d98bc20787c1c98bc18787c1b98bc10787c1a98bc08787c19787b18787a1098ab38787b1798ab30787b1698ab28787b1598ab20787b1498ab18787b1398ab10787b1298aa08787a11787908989a38787a0f989a30787a0e989a28787a0d989a20787a0c989a18787a0b989a10787a0a989908787909787898893878790798893078790698892878790598892078790498891878790398891078790298880878780133072033082050102022f746171f0246171e46171d46171c46171b46171a46171946171846171746171646171546171446171346171246171146171046170f46170e46170d46170c46170b46170a46170946170846170746170646170546170446170346170246170146073308403307501022b8f69518e08488e07b68a0016481837783893308400a068268a00182877b67b8018287087b67b0018287107b67a8018287187b67a00195670010837700fc3308240a019567ff07957739018278c8027b6898018278d0027b6890018278d8027b6888018277e00228121d58476942b56d080b5a47fb38b2752e0d51476a42b56d0a287b189517e08477e07b67b0016471491718491710491708490783770a0a01826ab00182a71082a81882a90882aad49808d4a707d4870751070628f9448267b80181775617230728ec4495670010837780fd3308040a01019569ff079599390182985804829a600414070000000001000000d38707d4a7077b68b8019888208888017b6ab00194a89378520806287934829750047b67a001829748047b67a80133082033075010248ff546171f910046171ecb0046171d8f0046171c6a46171b4446171a254617191d461718ba00461717dd00461716af003308920078781546171467461713494617128700461711be00461710d00046170f3f46170ee30046170daa0046170c2e46170b5b46170a69461709f700461708a10046170728461706d800461705654617047f461703b20046170290004617012328ed1e5847a6c9ff010a28051058475fa056c70a28ef2251479fbc6bab0a28dc439517e08477e07b67b0016471491718491710491708490783770a0a01826ab00182a71082a81882a90882aad49808d4a707d4870751070628a2438267b80181775617430728954395670010837780fd3308040a01019569ff079599390182985804829a600414070000000001000000d38707d4a7077b68b0019888208888017b6aa80194a89378520806282233829750047b679801829748047b67a00195670010837740fc3308240a0101956aff0795aa390182ac200382a8180382ab1003d4c80988b7019497520706281a437b692882aa08038267b801807395a723d8a709c89b027b6b7801d8b20bda990bc88b0b7b686001d88b097b6c6801c8c909d4b909d837079427949752070628d94283a80495670010837760fc7b6a70010a0101956bff0795bb390182b3400382ba380382b93003d43a088897017b685801948752070628a14282b728037b67500182687001c88707d887087b691801826c7801c8c909c88909d3c902d8c90bda280b7b6a4801826c6001c8ac08c88b0bd88b0ad8c8087b632001826c6801c83c0cc8c808c8a808957a24d87a07c8790cd89c09da77098267b8018077c8b909d8b90bc8b808d8a70788ca01857701dbca07889a01888b01da8a0bd49808db8b07520706281442501026ce6a3308203307501028fdf28268a8016f888269b0016f99826a98016faa826ba0016fbb98bc38787c1f98bc30787c1e98bc28787c1d98bc20787c1c98bc18787c1b98bc10787c1a98bc08787c19787b1898ab38787b1798ab30787b1698ab28787b1598ab20787b1498ab18787b1398ab10787b1298ab08787b11787a10787908989a38787a0f989a30787a0e989a28787a0d989a20787a0c989a18787a0b989a10787a0a989908787909787898893878790798893078790698892878790598892078790498891878790398891078790298880878780133072033082050102a27f246171f0146171e46171d46171c46171b46171a46171946171846171746171646171546171446171346171246171146171046170f46170e46170d46170c46170b46170a4617094617084617074617064617054617044617034617024617014607330840330750102cbdf19518e08488e07b68b8016481837783893308400a068267b801827818827910827a08827b956cff0795cc39017b6828017bc840047b6930017bc938047b6a38017bca30047b6b40017bcb2804492c6004492c5804492c5004492c4804482ce8032095670010837860fd95670010837a80fd95670010837b20fd3309ff330733002e0a0501956aff0795aa390182a7600482a8480482a9580482aa50046f776f886f996faa97ab3f989c01d4bc03978c3f98aa01d4ca0a97993f987c01d4c9099888018477019a7c887201849b7fd2ca0ad23c03db790bd28c0c88b7209437d4ca089487aa7206285130826940019898387b68609898307b68589898287b68509898207b68489898187b68409898107b68389898087b6830826938019898387b6898009898307b6890009898287b6888009898207b6880009898187b68789898107b68709898087b6868826930019898387b6808019898307b6800019898287b68f8009898207b68f0009898187b68e8009898107b68e0009898087b68d800826928019898387b68d0009898307b68c8009898287b68c0009898207b68b8009898187b68b0009898107b68a8009898087b68a000826850018888207b681001520746033308207b6aa8017b6ca0017b6b90017b639801501030e3ef82683801787808826860787807826858787806826850787805826848787804826840787803826838787802826830787801826840017878826830017878108268980078780f8268900078780e8268880078780d8268800078780c82687878780b82687078780a8268687878098268280178781882680801787817826800017878168268f8007878158268f0007878148268e8007878138268e0007878128268d8007878118268d00078781f8268c80078781e8268c00078781d8268b80078781c8268b00078781b8268a80078781a8268a000787819330820330750103204ef9518e08488e07b68b0016481837783893308200a06018267500195781fd87807826c1801c87c0ad8ca09da7709826b4801c8b9097b69880197993b98ab05d4b9098267b00182721897aa3b827710988805d48a0a6f246f7b8268100194c88267580194789489948ac84a0a7b6ab801d84a07c87b0ac89a02d3b20ad8b209daa7097b69208267900195701fd87009826a9801c89a07d8a70ada990a8263a801c8a3097b69900197993b987c05d4c90997773b980c058260b801d4c707c8740ad84a07c87b0cc8c90964a4d3b90ad8b90bdaa70b7b6b18d392077b699801d89209d84003db79038269880182674801d87907826b2001c87b0b98990597b73bd497078269b001829a82990898bb059487948b6f986fa9c89b0bc88707d8870ac8ba0a826b20c87b0b7b6bb001d87b07c87a0c8267a801826b9001d87b07826aa001c8a70798ba05977b3bd4ba0a987705c89707c88a0ad88a08c88707826b18c8ab0bd8ab08826ab001c88709d8ba07d39c087b698801d89c09da87097b6b9001d3ba07d48707db79035103c3007b648001017b6ab0017b6ca0017b62a8017b60b8016fc76fa86f296f0a956bff0795bb39017bba40047bb938047bb830047bb72804492b6004492b5804492b5004492b480495670010837860fd95670010837a80fd3309ff330b2033070a0901826ca001826480018262a8018260b801950001880701c87202d420078877018268b001c88707d88708c88c0cd84008826a9801d3a209d8a20ada980a82689001d88703826b8801d3bc09d8bc0bda930bd37808d49808da8a0b647a520b4aff826c18018ec782681001858801dbc708826b48018eb7826a20018ea9daa70982675801da7809520906289e25826750018477e07b675801330820330750103478ec8268607878078268587878068268507878058268487878048268407878038268387878028268307878018268980078780f8268900078780e8268880078780d8268800078780c82687878780b82687078780a82686878780982680801787817826800017878168268f8007878158268f0007878148268e8007878138268e0007878128268d8007878118268d00078781f8268c80078781e8268c00078781d8268b80078781c8268b00078781b8268a80078781a8268a000787819826838017878088268400178788268300178781082682801787818330820330750103699eb9518e08488e07b68b8016481837783893308200a0601826ab80182a782a80882a91082aa186f777b67a8016f836f977b67b8016fa77b67b0018267580151070628d0247b63a00133023300330b24286a265847b9b0b55a050b52476607cc61420c9517e08477e07b67b0016471491718491710491708490783770a0a01826ab00182a71082a81882a90882aad49808d4a707d4870751070628fb398267b80181775617030728ee39330740330820501038e6ea7c78117c79107c7a127c7b13978808d4980897aa1097bb18d4ba0ad4a8087c79157c7a147c7b167c7c17979908d4a90997bb1097cc18d4cb0bd4b909979920d489027c79017c7a7c7b027c7c03979908d4a90997bb1097cc18d4cb0bd4b9097c7a057c7b047c7c067c780797aa08d4ba0a97cc10978818d4c808d4a808978820d498037c78197c7a187c7b1a7c7c1b978808d4a80897bb1097cc18d4cb0bd4b8087c7a1d7c7b1c7c7c1e7c791f97aa08d4ba0a97cc10979918d4c909d4a909979920d4890a7c78097c79087c7b0a7c7c0b978808d4980897bb1097cc18d4cb0bd4b8087c790d7c7b0c7c7c0e7c770f979908d4b90997cc10977718d4c707d49707977720d487076f786fa76f396f2ad4a909d4870ad49a0a98aa20d49808978820d4a80851080628c11783777b67b80133082050103aaee946171f910046171ecb0046171d8f0046171c6a46171b4446171a254617191d461718ba00461717dd00461716af00461715920046171467461713494617128700461711be00461710d00046170f3f46170ee30046170daa0046170c2e46170b5b46170a69461709f700461708a10046170728461706d800461705654617047f461703b20046170290004617012346079200281d225147fc38b2750a287b0d9517e08477e07b67b0016471491718491710491708490783770a0a01826ab00182a71082a81882a90882aad49808d4a707d4870751070628d3378267b80181775617030728c63733074033082050103cbee87c78117c79107c7a127c7b13978808d4980897aa1097bb18d4ba0ad4a8087c79157c7a147c7b167c7c17979908d4a90997bb1097cc18d4cb0bd4b909979920d489027c79017c7a7c7b027c7c03979908d4a90997bb1097cc18d4cb0bd4b9097c7a057c7b047c7c067c780797aa08d4ba0a97cc10978818d4c808d4a808978820d498037c78197c7a187c7b1a7c7c1b978808d4a80897bb1097cc18d4cb0bd4b8087c7a1d7c7b1c7c7c1e7c791f97aa08d4ba0a97cc10979918d4c909d4a909979920d4890a7c78097c79087c7b0a7c7c0b978808d4980897bb1097cc18d4cb0bd4b8087c790d7c7b0c7c7c0e7c770f979908d4b90997cc10977718d4c707d49707977720d487076f786fa76f396f2ad4a909d4870ad49a0a98aa20d49808978820d4a80851080628991583777b67b80133082050103e86e746171f7546171e1746171dc20046171c930046171b5646171a094617195b46171882004617178700461716e200461715fb0046171401461713a200461712f4004617113c461710910046170fe80046170e5646170d8f0046170ca10046170ba80046170af5004617092e4617080946170755461706d300461705e4004617045c461703204617020746170198004607a40028f51f5147dffd17a20a2858199517e08477e07b67b0016471491718491710491708490783770a0a01826ab00182a71082a81882a90882aad49808d4a707d4870751070628ab358267b801817756170307289e3533074033082050104096e67c78117c79107c7a127c7b13978808d4980897aa1097bb18d4ba0ad4a8087c79157c7a147c7b167c7c17979908d4a90997bb1097cc18d4cb0bd4b909979920d489027c79017c7a7c7b027c7c03979908d4a90997bb1097cc18d4cb0bd4b9097c7a057c7b047c7c067c780797aa08d4ba0a97cc10978818d4c808d4a808978820d498037c78197c7a187c7b1a7c7c1b978808d4a80897bb1097cc18d4cb0bd4b8087c7a1d7c7b1c7c7c1e7c791f97aa08d4ba0a97cc10979918d4c909d4a909979920d4890a7c78097c79087c7b0a7c7c0b978808d4980897bb1097cc18d4cb0bd4b8087c790d7c7b0c7c7c0e7c770f979908d4b90997cc10977718d4c707d49707977720d487076f786fa76f396f2ad4a909d4870ad49a0a98aa20d49808978820d4a80851080628711383777b67b8013308205010425ee546171f46171e46171d46171c46171b46171a46171946171846171746171646171546171446171346171246171146171046170f46170e46170d46170c46170b46170a46170946170846170746170646170546170446170346170246170146073308208267b8013300900028efe433080020073258477a2407320a28c31b5147a39c8a240a28ae249517e08477e07b67b0016471491718491710491708490783770a0a01826ab00182a71082a81882a90882aad49808d4a707d48707510706289a338267b801817756172307288d3395670010837700fb3308040a019567ff07957739018278c8017b68b8018278d0017b68b0018278d8017b68a8018277e0017b67a001330820330750104451e48268a0016f888269a8016f99826ab0016faa826bb8016fbb98bc38787c1f98bc30787c1e98bc28787c1d98bc20787c1c98bc18787c1b98bc10787c1a98bc08787c19787b1898ab38787b1798ab30787b1698ab28787b1598ab20787b1498ab18787b1398ab10787b1298ab08787b11787a10989a38787a0f989a30787a0e989a28787a0d989a20787a0c989a18787a0b989a10787a0a989a08787a0978790898893878790798893078790698892878790598892078790498891878790398891078790298890878790178783307203308205010467be346171f46171e46171d46171c46171b46171a46171946171846171746171646171546171446171346171246171146171046170f46170e46170d46170c46170b46170a4617094617084617074617064617054617044617034617024617014607330840330750104812e3837795680010838920fd3308400a06956cff0795cc390182c7e80382c8f00382c9f80382ca00046f776f886f996faa95aa0188ab01c8b909d49a0b88bb01c88b0bd88b08c887076f776fb86f996faa7bca40047bc938047bc830047bc72804492c6004492c5804492c5004492c4804482c08042095670010837860fd95670010837a80fd95670010837b40fd3309ff33070a059568ff0795883901828760047b67b801828758047b67b001828750047b67a001828748047b67a80133074033082050104a4ce27c78117c79107c7a127c7b13978808d4980897aa1097bb18d4ba0ad4a8087c79157c7a147c7b167c7c17979908d4a90997bb1097cc18d4cb0bd4b909979920d489027c79017c7a7c7b027c7c03979908d4a90997bb1097cc18d4cb0bd4b9097c7a057c7b047c7c067c780797aa08d4ba0a97cc10978818d4c808d4a808978820d498037c78197c7a187c7b1a7c7c1b978808d4a80897bb1097cc18d4cb0bd4b8087c7a1d7c7b1c7c7c1e7c791f97aa08d4ba0a97cc10979918d4c909d4a909979920d4890a7c78097c79087c7b0a7c7c0b978808d4980897bb1097cc18d4cb0bd4b8087c790d7c7b0c7c7c0e7c770f979908d4b90997cc10977718d4c707d49707977720d487076f786fa76f396f2ad4a909d4870ad49a0a98aa20d49808978820d4a80851080628270f83777b67980133082050104c14e1826ab001787a108269a00198983878780f98983078780e98982878780d98982078780c98981878780b98981078780a9898087878097879088269a80198983878780798983078780698982878780598982078780498981878780398981078780298980878780178798269b80178791898a83878781798a83078781698a82878781598a82078781498a81878781398a81078781298a80878781198983878781f98983078781e98982878781d98982078781c98981878781b98981078781a98980878781933082082679801330090002841e051475705b9490a28ef209517e08477e07b67b0016471491718491710491708490783770a0a01826ab00182a71082a81882a90882aad49808d4a707d4870751070628fc2e8267b80181775617230728ef2e95670010837780fd3308040a01019569ff079599390182985804829a600414070000000001000000d38707d4a7077b68b8019888208888017b6ab00194a89378520806287c1e829750047b67a001829748047b67a801330820330750104e92df46171ff50046171ee20046171d9f0046171cd30046171bea0046171a461719264617185e4617174f461716fd0046171551461714f600461713fb00461712c4004617119e004617102446170ff30046170e9b0046170d1246170cbe0046170bdc0046170ace004617093d4617087f4617077a461706ad0046170537461704584617038e00461702c400461701a10033085928ee085147cce35b6a0a28e8209517e08477e07b67b0016471491718491710491708490783770a0a01826ab00182a71082a81882a90882aad49808d4a707d4870751070628b72d8267b80181775617230728aa2d95670010837780fd3308040a01019569ff079599390182985804829a600414070000000001000000d38707d4a7077b68b8019888208888017b6ab00194a8937852080628371d829750047b67a001829748047b67a80133082033075010504dde46171f2946171e5046171d2146171c7946171b1c46171afd00461719a900461718c70046171702461716ff0046171569461714dd004617138900461712b500461711114617100946170fe60046170e7b46170d0946170c830046170bf70046170a6c46170934461708f900461707544617061946170599004617043c461703e5004617024617016a3308960028ae0751476e611d6e0a28b12c9517e08477e07b67b0016471491718491710491708490783770a0a01826ab00182a71082a81882a90882aad49808d4a707d4870751070628772c8267b801817756170307286a2c33074033082050105262dd7c78117c79107c7a127c7b13978808d4980897aa1097bb18d4ba0ad4a8087c79157c7a147c7b167c7c17979908d4a90997bb1097cc18d4cb0bd4b909979920d489027c79017c7a7c7b027c7c03979908d4a90997bb1097cc18d4cb0bd4b9097c7a057c7b047c7c067c780797aa08d4ba0a97cc10978818d4c808d4a808978820d498037c78197c7a187c7b1a7c7c1b978808d4a80897bb1097cc18d4cb0bd4b8087c7a1d7c7b1c7c7c1e7c791f97aa08d4ba0a97cc10979918d4c909d4a909979920d4890a7c78097c79087c7b0a7c7c0b978808d4980897bb1097cc18d4cb0bd4b8087c790d7c7b0c7c7c0e7c770f979908d4b90997cc10977718d4c707d49707977720d487076f786fa76f396f2ad4a909d4870ad49a0a98aa20d49808978820d4a8085208400a83777b67b8013308205010542cdc46171ff50046171ee20046171d9f0046171cd30046171bea0046171a461719264617185e4617174f461716fd0046171551461714f600461713fb00461712c4004617119e004617102446170ff30046170e9b0046170d1246170cbe0046170bdc0046170ace004617093d4617087f4617077a461706ad0046170537461704584617038e00461702c400461701a100460759289b1451479859657d0a28ab1f9517e08477e07b67b0016471491718491710491708490783770a0a01826ab00182a71082a81882a90882aad49808d4a707d4870751070628512a8267b80181775617430728442a95670010837780fd3308040a01019569ff079599390182985804829a600414070000000001000000d38707d4a7077b68b8019888208888017b6ab00194a8937852080628d119829750047b67a001829748047b67a8013308203307501056e7da8268b0016f888269b8016f99826aa0016faa826ba8016fbb98bc38787c1f98bc30787c1e98bc28787c1d98bc20787c1c98bc18787c1b98bc10787c1a98bc08787c19787b18787a1098ab38787b1798ab30787b1698ab28787b1598ab20787b1498ab18787b1398ab10787b1298aa08787a11787908989a38787a0f989a30787a0e989a28787a0d989a20787a0c989a18787a0b989a10787a0a989908787909787898893878790798893078790698892878790598892078790498891878790398891078790298880878780133072033082050105811da46171f0246171e46171d46171c46171b46171a46171946171846171746171646171546171446171346171246171146171046170f46170e46170d46170c46170b46170a4617094617084617074617064617054617044617034617024617014607330840330750105aa7d99518e08488e07b68a0016481837783893308400a068268a00182877b67b8018287087b67b0018287107b67a8018287187b67a001956700108377c0fb3308240a019567ff0795773901827888027b689801827890027b689001827898027b6888018277a002017b678001330820330750105c33d9826880016f88826988016f99826a90016faa826b98016fbb98bc38787c1f98bc30787c1e98bc28787c1d98bc20787c1c98bc18787c1b98bc10787c1a98bc08787c19787b1898ab38787b1798ab30787b1698ab28787b1598ab20787b1498ab18787b1398ab10787b1298ab08787b11787a10989a38787a0f989a30787a0e989a28787a0d989a20787a0c989a18787a0b989a10787a0a989a08787a09787908988938787907988930787906988928787905988920787904988918787903988910787902988908787901787833072033082050105e5dd88269a00198983878781f98983078781e98982878781d98982078781c98981878781b98981078781a9898087878197879188269a8019898387878179898307878169898287878159898207878149898187878139898107878129898087878117879108269b00198983878780f98983078780e98982878780d98982078780c98981878780b98981078780a9898087878097879088269b80128d50351475448d1910a28b6269517e08477e07b67b0016471491718491710491708490783770a0a01826ab00182a71082a81882a90882aad49808d4a707d48707510706287c268267b801817756174307286f2695670010837780fd3308240a01019569ff079599390182985804829a600414070000000001000000d38707d4a7077b68b8019888208888017b6ab00194a8937852080628fc15829750047b67a001829748047b67a80195670010837720fc3308040a019567ff07957739018278e8027b6898018278f0027b6890018278f8027b688801827700037b6780013308203307501060ddd6826880016f88826988016f99826a90016faa826b98016fbb98bc38787c1f98bc30787c1e98bc28787c1d98bc20787c1c98bc18787c1b98bc10787c1a98bc08787c19787b1898ab38787b1798ab30787b1698ab28787b1598ab20787b1498ab18787b1398ab10787b1298ab08787b11787a10989a38787a0f989a30787a0e989a28787a0d989a20787a0c989a18787a0b989a10787a0a989a08787a0978790898893878790798893078790698892878790598892078790498891878790398891078790298890878790101787833072033082050106206d646171f46171e46171d46171c46171b46171a46171946171846171746171646171546171446171346171246171146171046170f46170e46170d46170c46170b46170a461709461708461707461706461705461704461703461702461701460733084033075010649dd59518e08488e07b6880016481837783893308400a068268800182877b6798018287087b6790018287107b6788018287187b67800133082033075010665fd58268b0016f888269b8016f99826aa0016faa826ba8016fbb98bc38787c1f98bc30787c1e98bc28787c1d98bc20787c1c98bc18787c1b98bc10787c1a98bc08787c19787b1898ab38787b1798ab30787b1698ab28787b1598ab20787b1498ab18787b1398ab10787b1298ab08787b11787a10989a38787a0f989a30787a0e989a28787a0d989a20787a0c989a18787a0b989a10787a0a989a08787a09787908988938787907988930787906988928787905988920787904988918787903988910787902988908787901787833072033082050106889d48269800198983878781f98983078781e98982878781d98982078781c98981878781b98981078781a989808787819787918826988019898387878179898307878169898287878159898207878149898187878139898107878129898087878117879108269900198983878780f98983078780e98982878780d98982078780c98981878780b98981078780a98980878780978790882699801019898387878079898307878069898287878059898207878049898187878039898107878029898087878017879330840330750106abbd39518e08488e07b68b8016481837783893308400a06826ab80182a71882a81082a90882aa956bff0795bb39017bb740047bb838047bb930047bba2804492b6004492b5804492b5004492b4804482be8032095670010837860fd95670010837a80fd95670010837b20fd3309ff33070a059568ff0795883901828760047b67b801828758047b67b00133074033082050106c28d37c78117c79107c7a127c7b13978808d4980897aa1097bb18d4ba0ad4a8087c79157c7a147c7b167c7c17979908d4a90997bb1097cc18d4cb0bd4b909979920d489027c79017c7a7c7b027c7c03979908d4a90997bb1097cc18d4cb0bd4b9097c7a057c7b047c7c067c780797aa08d4ba0a97cc10978818d4c808d4a808978820d498037c78197c7a187c7b1a7c7c1b978808d4a80897bb1097cc18d4cb0bd4b8087c7a1d7c7b1c7c7c1e7c791f97aa08d4ba0a97cc10979918d4c909d4a909979920d4890a7c78097c79087c7b0a7c7c0b978808d4980897bb1097cc18d4cb0bd4b8087c790d7c7b0c7c7c0e7c770f979908d4b90997cc10977718d4c707d49707977720d487076f786fa76f396f2ad4a909d4870ad49a0a98aa20d49808978820d4a80852080628d71000514760a056c70a2836189517e08477e07b67b0016471491718491710491708490783770a0a01826ab00182a71082a81882a90882aad49808d4a707d4870751070628b6208267b80181775617230728a92095670010837780fd3308040a01019569ff079599390182985804829a600414070000000001000000d38707d4a7077b68b8019888208888017b6ab00194a89378520806283610829750047b67a001829748047b67a801330820330750106e4cd18268b0016f888269b8016f99826aa0016faa826ba8016fbb98bc38787c1f98bc30787c1e98bc28787c1d98bc20787c1c98bc18787c1b98bc10787c1a98bc08787c19787b18787a1098ab38787b1798ab30787b1698ab28787b1598ab20787b1498ab18787b1398ab10787b1298aa08787a11787908989a38787a0f989a30787a0e989a28787a0d989a20787a0c989a18787a0b989a10787a0a989908787909787898893878790798893078790698892878790598892078790498891878790398891078790298880878780133072033082050107076d046171f0146171e46171d46171c46171b46171a46171946171846171746171646171546171446171346171246171146171046170f46170e46170d46170c46170b46170a461709461708461707461706461705461704461703461702461701460733084033075010720cd09518e08488e07b68b8016481837783893308400a06826ab80182a71882a81082a90882aa6f7b6f876f986fa9956a00107ba9d8f8956900107b98d0f8956800107b87c8f89567ff079577e1009568ff079588c100956900107b9bc0f85010741c32956700108277e0f87b67b001956700108277e8f87b67a801956700108277f0f87b67a001956700108277f8f87b67980133074033082050107670cf7c78017c797c7a027c7b03978808d4980897aa1097bb18d4ba0ad4a8087c79057c7a047c7b067c7c07979908d4a90997bb1097cc18d4cb0bd4b909979920d489027c79097c7a087c7b0a7c7c0b979908d4a90997bb1097cc18d4cb0bd4b9097c7a0d7c7b0c7c7c0e7c780f97aa08d4ba0a97cc10978818d4c808d4a808978820d498037c78117c7a107c7b127c7c13978808d4a80897bb1097cc18d4cb0bd4b8087c7a157c7b147c7c167c791797aa08d4ba0a97cc10979918d4c909d4a909979920d4890a7c78197c79187c7b1a7c7c1b978808d4980897bb1097cc18d4cb0bd4b8087c791d7c7b1c7c7c1e7c771f979908d4b90997cc10977718d4c707d49707977720d487076f7b7b6b80016fa97b6988016f387b6890016f2a7b6ab80182679801956c00107bc778f88267a001956c00107bc770f88267a801956c00107bc768f88267b001956c00107bc760f8956700107b7a98f8956700107b7890f8956700107b7988f89567ff079577a1009568ff07958881009569ff07959961956a00107bab80f8501078a73b826b8801826980018267b801d4b707826a9001d4a908d47808988820d4a707977720d487075207c2fb64a2956700108277a8f8956800108288b8f87b68b001956800108283a0f895680010828ab0f82809045147f87feca20a28861c9517e08477e07b67b0016471491718491710491708490783770a0a01826ab00182a71082a81882a90882aad49808d4a707d48707510706284c1c8267b801817756172307283f1c95670010837780fd3308040a01019569ff079599390182985804829a600414070000000001000000d38707d4a7077b68b8019888208888017b6ab00194a893785108cf0b829750047b67a001829748047b67a801330820330750107ae4cc8268b0016f888269b8016f99826aa0016faa826ba8016fbb98bc38787c1f98bc30787c1e98bc28787c1d98bc20787c1c98bc18787c1b98bc10787c1a98bc08787c19787b18787a1098ab38787b1798ab30787b1698ab28787b1598ab20787b1498ab18787b1398ab10787b1298aa08787a11787908989a38787a0f989a30787a0e989a28787a0d989a20787a0c989a18787a0b989a10787a0a989908787909787898893878790798893078790698892878790598892078790498891878790398891078790298880878780133072033082050107c0ecc46171f0146171e46171d46171c46171b46171a46171946171846171746171646171546171446171346171246171146171046170f46170e46170d46170c46170b46170a4617094617084617074617064617054617044617034617024617014607330840330750107ea4cb9518e08488e07b68b8016481837783893308400a06826ab80182a71882a81082a90882aa6f7b6f876f986fa97b69f8067b68f0067b67e806956700079568e0067b6be00650208000cc2d826700077b67b001826708077b67a801826710077b67a001826718077b679801330740330820502082002fcb7c78017c797c7a027c7b03978808d4980897aa1097bb18d4ba0ad4a8087c79057c7a047c7b067c7c07979908d4a90997bb1097cc18d4cb0bd4b909979920d489027c79097c7a087c7b0a7c7c0b979908d4a90997bb1097cc18d4cb0bd4b9097c7a0d7c7b0c7c7c0e7c780f97aa08d4ba0a97cc10978818d4c808d4a808978820d498037c78117c7a107c7b127c7c13978808d4a80897bb1097cc18d4cb0bd4b8087c7a157c7b147c7c167c791797aa08d4ba0a97cc10979918d4c909d4a909979920d4890a7c78197c79187c7b1a7c7c1b978808d4980897bb1097cc18d4cb0bd4b8087c791d7c7b1c7c7c1e7c771f979908d4b90997cc10977718d4c707d49707977720d487076f7b7b6b80016fa97b6988016f387b6890016f2a7b6ab801826798017b6798068267a0017b6790068267a8017b6788068267b0017b6780067b6ab8067b68b0067b69a8069567c0069568a006956980067b6ba006502084009037826b8801826980018267b801d4b707826a9001d4a908d47808988820d4a707977720d487075207aaf764a28267c8068268d8067b68b0018263c006826ad00601d3b704d8b70cd89300da400cc92a08c9c804d8c8087b68a801d82a0a826cb8018268b001c9c80cc9ac0c8268a801c98c0cc9b707c90707c99308d4c707d4480ad47a0ad4470798aa20977720d4a707520740f7839783887b68b801502086002dc9837833078269b8010a070183887b04aa87062814189517e08477e07b67b0016471491718491710491708490783770a0a01826ab00182a71082a81882a90882aad49808d4a707d4870751070628da178267b80181775617030728cd1733074033082050208800c5c87c78117c79107c7a127c7b13978808d4980897aa1097bb18d4ba0ad4a8087c79157c7a147c7b167c7c17979908d4a90997bb1097cc18d4cb0bd4b909979920d489027c79017c7a7c7b027c7c03979908d4a90997bb1097cc18d4cb0bd4b9097c7a057c7b047c7c067c780797aa08d4ba0a97cc10978818d4c808d4a808978820d498037c78197c7a187c7b1a7c7c1b978808d4a80897bb1097cc18d4cb0bd4b8087c7a1d7c7b1c7c7c1e7c791f97aa08d4ba0a97cc10979918d4c909d4a909979920d4890a7c78097c79087c7b0a7c7c0b978808d4980897bb1097cc18d4cb0bd4b8087c790d7c7b0c7c7c0e7c770f979908d4b90997cc10977718d4c707d49707977720d487076f786fa76f396f2ad4a909d4870ad49a0a98aa20d49808978820d4a8085208a2f583777b67b80133082050208a008ec746171f2946171e5046171d2146171c7946171b1c46171afd00461719a900461718c70046171702461716ff0046171569461714dd004617138900461712b500461711114617100946170fe60046170e7b46170d0946170c830046170bf70046170a6c46170934461708f900461707544617061946170599004617043c461703e5004617024617016a46079600013308208267b8013300900028f0c682675001d4b707d4ac08d487075107c60e1407dcffffff0000000082697001d8790782687801948782682894875107c7f4839824956700108377c0fc0a019567ff07957739018278a0037b689001827898037b689801827890037b68a001827788037b67a801287e0e330233083309330001649c648b82677001c827077b629001d8270882697801c8b909c88909d3b90a7b6b9801d8b90bdaa80b82686001c8c808c88b0bd88b0a7b6c8001d8c808826c6801c80c0cc8c808c88a0a957824d87807c8790cd89c09da7709c8b909d8b907c8a707d4c707d4980ad47a0ad4970798aa20977720d4a70752070bf4838895670010837780fc7b63a0017b6088010a01956aff0795aa390182a8480382a750038269b0016f997ba940048269b8016f997ba938048269a0016f997ba930048269a8016f997ba9280482a958036f887ba8600482a860036f777ba758046f977ba750046f877ba7480495670010837860fd95670010837a80fd3309ff330b2033070a09018263b0019533018837018268b801c878087b68b80182679001957220d8720982679801c89708d8780ada990a82648001c8a409d8490a82608801c8a000d4090c82675801d8720b948b94cb7b63b0018267b801d4730c88cc018267a001c87c0cd87c07826aa801c87a0a7b6aa80164c3520b8efe82679001957b44d87b0982689801c89807d88708da9908c88402d8420a82608801c8a0007b6ca001018268500182695801d3980882634801d438088264200182691801d4490cd4c80851085c0382687001c8b808d8b80b826c7801c87c0cc8bc0cd37c09d87c07da9b0782696001c82909c89707d8970bd82909826a6801c80a0ac8a909c8b909d4780ad4c909d49a0a98aa20d49707977720d4a707520770f24626df074626de074626dd074626dc074626db074626da074626d9074626d8074626d7074626d6074626d5074626d4074626d3074626d2074626d1074626d0074626cf074626ce074626cd074626cc074626cb074626ca074626c9074626c8074626c7074626c6074626c5074626c4074626c3074626c2074626c1074626c0074626bf07ff004626be07ff004626bd07ff004626bb07ff004626b807ff4626b707ff004626b607ff004626b507ff004626b307ff004626b007ff4626af07ff004626ae07ff004626ad07ff004626ab07ff004626a807ff4626a707ff004626a607ff004626a507ff004626a307ff004626a007ff1409ffffffff000000007869bc07140affffffffffff0000786aba071407ffffffffffffff007867b9077869b407786ab2077867b1077869ac07786aaa077867a9077869a407786aa2077867a1078267500184771f9569a007c897077c79197c7a187c7b1a7c7c1b979908d4a90997bb1097cc18d4cb0bd49b027c7a1d7c7b1c7c7c1e7c791f97aa08d4ba0a97cc10979918d4c909d4a909979920d429097b6998017c79117c7a107c7b127c7c13979908d4a90997bb1097cc18d4cb0bd49b027c7a157c7b147c7c167c791797aa08d4ba0a97cc10979918d4c909d4a909979920d429097b6990017c79097c7a087c7b0a7c7c0b979908d4a90997bb1097cc18d4cb0bd49b027c7a0d7c7b0c7c7c0e7c790f97aa08d4ba0a97cc10979918d4c909d4a909979920d429097b6988017c79017c7a7c7b027c7c03979908d4a90997bb1097cc18d4cb0bd4b9097c7a057c7b047c7c067c770797aa08d4ba0a97cc10977718d4c707d4a707977720d497077b6780018388956700108377a0fc0a01956aff0795aa390182a7680382a8700382a9780382aa8003826b8001e0b70b82678801e0780782689001e0890882699801e09a09826aa801956c00107bca18f8826aa001956c00107bca10f8826ab801956c00107bca08f8826ab001956c00107bca00f87b69f8077b68f0077b67e8079567ff079577019568e0077b6be00750208c0027c3826918018263480182642001014926b8014926b0013300826c500198c73f979a01d47a0a98973f973b01d47b0b98373f974801d4870797cc0133080128d10c33073300e0002828c183777b67a80133082050208e001cc11408ffffffffffffff00826ab801d3a8088269b001e1980998a8388e88939846171e46171d46171c46171b46171a46171946171846171746171646171546171446171346171246171146171046170f46170e46170d46170c46170b46170a461709461708461707461706461705461704461703461702461701460778781f3308208267a8015020900091c0837833092033070a0701492650074926480749264007140700000000717b484e956840077b675807330750209200a1c04926380749263007492620072233070495682007492628075020940083c033082433075020960038c083783307013309240a07015247a7c9ff01340c9517e08477e07b67b0016471491718491710491708490783770a0a01826ab00182a71082a81882a90882aad49808d4a707d487075207ea0e8267b8018177541723e00e956700108377e0fa3308040a01019568ff07958839018287c0018289b801828aa8018288b001977b2098bb20d4a909d48b0bd49b0b520ba60e140a000000000bdb6579d37a0ad48a0ad49a0a88aa01140b00000000a7c9ff01d3b707d48707d49707887701d4a7074926d8014926d0017b67c001330780009568c0014926c801502098009cbf3307800033082033009000284bbf5247be8a5636ac0c9517e08477e07b67b0016471491718491710491708490783770a0a01826ab00182a71082a81882a90882aad49808d4a707d4870752070b0e8267b8018177541743010e9567400350209a00ad1f826758037b67a001826750037b67a801826748037b67b001826740037b67b80195670010837740fb0a03019569ff07959939018297100282980802819918026f77987a206f88978b20d4ba0a9777206f99989920d497079888208269a801979920989920d398088269b801d39707d487078268b001d3a808d487075207e20e95670010837760fb3308040a019569ff0795993901829a2802829730028298380282994002826ba0017b6bd802826ba8017b6bd002826bb0017b6bc802826bb8017b6bc0027b69f8027b68f0027b67e802956700039568e0029569c0027b6ae00250209c00284828070a5247bab0b55a090d9517e08477e07b67b0016471491718491710491708490783770a0a01826ab00182a71082a81882a90882aad49808d4a707d487075207cd0c8267b8018177541743c30c9567400550209e00e71e826740057b67b801826748057b67b001806750057b67a8015020a0006435492638058267a8017b6730058267b0017b672805956820058267b8017b67200533075020a200b5bd4926180549261005492600050233072095680005492608055020a40097bd33084033075020a6004cbd9518e08488e07b68b8016481837783893308400a06826ab80182a71882a81082a90882aa6f777b67b8016f877b67b0016f977b67a8016fa77b67a001956700108377a0fb3308240a01956aff0795aa390182a7680282a8700282a9780282aa80027b6af8047b69f0047b68e8049568e0047b67e00433075020a8000fbd8267a0017b67d8048267a8017b67d0048267b0017b67c8043307209568c0048269b8017b69c0045020aa00e2bc33084033075020ac0097bc9518e08488e07b68b8016481837783893308400a06826ab80182a71882a81082a90882aa6f7b7b6ba0016f877b67b8016f987b68b0016fa97b69a8017b6998047b6890047b6788049567a004956880047b6b80045020ae0070bd8267a8048268a0048269b004826ab804848800ff868b017b6a58047b6950047b6748048267a8017b6778048267b0017b6770048267b8017b6768048267a0017b67600495676004956840047b6b40043300ca002898bd524764cba37de00a9517e08477e07b67b0016471491718491710491708490783770a0a01826ab00182a71082a81882a90882aad49808d4a707d487075207a40a8267b80181775417439a0a956760065020b000be1c826760067b67b801826768067b67b001806770067b67a8015020b2003b33492658068267a8017b6750068267b0017b674806956840068267b8017b67400633075020b4008cbb4926380649263006492620060233072095682006492628065020b6006ebb33084033075020b80023bb9518e08488e07b68b8016481837783893308400a06826ab80182a71882a81082a90882aa6f777b67b8016f877b67b0016f977b67a8016fa77b67a001956700108377e0fb3308240a01956aff0795aa390182a7a80282a8b00282a9b80282aac0027b6a18067b6910067b680806956800067b67000633075020ba00e6ba8267a0017b67f8058267a8017b67f0058267b0017b67e8053307209568e0058269b8017b69e0055020bc00b9ba33084033075020be006eba9518e08488e07b68b8016481837783893308400a06826ab80182a71882a81082a90882aa6f7b7b6bb8016f877b67b0016f987b68a8016fa97b69a0017b69b8057b68b0057b67a8059567c0059568a0057b6ba0055020c00047bb8267c8058268d0058269c005826ad805849900ff7b6a78057b6870057b6768057b6960058267a0017b6798058267a8017b6790058267b0017b67880595678005956860058269b8017b6980053300ca002872bb5247a93791d47c089517e08477e07b67b0016471491718491710491708490783770a0a01826ab00182a71082a81882a90882aad49808d4a707d4870752077e088267b801817754174374089567ff079577c1015020c200941a9568ff0795883901828788007b679801828790007b679001828798007b6788018287a0007b678001956700108377e0fc3308240a019568ff07958839018287a8037b67b8018287b0037b67b0018287b8037b67a8018287c0037b67a0015020c400cc308267a001956aff0795aa39017ba7608267a8017ba7588267b0017ba7509567ff079577a1019568ff07958881018269b8017ba9485020c6007d2e956bff0795bb390182b86882b77082b97882ba80007bba407bb9387bb7309567ff07957761017bb8285020c8009f3482678001956800107b8718f982678801956800107b8710f982679001956800107b8708f982679801956800107b8700f98267a0019568ff07958839017b878267a8017b87f88267b001956800107b8728f99567ff07957741019568ff07958821019569ff0795990101826ab801956b00107bba20f93300d40028a3384926a8014926a0014926980149269001018264500198473f82681801978901d497077b67b80198873f82684801978901d497077b67b00198873f82692001979901d479009567001046275ff89567001046275ef89567001046275df89567001046275cf89567001046275bf89567001046275af895670010462759f895670010462758f895670010462757f895670010462756f895670010462755f895670010462754f895670010462753f895670010462752f895670010462751f895670010462750f89567001046274ff89567001046274ef89567001046274df89567001046274cf89567001046274bf89567001046274af895670010462749f895670010462748f895670010462747f895670010462746f895670010462745f895670010462744f895670010462743f895670010462742f895670010462741f895670010462740f89567001046273ff8ff009567001046273ef8ff009567001046273df8ff009567001046273bf8ff0095680010462838f8ff95680010462837f8ff0095680010462836f8ff0095680010462835f8ff0095680010462833f8ff0095680010462830f8ff9568001046282ff8ff009568001046282ef8ff009568001046282df8ff009568001046282bf8ff0095680010462828f8ff95680010462827f8ff0095680010462826f8ff0095680010462825f8ff0095680010462823f8ff0095680010462820f8ff140affffffff0000000095680010788a3cf895680010788a34f895680010788a2cf895680010788a24f8140affffffffffff000095680010788a3af81407ffffffffffffff0095680010788739f895680010788a32f895680010788731f895680010788a2af895680010788729f895680010788a22f895680010788721f8844b1f9567ff07957721c87b0b7cb7017cba7cbc027cb803977708d4a70797cc10978818d4c808d487077cb8057cba047cbc067cb907978808d4a80897cc10979918d4c909d49808978820d4780c7cb7097cb8087cb90a7cba0b977708d4870797991097aa18d4a909d479037cb80d7cb90c7cba0e7cb70f978808d4980897aa10977718d4a707d48707977720d4370a7cb3117cb8107cb9127cb713973308d48308979910977718d49707d487037cb8157cb9147cb7167cb217978808d49808977710972218d47207d48707977720d437037cb2197cb8187cb91a7cb71b972208d48208979910977718d49707d487027cb81d7cb91c7cb71e7cbb1f978808d4980897771097bb18d4b707d48707977720d4270782689001e0780782689801e0380b8268a001e0a80a8268a801e0c80c97480101d407038269b001d4b9098267b801d47a0ad4c808826728016f72826730016f7c826738016f7b826740016f777b6860077b6798077b6a68077b6b90077b6970077b6c88077b63780795678007956860077b6280075020ca00c0b5330733085020cc0002b48378330733090a070152475df12f2ff2029517e08477e07b67b0016471491718491710491708490783770a0a01826ab00182a71082a81882a90882aad49808d4a707d487075207b6028267b8018177541743ac0295670010837720fb3308040a019567ff07957739018278e8017b68b8018278f0017b68b0018278f8017b68a801827700027b67a0019567a0025020ce0023148267a0027b6798018267a8027b6790018267b0027b6788018267b8027b6780018267a0017b6778028267a8017b6770028267b0017b67680295678002956860028269b8017b6960025020d000d328826880028267880282699002826a98027b6a58027b6950027b674802956740027b6840025020d200fa2e826780017b67f801826788017b67f001826790017b67e801826798017b67e0018267a0017b6718028267a8017b6710028267b0017b67080295672002956800029569e001826ab8017b6a00025020d4002b332899fe5247a9f806499b019517e08477e07b67b0016471491718491710491708490783770a0a01826ab00182a71082a81882a90882aad49808d4a707d4870752075f018267b80181775417435501956720045020d6007913826720047b679801826728047b679001826730047b678801826738047b67800195670010837780fb3308240a019567ff0795773901827848027b68b801827850027b68b001827858027b68a801827760027b67a0015020d800b9298267a0017b67f8038267a8017b67f0038267b0017b67e803956700049568e0038269b8017b69e0035020da007627826800048267080482691004826a18047b6ad8037b69d0037b67c8039567c0037b68c0035020dc009d2d826780017b677803826788017b677003826790017b676803826798017b6760038267a0017b6798038267a8017b6790038267b0017b6788039567a0039568800395696003826ab8017b6a80035020de005d3b283cfd52471f7447d53e9517e08477e07b67b0016471491718491710491708490783770a0a01826ab00182a71082a81882a90882aad49808d4a707d48707510720330733083300e00028f9b033085020e000f4b0837833070133090a07018267b8018177541743dd95670010837700fd3308040a019568ff07958839018287c8037b67b8018287d0037b67b0018287d8037b67a8018287e0037b67a0019567ff079577a1025020e20051119568ff0795883901828768017b679801828770017b679001828778017b678801828780017b6780018267a0017b8740018267a8017b8738018267b0017b873001648a9567ff07957781029568ff07958861028269b8017ba928015020e400ef25956bff0795bb390182b8480182b7500182b9580182ba60017bba20017bb918017bb710019567ff07957741027bb808015020e6000a2c9567ff0795773901826880017b78c000826888017b78b800826890017b78b000826898017b78a8008268a0017b78e0008268a8017b78d8008268b0017b78d000647a9567ff07957721029568ff07958801029569ff079599e101826bb8017babc8005020e800b4392893fb49263003492628034926200314070000000032b29766956820037b67380333075020ea00b6af33080433075020ec006baf83783307013309043300ee000a07019511e0fd7b1018027b1510027b160802951520028411e0641682897b69c8008289087b69c0008088107b68d0007b67d80033082033075020f00020af46171f46171e46171d46171c46171b46171a46171946171846171746171646171546171446171346171246171146171046170f46170e46170d46170c46170b46170a46170946170846170746170646170546170446170346170246170146073307203308205020f200b5ae46171f46171e46171d46171c46171b46171a46171946171846171746171646171546171446171346171246171146171046170f46170e46170d46170c46170b46170a461709461708461707461706461705461704461703461702461701460733084033075020f4004bae8377836900013308400a06826700017b67b800826708017b67b000826710017b67a800826718017b67a00033082033075020f60015ae8268d0006f888269c0006f99826ac8006faa98ab387b6b9800787b1f98ab307b6b9000787b1e98ab287b6b8800787b1d98ab207b6b8000787b1c98ab187b6b78787b1b98ab107b6b70787b1a98ab087b6b68787b197b6ac000787a18989a387b6a60787a17989a307b6a58787a16989a287b6a50787a15989a207b6a48787a14989a187b6a40787a13989a107b6a38787a12989a087b6a30787a117b69c8007879109889387b692878790f9889307b692078790e9889287b691878790d9889207b691078790c46170b46170a4617097b68d00078780846170746170646170546170446170346170246170146073307203308205020f8001cad8269a00098983878781f98983078781e98982878781d98982078781c98981878781b98981078781a9898087878197879188269a8009898387878179898307878169898287878159898207878149898187878139898107878129898087878117879108269b00098983878780f98983078780e98982878780d98982078780c98981878780b98981078780a9898087878097879088269b800989838787807989830787806989828787805989820787804989818787803989810787802989808787801787933084033075020fa004eac83778369e0003308400a068267f8008268f0008269e800826ae0007b6778017b6870017b6968017b6a600149269801492690014926880149268001482640012083686001836a8001836b40013309ff33070a05018267980182689001140a0000000000000001d3a709d49808987738887701938751073d0433082033077b6ab8005020fc00c7ab46171f46171e46171d46171c46171b46171a46171946171846171746171646171546171446171346171246171146171046170f46170e46170d46170c46170b46170a46170946170846170746170646170546170446170346170246170146073307203308205020fe005cab46171f46171e46171d46171c46171b46171a46171946171846171746171646171546171446171346171246171146171046170f46170e46170d46170c46170b46170a4617094617084617074617064617054617044617034617024617014607330840330750200001f2aa9518e08488e07b68086481837783893308400a0682680882877b67b0008287087b67a8008287107b67a0008287187b6708330820330750200201b6aa8268980078781f8268900078781e8268880078781d8268800078781c82687878781b82687078781a82686878781982686078781782685878781682685078781582684878781482684078781382683878781282683078781182682878780f82682078780e82681878780d82681078780c8269d00098981878780b98981078780a9898087878098268c0007878188268c800787810787908461707461706461705461704461703461702461701460733072033082050200401fca982690898983878781f98983078781e98982878781d98982078781c98981878781b98981078781a9898087878197879188269a0009898387878179898307878169898287878159898207878149898187878139898107878129898087878117879108269a80098983878780f98983078780e98982878780d98982078780c98981878780b98981078780a9898087878097879088269b00098983878780798983078780698982878780598982078780498981878780398981078780298980878780178793308403307502006012fa99518e08488e07b68b0006481837783893308400a068267b000827a187b6a98008279107b69a0008278087b68a80082777b67b0007b6a78017b6970017b6868017b67600149269801492690014926880149268001482640012083686001836a8001836b40013309ff33070a05826798018268800182698801826a9001977708987708826bb800d4b707826b98007b6b7801826ba0007b6b7001826ba8007b6b6801826bb0007b6b60017b6798017b6a90017b6988017b68800183686001836a80013309ff330b2033070a09836720010a038267280181683001826a20017b6ab0006f779779206f88988820d498087b68b8009877206fa8978820d487077b67a800330733085020080124a83a080000023a090800023a0a1000023a0b1800027b6898017b6990017b6a88017b6b80014926b8014926b0014926a8014926a0018268c0007b68d8018268c8007b68d0018268d0007b68c8014926c0018268a8006f888269b8006f99826ab00097aa207b6ae8014926e0017b69f8017b68f001837983678001330804330a0a04330901330728053309018268d8007b897b87087b87107b87189551e0fd82101802821510028216080295112002320046171f7546171e1746171dc20046171c930046171b5646171a094617195b46171882004617178700461716e200461715fb0046171401461713a200461712f4004617113c461710910046170fe80046170e5646170d8f0046170ca10046170ba80046170af5004617092e4617080946170755461706d300461705e4004617045c461703204617020746170198004607a40033072033082050200c01d8a646171f46171e46171d46171c46171b46171a46171946171846171746171646171546171446171346171246171146171046170f46170e46170d46170c46170b46170a4617094617084617074617064617054617044617034617024617014607330840330750200e016ea68377836900013308400a06826700017b67b800826708017b67b000826710017b67a800826718017b67a00033082033075020100138a68268d0006f888269c0006f99826ac8006faa98ab387b6b9800787b1f98ab307b6b9000787b1e98ab287b6b8800787b1d98ab207b6b8000787b1c98ab187b6b78787b1b98ab107b6b70787b1a98ab087b6b68787b197b6ac000787a18989a387b6a60787a17989a307b6a58787a16989a287b6a50787a15989a207b6a48787a14989a187b6a40787a13989a107b6a38787a12989a087b6a30787a117b69c8007879109889387b692878790f9889307b692078790e9889287b691878790d9889207b691078790c46170b46170a4617097b68d0007878084617074617064617054617044617034617024617014607330720330820502012013fa58269a00098983878781f98983078781e98982878781d98982078781c98981878781b98981078781a9898087878197879188269a8009898387878179898307878169898287878159898207878149898187878139898107878129898087878117879108269b00098983878780f98983078780e98982878780d98982078780c98981878780b98981078780a9898087878097879088269b800989838787807989830787806989828787805989820787804989818787803989810787802989808787801787933084033075020140171a483778369e0003308400a068267f8008268f0008269e800826ae0007b6778017b6870017b6968017b6a600149269801492690014926880149268001482640012083686001836a8001836b40013309ff33070a05018267980182689001140a0000000000000001d3a709d4980898773888770193875107830433082033077b6ab80050201601eaa346171f7546171e1746171dc20046171c93004617195b46171882004617178700461716e200461715fb00461713a200461712f4004617113c461710910046170fe80046171b5646170e5646170d8f0046170ca10046170ba80046170af5004617092e46171a094617080946170755461706d300461705e4004617045c4617020746170198004607a4004617140146170320330720330820502018014da346171f46171e46171d46171c46171b46171a46171946171846171746171646171546171446171346171246171146171046170f46170e46170d46170c46170b46170a4617094617084617074617064617054617044617034617024617014607330840330750201a01e3a29518e08488e07b68086481837783893308400a0682680882877b67b0008287087b67a8008287107b67a0008287187b6708330820330750201c01a7a28268980078781f8268900078781e8268880078781d8268800078781c82687878781b82687078781a82686878781982686078781782685878781682685078781582684878781482684078781382683878781282683078781182682878780f82682078780e82681878780d82681078780c8269d00098981878780b98981078780a9898087878098268c0007878188268c800787810787908461707461706461705461704461703461702461701460733072033082050201e01eda182690898983878781f98983078781e98982878781d98982078781c98981878781b98981078781a9898087878197879188269a0009898387878179898307878169898287878159898207878149898187878139898107878129898087878117879108269a80098983878780f98983078780e98982878780d98982078780c98981878780b98981078780a9898087878097879088269b000989838787807989830787806989828787805989820787804989818787803989810787802989808787801787933084033075020200120a19518e08488e07b68b0006481837783893308400a068267b000827a187b6a98008279107b69a0008278087b68a80082777b67b0007b6a78017b6970017b6868017b67600149269801492690014926880149268001482640012083686001836a8001836b40013309ff33070a05826798018268800182698801826a9001977708987708826bb800d4b707826b98007b6b7801826ba0007b6b7001826ba8007b6b6801826bb0007b6b60017b6798017b6a90017b6988017b68800183686001836a80013309ff330b2033070a09836720010a038267280181683001826a20017b6ab0006f779779206f88988820d498087b68b8009877206fa8978820d487077b67a800330733085020220115a03a082000023a092800023a0a3000023a0b3800027b6898017b6990017b6a88017b6b80013a084000023a094800023a0a5000023a0b5800027b68b8017b69b0017b6aa8017b6ba0018268c0007b68d8018268c8007b68d0018268d0007b68c8014926c0018268a8006f888269b8006f99826ab00097aa207b6ae8014926e0017b69f8017b68f001837983678001330804330a0a04330901330728053309018268d8007b897b87087b87107b87189551e0fd8210180282151002821608029511200232009511c07b10387b15307b16289515408411e0647683173308240a010182171082181814090000000001000000d37909d48909987a2088aa01948a939a510a248219821a087b697b6a087b67107b68189551c082103882153082162895114032003307330850202401e89e83783307013309330026010a07019511c07b10387b15307b16289515408411e0647683173308040a010182171082181814090000000001000000d37909d48909987a2088aa01948a939a510a248219821a087b697b6a087b67107b68189551c082103882153082162895114032003307330850202801709e8378330701330933002a010a07019511a07b10587b15507b16489515608411f0828910828c08828b82881897923f98ca01d42a02978a3f989901d49a0a97cc3f98b901d49c0c98830184bb019ab888b60184c97fd2a804d2280adbbc09d2380b88982094a8d4b40c94c8ab861f7b797b7a087b74107b7b189551a08210588215508216489511603200491130491128491120140700000000717b484e9518207b1738330750202c01069e491118491110490122330704641849110850202e01ef9d330824330750203001a49d8378330701330924330032010a07019511a0fd7b1058027b1550027b164802951560028411e0641682897b6918018289087b6910018289107b6908018288187b6800017b673033074033082050203401529d7c78187b6880007c78197b68607c781a7b68707c781b7b68687c781c7b6898007c781d7b68787c781e7b6890007c781f7b6888007c78107b68c0007c78117b68a0007c78127b68b0007c78137b68a8007c78147b68d8007c78157b68b8007c78167b68d0007c78177b68c8007c78087b6820017c78097b68e0007c780a7b68f0007c780b7b68e8007c780c7b6838017c780d7b68f8007c780e7b6830017c780f7b6828017c787b6860017c78017b6840017c78027b6850017c78037b6848017c78047b6878017c78057b6858017c78067b6870017c77077b6768014826400220826700016f7a826708016f79826710016f78826718016f777b67287b6718027b68207b6810027b69187b6908027b6a107b6a00024926380249263002492628024926200283680002836a2002836b40023309ff33070a0501826738028268200282693002826a28026f7c6f826f946fa397373f984801d4870797283f983901d4980897493f98ca01d49a0b9829017b6c3884cc019acad28a00d27a08d2a90984ba7fdaca0b7b6b180188b7207b68080194877b6010017b690001d49008948788c801ab780e097b6c587b6a087b64407b63487b625082676097770882688000d48707826870978810826968979918d49808d4870782687897880882699800d4980882699000979910826a880097aa18d4a909d49808978820d478028268a0009788088267c000d478088269b000979910826aa80097aa18d4a909d498088269b8009799088267d800d47909826ad00097aa10826bc80097bb18d4ba0ad4a909979920d498088269e00097990882672001d47909826af00097aa10826be80097bb18d4ba0ad4a909826af80097aa0882673801d47a0a826b300197bb10826c280197cc18d4cb0bd4ba0a97aa20d4a909826a400197aa0882676001d47a0a826b500197bb10826c480197cc18d4cb0bd4ba0a826b580197bb0882677801d47b0b826c700197cc1082676801977718d4c707d4b707977720d4a7076f7a6f996f886f2bd49b077b6ad0007b68c800d4a808d487079877207b69d800d49808978820d487075207680783b73308207b6778017b6bc00050203601399a826818016f8898893878791f98893078791e98892878791d98892078791c98891878791b98891078791a988908787919826908016f99787818989838787817989830787816989828787815989820787814989818787813989810787812826810016f8878791098990878791198893878790f98893078790e98892878790d98892078790c98891878790b98891078790a826900016f99787808988808787809989838787807989830787806989828787805989820787804989818787803989810787802787998990878790182675852071f018267d8008268d000d487071408e0ffffff000000008269c000d889088269c8009498947851085b06826738847700ff7b677001826778018377203308205020380124993302330349267801826870016f8a98ab30787b1e98ab28787b1d98ab20787b1c98ab18787b1b98ab10787b1a8268406f8b787a1898aa08787a1998ba38787a1798ba30787a1698ba28787a1598ba20787a1498ba18787a1398ba10787a128268486f8a787b1098bb08787b1198ab38787b0f98ab30787b0e98ab28787b0d98ab20787b0c98ab18787b0b98ab10787b0a8268506f8b46171f787a0898aa08787a09787b98ba38787a0798ba30787a0698ba28787a0598ba20787a0498ba18787a0398ba10787a0298bb08787b018267088e7797700528b303330820330750203a014198826918787908826a1098a83878780798a83078780698a82878780598a82078780498a81878780398a81078780298a808787801787a826a20787a1098983878780f98983078780e98982878780d98982078780c98981878780b98981078780a98980878780982692878791898a83878781798a83078781698a82878781598a82078781498a81878781398a81078781298a80878781198983878781f98983078781e98982878781d98982078781c98981878781b98981078781a989808787819330820330750203c0177979518e08488e0648183777b68580183893308200a06018267388877028268409487826850826948d4980894875107103300330233034926780128a2024926680149266001492670014926780182675801827b8268c0009589207b69f800d889088269c800c8890a7b6af000d89a0ada880a8278088279108277186fbc6f8b6f996f748267d800c87a0a7b6ae800d87a078268d000c887077b67e000017b6c58016fc77b6b40016fb87b6950016f997b6448016f4a7b6a18027b6910027b6808027b67000249263802492630024926280249262002482640022083680002836a2002836b40023309ff33070a05018268f80082676801c88707d88708826bf00082696001c8b909c88909d3b90ad8b90bdaa80b826ae80082687001c8a808d8a802826c7801826ae000c8ac0cc82c0ac88b0bd88b08c8a808d49808d4b709d48909d4b808989920978820d4980852084303826838027b683801826830027b683001826828027b682001826820027b682801837733082050203e01fc958269200198983878780f98983078780e98982878780d98982078780c98981878780b98981078780a98980878780978790882692801989838787807989830787806989828787805989820787804989818787803989810787802989808787801826a3001787a1078798269380178791898a83878781798a83078781698a82878781598a82078781498a81878781398a81078781298a80878781198983878781f98983078781e98982878781d98982078781c98981878781b98981078781a9898087878198264480195440188470182695001c8790982676801957020d8700882676001c88702d8720ada880a82677001c8a703d8730a826b7801c8ab0b82671001d873087b68700182681801d8800c826a0801d3a208d8a20ada8c0a826c0001d3cb087b6b7801d8cb0c826b7001da8b0cd3730bd4b808d4940b88bb0182674001c87b0bd87b07db8c0a826c5801c87c0c7b6068017b6260017b637001520ac5fd950a3fd80a07c8720bd82b08da7708c83808d8380782697801c8970784aae08263c000c83a097b697001d8a9098262c800c82b0ac89a0ad3ba0cd8ba0bdac90b8264d800c84809c89b0bd89b0cd889088260d000c80707c88707c87c0c8ec78eb8dbc708d4cb077b6a78018ea9db78095209450182677001d8370782697801d32908d82909da8709d84b07d30c08d80c0ada870ad34b07d48707da790a520a18013307403308207b6c68017b6b600150204001e793826870016f8898893878791f98893078791e98892878791d98892078791c98891878791b98891078791a826978016f99787818988808787819989838787817989830787816989828787815989820787814989818787813989810787812826860016f8878791098990878791198893878790f98893078790e98892878790d98892078790c98891878790b98891078790a826968016f9978780898880878780998983878780798983078780698982878780598982078780498981878780398981078780278799899087879018267308268c0007b788268d0007b78188268c8007b78088268d8007b78109551a0fd821058028215500282164802951160023200004926f0014926e8014926e001140700000000717b484e9568e0017b67f80133075020420101934926d8014926d0014926c001413307049568c0014926c8013300460128df924926b0014926a8014926a001140700000000717b484e9568a0017b67b801330750204401bc92492698014926900149268001223307049568800149268801502046019e923308243307502048015392837833070133092433004a010a0701951160fe7b1098017b1590017b168801828b10828a18828c0882867b1a78017b1c7001d4ac08d4b60ad48a0a98aa207b1b8001d4b808978820d4a8087b175208b1078297187b1768018297107b1760018297087b175801829583673308207b17500150204c01dc9146171f20821b6001d4b50882196801821c5801d4c909d49808988820d4b909979920d4980846171e46171d46171c46171b46171a46171946171846171746171646171546171446171346171246171146171046170f46170e46170d46170c46170b46170a4617094617084617074617064617054617044617034617024617014607520806077b153001835733082050204e0148918218800182197801d498081409e0ffffff000000007b164801d89609821a700194a994895109cf067c78197c79187c7a1a7c7b1b978808d4980897aa1097bb18d4ba0ad4a8087c791d7c7a1c7c7b1e7c7c1f979908d4a90997bb1097cc18d4cb0bd4b909979920d489027b1240017c78117c79107c7a127c7b13978808d4980897aa1097bb18d4ba0ad4a8087c79157c7a147c7b167c7c17979908d4a90997bb1097cc18d4cb0bd4b909979920d489037b1338017c78097c79087c7a0a7c7b0b978808d4980897aa1097bb18d4ba0ad4a8087c790d7c7a0c7c7b0e7c7c0f979908d4a90997bb1097cc18d4cb0bd4b909979920d489057c78017c797c7a027c7b03978808d4980897aa1097bb18d4ba0ad4a8087c79057c7a047c7b067c7707979908d4a90997bb10977718d4b707d49707977720d487066f677b17406f577b17306f377b17486f277b17288217500183772033082050205001ed8f821a3801787a1098583878780f98583078780e98582878780d98582078780c98581878780b98581078780a98580878780978750898683878780798683078780698682878780598682078780498681878780398681078780298680878780178768219400178791898a83878781798a83078781698a82878781598a82078781498a81878781398a81078781298a80864ab78781198983878781f98983078781e98982878781d98982078781c98981878781b98981078781a989808649ad4b609d45a0ad4a9097878195109680333023304330c3306821730019578207b1820d8780782185801c878097b1918d88908da770882176001c878087b1810d8780782186801c887077b170882174801957940d8790782187001c87805d88508da770882178001c878087b1858d8780782187801c887077b17507b1960017b1538018218207b126801c82807d88708821b187b147001c84b09c88909d3b90ad8b90bdaa80b821a107b1c7801c8ca08d8a80a7b168001821c08c86c0cc8ca0ac88b0bd88b08c8a808d49808d4b709d48909d4b808989920978820d498085208ff03837733082050205201458e8218680182196001c89808d89809821a7001c85a0ac89a0ad35a0bd85a0cdab90c821b5882197801c8b909d8b90b82165082158001c85606c86b0bc89c0cd89c09c8b909d4a909d4c80ad49a0ad4c90998aa20979920d4a909821548520994037c797b1958017c79017b1950017c79027b1948017c79037b1940017c79047b1938017c79057b1930017c79067b1928017c79077b1920017c79087b1918017c79097b1910017c790a7b1908017c790b7b1900017c790c7b19f8007c790d7b19f0007c790e7b19e8007c790f7b19e0007c79107b19d8007c79117b19d0007c79127b19c8007c79137b19c0007c79147b19b8007c79157b19b0007c79167b19a8007c79177b19a0007c79187b1998007c79197b1990007c791a7b1988007c791b7b1980007c791c7b19787c791d7b19707c791e7b19687c771f7b1760838733082050205401ff8c82186801958220d8820b82187001c8b804821328d8320cd35406d8540ada6c0ad8840cdabb0c82187801c8c80bd88b0c82168001c8c606821c30d8cb08821540d35609d85605da9805d3bc0cd49c0cdbc50a82186078781f82186878781e82187078781d82187878781c8218800078781b8218880078781a82189000787819821898007878188218a0007878178218a8007878168218b0007878158218b8007878148218c0007878138218c8007878128218d0007878118218d8007878108218e00078780f8218e80078780e8218f00078780d8218f80078780c8218000178780b8218080178780a82181001787809821818017878088218200178780782182801787806821830017878058218380178780482184001787803821848017878028218500178780182185801787864bc82196001821538520a1afd821c58821250282e82174801957940d8790782187001c87805d88508da770882178001c8870cd87c0782187801c87802821328017b1960017b12507b15387b1c58c83907d89708821948c85909c88909d3590ad85906daa806821530c85c08d8c80a821c40c82c0cc8ca0ac88606d88608c8a808d49808d46709d48909d46808989920978820d498085208e70064368377330820502056012b8b46171f46171e46171d46171c46171b46171a46171946171846171746171646171546171446171346171246171146171046170f46170e46170d46170c46170b46170a461709461708461707461706461705461704461703461702461701460795671fd86708821a48c88a09d8a90ada880ac85a0ad85a08821b40c8b8088477e0821b6001c8b707d8b70b821c38c8c909c8b909d3c905d8c906da5b06821c58c8ca0ac8a606d8a60bd8ca0a821c50c8c808c8a808c8b808821a7ba77ba9087ba6107ba8188210980182159001821688019511a001320000951160ff7b1098007b1590007b1688009515a0008411e082897b19108289087b19088289107b198286187b17183308203307502058011c8a6f6882196f99821a086faa821b106fbb98bc38787c1f98bc30787c1e98bc28787c1d98bc20787c1c98bc18787c1b98bc10787c1a98bc08787c19787b1898ab38787b1798ab30787b1698ab28787b1598ab20787b1498ab18787b1398ab10787b1298ab08787b11787a10989a38787a0f989a30787a0e989a28787a0d989a20787a0c989a18787a0b989a10787a0a989a08787a09787908988938787907988930787906988928787905988920787904988918787903988910787902988908787901787833072033082050205a014d8946171f46171e46171d46171c46171b46171a46171946171846171746171646171546171446171346171246171146171046170f46170e46170d46170c46170b46170a4617094617084617074617064617054617044617034617024617014607330840330750205c01e38883778319203308400a06821720821828821930821a386f776f886f996faa95aa0188ab01c8b909d49a0b88bb01c88b0bd88b08c887076f776fb86f996faa7b1a587b19507b18487b17404911784911704911684911604821800020831840831a60831b80003309ff33070a05821778821870821968821a606f776f886f996faa821b187bba187bb9107bb8087bb7955160ff8210980082159000821688009511a0003200951180fe7b1078017b1570017b166801951580018411e0330820330620330750205e011a8846171f7546171e1746171dc20046171c930046171b5646171a094617195b46171882004617178700461716e200461715fb0046171401461713a200461712f4004617113c461710910046170fe80046170e5646170d8f0046170ca10046170ba80046170af5004617092e4617080946170755461706d300461705e4004617045c7876034617020746170198004607a400330720330820502060017e8746171f46171e46171d46171c46171b46171a46171946171846171746171646171546171446171346171246171146171046170f46170e46170d46170c46170b46170a4617094617084617074617064617054617044617034617024617014607330840330750206201148783778319c0003308400a068217c0007b17388217c8007b17308217d0007b17288217d8007b17208317e0000a038217e8008118f0008216e0006f779779206f88988820d498087b18189877206f68978820d487077b1710330820330750206401b2868218106f888219186f99986a18787a0f986a10787a0e986a08787a0d78760c46170b46170a4617094617084617074617064617054617044617034617024617014607787918787810989a38787a1f989a30787a1e989a28787a1d989a20787a1c989a18787a1b989a10787a1a989908787919988938787917988930787916988928787915988920787914988918787913988910787912988808787811330720330820502066010a8682192098983878781f98983078781e98982878781d98982078781c98981878781b98981078781a98980878781978791882192898983878781798983078781698982878781598982078781498981878781398981078781298980878781178791082193098983878780f98983078780e98982878780d98982078780c98981878780b98981078780a9898087878097879088219389898387878079898307878069898287878059898207878049898187878039898107878029898087878017879330840330750206801408583778319a0003308400a068217b8008218b0008219a800821aa0007b1738017b1830017b1928017b1a200149215801492150014921480149214001482160012083182001831a4001831b60013309ff33070a050182175801821850011406ffffffffffffff00d37606e186089877388e779387510719955180fe8210780182157001821668019511800132004921900049218800492180001407000000003f7d51e2951880007b179800330750206a01ce84831700010a038217080181181001821900016f77977a206f88988820d48a0a9877206f98978920d497079888204911787b18707b17683307049518607b1a6050206c0189843a076000023a086800027b17583a077000027b18503a097800027b17483307249518407b194050206e015d8433084433075020700112848378330701330944330072010a0701951160fe7b1098017b1590017b1688019515a0018411e082787b18588278087b18508278107b1848827618330820330750207401cd837b16106f688219486f99821a506faa821b586fbb787b18787a10787908787898bc38787c1f98bc30787c1e98bc28787c1d98bc20787c1c98bc18787c1b98bc10787c1a98bb08787b1998ab38787b1798ab30787b1698ab28787b1598ab20787b1498ab18787b1398ab10787b1298aa08787a11989a38787a0f989a30787a0e989a28787a0d989a20787a0c989a18787a0b989a10787a0a98990878790998893878790798893078790698892878790598892078790498891878790398891078790298880878780133072033082050207601fa8246171f46171e46171d46171c46171b46171a46171946171846171746171646171546171446171346171246171146171046170f46170e46170d46170c46170b46170a4617094617084617074617064617054617044617034617024617014607330840330750207801908283778319e0003308400a068217e0007b17408217e8007b17388217f0007b17308217f8007b1728831700010a038217080181181001821600016f779779206f88988820d498087b18209877206f68978820d487077b1718330820330750207a012e828218186f888219206f99986a18787a0f986a10787a0e986a08787a0d78760c46170b46170a4617094617084617074617064617054617044617034617024617014607787918787810989a38787a1f989a30787a1e989a28787a1d989a20787a1c989a18787a1b989a10787a1a98990878791998893878791798893078791698892878791598892078791498891878791398891078791298880878781133072033082050207c01868182192898983878781f98983078781e98982878781d98982078781c98981878781b98981078781a98980878781978791882193098983878781798983078781698982878781598982078781498981878781398981078781298980878781178791082193898983878780f98983078780e98982878780d98982078780c98981878780b98981078780a9898087878097879088219409898387878079898307878069898287878059898207878049898187878039898107878029898087878017879330840330750207e01bc8083778319c0003308400a068217d8008218d0008219c800821ac0007b1758017b1850017b1948017b1a400149217801492170014921680149216001482180012083184001831a6001831b80013309ff33070a050182177801821870011406ffffffffffffff00d37606e186089877388e779387510719955160fe8210980182159001821688019511a00132004921b0004921a8004921a0001407000000003f7d51e29518a0007b17b8003307502080014a80831720010a038217280181183001821920016f77977a206f88988820d48a0a9877206f98978920d49707988820492198007b1890007b178800330704951880007b1a80005020820100808217107b17788217487b17708217507b17683307249518608219587b196050208401dc7fff330844330750208601907fff8378330701330944330088010a07019511e0fc7b1018037b1510037b160803951520038411e06416829a7b6aa801829a087b6aa0018099107b69b00182897b69d0018289087b69c8018289107b69c0018288187b68b8017b67d801330820330750208a01297fff8268b8016f888269c0016f99826ac8016faa826bd0016fbb98bc387b6c7801787c1f98bc307b6c7001787c1e98bc287b6c6801787c1d98bc207b6c6001787c1c98bc187b6c5801787c1b98bc107b6c5001787c1a98bc087b6c4801787c197b6bb801787b1898ab387b6b4001787b1798ab307b6b3801787b1698ab287b6b3001787b1598ab207b6b2801787b1498ab187b6b2001787b1398ab107b6b1801787b1298ab087b6b1001787b117b6ac001787a10989a387b6a0801787a0f989a307b6a0001787a0e989a287b6af000787a0d989a207b6ae000787a0c989a187b6ad000787a0b989a107b6ac000787a0a989a087b6ab000787a097b69c8017879089889387b69407879079889307b69387879069889287b69307879059889207b69287879049889187b69207879039889107b69187879029889087b69107879017b68d001787833072033082050208c01d87dff46171f46171e46171d46171c46171b46171a46171946171846171746171646171546171446171346171246171146171046170f46170e46170d46170c46170b46170a4617094617084617074617064617054617044617034617024617014607330840330750208e016d7dff8377836900023308400a06826700027b679801826708027b679001826710027b678801826718027b678001330820330750209001367dff8268b0016f888269a0016f99826aa8016faa98ab387b6bf800787b1f98ab307b6be800787b1e98ab287b6bd800787b1d98ab207b6bc800787b1c98ab187b6bb800787b1b98ab107b6ba800787b1a98ab087b6ba000787b197b6aa001787a18989a387b6a9800787a17989a307b6a9000787a16989a287b6a8800787a15989a207b6a8000787a14989a187b6a78787a13989a107b6a70787a12989a087b6a68787a117b69a8017879109889387b696078790f9889307b695878790e9889287b695078790d9889207b694878790c46170b46170a4617097b68b001787808461707461706461705461704461703461702461701460733072033082050209201357cff8269800198983878781f98983078781e98982878781d98982078781c98981878781b98981078781a989808787819787918826988019898387878179898307878169898287878159898207878149898187878139898107878129898087878117879108269900198983878780f98983078780e98982878780d98982078780c98981878780b98981078780a989808787809787908826998019898387878079898307878069898287878059898207878049898187878039898107878029898087878017879330840330750209401667bff83778369e0013308400a068267f8018268f0018269e801826ae0017b6778027b6870027b6968027b6a600249269802492690024926880249268002482640022083686002836a8002836b40023309ff33070a05018267980282689002140a0000000000000001d3a709d4980898773888770193875107d80433082033077b6a980150209601de7aff8268407878078268387878068268307878058268287878048268207878038268187878028268107878018268080178780f8268000178780e8268f00078780d8268e00078780c8268d00078780b8268c00078780a8268b000787809826840017878178268380178781682683001787815826828017878148268200178781382681801787812826810017878118268780178781f8268700178781e8268680178781d8268600178781c8268580178781b8268500178781a826848017878198268c8017878088268d00178788268c0017878108268b80178781833072033082050209801f979ff46171f46171e46171d46171c46171b46171a46171946171846171746171646171546171446171346171246171146171046170f46170e46170d46170c46170b46170a4617094617084617074617064617054617044617034617024617014607330840330750209a018e79ff9518e08488e07b6878016481837783893308400a068268780182877b6790018287087b6788018287107b6780018287187b677801330820330750209c014e79ff8268f80078781f8268e80078781e8268d80078781d8268c80078781c8268b80078781b8268a80078781a8268a0007878198268980078781782689000787816826888007878158268800078781482687878781382687078781282686878781182686078780f82685878780e82685078780d82684878780c8269b00198981878780b98981078780a9898087878098268a0017878188268a801787810787908461707461706461705461704461703461702461701460733072033082050209e018c78ff8269780198983878781f98983078781e98982878781d98982078781c98981878781b98981078781a989808787819787918826980019898387878179898307878169898287878159898207878149898187878139898107878129898087878117879108269880198983878780f98983078780e98982878780d98982078780c98981878780b98981078780a98980878780978790882699001989838787807989830787806989828787805989820787804989818787803989810787802989808787801787933084033075020a001bd77ff9518e08488e07b6890016481837783893308400a0682679001827a187b6a78018279107b6980018278087b68880182777b6790017b6a78027b6970027b6868027b67600249269802492690024926880249268002482640022083686002836a8002836b40023309ff33070a05826798028268800282698802826a9002977708987708826b9801d4b707826b78017b6b7802826b80017b6b7002826b88017b6b6802826b90017b6b60027b6798027b6a90027b6988027b68800283686002836a80023309ff330b2033070a09836720020a038267280281683002826a20027b6a88016f779779206f88988820d498087b6898019877206fa8978820d487077b679001330733085020a201b176ff3a088000023a098800023a0a9000023a0b9800027b6898027b6990027b6a88027b6b80028268b8017b68b8028268c0017b68b0028268c8017b68a8028268d0017b68a0028268a0017b68d8028268a8017b68d0028268b0017b68c802826888019788207b68e802826898016f887b68f802826890016f887b68f0024926c0024926e002837983678002330804330a0a04330901330728053309018268d8017b897b87087b87107b87189551e0fc8210180382151003821608039511200332009511e0fc7b1018037b1510037b160803951520038411e06416829a7b6aa801829a087b6aa0018099107b69b00182897b69d0018289087b69c8018289107b69c0018288187b68b8017b67d80133082033075020a4019a75ff8268b8016f888269c0016f99826ac8016faa826bd0016fbb98bc387b6c7801787c1f98bc307b6c7001787c1e98bc287b6c6801787c1d98bc207b6c6001787c1c98bc187b6c5801787c1b98bc107b6c5001787c1a98bc087b6c4801787c197b6bb801787b1898ab387b6b4001787b1798ab307b6b3801787b1698ab287b6b3001787b1598ab207b6b2801787b1498ab187b6b2001787b1398ab107b6b1801787b1298ab087b6b1001787b117b6ac001787a10989a387b6a0801787a0f989a307b6a0001787a0e989a287b6af000787a0d989a207b6ae000787a0c989a187b6ad000787a0b989a107b6ac000787a0a989a087b6ab000787a097b69c8017879089889387b69407879079889307b69387879069889287b69307879059889207b69287879049889187b69207879039889107b69187879029889087b69107879017b68d00178783307203308205020a6014974ff46171f46171e46171d46171c46171b46171a46171946171846171746171646171546171446171346171246171146171046170f46170e46170d46170c46170b46170a461709461708461707461706461705461704461703461702461701460733084033075020a801de73ff8377836900023308400a06826700027b679801826708027b679001826710027b678801826718027b67800133082033075020aa01a773ff8268b0016f888269a0016f99826aa8016faa98ab387b6bf800787b1f98ab307b6be800787b1e98ab287b6bd800787b1d98ab207b6bc800787b1c98ab187b6bb800787b1b98ab107b6ba800787b1a98ab087b6ba000787b197b6aa001787a18989a387b6a9800787a17989a307b6a9000787a16989a287b6a8800787a15989a207b6a8000787a14989a187b6a78787a13989a107b6a70787a12989a087b6a68787a117b69a8017879109889387b696078790f9889307b695878790e9889287b695078790d9889207b694878790c46170b46170a4617097b68b00178780846170746170646170546170446170346170246170146073307203308205020ac01a672ff8269800198983878781f98983078781e98982878781d98982078781c98981878781b98981078781a989808787819787918826988019898387878179898307878169898287878159898207878149898187878139898107878129898087878117879108269900198983878780f98983078780e98982878780d98982078780c98981878780b98981078780a98980878780978790882699801989838787807989830787806989828787805989820787804989818787803989810787802989808787801787933084033075020ae01d771ff83778369e0013308400a068267f8018268f0018269e801826ae0017b6778027b6870027b6968027b6a600249269802492690024926880249268002482640022083686002836a8002836b40023309ff33070a050182679802826890021409ffffffffffffff00d37909e189089877388e779387520708330828cb0433082033075020b0015071ff8268407878078268387878068268307878058268287878048268207878038268187878028268107878018268080178780f8268000178780e8268f00078780d8268e00078780c8268d00078780b8268c00078780a8268b000787809826840017878178268380178781682683001787815826828017878148268200178781382681801787812826810017878118268780178781f8268700178781e8268680178781d8268600178781c8268580178781b8268500178781a826848017878198268c8017878088268d00178788268c0017878108268b8017878183307203308205020b2016b70ff46171f46171e46171d46171c46171b46171a46171946171846171746171646171546171446171346171246171146171046170f46170e46170d46170c46170b46170a461709461708461707461706461705461704461703461702461701460733084033075020b4010070ff9518e08488e07b6880016481837783893308400a068268800182877b6798018287087b6790018287107b6788018287187b67800133082033075020b601c06fff8268f80078781f8268e80078781e8268d80078781d8268c80078781c8268b80078781b8268a80078781a8268a0007878198268980078781782689000787816826888007878158268800078781482687878781382687078781282686878781182686078780f82685878780e82685078780d82684878780c8269b00198981878780b98981078780a9898087878098268a0017878188268a80178781078790846170746170646170546170446170346170246170146073307203308205020b801fe6eff8269800198983878781f98983078781e98982878781d98982078781c98981878781b98981078781a989808787819787918826988019898387878179898307878169898287878159898207878149898187878139898107878129898087878117879108269900198983878780f98983078780e98982878780d98982078780c98981878780b98981078780a98980878780978790882699801989838787807989830787806989828787805989820787804989818787803989810787802989808787801787933084033075020ba012f6eff9518e08488e07b6898016481837783893308400a0682679801827a187b6a80018279107b6988018278087b68900182777b6798017b6a78027b6970027b6868027b67600249269802492690024926880249268002482640022083686002836a8002836b40023309ff33070a05826798028268800282698802826a9002977708987708826b80017b6b7802826b88017b6b7002826b90017b6b6802826b98017b6b60027b6798027b6a90027b6988027b68800283686002836a80023309ff330b2033070a09836720020a038267280281683002826a20027b6a88016f779779206f88988820d498087b6898019877206fa8978820d487077b679001330733085020bc012a6dff3a08a000023a09a800023a0ab000023a0bb800027b6898027b6990027b6a88027b6b80028268b8017b68b8028268c0017b68b0028268c8017b68a8028268d0017b68a0028268a0017b68d8028268a8017b68d0028268b0017b68c802826888019788207b68e802826898016f887b68f802826890016f887b68f0024926c0024926e002837983678002330804330a0a043307330801018269d8017b987b97087b97107b97189551e0fc82101803821510038216080395112003320033075020be01896eff3307015020c0017f6eff0049489220248414d249525252a22a2529499224499224499224499224499224499224499224494a92a42455252949a224952455494a929424494992545595a424294925494a4a43224444442222a211114922244922494928a524499224499224494992244992248914aa432424499224499224499292244992244992a40248928a244992244992244992244992244992242925492409499224494444a42291881449429224499224499224294992244992244992244992244992244992244992244992a42a4992648552ab501d126a852a8d88884849084992244992244992240949119244226a4404040412481225a9469292245124228d88082089242a898848218aa22849922449922449922449922449922449529224499224498824499224499224499224494a21892a4591482422524444444424202090244a528d242549a248441a11114012495412119142082122228410890821440811114284881022810412481225a9469292245124228d88082089242a8988884823222229494449224924925492886844442451121149449224224922922449a22449922449420a5114454992244992244992244992244992244992922449922449422449922449922449922449520a495429921411111111111111222222521a11115195244992a42449524a2249922449924824128924492291482412894424128944229188442422224492244992248922914824922449241289442291482412894422911492a8d248224924924492a4a2a81249922492481289244924494a92449288449244495592249144249224499224924412492246445445444444444444243522224912491249229124491145124589249148214992244992482412499224128944229148241289442291481489a490449546498a8a2292a824202089925423494992289284244992244992244952922449922449922449922449922449922449922449922449559224498a84104244440821448410228488082142440811092489925423494992289284244992244992244952922449922449922449922449922449922449922449922449559224498a84881022228410228408214208212242888810092489925423494992289284244992244992244952922449922449922449922449922449922449922449922449559224498a8424499224499224499224495222120412481225a9469292245124224544444444a410455194244992244992244992244992244992244992244992a4242449922449922449922449925228224544445425499254454444448488888854444444444412922449922449922449499224499224499224499224499224499224499224499224554992242912229124499224492249922449922249922449922449922449928804924449aa91a424491489482322024822894a222252082184908808114208114284102222448410924092284935929424892211694444004924514944440a11111142881021848810114244880811129140922849359294248922494892244992244992242549922449922449922449922449922449922449922449925425499228124208212422428410428410218488081121842490244a528d242549a248441a1111401249541211914214455192244992244992244992244992244992a4244992244992104992244992244992244992944212558a22914844a48888888818294451142549922449922449922449922449922449922449922429099124499224492249922449924492244992248904924449aa91a424491489482322024822894a2222225244444444440a5114454992244992244992244992244992244992244992244996842449922449922449922449520a4954298a44229142144551922449922449922449922449922449922449922449929210499224499224922449922449244992244992982449922449292451a54852444444444488888848454444242149922449922449929424499224499224499224499224499224499224499224495295244992812451926a242949124522d28888009248a292888814a2288a9224499224499224499224499224499224254992244992844892244992244992244992a41492a85224a92a22222222222244444444444424212549922449922449922449922449922449922449922449922449922449922449521445111111111111111111111111890811914892248a8888888804924449aa91a424491489482322024822898a888814a2288a9224499224499224499224499224499224254992244992844892244992244992244992a41492a85224a92a222222888888884882942449922449922449922449922449922449922449922449922449922449922449511445444444444444440411914892248a888849922412914492244992a8082a1a491225a946929224512409922449922449922449499224499224499224499224499224499224499224499224554992248a041111114288102184881011424488081112311189241140244a9188222222222252b522914812492489449224499224491245441411114514514411451445111191d448221149248924924845249144a2882492249118914844129144922492249224499288888888888888888888888888888888088220084110042108822004411084002280082022222222221249922449922449922492244992244992248924499224499224492225499224499224491451444444241289444444444444444424228888114592244992142912041089a492244992244992244992242989a0d4880820a2202224224841490392284935929424a210914644442449228024092049121111114422014994a41a494a1251882022222222a21111514a5292481249241191222222222222222222222248401225a946929244142288888808222222220a22422282142451a54852511445448a8888888888828888884444908224aa14492a8aa288888808222222111111111111119180244a528d2425892844101111114444444414448444042948a24a91a4a2288a8814111111111105111111898820054954299254144511111111444444444444444444442420899254234949220a11414444444444448a8888888808222291484444248848124922124444444444444444918888888888884844c4482491482291444444444444444444444444444444444444444444444444444444444444444444104104114488208208228810410411441021820822882042001111111101440410111111111111914852922449922449922449922449922449922449922449922449922449922449922491482492894412455114111111111154503520899254234949220a11292222222222828888888888888888882022222222828888888888888888880812904449aa91a424118508222222222252444444444410111111111144444444441011111111111111111141024994a41a494a928a14941a45448a88888888880822222222222222228a888808222222222222828888888888888888222222228244440011052928894644442a1289484192244992244992244992242909922449922449922449922449292852444444440aa2284a249144124992244924499224499224491249922449922491244952124492244992248924499224491249922449922492244992242905458a88888888880811911a114092142982244992244992244992244952122449922449922449922449925290a44a29128924059148249224499224499224499224912449249224495212244992244992449224499224892449922449124992244992948224aa148944a2888888880811918a8848221111111111111149451111a5245212158410424444444444444444512422a248a51a25898888224288881042881022840821848808212242244192244992244992244992242905458a888888484114458924924822499224892449922449922449224992244992249224494a82489224499224912449922449224992244992449224499224a5a0481111111111112122522302489222451011428410420811424408214444841011222209922449922449922449922449294852a5148944928248241249922449922449922449924892241249922429099224499224492249922449924492244992248924499224494a4112558a442251444444448488484544249188888888888888a4a28888521229890a420821222284102222222222228a221111452ad528494444942449a549004952292549925441299a2449a549004952292549925441299a244952922449929424494a294992a42401240549528214944423222215894422499048922491241289442291482412894422914824124522914824128910455194482412111111911a1151952449922425492251444a2449924892244924124992482412492291482449229148248944229124894422912412894492a42a114922499488204a92244992244a92244992444992244992244a92244992242589880410898a4444125444499224494a9224499224294992244992a42429499224499294a42049922449922425499224499224499224499224499224499282a4a23449494a158988882291482449aa2291488ca2288a8888880811911a914424492292882449922489888888881244922449922489244992244922459224499224499224499224924824912492482422912412892449248944442449924822914892449244924aa24424922449924822822849922449a224499224491225499224499228499224499294248a44221111d1880820a22022242212110144144484440429288946442429224922499148242a11442422499224499224499224499224498a28414402884445922449922449922491244992244992244924499224499224499292244992244992a49452220922499224499224499224499222499224499292244992242949a22a924492449248228924912492c8449248922492489224499244092292489224924492244992248a44229148241289442291482412894422914824128944229124495282482249922492489224499224492291482412894422914824128944229148241289442291485424922289249144329224499224499224499244254892244992244992244992242549922489244992244992549288884644444a929214542925499224499224499224499224499224499224499224290992244992244992244992244929282949aa922449aa9224494212a924a94a922222a28888485210114244841042841021440821444408910891044992244992244992244992a4141429128944a28828254949529052922449922449529224499224499224499224499024499224499224499224499224499224499224499224494a41912222222222224244a4460490a4121111454400110551449492942449922084848424095250128d88889424490a524a2949499224499224499224499224499224499224499224499024499224499224499224494a4191229148248a8852929424052925499224499224254992244992244992244992044992244992244992244992244992244992244992244992a414142922222222222244446a4400492a111151440410511045442949492222114192244912488192684444a4229128128944a4401445512289249248228924124924914412492491442289249248228924924824499224499224491225812449922449922449922449520a14292222222205a2284a249144124924914422892492482249922489244992244992489224290944922449922489244992244912499224499224922449922429058a14111111111111222235228024295204922449922489442291482412894422914824128944229148248a4492409224499224499224499224290592a8521489442205229148241289442291489224499224912449249224495212882449922449124992244992249224499224492449922449520a2451a5482412454444444488885444441289888888888888482a8a8828259192a840082144444444444444444444228a28228a54aa519288882822225291481489442252208aa228914412492491441289249248228924924822914412492491441249249224499224499224899240922449922449922449922429058a14111111910251142592482289249248229144124924912449924492244992244924499294042249922449924492244992248924499224491249922449929402458a88888888880811911a1140924a4981244992244922914824128944229148241289442291482412892291249024499224499224499224494a8124aa14452291488148241289442291482492244992244924491289244992940422499224499244922449922489244992244912499224499294024954291289441111111111222215119144444444444444241545449492484954208410222222222222222222221145141145aa8c9244444405120800"},"methodIdentifiers":{"ADMIN_ROLE()":"75b238fc","AUDITOR_ROLE()":"6e1d616e","BUSINESS_ROLE()":"3207247b","DEFAULT_ADMIN_ROLE()":"a217fddf","UPLOADER_ROLE()":"61cc0766","getRoleAdmin(bytes32)":"248a9ca3","getUserDepartment(address)":"c756a060","grantContractAccess(address,uint256)":"5ab5b0ba","grantRole(bytes32,address)":"2f2ff15d","grantUserRole(address,bytes32)":"d49137a9","hasAccessToContract(address,uint256)":"7d655998","hasRole(bytes32,address)":"91d14854","isAuditor(address)":"49b90557","isBusinessUser(address)":"6a5be3cc","isUploader(address)":"6db5426a","renounceRole(bytes32,address)":"36568abe","revokeContractAccess(address,uint256)":"7da3cb64","revokeRole(bytes32,address)":"d547741f","revokeUserRole(address,bytes32)":"4906f8a9","setUserDepartment(address,string)":"ab6bbc9f","supportsInterface(bytes4)":"01ffc9a7","userContractAccess(address,uint256)":"8681ff3c","userDepartment(address)":"a2ec7ff8"}},"hash":"59551455614d435223143dfb0d6d58b4cb9f6523e040d02e79f0d3a42a4b99a3","factoryDependencies":{}}}}