{"contracts/ContractVerifier.sol":{"ContractVerifier":{"abi":[{"inputs":[],"stateMutability":"nonpayable","type":"constructor"},{"anonymous":false,"inputs":[{"indexed":true,"internalType":"uint256","name":"contractId","type":"uint256"},{"indexed":false,"internalType":"bytes32","name":"fileHash","type":"bytes32"},{"indexed":true,"internalType":"address","name":"uploader","type":"address"}],"name":"ContractUploaded","type":"event"},{"anonymous":false,"inputs":[{"indexed":true,"internalType":"address","name":"uploader","type":"address"}],"name":"UploaderAdded","type":"event"},{"anonymous":false,"inputs":[{"indexed":true,"internalType":"address","name":"uploader","type":"address"}],"name":"UploaderRemoved","type":"event"},{"inputs":[{"internalType":"address","name":"uploader","type":"address"}],"name":"addUploader","outputs":[],"stateMutability":"nonpayable","type":"function"},{"inputs":[{"internalType":"uint256","name":"","type":"uint256"},{"internalType":"uint256","name":"","type":"uint256"}],"name":"contractHistory","outputs":[{"internalType":"bytes32","name":"fileHash","type":"bytes32"},{"internalType":"address","name":"uploader","type":"address"},{"internalType":"uint256","name":"timestamp","type":"uint256"}],"stateMutability":"view","type":"function"},{"inputs":[{"internalType":"uint256","name":"contractId","type":"uint256"},{"internalType":"uint256","name":"version","type":"uint256"}],"name":"getHistory","outputs":[{"components":[{"internalType":"bytes32","name":"fileHash","type":"bytes32"},{"internalType":"address","name":"uploader","type":"address"},{"internalType":"uint256","name":"timestamp","type":"uint256"}],"internalType":"struct ContractVerifier.ContractVersion","name":"","type":"tuple"}],"stateMutability":"view","type":"function"},{"inputs":[{"internalType":"uint256","name":"contractId","type":"uint256"}],"name":"getHistoryCount","outputs":[{"internalType":"uint256","name":"","type":"uint256"}],"stateMutability":"view","type":"function"},{"inputs":[{"internalType":"uint256","name":"contractId","type":"uint256"}],"name":"getLatestHash","outputs":[{"internalType":"bytes32","name":"","type":"bytes32"}],"stateMutability":"view","type":"function"},{"inputs":[],"name":"owner","outputs":[{"internalType":"address","name":"","type":"address"}],"stateMutability":"view","type":"function"},{"inputs":[{"internalType":"address","name":"uploader","type":"address"}],"name":"removeUploader","outputs":[],"stateMutability":"nonpayable","type":"function"},{"inputs":[{"internalType":"uint256","name":"contractId","type":"uint256"},{"internalType":"bytes32","name":"fileHash","type":"bytes32"}],"name":"uploadContract","outputs":[],"stateMutability":"nonpayable","type":"function"},{"inputs":[{"internalType":"address","name":"","type":"address"}],"name":"uploaders","outputs":[{"internalType":"bool","name":"","type":"bool"}],"stateMutability":"view","type":"function"}],"evm":{"assembly":"// RO data = 0/0 bytes\n// RW data = 96/65648 bytes\n// Stack size = 16384 bytes\n\n// Instructions = 7145\n// Code size = 23065 bytes\n\n      : @0 (gas: 2)\n     0: i32 a2 = a0 >> 0x10\n     3: jump @6 if a2 != 0\n      : @1 (gas: 2)\n     6: a2 = 0x10001\n    11: jump @6 if a1 >=u a2\n      : @2 (gas: 4)\n    14: a1 = a1 + a0\n    17: i32 a1 = a1 + 0x1f\n    20: a1 = a1 & 0xffffffffffffffe0\n    23: jump @7 if a1 >=u 65537\n      : @3 (gas: 2)\n    29: a3 = i32 [0x20060]\n    34: jump @5 if a3 >=u a1\n      : @4 (gas: 4)\n    37: u32 [0x20060] = a1\n    42: a1 = 0x20070\n    47: a0 = a0 + a1\n    50: ret\n      : @5 (gas: 3)\n    52: a1 = 0x20070\n    57: a0 = a0 + a1\n    60: ret\n      : @6 (gas: 1)\n    62: trap\n      : @7 (gas: 1)\n    63: trap\n      : @8 (gas: 13)\n    64: sp = sp + 0xffffffffffffffd8\n    67: u64 [sp + 0x20] = ra\n    70: u64 [sp + 0x18] = s0\n    73: u64 [sp + 0x10] = s1\n    76: a2 = u64 [a1]\n    78: u64 [sp + 0x8] = a2\n    81: a2 = u64 [a1 + 0x8]\n    84: u64 [sp] = a2\n    86: s0 = u64 [a1 + 0x10]\n    89: s1 = u64 [a1 + 0x18]\n    92: i32 a0 = a0 + 0\n    94: a1 = 0x20\n    97: ra = 2, jump @0\n      : @9 [@dyn 1] (gas: 71)\n   101: a1 = reverse s1\n   103: a2 = reverse s0\n   105: a3 = u64 [sp]\n   107: a3 = reverse a3\n   109: a4 = u64 [sp + 0x8]\n   112: a4 = reverse a4\n   114: u8 [a0 + 0x18] = a4\n   117: u8 [a0 + 0x10] = a3\n   120: u8 [a0 + 0x8] = a2\n   123: u8 [a0] = a1\n   125: a5 = a4 >> 0x38\n   128: u8 [a0 + 0x1f] = a5\n   131: a5 = a4 >> 0x30\n   134: u8 [a0 + 0x1e] = a5\n   137: a5 = a4 >> 0x28\n   140: u8 [a0 + 0x1d] = a5\n   143: a5 = a4 >> 0x20\n   146: u8 [a0 + 0x1c] = a5\n   149: a5 = a4 >> 0x18\n   152: u8 [a0 + 0x1b] = a5\n   155: a5 = a4 >> 0x10\n   158: u8 [a0 + 0x1a] = a5\n   161: a4 = a4 >> 0x8\n   164: u8 [a0 + 0x19] = a4\n   167: a4 = a3 >> 0x38\n   170: u8 [a0 + 0x17] = a4\n   173: a4 = a3 >> 0x30\n   176: u8 [a0 + 0x16] = a4\n   179: a4 = a3 >> 0x28\n   182: u8 [a0 + 0x15] = a4\n   185: a4 = a3 >> 0x20\n   188: u8 [a0 + 0x14] = a4\n   191: a4 = a3 >> 0x18\n   194: u8 [a0 + 0x13] = a4\n   197: a4 = a3 >> 0x10\n   200: u8 [a0 + 0x12] = a4\n   203: a3 = a3 >> 0x8\n   206: u8 [a0 + 0x11] = a3\n   209: a3 = a2 >> 0x38\n   212: u8 [a0 + 0xf] = a3\n   215: a3 = a2 >> 0x30\n   218: u8 [a0 + 0xe] = a3\n   221: a3 = a2 >> 0x28\n   224: u8 [a0 + 0xd] = a3\n   227: a3 = a2 >> 0x20\n   230: u8 [a0 + 0xc] = a3\n   233: a3 = a2 >> 0x18\n   236: u8 [a0 + 0xb] = a3\n   239: a3 = a2 >> 0x10\n   242: u8 [a0 + 0xa] = a3\n   245: a2 = a2 >> 0x8\n   248: u8 [a0 + 0x9] = a2\n   251: a2 = a1 >> 0x38\n   254: u8 [a0 + 0x7] = a2\n   257: a2 = a1 >> 0x30\n   260: u8 [a0 + 0x6] = a2\n   263: a2 = a1 >> 0x28\n   266: u8 [a0 + 0x5] = a2\n   269: a2 = a1 >> 0x20\n   272: u8 [a0 + 0x4] = a2\n   275: a2 = a1 >> 0x18\n   278: u8 [a0 + 0x3] = a2\n   281: a2 = a1 >> 0x10\n   284: u8 [a0 + 0x2] = a2\n   287: a1 = a1 >> 0x8\n   290: u8 [a0 + 0x1] = a1\n   293: ra = u64 [sp + 0x20]\n   296: s0 = u64 [sp + 0x18]\n   299: s1 = u64 [sp + 0x10]\n   302: sp = sp + 0x28\n   305: ret\n      : @10 (gas: 48)\n   307: sp = sp + 0xffffffffffffffa0\n   310: u64 [sp + 0x58] = ra\n   313: u64 [sp + 0x50] = s0\n   316: u64 [sp + 0x48] = s1\n   319: s0 = sp + 0x60\n   322: sp = sp & 0xffffffffffffffe0\n   325: s1 = a0\n   327: a0 = u64 [a1 + 0x18]\n   330: a2 = u64 [a1 + 0x10]\n   333: a3 = u64 [a1 + 0x8]\n   336: a1 = u64 [a1]\n   338: a0 = reverse a0\n   340: a2 = reverse a2\n   342: a3 = reverse a3\n   344: a1 = reverse a1\n   346: u64 [sp + 0x18] = a1\n   349: u64 [sp + 0x10] = a3\n   352: u64 [sp + 0x8] = a2\n   355: u64 [sp] = a0\n   357: u64 [sp + 56] = 0\n   360: u64 [sp + 48] = 0\n   363: u64 [sp + 40] = 0\n   366: u64 [sp + 32] = 0\n   369: u32 [sp + 64] = 0x20\n   373: i32 a1 = sp + 0\n   375: i32 a3 = sp + 0x20\n   378: i32 a4 = sp + 0x40\n   381: a2 = 0xffffffffffffffff\n   384: a0 = 0\n   386: ecalli 5 // 'get_storage'\n   388: a0 = u64 [sp + 0x38]\n   391: a1 = u64 [sp + 0x30]\n   394: a2 = u64 [sp + 0x28]\n   397: a3 = u64 [sp + 0x20]\n   400: a0 = reverse a0\n   402: a1 = reverse a1\n   404: a2 = reverse a2\n   406: a3 = reverse a3\n   408: u64 [s1 + 0x18] = a3\n   411: u64 [s1 + 0x10] = a2\n   414: u64 [s1 + 0x8] = a1\n   417: u64 [s1] = a0\n   419: sp = s0 + 0xffffffffffffffa0\n   422: ra = u64 [sp + 0x58]\n   425: s0 = u64 [sp + 0x50]\n   428: s1 = u64 [sp + 0x48]\n   431: sp = sp + 0x60\n   434: ret\n      : @11 (gas: 42)\n   436: sp = sp + 0xffffffffffffffa0\n   439: u64 [sp + 0x58] = ra\n   442: u64 [sp + 0x50] = s0\n   445: u64 [sp + 0x48] = s1\n   448: s0 = sp + 0x60\n   451: sp = sp & 0xffffffffffffffe0\n   454: t0 = u64 [a1]\n   456: t1 = u64 [a1 + 0x8]\n   459: a4 = u64 [a1 + 0x10]\n   462: a1 = u64 [a1 + 0x18]\n   465: a5 = u64 [a0 + 0x18]\n   468: a2 = u64 [a0 + 0x10]\n   471: a3 = u64 [a0 + 0x8]\n   474: a0 = u64 [a0]\n   476: s1 = reverse a5\n   478: a2 = reverse a2\n   480: a3 = reverse a3\n   482: a0 = reverse a0\n   484: t2 = reverse a1\n   486: a4 = reverse a4\n   488: a1 = reverse t1\n   490: a5 = reverse t0\n   492: u64 [sp + 0x18] = a0\n   495: u64 [sp + 0x10] = a3\n   498: u64 [sp + 0x8] = a2\n   501: u64 [sp] = s1\n   503: u64 [sp + 0x38] = a5\n   506: u64 [sp + 0x30] = a1\n   509: u64 [sp + 0x28] = a4\n   512: u64 [sp + 0x20] = t2\n   515: i32 a1 = sp + 0\n   517: i32 a3 = sp + 0x20\n   520: a2 = 0xffffffffffffffff\n   523: a4 = 0x20\n   526: a0 = 0\n   528: ecalli 10 // 'set_storage'\n   530: sp = s0 + 0xffffffffffffffa0\n   533: ra = u64 [sp + 0x58]\n   536: s0 = u64 [sp + 0x50]\n   539: s1 = u64 [sp + 0x48]\n   542: sp = sp + 0x60\n   545: ret\n      : @12 [@dyn 2] (gas: 34)\n   547: a1 = reverse s1\n   549: a2 = u64 [sp]\n   551: a2 = reverse a2\n   553: a3 = u64 [sp + 0x8]\n   556: a3 = reverse a3\n   558: a4 = u64 [sp + 0x10]\n   561: a4 = reverse a4\n   563: u64 [sp + 0x58] = a4\n   566: u64 [sp + 0x50] = a3\n   569: u64 [sp + 0x48] = a2\n   572: u64 [sp + 0x40] = a1\n   575: a1 = u64 [sp + 0x18]\n   578: a1 = reverse a1\n   580: a2 = u64 [sp + 0x20]\n   583: a2 = reverse a2\n   585: a3 = u64 [sp + 0x28]\n   588: a3 = reverse a3\n   590: a4 = u64 [sp + 0x38]\n   593: a4 = reverse a4\n   595: u64 [sp + 0x78] = a4\n   598: u64 [sp + 0x70] = a3\n   601: u64 [sp + 0x68] = a2\n   604: u64 [sp + 0x60] = a1\n   607: i32 a2 = a0 + 0\n   609: i32 a0 = sp + 0x40\n   612: a1 = 0x2\n   615: a3 = u64 [sp + 0x30]\n   618: ecalli 4 // 'deposit_event'\n   620: sp = s0 + 0xffffffffffffff60\n   624: ra = u64 [sp + 0x98]\n   628: s0 = u64 [sp + 0x90]\n   632: s1 = u64 [sp + 0x88]\n   636: sp = sp + 0xa0\n   640: ret\n      : @13 [@dyn 3] (gas: 46)\n   642: a1 = reverse s1\n   644: u64 [sp + 0x78] = a1\n   647: a1 = u64 [sp]\n   649: a1 = reverse a1\n   651: u64 [sp + 0x70] = a1\n   654: a1 = u64 [sp + 0x8]\n   657: a1 = reverse a1\n   659: u64 [sp + 0x68] = a1\n   662: a1 = u64 [sp + 0x10]\n   665: a1 = reverse a1\n   667: u64 [sp + 0x60] = a1\n   670: a1 = u64 [sp + 0x18]\n   673: a1 = reverse a1\n   675: u64 [sp + 0x98] = a1\n   679: a1 = u64 [sp + 0x20]\n   682: a1 = reverse a1\n   684: u64 [sp + 0x90] = a1\n   688: a1 = u64 [sp + 0x28]\n   691: a1 = reverse a1\n   693: u64 [sp + 0x88] = a1\n   697: a1 = u64 [sp + 0x30]\n   700: a1 = reverse a1\n   702: u64 [sp + 0x80] = a1\n   706: a1 = u64 [sp + 0x40]\n   709: a1 = reverse a1\n   711: u64 [sp + 0xb8] = a1\n   715: a1 = u64 [sp + 0x48]\n   718: a1 = reverse a1\n   720: u64 [sp + 0xb0] = a1\n   724: a1 = u64 [sp + 0x50]\n   727: a1 = reverse a1\n   729: u64 [sp + 0xa8] = a1\n   733: a1 = u64 [sp + 0x58]\n   736: a1 = reverse a1\n   738: u64 [sp + 0xa0] = a1\n   742: i32 a2 = a0 + 0\n   744: i32 a0 = sp + 0x60\n   747: a1 = 0x3\n   750: a3 = u64 [sp + 0x38]\n   753: ecalli 4 // 'deposit_event'\n   755: sp = s0 + 0xffffffffffffff20\n   759: ra = u64 [sp + 0xd8]\n   763: s0 = u64 [sp + 0xd0]\n   767: s1 = u64 [sp + 0xc8]\n   771: sp = sp + 0xe0\n   775: ret\n      : @14 (gas: 6)\n   777: sp = sp + 0xfffffffffffffff0\n   780: u64 [sp + 0x8] = ra\n   783: u64 [sp] = s0\n   785: s0 = a0 & 0x1\n   788: ecalli 2 // 'call_data_size'\n   790: fallthrough\n      : @15 (gas: 2)\n   791: u32 [0x20064] = a0\n   796: jump @17 if s0 == 0\n      : @16 (gas: 1)\n   799: ra = 8, jump @18\n      : @17 [@dyn 4] (gas: 1)\n   803: ra = 10, jump @32\n      : @18 [@dyn 5] (gas: 10)\n   808: sp = sp + 0xfffffffffffffee0\n   812: u64 [sp + 0x118] = ra\n   816: u64 [sp + 0x110] = s0\n   820: u64 [sp + 0x108] = s1\n   824: s0 = sp + 0x120\n   828: sp = sp & 0xffffffffffffffe0\n   831: s1 = sp\n   833: a0 = 0x40\n   836: a1 = 0x20\n   839: ra = 12, jump @0\n      : @19 [@dyn 6] (gas: 39)\n   844: u8 [a0 + 31] = 0x80\n   849: u8 [a0 + 30] = 0\n   852: u8 [a0 + 29] = 0\n   855: u8 [a0 + 28] = 0\n   858: u8 [a0 + 27] = 0\n   861: u8 [a0 + 26] = 0\n   864: u8 [a0 + 25] = 0\n   867: u8 [a0 + 24] = 0\n   870: u8 [a0 + 23] = 0\n   873: u8 [a0 + 22] = 0\n   876: u8 [a0 + 21] = 0\n   879: u8 [a0 + 20] = 0\n   882: u8 [a0 + 19] = 0\n   885: u8 [a0 + 18] = 0\n   888: u8 [a0 + 17] = 0\n   891: u8 [a0 + 16] = 0\n   894: u8 [a0 + 15] = 0\n   897: u8 [a0 + 14] = 0\n   900: u8 [a0 + 13] = 0\n   903: u8 [a0 + 12] = 0\n   906: u8 [a0 + 11] = 0\n   909: u8 [a0 + 10] = 0\n   912: u8 [a0 + 9] = 0\n   915: u8 [a0 + 8] = 0\n   918: u8 [a0 + 7] = 0\n   921: u8 [a0 + 6] = 0\n   924: u8 [a0 + 5] = 0\n   927: u8 [a0 + 4] = 0\n   930: u8 [a0 + 3] = 0\n   933: u8 [a0 + 2] = 0\n   936: u8 [a0 + 1] = 0\n   939: u8 [a0 + 0] = 0\n   941: u64 [s1 + 88] = 0\n   944: u64 [s1 + 64] = 0\n   947: u64 [s1 + 72] = 0\n   950: u64 [s1 + 80] = 0\n   953: i32 a0 = s1 + 0x40\n   956: ecalli 11 // 'value_transferred'\n   958: fallthrough\n      : @20 (gas: 8)\n   959: a0 = u64 [s1 + 0x50]\n   962: a1 = u64 [s1 + 0x58]\n   965: a2 = u64 [s1 + 0x48]\n   968: a3 = u64 [s1 + 0x40]\n   971: a1 = a1 | a2\n   974: a0 = a0 | a3\n   977: a0 = a0 | a1\n   980: jump @23 if a0 == 0\n      : @21 (gas: 3)\n   983: a0 = 0\n   985: a1 = 0\n   987: ra = 14, jump @0\n      : @22 [@dyn 7] (gas: 5)\n   992: i32 a1 = a0 + 0\n   994: a0 = 0x1\n   997: a2 = 0\n   999: ecalli 8 // 'seal_return'\n  1001: fallthrough\n      : @23 (gas: 78)\n  1002: i32 a0 = s1 + 0x60\n  1005: ecalli 3 // 'caller'\n  1007: a0 = u64 [s1 + 0x68]\n  1010: a1 = i32 [s1 + 0x70]\n  1013: a3 = u64 [s1 + 0x60]\n  1016: u64 [s1 + 0x28] = a3\n  1019: a0 = reverse a0\n  1021: a2 = a0 << 0x20\n  1024: a1 = reverse a1\n  1026: a1 = a1 >> 0x20\n  1029: a1 = a1 | a2\n  1032: u64 [s1 + 0x30] = a1\n  1035: a0 = a0 >> 0x20\n  1038: a1 = reverse a3\n  1040: a1 = a1 << 0x20\n  1043: a0 = a0 | a1\n  1046: u64 [s1 + 0x20] = a0\n  1049: a0 = 0x100000000000000\n  1059: u64 [s1 + 0x38] = a0\n  1062: u64 [s1 + 0xd8] = a0\n  1066: u64 [s1 + 208] = 0\n  1070: u64 [s1 + 200] = 0\n  1074: u64 [s1 + 192] = 0\n  1078: u64 [s1 + 248] = 0\n  1082: u64 [s1 + 240] = 0\n  1086: u64 [s1 + 232] = 0\n  1090: u64 [s1 + 224] = 0\n  1094: u32 [s1 + 160] = 0x20\n  1099: i32 a1 = s1 + 0xc0\n  1103: i32 a3 = s1 + 0xe0\n  1107: i32 a4 = s1 + 0xa0\n  1111: a2 = 0xffffffffffffffff\n  1114: a0 = 0\n  1116: ecalli 5 // 'get_storage'\n  1118: a0 = u64 [s1 + 0xe0]\n  1122: a1 = u32 [s1 + 0xe8]\n  1126: a2 = u64 [s1 + 0x20]\n  1129: a2 = reverse a2\n  1131: a3 = u64 [s1 + 0x30]\n  1134: a3 = reverse a3\n  1136: a4 = u64 [s1 + 0x28]\n  1139: a4 = a4 << 0x20\n  1142: a1 = a1 | a4\n  1145: a4 = u64 [s1 + 0x38]\n  1148: u64 [s1 + 0xd8] = a4\n  1152: u64 [s1 + 208] = 0\n  1156: u64 [s1 + 200] = 0\n  1160: u64 [s1 + 192] = 0\n  1164: u64 [s1 + 0xf8] = a3\n  1168: u64 [s1 + 0xf0] = a2\n  1172: u64 [s1 + 0xe8] = a1\n  1176: u64 [s1 + 0xe0] = a0\n  1180: i32 a1 = s1 + 0xc0\n  1184: i32 a3 = s1 + 0xe0\n  1188: a2 = 0xffffffffffffffff\n  1191: a4 = 0x20\n  1194: a0 = 0\n  1196: ecalli 10 // 'set_storage'\n  1198: i32 a0 = s1 + 0x80\n  1202: ecalli 3 // 'caller'\n  1204: a0 = u64 [s1 + 0x88]\n  1208: a1 = i32 [s1 + 0x90]\n  1212: a3 = u64 [s1 + 0x80]\n  1216: u64 [s1 + 0x28] = a3\n  1219: a0 = reverse a0\n  1221: a2 = a0 << 0x20\n  1224: a1 = reverse a1\n  1226: a1 = a1 >> 0x20\n  1229: a1 = a1 | a2\n  1232: u64 [s1 + 0x30] = a1\n  1235: a0 = a0 >> 0x20\n  1238: a1 = reverse a3\n  1240: a1 = a1 << 0x20\n  1243: a0 = a0 | a1\n  1246: u64 [s1 + 0x20] = a0\n  1249: a1 = 0x20\n  1252: a0 = 0\n  1254: ra = 16, jump @0\n      : @24 [@dyn 8] (gas: 57)\n  1259: a1 = u64 [s1 + 0x20]\n  1262: a1 = reverse a1\n  1264: a2 = u64 [s1 + 0x30]\n  1267: a2 = reverse a2\n  1269: a4 = u64 [s1 + 0x28]\n  1272: a3 = a4 >> 0x18\n  1275: u8 [a0 + 0xf] = a3\n  1278: a3 = a4 >> 0x10\n  1281: u8 [a0 + 0xe] = a3\n  1284: a3 = a4 >> 0x8\n  1287: u8 [a0 + 0xd] = a3\n  1290: u8 [a0 + 0xc] = a4\n  1293: u8 [a0 + 11] = 0\n  1296: u8 [a0 + 10] = 0\n  1299: u8 [a0 + 9] = 0\n  1302: u8 [a0 + 8] = 0\n  1305: u8 [a0 + 7] = 0\n  1308: u8 [a0 + 6] = 0\n  1311: u8 [a0 + 5] = 0\n  1314: u8 [a0 + 4] = 0\n  1317: u8 [a0 + 3] = 0\n  1320: u8 [a0 + 2] = 0\n  1323: u8 [a0 + 1] = 0\n  1326: u8 [a0 + 0] = 0\n  1328: u8 [a0 + 0x18] = a2\n  1331: u8 [a0 + 0x10] = a1\n  1334: a3 = a2 >> 0x38\n  1337: u8 [a0 + 0x1f] = a3\n  1340: a3 = a2 >> 0x30\n  1343: u8 [a0 + 0x1e] = a3\n  1346: a3 = a2 >> 0x28\n  1349: u8 [a0 + 0x1d] = a3\n  1352: a3 = a2 >> 0x20\n  1355: u8 [a0 + 0x1c] = a3\n  1358: a3 = a2 >> 0x18\n  1361: u8 [a0 + 0x1b] = a3\n  1364: a3 = a2 >> 0x10\n  1367: u8 [a0 + 0x1a] = a3\n  1370: a2 = a2 >> 0x8\n  1373: u8 [a0 + 0x19] = a2\n  1376: a2 = a1 >> 0x38\n  1379: u8 [a0 + 0x17] = a2\n  1382: a2 = a1 >> 0x30\n  1385: u8 [a0 + 0x16] = a2\n  1388: a2 = a1 >> 0x28\n  1391: u8 [a0 + 0x15] = a2\n  1394: a2 = a1 >> 0x20\n  1397: u8 [a0 + 0x14] = a2\n  1400: a2 = a1 >> 0x18\n  1403: u8 [a0 + 0x13] = a2\n  1406: a2 = a1 >> 0x10\n  1409: u8 [a0 + 0x12] = a2\n  1412: a1 = a1 >> 0x8\n  1415: u8 [a0 + 0x11] = a1\n  1418: a0 = 0x20\n  1421: a1 = 0x20\n  1424: ra = 18, jump @0\n      : @25 [@dyn 9] (gas: 35)\n  1429: u8 [a0 + 31] = 0x2\n  1433: u8 [a0 + 30] = 0\n  1436: u8 [a0 + 29] = 0\n  1439: u8 [a0 + 28] = 0\n  1442: u8 [a0 + 27] = 0\n  1445: u8 [a0 + 26] = 0\n  1448: u8 [a0 + 25] = 0\n  1451: u8 [a0 + 24] = 0\n  1454: u8 [a0 + 23] = 0\n  1457: u8 [a0 + 22] = 0\n  1460: u8 [a0 + 21] = 0\n  1463: u8 [a0 + 20] = 0\n  1466: u8 [a0 + 19] = 0\n  1469: u8 [a0 + 18] = 0\n  1472: u8 [a0 + 17] = 0\n  1475: u8 [a0 + 16] = 0\n  1478: u8 [a0 + 15] = 0\n  1481: u8 [a0 + 14] = 0\n  1484: u8 [a0 + 13] = 0\n  1487: u8 [a0 + 12] = 0\n  1490: u8 [a0 + 11] = 0\n  1493: u8 [a0 + 10] = 0\n  1496: u8 [a0 + 9] = 0\n  1499: u8 [a0 + 8] = 0\n  1502: u8 [a0 + 7] = 0\n  1505: u8 [a0 + 6] = 0\n  1508: u8 [a0 + 5] = 0\n  1511: u8 [a0 + 4] = 0\n  1514: u8 [a0 + 3] = 0\n  1517: u8 [a0 + 2] = 0\n  1520: u8 [a0 + 1] = 0\n  1523: u8 [a0 + 0] = 0\n  1525: a1 = 0x40\n  1528: a0 = 0\n  1530: ra = 20, jump @0\n      : @26 [@dyn 10] (gas: 61)\n  1535: a1 = sp + 0xffffffffffffffe0\n  1538: a1 = a1 & 0xffffffffffffffe0\n  1541: u64 [s1 + 0x30] = a1\n  1544: sp = a1\n  1546: i32 a0 = a0 + 0\n  1548: i32 a2 = a1 + 0\n  1550: a1 = 0x40\n  1553: ecalli 6 // 'hash_keccak_256'\n  1555: a0 = u64 [s1 + 0x30]\n  1558: a3 = u64 [a0 + 0x18]\n  1561: u64 [s1 + 0x18] = a3\n  1564: a2 = u64 [a0 + 0x10]\n  1567: u64 [s1 + 0x20] = a2\n  1570: a1 = u64 [a0 + 0x8]\n  1573: u64 [s1 + 0x28] = a1\n  1576: a0 = u64 [a0]\n  1578: u64 [s1 + 0x30] = a0\n  1581: u64 [s1 + 0xd8] = a3\n  1585: u64 [s1 + 0xd0] = a2\n  1589: u64 [s1 + 0xc8] = a1\n  1593: u64 [s1 + 0xc0] = a0\n  1597: u64 [s1 + 248] = 0\n  1601: u64 [s1 + 240] = 0\n  1605: u64 [s1 + 232] = 0\n  1609: u64 [s1 + 224] = 0\n  1613: u32 [s1 + 160] = 0x20\n  1618: i32 a1 = s1 + 0xc0\n  1622: i32 a3 = s1 + 0xe0\n  1626: i32 a4 = s1 + 0xa0\n  1630: a2 = 0xffffffffffffffff\n  1633: a0 = 0\n  1635: ecalli 5 // 'get_storage'\n  1637: a0 = u64 [s1 + 0xf8]\n  1641: a1 = u64 [s1 + 0xe0]\n  1645: a2 = u64 [s1 + 0xe8]\n  1649: a3 = u64 [s1 + 0xf0]\n  1653: a0 = a0 << 0x8\n  1656: a0 = a0 >> 0x8\n  1659: a4 = u64 [s1 + 0x38]\n  1662: a0 = a0 | a4\n  1665: a4 = u64 [s1 + 0x18]\n  1668: u64 [s1 + 0xd8] = a4\n  1672: a4 = u64 [s1 + 0x20]\n  1675: u64 [s1 + 0xd0] = a4\n  1679: a4 = u64 [s1 + 0x28]\n  1682: u64 [s1 + 0xc8] = a4\n  1686: a4 = u64 [s1 + 0x30]\n  1689: u64 [s1 + 0xc0] = a4\n  1693: u64 [s1 + 0xf8] = a0\n  1697: u64 [s1 + 0xf0] = a3\n  1701: u64 [s1 + 0xe8] = a2\n  1705: u64 [s1 + 0xe0] = a1\n  1709: i32 a1 = s1 + 0xc0\n  1713: i32 a3 = s1 + 0xe0\n  1717: a2 = 0xffffffffffffffff\n  1720: a4 = 0x20\n  1723: a0 = 0\n  1725: ecalli 10 // 'set_storage'\n  1727: a0 = 0x80\n  1731: a1 = 0\n  1733: ra = 22, jump @0\n      : @27 [@dyn 11] (gas: 5)\n  1738: i32 a0 = a0 + 0\n  1740: a1 = 0\n  1742: a2 = 0\n  1744: ecalli 0 // 'call_data_copy'\n  1745: fallthrough\n      : @28 (gas: 2)\n  1746: a1 = i32 [0x20068]\n  1751: jump @30 if a1 == 0\n      : @29 (gas: 4)\n  1754: a0 = 0x30070\n  1759: i32 a0 = a0 + 0\n  1761: ecalli 9 // 'set_immutable_data'\n  1763: fallthrough\n      : @30 (gas: 3)\n  1764: a0 = 0x80\n  1768: a1 = 0\n  1770: ra = 24, jump @0\n      : @31 [@dyn 12] (gas: 6)\n  1775: i32 a1 = a0 + 0\n  1777: a0 = 0\n  1779: a2 = 0\n  1781: ra = 0x1a\n  1784: ecalli 8 // 'seal_return'\n  1786: fallthrough\n      : @32 [@dyn 13] (gas: 11)\n  1787: sp = sp + 0xfffffffffffff808\n  1791: u64 [sp + 0x7f0] = ra\n  1795: u64 [sp + 0x7e8] = s0\n  1799: u64 [sp + 0x7e0] = s1\n  1803: s0 = sp + 0x7f8\n  1807: sp = sp + 0xfffffffffffffbd8\n  1811: sp = sp & 0xffffffffffffffe0\n  1814: s1 = sp\n  1816: a0 = 0x40\n  1819: a1 = 0x20\n  1822: ra = 28, jump @0\n      : @33 [@dyn 14] (gas: 36)\n  1827: u8 [a0 + 31] = 0x80\n  1832: u8 [a0 + 30] = 0\n  1835: u8 [a0 + 29] = 0\n  1838: u8 [a0 + 28] = 0\n  1841: u8 [a0 + 27] = 0\n  1844: u8 [a0 + 26] = 0\n  1847: u8 [a0 + 25] = 0\n  1850: u8 [a0 + 24] = 0\n  1853: u8 [a0 + 23] = 0\n  1856: u8 [a0 + 22] = 0\n  1859: u8 [a0 + 21] = 0\n  1862: u8 [a0 + 20] = 0\n  1865: u8 [a0 + 19] = 0\n  1868: u8 [a0 + 18] = 0\n  1871: u8 [a0 + 17] = 0\n  1874: u8 [a0 + 16] = 0\n  1877: u8 [a0 + 15] = 0\n  1880: u8 [a0 + 14] = 0\n  1883: u8 [a0 + 13] = 0\n  1886: u8 [a0 + 12] = 0\n  1889: u8 [a0 + 11] = 0\n  1892: u8 [a0 + 10] = 0\n  1895: u8 [a0 + 9] = 0\n  1898: u8 [a0 + 8] = 0\n  1901: u8 [a0 + 7] = 0\n  1904: u8 [a0 + 3] = 0\n  1907: a1 = 0x20064\n  1912: u8 [a0 + 2] = 0\n  1915: u8 [a0 + 1] = 0\n  1918: u8 [a0 + 0] = 0\n  1920: u64 [s1 + 0x198] = a1\n  1924: a1 = i32 [0x20064]\n  1929: u8 [a0 + 6] = 0\n  1932: u8 [a0 + 5] = 0\n  1935: u8 [a0 + 4] = 0\n  1938: jump @35 if a1 >=u 4\n      : @34 (gas: 1)\n  1942: jump @268\n      : @35 (gas: 5)\n  1945: a0 = s1 + 0x1000\n  1949: i32 a0 = a0 + 0xfffffffffffff9e0\n  1953: a1 = 0\n  1955: ecalli 1 // 'call_data_load'\n  1957: fallthrough\n      : @36 (gas: 4)\n  1958: a0 = s1 + 0x7ff\n  1962: a0 = a0 + 0x139\n  1966: a0 = i32 [a0 + 0xc4]\n  1970: jump @51 if a0 >s 967344902\n      : @37 (gas: 1)\n  1978: jump @39 if a0 <=s 2947057677\n      : @38 (gas: 1)\n  1985: jump @100\n      : @39 (gas: 1)\n  1988: jump @41 if a0 == 2376452955\n      : @40 (gas: 1)\n  1995: jump @156\n      : @41 (gas: 11)\n  1998: a0 = sp + 0xffffffffffffffe0\n  2001: a0 = a0 & 0xffffffffffffffe0\n  2004: u64 [s1 + 0x190] = a0\n  2008: sp = a0\n  2010: u64 [a0 + 24] = 0\n  2013: u64 [a0 + 16] = 0\n  2016: u64 [a0 + 8] = 0\n  2019: u64 [a0 + 0] = 0\n  2021: i32 a0 = a0 + 0\n  2023: ecalli 11 // 'value_transferred'\n  2025: fallthrough\n      : @42 (gas: 9)\n  2026: a3 = u64 [s1 + 0x190]\n  2030: a0 = u64 [a3 + 0x10]\n  2033: a1 = u64 [a3 + 0x18]\n  2036: a2 = u64 [a3 + 0x8]\n  2039: a3 = u64 [a3]\n  2041: a1 = a1 | a2\n  2044: a0 = a0 | a3\n  2047: a0 = a0 | a1\n  2050: jump @44 if a0 == 0\n      : @43 (gas: 1)\n  2053: jump @268\n      : @44 (gas: 5)\n  2056: a0 = u64 [s1 + 0x198]\n  2060: a0 = i32 [a0]\n  2062: a2 = s1 + 0x7ff\n  2066: a2 = a2 + 0x139\n  2070: jump @46 if a0 >u 3\n      : @45 (gas: 1)\n  2074: jump @268\n      : @46 (gas: 30)\n  2077: a0 = 0x100000000000000\n  2087: u64 [a2 + 0x280] = a0\n  2091: u64 [a2 + 632] = 0\n  2095: u64 [a2 + 624] = 0\n  2099: u64 [a2 + 616] = 0\n  2103: u64 [a2 + 672] = 0\n  2107: u64 [a2 + 664] = 0\n  2111: u64 [a2 + 656] = 0\n  2115: u64 [a2 + 648] = 0\n  2119: u32 [a2 + 680] = 0x20\n  2124: a0 = s1 + 0x1000\n  2128: i32 a1 = a0 + 0xfffffffffffffba0\n  2132: a0 = s1 + 0x1000\n  2136: i32 a3 = a0 + 0xfffffffffffffbc0\n  2140: a0 = s1 + 0x1000\n  2144: i32 a4 = a0 + 0xfffffffffffffbe0\n  2148: a2 = 0xffffffffffffffff\n  2151: a0 = 0\n  2153: ecalli 5 // 'get_storage'\n  2155: a1 = s1 + 0x7ff\n  2159: a1 = a1 + 0x139\n  2163: a0 = u64 [a1 + 0x2a0]\n  2167: u64 [s1 + 0x198] = a0\n  2171: a0 = u64 [a1 + 0x298]\n  2175: u64 [s1 + 0x190] = a0\n  2179: a0 = u64 [a1 + 0x290]\n  2183: u64 [s1 + 0x188] = a0\n  2187: a0 = 0x40\n  2190: a1 = 0x20\n  2193: ra = 30, jump @0\n      : @47 [@dyn 15] (gas: 100)\n  2198: a1 = u8 [a0 + 0x11]\n  2201: a2 = u8 [a0 + 0x10]\n  2204: a3 = u8 [a0 + 0x12]\n  2207: a4 = u8 [a0 + 0x13]\n  2210: a1 = a1 << 0x8\n  2213: a1 = a1 | a2\n  2216: a3 = a3 << 0x10\n  2219: a4 = a4 << 0x18\n  2222: a3 = a3 | a4\n  2225: a1 = a1 | a3\n  2228: a2 = u8 [a0 + 0x15]\n  2231: a3 = u8 [a0 + 0x14]\n  2234: a4 = u8 [a0 + 0x16]\n  2237: a5 = u8 [a0 + 0x17]\n  2240: a2 = a2 << 0x8\n  2243: a2 = a2 | a3\n  2246: a4 = a4 << 0x10\n  2249: a5 = a5 << 0x18\n  2252: a4 = a4 | a5\n  2255: a2 = a2 | a4\n  2258: a2 = a2 << 0x20\n  2261: t0 = a2 | a1\n  2264: a2 = u8 [a0 + 0x1]\n  2267: a3 = u8 [a0]\n  2269: a4 = u8 [a0 + 0x2]\n  2272: a5 = u8 [a0 + 0x3]\n  2275: a2 = a2 << 0x8\n  2278: a2 = a2 | a3\n  2281: a4 = a4 << 0x10\n  2284: a5 = a5 << 0x18\n  2287: a4 = a4 | a5\n  2290: a2 = a2 | a4\n  2293: a3 = u8 [a0 + 0x5]\n  2296: a4 = u8 [a0 + 0x4]\n  2299: a5 = u8 [a0 + 0x6]\n  2302: a1 = u8 [a0 + 0x7]\n  2305: a3 = a3 << 0x8\n  2308: a3 = a3 | a4\n  2311: a5 = a5 << 0x10\n  2314: a1 = a1 << 0x18\n  2317: a1 = a1 | a5\n  2320: a1 = a1 | a3\n  2323: a1 = a1 << 0x20\n  2326: t1 = a1 | a2\n  2329: a1 = u8 [a0 + 0x19]\n  2332: a3 = u8 [a0 + 0x18]\n  2335: a4 = u8 [a0 + 0x1a]\n  2338: a5 = u8 [a0 + 0x1b]\n  2341: a1 = a1 << 0x8\n  2344: a1 = a1 | a3\n  2347: a4 = a4 << 0x10\n  2350: a5 = a5 << 0x18\n  2353: a4 = a4 | a5\n  2356: a1 = a1 | a4\n  2359: a3 = u8 [a0 + 0x1d]\n  2362: a4 = u8 [a0 + 0x1c]\n  2365: a5 = u8 [a0 + 0x1e]\n  2368: a2 = u8 [a0 + 0x1f]\n  2371: a3 = a3 << 0x8\n  2374: a3 = a3 | a4\n  2377: a5 = a5 << 0x10\n  2380: a2 = a2 << 0x18\n  2383: a2 = a2 | a5\n  2386: a2 = a2 | a3\n  2389: a2 = a2 << 0x20\n  2392: a3 = a2 | a1\n  2395: a1 = u8 [a0 + 0x9]\n  2398: a2 = u8 [a0 + 0x8]\n  2401: a4 = u8 [a0 + 0xa]\n  2404: a5 = u8 [a0 + 0xb]\n  2407: a1 = a1 << 0x8\n  2410: a1 = a1 | a2\n  2413: a4 = a4 << 0x10\n  2416: a5 = a5 << 0x18\n  2419: a4 = a4 | a5\n  2422: a1 = a1 | a4\n  2425: a2 = u8 [a0 + 0xd]\n  2428: a4 = u8 [a0 + 0xc]\n  2431: a5 = u8 [a0 + 0xe]\n  2434: a0 = u8 [a0 + 0xf]\n  2437: a2 = a2 << 0x8\n  2440: a2 = a2 | a4\n  2443: a5 = a5 << 0x10\n  2446: a0 = a0 << 0x18\n  2449: a0 = a0 | a5\n  2452: a0 = a0 | a2\n  2455: a0 = a0 << 0x20\n  2458: a0 = a0 | a1\n  2461: a1 = reverse a0\n  2463: a0 = reverse a3\n  2465: a2 = reverse t1\n  2467: a3 = reverse t0\n  2469: a2 = a2 | a3\n  2472: a3 = a0 | a1\n  2475: a3 = a3 | a2\n  2478: a3 = a3 >> 0x20\n  2481: a1 = a1 | a2\n  2484: a1 = a1 << 0x20\n  2487: a1 = a1 | a3\n  2490: jump @49 if a1 == 0\n      : @48 (gas: 1)\n  2493: jump @214\n      : @49 (gas: 4)\n  2496: i32 a0 = a0 + 0\n  2498: u64 [s1 + 0x180] = a0\n  2502: a1 = 0x20\n  2505: ra = 32, jump @0\n      : @50 [@dyn 16] (gas: 60)\n  2510: a3 = u64 [s1 + 0x190]\n  2514: u8 [a0 + 0x10] = a3\n  2517: a2 = u64 [s1 + 0x188]\n  2521: a1 = a2 >> 0x38\n  2524: u8 [a0 + 0xf] = a1\n  2527: a1 = a2 >> 0x30\n  2530: u8 [a0 + 0xe] = a1\n  2533: a1 = a2 >> 0x28\n  2536: u8 [a0 + 0xd] = a1\n  2539: a1 = a2 >> 0x20\n  2542: u8 [a0 + 0xc] = a1\n  2545: u8 [a0 + 11] = 0\n  2548: a1 = 0xffffffff00000000\n  2558: a2 = 0xffffffff0000\n  2568: u8 [a0 + 0xa] = a2\n  2571: a2 = 0xffffffff000000\n  2581: u8 [a0 + 0x9] = a2\n  2584: u8 [a0 + 0x8] = a1\n  2587: u8 [a0 + 7] = 0\n  2590: u8 [a0 + 6] = 0\n  2593: u8 [a0 + 5] = 0\n  2596: u8 [a0 + 4] = 0\n  2599: u8 [a0 + 3] = 0\n  2602: u8 [a0 + 2] = 0\n  2605: u8 [a0 + 1] = 0\n  2608: u8 [a0 + 0] = 0\n  2610: a2 = u64 [s1 + 0x198]\n  2614: u8 [a0 + 0x18] = a2\n  2617: a1 = a3 >> 0x38\n  2620: u8 [a0 + 0x17] = a1\n  2623: a1 = a3 >> 0x30\n  2626: u8 [a0 + 0x16] = a1\n  2629: a1 = a3 >> 0x28\n  2632: u8 [a0 + 0x15] = a1\n  2635: a1 = a3 >> 0x20\n  2638: u8 [a0 + 0x14] = a1\n  2641: a1 = a3 >> 0x18\n  2644: u8 [a0 + 0x13] = a1\n  2647: a1 = a3 >> 0x10\n  2650: u8 [a0 + 0x12] = a1\n  2653: a1 = a3 >> 0x8\n  2656: u8 [a0 + 0x11] = a1\n  2659: a1 = a2 >> 0x38\n  2662: u8 [a0 + 0x1f] = a1\n  2665: a1 = a2 >> 0x30\n  2668: u8 [a0 + 0x1e] = a1\n  2671: a1 = a2 >> 0x28\n  2674: u8 [a0 + 0x1d] = a1\n  2677: a1 = a2 >> 0x20\n  2680: u8 [a0 + 0x1c] = a1\n  2683: a1 = a2 >> 0x18\n  2686: u8 [a0 + 0x1b] = a1\n  2689: a1 = a2 >> 0x10\n  2692: u8 [a0 + 0x1a] = a1\n  2695: a1 = a2 >> 0x8\n  2698: u8 [a0 + 0x19] = a1\n  2701: a1 = 0x20\n  2704: a0 = u64 [s1 + 0x180]\n  2708: ra = 0xc4\n  2712: jump @0\n      : @51 (gas: 1)\n  2715: jump @53 if a0 >s 1762027418\n      : @52 (gas: 1)\n  2722: jump @111\n      : @53 (gas: 1)\n  2725: jump @55 if a0 == 1762027419\n      : @54 (gas: 1)\n  2732: jump @129\n      : @55 (gas: 11)\n  2735: a0 = sp + 0xffffffffffffffe0\n  2738: a0 = a0 & 0xffffffffffffffe0\n  2741: u64 [s1 + 0x190] = a0\n  2745: sp = a0\n  2747: u64 [a0 + 24] = 0\n  2750: u64 [a0 + 16] = 0\n  2753: u64 [a0 + 8] = 0\n  2756: u64 [a0 + 0] = 0\n  2758: i32 a0 = a0 + 0\n  2760: ecalli 11 // 'value_transferred'\n  2762: fallthrough\n      : @56 (gas: 9)\n  2763: a3 = u64 [s1 + 0x190]\n  2767: a0 = u64 [a3 + 0x10]\n  2770: a1 = u64 [a3 + 0x18]\n  2773: a2 = u64 [a3 + 0x8]\n  2776: a3 = u64 [a3]\n  2778: a1 = a1 | a2\n  2781: a0 = a0 | a3\n  2784: a0 = a0 | a1\n  2787: jump @58 if a0 == 0\n      : @57 (gas: 1)\n  2790: jump @268\n      : @58 (gas: 3)\n  2793: a0 = u64 [s1 + 0x198]\n  2797: a0 = i32 [a0]\n  2799: jump @60 if a0 >u 67\n      : @59 (gas: 1)\n  2803: jump @268\n      : @60 (gas: 30)\n  2806: a0 = s1 + 0x1000\n  2810: i32 a0 = a0 + 0xfffffffffffffba0\n  2814: a1 = 0x4\n  2817: ecalli 1 // 'call_data_load'\n  2819: a1 = s1 + 0x7ff\n  2823: a1 = a1 + 0x139\n  2827: a0 = u64 [a1 + 0x280]\n  2831: u64 [s1 + 0x150] = a0\n  2835: a0 = u64 [a1 + 0x278]\n  2839: u64 [s1 + 0x158] = a0\n  2843: a0 = u64 [a1 + 0x270]\n  2847: u64 [s1 + 0x160] = a0\n  2851: a0 = u64 [a1 + 0x268]\n  2855: u64 [s1 + 0x168] = a0\n  2859: a0 = s1 + 0x1000\n  2863: i32 a0 = a0 + 0xfffffffffffffbc0\n  2867: a1 = 0x24\n  2870: ecalli 1 // 'call_data_load'\n  2872: a1 = s1 + 0x7ff\n  2876: a1 = a1 + 0x139\n  2880: a0 = u64 [a1 + 0x2a0]\n  2884: u64 [s1 + 0x170] = a0\n  2888: a0 = u64 [a1 + 0x298]\n  2892: u64 [s1 + 0x178] = a0\n  2896: a0 = u64 [a1 + 0x290]\n  2900: u64 [s1 + 0x180] = a0\n  2904: a0 = u64 [a1 + 0x288]\n  2908: u64 [s1 + 0x188] = a0\n  2912: a0 = s1 + 0x640\n  2916: ra = 34, jump @315\n      : @61 [@dyn 17] (gas: 12)\n  2921: a4 = u64 [s1 + 0x658]\n  2925: a5 = u64 [s1 + 0x650]\n  2929: a2 = u64 [s1 + 0x648]\n  2933: a3 = u64 [s1 + 0x640]\n  2937: a0 = a2 | a4\n  2940: a1 = a3 | a5\n  2943: a1 = a1 | a0\n  2946: a1 = a1 >> 0x20\n  2949: a0 = a0 | a5\n  2952: a0 = a0 << 0x20\n  2955: a0 = a0 | a1\n  2958: jump @63 if a0 == 0\n      : @62 (gas: 1)\n  2961: jump @214\n      : @63 (gas: 8)\n  2964: i32 a0 = a3 + 0\n  2966: a1 = 0x20\n  2969: u64 [s1 + 0x138] = a0\n  2973: u64 [s1 + 0x198] = a2\n  2977: u64 [s1 + 0x190] = a3\n  2981: u64 [s1 + 0x148] = a4\n  2985: u64 [s1 + 0x140] = a5\n  2989: ra = 36, jump @0\n      : @64 [@dyn 18] (gas: 43)\n  2994: a3 = u64 [s1 + 0x190]\n  2998: a2 = u64 [s1 + 0x198]\n  3002: u8 [a0 + 31] = 0\n  3005: u8 [a0 + 30] = 0\n  3008: u8 [a0 + 29] = 0\n  3011: u8 [a0 + 28] = 0\n  3014: u8 [a0 + 27] = 0\n  3017: u8 [a0 + 26] = 0\n  3020: u8 [a0 + 25] = 0\n  3023: u8 [a0 + 24] = 0\n  3026: u8 [a0 + 23] = 0\n  3029: u8 [a0 + 22] = 0\n  3032: u8 [a0 + 21] = 0\n  3035: u8 [a0 + 20] = 0\n  3038: u8 [a0 + 19] = 0\n  3041: u8 [a0 + 18] = 0\n  3044: u8 [a0 + 17] = 0\n  3047: u8 [a0 + 16] = 0\n  3050: u8 [a0 + 15] = 0\n  3053: u8 [a0 + 14] = 0\n  3056: u8 [a0 + 13] = 0\n  3059: u8 [a0 + 12] = 0\n  3062: u8 [a0 + 11] = 0\n  3065: u8 [a0 + 10] = 0\n  3068: u8 [a0 + 9] = 0\n  3071: u8 [a0 + 8] = 0\n  3074: u8 [a0 + 7] = 0\n  3077: u8 [a0 + 6] = 0\n  3080: u8 [a0 + 5] = 0\n  3083: u8 [a0 + 4] = 0\n  3086: u8 [a0 + 3] = 0\n  3089: u8 [a0 + 2] = 0\n  3092: u8 [a0 + 1] = 0\n  3095: a1 = u64 [s1 + 0x148]\n  3099: a4 = u64 [s1 + 0x140]\n  3103: a4 = a4 | a1\n  3106: a5 = 0x100000000\n  3116: a1 = 0xffffffe0\n  3126: a1 = a3 <u a1\n  3129: a1 = 0 if a2 != 0\n  3131: a1 = 0 if a4 != 0\n  3133: u8 [a0 + 0] = 0\n  3135: jump @66 if a1 != 0\n      : @65 (gas: 1)\n  3138: jump @214\n      : @66 (gas: 6)\n  3141: a0 = u64 [s1 + 0x138]\n  3145: i32 a0 = a0 + 0x20\n  3148: a1 = 0x20\n  3151: u64 [s1 + 0x148] = a4\n  3155: u64 [s1 + 0x140] = a5\n  3159: ra = 38, jump @0\n      : @67 [@dyn 19] (gas: 41)\n  3164: u8 [a0 + 31] = 0\n  3167: u8 [a0 + 30] = 0\n  3170: u8 [a0 + 29] = 0\n  3173: u8 [a0 + 28] = 0\n  3176: u8 [a0 + 27] = 0\n  3179: u8 [a0 + 26] = 0\n  3182: u8 [a0 + 25] = 0\n  3185: u8 [a0 + 24] = 0\n  3188: u8 [a0 + 23] = 0\n  3191: u8 [a0 + 22] = 0\n  3194: u8 [a0 + 21] = 0\n  3197: u8 [a0 + 20] = 0\n  3200: u8 [a0 + 19] = 0\n  3203: u8 [a0 + 18] = 0\n  3206: u8 [a0 + 17] = 0\n  3209: u8 [a0 + 16] = 0\n  3212: u8 [a0 + 15] = 0\n  3215: u8 [a0 + 14] = 0\n  3218: u8 [a0 + 13] = 0\n  3221: u8 [a0 + 12] = 0\n  3224: u8 [a0 + 11] = 0\n  3227: u8 [a0 + 10] = 0\n  3230: u8 [a0 + 9] = 0\n  3233: u8 [a0 + 8] = 0\n  3236: u8 [a0 + 7] = 0\n  3239: u8 [a0 + 6] = 0\n  3242: u8 [a0 + 5] = 0\n  3245: u8 [a0 + 4] = 0\n  3248: u8 [a0 + 3] = 0\n  3251: u8 [a0 + 2] = 0\n  3254: u8 [a0 + 1] = 0\n  3257: a1 = u64 [s1 + 0x140]\n  3261: a1 = a1 + 0xffffffffffffffc0\n  3264: a2 = u64 [s1 + 0x190]\n  3268: a1 = a2 <u a1\n  3271: a2 = u64 [s1 + 0x198]\n  3275: a1 = 0 if a2 != 0\n  3277: a2 = u64 [s1 + 0x148]\n  3281: a1 = 0 if a2 != 0\n  3283: u8 [a0 + 0] = 0\n  3285: jump @69 if a1 != 0\n      : @68 (gas: 1)\n  3288: jump @214\n      : @69 (gas: 4)\n  3291: a0 = u64 [s1 + 0x138]\n  3295: i32 a0 = a0 + 0x40\n  3298: a1 = 0x20\n  3301: ra = 40, jump @0\n      : @70 [@dyn 20] (gas: 35)\n  3306: u8 [a0 + 31] = 0\n  3309: u8 [a0 + 30] = 0\n  3312: u8 [a0 + 29] = 0\n  3315: u8 [a0 + 28] = 0\n  3318: u8 [a0 + 27] = 0\n  3321: u8 [a0 + 26] = 0\n  3324: u8 [a0 + 25] = 0\n  3327: u8 [a0 + 24] = 0\n  3330: u8 [a0 + 23] = 0\n  3333: u8 [a0 + 22] = 0\n  3336: u8 [a0 + 21] = 0\n  3339: u8 [a0 + 20] = 0\n  3342: u8 [a0 + 19] = 0\n  3345: u8 [a0 + 18] = 0\n  3348: u8 [a0 + 17] = 0\n  3351: u8 [a0 + 16] = 0\n  3354: u8 [a0 + 15] = 0\n  3357: u8 [a0 + 14] = 0\n  3360: u8 [a0 + 13] = 0\n  3363: u8 [a0 + 12] = 0\n  3366: u8 [a0 + 11] = 0\n  3369: u8 [a0 + 10] = 0\n  3372: u8 [a0 + 9] = 0\n  3375: u8 [a0 + 8] = 0\n  3378: u8 [a0 + 7] = 0\n  3381: u8 [a0 + 6] = 0\n  3384: u8 [a0 + 5] = 0\n  3387: u8 [a0 + 4] = 0\n  3390: u8 [a0 + 3] = 0\n  3393: u8 [a0 + 2] = 0\n  3396: u8 [a0 + 1] = 0\n  3399: u8 [a0 + 0] = 0\n  3401: a1 = 0x20\n  3404: a0 = 0\n  3406: ra = 42, jump @0\n      : @71 [@dyn 21] (gas: 71)\n  3411: a1 = u64 [s1 + 0x150]\n  3415: a1 = reverse a1\n  3417: a2 = u64 [s1 + 0x158]\n  3421: a2 = reverse a2\n  3423: a3 = u64 [s1 + 0x160]\n  3427: a3 = reverse a3\n  3429: a4 = u64 [s1 + 0x168]\n  3433: a4 = reverse a4\n  3435: a5 = a4 >> 0x38\n  3438: u8 [a0 + 0x1f] = a5\n  3441: a5 = a4 >> 0x30\n  3444: u8 [a0 + 0x1e] = a5\n  3447: a5 = a4 >> 0x28\n  3450: u8 [a0 + 0x1d] = a5\n  3453: a5 = a4 >> 0x20\n  3456: u8 [a0 + 0x1c] = a5\n  3459: a5 = a4 >> 0x18\n  3462: u8 [a0 + 0x1b] = a5\n  3465: a5 = a4 >> 0x10\n  3468: u8 [a0 + 0x1a] = a5\n  3471: a5 = a4 >> 0x8\n  3474: u8 [a0 + 0x19] = a5\n  3477: u8 [a0 + 0x18] = a4\n  3480: a4 = a3 >> 0x38\n  3483: u8 [a0 + 0x17] = a4\n  3486: a4 = a3 >> 0x30\n  3489: u8 [a0 + 0x16] = a4\n  3492: a4 = a3 >> 0x28\n  3495: u8 [a0 + 0x15] = a4\n  3498: a4 = a3 >> 0x20\n  3501: u8 [a0 + 0x14] = a4\n  3504: a4 = a3 >> 0x18\n  3507: u8 [a0 + 0x13] = a4\n  3510: a4 = a3 >> 0x10\n  3513: u8 [a0 + 0x12] = a4\n  3516: a4 = a3 >> 0x8\n  3519: u8 [a0 + 0x11] = a4\n  3522: u8 [a0 + 0x10] = a3\n  3525: a3 = a2 >> 0x38\n  3528: u8 [a0 + 0xf] = a3\n  3531: a3 = a2 >> 0x30\n  3534: u8 [a0 + 0xe] = a3\n  3537: a3 = a2 >> 0x28\n  3540: u8 [a0 + 0xd] = a3\n  3543: a3 = a2 >> 0x20\n  3546: u8 [a0 + 0xc] = a3\n  3549: a3 = a2 >> 0x18\n  3552: u8 [a0 + 0xb] = a3\n  3555: a3 = a2 >> 0x10\n  3558: u8 [a0 + 0xa] = a3\n  3561: a3 = a2 >> 0x8\n  3564: u8 [a0 + 0x9] = a3\n  3567: u8 [a0 + 0x8] = a2\n  3570: a2 = a1 >> 0x38\n  3573: u8 [a0 + 0x7] = a2\n  3576: a2 = a1 >> 0x30\n  3579: u8 [a0 + 0x6] = a2\n  3582: a2 = a1 >> 0x28\n  3585: u8 [a0 + 0x5] = a2\n  3588: a2 = a1 >> 0x20\n  3591: u8 [a0 + 0x4] = a2\n  3594: a2 = a1 >> 0x18\n  3597: u8 [a0 + 0x3] = a2\n  3600: a2 = a1 >> 0x10\n  3603: u8 [a0 + 0x2] = a2\n  3606: a2 = a1 >> 0x8\n  3609: u8 [a0 + 0x1] = a2\n  3612: u8 [a0] = a1\n  3614: a0 = 0x20\n  3617: a1 = 0x20\n  3620: ra = 44, jump @0\n      : @72 [@dyn 22] (gas: 35)\n  3625: u8 [a0 + 31] = 0\n  3628: u8 [a0 + 30] = 0\n  3631: u8 [a0 + 29] = 0\n  3634: u8 [a0 + 28] = 0\n  3637: u8 [a0 + 27] = 0\n  3640: u8 [a0 + 26] = 0\n  3643: u8 [a0 + 25] = 0\n  3646: u8 [a0 + 24] = 0\n  3649: u8 [a0 + 23] = 0\n  3652: u8 [a0 + 22] = 0\n  3655: u8 [a0 + 21] = 0\n  3658: u8 [a0 + 20] = 0\n  3661: u8 [a0 + 19] = 0\n  3664: u8 [a0 + 18] = 0\n  3667: u8 [a0 + 17] = 0\n  3670: u8 [a0 + 16] = 0\n  3673: u8 [a0 + 15] = 0\n  3676: u8 [a0 + 14] = 0\n  3679: u8 [a0 + 13] = 0\n  3682: u8 [a0 + 12] = 0\n  3685: u8 [a0 + 11] = 0\n  3688: u8 [a0 + 10] = 0\n  3691: u8 [a0 + 9] = 0\n  3694: u8 [a0 + 8] = 0\n  3697: u8 [a0 + 7] = 0\n  3700: u8 [a0 + 6] = 0\n  3703: u8 [a0 + 5] = 0\n  3706: u8 [a0 + 4] = 0\n  3709: u8 [a0 + 3] = 0\n  3712: u8 [a0 + 2] = 0\n  3715: u8 [a0 + 1] = 0\n  3718: u8 [a0 + 0] = 0\n  3720: a1 = 0x40\n  3723: a0 = 0\n  3725: ra = 46, jump @0\n      : @73 [@dyn 23] (gas: 33)\n  3730: a1 = sp + 0xffffffffffffffe0\n  3733: a1 = a1 & 0xffffffffffffffe0\n  3736: u64 [s1 + 0x198] = a1\n  3740: sp = a1\n  3742: i32 a0 = a0 + 0\n  3744: i32 a2 = a1 + 0\n  3746: a1 = 0x40\n  3749: ecalli 6 // 'hash_keccak_256'\n  3751: a3 = u64 [s1 + 0x198]\n  3755: a0 = u64 [a3 + 0x18]\n  3758: a1 = u64 [a3 + 0x10]\n  3761: a2 = u64 [a3 + 0x8]\n  3764: a3 = u64 [a3]\n  3766: a4 = reverse a0\n  3768: a0 = reverse a1\n  3770: a1 = reverse a2\n  3772: a2 = reverse a3\n  3774: a3 = u64 [s1 + 0x170]\n  3778: u64 [s1 + 0x5d8] = a3\n  3782: a3 = u64 [s1 + 0x178]\n  3786: u64 [s1 + 0x5d0] = a3\n  3790: a3 = u64 [s1 + 0x180]\n  3794: u64 [s1 + 0x5c8] = a3\n  3798: a3 = u64 [s1 + 0x188]\n  3802: u64 [s1 + 0x5c0] = a3\n  3806: u64 [s1 + 0x5f8] = a2\n  3810: u64 [s1 + 0x5f0] = a1\n  3814: u64 [s1 + 0x5e8] = a0\n  3818: a0 = s1 + 0x600\n  3822: a1 = s1 + 0x5e0\n  3826: a2 = s1 + 0x5c0\n  3830: u64 [s1 + 0x5e0] = a4\n  3834: ra = 48, jump @292\n      : @74 [@dyn 24] (gas: 10)\n  3839: a0 = u64 [s1 + 0x600]\n  3843: u64 [s1 + 0x170] = a0\n  3847: a0 = u64 [s1 + 0x608]\n  3851: u64 [s1 + 0x178] = a0\n  3855: a0 = u64 [s1 + 0x610]\n  3859: u64 [s1 + 0x188] = a0\n  3863: a0 = u64 [s1 + 0x618]\n  3867: u64 [s1 + 0x180] = a0\n  3871: a0 = s1 + 0x5a0\n  3875: ra = 50, jump @315\n      : @75 [@dyn 25] (gas: 19)\n  3880: a0 = u64 [s1 + 0x5b8]\n  3884: u64 [s1 + 0x168] = a0\n  3888: a0 = u64 [s1 + 0x5b0]\n  3892: u64 [s1 + 0x160] = a0\n  3896: a0 = u64 [s1 + 0x5a8]\n  3900: u64 [s1 + 0x190] = a0\n  3904: a0 = u64 [s1 + 0x5a0]\n  3908: u64 [s1 + 0x198] = a0\n  3912: a0 = u64 [s1 + 0x180]\n  3916: u64 [s1 + 0x578] = a0\n  3920: a0 = u64 [s1 + 0x188]\n  3924: u64 [s1 + 0x570] = a0\n  3928: a0 = u64 [s1 + 0x178]\n  3932: u64 [s1 + 0x568] = a0\n  3936: a0 = s1 + 0x580\n  3940: a1 = s1 + 0x560\n  3944: a2 = u64 [s1 + 0x170]\n  3948: u64 [s1 + 0x560] = a2\n  3952: ra = 52, jump @10\n      : @76 [@dyn 26] (gas: 12)\n  3957: a0 = u64 [s1 + 0x168]\n  3961: a1 = u64 [s1 + 0x190]\n  3965: a0 = a0 | a1\n  3968: a2 = u64 [s1 + 0x160]\n  3972: a1 = u64 [s1 + 0x198]\n  3976: a1 = a1 | a2\n  3979: a1 = a1 | a0\n  3982: a1 = a1 >> 0x20\n  3985: a0 = a0 | a2\n  3988: a0 = a0 << 0x20\n  3991: a0 = a0 | a1\n  3994: jump @78 if a0 == 0\n      : @77 (gas: 1)\n  3997: jump @214\n      : @78 (gas: 12)\n  4000: a0 = u64 [s1 + 0x598]\n  4004: u64 [s1 + 0x140] = a0\n  4008: a0 = u64 [s1 + 0x590]\n  4012: u64 [s1 + 0x148] = a0\n  4016: a0 = u64 [s1 + 0x588]\n  4020: u64 [s1 + 0x150] = a0\n  4024: a0 = u64 [s1 + 0x580]\n  4028: u64 [s1 + 0x158] = a0\n  4032: a0 = i32 [s1 + 0x198]\n  4036: a1 = 0x20\n  4039: u64 [s1 + 0x138] = a0\n  4043: ra = 54, jump @0\n      : @79 [@dyn 27] (gas: 119)\n  4048: a1 = u64 [s1 + 0x140]\n  4052: a2 = reverse a1\n  4054: a1 = u64 [s1 + 0x148]\n  4058: a4 = reverse a1\n  4060: a1 = u64 [s1 + 0x150]\n  4064: a5 = reverse a1\n  4066: a1 = u64 [s1 + 0x158]\n  4070: a3 = reverse a1\n  4072: a1 = a3 >> 0x38\n  4075: u64 [s1 + 0x158] = a1\n  4079: u8 [a0 + 0x1f] = a1\n  4082: a1 = a3 >> 0x30\n  4085: u64 [s1 + 0x150] = a1\n  4089: u8 [a0 + 0x1e] = a1\n  4092: a1 = a3 >> 0x28\n  4095: u64 [s1 + 0x148] = a1\n  4099: u8 [a0 + 0x1d] = a1\n  4102: a1 = a3 >> 0x20\n  4105: u64 [s1 + 0x140] = a1\n  4109: u8 [a0 + 0x1c] = a1\n  4112: a1 = a3 >> 0x18\n  4115: u64 [s1 + 0x130] = a1\n  4119: u8 [a0 + 0x1b] = a1\n  4122: a1 = a3 >> 0x10\n  4125: u64 [s1 + 0x120] = a1\n  4129: u8 [a0 + 0x1a] = a1\n  4132: a1 = a3 >> 0x8\n  4135: u64 [s1 + 0x118] = a1\n  4139: u8 [a0 + 0x19] = a1\n  4142: u64 [s1 + 0x110] = a3\n  4146: u8 [a0 + 0x18] = a3\n  4149: u8 [a0 + 0x10] = a5\n  4152: a1 = a5 >> 0x38\n  4155: u64 [s1 + 0xf8] = a1\n  4159: u8 [a0 + 0x17] = a1\n  4162: a1 = a5 >> 0x30\n  4165: u64 [s1 + 0xf0] = a1\n  4169: u8 [a0 + 0x16] = a1\n  4172: a1 = a5 >> 0x28\n  4175: u64 [s1 + 0xe8] = a1\n  4179: u8 [a0 + 0x15] = a1\n  4182: a1 = a5 >> 0x20\n  4185: u64 [s1 + 0xe0] = a1\n  4189: u8 [a0 + 0x14] = a1\n  4192: a1 = a5 >> 0x18\n  4195: u64 [s1 + 0xd8] = a1\n  4199: u8 [a0 + 0x13] = a1\n  4202: a1 = a5 >> 0x10\n  4205: u64 [s1 + 0xd0] = a1\n  4209: u8 [a0 + 0x12] = a1\n  4212: u64 [s1 + 0x100] = a5\n  4216: a5 = a5 >> 0x8\n  4219: u64 [s1 + 0xc8] = a5\n  4223: u8 [a0 + 0x11] = a5\n  4226: u8 [a0 + 0x8] = a4\n  4229: a1 = a4 >> 0x38\n  4232: u64 [s1 + 0xc0] = a1\n  4236: u8 [a0 + 0xf] = a1\n  4239: a1 = a4 >> 0x30\n  4242: u64 [s1 + 0xb8] = a1\n  4246: u8 [a0 + 0xe] = a1\n  4249: a1 = a4 >> 0x28\n  4252: u64 [s1 + 0xb0] = a1\n  4256: u8 [a0 + 0xd] = a1\n  4259: a1 = a4 >> 0x20\n  4262: u64 [s1 + 0xa8] = a1\n  4266: u8 [a0 + 0xc] = a1\n  4269: a1 = a4 >> 0x18\n  4272: u64 [s1 + 0xa0] = a1\n  4276: u8 [a0 + 0xb] = a1\n  4279: a1 = a4 >> 0x10\n  4282: u64 [s1 + 0x98] = a1\n  4286: u8 [a0 + 0xa] = a1\n  4289: u64 [s1 + 0x108] = a4\n  4293: a4 = a4 >> 0x8\n  4296: u64 [s1 + 0x90] = a4\n  4300: u8 [a0 + 0x9] = a4\n  4303: u8 [a0] = a2\n  4305: a1 = a2 >> 0x38\n  4308: u64 [s1 + 0x88] = a1\n  4312: u8 [a0 + 0x7] = a1\n  4315: a1 = a2 >> 0x30\n  4318: u64 [s1 + 0x80] = a1\n  4322: u8 [a0 + 0x6] = a1\n  4325: a1 = a2 >> 0x28\n  4328: u64 [s1 + 0x78] = a1\n  4331: u8 [a0 + 0x5] = a1\n  4334: a1 = a2 >> 0x20\n  4337: u64 [s1 + 0x70] = a1\n  4340: u8 [a0 + 0x4] = a1\n  4343: a1 = a2 >> 0x18\n  4346: u64 [s1 + 0x68] = a1\n  4349: u8 [a0 + 0x3] = a1\n  4352: a1 = a2 >> 0x10\n  4355: u64 [s1 + 0x60] = a1\n  4358: u8 [a0 + 0x2] = a1\n  4361: u64 [s1 + 0x128] = a2\n  4365: a2 = a2 >> 0x8\n  4368: u64 [s1 + 0x58] = a2\n  4371: u8 [a0 + 0x1] = a2\n  4374: a0 = u64 [s1 + 0x170]\n  4378: a0 = a0 + 0x1\n  4381: a1 = a0 <u 0x1\n  4384: a2 = u64 [s1 + 0x178]\n  4388: a1 = a1 + a2\n  4391: a2 = a0 | a1\n  4394: a2 = a2 <u 0x1\n  4397: a3 = u64 [s1 + 0x188]\n  4401: a2 = a2 + a3\n  4404: a3 = a2 <u a3\n  4407: a4 = u64 [s1 + 0x180]\n  4411: a3 = a3 + a4\n  4414: u64 [s1 + 0x530] = a2\n  4418: u64 [s1 + 0x528] = a1\n  4422: u64 [s1 + 0x520] = a0\n  4426: a0 = s1 + 0x540\n  4430: a1 = s1 + 0x520\n  4434: u64 [s1 + 0x538] = a3\n  4438: ra = 56, jump @10\n      : @80 [@dyn 28] (gas: 11)\n  4443: a0 = u64 [s1 + 0x168]\n  4447: a1 = u64 [s1 + 0x160]\n  4451: a2 = a1 | a0\n  4454: a3 = 0x100000000\n  4464: a0 = 0xffffffe0\n  4474: a1 = u64 [s1 + 0x198]\n  4478: a0 = a1 <u a0\n  4481: a1 = u64 [s1 + 0x190]\n  4485: a0 = 0 if a1 != 0\n  4487: a0 = 0 if a2 != 0\n  4489: jump @82 if a0 != 0\n      : @81 (gas: 1)\n  4492: jump @214\n      : @82 (gas: 15)\n  4495: a0 = u64 [s1 + 0x550]\n  4499: a1 = u64 [s1 + 0x548]\n  4503: u64 [s1 + 0x48] = a1\n  4506: a1 = u64 [s1 + 0x540]\n  4510: u64 [s1 + 0x50] = a1\n  4513: a0 = a0 << 0x20\n  4516: a0 = a0 >> 0x20\n  4519: u64 [s1 + 0x40] = a0\n  4522: a0 = u64 [s1 + 0x138]\n  4526: i32 a0 = a0 + 0x20\n  4529: a1 = 0x20\n  4532: u64 [s1 + 0x38] = a0\n  4535: u64 [s1 + 0x168] = a2\n  4539: u64 [s1 + 0x160] = a3\n  4543: ra = 58, jump @0\n      : @83 [@dyn 29] (gas: 75)\n  4548: a1 = u64 [s1 + 0x40]\n  4551: a1 = reverse a1\n  4553: a2 = u64 [s1 + 0x48]\n  4556: a2 = reverse a2\n  4558: a3 = u64 [s1 + 0x50]\n  4561: a3 = reverse a3\n  4563: a4 = a3 >> 0x38\n  4566: u8 [a0 + 0x1f] = a4\n  4569: a4 = a3 >> 0x30\n  4572: u8 [a0 + 0x1e] = a4\n  4575: a4 = a3 >> 0x28\n  4578: u8 [a0 + 0x1d] = a4\n  4581: a4 = a3 >> 0x20\n  4584: u8 [a0 + 0x1c] = a4\n  4587: a4 = a3 >> 0x18\n  4590: u8 [a0 + 0x1b] = a4\n  4593: a4 = a3 >> 0x10\n  4596: u8 [a0 + 0x1a] = a4\n  4599: a4 = a3 >> 0x8\n  4602: u8 [a0 + 0x19] = a4\n  4605: u8 [a0 + 0x18] = a3\n  4608: u8 [a0 + 0x10] = a2\n  4611: u8 [a0 + 11] = 0\n  4614: u8 [a0 + 10] = 0\n  4617: u8 [a0 + 9] = 0\n  4620: u8 [a0 + 7] = 0\n  4623: u8 [a0 + 6] = 0\n  4626: u8 [a0 + 5] = 0\n  4629: u8 [a0 + 4] = 0\n  4632: u8 [a0 + 3] = 0\n  4635: u8 [a0 + 2] = 0\n  4638: u8 [a0 + 1] = 0\n  4641: u8 [a0 + 0] = 0\n  4643: a3 = a2 >> 0x38\n  4646: u8 [a0 + 0x17] = a3\n  4649: a3 = a2 >> 0x30\n  4652: u8 [a0 + 0x16] = a3\n  4655: a3 = a2 >> 0x28\n  4658: u8 [a0 + 0x15] = a3\n  4661: a3 = a2 >> 0x20\n  4664: u8 [a0 + 0x14] = a3\n  4667: a3 = a2 >> 0x18\n  4670: u8 [a0 + 0x13] = a3\n  4673: a3 = a2 >> 0x10\n  4676: u8 [a0 + 0x12] = a3\n  4679: a2 = a2 >> 0x8\n  4682: u8 [a0 + 0x11] = a2\n  4685: u8 [a0 + 0x8] = a1\n  4688: a2 = a1 >> 0x38\n  4691: u8 [a0 + 0xf] = a2\n  4694: a2 = a1 >> 0x30\n  4697: u8 [a0 + 0xe] = a2\n  4700: a2 = a1 >> 0x28\n  4703: u8 [a0 + 0xd] = a2\n  4706: a1 = a1 >> 0x20\n  4709: u8 [a0 + 0xc] = a1\n  4712: a0 = u64 [s1 + 0x170]\n  4716: a2 = a0 + 0x2\n  4719: a0 = a2 <u a0\n  4722: a3 = u64 [s1 + 0x178]\n  4726: a1 = a3 + a0\n  4729: a3 = a1 <u a3\n  4732: a3 = a0 if a0 == 0\n  4735: a0 = u64 [s1 + 0x188]\n  4739: a3 = a3 + a0\n  4742: a0 = a3 <u a0\n  4745: a4 = u64 [s1 + 0x180]\n  4749: a0 = a0 + a4\n  4752: u64 [s1 + 0x4f8] = a0\n  4756: u64 [s1 + 0x4f0] = a3\n  4760: u64 [s1 + 0x4e8] = a1\n  4764: a0 = s1 + 0x500\n  4768: a1 = s1 + 0x4e0\n  4772: u64 [s1 + 0x4e0] = a2\n  4776: ra = 60, jump @10\n      : @84 [@dyn 30] (gas: 9)\n  4781: a0 = u64 [s1 + 0x160]\n  4785: a0 = a0 + 0xffffffffffffffc0\n  4788: a1 = u64 [s1 + 0x198]\n  4792: a0 = a1 <u a0\n  4795: a1 = u64 [s1 + 0x190]\n  4799: a0 = 0 if a1 != 0\n  4801: a1 = u64 [s1 + 0x168]\n  4805: a0 = 0 if a1 != 0\n  4807: jump @86 if a0 != 0\n      : @85 (gas: 1)\n  4810: jump @214\n      : @86 (gas: 13)\n  4813: a0 = u64 [s1 + 0x518]\n  4817: u64 [s1 + 0x180] = a0\n  4821: a0 = u64 [s1 + 0x510]\n  4825: u64 [s1 + 0x188] = a0\n  4829: a0 = u64 [s1 + 0x508]\n  4833: u64 [s1 + 0x190] = a0\n  4837: a0 = u64 [s1 + 0x500]\n  4841: u64 [s1 + 0x198] = a0\n  4845: a0 = u64 [s1 + 0x138]\n  4849: i32 a0 = a0 + 0x40\n  4852: a1 = 0x20\n  4855: u64 [s1 + 0x178] = a0\n  4859: ra = 62, jump @0\n      : @87 [@dyn 31] (gas: 71)\n  4864: a1 = u64 [s1 + 0x180]\n  4868: a1 = reverse a1\n  4870: a2 = u64 [s1 + 0x188]\n  4874: a2 = reverse a2\n  4876: a3 = u64 [s1 + 0x190]\n  4880: a3 = reverse a3\n  4882: a4 = u64 [s1 + 0x198]\n  4886: a4 = reverse a4\n  4888: a5 = a4 >> 0x38\n  4891: u8 [a0 + 0x1f] = a5\n  4894: a5 = a4 >> 0x30\n  4897: u8 [a0 + 0x1e] = a5\n  4900: a5 = a4 >> 0x28\n  4903: u8 [a0 + 0x1d] = a5\n  4906: a5 = a4 >> 0x20\n  4909: u8 [a0 + 0x1c] = a5\n  4912: a5 = a4 >> 0x18\n  4915: u8 [a0 + 0x1b] = a5\n  4918: a5 = a4 >> 0x10\n  4921: u8 [a0 + 0x1a] = a5\n  4924: a5 = a4 >> 0x8\n  4927: u8 [a0 + 0x19] = a5\n  4930: u8 [a0 + 0x18] = a4\n  4933: u8 [a0 + 0x10] = a3\n  4936: a4 = a3 >> 0x38\n  4939: u8 [a0 + 0x17] = a4\n  4942: a4 = a3 >> 0x30\n  4945: u8 [a0 + 0x16] = a4\n  4948: a4 = a3 >> 0x28\n  4951: u8 [a0 + 0x15] = a4\n  4954: a4 = a3 >> 0x20\n  4957: u8 [a0 + 0x14] = a4\n  4960: a4 = a3 >> 0x18\n  4963: u8 [a0 + 0x13] = a4\n  4966: a4 = a3 >> 0x10\n  4969: u8 [a0 + 0x12] = a4\n  4972: a3 = a3 >> 0x8\n  4975: u8 [a0 + 0x11] = a3\n  4978: u8 [a0 + 0x8] = a2\n  4981: a3 = a2 >> 0x38\n  4984: u8 [a0 + 0xf] = a3\n  4987: a3 = a2 >> 0x30\n  4990: u8 [a0 + 0xe] = a3\n  4993: a3 = a2 >> 0x28\n  4996: u8 [a0 + 0xd] = a3\n  4999: a3 = a2 >> 0x20\n  5002: u8 [a0 + 0xc] = a3\n  5005: a3 = a2 >> 0x18\n  5008: u8 [a0 + 0xb] = a3\n  5011: a3 = a2 >> 0x10\n  5014: u8 [a0 + 0xa] = a3\n  5017: a2 = a2 >> 0x8\n  5020: u8 [a0 + 0x9] = a2\n  5023: u8 [a0] = a1\n  5025: a2 = a1 >> 0x38\n  5028: u8 [a0 + 0x7] = a2\n  5031: a2 = a1 >> 0x30\n  5034: u8 [a0 + 0x6] = a2\n  5037: a2 = a1 >> 0x28\n  5040: u8 [a0 + 0x5] = a2\n  5043: a2 = a1 >> 0x20\n  5046: u8 [a0 + 0x4] = a2\n  5049: a2 = a1 >> 0x18\n  5052: u8 [a0 + 0x3] = a2\n  5055: a2 = a1 >> 0x10\n  5058: u8 [a0 + 0x2] = a2\n  5061: a1 = a1 >> 0x8\n  5064: u8 [a0 + 0x1] = a1\n  5067: a0 = 0x40\n  5070: a1 = 0x20\n  5073: ra = 64, jump @0\n      : @88 [@dyn 32] (gas: 100)\n  5078: a1 = u8 [a0 + 0x11]\n  5081: a2 = u8 [a0 + 0x10]\n  5084: a3 = u8 [a0 + 0x12]\n  5087: a4 = u8 [a0 + 0x13]\n  5090: a1 = a1 << 0x8\n  5093: a1 = a1 | a2\n  5096: a3 = a3 << 0x10\n  5099: a4 = a4 << 0x18\n  5102: a3 = a3 | a4\n  5105: a1 = a1 | a3\n  5108: a2 = u8 [a0 + 0x15]\n  5111: a3 = u8 [a0 + 0x14]\n  5114: a4 = u8 [a0 + 0x16]\n  5117: a5 = u8 [a0 + 0x17]\n  5120: a2 = a2 << 0x8\n  5123: a2 = a2 | a3\n  5126: a4 = a4 << 0x10\n  5129: a5 = a5 << 0x18\n  5132: a4 = a4 | a5\n  5135: a2 = a2 | a4\n  5138: a2 = a2 << 0x20\n  5141: t0 = a2 | a1\n  5144: a2 = u8 [a0 + 0x1]\n  5147: a3 = u8 [a0]\n  5149: a4 = u8 [a0 + 0x2]\n  5152: a5 = u8 [a0 + 0x3]\n  5155: a2 = a2 << 0x8\n  5158: a2 = a2 | a3\n  5161: a4 = a4 << 0x10\n  5164: a5 = a5 << 0x18\n  5167: a4 = a4 | a5\n  5170: a2 = a2 | a4\n  5173: a3 = u8 [a0 + 0x5]\n  5176: a4 = u8 [a0 + 0x4]\n  5179: a5 = u8 [a0 + 0x6]\n  5182: a1 = u8 [a0 + 0x7]\n  5185: a3 = a3 << 0x8\n  5188: a3 = a3 | a4\n  5191: a5 = a5 << 0x10\n  5194: a1 = a1 << 0x18\n  5197: a1 = a1 | a5\n  5200: a1 = a1 | a3\n  5203: a1 = a1 << 0x20\n  5206: t1 = a1 | a2\n  5209: a1 = u8 [a0 + 0x19]\n  5212: a3 = u8 [a0 + 0x18]\n  5215: a4 = u8 [a0 + 0x1a]\n  5218: a5 = u8 [a0 + 0x1b]\n  5221: a1 = a1 << 0x8\n  5224: a1 = a1 | a3\n  5227: a4 = a4 << 0x10\n  5230: a5 = a5 << 0x18\n  5233: a4 = a4 | a5\n  5236: a1 = a1 | a4\n  5239: a3 = u8 [a0 + 0x1d]\n  5242: a4 = u8 [a0 + 0x1c]\n  5245: a5 = u8 [a0 + 0x1e]\n  5248: a2 = u8 [a0 + 0x1f]\n  5251: a3 = a3 << 0x8\n  5254: a3 = a3 | a4\n  5257: a5 = a5 << 0x10\n  5260: a2 = a2 << 0x18\n  5263: a2 = a2 | a5\n  5266: a2 = a2 | a3\n  5269: a2 = a2 << 0x20\n  5272: a3 = a2 | a1\n  5275: a1 = u8 [a0 + 0x9]\n  5278: a2 = u8 [a0 + 0x8]\n  5281: a4 = u8 [a0 + 0xa]\n  5284: a5 = u8 [a0 + 0xb]\n  5287: a1 = a1 << 0x8\n  5290: a1 = a1 | a2\n  5293: a4 = a4 << 0x10\n  5296: a5 = a5 << 0x18\n  5299: a4 = a4 | a5\n  5302: a1 = a1 | a4\n  5305: a2 = u8 [a0 + 0xd]\n  5308: a4 = u8 [a0 + 0xc]\n  5311: a5 = u8 [a0 + 0xe]\n  5314: a0 = u8 [a0 + 0xf]\n  5317: a2 = a2 << 0x8\n  5320: a2 = a2 | a4\n  5323: a5 = a5 << 0x10\n  5326: a0 = a0 << 0x18\n  5329: a0 = a0 | a5\n  5332: a0 = a0 | a2\n  5335: a0 = a0 << 0x20\n  5338: a0 = a0 | a1\n  5341: a4 = reverse a0\n  5343: a2 = reverse a3\n  5345: a5 = reverse t1\n  5347: a3 = reverse t0\n  5349: a0 = a3 | a5\n  5352: a1 = a2 | a4\n  5355: a1 = a1 | a0\n  5358: a1 = a1 >> 0x20\n  5361: a0 = a0 | a4\n  5364: a0 = a0 << 0x20\n  5367: a0 = a0 | a1\n  5370: jump @90 if a0 == 0\n      : @89 (gas: 1)\n  5373: jump @214\n      : @90 (gas: 8)\n  5376: i32 a0 = a2 + 0\n  5378: a1 = 0x20\n  5381: u64 [s1 + 0x170] = a0\n  5385: u64 [s1 + 0x198] = a2\n  5389: u64 [s1 + 0x190] = a3\n  5393: u64 [s1 + 0x188] = a4\n  5397: u64 [s1 + 0x180] = a5\n  5401: ra = 66, jump @0\n      : @91 [@dyn 33] (gas: 67)\n  5406: a1 = u64 [s1 + 0x100]\n  5410: u8 [a0 + 0x10] = a1\n  5413: a1 = u64 [s1 + 0xc0]\n  5417: u8 [a0 + 0xf] = a1\n  5420: a1 = u64 [s1 + 0xb8]\n  5424: u8 [a0 + 0xe] = a1\n  5427: a1 = u64 [s1 + 0xb0]\n  5431: u8 [a0 + 0xd] = a1\n  5434: a1 = u64 [s1 + 0xa8]\n  5438: u8 [a0 + 0xc] = a1\n  5441: a1 = u64 [s1 + 0xa0]\n  5445: u8 [a0 + 0xb] = a1\n  5448: a1 = u64 [s1 + 0x98]\n  5452: u8 [a0 + 0xa] = a1\n  5455: a1 = u64 [s1 + 0x90]\n  5459: u8 [a0 + 0x9] = a1\n  5462: a1 = u64 [s1 + 0x108]\n  5466: u8 [a0 + 0x8] = a1\n  5469: a1 = u64 [s1 + 0x88]\n  5473: u8 [a0 + 0x7] = a1\n  5476: a1 = u64 [s1 + 0x80]\n  5480: u8 [a0 + 0x6] = a1\n  5483: a1 = u64 [s1 + 0x78]\n  5486: u8 [a0 + 0x5] = a1\n  5489: a1 = u64 [s1 + 0x70]\n  5492: u8 [a0 + 0x4] = a1\n  5495: a1 = u64 [s1 + 0x68]\n  5498: u8 [a0 + 0x3] = a1\n  5501: a1 = u64 [s1 + 0x60]\n  5504: u8 [a0 + 0x2] = a1\n  5507: a1 = u64 [s1 + 0x58]\n  5510: u8 [a0 + 0x1] = a1\n  5513: a1 = u64 [s1 + 0x128]\n  5517: u8 [a0] = a1\n  5519: a1 = u64 [s1 + 0x110]\n  5523: u8 [a0 + 0x18] = a1\n  5526: a1 = u64 [s1 + 0xf8]\n  5530: u8 [a0 + 0x17] = a1\n  5533: a1 = u64 [s1 + 0xf0]\n  5537: u8 [a0 + 0x16] = a1\n  5540: a1 = u64 [s1 + 0xe8]\n  5544: u8 [a0 + 0x15] = a1\n  5547: a1 = u64 [s1 + 0xe0]\n  5551: u8 [a0 + 0x14] = a1\n  5554: a1 = u64 [s1 + 0xd8]\n  5558: u8 [a0 + 0x13] = a1\n  5561: a1 = u64 [s1 + 0xd0]\n  5565: u8 [a0 + 0x12] = a1\n  5568: a1 = u64 [s1 + 0xc8]\n  5572: u8 [a0 + 0x11] = a1\n  5575: a1 = u64 [s1 + 0x158]\n  5579: u8 [a0 + 0x1f] = a1\n  5582: a1 = u64 [s1 + 0x150]\n  5586: u8 [a0 + 0x1e] = a1\n  5589: a1 = u64 [s1 + 0x148]\n  5593: u8 [a0 + 0x1d] = a1\n  5596: a1 = u64 [s1 + 0x140]\n  5600: u8 [a0 + 0x1c] = a1\n  5603: a1 = u64 [s1 + 0x130]\n  5607: u8 [a0 + 0x1b] = a1\n  5610: a1 = u64 [s1 + 0x120]\n  5614: u8 [a0 + 0x1a] = a1\n  5617: a1 = u64 [s1 + 0x118]\n  5621: u8 [a0 + 0x19] = a1\n  5624: a1 = 0x20\n  5627: a0 = u64 [s1 + 0x38]\n  5630: ra = 68, jump @0\n      : @92 [@dyn 34] (gas: 11)\n  5635: a3 = u64 [s1 + 0x190]\n  5639: a2 = u64 [s1 + 0x198]\n  5643: a1 = u64 [s1 + 0x188]\n  5647: a4 = u64 [s1 + 0x180]\n  5651: a4 = a4 | a1\n  5654: a5 = 0x100000000\n  5664: a1 = 0xffffffe0\n  5674: a1 = a2 <u a1\n  5677: a1 = 0 if a3 != 0\n  5679: a1 = 0 if a4 != 0\n  5681: jump @94 if a1 != 0\n      : @93 (gas: 1)\n  5684: jump @214\n      : @94 (gas: 46)\n  5687: a1 = u8 [a0 + 0xc]\n  5690: u64 [s1 + 0x180] = a1\n  5694: a1 = u8 [a0 + 0xd]\n  5697: u64 [s1 + 0x160] = a1\n  5701: a1 = u8 [a0 + 0xe]\n  5704: u64 [s1 + 0x158] = a1\n  5708: a1 = u8 [a0 + 0xf]\n  5711: u64 [s1 + 0x150] = a1\n  5715: a1 = u8 [a0 + 0x10]\n  5718: u64 [s1 + 0x148] = a1\n  5722: a1 = u8 [a0 + 0x11]\n  5725: u64 [s1 + 0x140] = a1\n  5729: a1 = u8 [a0 + 0x12]\n  5732: u64 [s1 + 0x138] = a1\n  5736: a1 = u8 [a0 + 0x13]\n  5739: u64 [s1 + 0x130] = a1\n  5743: a1 = u8 [a0 + 0x14]\n  5746: u64 [s1 + 0x128] = a1\n  5750: a1 = u8 [a0 + 0x15]\n  5753: u64 [s1 + 0x120] = a1\n  5757: a1 = u8 [a0 + 0x16]\n  5760: u64 [s1 + 0x118] = a1\n  5764: a1 = u8 [a0 + 0x17]\n  5767: u64 [s1 + 0x110] = a1\n  5771: a1 = u8 [a0 + 0x18]\n  5774: u64 [s1 + 0x108] = a1\n  5778: a1 = u8 [a0 + 0x19]\n  5781: u64 [s1 + 0x100] = a1\n  5785: a1 = u8 [a0 + 0x1a]\n  5788: u64 [s1 + 0xf8] = a1\n  5792: a1 = u8 [a0 + 0x1b]\n  5795: u64 [s1 + 0xf0] = a1\n  5799: a1 = u8 [a0 + 0x1c]\n  5802: u64 [s1 + 0xe8] = a1\n  5806: a1 = u8 [a0 + 0x1d]\n  5809: u64 [s1 + 0xe0] = a1\n  5813: a1 = u8 [a0 + 0x1e]\n  5816: u64 [s1 + 0xd8] = a1\n  5820: a0 = u8 [a0 + 0x1f]\n  5823: u64 [s1 + 0xd0] = a0\n  5827: a0 = u64 [s1 + 0x170]\n  5831: i32 a0 = a0 + 0x20\n  5834: a1 = 0x20\n  5837: u64 [s1 + 0x188] = a4\n  5841: u64 [s1 + 0x168] = a5\n  5845: ra = 70, jump @0\n      : @95 [@dyn 35] (gas: 58)\n  5850: a1 = u64 [s1 + 0xd0]\n  5854: u8 [a0 + 0x1f] = a1\n  5857: a1 = u64 [s1 + 0xd8]\n  5861: u8 [a0 + 0x1e] = a1\n  5864: a1 = u64 [s1 + 0xe0]\n  5868: u8 [a0 + 0x1d] = a1\n  5871: a1 = u64 [s1 + 0xe8]\n  5875: u8 [a0 + 0x1c] = a1\n  5878: a1 = u64 [s1 + 0xf0]\n  5882: u8 [a0 + 0x1b] = a1\n  5885: a1 = u64 [s1 + 0xf8]\n  5889: u8 [a0 + 0x1a] = a1\n  5892: a1 = u64 [s1 + 0x100]\n  5896: u8 [a0 + 0x19] = a1\n  5899: a1 = u64 [s1 + 0x108]\n  5903: u8 [a0 + 0x18] = a1\n  5906: a1 = u64 [s1 + 0x110]\n  5910: u8 [a0 + 0x17] = a1\n  5913: a1 = u64 [s1 + 0x118]\n  5917: u8 [a0 + 0x16] = a1\n  5920: a1 = u64 [s1 + 0x120]\n  5924: u8 [a0 + 0x15] = a1\n  5927: a1 = u64 [s1 + 0x128]\n  5931: u8 [a0 + 0x14] = a1\n  5934: a1 = u64 [s1 + 0x130]\n  5938: u8 [a0 + 0x13] = a1\n  5941: a1 = u64 [s1 + 0x138]\n  5945: u8 [a0 + 0x12] = a1\n  5948: a1 = u64 [s1 + 0x140]\n  5952: u8 [a0 + 0x11] = a1\n  5955: a1 = u64 [s1 + 0x148]\n  5959: u8 [a0 + 0x10] = a1\n  5962: a1 = u64 [s1 + 0x150]\n  5966: u8 [a0 + 0xf] = a1\n  5969: a1 = u64 [s1 + 0x158]\n  5973: u8 [a0 + 0xe] = a1\n  5976: a1 = u64 [s1 + 0x160]\n  5980: u8 [a0 + 0xd] = a1\n  5983: a1 = u64 [s1 + 0x180]\n  5987: u8 [a0 + 0xc] = a1\n  5990: a1 = 0xffffffff00000000\n  6000: a2 = 0xffffffff0000\n  6010: u8 [a0 + 0xa] = a2\n  6013: a2 = 0xffffffff000000\n  6023: u8 [a0 + 0x9] = a2\n  6026: u8 [a0 + 0x8] = a1\n  6029: u8 [a0 + 11] = 0\n  6032: u8 [a0 + 7] = 0\n  6035: u8 [a0 + 6] = 0\n  6038: u8 [a0 + 5] = 0\n  6041: u8 [a0 + 4] = 0\n  6044: u8 [a0 + 3] = 0\n  6047: u8 [a0 + 2] = 0\n  6050: u8 [a0 + 1] = 0\n  6053: u8 [a0 + 0] = 0\n  6055: a1 = 0x20\n  6058: a0 = u64 [s1 + 0x178]\n  6062: ra = 72, jump @0\n      : @96 [@dyn 36] (gas: 9)\n  6067: a1 = u64 [s1 + 0x168]\n  6071: a1 = a1 + 0xffffffffffffffc0\n  6074: a2 = u64 [s1 + 0x198]\n  6078: a1 = a2 <u a1\n  6081: a2 = u64 [s1 + 0x190]\n  6085: a1 = 0 if a2 != 0\n  6087: a2 = u64 [s1 + 0x188]\n  6091: a1 = 0 if a2 != 0\n  6093: jump @98 if a1 != 0\n      : @97 (gas: 1)\n  6096: jump @214\n      : @98 (gas: 68)\n  6099: a1 = u8 [a0]\n  6101: u64 [s1 + 0x198] = a1\n  6105: a1 = u8 [a0 + 0x1]\n  6108: u64 [s1 + 0x190] = a1\n  6112: a1 = u8 [a0 + 0x2]\n  6115: u64 [s1 + 0x188] = a1\n  6119: a1 = u8 [a0 + 0x3]\n  6122: u64 [s1 + 0x180] = a1\n  6126: a1 = u8 [a0 + 0x4]\n  6129: u64 [s1 + 0x178] = a1\n  6133: a1 = u8 [a0 + 0x5]\n  6136: u64 [s1 + 0x168] = a1\n  6140: a1 = u8 [a0 + 0x6]\n  6143: u64 [s1 + 0x160] = a1\n  6147: a1 = u8 [a0 + 0x7]\n  6150: u64 [s1 + 0x158] = a1\n  6154: a1 = u8 [a0 + 0x8]\n  6157: u64 [s1 + 0x150] = a1\n  6161: a1 = u8 [a0 + 0x9]\n  6164: u64 [s1 + 0x148] = a1\n  6168: a1 = u8 [a0 + 0xa]\n  6171: u64 [s1 + 0x140] = a1\n  6175: a1 = u8 [a0 + 0xb]\n  6178: u64 [s1 + 0x138] = a1\n  6182: a1 = u8 [a0 + 0xc]\n  6185: u64 [s1 + 0x130] = a1\n  6189: a1 = u8 [a0 + 0xd]\n  6192: u64 [s1 + 0x128] = a1\n  6196: a1 = u8 [a0 + 0xe]\n  6199: u64 [s1 + 0x120] = a1\n  6203: a1 = u8 [a0 + 0xf]\n  6206: u64 [s1 + 0x118] = a1\n  6210: a1 = u8 [a0 + 0x10]\n  6213: u64 [s1 + 0x110] = a1\n  6217: a1 = u8 [a0 + 0x11]\n  6220: u64 [s1 + 0x108] = a1\n  6224: a1 = u8 [a0 + 0x12]\n  6227: u64 [s1 + 0x100] = a1\n  6231: a1 = u8 [a0 + 0x13]\n  6234: u64 [s1 + 0xf8] = a1\n  6238: a1 = u8 [a0 + 0x14]\n  6241: u64 [s1 + 0xf0] = a1\n  6245: a1 = u8 [a0 + 0x15]\n  6248: u64 [s1 + 0xe8] = a1\n  6252: a1 = u8 [a0 + 0x16]\n  6255: u64 [s1 + 0xe0] = a1\n  6259: a1 = u8 [a0 + 0x17]\n  6262: u64 [s1 + 0xd8] = a1\n  6266: a1 = u8 [a0 + 0x18]\n  6269: u64 [s1 + 0xd0] = a1\n  6273: a1 = u8 [a0 + 0x19]\n  6276: u64 [s1 + 0xc8] = a1\n  6280: a1 = u8 [a0 + 0x1a]\n  6283: u64 [s1 + 0xc0] = a1\n  6287: a1 = u8 [a0 + 0x1b]\n  6290: u64 [s1 + 0xb8] = a1\n  6294: a1 = u8 [a0 + 0x1c]\n  6297: u64 [s1 + 0xb0] = a1\n  6301: a1 = u8 [a0 + 0x1d]\n  6304: u64 [s1 + 0xa8] = a1\n  6308: a1 = u8 [a0 + 0x1e]\n  6311: u64 [s1 + 0xa0] = a1\n  6315: a0 = u8 [a0 + 0x1f]\n  6318: u64 [s1 + 0x98] = a0\n  6322: a0 = u64 [s1 + 0x170]\n  6326: i32 a0 = a0 + 0x40\n  6329: a1 = 0x20\n  6332: ra = 74, jump @0\n      : @99 [@dyn 37] (gas: 68)\n  6337: a1 = u64 [s1 + 0x98]\n  6341: u8 [a0 + 0x1f] = a1\n  6344: a1 = u64 [s1 + 0xa0]\n  6348: u8 [a0 + 0x1e] = a1\n  6351: a1 = u64 [s1 + 0xa8]\n  6355: u8 [a0 + 0x1d] = a1\n  6358: a1 = u64 [s1 + 0xb0]\n  6362: u8 [a0 + 0x1c] = a1\n  6365: a1 = u64 [s1 + 0xb8]\n  6369: u8 [a0 + 0x1b] = a1\n  6372: a1 = u64 [s1 + 0xc0]\n  6376: u8 [a0 + 0x1a] = a1\n  6379: a1 = u64 [s1 + 0xc8]\n  6383: u8 [a0 + 0x19] = a1\n  6386: a1 = u64 [s1 + 0xd0]\n  6390: u8 [a0 + 0x18] = a1\n  6393: a1 = u64 [s1 + 0xd8]\n  6397: u8 [a0 + 0x17] = a1\n  6400: a1 = u64 [s1 + 0xe0]\n  6404: u8 [a0 + 0x16] = a1\n  6407: a1 = u64 [s1 + 0xe8]\n  6411: u8 [a0 + 0x15] = a1\n  6414: a1 = u64 [s1 + 0xf0]\n  6418: u8 [a0 + 0x14] = a1\n  6421: a1 = u64 [s1 + 0xf8]\n  6425: u8 [a0 + 0x13] = a1\n  6428: a1 = u64 [s1 + 0x100]\n  6432: u8 [a0 + 0x12] = a1\n  6435: a1 = u64 [s1 + 0x108]\n  6439: u8 [a0 + 0x11] = a1\n  6442: a1 = u64 [s1 + 0x110]\n  6446: u8 [a0 + 0x10] = a1\n  6449: a1 = u64 [s1 + 0x118]\n  6453: u8 [a0 + 0xf] = a1\n  6456: a1 = u64 [s1 + 0x120]\n  6460: u8 [a0 + 0xe] = a1\n  6463: a1 = u64 [s1 + 0x128]\n  6467: u8 [a0 + 0xd] = a1\n  6470: a1 = u64 [s1 + 0x130]\n  6474: u8 [a0 + 0xc] = a1\n  6477: a1 = u64 [s1 + 0x138]\n  6481: u8 [a0 + 0xb] = a1\n  6484: a1 = u64 [s1 + 0x140]\n  6488: u8 [a0 + 0xa] = a1\n  6491: a1 = u64 [s1 + 0x148]\n  6495: u8 [a0 + 0x9] = a1\n  6498: a1 = u64 [s1 + 0x150]\n  6502: u8 [a0 + 0x8] = a1\n  6505: a1 = u64 [s1 + 0x158]\n  6509: u8 [a0 + 0x7] = a1\n  6512: a1 = u64 [s1 + 0x160]\n  6516: u8 [a0 + 0x6] = a1\n  6519: a1 = u64 [s1 + 0x168]\n  6523: u8 [a0 + 0x5] = a1\n  6526: a1 = u64 [s1 + 0x178]\n  6530: u8 [a0 + 0x4] = a1\n  6533: a1 = u64 [s1 + 0x180]\n  6537: u8 [a0 + 0x3] = a1\n  6540: a1 = u64 [s1 + 0x188]\n  6544: u8 [a0 + 0x2] = a1\n  6547: a1 = u64 [s1 + 0x190]\n  6551: u8 [a0 + 0x1] = a1\n  6554: a1 = u64 [s1 + 0x198]\n  6558: u8 [a0] = a1\n  6560: a1 = 0x60\n  6563: a0 = u64 [s1 + 0x170]\n  6567: ra = 0x8e\n  6571: jump @0\n      : @100 (gas: 1)\n  6574: jump @102 if a0 == 2947057678\n      : @101 (gas: 1)\n  6581: jump @184\n      : @102 (gas: 11)\n  6584: a0 = sp + 0xffffffffffffffe0\n  6587: a0 = a0 & 0xffffffffffffffe0\n  6590: u64 [s1 + 0x190] = a0\n  6594: sp = a0\n  6596: u64 [a0 + 24] = 0\n  6599: u64 [a0 + 16] = 0\n  6602: u64 [a0 + 8] = 0\n  6605: u64 [a0 + 0] = 0\n  6607: i32 a0 = a0 + 0\n  6609: ecalli 11 // 'value_transferred'\n  6611: fallthrough\n      : @103 (gas: 9)\n  6612: a3 = u64 [s1 + 0x190]\n  6616: a0 = u64 [a3 + 0x10]\n  6619: a1 = u64 [a3 + 0x18]\n  6622: a2 = u64 [a3 + 0x8]\n  6625: a3 = u64 [a3]\n  6627: a1 = a1 | a2\n  6630: a0 = a0 | a3\n  6633: a0 = a0 | a1\n  6636: jump @105 if a0 == 0\n      : @104 (gas: 1)\n  6639: jump @268\n      : @105 (gas: 3)\n  6642: a0 = u64 [s1 + 0x198]\n  6646: a0 = i32 [a0]\n  6648: jump @107 if a0 >u 35\n      : @106 (gas: 1)\n  6652: jump @268\n      : @107 (gas: 17)\n  6655: a0 = s1 + 0x1000\n  6659: i32 a0 = a0 + 0xfffffffffffffb80\n  6663: a1 = 0x4\n  6666: ecalli 1 // 'call_data_load'\n  6668: a0 = s1 + 0x7ff\n  6672: a0 = a0 + 0x139\n  6676: a1 = u64 [a0 + 0x248]\n  6680: u64 [s1 + 0x198] = a1\n  6684: a1 = u64 [a0 + 0x250]\n  6688: u64 [s1 + 0x190] = a1\n  6692: a1 = u64 [a0 + 0x258]\n  6696: u64 [s1 + 0x188] = a1\n  6700: a0 = u64 [a0 + 0x260]\n  6704: u64 [s1 + 0x180] = a0\n  6708: a1 = 0x20\n  6711: a0 = 0\n  6713: ra = 76, jump @0\n      : @108 [@dyn 38] (gas: 71)\n  6718: a1 = u64 [s1 + 0x180]\n  6722: a1 = reverse a1\n  6724: a2 = u64 [s1 + 0x188]\n  6728: a2 = reverse a2\n  6730: a3 = u64 [s1 + 0x190]\n  6734: a3 = reverse a3\n  6736: a4 = u64 [s1 + 0x198]\n  6740: a4 = reverse a4\n  6742: a5 = a4 >> 0x38\n  6745: u8 [a0 + 0x1f] = a5\n  6748: a5 = a4 >> 0x30\n  6751: u8 [a0 + 0x1e] = a5\n  6754: a5 = a4 >> 0x28\n  6757: u8 [a0 + 0x1d] = a5\n  6760: a5 = a4 >> 0x20\n  6763: u8 [a0 + 0x1c] = a5\n  6766: a5 = a4 >> 0x18\n  6769: u8 [a0 + 0x1b] = a5\n  6772: a5 = a4 >> 0x10\n  6775: u8 [a0 + 0x1a] = a5\n  6778: a5 = a4 >> 0x8\n  6781: u8 [a0 + 0x19] = a5\n  6784: u8 [a0 + 0x18] = a4\n  6787: a4 = a3 >> 0x38\n  6790: u8 [a0 + 0x17] = a4\n  6793: a4 = a3 >> 0x30\n  6796: u8 [a0 + 0x16] = a4\n  6799: a4 = a3 >> 0x28\n  6802: u8 [a0 + 0x15] = a4\n  6805: a4 = a3 >> 0x20\n  6808: u8 [a0 + 0x14] = a4\n  6811: a4 = a3 >> 0x18\n  6814: u8 [a0 + 0x13] = a4\n  6817: a4 = a3 >> 0x10\n  6820: u8 [a0 + 0x12] = a4\n  6823: a4 = a3 >> 0x8\n  6826: u8 [a0 + 0x11] = a4\n  6829: u8 [a0 + 0x10] = a3\n  6832: a3 = a2 >> 0x38\n  6835: u8 [a0 + 0xf] = a3\n  6838: a3 = a2 >> 0x30\n  6841: u8 [a0 + 0xe] = a3\n  6844: a3 = a2 >> 0x28\n  6847: u8 [a0 + 0xd] = a3\n  6850: a3 = a2 >> 0x20\n  6853: u8 [a0 + 0xc] = a3\n  6856: a3 = a2 >> 0x18\n  6859: u8 [a0 + 0xb] = a3\n  6862: a3 = a2 >> 0x10\n  6865: u8 [a0 + 0xa] = a3\n  6868: a3 = a2 >> 0x8\n  6871: u8 [a0 + 0x9] = a3\n  6874: u8 [a0 + 0x8] = a2\n  6877: a2 = a1 >> 0x38\n  6880: u8 [a0 + 0x7] = a2\n  6883: a2 = a1 >> 0x30\n  6886: u8 [a0 + 0x6] = a2\n  6889: a2 = a1 >> 0x28\n  6892: u8 [a0 + 0x5] = a2\n  6895: a2 = a1 >> 0x20\n  6898: u8 [a0 + 0x4] = a2\n  6901: a2 = a1 >> 0x18\n  6904: u8 [a0 + 0x3] = a2\n  6907: a2 = a1 >> 0x10\n  6910: u8 [a0 + 0x2] = a2\n  6913: a2 = a1 >> 0x8\n  6916: u8 [a0 + 0x1] = a2\n  6919: u8 [a0] = a1\n  6921: a0 = 0x20\n  6924: a1 = 0x20\n  6927: ra = 78, jump @0\n      : @109 [@dyn 39] (gas: 35)\n  6932: u8 [a0 + 31] = 0\n  6935: u8 [a0 + 30] = 0\n  6938: u8 [a0 + 29] = 0\n  6941: u8 [a0 + 28] = 0\n  6944: u8 [a0 + 27] = 0\n  6947: u8 [a0 + 26] = 0\n  6950: u8 [a0 + 25] = 0\n  6953: u8 [a0 + 24] = 0\n  6956: u8 [a0 + 23] = 0\n  6959: u8 [a0 + 22] = 0\n  6962: u8 [a0 + 21] = 0\n  6965: u8 [a0 + 20] = 0\n  6968: u8 [a0 + 19] = 0\n  6971: u8 [a0 + 18] = 0\n  6974: u8 [a0 + 17] = 0\n  6977: u8 [a0 + 16] = 0\n  6980: u8 [a0 + 15] = 0\n  6983: u8 [a0 + 14] = 0\n  6986: u8 [a0 + 13] = 0\n  6989: u8 [a0 + 12] = 0\n  6992: u8 [a0 + 11] = 0\n  6995: u8 [a0 + 10] = 0\n  6998: u8 [a0 + 9] = 0\n  7001: u8 [a0 + 8] = 0\n  7004: u8 [a0 + 7] = 0\n  7007: u8 [a0 + 6] = 0\n  7010: u8 [a0 + 5] = 0\n  7013: u8 [a0 + 4] = 0\n  7016: u8 [a0 + 3] = 0\n  7019: u8 [a0 + 2] = 0\n  7022: u8 [a0 + 1] = 0\n  7025: u8 [a0 + 0] = 0\n  7027: a1 = 0x40\n  7030: a0 = 0\n  7032: ra = 80, jump @0\n      : @110 [@dyn 40] (gas: 20)\n  7037: a1 = sp + 0xffffffffffffffe0\n  7040: a1 = a1 & 0xffffffffffffffe0\n  7043: u64 [s1 + 0x198] = a1\n  7047: sp = a1\n  7049: i32 a0 = a0 + 0\n  7051: i32 a2 = a1 + 0\n  7053: a1 = 0x40\n  7056: ecalli 6 // 'hash_keccak_256'\n  7058: a3 = u64 [s1 + 0x198]\n  7062: a0 = u64 [a3 + 0x18]\n  7065: a1 = u64 [a3 + 0x10]\n  7068: a2 = u64 [a3 + 0x8]\n  7071: a3 = u64 [a3]\n  7073: a4 = s1 + 0x7ff\n  7077: a4 = a4 + 0x139\n  7081: u64 [a4 + 0x280] = a0\n  7085: u64 [a4 + 0x278] = a1\n  7089: u64 [a4 + 0x270] = a2\n  7093: u64 [a4 + 0x268] = a3\n  7097: jump @212\n      : @111 (gas: 1)\n  7100: jump @113 if a0 == 1670811161\n      : @112 (gas: 1)\n  7107: jump @247\n      : @113 (gas: 11)\n  7110: a0 = sp + 0xffffffffffffffe0\n  7113: a0 = a0 & 0xffffffffffffffe0\n  7116: u64 [s1 + 0x190] = a0\n  7120: sp = a0\n  7122: u64 [a0 + 24] = 0\n  7125: u64 [a0 + 16] = 0\n  7128: u64 [a0 + 8] = 0\n  7131: u64 [a0 + 0] = 0\n  7133: i32 a0 = a0 + 0\n  7135: ecalli 11 // 'value_transferred'\n  7137: fallthrough\n      : @114 (gas: 9)\n  7138: a3 = u64 [s1 + 0x190]\n  7142: a0 = u64 [a3 + 0x10]\n  7145: a1 = u64 [a3 + 0x18]\n  7148: a2 = u64 [a3 + 0x8]\n  7151: a3 = u64 [a3]\n  7153: a1 = a1 | a2\n  7156: a0 = a0 | a3\n  7159: a0 = a0 | a1\n  7162: jump @116 if a0 == 0\n      : @115 (gas: 1)\n  7165: jump @268\n      : @116 (gas: 3)\n  7168: a0 = u64 [s1 + 0x198]\n  7172: a0 = i32 [a0]\n  7174: jump @118 if a0 >u 35\n      : @117 (gas: 1)\n  7178: jump @268\n      : @118 (gas: 5)\n  7181: a0 = s1 + 0x1000\n  7185: i32 a0 = a0 + 0xfffffffffffffa80\n  7189: a1 = 0x4\n  7192: ecalli 1 // 'call_data_load'\n  7194: fallthrough\n      : @119 (gas: 14)\n  7195: a2 = s1 + 0x7ff\n  7199: a2 = a2 + 0x139\n  7203: a1 = u64 [a2 + 0x158]\n  7207: a3 = u64 [a2 + 0x160]\n  7211: a0 = 0x100000000\n  7221: a0 = a0 ^ a1\n  7224: a0 = a0 | a3\n  7227: u64 [s1 + 0x198] = a1\n  7231: a1 = a1 >> 0x20\n  7234: a1 = a1 <u 0x1\n  7237: u64 [s1 + 0x190] = a3\n  7241: a1 = 0 if a3 != 0\n  7243: a1 = 0 if a0 == 0\n  7245: jump @121 if a1 != 0\n      : @120 (gas: 1)\n  7248: jump @261\n      : @121 (gas: 7)\n  7251: a0 = u64 [a2 + 0x150]\n  7255: u64 [s1 + 0x180] = a0\n  7259: a0 = u64 [a2 + 0x148]\n  7263: u64 [s1 + 0x188] = a0\n  7267: a1 = 0x20\n  7270: a0 = 0\n  7272: ra = 82, jump @0\n      : @122 [@dyn 41] (gas: 71)\n  7277: a1 = u64 [s1 + 0x190]\n  7281: a1 = reverse a1\n  7283: a2 = u64 [s1 + 0x198]\n  7287: a2 = reverse a2\n  7289: a3 = u64 [s1 + 0x180]\n  7293: a3 = reverse a3\n  7295: a4 = u64 [s1 + 0x188]\n  7299: a4 = reverse a4\n  7301: u8 [a0 + 0x18] = a4\n  7304: a5 = a4 >> 0x38\n  7307: u8 [a0 + 0x1f] = a5\n  7310: a5 = a4 >> 0x30\n  7313: u8 [a0 + 0x1e] = a5\n  7316: a5 = a4 >> 0x28\n  7319: u8 [a0 + 0x1d] = a5\n  7322: a5 = a4 >> 0x20\n  7325: u8 [a0 + 0x1c] = a5\n  7328: a5 = a4 >> 0x18\n  7331: u8 [a0 + 0x1b] = a5\n  7334: a5 = a4 >> 0x10\n  7337: u8 [a0 + 0x1a] = a5\n  7340: a4 = a4 >> 0x8\n  7343: u8 [a0 + 0x19] = a4\n  7346: u8 [a0 + 0x10] = a3\n  7349: a4 = a3 >> 0x38\n  7352: u8 [a0 + 0x17] = a4\n  7355: a4 = a3 >> 0x30\n  7358: u8 [a0 + 0x16] = a4\n  7361: a4 = a3 >> 0x28\n  7364: u8 [a0 + 0x15] = a4\n  7367: a4 = a3 >> 0x20\n  7370: u8 [a0 + 0x14] = a4\n  7373: a4 = a3 >> 0x18\n  7376: u8 [a0 + 0x13] = a4\n  7379: a4 = a3 >> 0x10\n  7382: u8 [a0 + 0x12] = a4\n  7385: a3 = a3 >> 0x8\n  7388: u8 [a0 + 0x11] = a3\n  7391: u8 [a0 + 0x8] = a2\n  7394: a3 = a2 >> 0x38\n  7397: u8 [a0 + 0xf] = a3\n  7400: a3 = a2 >> 0x30\n  7403: u8 [a0 + 0xe] = a3\n  7406: a3 = a2 >> 0x28\n  7409: u8 [a0 + 0xd] = a3\n  7412: a3 = a2 >> 0x20\n  7415: u8 [a0 + 0xc] = a3\n  7418: a3 = a2 >> 0x18\n  7421: u8 [a0 + 0xb] = a3\n  7424: a3 = a2 >> 0x10\n  7427: u8 [a0 + 0xa] = a3\n  7430: a2 = a2 >> 0x8\n  7433: u8 [a0 + 0x9] = a2\n  7436: u8 [a0] = a1\n  7438: a2 = a1 >> 0x38\n  7441: u8 [a0 + 0x7] = a2\n  7444: a2 = a1 >> 0x30\n  7447: u8 [a0 + 0x6] = a2\n  7450: a2 = a1 >> 0x28\n  7453: u8 [a0 + 0x5] = a2\n  7456: a2 = a1 >> 0x20\n  7459: u8 [a0 + 0x4] = a2\n  7462: a2 = a1 >> 0x18\n  7465: u8 [a0 + 0x3] = a2\n  7468: a2 = a1 >> 0x10\n  7471: u8 [a0 + 0x2] = a2\n  7474: a1 = a1 >> 0x8\n  7477: u8 [a0 + 0x1] = a1\n  7480: a0 = 0x20\n  7483: a1 = 0x20\n  7486: ra = 84, jump @0\n      : @123 [@dyn 42] (gas: 35)\n  7491: u8 [a0 + 31] = 0x2\n  7495: u8 [a0 + 30] = 0\n  7498: u8 [a0 + 29] = 0\n  7501: u8 [a0 + 28] = 0\n  7504: u8 [a0 + 27] = 0\n  7507: u8 [a0 + 26] = 0\n  7510: u8 [a0 + 25] = 0\n  7513: u8 [a0 + 24] = 0\n  7516: u8 [a0 + 23] = 0\n  7519: u8 [a0 + 22] = 0\n  7522: u8 [a0 + 21] = 0\n  7525: u8 [a0 + 20] = 0\n  7528: u8 [a0 + 19] = 0\n  7531: u8 [a0 + 18] = 0\n  7534: u8 [a0 + 17] = 0\n  7537: u8 [a0 + 16] = 0\n  7540: u8 [a0 + 15] = 0\n  7543: u8 [a0 + 14] = 0\n  7546: u8 [a0 + 13] = 0\n  7549: u8 [a0 + 12] = 0\n  7552: u8 [a0 + 11] = 0\n  7555: u8 [a0 + 10] = 0\n  7558: u8 [a0 + 9] = 0\n  7561: u8 [a0 + 8] = 0\n  7564: u8 [a0 + 7] = 0\n  7567: u8 [a0 + 6] = 0\n  7570: u8 [a0 + 5] = 0\n  7573: u8 [a0 + 4] = 0\n  7576: u8 [a0 + 3] = 0\n  7579: u8 [a0 + 2] = 0\n  7582: u8 [a0 + 1] = 0\n  7585: u8 [a0 + 0] = 0\n  7587: a1 = 0x40\n  7590: a0 = 0\n  7592: ra = 86, jump @0\n      : @124 [@dyn 43] (gas: 42)\n  7597: a1 = sp + 0xffffffffffffffe0\n  7600: a1 = a1 & 0xffffffffffffffe0\n  7603: u64 [s1 + 0x198] = a1\n  7607: sp = a1\n  7609: i32 a0 = a0 + 0\n  7611: i32 a2 = a1 + 0\n  7613: a1 = 0x40\n  7616: ecalli 6 // 'hash_keccak_256'\n  7618: a3 = u64 [s1 + 0x198]\n  7622: a0 = u64 [a3 + 0x18]\n  7625: a1 = u64 [a3 + 0x10]\n  7628: a2 = u64 [a3 + 0x8]\n  7631: a3 = u64 [a3]\n  7633: a4 = s1 + 0x7ff\n  7637: a4 = a4 + 0x139\n  7641: u64 [a4 + 0x280] = a0\n  7645: u64 [a4 + 0x278] = a1\n  7649: u64 [a4 + 0x270] = a2\n  7653: u64 [a4 + 0x268] = a3\n  7657: u64 [a4 + 672] = 0\n  7661: u64 [a4 + 664] = 0\n  7665: u64 [a4 + 656] = 0\n  7669: u64 [a4 + 648] = 0\n  7673: u32 [a4 + 680] = 0x20\n  7678: a0 = s1 + 0x1000\n  7682: i32 a1 = a0 + 0xfffffffffffffba0\n  7686: a0 = s1 + 0x1000\n  7690: i32 a3 = a0 + 0xfffffffffffffbc0\n  7694: a0 = s1 + 0x1000\n  7698: i32 a4 = a0 + 0xfffffffffffffbe0\n  7702: a2 = 0xffffffffffffffff\n  7705: a0 = 0\n  7707: ecalli 5 // 'get_storage'\n  7709: a1 = s1 + 0x7ff\n  7713: a1 = a1 + 0x139\n  7717: a0 = u64 [a1 + 0x2a0]\n  7721: u64 [s1 + 0x198] = a0\n  7725: a0 = u64 [a1 + 0x298]\n  7729: u64 [s1 + 0x190] = a0\n  7733: a0 = 0x40\n  7736: a1 = 0x20\n  7739: ra = 88, jump @0\n      : @125 [@dyn 44] (gas: 100)\n  7744: a1 = u8 [a0 + 0x11]\n  7747: a2 = u8 [a0 + 0x10]\n  7750: a3 = u8 [a0 + 0x12]\n  7753: a4 = u8 [a0 + 0x13]\n  7756: a1 = a1 << 0x8\n  7759: a1 = a1 | a2\n  7762: a3 = a3 << 0x10\n  7765: a4 = a4 << 0x18\n  7768: a3 = a3 | a4\n  7771: a1 = a1 | a3\n  7774: a2 = u8 [a0 + 0x15]\n  7777: a3 = u8 [a0 + 0x14]\n  7780: a4 = u8 [a0 + 0x16]\n  7783: a5 = u8 [a0 + 0x17]\n  7786: a2 = a2 << 0x8\n  7789: a2 = a2 | a3\n  7792: a4 = a4 << 0x10\n  7795: a5 = a5 << 0x18\n  7798: a4 = a4 | a5\n  7801: a2 = a2 | a4\n  7804: a2 = a2 << 0x20\n  7807: t0 = a2 | a1\n  7810: a2 = u8 [a0 + 0x1]\n  7813: a3 = u8 [a0]\n  7815: a4 = u8 [a0 + 0x2]\n  7818: a5 = u8 [a0 + 0x3]\n  7821: a2 = a2 << 0x8\n  7824: a2 = a2 | a3\n  7827: a4 = a4 << 0x10\n  7830: a5 = a5 << 0x18\n  7833: a4 = a4 | a5\n  7836: a2 = a2 | a4\n  7839: a3 = u8 [a0 + 0x5]\n  7842: a4 = u8 [a0 + 0x4]\n  7845: a5 = u8 [a0 + 0x6]\n  7848: a1 = u8 [a0 + 0x7]\n  7851: a3 = a3 << 0x8\n  7854: a3 = a3 | a4\n  7857: a5 = a5 << 0x10\n  7860: a1 = a1 << 0x18\n  7863: a1 = a1 | a5\n  7866: a1 = a1 | a3\n  7869: a1 = a1 << 0x20\n  7872: t1 = a1 | a2\n  7875: a1 = u8 [a0 + 0x19]\n  7878: a3 = u8 [a0 + 0x18]\n  7881: a4 = u8 [a0 + 0x1a]\n  7884: a5 = u8 [a0 + 0x1b]\n  7887: a1 = a1 << 0x8\n  7890: a1 = a1 | a3\n  7893: a4 = a4 << 0x10\n  7896: a5 = a5 << 0x18\n  7899: a4 = a4 | a5\n  7902: a1 = a1 | a4\n  7905: a3 = u8 [a0 + 0x1d]\n  7908: a4 = u8 [a0 + 0x1c]\n  7911: a5 = u8 [a0 + 0x1e]\n  7914: a2 = u8 [a0 + 0x1f]\n  7917: a3 = a3 << 0x8\n  7920: a3 = a3 | a4\n  7923: a5 = a5 << 0x10\n  7926: a2 = a2 << 0x18\n  7929: a2 = a2 | a5\n  7932: a2 = a2 | a3\n  7935: a2 = a2 << 0x20\n  7938: a3 = a2 | a1\n  7941: a1 = u8 [a0 + 0x9]\n  7944: a2 = u8 [a0 + 0x8]\n  7947: a4 = u8 [a0 + 0xa]\n  7950: a5 = u8 [a0 + 0xb]\n  7953: a1 = a1 << 0x8\n  7956: a1 = a1 | a2\n  7959: a4 = a4 << 0x10\n  7962: a5 = a5 << 0x18\n  7965: a4 = a4 | a5\n  7968: a1 = a1 | a4\n  7971: a2 = u8 [a0 + 0xd]\n  7974: a4 = u8 [a0 + 0xc]\n  7977: a5 = u8 [a0 + 0xe]\n  7980: a0 = u8 [a0 + 0xf]\n  7983: a2 = a2 << 0x8\n  7986: a2 = a2 | a4\n  7989: a5 = a5 << 0x10\n  7992: a0 = a0 << 0x18\n  7995: a0 = a0 | a5\n  7998: a0 = a0 | a2\n  8001: a0 = a0 << 0x20\n  8004: a0 = a0 | a1\n  8007: a1 = reverse a0\n  8009: a0 = reverse a3\n  8011: a2 = reverse t1\n  8013: a3 = reverse t0\n  8015: a2 = a2 | a3\n  8018: a3 = a0 | a1\n  8021: a3 = a3 | a2\n  8024: a3 = a3 >> 0x20\n  8027: a1 = a1 | a2\n  8030: a1 = a1 << 0x20\n  8033: a1 = a1 | a3\n  8036: jump @127 if a1 == 0\n      : @126 (gas: 1)\n  8039: jump @214\n      : @127 (gas: 4)\n  8042: i32 a0 = a0 + 0\n  8044: u64 [s1 + 0x188] = a0\n  8048: a1 = 0x20\n  8051: ra = 90, jump @0\n      : @128 [@dyn 45] (gas: 44)\n  8056: a1 = 0xffffffffffffff\n  8066: a3 = u64 [s1 + 0x198]\n  8070: a1 = a1 ^ a3\n  8073: a2 = u64 [s1 + 0x190]\n  8077: a2 = a1 | ~a2\n  8080: a1 = a3 >> 0x38\n  8083: a1 = a1 >u 0\n  8085: a1 = 0 if a2 == 0\n  8087: u8 [a0 + 30] = 0\n  8090: u8 [a0 + 29] = 0\n  8093: u8 [a0 + 28] = 0\n  8096: u8 [a0 + 27] = 0\n  8099: u8 [a0 + 26] = 0\n  8102: u8 [a0 + 25] = 0\n  8105: u8 [a0 + 24] = 0\n  8108: u8 [a0 + 23] = 0\n  8111: u8 [a0 + 22] = 0\n  8114: u8 [a0 + 21] = 0\n  8117: u8 [a0 + 20] = 0\n  8120: u8 [a0 + 19] = 0\n  8123: u8 [a0 + 18] = 0\n  8126: u8 [a0 + 17] = 0\n  8129: u8 [a0 + 16] = 0\n  8132: u8 [a0 + 15] = 0\n  8135: u8 [a0 + 14] = 0\n  8138: u8 [a0 + 13] = 0\n  8141: u8 [a0 + 12] = 0\n  8144: u8 [a0 + 11] = 0\n  8147: u8 [a0 + 10] = 0\n  8150: u8 [a0 + 9] = 0\n  8153: u8 [a0 + 8] = 0\n  8156: u8 [a0 + 7] = 0\n  8159: u8 [a0 + 6] = 0\n  8162: u8 [a0 + 5] = 0\n  8165: u8 [a0 + 4] = 0\n  8168: u8 [a0 + 3] = 0\n  8171: u8 [a0 + 2] = 0\n  8174: u8 [a0 + 1] = 0\n  8177: u8 [a0 + 0] = 0\n  8179: u8 [a0 + 0x1f] = a1\n  8182: a1 = 0x20\n  8185: a0 = u64 [s1 + 0x188]\n  8189: ra = 0xc4\n  8193: jump @0\n      : @129 (gas: 1)\n  8196: jump @131 if a0 == 2087806282\n      : @130 (gas: 1)\n  8203: jump @268\n      : @131 (gas: 11)\n  8206: a0 = sp + 0xffffffffffffffe0\n  8209: a0 = a0 & 0xffffffffffffffe0\n  8212: u64 [s1 + 0x190] = a0\n  8216: sp = a0\n  8218: u64 [a0 + 24] = 0\n  8221: u64 [a0 + 16] = 0\n  8224: u64 [a0 + 8] = 0\n  8227: u64 [a0 + 0] = 0\n  8229: i32 a0 = a0 + 0\n  8231: ecalli 11 // 'value_transferred'\n  8233: fallthrough\n      : @132 (gas: 9)\n  8234: a3 = u64 [s1 + 0x190]\n  8238: a0 = u64 [a3 + 0x10]\n  8241: a1 = u64 [a3 + 0x18]\n  8244: a2 = u64 [a3 + 0x8]\n  8247: a3 = u64 [a3]\n  8249: a1 = a1 | a2\n  8252: a0 = a0 | a3\n  8255: a0 = a0 | a1\n  8258: jump @134 if a0 == 0\n      : @133 (gas: 1)\n  8261: jump @268\n      : @134 (gas: 3)\n  8264: a0 = u64 [s1 + 0x198]\n  8268: a0 = i32 [a0]\n  8270: jump @136 if a0 >u 35\n      : @135 (gas: 1)\n  8274: jump @268\n      : @136 (gas: 17)\n  8277: a0 = s1 + 0x1000\n  8281: i32 a0 = a0 + 0xfffffffffffffaa0\n  8285: a1 = 0x4\n  8288: ecalli 1 // 'call_data_load'\n  8290: a0 = s1 + 0x7ff\n  8294: a0 = a0 + 0x139\n  8298: a1 = u64 [a0 + 0x168]\n  8302: u64 [s1 + 0x198] = a1\n  8306: a1 = u64 [a0 + 0x170]\n  8310: u64 [s1 + 0x190] = a1\n  8314: a1 = u64 [a0 + 0x178]\n  8318: u64 [s1 + 0x188] = a1\n  8322: a0 = u64 [a0 + 0x180]\n  8326: u64 [s1 + 0x180] = a0\n  8330: a1 = 0x20\n  8333: a0 = 0\n  8335: ra = 92, jump @0\n      : @137 [@dyn 46] (gas: 103)\n  8340: a1 = u64 [s1 + 0x180]\n  8344: a3 = reverse a1\n  8346: a1 = u64 [s1 + 0x188]\n  8350: a5 = reverse a1\n  8352: a1 = u64 [s1 + 0x190]\n  8356: a4 = reverse a1\n  8358: a1 = u64 [s1 + 0x198]\n  8362: a2 = reverse a1\n  8364: a1 = a2 >> 0x38\n  8367: u64 [s1 + 0x190] = a1\n  8371: u8 [a0 + 0x1f] = a1\n  8374: a1 = a2 >> 0x30\n  8377: u64 [s1 + 0x188] = a1\n  8381: u8 [a0 + 0x1e] = a1\n  8384: a1 = a2 >> 0x28\n  8387: u64 [s1 + 0x180] = a1\n  8391: u8 [a0 + 0x1d] = a1\n  8394: a1 = a2 >> 0x20\n  8397: u64 [s1 + 0x178] = a1\n  8401: u8 [a0 + 0x1c] = a1\n  8404: a1 = a2 >> 0x18\n  8407: u64 [s1 + 0x170] = a1\n  8411: u8 [a0 + 0x1b] = a1\n  8414: a1 = a2 >> 0x10\n  8417: u64 [s1 + 0x168] = a1\n  8421: u8 [a0 + 0x1a] = a1\n  8424: a1 = a2 >> 0x8\n  8427: u64 [s1 + 0x160] = a1\n  8431: u8 [a0 + 0x19] = a1\n  8434: u64 [s1 + 0x158] = a2\n  8438: u8 [a0 + 0x18] = a2\n  8441: a1 = a4 >> 0x38\n  8444: u64 [s1 + 0x138] = a1\n  8448: u8 [a0 + 0x17] = a1\n  8451: a1 = a4 >> 0x30\n  8454: u64 [s1 + 0x130] = a1\n  8458: u8 [a0 + 0x16] = a1\n  8461: a1 = a4 >> 0x28\n  8464: u64 [s1 + 0x128] = a1\n  8468: u8 [a0 + 0x15] = a1\n  8471: a1 = a4 >> 0x20\n  8474: u64 [s1 + 0x120] = a1\n  8478: u8 [a0 + 0x14] = a1\n  8481: a1 = a4 >> 0x18\n  8484: u64 [s1 + 0x118] = a1\n  8488: u8 [a0 + 0x13] = a1\n  8491: a1 = a4 >> 0x10\n  8494: u64 [s1 + 0x110] = a1\n  8498: u8 [a0 + 0x12] = a1\n  8501: a1 = a4 >> 0x8\n  8504: u64 [s1 + 0x108] = a1\n  8508: u8 [a0 + 0x11] = a1\n  8511: u64 [s1 + 0x148] = a4\n  8515: u8 [a0 + 0x10] = a4\n  8518: a1 = a5 >> 0x38\n  8521: u64 [s1 + 0x100] = a1\n  8525: u8 [a0 + 0xf] = a1\n  8528: a1 = a5 >> 0x30\n  8531: u64 [s1 + 0xf8] = a1\n  8535: u8 [a0 + 0xe] = a1\n  8538: a1 = a5 >> 0x28\n  8541: u64 [s1 + 0xf0] = a1\n  8545: u8 [a0 + 0xd] = a1\n  8548: a1 = a5 >> 0x20\n  8551: u64 [s1 + 0xe8] = a1\n  8555: u8 [a0 + 0xc] = a1\n  8558: a1 = a5 >> 0x18\n  8561: u64 [s1 + 0xe0] = a1\n  8565: u8 [a0 + 0xb] = a1\n  8568: a1 = a5 >> 0x10\n  8571: u64 [s1 + 0xd8] = a1\n  8575: u8 [a0 + 0xa] = a1\n  8578: a1 = a5 >> 0x8\n  8581: u64 [s1 + 0xd0] = a1\n  8585: u8 [a0 + 0x9] = a1\n  8588: u64 [s1 + 0x140] = a5\n  8592: u8 [a0 + 0x8] = a5\n  8595: a1 = a3 >> 0x38\n  8598: u64 [s1 + 0xc8] = a1\n  8602: u8 [a0 + 0x7] = a1\n  8605: a1 = a3 >> 0x30\n  8608: u64 [s1 + 0xc0] = a1\n  8612: u8 [a0 + 0x6] = a1\n  8615: a1 = a3 >> 0x28\n  8618: u64 [s1 + 0xb8] = a1\n  8622: u8 [a0 + 0x5] = a1\n  8625: a1 = a3 >> 0x20\n  8628: u64 [s1 + 0xb0] = a1\n  8632: u8 [a0 + 0x4] = a1\n  8635: a1 = a3 >> 0x18\n  8638: u64 [s1 + 0xa8] = a1\n  8642: u8 [a0 + 0x3] = a1\n  8645: a1 = a3 >> 0x10\n  8648: u64 [s1 + 0xa0] = a1\n  8652: u8 [a0 + 0x2] = a1\n  8655: a1 = a3 >> 0x8\n  8658: u64 [s1 + 0x98] = a1\n  8662: u8 [a0 + 0x1] = a1\n  8665: u64 [s1 + 0x150] = a3\n  8669: u8 [a0] = a3\n  8671: a0 = 0x20\n  8674: a1 = 0x20\n  8677: ra = 94, jump @0\n      : @138 [@dyn 47] (gas: 35)\n  8682: u8 [a0 + 31] = 0\n  8685: u8 [a0 + 30] = 0\n  8688: u8 [a0 + 29] = 0\n  8691: u8 [a0 + 28] = 0\n  8694: u8 [a0 + 27] = 0\n  8697: u8 [a0 + 26] = 0\n  8700: u8 [a0 + 25] = 0\n  8703: u8 [a0 + 24] = 0\n  8706: u8 [a0 + 23] = 0\n  8709: u8 [a0 + 22] = 0\n  8712: u8 [a0 + 21] = 0\n  8715: u8 [a0 + 20] = 0\n  8718: u8 [a0 + 19] = 0\n  8721: u8 [a0 + 18] = 0\n  8724: u8 [a0 + 17] = 0\n  8727: u8 [a0 + 16] = 0\n  8730: u8 [a0 + 15] = 0\n  8733: u8 [a0 + 14] = 0\n  8736: u8 [a0 + 13] = 0\n  8739: u8 [a0 + 12] = 0\n  8742: u8 [a0 + 11] = 0\n  8745: u8 [a0 + 10] = 0\n  8748: u8 [a0 + 9] = 0\n  8751: u8 [a0 + 8] = 0\n  8754: u8 [a0 + 7] = 0\n  8757: u8 [a0 + 6] = 0\n  8760: u8 [a0 + 5] = 0\n  8763: u8 [a0 + 4] = 0\n  8766: u8 [a0 + 3] = 0\n  8769: u8 [a0 + 2] = 0\n  8772: u8 [a0 + 1] = 0\n  8775: u8 [a0 + 0] = 0\n  8777: a1 = 0x40\n  8780: a0 = 0\n  8782: ra = 96, jump @0\n      : @139 [@dyn 48] (gas: 34)\n  8787: a1 = sp + 0xffffffffffffffe0\n  8790: a1 = a1 & 0xffffffffffffffe0\n  8793: u64 [s1 + 0x198] = a1\n  8797: sp = a1\n  8799: i32 a0 = a0 + 0\n  8801: i32 a2 = a1 + 0\n  8803: a1 = 0x40\n  8806: ecalli 6 // 'hash_keccak_256'\n  8808: a3 = u64 [s1 + 0x198]\n  8812: a0 = u64 [a3 + 0x18]\n  8815: a1 = u64 [a3 + 0x10]\n  8818: a2 = u64 [a3 + 0x8]\n  8821: a3 = u64 [a3]\n  8823: a4 = s1 + 0x7ff\n  8827: a4 = a4 + 0x139\n  8831: u64 [a4 + 0x280] = a0\n  8835: u64 [a4 + 0x278] = a1\n  8839: u64 [a4 + 0x270] = a2\n  8843: u64 [a4 + 0x268] = a3\n  8847: u64 [a4 + 672] = 0\n  8851: u64 [a4 + 664] = 0\n  8855: u64 [a4 + 656] = 0\n  8859: u64 [a4 + 648] = 0\n  8863: u32 [a4 + 680] = 0x20\n  8868: a0 = s1 + 0x1000\n  8872: i32 a1 = a0 + 0xfffffffffffffba0\n  8876: a0 = s1 + 0x1000\n  8880: i32 a3 = a0 + 0xfffffffffffffbc0\n  8884: a0 = s1 + 0x1000\n  8888: i32 a4 = a0 + 0xfffffffffffffbe0\n  8892: a2 = 0xffffffffffffffff\n  8895: a0 = 0\n  8897: ecalli 5 // 'get_storage'\n  8899: fallthrough\n      : @140 (gas: 10)\n  8900: a3 = s1 + 0x7ff\n  8904: a3 = a3 + 0x139\n  8908: a0 = u64 [a3 + 0x2a0]\n  8912: a1 = u64 [a3 + 0x298]\n  8916: a2 = u64 [a3 + 0x290]\n  8920: a3 = u64 [a3 + 0x288]\n  8924: a4 = a2 | a0\n  8927: a5 = a3 | a1\n  8930: a4 = a4 | a5\n  8933: jump @142 if a4 == 0\n      : @141 (gas: 1)\n  8936: jump @207\n      : @142 (gas: 3)\n  8939: a0 = 0x40\n  8942: a1 = 0x20\n  8945: ra = 98, jump @0\n      : @143 [@dyn 49] (gas: 100)\n  8950: a1 = u8 [a0 + 0x11]\n  8953: a2 = u8 [a0 + 0x10]\n  8956: a3 = u8 [a0 + 0x12]\n  8959: a4 = u8 [a0 + 0x13]\n  8962: a1 = a1 << 0x8\n  8965: a1 = a1 | a2\n  8968: a3 = a3 << 0x10\n  8971: a4 = a4 << 0x18\n  8974: a3 = a3 | a4\n  8977: a1 = a1 | a3\n  8980: a2 = u8 [a0 + 0x15]\n  8983: a3 = u8 [a0 + 0x14]\n  8986: a4 = u8 [a0 + 0x16]\n  8989: a5 = u8 [a0 + 0x17]\n  8992: a2 = a2 << 0x8\n  8995: a2 = a2 | a3\n  8998: a4 = a4 << 0x10\n  9001: a5 = a5 << 0x18\n  9004: a4 = a4 | a5\n  9007: a2 = a2 | a4\n  9010: a2 = a2 << 0x20\n  9013: t0 = a2 | a1\n  9016: a2 = u8 [a0 + 0x1]\n  9019: a3 = u8 [a0]\n  9021: a4 = u8 [a0 + 0x2]\n  9024: a5 = u8 [a0 + 0x3]\n  9027: a2 = a2 << 0x8\n  9030: a2 = a2 | a3\n  9033: a4 = a4 << 0x10\n  9036: a5 = a5 << 0x18\n  9039: a4 = a4 | a5\n  9042: a2 = a2 | a4\n  9045: a3 = u8 [a0 + 0x5]\n  9048: a4 = u8 [a0 + 0x4]\n  9051: a5 = u8 [a0 + 0x6]\n  9054: a1 = u8 [a0 + 0x7]\n  9057: a3 = a3 << 0x8\n  9060: a3 = a3 | a4\n  9063: a5 = a5 << 0x10\n  9066: a1 = a1 << 0x18\n  9069: a1 = a1 | a5\n  9072: a1 = a1 | a3\n  9075: a1 = a1 << 0x20\n  9078: t1 = a1 | a2\n  9081: a1 = u8 [a0 + 0x19]\n  9084: a3 = u8 [a0 + 0x18]\n  9087: a4 = u8 [a0 + 0x1a]\n  9090: a5 = u8 [a0 + 0x1b]\n  9093: a1 = a1 << 0x8\n  9096: a1 = a1 | a3\n  9099: a4 = a4 << 0x10\n  9102: a5 = a5 << 0x18\n  9105: a4 = a4 | a5\n  9108: a1 = a1 | a4\n  9111: a3 = u8 [a0 + 0x1d]\n  9114: a4 = u8 [a0 + 0x1c]\n  9117: a5 = u8 [a0 + 0x1e]\n  9120: a2 = u8 [a0 + 0x1f]\n  9123: a3 = a3 << 0x8\n  9126: a3 = a3 | a4\n  9129: a5 = a5 << 0x10\n  9132: a2 = a2 << 0x18\n  9135: a2 = a2 | a5\n  9138: a2 = a2 | a3\n  9141: a2 = a2 << 0x20\n  9144: a3 = a2 | a1\n  9147: a1 = u8 [a0 + 0x9]\n  9150: a2 = u8 [a0 + 0x8]\n  9153: a4 = u8 [a0 + 0xa]\n  9156: a5 = u8 [a0 + 0xb]\n  9159: a1 = a1 << 0x8\n  9162: a1 = a1 | a2\n  9165: a4 = a4 << 0x10\n  9168: a5 = a5 << 0x18\n  9171: a4 = a4 | a5\n  9174: a1 = a1 | a4\n  9177: a2 = u8 [a0 + 0xd]\n  9180: a4 = u8 [a0 + 0xc]\n  9183: a5 = u8 [a0 + 0xe]\n  9186: a0 = u8 [a0 + 0xf]\n  9189: a2 = a2 << 0x8\n  9192: a2 = a2 | a4\n  9195: a5 = a5 << 0x10\n  9198: a0 = a0 << 0x18\n  9201: a0 = a0 | a5\n  9204: a0 = a0 | a2\n  9207: a0 = a0 << 0x20\n  9210: a0 = a0 | a1\n  9213: a4 = reverse a0\n  9215: a2 = reverse a3\n  9217: a5 = reverse t1\n  9219: a3 = reverse t0\n  9221: a0 = a3 | a5\n  9224: a1 = a2 | a4\n  9227: a1 = a1 | a0\n  9230: a1 = a1 >> 0x20\n  9233: a0 = a0 | a4\n  9236: a0 = a0 << 0x20\n  9239: a0 = a0 | a1\n  9242: jump @145 if a0 == 0\n      : @144 (gas: 1)\n  9245: jump @214\n      : @145 (gas: 8)\n  9248: i32 a0 = a2 + 0\n  9250: a1 = 0x20\n  9253: u64 [s1 + 0x178] = a0\n  9257: u64 [s1 + 0x198] = a2\n  9261: u64 [s1 + 0x190] = a3\n  9265: u64 [s1 + 0x188] = a4\n  9269: u64 [s1 + 0x180] = a5\n  9273: ra = 100, jump @0\n      : @146 [@dyn 50] (gas: 43)\n  9278: u8 [a0 + 31] = 0\n  9281: u8 [a0 + 30] = 0\n  9284: u8 [a0 + 29] = 0\n  9287: u8 [a0 + 28] = 0\n  9290: u8 [a0 + 27] = 0\n  9293: u8 [a0 + 26] = 0\n  9296: u8 [a0 + 25] = 0\n  9299: u8 [a0 + 24] = 0\n  9302: u8 [a0 + 23] = 0\n  9305: u8 [a0 + 22] = 0\n  9308: u8 [a0 + 21] = 0\n  9311: u8 [a0 + 20] = 0\n  9314: u8 [a0 + 19] = 0\n  9317: u8 [a0 + 18] = 0\n  9320: u8 [a0 + 17] = 0\n  9323: u8 [a0 + 16] = 0\n  9326: u8 [a0 + 15] = 0\n  9329: u8 [a0 + 14] = 0\n  9332: u8 [a0 + 13] = 0\n  9335: u8 [a0 + 12] = 0\n  9338: u8 [a0 + 11] = 0\n  9341: u8 [a0 + 10] = 0\n  9344: u8 [a0 + 9] = 0\n  9347: u8 [a0 + 8] = 0\n  9350: u8 [a0 + 7] = 0\n  9353: u8 [a0 + 6] = 0\n  9356: u8 [a0 + 5] = 0\n  9359: u8 [a0 + 3] = 0xa0\n  9364: u8 [a0 + 2] = 0x79\n  9368: u8 [a0 + 1] = 0xc3\n  9373: u8 [a0 + 0] = 0x8\n  9376: a1 = u64 [s1 + 0x188]\n  9380: a3 = u64 [s1 + 0x180]\n  9384: a3 = a3 | a1\n  9387: a4 = 0x100000000\n  9397: a1 = 0xfffffffc\n  9407: a2 = u64 [s1 + 0x198]\n  9411: a1 = a2 <u a1\n  9414: a2 = u64 [s1 + 0x190]\n  9418: a1 = 0 if a2 != 0\n  9420: a1 = 0 if a3 != 0\n  9422: u8 [a0 + 4] = 0\n  9425: jump @148 if a1 != 0\n      : @147 (gas: 1)\n  9428: jump @214\n      : @148 (gas: 6)\n  9431: a0 = u64 [s1 + 0x178]\n  9435: i32 a0 = a0 + 0x4\n  9438: a1 = 0x20\n  9441: u64 [s1 + 0x188] = a3\n  9445: u64 [s1 + 0x180] = a4\n  9449: ra = 102, jump @0\n      : @149 [@dyn 51] (gas: 41)\n  9454: a4 = u64 [s1 + 0x188]\n  9458: a3 = u64 [s1 + 0x190]\n  9462: a2 = u64 [s1 + 0x198]\n  9466: u8 [a0 + 31] = 0x20\n  9470: u8 [a0 + 30] = 0\n  9473: u8 [a0 + 29] = 0\n  9476: u8 [a0 + 28] = 0\n  9479: u8 [a0 + 27] = 0\n  9482: u8 [a0 + 26] = 0\n  9485: u8 [a0 + 25] = 0\n  9488: u8 [a0 + 24] = 0\n  9491: u8 [a0 + 23] = 0\n  9494: u8 [a0 + 22] = 0\n  9497: u8 [a0 + 21] = 0\n  9500: u8 [a0 + 20] = 0\n  9503: u8 [a0 + 19] = 0\n  9506: u8 [a0 + 18] = 0\n  9509: u8 [a0 + 17] = 0\n  9512: u8 [a0 + 16] = 0\n  9515: u8 [a0 + 15] = 0\n  9518: u8 [a0 + 14] = 0\n  9521: u8 [a0 + 13] = 0\n  9524: u8 [a0 + 12] = 0\n  9527: u8 [a0 + 11] = 0\n  9530: u8 [a0 + 10] = 0\n  9533: u8 [a0 + 9] = 0\n  9536: u8 [a0 + 8] = 0\n  9539: u8 [a0 + 7] = 0\n  9542: u8 [a0 + 6] = 0\n  9545: u8 [a0 + 5] = 0\n  9548: u8 [a0 + 4] = 0\n  9551: u8 [a0 + 3] = 0\n  9554: u8 [a0 + 2] = 0\n  9557: u8 [a0 + 1] = 0\n  9560: a1 = u64 [s1 + 0x180]\n  9564: a1 = a1 + 0xffffffffffffffdc\n  9567: a1 = a2 <u a1\n  9570: a1 = 0 if a3 != 0\n  9572: a1 = 0 if a4 != 0\n  9574: u8 [a0 + 0] = 0\n  9576: jump @151 if a1 != 0\n      : @150 (gas: 1)\n  9579: jump @214\n      : @151 (gas: 4)\n  9582: a0 = u64 [s1 + 0x178]\n  9586: i32 a0 = a0 + 0x24\n  9589: a1 = 0x20\n  9592: ra = 104, jump @0\n      : @152 [@dyn 52] (gas: 40)\n  9597: u8 [a0 + 31] = 0x14\n  9601: u8 [a0 + 30] = 0\n  9604: u8 [a0 + 29] = 0\n  9607: u8 [a0 + 28] = 0\n  9610: u8 [a0 + 27] = 0\n  9613: u8 [a0 + 26] = 0\n  9616: u8 [a0 + 25] = 0\n  9619: u8 [a0 + 24] = 0\n  9622: u8 [a0 + 23] = 0\n  9625: u8 [a0 + 22] = 0\n  9628: u8 [a0 + 21] = 0\n  9631: u8 [a0 + 20] = 0\n  9634: u8 [a0 + 19] = 0\n  9637: u8 [a0 + 18] = 0\n  9640: u8 [a0 + 17] = 0\n  9643: u8 [a0 + 16] = 0\n  9646: u8 [a0 + 15] = 0\n  9649: u8 [a0 + 14] = 0\n  9652: u8 [a0 + 13] = 0\n  9655: u8 [a0 + 12] = 0\n  9658: u8 [a0 + 11] = 0\n  9661: u8 [a0 + 10] = 0\n  9664: u8 [a0 + 9] = 0\n  9667: u8 [a0 + 8] = 0\n  9670: u8 [a0 + 7] = 0\n  9673: u8 [a0 + 6] = 0\n  9676: u8 [a0 + 5] = 0\n  9679: u8 [a0 + 4] = 0\n  9682: u8 [a0 + 3] = 0\n  9685: u8 [a0 + 2] = 0\n  9688: u8 [a0 + 1] = 0\n  9691: a1 = 0xffffffbc\n  9701: a2 = u64 [s1 + 0x198]\n  9705: a1 = a2 <u a1\n  9708: a2 = u64 [s1 + 0x190]\n  9712: a1 = 0 if a2 != 0\n  9714: a2 = u64 [s1 + 0x188]\n  9718: a1 = 0 if a2 != 0\n  9720: u8 [a0 + 0] = 0\n  9722: jump @154 if a1 != 0\n      : @153 (gas: 1)\n  9725: jump @214\n      : @154 (gas: 4)\n  9728: a0 = u64 [s1 + 0x178]\n  9732: i32 a0 = a0 + 0x44\n  9735: a1 = 0x20\n  9738: ra = 106, jump @0\n      : @155 [@dyn 53] (gas: 32)\n  9743: u8 [a0 + 31] = 0\n  9746: u8 [a0 + 30] = 0\n  9749: u8 [a0 + 29] = 0\n  9752: u8 [a0 + 28] = 0\n  9755: u8 [a0 + 27] = 0\n  9758: u8 [a0 + 26] = 0\n  9761: u8 [a0 + 25] = 0\n  9764: u8 [a0 + 24] = 0\n  9767: u8 [a0 + 23] = 0\n  9770: u8 [a0 + 22] = 0\n  9773: u8 [a0 + 21] = 0\n  9776: u8 [a0 + 20] = 0\n  9779: u8 [a0 + 19] = 0x64\n  9783: u8 [a0 + 18] = 0x65\n  9787: u8 [a0 + 17] = 0x64\n  9791: u8 [a0 + 16] = 0x61\n  9795: u8 [a0 + 15] = 0x6f\n  9799: u8 [a0 + 14] = 0x6c\n  9803: u8 [a0 + 13] = 0x70\n  9807: u8 [a0 + 12] = 0x75\n  9811: a5 = 0x20\n  9814: u8 [a0 + 0xb] = a5\n  9817: u8 [a0 + 10] = 0x74\n  9821: a4 = 0x63\n  9824: u8 [a0 + 0x9] = a4\n  9827: u8 [a0 + 8] = 0x61\n  9831: u8 [a0 + 7] = 0x72\n  9835: u8 [a0 + 6] = 0x74\n  9839: u8 [a0 + 5] = 0x6e\n  9843: u8 [a0 + 4] = 0x6f\n  9847: u8 [a0 + 0x3] = a4\n  9850: jump @182\n      : @156 (gas: 1)\n  9853: jump @158 if a0 == 2772811556\n      : @157 (gas: 1)\n  9860: jump @268\n      : @158 (gas: 11)\n  9863: a0 = sp + 0xffffffffffffffe0\n  9866: a0 = a0 & 0xffffffffffffffe0\n  9869: u64 [s1 + 0x190] = a0\n  9873: sp = a0\n  9875: u64 [a0 + 24] = 0\n  9878: u64 [a0 + 16] = 0\n  9881: u64 [a0 + 8] = 0\n  9884: u64 [a0 + 0] = 0\n  9886: i32 a0 = a0 + 0\n  9888: ecalli 11 // 'value_transferred'\n  9890: fallthrough\n      : @159 (gas: 9)\n  9891: a3 = u64 [s1 + 0x190]\n  9895: a0 = u64 [a3 + 0x10]\n  9898: a1 = u64 [a3 + 0x18]\n  9901: a2 = u64 [a3 + 0x8]\n  9904: a3 = u64 [a3]\n  9906: a1 = a1 | a2\n  9909: a0 = a0 | a3\n  9912: a0 = a0 | a1\n  9915: jump @161 if a0 == 0\n      : @160 (gas: 1)\n  9918: jump @268\n      : @161 (gas: 3)\n  9921: a0 = u64 [s1 + 0x198]\n  9925: a0 = i32 [a0]\n  9927: jump @163 if a0 >u 67\n      : @162 (gas: 1)\n  9931: jump @268\n      : @163 (gas: 51)\n  9934: a0 = s1 + 0x1000\n  9938: i32 a0 = a0 + 0xfffffffffffffac0\n  9942: a1 = 0x4\n  9945: ecalli 1 // 'call_data_load'\n  9947: a1 = s1 + 0x7ff\n  9951: a1 = a1 + 0x139\n  9955: a0 = u64 [a1 + 0x1a0]\n  9959: u64 [s1 + 0x148] = a0\n  9963: a0 = u64 [a1 + 0x198]\n  9967: u64 [s1 + 0x150] = a0\n  9971: a0 = u64 [a1 + 0x190]\n  9975: u64 [s1 + 0x158] = a0\n  9979: a0 = u64 [a1 + 0x188]\n  9983: u64 [s1 + 0x160] = a0\n  9987: a0 = s1 + 0x1000\n  9991: i32 a0 = a0 + 0xfffffffffffffae0\n  9995: a1 = 0x24\n  9998: ecalli 1 // 'call_data_load'\n 10000: a1 = s1 + 0x7ff\n 10004: a1 = a1 + 0x139\n 10008: a0 = u64 [a1 + 0x1c0]\n 10012: u64 [s1 + 0x168] = a0\n 10016: a0 = u64 [a1 + 0x1b8]\n 10020: u64 [s1 + 0x170] = a0\n 10024: a0 = u64 [a1 + 0x1b0]\n 10028: u64 [s1 + 0x178] = a0\n 10032: a0 = u64 [a1 + 0x1a8]\n 10036: u64 [s1 + 0x180] = a0\n 10040: a0 = s1 + 0x1000\n 10044: i32 a0 = a0 + 0xfffffffffffffb00\n 10048: ecalli 3 // 'caller'\n 10050: a2 = s1 + 0x7ff\n 10054: a2 = a2 + 0x139\n 10058: a0 = u64 [a2 + 0x1d0]\n 10062: a1 = i32 [a2 + 0x1d8]\n 10066: a3 = u64 [a2 + 0x1c8]\n 10070: u64 [s1 + 0x190] = a3\n 10074: a0 = reverse a0\n 10076: a2 = a0 << 0x20\n 10079: a1 = reverse a1\n 10081: a1 = a1 >> 0x20\n 10084: a1 = a1 | a2\n 10087: u64 [s1 + 0x198] = a1\n 10091: a0 = a0 >> 0x20\n 10094: a1 = reverse a3\n 10096: a1 = a1 << 0x20\n 10099: a0 = a0 | a1\n 10102: u64 [s1 + 0x188] = a0\n 10106: a1 = 0x20\n 10109: a0 = 0\n 10111: ra = 108, jump @0\n      : @164 [@dyn 54] (gas: 57)\n 10116: a1 = u64 [s1 + 0x188]\n 10120: a1 = reverse a1\n 10122: a2 = u64 [s1 + 0x198]\n 10126: a2 = reverse a2\n 10128: a4 = u64 [s1 + 0x190]\n 10132: a3 = a4 >> 0x18\n 10135: u8 [a0 + 0xf] = a3\n 10138: a3 = a4 >> 0x10\n 10141: u8 [a0 + 0xe] = a3\n 10144: a3 = a4 >> 0x8\n 10147: u8 [a0 + 0xd] = a3\n 10150: u8 [a0 + 0xc] = a4\n 10153: u8 [a0 + 11] = 0\n 10156: u8 [a0 + 10] = 0\n 10159: u8 [a0 + 9] = 0\n 10162: u8 [a0 + 8] = 0\n 10165: u8 [a0 + 7] = 0\n 10168: u8 [a0 + 6] = 0\n 10171: u8 [a0 + 5] = 0\n 10174: u8 [a0 + 4] = 0\n 10177: u8 [a0 + 3] = 0\n 10180: u8 [a0 + 2] = 0\n 10183: u8 [a0 + 1] = 0\n 10186: u8 [a0 + 0] = 0\n 10188: u8 [a0 + 0x18] = a2\n 10191: u8 [a0 + 0x10] = a1\n 10194: a3 = a2 >> 0x38\n 10197: u8 [a0 + 0x1f] = a3\n 10200: a3 = a2 >> 0x30\n 10203: u8 [a0 + 0x1e] = a3\n 10206: a3 = a2 >> 0x28\n 10209: u8 [a0 + 0x1d] = a3\n 10212: a3 = a2 >> 0x20\n 10215: u8 [a0 + 0x1c] = a3\n 10218: a3 = a2 >> 0x18\n 10221: u8 [a0 + 0x1b] = a3\n 10224: a3 = a2 >> 0x10\n 10227: u8 [a0 + 0x1a] = a3\n 10230: a2 = a2 >> 0x8\n 10233: u8 [a0 + 0x19] = a2\n 10236: a2 = a1 >> 0x38\n 10239: u8 [a0 + 0x17] = a2\n 10242: a2 = a1 >> 0x30\n 10245: u8 [a0 + 0x16] = a2\n 10248: a2 = a1 >> 0x28\n 10251: u8 [a0 + 0x15] = a2\n 10254: a2 = a1 >> 0x20\n 10257: u8 [a0 + 0x14] = a2\n 10260: a2 = a1 >> 0x18\n 10263: u8 [a0 + 0x13] = a2\n 10266: a2 = a1 >> 0x10\n 10269: u8 [a0 + 0x12] = a2\n 10272: a1 = a1 >> 0x8\n 10275: u8 [a0 + 0x11] = a1\n 10278: a0 = 0x20\n 10281: a1 = 0x20\n 10284: ra = 110, jump @0\n      : @165 [@dyn 55] (gas: 35)\n 10289: u8 [a0 + 31] = 0x2\n 10293: u8 [a0 + 30] = 0\n 10296: u8 [a0 + 29] = 0\n 10299: u8 [a0 + 28] = 0\n 10302: u8 [a0 + 27] = 0\n 10305: u8 [a0 + 26] = 0\n 10308: u8 [a0 + 25] = 0\n 10311: u8 [a0 + 24] = 0\n 10314: u8 [a0 + 23] = 0\n 10317: u8 [a0 + 22] = 0\n 10320: u8 [a0 + 21] = 0\n 10323: u8 [a0 + 20] = 0\n 10326: u8 [a0 + 19] = 0\n 10329: u8 [a0 + 18] = 0\n 10332: u8 [a0 + 17] = 0\n 10335: u8 [a0 + 16] = 0\n 10338: u8 [a0 + 15] = 0\n 10341: u8 [a0 + 14] = 0\n 10344: u8 [a0 + 13] = 0\n 10347: u8 [a0 + 12] = 0\n 10350: u8 [a0 + 11] = 0\n 10353: u8 [a0 + 10] = 0\n 10356: u8 [a0 + 9] = 0\n 10359: u8 [a0 + 8] = 0\n 10362: u8 [a0 + 7] = 0\n 10365: u8 [a0 + 6] = 0\n 10368: u8 [a0 + 5] = 0\n 10371: u8 [a0 + 4] = 0\n 10374: u8 [a0 + 3] = 0\n 10377: u8 [a0 + 2] = 0\n 10380: u8 [a0 + 1] = 0\n 10383: u8 [a0 + 0] = 0\n 10385: a1 = 0x40\n 10388: a0 = 0\n 10390: ra = 112, jump @0\n      : @166 [@dyn 56] (gas: 34)\n 10395: a1 = sp + 0xffffffffffffffe0\n 10398: a1 = a1 & 0xffffffffffffffe0\n 10401: u64 [s1 + 0x198] = a1\n 10405: sp = a1\n 10407: i32 a0 = a0 + 0\n 10409: i32 a2 = a1 + 0\n 10411: a1 = 0x40\n 10414: ecalli 6 // 'hash_keccak_256'\n 10416: a3 = u64 [s1 + 0x198]\n 10420: a0 = u64 [a3 + 0x18]\n 10423: a1 = u64 [a3 + 0x10]\n 10426: a2 = u64 [a3 + 0x8]\n 10429: a3 = u64 [a3]\n 10431: a4 = s1 + 0x7ff\n 10435: a4 = a4 + 0x139\n 10439: u64 [a4 + 0x280] = a0\n 10443: u64 [a4 + 0x278] = a1\n 10447: u64 [a4 + 0x270] = a2\n 10451: u64 [a4 + 0x268] = a3\n 10455: u64 [a4 + 672] = 0\n 10459: u64 [a4 + 664] = 0\n 10463: u64 [a4 + 656] = 0\n 10467: u64 [a4 + 648] = 0\n 10471: u32 [a4 + 680] = 0x20\n 10476: a0 = s1 + 0x1000\n 10480: i32 a1 = a0 + 0xfffffffffffffba0\n 10484: a0 = s1 + 0x1000\n 10488: i32 a3 = a0 + 0xfffffffffffffbc0\n 10492: a0 = s1 + 0x1000\n 10496: i32 a4 = a0 + 0xfffffffffffffbe0\n 10500: a2 = 0xffffffffffffffff\n 10503: a0 = 0\n 10505: ecalli 5 // 'get_storage'\n 10507: fallthrough\n      : @167 (gas: 11)\n 10508: a1 = s1 + 0x7ff\n 10512: a1 = a1 + 0x139\n 10516: a0 = u64 [a1 + 0x2a0]\n 10520: a1 = u64 [a1 + 0x298]\n 10524: a2 = 0xffffffffffffff\n 10534: a2 = a2 ^ a0\n 10537: a1 = a2 | ~a1\n 10540: a0 = a0 >> 0x38\n 10543: a0 = a0 >u 0\n 10545: a0 = 0 if a1 == 0\n 10547: jump @169 if a0 == 0\n      : @168 (gas: 1)\n 10550: jump @215\n      : @169 (gas: 3)\n 10553: a0 = 0x40\n 10556: a1 = 0x20\n 10559: ra = 114, jump @0\n      : @170 [@dyn 57] (gas: 100)\n 10564: a1 = u8 [a0 + 0x11]\n 10567: a2 = u8 [a0 + 0x10]\n 10570: a3 = u8 [a0 + 0x12]\n 10573: a4 = u8 [a0 + 0x13]\n 10576: a1 = a1 << 0x8\n 10579: a1 = a1 | a2\n 10582: a3 = a3 << 0x10\n 10585: a4 = a4 << 0x18\n 10588: a3 = a3 | a4\n 10591: a1 = a1 | a3\n 10594: a2 = u8 [a0 + 0x15]\n 10597: a3 = u8 [a0 + 0x14]\n 10600: a4 = u8 [a0 + 0x16]\n 10603: a5 = u8 [a0 + 0x17]\n 10606: a2 = a2 << 0x8\n 10609: a2 = a2 | a3\n 10612: a4 = a4 << 0x10\n 10615: a5 = a5 << 0x18\n 10618: a4 = a4 | a5\n 10621: a2 = a2 | a4\n 10624: a2 = a2 << 0x20\n 10627: t0 = a2 | a1\n 10630: a2 = u8 [a0 + 0x1]\n 10633: a3 = u8 [a0]\n 10635: a4 = u8 [a0 + 0x2]\n 10638: a5 = u8 [a0 + 0x3]\n 10641: a2 = a2 << 0x8\n 10644: a2 = a2 | a3\n 10647: a4 = a4 << 0x10\n 10650: a5 = a5 << 0x18\n 10653: a4 = a4 | a5\n 10656: a2 = a2 | a4\n 10659: a3 = u8 [a0 + 0x5]\n 10662: a4 = u8 [a0 + 0x4]\n 10665: a5 = u8 [a0 + 0x6]\n 10668: a1 = u8 [a0 + 0x7]\n 10671: a3 = a3 << 0x8\n 10674: a3 = a3 | a4\n 10677: a5 = a5 << 0x10\n 10680: a1 = a1 << 0x18\n 10683: a1 = a1 | a5\n 10686: a1 = a1 | a3\n 10689: a1 = a1 << 0x20\n 10692: t1 = a1 | a2\n 10695: a1 = u8 [a0 + 0x19]\n 10698: a3 = u8 [a0 + 0x18]\n 10701: a4 = u8 [a0 + 0x1a]\n 10704: a5 = u8 [a0 + 0x1b]\n 10707: a1 = a1 << 0x8\n 10710: a1 = a1 | a3\n 10713: a4 = a4 << 0x10\n 10716: a5 = a5 << 0x18\n 10719: a4 = a4 | a5\n 10722: a1 = a1 | a4\n 10725: a3 = u8 [a0 + 0x1d]\n 10728: a4 = u8 [a0 + 0x1c]\n 10731: a5 = u8 [a0 + 0x1e]\n 10734: a2 = u8 [a0 + 0x1f]\n 10737: a3 = a3 << 0x8\n 10740: a3 = a3 | a4\n 10743: a5 = a5 << 0x10\n 10746: a2 = a2 << 0x18\n 10749: a2 = a2 | a5\n 10752: a2 = a2 | a3\n 10755: a2 = a2 << 0x20\n 10758: a3 = a2 | a1\n 10761: a1 = u8 [a0 + 0x9]\n 10764: a2 = u8 [a0 + 0x8]\n 10767: a4 = u8 [a0 + 0xa]\n 10770: a5 = u8 [a0 + 0xb]\n 10773: a1 = a1 << 0x8\n 10776: a1 = a1 | a2\n 10779: a4 = a4 << 0x10\n 10782: a5 = a5 << 0x18\n 10785: a4 = a4 | a5\n 10788: a1 = a1 | a4\n 10791: a2 = u8 [a0 + 0xd]\n 10794: a4 = u8 [a0 + 0xc]\n 10797: a5 = u8 [a0 + 0xe]\n 10800: a0 = u8 [a0 + 0xf]\n 10803: a2 = a2 << 0x8\n 10806: a2 = a2 | a4\n 10809: a5 = a5 << 0x10\n 10812: a0 = a0 << 0x18\n 10815: a0 = a0 | a5\n 10818: a0 = a0 | a2\n 10821: a0 = a0 << 0x20\n 10824: a0 = a0 | a1\n 10827: a4 = reverse a0\n 10829: a2 = reverse a3\n 10831: a5 = reverse t1\n 10833: a3 = reverse t0\n 10835: a0 = a3 | a5\n 10838: a1 = a2 | a4\n 10841: a1 = a1 | a0\n 10844: a1 = a1 >> 0x20\n 10847: a0 = a0 | a4\n 10850: a0 = a0 << 0x20\n 10853: a0 = a0 | a1\n 10856: jump @172 if a0 == 0\n      : @171 (gas: 1)\n 10859: jump @214\n      : @172 (gas: 8)\n 10862: i32 a0 = a2 + 0\n 10864: a1 = 0x20\n 10867: u64 [s1 + 0x178] = a0\n 10871: u64 [s1 + 0x198] = a2\n 10875: u64 [s1 + 0x190] = a3\n 10879: u64 [s1 + 0x188] = a4\n 10883: u64 [s1 + 0x180] = a5\n 10887: ra = 116, jump @0\n      : @173 [@dyn 58] (gas: 43)\n 10892: u8 [a0 + 31] = 0\n 10895: u8 [a0 + 30] = 0\n 10898: u8 [a0 + 29] = 0\n 10901: u8 [a0 + 28] = 0\n 10904: u8 [a0 + 27] = 0\n 10907: u8 [a0 + 26] = 0\n 10910: u8 [a0 + 25] = 0\n 10913: u8 [a0 + 24] = 0\n 10916: u8 [a0 + 23] = 0\n 10919: u8 [a0 + 22] = 0\n 10922: u8 [a0 + 21] = 0\n 10925: u8 [a0 + 20] = 0\n 10928: u8 [a0 + 19] = 0\n 10931: u8 [a0 + 18] = 0\n 10934: u8 [a0 + 17] = 0\n 10937: u8 [a0 + 16] = 0\n 10940: u8 [a0 + 15] = 0\n 10943: u8 [a0 + 14] = 0\n 10946: u8 [a0 + 13] = 0\n 10949: u8 [a0 + 12] = 0\n 10952: u8 [a0 + 11] = 0\n 10955: u8 [a0 + 10] = 0\n 10958: u8 [a0 + 9] = 0\n 10961: u8 [a0 + 8] = 0\n 10964: u8 [a0 + 7] = 0\n 10967: u8 [a0 + 6] = 0\n 10970: u8 [a0 + 5] = 0\n 10973: u8 [a0 + 3] = 0xa0\n 10978: u8 [a0 + 2] = 0x79\n 10982: u8 [a0 + 1] = 0xc3\n 10987: u8 [a0 + 0] = 0x8\n 10990: a1 = u64 [s1 + 0x188]\n 10994: a3 = u64 [s1 + 0x180]\n 10998: a3 = a3 | a1\n 11001: a4 = 0x100000000\n 11011: a1 = 0xfffffffc\n 11021: a2 = u64 [s1 + 0x198]\n 11025: a1 = a2 <u a1\n 11028: a2 = u64 [s1 + 0x190]\n 11032: a1 = 0 if a2 != 0\n 11034: a1 = 0 if a3 != 0\n 11036: u8 [a0 + 4] = 0\n 11039: jump @175 if a1 != 0\n      : @174 (gas: 1)\n 11042: jump @214\n      : @175 (gas: 6)\n 11045: a0 = u64 [s1 + 0x178]\n 11049: i32 a0 = a0 + 0x4\n 11052: a1 = 0x20\n 11055: u64 [s1 + 0x188] = a3\n 11059: u64 [s1 + 0x180] = a4\n 11063: ra = 118, jump @0\n      : @176 [@dyn 59] (gas: 41)\n 11068: a4 = u64 [s1 + 0x188]\n 11072: a3 = u64 [s1 + 0x190]\n 11076: a2 = u64 [s1 + 0x198]\n 11080: u8 [a0 + 31] = 0x20\n 11084: u8 [a0 + 30] = 0\n 11087: u8 [a0 + 29] = 0\n 11090: u8 [a0 + 28] = 0\n 11093: u8 [a0 + 27] = 0\n 11096: u8 [a0 + 26] = 0\n 11099: u8 [a0 + 25] = 0\n 11102: u8 [a0 + 24] = 0\n 11105: u8 [a0 + 23] = 0\n 11108: u8 [a0 + 22] = 0\n 11111: u8 [a0 + 21] = 0\n 11114: u8 [a0 + 20] = 0\n 11117: u8 [a0 + 19] = 0\n 11120: u8 [a0 + 18] = 0\n 11123: u8 [a0 + 17] = 0\n 11126: u8 [a0 + 16] = 0\n 11129: u8 [a0 + 15] = 0\n 11132: u8 [a0 + 14] = 0\n 11135: u8 [a0 + 13] = 0\n 11138: u8 [a0 + 12] = 0\n 11141: u8 [a0 + 11] = 0\n 11144: u8 [a0 + 10] = 0\n 11147: u8 [a0 + 9] = 0\n 11150: u8 [a0 + 8] = 0\n 11153: u8 [a0 + 7] = 0\n 11156: u8 [a0 + 6] = 0\n 11159: u8 [a0 + 5] = 0\n 11162: u8 [a0 + 4] = 0\n 11165: u8 [a0 + 3] = 0\n 11168: u8 [a0 + 2] = 0\n 11171: u8 [a0 + 1] = 0\n 11174: a1 = u64 [s1 + 0x180]\n 11178: a1 = a1 + 0xffffffffffffffdc\n 11181: a1 = a2 <u a1\n 11184: a1 = 0 if a3 != 0\n 11186: a1 = 0 if a4 != 0\n 11188: u8 [a0 + 0] = 0\n 11190: jump @178 if a1 != 0\n      : @177 (gas: 1)\n 11193: jump @214\n      : @178 (gas: 4)\n 11196: a0 = u64 [s1 + 0x178]\n 11200: i32 a0 = a0 + 0x24\n 11203: a1 = 0x20\n 11206: ra = 120, jump @0\n      : @179 [@dyn 60] (gas: 40)\n 11211: u8 [a0 + 31] = 0x18\n 11215: u8 [a0 + 30] = 0\n 11218: u8 [a0 + 29] = 0\n 11221: u8 [a0 + 28] = 0\n 11224: u8 [a0 + 27] = 0\n 11227: u8 [a0 + 26] = 0\n 11230: u8 [a0 + 25] = 0\n 11233: u8 [a0 + 24] = 0\n 11236: u8 [a0 + 23] = 0\n 11239: u8 [a0 + 22] = 0\n 11242: u8 [a0 + 21] = 0\n 11245: u8 [a0 + 20] = 0\n 11248: u8 [a0 + 19] = 0\n 11251: u8 [a0 + 18] = 0\n 11254: u8 [a0 + 17] = 0\n 11257: u8 [a0 + 16] = 0\n 11260: u8 [a0 + 15] = 0\n 11263: u8 [a0 + 14] = 0\n 11266: u8 [a0 + 13] = 0\n 11269: u8 [a0 + 12] = 0\n 11272: u8 [a0 + 11] = 0\n 11275: u8 [a0 + 10] = 0\n 11278: u8 [a0 + 9] = 0\n 11281: u8 [a0 + 8] = 0\n 11284: u8 [a0 + 7] = 0\n 11287: u8 [a0 + 6] = 0\n 11290: u8 [a0 + 5] = 0\n 11293: u8 [a0 + 4] = 0\n 11296: u8 [a0 + 3] = 0\n 11299: u8 [a0 + 2] = 0\n 11302: u8 [a0 + 1] = 0\n 11305: a1 = 0xffffffbc\n 11315: a2 = u64 [s1 + 0x198]\n 11319: a1 = a2 <u a1\n 11322: a2 = u64 [s1 + 0x190]\n 11326: a1 = 0 if a2 != 0\n 11328: a2 = u64 [s1 + 0x188]\n 11332: a1 = 0 if a2 != 0\n 11334: u8 [a0 + 0] = 0\n 11336: jump @214 if a1 == 0\n      : @180 (gas: 4)\n 11340: a0 = u64 [s1 + 0x178]\n 11344: i32 a0 = a0 + 0x44\n 11347: a1 = 0x20\n 11350: ra = 122, jump @0\n      : @181 [@dyn 61] (gas: 33)\n 11355: u8 [a0 + 31] = 0\n 11358: u8 [a0 + 30] = 0\n 11361: u8 [a0 + 29] = 0\n 11364: u8 [a0 + 28] = 0\n 11367: u8 [a0 + 27] = 0\n 11370: u8 [a0 + 26] = 0\n 11373: u8 [a0 + 25] = 0\n 11376: u8 [a0 + 24] = 0\n 11379: u8 [a0 + 23] = 0x64\n 11383: t0 = 0x61\n 11386: u8 [a0 + 0x16] = t0\n 11389: u8 [a0 + 21] = 0x6f\n 11393: u8 [a0 + 20] = 0x6c\n 11397: u8 [a0 + 19] = 0x70\n 11401: a4 = 0x75\n 11404: u8 [a0 + 0x12] = a4\n 11407: u8 [a0 + 17] = 0x20\n 11411: u8 [a0 + 16] = 0x6f\n 11415: a5 = 0x74\n 11418: u8 [a0 + 0xf] = a5\n 11421: u8 [a0 + 14] = 0x20\n 11425: u8 [a0 + 13] = 0x64\n 11429: u8 [a0 + 12] = 0x65\n 11433: u8 [a0 + 11] = 0x7a\n 11437: u8 [a0 + 10] = 0x69\n 11441: u8 [a0 + 9] = 0x72\n 11445: u8 [a0 + 8] = 0x6f\n 11449: u8 [a0 + 7] = 0x68\n 11453: u8 [a0 + 0x6] = a5\n 11456: u8 [a0 + 0x5] = a4\n 11459: u8 [a0 + 0x4] = t0\n 11462: u8 [a0 + 3] = 0x20\n 11466: fallthrough\n      : @182 (gas: 6)\n 11467: u8 [a0 + 0x2] = a5\n 11470: u8 [a0 + 1] = 0x6f\n 11474: u8 [a0 + 0] = 0x4e\n 11477: a1 = 0x64\n 11480: a0 = u64 [s1 + 0x178]\n 11484: ra = 124, jump @0\n      : @183 [@dyn 62] (gas: 5)\n 11489: i32 a1 = a0 + 0\n 11491: a0 = 0x1\n 11494: a2 = 0x64\n 11497: ecalli 8 // 'seal_return'\n 11499: fallthrough\n      : @184 (gas: 1)\n 11500: jump @186 if a0 == 769519883\n      : @185 (gas: 1)\n 11507: jump @268\n      : @186 (gas: 11)\n 11510: a0 = sp + 0xffffffffffffffe0\n 11513: a0 = a0 & 0xffffffffffffffe0\n 11516: u64 [s1 + 0x190] = a0\n 11520: sp = a0\n 11522: u64 [a0 + 24] = 0\n 11525: u64 [a0 + 16] = 0\n 11528: u64 [a0 + 8] = 0\n 11531: u64 [a0 + 0] = 0\n 11533: i32 a0 = a0 + 0\n 11535: ecalli 11 // 'value_transferred'\n 11537: fallthrough\n      : @187 (gas: 9)\n 11538: a3 = u64 [s1 + 0x190]\n 11542: a0 = u64 [a3 + 0x10]\n 11545: a1 = u64 [a3 + 0x18]\n 11548: a2 = u64 [a3 + 0x8]\n 11551: a3 = u64 [a3]\n 11553: a1 = a1 | a2\n 11556: a0 = a0 | a3\n 11559: a0 = a0 | a1\n 11562: jump @189 if a0 == 0\n      : @188 (gas: 1)\n 11565: jump @268\n      : @189 (gas: 3)\n 11568: a0 = u64 [s1 + 0x198]\n 11572: a0 = i32 [a0]\n 11574: jump @191 if a0 >u 67\n      : @190 (gas: 1)\n 11578: jump @268\n      : @191 (gas: 31)\n 11581: a0 = s1 + 0x1000\n 11585: i32 a0 = a0 + 0xfffffffffffffba0\n 11589: a1 = 0x4\n 11592: ecalli 1 // 'call_data_load'\n 11594: a1 = s1 + 0x7ff\n 11598: a1 = a1 + 0x139\n 11602: a0 = u64 [a1 + 0x268]\n 11606: u64 [s1 + 0x178] = a0\n 11610: a0 = u64 [a1 + 0x270]\n 11614: u64 [s1 + 0x170] = a0\n 11618: a0 = u64 [a1 + 0x278]\n 11622: u64 [s1 + 0x168] = a0\n 11626: a0 = u64 [a1 + 0x280]\n 11630: u64 [s1 + 0x160] = a0\n 11634: a0 = s1 + 0x1000\n 11638: i32 a0 = a0 + 0xfffffffffffffbc0\n 11642: a1 = 0x24\n 11645: ecalli 1 // 'call_data_load'\n 11647: a1 = s1 + 0x7ff\n 11651: a1 = a1 + 0x139\n 11655: a0 = u64 [a1 + 0x2a0]\n 11659: u64 [s1 + 0x198] = a0\n 11663: a0 = u64 [a1 + 0x298]\n 11667: u64 [s1 + 0x190] = a0\n 11671: a0 = u64 [a1 + 0x290]\n 11675: u64 [s1 + 0x188] = a0\n 11679: a0 = u64 [a1 + 0x288]\n 11683: u64 [s1 + 0x180] = a0\n 11687: a1 = 0x20\n 11690: a0 = 0\n 11692: ra = 126, jump @0\n      : @192 [@dyn 63] (gas: 71)\n 11697: a1 = u64 [s1 + 0x160]\n 11701: a1 = reverse a1\n 11703: a2 = u64 [s1 + 0x168]\n 11707: a2 = reverse a2\n 11709: a3 = u64 [s1 + 0x170]\n 11713: a3 = reverse a3\n 11715: a4 = u64 [s1 + 0x178]\n 11719: a4 = reverse a4\n 11721: a5 = a4 >> 0x38\n 11724: u8 [a0 + 0x1f] = a5\n 11727: a5 = a4 >> 0x30\n 11730: u8 [a0 + 0x1e] = a5\n 11733: a5 = a4 >> 0x28\n 11736: u8 [a0 + 0x1d] = a5\n 11739: a5 = a4 >> 0x20\n 11742: u8 [a0 + 0x1c] = a5\n 11745: a5 = a4 >> 0x18\n 11748: u8 [a0 + 0x1b] = a5\n 11751: a5 = a4 >> 0x10\n 11754: u8 [a0 + 0x1a] = a5\n 11757: a5 = a4 >> 0x8\n 11760: u8 [a0 + 0x19] = a5\n 11763: u8 [a0 + 0x18] = a4\n 11766: a4 = a3 >> 0x38\n 11769: u8 [a0 + 0x17] = a4\n 11772: a4 = a3 >> 0x30\n 11775: u8 [a0 + 0x16] = a4\n 11778: a4 = a3 >> 0x28\n 11781: u8 [a0 + 0x15] = a4\n 11784: a4 = a3 >> 0x20\n 11787: u8 [a0 + 0x14] = a4\n 11790: a4 = a3 >> 0x18\n 11793: u8 [a0 + 0x13] = a4\n 11796: a4 = a3 >> 0x10\n 11799: u8 [a0 + 0x12] = a4\n 11802: a4 = a3 >> 0x8\n 11805: u8 [a0 + 0x11] = a4\n 11808: u8 [a0 + 0x10] = a3\n 11811: a3 = a2 >> 0x38\n 11814: u8 [a0 + 0xf] = a3\n 11817: a3 = a2 >> 0x30\n 11820: u8 [a0 + 0xe] = a3\n 11823: a3 = a2 >> 0x28\n 11826: u8 [a0 + 0xd] = a3\n 11829: a3 = a2 >> 0x20\n 11832: u8 [a0 + 0xc] = a3\n 11835: a3 = a2 >> 0x18\n 11838: u8 [a0 + 0xb] = a3\n 11841: a3 = a2 >> 0x10\n 11844: u8 [a0 + 0xa] = a3\n 11847: a3 = a2 >> 0x8\n 11850: u8 [a0 + 0x9] = a3\n 11853: u8 [a0 + 0x8] = a2\n 11856: a2 = a1 >> 0x38\n 11859: u8 [a0 + 0x7] = a2\n 11862: a2 = a1 >> 0x30\n 11865: u8 [a0 + 0x6] = a2\n 11868: a2 = a1 >> 0x28\n 11871: u8 [a0 + 0x5] = a2\n 11874: a2 = a1 >> 0x20\n 11877: u8 [a0 + 0x4] = a2\n 11880: a2 = a1 >> 0x18\n 11883: u8 [a0 + 0x3] = a2\n 11886: a2 = a1 >> 0x10\n 11889: u8 [a0 + 0x2] = a2\n 11892: a2 = a1 >> 0x8\n 11895: u8 [a0 + 0x1] = a2\n 11898: u8 [a0] = a1\n 11900: a0 = 0x20\n 11903: a1 = 0x20\n 11906: ra = 128, jump @0\n      : @193 [@dyn 64] (gas: 35)\n 11912: u8 [a0 + 31] = 0\n 11915: u8 [a0 + 30] = 0\n 11918: u8 [a0 + 29] = 0\n 11921: u8 [a0 + 28] = 0\n 11924: u8 [a0 + 27] = 0\n 11927: u8 [a0 + 26] = 0\n 11930: u8 [a0 + 25] = 0\n 11933: u8 [a0 + 24] = 0\n 11936: u8 [a0 + 23] = 0\n 11939: u8 [a0 + 22] = 0\n 11942: u8 [a0 + 21] = 0\n 11945: u8 [a0 + 20] = 0\n 11948: u8 [a0 + 19] = 0\n 11951: u8 [a0 + 18] = 0\n 11954: u8 [a0 + 17] = 0\n 11957: u8 [a0 + 16] = 0\n 11960: u8 [a0 + 15] = 0\n 11963: u8 [a0 + 14] = 0\n 11966: u8 [a0 + 13] = 0\n 11969: u8 [a0 + 12] = 0\n 11972: u8 [a0 + 11] = 0\n 11975: u8 [a0 + 10] = 0\n 11978: u8 [a0 + 9] = 0\n 11981: u8 [a0 + 8] = 0\n 11984: u8 [a0 + 7] = 0\n 11987: u8 [a0 + 6] = 0\n 11990: u8 [a0 + 5] = 0\n 11993: u8 [a0 + 4] = 0\n 11996: u8 [a0 + 3] = 0\n 11999: u8 [a0 + 2] = 0\n 12002: u8 [a0 + 1] = 0\n 12005: u8 [a0 + 0] = 0\n 12007: a1 = 0x40\n 12010: a0 = 0\n 12012: ra = 130, jump @0\n      : @194 [@dyn 65] (gas: 38)\n 12018: a1 = sp + 0xffffffffffffffe0\n 12021: a1 = a1 & 0xffffffffffffffe0\n 12024: u64 [s1 + 0x178] = a1\n 12028: sp = a1\n 12030: i32 a0 = a0 + 0\n 12032: i32 a2 = a1 + 0\n 12034: a1 = 0x40\n 12037: ecalli 6 // 'hash_keccak_256'\n 12039: a0 = u64 [s1 + 0x178]\n 12043: a4 = u64 [a0 + 0x18]\n 12046: a3 = u64 [a0 + 0x10]\n 12049: a2 = u64 [a0 + 0x8]\n 12052: a1 = u64 [a0]\n 12054: a0 = s1 + 0x7ff\n 12058: a0 = a0 + 0x139\n 12062: u64 [s1 + 0x160] = a4\n 12066: u64 [a0 + 0x280] = a4\n 12070: u64 [s1 + 0x168] = a3\n 12074: u64 [a0 + 0x278] = a3\n 12078: u64 [s1 + 0x170] = a2\n 12082: u64 [a0 + 0x270] = a2\n 12086: u64 [s1 + 0x178] = a1\n 12090: u64 [a0 + 0x268] = a1\n 12094: u64 [a0 + 672] = 0\n 12098: u64 [a0 + 664] = 0\n 12102: u64 [a0 + 656] = 0\n 12106: u64 [a0 + 648] = 0\n 12110: u32 [a0 + 680] = 0x20\n 12115: a0 = s1 + 0x1000\n 12119: i32 a1 = a0 + 0xfffffffffffffba0\n 12123: a0 = s1 + 0x1000\n 12127: i32 a3 = a0 + 0xfffffffffffffbc0\n 12131: a0 = s1 + 0x1000\n 12135: i32 a4 = a0 + 0xfffffffffffffbe0\n 12139: a2 = 0xffffffffffffffff\n 12142: a0 = 0\n 12144: ecalli 5 // 'get_storage'\n 12146: fallthrough\n      : @195 (gas: 26)\n 12147: t2 = u64 [s1 + 0x180]\n 12151: a5 = u64 [s1 + 0x188]\n 12155: t1 = u64 [s1 + 0x190]\n 12159: t0 = u64 [s1 + 0x198]\n 12163: a3 = s1 + 0x7ff\n 12167: a3 = a3 + 0x139\n 12171: a0 = u64 [a3 + 0x2a0]\n 12175: a1 = u64 [a3 + 0x298]\n 12179: a2 = u64 [a3 + 0x290]\n 12183: a3 = u64 [a3 + 0x288]\n 12187: a0 = reverse a0\n 12189: a1 = reverse a1\n 12191: a2 = reverse a2\n 12193: a3 = reverse a3\n 12195: a4 = a5 ^ a1\n 12198: a1 = a5 <u a1\n 12201: a0 = t2 <u a0\n 12204: a0 = a1 if a4 != 0\n 12207: a1 = t0 ^ a3\n 12210: a3 = t0 <u a3\n 12213: a4 = t1 <u a2\n 12216: a4 = a3 if a1 != 0\n 12219: a2 = t1 ^ a2\n 12222: a1 = a1 | a2\n 12225: a0 = a4 if a1 != 0\n 12228: jump @197 if a0 != 0\n      : @196 (gas: 1)\n 12231: jump @269\n      : @197 (gas: 20)\n 12234: a0 = u64 [s1 + 0x160]\n 12238: a3 = reverse a0\n 12240: a0 = u64 [s1 + 0x168]\n 12244: a0 = reverse a0\n 12246: a1 = u64 [s1 + 0x170]\n 12250: a1 = reverse a1\n 12252: a2 = u64 [s1 + 0x178]\n 12256: a2 = reverse a2\n 12258: u64 [s1 + 0x1a0] = t2\n 12262: u64 [s1 + 0x1a8] = a5\n 12266: u64 [s1 + 0x1d8] = a2\n 12270: u64 [s1 + 0x1b0] = t1\n 12274: u64 [s1 + 0x1d0] = a1\n 12278: u64 [s1 + 0x1b8] = t0\n 12282: u64 [s1 + 0x1c8] = a0\n 12286: a0 = s1 + 0x1e0\n 12290: a1 = s1 + 0x1c0\n 12294: a2 = s1 + 0x1a0\n 12298: u64 [s1 + 0x1c0] = a3\n 12302: ra = 132, jump @292\n      : @198 [@dyn 66] (gas: 131)\n 12308: a0 = u64 [s1 + 0x1f8]\n 12312: u64 [s1 + 0x198] = a0\n 12316: a1 = u64 [s1 + 0x1f0]\n 12320: u64 [s1 + 0x180] = a1\n 12324: a2 = u64 [s1 + 0x1e8]\n 12328: u64 [s1 + 0x190] = a2\n 12332: a3 = u64 [s1 + 0x1e0]\n 12336: u64 [s1 + 0x188] = a3\n 12340: a0 = reverse a0\n 12342: a1 = reverse a1\n 12344: a2 = reverse a2\n 12346: a3 = reverse a3\n 12348: a4 = s1 + 0x7ff\n 12352: a4 = a4 + 0x139\n 12356: u64 [a4 + 0x280] = a3\n 12360: u64 [a4 + 0x278] = a2\n 12364: u64 [a4 + 0x270] = a1\n 12368: u64 [a4 + 0x268] = a0\n 12372: u64 [a4 + 672] = 0\n 12376: u64 [a4 + 664] = 0\n 12380: u64 [a4 + 656] = 0\n 12384: u64 [a4 + 648] = 0\n 12388: u32 [a4 + 680] = 0x20\n 12393: a0 = s1 + 0x1000\n 12397: i32 a1 = a0 + 0xfffffffffffffba0\n 12401: a0 = s1 + 0x1000\n 12405: i32 a3 = a0 + 0xfffffffffffffbc0\n 12409: a0 = s1 + 0x1000\n 12413: i32 a4 = a0 + 0xfffffffffffffbe0\n 12417: a2 = 0xffffffffffffffff\n 12420: a0 = 0\n 12422: ecalli 5 // 'get_storage'\n 12424: a3 = s1 + 0x7ff\n 12428: a3 = a3 + 0x139\n 12432: a0 = u64 [a3 + 0x2a0]\n 12436: u64 [s1 + 0x178] = a0\n 12440: a0 = u64 [a3 + 0x298]\n 12444: u64 [s1 + 0x170] = a0\n 12448: a0 = u64 [s1 + 0x188]\n 12452: a0 = a0 + 0x1\n 12455: a1 = reverse a0\n 12457: u64 [a3 + 0x280] = a1\n 12461: a1 = a0 <u 0x1\n 12464: a2 = u64 [s1 + 0x190]\n 12468: a1 = a1 + a2\n 12471: a0 = a0 | a1\n 12474: a0 = a0 <u 0x1\n 12477: a2 = u64 [s1 + 0x180]\n 12481: a0 = a0 + a2\n 12484: a1 = reverse a1\n 12486: u64 [a3 + 0x278] = a1\n 12490: a1 = reverse a0\n 12492: u64 [a3 + 0x270] = a1\n 12496: a1 = u64 [a3 + 0x290]\n 12500: u64 [s1 + 0x160] = a1\n 12504: a0 = a0 <u a2\n 12507: a1 = u64 [s1 + 0x198]\n 12511: a0 = a0 + a1\n 12514: a0 = reverse a0\n 12516: u64 [a3 + 0x268] = a0\n 12520: a0 = u64 [a3 + 0x288]\n 12524: u64 [s1 + 0x168] = a0\n 12528: u64 [a3 + 672] = 0\n 12532: u64 [a3 + 664] = 0\n 12536: u64 [a3 + 656] = 0\n 12540: u64 [a3 + 648] = 0\n 12544: u32 [a3 + 680] = 0x20\n 12549: a0 = s1 + 0x1000\n 12553: i32 a1 = a0 + 0xfffffffffffffba0\n 12557: a0 = s1 + 0x1000\n 12561: i32 a3 = a0 + 0xfffffffffffffbc0\n 12565: a0 = s1 + 0x1000\n 12569: i32 a4 = a0 + 0xfffffffffffffbe0\n 12573: a2 = 0xffffffffffffffff\n 12576: a0 = 0\n 12578: ecalli 5 // 'get_storage'\n 12580: a1 = u64 [s1 + 0x188]\n 12584: a0 = a1 + 0x2\n 12587: a1 = a0 <u a1\n 12590: a3 = u64 [s1 + 0x190]\n 12594: a2 = a3 + a1\n 12597: a3 = a2 <u a3\n 12600: a3 = a1 if a1 == 0\n 12603: a1 = u64 [s1 + 0x180]\n 12607: a3 = a3 + a1\n 12610: a1 = a3 <u a1\n 12613: a4 = u64 [s1 + 0x198]\n 12617: a1 = a1 + a4\n 12620: a0 = reverse a0\n 12622: a4 = s1 + 0x7ff\n 12626: a4 = a4 + 0x139\n 12630: u64 [a4 + 0x280] = a0\n 12634: a0 = reverse a2\n 12636: u64 [a4 + 0x278] = a0\n 12640: a0 = reverse a3\n 12642: u64 [a4 + 0x270] = a0\n 12646: a0 = u32 [a4 + 0x294]\n 12650: u64 [s1 + 0x188] = a0\n 12654: a0 = reverse a1\n 12656: u64 [a4 + 0x268] = a0\n 12660: a0 = u64 [a4 + 0x2a0]\n 12664: u64 [s1 + 0x198] = a0\n 12668: u32 [a4 + 680] = 0x20\n 12673: a0 = u64 [a4 + 0x298]\n 12677: u64 [s1 + 0x190] = a0\n 12681: u64 [a4 + 672] = 0\n 12685: u64 [a4 + 664] = 0\n 12689: u64 [a4 + 656] = 0\n 12693: u64 [a4 + 648] = 0\n 12697: a0 = s1 + 0x1000\n 12701: i32 a1 = a0 + 0xfffffffffffffba0\n 12705: a0 = s1 + 0x1000\n 12709: i32 a3 = a0 + 0xfffffffffffffbc0\n 12713: a0 = s1 + 0x1000\n 12717: i32 a4 = a0 + 0xfffffffffffffbe0\n 12721: a2 = 0xffffffffffffffff\n 12724: a0 = 0\n 12726: ecalli 5 // 'get_storage'\n 12728: a1 = s1 + 0x7ff\n 12732: a1 = a1 + 0x139\n 12736: a0 = u64 [a1 + 0x2a0]\n 12740: u64 [s1 + 0x150] = a0\n 12744: a0 = u64 [a1 + 0x298]\n 12748: u64 [s1 + 0x148] = a0\n 12752: a0 = u64 [a1 + 0x290]\n 12756: u64 [s1 + 0x138] = a0\n 12760: a0 = u64 [a1 + 0x288]\n 12764: u64 [s1 + 0x140] = a0\n 12768: a0 = 0x40\n 12771: a1 = 0x20\n 12774: ra = 134, jump @0\n      : @199 [@dyn 67] (gas: 100)\n 12780: a1 = u8 [a0 + 0x11]\n 12783: a2 = u8 [a0 + 0x10]\n 12786: a3 = u8 [a0 + 0x12]\n 12789: a4 = u8 [a0 + 0x13]\n 12792: a1 = a1 << 0x8\n 12795: a1 = a1 | a2\n 12798: a3 = a3 << 0x10\n 12801: a4 = a4 << 0x18\n 12804: a3 = a3 | a4\n 12807: a1 = a1 | a3\n 12810: a2 = u8 [a0 + 0x15]\n 12813: a3 = u8 [a0 + 0x14]\n 12816: a4 = u8 [a0 + 0x16]\n 12819: a5 = u8 [a0 + 0x17]\n 12822: a2 = a2 << 0x8\n 12825: a2 = a2 | a3\n 12828: a4 = a4 << 0x10\n 12831: a5 = a5 << 0x18\n 12834: a4 = a4 | a5\n 12837: a2 = a2 | a4\n 12840: a2 = a2 << 0x20\n 12843: t0 = a2 | a1\n 12846: a2 = u8 [a0 + 0x1]\n 12849: a3 = u8 [a0]\n 12851: a4 = u8 [a0 + 0x2]\n 12854: a5 = u8 [a0 + 0x3]\n 12857: a2 = a2 << 0x8\n 12860: a2 = a2 | a3\n 12863: a4 = a4 << 0x10\n 12866: a5 = a5 << 0x18\n 12869: a4 = a4 | a5\n 12872: a2 = a2 | a4\n 12875: a3 = u8 [a0 + 0x5]\n 12878: a4 = u8 [a0 + 0x4]\n 12881: a5 = u8 [a0 + 0x6]\n 12884: a1 = u8 [a0 + 0x7]\n 12887: a3 = a3 << 0x8\n 12890: a3 = a3 | a4\n 12893: a5 = a5 << 0x10\n 12896: a1 = a1 << 0x18\n 12899: a1 = a1 | a5\n 12902: a1 = a1 | a3\n 12905: a1 = a1 << 0x20\n 12908: t1 = a1 | a2\n 12911: a1 = u8 [a0 + 0x19]\n 12914: a3 = u8 [a0 + 0x18]\n 12917: a4 = u8 [a0 + 0x1a]\n 12920: a5 = u8 [a0 + 0x1b]\n 12923: a1 = a1 << 0x8\n 12926: a1 = a1 | a3\n 12929: a4 = a4 << 0x10\n 12932: a5 = a5 << 0x18\n 12935: a4 = a4 | a5\n 12938: a1 = a1 | a4\n 12941: a3 = u8 [a0 + 0x1d]\n 12944: a4 = u8 [a0 + 0x1c]\n 12947: a5 = u8 [a0 + 0x1e]\n 12950: a2 = u8 [a0 + 0x1f]\n 12953: a3 = a3 << 0x8\n 12956: a3 = a3 | a4\n 12959: a5 = a5 << 0x10\n 12962: a2 = a2 << 0x18\n 12965: a2 = a2 | a5\n 12968: a2 = a2 | a3\n 12971: a2 = a2 << 0x20\n 12974: a3 = a2 | a1\n 12977: a1 = u8 [a0 + 0x9]\n 12980: a2 = u8 [a0 + 0x8]\n 12983: a4 = u8 [a0 + 0xa]\n 12986: a5 = u8 [a0 + 0xb]\n 12989: a1 = a1 << 0x8\n 12992: a1 = a1 | a2\n 12995: a4 = a4 << 0x10\n 12998: a5 = a5 << 0x18\n 13001: a4 = a4 | a5\n 13004: a1 = a1 | a4\n 13007: a2 = u8 [a0 + 0xd]\n 13010: a4 = u8 [a0 + 0xc]\n 13013: a5 = u8 [a0 + 0xe]\n 13016: a0 = u8 [a0 + 0xf]\n 13019: a2 = a2 << 0x8\n 13022: a2 = a2 | a4\n 13025: a5 = a5 << 0x10\n 13028: a0 = a0 << 0x18\n 13031: a0 = a0 | a5\n 13034: a0 = a0 | a2\n 13037: a0 = a0 << 0x20\n 13040: a0 = a0 | a1\n 13043: a4 = reverse a0\n 13045: a2 = reverse a3\n 13047: a5 = reverse t1\n 13049: a3 = reverse t0\n 13051: a0 = a3 | a5\n 13054: a1 = a2 | a4\n 13057: a1 = a1 | a0\n 13060: a1 = a1 >> 0x20\n 13063: a0 = a0 | a4\n 13066: a0 = a0 << 0x20\n 13069: a0 = a0 | a1\n 13072: jump @214 if a0 != 0\n      : @200 (gas: 8)\n 13076: i32 a0 = a2 + 0\n 13078: a1 = 0x20\n 13081: u64 [s1 + 0x120] = a0\n 13085: u64 [s1 + 0x180] = a2\n 13089: u64 [s1 + 0x158] = a3\n 13093: u64 [s1 + 0x130] = a4\n 13097: u64 [s1 + 0x128] = a5\n 13101: ra = 136, jump @0\n      : @201 [@dyn 68] (gas: 75)\n 13107: a3 = u64 [s1 + 0x170]\n 13111: u8 [a0 + 0x10] = a3\n 13114: a2 = u64 [s1 + 0x160]\n 13118: a1 = a2 >> 0x38\n 13121: u8 [a0 + 0xf] = a1\n 13124: a1 = a2 >> 0x30\n 13127: u8 [a0 + 0xe] = a1\n 13130: a1 = a2 >> 0x28\n 13133: u8 [a0 + 0xd] = a1\n 13136: a1 = a2 >> 0x20\n 13139: u8 [a0 + 0xc] = a1\n 13142: a1 = a2 >> 0x18\n 13145: u8 [a0 + 0xb] = a1\n 13148: a1 = a2 >> 0x10\n 13151: u8 [a0 + 0xa] = a1\n 13154: a1 = a2 >> 0x8\n 13157: u8 [a0 + 0x9] = a1\n 13160: u8 [a0 + 0x8] = a2\n 13163: a2 = u64 [s1 + 0x168]\n 13167: a1 = a2 >> 0x38\n 13170: u8 [a0 + 0x7] = a1\n 13173: a1 = a2 >> 0x30\n 13176: u8 [a0 + 0x6] = a1\n 13179: a1 = a2 >> 0x28\n 13182: u8 [a0 + 0x5] = a1\n 13185: a1 = a2 >> 0x20\n 13188: u8 [a0 + 0x4] = a1\n 13191: a1 = a2 >> 0x18\n 13194: u8 [a0 + 0x3] = a1\n 13197: a1 = a2 >> 0x10\n 13200: u8 [a0 + 0x2] = a1\n 13203: a1 = a2 >> 0x8\n 13206: u8 [a0 + 0x1] = a1\n 13209: u8 [a0] = a2\n 13211: a2 = u64 [s1 + 0x178]\n 13215: u8 [a0 + 0x18] = a2\n 13218: a1 = a3 >> 0x38\n 13221: u8 [a0 + 0x17] = a1\n 13224: a1 = a3 >> 0x30\n 13227: u8 [a0 + 0x16] = a1\n 13230: a1 = a3 >> 0x28\n 13233: u8 [a0 + 0x15] = a1\n 13236: a1 = a3 >> 0x20\n 13239: u8 [a0 + 0x14] = a1\n 13242: a1 = a3 >> 0x18\n 13245: u8 [a0 + 0x13] = a1\n 13248: a1 = a3 >> 0x10\n 13251: u8 [a0 + 0x12] = a1\n 13254: a1 = a3 >> 0x8\n 13257: t0 = u64 [s1 + 0x158]\n 13261: u8 [a0 + 0x11] = a1\n 13264: a1 = a2 >> 0x38\n 13267: u8 [a0 + 0x1f] = a1\n 13270: a1 = a2 >> 0x30\n 13273: u8 [a0 + 0x1e] = a1\n 13276: a1 = a2 >> 0x28\n 13279: u8 [a0 + 0x1d] = a1\n 13282: a1 = a2 >> 0x20\n 13285: u8 [a0 + 0x1c] = a1\n 13288: a1 = a2 >> 0x18\n 13291: u8 [a0 + 0x1b] = a1\n 13294: a1 = a2 >> 0x10\n 13297: u8 [a0 + 0x1a] = a1\n 13300: a1 = a2 >> 0x8\n 13303: a2 = u64 [s1 + 0x130]\n 13307: a4 = u64 [s1 + 0x128]\n 13311: a4 = a4 | a2\n 13314: a5 = 0x100000000\n 13324: a2 = 0xffffffe0\n 13334: a3 = u64 [s1 + 0x180]\n 13338: a2 = a3 <u a2\n 13341: a2 = 0 if t0 != 0\n 13343: a2 = 0 if a4 != 0\n 13345: u8 [a0 + 0x19] = a1\n 13348: jump @214 if a2 == 0\n      : @202 (gas: 9)\n 13352: a0 = u64 [s1 + 0x188]\n 13356: a0 = a0 << 0x20\n 13359: u64 [s1 + 0x170] = a0\n 13363: a0 = u64 [s1 + 0x120]\n 13367: i32 a0 = a0 + 0x20\n 13370: a1 = 0x20\n 13373: u64 [s1 + 0x188] = a4\n 13377: u64 [s1 + 0x178] = a5\n 13381: ra = 138, jump @0\n      : @203 [@dyn 69] (gas: 65)\n 13387: a3 = u64 [s1 + 0x190]\n 13391: u8 [a0 + 0x10] = a3\n 13394: a2 = u64 [s1 + 0x170]\n 13398: a1 = a2 >> 0x38\n 13401: u8 [a0 + 0xf] = a1\n 13404: a1 = a2 >> 0x30\n 13407: u8 [a0 + 0xe] = a1\n 13410: a1 = a2 >> 0x28\n 13413: u8 [a0 + 0xd] = a1\n 13416: a1 = a2 >> 0x20\n 13419: u8 [a0 + 0xc] = a1\n 13422: a1 = a2 >> 0x18\n 13425: u8 [a0 + 0xb] = a1\n 13428: a1 = a2 >> 0x10\n 13431: u8 [a0 + 0xa] = a1\n 13434: a1 = a2 >> 0x8\n 13437: u8 [a0 + 0x9] = a1\n 13440: u8 [a0 + 0x8] = a2\n 13443: u8 [a0 + 7] = 0\n 13446: u8 [a0 + 6] = 0\n 13449: u8 [a0 + 5] = 0\n 13452: u8 [a0 + 4] = 0\n 13455: u8 [a0 + 3] = 0\n 13458: u8 [a0 + 2] = 0\n 13461: u8 [a0 + 1] = 0\n 13464: u8 [a0 + 0] = 0\n 13466: a2 = u64 [s1 + 0x198]\n 13470: u8 [a0 + 0x18] = a2\n 13473: a1 = a3 >> 0x38\n 13476: u8 [a0 + 0x17] = a1\n 13479: a1 = a3 >> 0x30\n 13482: u8 [a0 + 0x16] = a1\n 13485: a1 = a3 >> 0x28\n 13488: u8 [a0 + 0x15] = a1\n 13491: a1 = a3 >> 0x20\n 13494: u8 [a0 + 0x14] = a1\n 13497: a1 = a3 >> 0x18\n 13500: u8 [a0 + 0x13] = a1\n 13503: a1 = a3 >> 0x10\n 13506: u8 [a0 + 0x12] = a1\n 13509: a1 = a3 >> 0x8\n 13512: u8 [a0 + 0x11] = a1\n 13515: a1 = a2 >> 0x38\n 13518: u8 [a0 + 0x1f] = a1\n 13521: a1 = a2 >> 0x30\n 13524: u8 [a0 + 0x1e] = a1\n 13527: a1 = a2 >> 0x28\n 13530: u8 [a0 + 0x1d] = a1\n 13533: a1 = a2 >> 0x20\n 13536: u8 [a0 + 0x1c] = a1\n 13539: a1 = a2 >> 0x18\n 13542: u8 [a0 + 0x1b] = a1\n 13545: a1 = a2 >> 0x10\n 13548: u8 [a0 + 0x1a] = a1\n 13551: a1 = a2 >> 0x8\n 13554: a2 = u64 [s1 + 0x178]\n 13558: a2 = a2 + 0xffffffffffffffc0\n 13561: a3 = u64 [s1 + 0x180]\n 13565: a2 = a3 <u a2\n 13568: a3 = u64 [s1 + 0x158]\n 13572: a2 = 0 if a3 != 0\n 13574: a3 = u64 [s1 + 0x188]\n 13578: a2 = 0 if a3 != 0\n 13580: u8 [a0 + 0x19] = a1\n 13583: jump @214 if a2 == 0\n      : @204 (gas: 4)\n 13587: a0 = u64 [s1 + 0x120]\n 13591: i32 a0 = a0 + 0x40\n 13594: a1 = 0x20\n 13597: ra = 140, jump @0\n      : @205 [@dyn 70] (gas: 67)\n 13603: a3 = u64 [s1 + 0x148]\n 13607: u8 [a0 + 0x10] = a3\n 13610: a2 = u64 [s1 + 0x138]\n 13614: a1 = a2 >> 0x38\n 13617: u8 [a0 + 0xf] = a1\n 13620: a1 = a2 >> 0x30\n 13623: u8 [a0 + 0xe] = a1\n 13626: a1 = a2 >> 0x28\n 13629: u8 [a0 + 0xd] = a1\n 13632: a1 = a2 >> 0x20\n 13635: u8 [a0 + 0xc] = a1\n 13638: a1 = a2 >> 0x18\n 13641: u8 [a0 + 0xb] = a1\n 13644: a1 = a2 >> 0x10\n 13647: u8 [a0 + 0xa] = a1\n 13650: a1 = a2 >> 0x8\n 13653: u8 [a0 + 0x9] = a1\n 13656: u8 [a0 + 0x8] = a2\n 13659: a2 = u64 [s1 + 0x140]\n 13663: a1 = a2 >> 0x38\n 13666: u8 [a0 + 0x7] = a1\n 13669: a1 = a2 >> 0x30\n 13672: u8 [a0 + 0x6] = a1\n 13675: a1 = a2 >> 0x28\n 13678: u8 [a0 + 0x5] = a1\n 13681: a1 = a2 >> 0x20\n 13684: u8 [a0 + 0x4] = a1\n 13687: a1 = a2 >> 0x18\n 13690: u8 [a0 + 0x3] = a1\n 13693: a1 = a2 >> 0x10\n 13696: u8 [a0 + 0x2] = a1\n 13699: a1 = a2 >> 0x8\n 13702: u8 [a0 + 0x1] = a1\n 13705: u8 [a0] = a2\n 13707: a2 = u64 [s1 + 0x150]\n 13711: u8 [a0 + 0x18] = a2\n 13714: a1 = a3 >> 0x38\n 13717: u8 [a0 + 0x17] = a1\n 13720: a1 = a3 >> 0x30\n 13723: u8 [a0 + 0x16] = a1\n 13726: a1 = a3 >> 0x28\n 13729: u8 [a0 + 0x15] = a1\n 13732: a1 = a3 >> 0x20\n 13735: u8 [a0 + 0x14] = a1\n 13738: a1 = a3 >> 0x18\n 13741: u8 [a0 + 0x13] = a1\n 13744: a1 = a3 >> 0x10\n 13747: u8 [a0 + 0x12] = a1\n 13750: a1 = a3 >> 0x8\n 13753: u8 [a0 + 0x11] = a1\n 13756: a1 = a2 >> 0x38\n 13759: u8 [a0 + 0x1f] = a1\n 13762: a1 = a2 >> 0x30\n 13765: u8 [a0 + 0x1e] = a1\n 13768: a1 = a2 >> 0x28\n 13771: u8 [a0 + 0x1d] = a1\n 13774: a1 = a2 >> 0x20\n 13777: u8 [a0 + 0x1c] = a1\n 13780: a1 = a2 >> 0x18\n 13783: u8 [a0 + 0x1b] = a1\n 13786: a1 = a2 >> 0x10\n 13789: u8 [a0 + 0x1a] = a1\n 13792: a1 = a2 >> 0x8\n 13795: u8 [a0 + 0x19] = a1\n 13798: a1 = 0x60\n 13801: a0 = u64 [s1 + 0x120]\n 13805: ra = 142, jump @0\n      : @206 [@dyn 71] (gas: 5)\n 13811: i32 a1 = a0 + 0\n 13813: a2 = 0x60\n 13816: a0 = 0\n 13818: ecalli 8 // 'seal_return'\n 13820: fallthrough\n      : @207 (gas: 11)\n 13821: a3 = reverse a3\n 13823: u64 [s1 + 0x198] = a3\n 13827: a2 = reverse a2\n 13829: u64 [s1 + 0x90] = a2\n 13833: a1 = reverse a1\n 13835: u64 [s1 + 0x88] = a1\n 13839: a0 = reverse a0\n 13841: u64 [s1 + 0x80] = a0\n 13845: a1 = 0x20\n 13848: a0 = 0\n 13850: ra = 144, jump @0\n      : @208 [@dyn 72] (gas: 67)\n 13856: a1 = u64 [s1 + 0x140]\n 13860: u8 [a0 + 0x8] = a1\n 13863: a1 = u64 [s1 + 0xc8]\n 13867: u8 [a0 + 0x7] = a1\n 13870: a1 = u64 [s1 + 0xc0]\n 13874: u8 [a0 + 0x6] = a1\n 13877: a1 = u64 [s1 + 0xb8]\n 13881: u8 [a0 + 0x5] = a1\n 13884: a1 = u64 [s1 + 0xb0]\n 13888: u8 [a0 + 0x4] = a1\n 13891: a1 = u64 [s1 + 0xa8]\n 13895: u8 [a0 + 0x3] = a1\n 13898: a1 = u64 [s1 + 0xa0]\n 13902: u8 [a0 + 0x2] = a1\n 13905: a1 = u64 [s1 + 0x98]\n 13909: u8 [a0 + 0x1] = a1\n 13912: a1 = u64 [s1 + 0x150]\n 13916: u8 [a0] = a1\n 13918: a1 = u64 [s1 + 0x148]\n 13922: u8 [a0 + 0x10] = a1\n 13925: a1 = u64 [s1 + 0x100]\n 13929: u8 [a0 + 0xf] = a1\n 13932: a1 = u64 [s1 + 0xf8]\n 13936: u8 [a0 + 0xe] = a1\n 13939: a1 = u64 [s1 + 0xf0]\n 13943: u8 [a0 + 0xd] = a1\n 13946: a1 = u64 [s1 + 0xe8]\n 13950: u8 [a0 + 0xc] = a1\n 13953: a1 = u64 [s1 + 0xe0]\n 13957: u8 [a0 + 0xb] = a1\n 13960: a1 = u64 [s1 + 0xd8]\n 13964: u8 [a0 + 0xa] = a1\n 13967: a1 = u64 [s1 + 0xd0]\n 13971: u8 [a0 + 0x9] = a1\n 13974: a1 = u64 [s1 + 0x158]\n 13978: u8 [a0 + 0x18] = a1\n 13981: a1 = u64 [s1 + 0x138]\n 13985: u8 [a0 + 0x17] = a1\n 13988: a1 = u64 [s1 + 0x130]\n 13992: u8 [a0 + 0x16] = a1\n 13995: a1 = u64 [s1 + 0x128]\n 13999: u8 [a0 + 0x15] = a1\n 14002: a1 = u64 [s1 + 0x120]\n 14006: u8 [a0 + 0x14] = a1\n 14009: a1 = u64 [s1 + 0x118]\n 14013: u8 [a0 + 0x13] = a1\n 14016: a1 = u64 [s1 + 0x110]\n 14020: u8 [a0 + 0x12] = a1\n 14023: a1 = u64 [s1 + 0x108]\n 14027: u8 [a0 + 0x11] = a1\n 14030: a1 = u64 [s1 + 0x190]\n 14034: u8 [a0 + 0x1f] = a1\n 14037: a1 = u64 [s1 + 0x188]\n 14041: u8 [a0 + 0x1e] = a1\n 14044: a1 = u64 [s1 + 0x180]\n 14048: u8 [a0 + 0x1d] = a1\n 14051: a1 = u64 [s1 + 0x178]\n 14055: u8 [a0 + 0x1c] = a1\n 14058: a1 = u64 [s1 + 0x170]\n 14062: u8 [a0 + 0x1b] = a1\n 14065: a1 = u64 [s1 + 0x168]\n 14069: u8 [a0 + 0x1a] = a1\n 14072: a1 = u64 [s1 + 0x160]\n 14076: u8 [a0 + 0x19] = a1\n 14079: a0 = 0x20\n 14082: a1 = 0x20\n 14085: ra = 146, jump @0\n      : @209 [@dyn 73] (gas: 35)\n 14091: u8 [a0 + 31] = 0\n 14094: u8 [a0 + 30] = 0\n 14097: u8 [a0 + 29] = 0\n 14100: u8 [a0 + 28] = 0\n 14103: u8 [a0 + 27] = 0\n 14106: u8 [a0 + 26] = 0\n 14109: u8 [a0 + 25] = 0\n 14112: u8 [a0 + 24] = 0\n 14115: u8 [a0 + 23] = 0\n 14118: u8 [a0 + 22] = 0\n 14121: u8 [a0 + 21] = 0\n 14124: u8 [a0 + 20] = 0\n 14127: u8 [a0 + 19] = 0\n 14130: u8 [a0 + 18] = 0\n 14133: u8 [a0 + 17] = 0\n 14136: u8 [a0 + 16] = 0\n 14139: u8 [a0 + 15] = 0\n 14142: u8 [a0 + 14] = 0\n 14145: u8 [a0 + 13] = 0\n 14148: u8 [a0 + 12] = 0\n 14151: u8 [a0 + 11] = 0\n 14154: u8 [a0 + 10] = 0\n 14157: u8 [a0 + 9] = 0\n 14160: u8 [a0 + 8] = 0\n 14163: u8 [a0 + 7] = 0\n 14166: u8 [a0 + 6] = 0\n 14169: u8 [a0 + 5] = 0\n 14172: u8 [a0 + 4] = 0\n 14175: u8 [a0 + 3] = 0\n 14178: u8 [a0 + 2] = 0\n 14181: u8 [a0 + 1] = 0\n 14184: u8 [a0 + 0] = 0\n 14186: a1 = 0x40\n 14189: a0 = 0\n 14191: ra = 148, jump @0\n      : @210 [@dyn 74] (gas: 42)\n 14197: a1 = sp + 0xffffffffffffffe0\n 14200: a1 = a1 & 0xffffffffffffffe0\n 14203: u64 [s1 + 0x190] = a1\n 14207: sp = a1\n 14209: i32 a0 = a0 + 0\n 14211: i32 a2 = a1 + 0\n 14213: a1 = 0x40\n 14216: ecalli 6 // 'hash_keccak_256'\n 14218: a3 = u64 [s1 + 0x190]\n 14222: a0 = u64 [a3 + 0x18]\n 14225: a1 = u64 [a3 + 0x10]\n 14228: a2 = u64 [a3 + 0x8]\n 14231: a4 = u64 [a3]\n 14233: t0 = reverse a0\n 14235: t1 = reverse a1\n 14237: t2 = reverse a2\n 14239: a2 = reverse a4\n 14241: a0 = u64 [s1 + 0x80]\n 14245: a4 = a0 <u 0x1\n 14248: a5 = u64 [s1 + 0x88]\n 14252: a4 = a5 - a4\n 14255: a5 = a5 | a0\n 14258: a1 = a0\n 14260: a5 = a5 <u 0x1\n 14263: a0 = u64 [s1 + 0x90]\n 14267: a3 = a0 - a5\n 14270: a5 = a0 <u a5\n 14273: a0 = u64 [s1 + 0x198]\n 14277: a5 = a0 - a5\n 14280: a0 = a1 + 0xffffffffffffffff\n 14283: u64 [s1 + 0x678] = a5\n 14287: u64 [s1 + 0x670] = a3\n 14291: u64 [s1 + 0x668] = a4\n 14295: u64 [s1 + 0x660] = a0\n 14299: u64 [s1 + 0x698] = a2\n 14303: u64 [s1 + 0x690] = t2\n 14307: u64 [s1 + 0x688] = t1\n 14311: a0 = s1 + 0x6a0\n 14315: a1 = s1 + 0x680\n 14319: a2 = s1 + 0x660\n 14323: u64 [s1 + 0x680] = t0\n 14327: ra = 150, jump @292\n      : @211 [@dyn 75] (gas: 15)\n 14333: a0 = u64 [s1 + 0x6b8]\n 14337: a1 = u64 [s1 + 0x6b0]\n 14341: a2 = u64 [s1 + 0x6a8]\n 14345: a3 = u64 [s1 + 0x6a0]\n 14349: a0 = reverse a0\n 14351: a1 = reverse a1\n 14353: a2 = reverse a2\n 14355: a3 = reverse a3\n 14357: a4 = s1 + 0x7ff\n 14361: a4 = a4 + 0x139\n 14365: u64 [a4 + 0x280] = a3\n 14369: u64 [a4 + 0x278] = a2\n 14373: u64 [a4 + 0x270] = a1\n 14377: u64 [a4 + 0x268] = a0\n 14381: fallthrough\n      : @212 (gas: 27)\n 14382: u64 [a4 + 672] = 0\n 14386: u64 [a4 + 664] = 0\n 14390: u64 [a4 + 656] = 0\n 14394: u64 [a4 + 648] = 0\n 14398: u32 [a4 + 680] = 0x20\n 14403: a0 = s1 + 0x1000\n 14407: i32 a1 = a0 + 0xfffffffffffffba0\n 14411: a0 = s1 + 0x1000\n 14415: i32 a3 = a0 + 0xfffffffffffffbc0\n 14419: a0 = s1 + 0x1000\n 14423: i32 a4 = a0 + 0xfffffffffffffbe0\n 14427: a2 = 0xffffffffffffffff\n 14430: a0 = 0\n 14432: ecalli 5 // 'get_storage'\n 14434: a1 = s1 + 0x7ff\n 14438: a1 = a1 + 0x139\n 14442: a0 = u64 [a1 + 0x2a0]\n 14446: u64 [s1 + 0x198] = a0\n 14450: a0 = u64 [a1 + 0x298]\n 14454: u64 [s1 + 0x190] = a0\n 14458: a0 = u64 [a1 + 0x290]\n 14462: u64 [s1 + 0x180] = a0\n 14466: a0 = u64 [a1 + 0x288]\n 14470: u64 [s1 + 0x188] = a0\n 14474: a0 = 0x40\n 14477: a1 = 0x20\n 14480: ra = 152, jump @0\n      : @213 [@dyn 76] (gas: 100)\n 14486: a1 = u8 [a0 + 0x11]\n 14489: a2 = u8 [a0 + 0x10]\n 14492: a3 = u8 [a0 + 0x12]\n 14495: a4 = u8 [a0 + 0x13]\n 14498: a1 = a1 << 0x8\n 14501: a1 = a1 | a2\n 14504: a3 = a3 << 0x10\n 14507: a4 = a4 << 0x18\n 14510: a3 = a3 | a4\n 14513: a1 = a1 | a3\n 14516: a2 = u8 [a0 + 0x15]\n 14519: a3 = u8 [a0 + 0x14]\n 14522: a4 = u8 [a0 + 0x16]\n 14525: a5 = u8 [a0 + 0x17]\n 14528: a2 = a2 << 0x8\n 14531: a2 = a2 | a3\n 14534: a4 = a4 << 0x10\n 14537: a5 = a5 << 0x18\n 14540: a4 = a4 | a5\n 14543: a2 = a2 | a4\n 14546: a2 = a2 << 0x20\n 14549: t0 = a2 | a1\n 14552: a2 = u8 [a0 + 0x1]\n 14555: a3 = u8 [a0]\n 14557: a4 = u8 [a0 + 0x2]\n 14560: a5 = u8 [a0 + 0x3]\n 14563: a2 = a2 << 0x8\n 14566: a2 = a2 | a3\n 14569: a4 = a4 << 0x10\n 14572: a5 = a5 << 0x18\n 14575: a4 = a4 | a5\n 14578: a2 = a2 | a4\n 14581: a3 = u8 [a0 + 0x5]\n 14584: a4 = u8 [a0 + 0x4]\n 14587: a5 = u8 [a0 + 0x6]\n 14590: a1 = u8 [a0 + 0x7]\n 14593: a3 = a3 << 0x8\n 14596: a3 = a3 | a4\n 14599: a5 = a5 << 0x10\n 14602: a1 = a1 << 0x18\n 14605: a1 = a1 | a5\n 14608: a1 = a1 | a3\n 14611: a1 = a1 << 0x20\n 14614: t1 = a1 | a2\n 14617: a1 = u8 [a0 + 0x19]\n 14620: a3 = u8 [a0 + 0x18]\n 14623: a4 = u8 [a0 + 0x1a]\n 14626: a5 = u8 [a0 + 0x1b]\n 14629: a1 = a1 << 0x8\n 14632: a1 = a1 | a3\n 14635: a4 = a4 << 0x10\n 14638: a5 = a5 << 0x18\n 14641: a4 = a4 | a5\n 14644: a1 = a1 | a4\n 14647: a3 = u8 [a0 + 0x1d]\n 14650: a4 = u8 [a0 + 0x1c]\n 14653: a5 = u8 [a0 + 0x1e]\n 14656: a2 = u8 [a0 + 0x1f]\n 14659: a3 = a3 << 0x8\n 14662: a3 = a3 | a4\n 14665: a5 = a5 << 0x10\n 14668: a2 = a2 << 0x18\n 14671: a2 = a2 | a5\n 14674: a2 = a2 | a3\n 14677: a2 = a2 << 0x20\n 14680: a3 = a2 | a1\n 14683: a1 = u8 [a0 + 0x9]\n 14686: a2 = u8 [a0 + 0x8]\n 14689: a4 = u8 [a0 + 0xa]\n 14692: a5 = u8 [a0 + 0xb]\n 14695: a1 = a1 << 0x8\n 14698: a1 = a1 | a2\n 14701: a4 = a4 << 0x10\n 14704: a5 = a5 << 0x18\n 14707: a4 = a4 | a5\n 14710: a1 = a1 | a4\n 14713: a2 = u8 [a0 + 0xd]\n 14716: a4 = u8 [a0 + 0xc]\n 14719: a5 = u8 [a0 + 0xe]\n 14722: a0 = u8 [a0 + 0xf]\n 14725: a2 = a2 << 0x8\n 14728: a2 = a2 | a4\n 14731: a5 = a5 << 0x10\n 14734: a0 = a0 << 0x18\n 14737: a0 = a0 | a5\n 14740: a0 = a0 | a2\n 14743: a0 = a0 << 0x20\n 14746: a0 = a0 | a1\n 14749: a1 = reverse a0\n 14751: a0 = reverse a3\n 14753: a2 = reverse t1\n 14755: a3 = reverse t0\n 14757: a2 = a2 | a3\n 14760: a3 = a0 | a1\n 14763: a3 = a3 | a2\n 14766: a3 = a3 >> 0x20\n 14769: a1 = a1 | a2\n 14772: a1 = a1 << 0x20\n 14775: a1 = a1 | a3\n 14778: jump @244 if a1 == 0\n      : @214 (gas: 1)\n 14782: trap\n      : @215 (gas: 3)\n 14783: a0 = s1 + 0x7ff\n 14787: a0 = a0 + 0x1c1\n 14791: ra = 154, jump @315\n      : @216 [@dyn 77] (gas: 14)\n 14797: a0 = s1 + 0x7ff\n 14801: a0 = a0 + 0x139\n 14805: a4 = u64 [a0 + 0xa0]\n 14809: a5 = u64 [a0 + 0x98]\n 14813: a2 = u64 [a0 + 0x90]\n 14817: a3 = u64 [a0 + 0x88]\n 14821: a0 = a2 | a4\n 14824: a1 = a3 | a5\n 14827: a1 = a1 | a0\n 14830: a1 = a1 >> 0x20\n 14833: a0 = a0 | a5\n 14836: a0 = a0 << 0x20\n 14839: a0 = a0 | a1\n 14842: jump @214 if a0 != 0\n      : @217 (gas: 8)\n 14845: i32 a0 = a3 + 0\n 14847: a1 = 0x20\n 14850: u64 [s1 + 0x188] = a0\n 14854: u64 [s1 + 0x198] = a2\n 14858: u64 [s1 + 0x190] = a3\n 14862: u64 [s1 + 0x140] = a4\n 14866: u64 [s1 + 0x138] = a5\n 14870: ra = 156, jump @0\n      : @218 [@dyn 78] (gas: 104)\n 14876: a1 = u64 [s1 + 0x168]\n 14880: a2 = reverse a1\n 14882: a1 = u64 [s1 + 0x170]\n 14886: a4 = reverse a1\n 14888: a1 = u64 [s1 + 0x178]\n 14892: a5 = reverse a1\n 14894: a1 = u64 [s1 + 0x180]\n 14898: a3 = reverse a1\n 14900: a1 = a3 >> 0x38\n 14903: u64 [s1 + 0x180] = a1\n 14907: u8 [a0 + 0x1f] = a1\n 14910: a1 = a3 >> 0x30\n 14913: u64 [s1 + 0x178] = a1\n 14917: u8 [a0 + 0x1e] = a1\n 14920: a1 = a3 >> 0x28\n 14923: u64 [s1 + 0x170] = a1\n 14927: u8 [a0 + 0x1d] = a1\n 14930: a1 = a3 >> 0x20\n 14933: u64 [s1 + 0x168] = a1\n 14937: u8 [a0 + 0x1c] = a1\n 14940: a1 = a3 >> 0x18\n 14943: u64 [s1 + 0x130] = a1\n 14947: u8 [a0 + 0x1b] = a1\n 14950: a1 = a3 >> 0x10\n 14953: u64 [s1 + 0x120] = a1\n 14957: u8 [a0 + 0x1a] = a1\n 14960: a1 = a3 >> 0x8\n 14963: u64 [s1 + 0x118] = a1\n 14967: u8 [a0 + 0x19] = a1\n 14970: u64 [s1 + 0x110] = a3\n 14974: u8 [a0 + 0x18] = a3\n 14977: u8 [a0 + 0x10] = a5\n 14980: a1 = a5 >> 0x38\n 14983: u64 [s1 + 0xf8] = a1\n 14987: u8 [a0 + 0x17] = a1\n 14990: a1 = a5 >> 0x30\n 14993: u64 [s1 + 0xf0] = a1\n 14997: u8 [a0 + 0x16] = a1\n 15000: a1 = a5 >> 0x28\n 15003: u64 [s1 + 0xe8] = a1\n 15007: u8 [a0 + 0x15] = a1\n 15010: a1 = a5 >> 0x20\n 15013: u64 [s1 + 0xe0] = a1\n 15017: u8 [a0 + 0x14] = a1\n 15020: a1 = a5 >> 0x18\n 15023: u64 [s1 + 0xd8] = a1\n 15027: u8 [a0 + 0x13] = a1\n 15030: a1 = a5 >> 0x10\n 15033: u64 [s1 + 0xd0] = a1\n 15037: u8 [a0 + 0x12] = a1\n 15040: u64 [s1 + 0x100] = a5\n 15044: a5 = a5 >> 0x8\n 15047: u64 [s1 + 0xc8] = a5\n 15051: u8 [a0 + 0x11] = a5\n 15054: u8 [a0 + 0x8] = a4\n 15057: a1 = a4 >> 0x38\n 15060: u64 [s1 + 0xc0] = a1\n 15064: u8 [a0 + 0xf] = a1\n 15067: a1 = a4 >> 0x30\n 15070: u64 [s1 + 0xb8] = a1\n 15074: u8 [a0 + 0xe] = a1\n 15077: a1 = a4 >> 0x28\n 15080: u64 [s1 + 0xb0] = a1\n 15084: u8 [a0 + 0xd] = a1\n 15087: a1 = a4 >> 0x20\n 15090: u64 [s1 + 0xa8] = a1\n 15094: u8 [a0 + 0xc] = a1\n 15097: a1 = a4 >> 0x18\n 15100: u64 [s1 + 0xa0] = a1\n 15104: u8 [a0 + 0xb] = a1\n 15107: a1 = a4 >> 0x10\n 15110: u64 [s1 + 0x98] = a1\n 15114: u8 [a0 + 0xa] = a1\n 15117: u64 [s1 + 0x108] = a4\n 15121: a4 = a4 >> 0x8\n 15124: u64 [s1 + 0x90] = a4\n 15128: u8 [a0 + 0x9] = a4\n 15131: u8 [a0] = a2\n 15133: a1 = a2 >> 0x38\n 15136: u64 [s1 + 0x88] = a1\n 15140: u8 [a0 + 0x7] = a1\n 15143: a1 = a2 >> 0x30\n 15146: u64 [s1 + 0x80] = a1\n 15150: u8 [a0 + 0x6] = a1\n 15153: a1 = a2 >> 0x28\n 15156: u64 [s1 + 0x78] = a1\n 15159: u8 [a0 + 0x5] = a1\n 15162: a1 = a2 >> 0x20\n 15165: u64 [s1 + 0x70] = a1\n 15168: u8 [a0 + 0x4] = a1\n 15171: a1 = a2 >> 0x18\n 15174: u64 [s1 + 0x68] = a1\n 15177: u8 [a0 + 0x3] = a1\n 15180: a1 = a2 >> 0x10\n 15183: u64 [s1 + 0x60] = a1\n 15186: u8 [a0 + 0x2] = a1\n 15189: u64 [s1 + 0x128] = a2\n 15193: a2 = a2 >> 0x8\n 15196: u64 [s1 + 0x58] = a2\n 15199: u8 [a0 + 0x1] = a2\n 15202: a0 = s1 + 0x1000\n 15206: i32 a0 = a0 + 0xfffffffffffffb20\n 15210: ecalli 3 // 'caller'\n 15212: fallthrough\n      : @219 (gas: 11)\n 15213: a3 = u64 [s1 + 0x190]\n 15217: a1 = u64 [s1 + 0x198]\n 15221: a0 = u64 [s1 + 0x140]\n 15225: a2 = u64 [s1 + 0x138]\n 15229: a2 = a2 | a0\n 15232: a4 = 0x100000000\n 15242: a0 = 0xffffffe0\n 15252: a0 = a3 <u a0\n 15255: a0 = 0 if a1 != 0\n 15257: a0 = 0 if a2 != 0\n 15259: jump @214 if a0 == 0\n      : @220 (gas: 25)\n 15263: a0 = s1 + 0x7ff\n 15267: a0 = a0 + 0x139\n 15271: u64 [s1 + 0x140] = a2\n 15275: a2 = a0\n 15277: a0 = u64 [a0 + 0x1f0]\n 15281: a1 = i32 [a2 + 0x1f8]\n 15285: a5 = u64 [a2 + 0x1e8]\n 15289: u64 [s1 + 0x48] = a5\n 15292: a0 = reverse a0\n 15294: a2 = a0 << 0x20\n 15297: a1 = reverse a1\n 15299: a1 = a1 >> 0x20\n 15302: a1 = a1 | a2\n 15305: u64 [s1 + 0x50] = a1\n 15308: a0 = a0 >> 0x20\n 15311: a1 = reverse a5\n 15313: a1 = a1 << 0x20\n 15316: a0 = a0 | a1\n 15319: u64 [s1 + 0x40] = a0\n 15322: a0 = u64 [s1 + 0x188]\n 15326: i32 a0 = a0 + 0x20\n 15329: a1 = 0x20\n 15332: u64 [s1 + 0x38] = a0\n 15335: u64 [s1 + 0x138] = a4\n 15339: ra = 158, jump @0\n      : @221 [@dyn 79] (gas: 58)\n 15345: a1 = u64 [s1 + 0x40]\n 15348: a1 = reverse a1\n 15350: a2 = u64 [s1 + 0x50]\n 15353: a2 = reverse a2\n 15355: a4 = u64 [s1 + 0x48]\n 15358: a3 = a4 >> 0x18\n 15361: u8 [a0 + 0xf] = a3\n 15364: a3 = a4 >> 0x10\n 15367: u8 [a0 + 0xe] = a3\n 15370: a3 = a4 >> 0x8\n 15373: u8 [a0 + 0xd] = a3\n 15376: u8 [a0 + 0xc] = a4\n 15379: u8 [a0 + 11] = 0\n 15382: u8 [a0 + 10] = 0\n 15385: u8 [a0 + 9] = 0\n 15388: u8 [a0 + 8] = 0\n 15391: u8 [a0 + 7] = 0\n 15394: u8 [a0 + 6] = 0\n 15397: u8 [a0 + 5] = 0\n 15400: u8 [a0 + 4] = 0\n 15403: u8 [a0 + 3] = 0\n 15406: u8 [a0 + 2] = 0\n 15409: u8 [a0 + 1] = 0\n 15412: u8 [a0 + 0] = 0\n 15414: u8 [a0 + 0x18] = a2\n 15417: u8 [a0 + 0x10] = a1\n 15420: a3 = a2 >> 0x38\n 15423: u8 [a0 + 0x1f] = a3\n 15426: a3 = a2 >> 0x30\n 15429: u8 [a0 + 0x1e] = a3\n 15432: a3 = a2 >> 0x28\n 15435: u8 [a0 + 0x1d] = a3\n 15438: a3 = a2 >> 0x20\n 15441: u8 [a0 + 0x1c] = a3\n 15444: a3 = a2 >> 0x18\n 15447: u8 [a0 + 0x1b] = a3\n 15450: a3 = a2 >> 0x10\n 15453: u8 [a0 + 0x1a] = a3\n 15456: a2 = a2 >> 0x8\n 15459: u8 [a0 + 0x19] = a2\n 15462: a2 = a1 >> 0x38\n 15465: u8 [a0 + 0x17] = a2\n 15468: a2 = a1 >> 0x30\n 15471: u8 [a0 + 0x16] = a2\n 15474: a2 = a1 >> 0x28\n 15477: u8 [a0 + 0x15] = a2\n 15480: a2 = a1 >> 0x20\n 15483: u8 [a0 + 0x14] = a2\n 15486: a2 = a1 >> 0x18\n 15489: u8 [a0 + 0x13] = a2\n 15492: a2 = a1 >> 0x10\n 15495: u8 [a0 + 0x12] = a2\n 15498: a1 = a1 >> 0x8\n 15501: u8 [a0 + 0x11] = a1\n 15504: a0 = s1 + 0x1000\n 15508: i32 a0 = a0 + 0xfffffffffffffb40\n 15512: ecalli 7 // 'now'\n 15514: fallthrough\n      : @222 (gas: 9)\n 15515: a0 = u64 [s1 + 0x138]\n 15519: a0 = a0 + 0xffffffffffffffc0\n 15522: a1 = u64 [s1 + 0x190]\n 15526: a0 = a1 <u a0\n 15529: a1 = u64 [s1 + 0x198]\n 15533: a0 = 0 if a1 != 0\n 15535: a1 = u64 [s1 + 0x140]\n 15539: a0 = 0 if a1 != 0\n 15541: jump @214 if a0 == 0\n      : @223 (gas: 15)\n 15545: a0 = s1 + 0x7ff\n 15549: a0 = a0 + 0x139\n 15553: a1 = u64 [a0 + 0x208]\n 15557: u64 [s1 + 0x198] = a1\n 15561: a1 = u64 [a0 + 0x210]\n 15565: u64 [s1 + 0x190] = a1\n 15569: a1 = u64 [a0 + 0x218]\n 15573: u64 [s1 + 0x140] = a1\n 15577: a0 = u64 [a0 + 0x220]\n 15581: u64 [s1 + 0x138] = a0\n 15585: a0 = u64 [s1 + 0x188]\n 15589: i32 a0 = a0 + 0x40\n 15592: a1 = 0x20\n 15595: u64 [s1 + 0x30] = a0\n 15598: ra = 160, jump @0\n      : @224 [@dyn 80] (gas: 71)\n 15604: a1 = u64 [s1 + 0x138]\n 15608: a1 = reverse a1\n 15610: a2 = u64 [s1 + 0x140]\n 15614: a2 = reverse a2\n 15616: a3 = u64 [s1 + 0x190]\n 15620: a3 = reverse a3\n 15622: a4 = u64 [s1 + 0x198]\n 15626: a4 = reverse a4\n 15628: a5 = a4 >> 0x38\n 15631: u8 [a0 + 0x1f] = a5\n 15634: a5 = a4 >> 0x30\n 15637: u8 [a0 + 0x1e] = a5\n 15640: a5 = a4 >> 0x28\n 15643: u8 [a0 + 0x1d] = a5\n 15646: a5 = a4 >> 0x20\n 15649: u8 [a0 + 0x1c] = a5\n 15652: a5 = a4 >> 0x18\n 15655: u8 [a0 + 0x1b] = a5\n 15658: a5 = a4 >> 0x10\n 15661: u8 [a0 + 0x1a] = a5\n 15664: a5 = a4 >> 0x8\n 15667: u8 [a0 + 0x19] = a5\n 15670: u8 [a0 + 0x18] = a4\n 15673: a4 = a3 >> 0x38\n 15676: u8 [a0 + 0x17] = a4\n 15679: a4 = a3 >> 0x30\n 15682: u8 [a0 + 0x16] = a4\n 15685: a4 = a3 >> 0x28\n 15688: u8 [a0 + 0x15] = a4\n 15691: a4 = a3 >> 0x20\n 15694: u8 [a0 + 0x14] = a4\n 15697: a4 = a3 >> 0x18\n 15700: u8 [a0 + 0x13] = a4\n 15703: a4 = a3 >> 0x10\n 15706: u8 [a0 + 0x12] = a4\n 15709: a4 = a3 >> 0x8\n 15712: u8 [a0 + 0x11] = a4\n 15715: u8 [a0 + 0x10] = a3\n 15718: a3 = a2 >> 0x38\n 15721: u8 [a0 + 0xf] = a3\n 15724: a3 = a2 >> 0x30\n 15727: u8 [a0 + 0xe] = a3\n 15730: a3 = a2 >> 0x28\n 15733: u8 [a0 + 0xd] = a3\n 15736: a3 = a2 >> 0x20\n 15739: u8 [a0 + 0xc] = a3\n 15742: a3 = a2 >> 0x18\n 15745: u8 [a0 + 0xb] = a3\n 15748: a3 = a2 >> 0x10\n 15751: u8 [a0 + 0xa] = a3\n 15754: a3 = a2 >> 0x8\n 15757: u8 [a0 + 0x9] = a3\n 15760: u8 [a0 + 0x8] = a2\n 15763: a2 = a1 >> 0x38\n 15766: u8 [a0 + 0x7] = a2\n 15769: a2 = a1 >> 0x30\n 15772: u8 [a0 + 0x6] = a2\n 15775: a2 = a1 >> 0x28\n 15778: u8 [a0 + 0x5] = a2\n 15781: a2 = a1 >> 0x20\n 15784: u8 [a0 + 0x4] = a2\n 15787: a2 = a1 >> 0x18\n 15790: u8 [a0 + 0x3] = a2\n 15793: a2 = a1 >> 0x10\n 15796: u8 [a0 + 0x2] = a2\n 15799: a2 = a1 >> 0x8\n 15802: u8 [a0 + 0x1] = a2\n 15805: u8 [a0] = a1\n 15807: a1 = 0x20\n 15810: a0 = 0\n 15812: ra = 162, jump @0\n      : @225 [@dyn 81] (gas: 71)\n 15818: a1 = u64 [s1 + 0x148]\n 15822: a1 = reverse a1\n 15824: a2 = u64 [s1 + 0x150]\n 15828: a2 = reverse a2\n 15830: a3 = u64 [s1 + 0x158]\n 15834: a3 = reverse a3\n 15836: a4 = u64 [s1 + 0x160]\n 15840: a4 = reverse a4\n 15842: a5 = a4 >> 0x38\n 15845: u8 [a0 + 0x1f] = a5\n 15848: a5 = a4 >> 0x30\n 15851: u8 [a0 + 0x1e] = a5\n 15854: a5 = a4 >> 0x28\n 15857: u8 [a0 + 0x1d] = a5\n 15860: a5 = a4 >> 0x20\n 15863: u8 [a0 + 0x1c] = a5\n 15866: a5 = a4 >> 0x18\n 15869: u8 [a0 + 0x1b] = a5\n 15872: a5 = a4 >> 0x10\n 15875: u8 [a0 + 0x1a] = a5\n 15878: a5 = a4 >> 0x8\n 15881: u8 [a0 + 0x19] = a5\n 15884: u8 [a0 + 0x18] = a4\n 15887: a4 = a3 >> 0x38\n 15890: u8 [a0 + 0x17] = a4\n 15893: a4 = a3 >> 0x30\n 15896: u8 [a0 + 0x16] = a4\n 15899: a4 = a3 >> 0x28\n 15902: u8 [a0 + 0x15] = a4\n 15905: a4 = a3 >> 0x20\n 15908: u8 [a0 + 0x14] = a4\n 15911: a4 = a3 >> 0x18\n 15914: u8 [a0 + 0x13] = a4\n 15917: a4 = a3 >> 0x10\n 15920: u8 [a0 + 0x12] = a4\n 15923: a4 = a3 >> 0x8\n 15926: u8 [a0 + 0x11] = a4\n 15929: u8 [a0 + 0x10] = a3\n 15932: a3 = a2 >> 0x38\n 15935: u8 [a0 + 0xf] = a3\n 15938: a3 = a2 >> 0x30\n 15941: u8 [a0 + 0xe] = a3\n 15944: a3 = a2 >> 0x28\n 15947: u8 [a0 + 0xd] = a3\n 15950: a3 = a2 >> 0x20\n 15953: u8 [a0 + 0xc] = a3\n 15956: a3 = a2 >> 0x18\n 15959: u8 [a0 + 0xb] = a3\n 15962: a3 = a2 >> 0x10\n 15965: u8 [a0 + 0xa] = a3\n 15968: a3 = a2 >> 0x8\n 15971: u8 [a0 + 0x9] = a3\n 15974: u8 [a0 + 0x8] = a2\n 15977: a2 = a1 >> 0x38\n 15980: u8 [a0 + 0x7] = a2\n 15983: a2 = a1 >> 0x30\n 15986: u8 [a0 + 0x6] = a2\n 15989: a2 = a1 >> 0x28\n 15992: u8 [a0 + 0x5] = a2\n 15995: a2 = a1 >> 0x20\n 15998: u8 [a0 + 0x4] = a2\n 16001: a2 = a1 >> 0x18\n 16004: u8 [a0 + 0x3] = a2\n 16007: a2 = a1 >> 0x10\n 16010: u8 [a0 + 0x2] = a2\n 16013: a2 = a1 >> 0x8\n 16016: u8 [a0 + 0x1] = a2\n 16019: u8 [a0] = a1\n 16021: a0 = 0x20\n 16024: a1 = 0x20\n 16027: ra = 164, jump @0\n      : @226 [@dyn 82] (gas: 35)\n 16033: u8 [a0 + 31] = 0\n 16036: u8 [a0 + 30] = 0\n 16039: u8 [a0 + 29] = 0\n 16042: u8 [a0 + 28] = 0\n 16045: u8 [a0 + 27] = 0\n 16048: u8 [a0 + 26] = 0\n 16051: u8 [a0 + 25] = 0\n 16054: u8 [a0 + 24] = 0\n 16057: u8 [a0 + 23] = 0\n 16060: u8 [a0 + 22] = 0\n 16063: u8 [a0 + 21] = 0\n 16066: u8 [a0 + 20] = 0\n 16069: u8 [a0 + 19] = 0\n 16072: u8 [a0 + 18] = 0\n 16075: u8 [a0 + 17] = 0\n 16078: u8 [a0 + 16] = 0\n 16081: u8 [a0 + 15] = 0\n 16084: u8 [a0 + 14] = 0\n 16087: u8 [a0 + 13] = 0\n 16090: u8 [a0 + 12] = 0\n 16093: u8 [a0 + 11] = 0\n 16096: u8 [a0 + 10] = 0\n 16099: u8 [a0 + 9] = 0\n 16102: u8 [a0 + 8] = 0\n 16105: u8 [a0 + 7] = 0\n 16108: u8 [a0 + 6] = 0\n 16111: u8 [a0 + 5] = 0\n 16114: u8 [a0 + 4] = 0\n 16117: u8 [a0 + 3] = 0\n 16120: u8 [a0 + 2] = 0\n 16123: u8 [a0 + 1] = 0\n 16126: u8 [a0 + 0] = 0\n 16128: a1 = 0x40\n 16131: a0 = 0\n 16133: ra = 166, jump @0\n      : @227 [@dyn 83] (gas: 32)\n 16139: a1 = sp + 0xffffffffffffffe0\n 16142: a1 = a1 & 0xffffffffffffffe0\n 16145: u64 [s1 + 0x198] = a1\n 16149: sp = a1\n 16151: i32 a0 = a0 + 0\n 16153: i32 a2 = a1 + 0\n 16155: a1 = 0x40\n 16158: ecalli 6 // 'hash_keccak_256'\n 16160: a3 = u64 [s1 + 0x198]\n 16164: a0 = u64 [a3 + 0x18]\n 16167: a1 = u64 [a3 + 0x10]\n 16170: a2 = u64 [a3 + 0x8]\n 16173: a3 = u64 [a3]\n 16175: a4 = reverse a0\n 16177: a0 = reverse a1\n 16179: a1 = reverse a2\n 16181: a3 = reverse a3\n 16183: a2 = s1 + 0x7ff\n 16187: a2 = a2 + 0x139\n 16191: u64 [s1 + 0x138] = a3\n 16195: u64 [a2 + 0x60] = a3\n 16198: u64 [s1 + 0x140] = a1\n 16202: u64 [a2 + 0x58] = a1\n 16205: u64 [s1 + 0x190] = a0\n 16209: u64 [a2 + 0x50] = a0\n 16212: a0 = s1 + 0x7ff\n 16216: a0 = a0 + 0x1a1\n 16220: a1 = s1 + 0x7ff\n 16224: a1 = a1 + 0x181\n 16228: u64 [s1 + 0x198] = a4\n 16232: u64 [a2 + 0x48] = a4\n 16235: ra = 168, jump @10\n      : @228 [@dyn 84] (gas: 9)\n 16241: a2 = s1 + 0x7ff\n 16245: a2 = a2 + 0x139\n 16249: t0 = u64 [a2 + 0x80]\n 16253: a5 = u64 [a2 + 0x78]\n 16256: a3 = u64 [a2 + 0x70]\n 16259: a0 = a5 | t0\n 16262: a1 = a3 <u 0x1\n 16265: a1 = 0 if a0 != 0\n 16267: jump @271 if a1 == 0\n      : @229 (gas: 31)\n 16271: a0 = u64 [a2 + 0x68]\n 16274: u64 [s1 + 0x50] = a0\n 16277: a0 = a0 + 0x1\n 16280: a1 = a0 <u 0x1\n 16283: a1 = a1 + a3\n 16286: a4 = a2\n 16288: a2 = a0 | a1\n 16291: a2 = a2 <u 0x1\n 16294: a2 = a2 + a5\n 16297: u64 [s1 + 0x48] = a3\n 16300: a3 = a2 <u a5\n 16303: t1 = t0 + a3\n 16306: a3 = u64 [s1 + 0x198]\n 16310: u64 [a4 + 0x28] = a3\n 16313: u64 [a4 + 0x8] = a0\n 16316: a0 = u64 [s1 + 0x190]\n 16320: u64 [a4 + 0x30] = a0\n 16323: a0 = u64 [s1 + 0x140]\n 16327: u64 [a4 + 0x38] = a0\n 16330: u64 [a4 + 0x10] = a1\n 16333: a0 = u64 [s1 + 0x138]\n 16337: u64 [a4 + 0x40] = a0\n 16340: u64 [a4 + 0x18] = a2\n 16343: a0 = s1 + 0x7ff\n 16347: a0 = a0 + 0x161\n 16351: a1 = s1 + 0x7ff\n 16355: a1 = a1 + 0x141\n 16359: u64 [a4 + 0x20] = t1\n 16362: u64 [s1 + 0x40] = a5\n 16365: u64 [s1 + 0x28] = t0\n 16368: ra = 170, jump @11\n      : @230 [@dyn 85] (gas: 31)\n 16374: a0 = u64 [s1 + 0x28]\n 16377: a1 = s1 + 0x1000\n 16381: u64 [a1 + 0xfffffffffffff8d8] = a0\n 16385: a0 = u64 [s1 + 0x40]\n 16388: a1 = s1 + 0x1000\n 16392: u64 [a1 + 0xfffffffffffff8d0] = a0\n 16396: a0 = u64 [s1 + 0x48]\n 16399: a1 = s1 + 0x1000\n 16403: u64 [a1 + 0xfffffffffffff8c8] = a0\n 16407: a0 = u64 [s1 + 0x50]\n 16410: a1 = s1 + 0x1000\n 16414: u64 [a1 + 0xfffffffffffff8c0] = a0\n 16418: a0 = u64 [s1 + 0x138]\n 16422: a1 = s1 + 0x1000\n 16426: u64 [a1 + 0xfffffffffffff8f8] = a0\n 16430: a0 = u64 [s1 + 0x140]\n 16434: a1 = s1 + 0x1000\n 16438: u64 [a1 + 0xfffffffffffff8f0] = a0\n 16442: a0 = u64 [s1 + 0x190]\n 16446: a1 = s1 + 0x1000\n 16450: u64 [a1 + 0xfffffffffffff8e8] = a0\n 16454: a0 = s1 + 0x7ff\n 16458: a0 = a0 + 0x101\n 16462: a1 = s1 + 0x7ff\n 16466: a1 = a1 + 0xe1\n 16470: a2 = s1 + 0x7ff\n 16474: a2 = a2 + 0xc1\n 16478: a3 = u64 [s1 + 0x198]\n 16482: a4 = s1 + 0x1000\n 16486: u64 [a4 + 0xfffffffffffff8e0] = a3\n 16490: ra = 172, jump @292\n      : @231 [@dyn 86] (gas: 10)\n 16496: a3 = s1 + 0x7ff\n 16500: a3 = a3 + 0x139\n 16504: a0 = u64 [a3]\n 16506: a1 = u64 [a3 + 0xfffffffffffffff8]\n 16509: a2 = u64 [a3 + 0xfffffffffffffff0]\n 16512: a3 = u64 [a3 + 0xffffffffffffffe8]\n 16515: a0 = a0 | a2\n 16518: a1 = a1 | a3\n 16521: a0 = a0 | a1\n 16524: jump @273 if a0 != 0\n      : @232 (gas: 15)\n 16528: a0 = s1 + 0x7ff\n 16532: a0 = a0 + 0x139\n 16536: a1 = u64 [a0 + 0xffffffffffffffe0]\n 16539: u64 [s1 + 0x198] = a1\n 16543: a0 = u64 [a0 + 0xffffffffffffffd8]\n 16546: u64 [s1 + 0x138] = a0\n 16550: a0 = s1 + 0x1000\n 16554: a0 = u64 [a0 + 0xfffffffffffff908]\n 16558: u64 [s1 + 0x190] = a0\n 16562: a0 = s1 + 0x1000\n 16566: a0 = u64 [a0 + 0xfffffffffffff900]\n 16570: u64 [s1 + 0x140] = a0\n 16574: a1 = 0x20\n 16577: a0 = u64 [s1 + 0x188]\n 16581: ra = 174, jump @0\n      : @233 [@dyn 87] (gas: 117)\n 16587: a1 = u8 [a0 + 0x1]\n 16590: a2 = u8 [a0]\n 16592: a3 = u8 [a0 + 0x2]\n 16595: a4 = u8 [a0 + 0x3]\n 16598: a1 = a1 << 0x8\n 16601: a1 = a1 | a2\n 16604: a3 = a3 << 0x10\n 16607: a4 = a4 << 0x18\n 16610: a3 = a3 | a4\n 16613: a1 = a1 | a3\n 16616: a2 = u8 [a0 + 0x5]\n 16619: a3 = u8 [a0 + 0x4]\n 16622: a4 = u8 [a0 + 0x6]\n 16625: a5 = u8 [a0 + 0x7]\n 16628: a2 = a2 << 0x8\n 16631: a2 = a2 | a3\n 16634: a4 = a4 << 0x10\n 16637: a5 = a5 << 0x18\n 16640: a4 = a4 | a5\n 16643: a2 = a2 | a4\n 16646: a2 = a2 << 0x20\n 16649: t0 = a2 | a1\n 16652: a2 = u8 [a0 + 0x9]\n 16655: a3 = u8 [a0 + 0x8]\n 16658: a4 = u8 [a0 + 0xa]\n 16661: a5 = u8 [a0 + 0xb]\n 16664: a2 = a2 << 0x8\n 16667: a2 = a2 | a3\n 16670: a4 = a4 << 0x10\n 16673: a5 = a5 << 0x18\n 16676: a4 = a4 | a5\n 16679: a2 = a2 | a4\n 16682: a3 = u8 [a0 + 0xd]\n 16685: a4 = u8 [a0 + 0xc]\n 16688: a5 = u8 [a0 + 0xe]\n 16691: a1 = u8 [a0 + 0xf]\n 16694: a3 = a3 << 0x8\n 16697: a3 = a3 | a4\n 16700: a5 = a5 << 0x10\n 16703: a1 = a1 << 0x18\n 16706: a1 = a1 | a5\n 16709: a1 = a1 | a3\n 16712: a1 = a1 << 0x20\n 16715: t1 = a1 | a2\n 16718: a1 = u8 [a0 + 0x11]\n 16721: a3 = u8 [a0 + 0x10]\n 16724: a4 = u8 [a0 + 0x12]\n 16727: a5 = u8 [a0 + 0x13]\n 16730: a1 = a1 << 0x8\n 16733: a1 = a1 | a3\n 16736: a4 = a4 << 0x10\n 16739: a5 = a5 << 0x18\n 16742: a4 = a4 | a5\n 16745: a1 = a1 | a4\n 16748: a3 = u8 [a0 + 0x15]\n 16751: a4 = u8 [a0 + 0x14]\n 16754: a5 = u8 [a0 + 0x16]\n 16757: a2 = u8 [a0 + 0x17]\n 16760: a3 = a3 << 0x8\n 16763: a3 = a3 | a4\n 16766: a5 = a5 << 0x10\n 16769: a2 = a2 << 0x18\n 16772: a2 = a2 | a5\n 16775: a2 = a2 | a3\n 16778: a2 = a2 << 0x20\n 16781: a3 = a2 | a1\n 16784: a1 = u8 [a0 + 0x19]\n 16787: a2 = u8 [a0 + 0x18]\n 16790: a4 = u8 [a0 + 0x1a]\n 16793: a5 = u8 [a0 + 0x1b]\n 16796: a1 = a1 << 0x8\n 16799: a1 = a1 | a2\n 16802: a4 = a4 << 0x10\n 16805: a5 = a5 << 0x18\n 16808: a4 = a4 | a5\n 16811: a1 = a1 | a4\n 16814: a2 = u8 [a0 + 0x1d]\n 16817: a4 = u8 [a0 + 0x1c]\n 16820: a5 = u8 [a0 + 0x1e]\n 16823: a0 = u8 [a0 + 0x1f]\n 16826: a2 = a2 << 0x8\n 16829: a2 = a2 | a4\n 16832: a5 = a5 << 0x10\n 16835: a0 = a0 << 0x18\n 16838: a0 = a0 | a5\n 16841: a0 = a0 | a2\n 16844: a0 = a0 << 0x20\n 16847: a0 = a0 | a1\n 16850: a2 = reverse a0\n 16852: a0 = reverse a3\n 16854: a1 = reverse t1\n 16856: a3 = reverse t0\n 16858: a4 = u64 [s1 + 0x198]\n 16862: a5 = s1 + 0x1000\n 16866: u64 [a5 + 0xfffffffffffff878] = a4\n 16870: a4 = u64 [s1 + 0x138]\n 16874: a5 = s1 + 0x1000\n 16878: u64 [a5 + 0xfffffffffffff870] = a4\n 16882: a4 = u64 [s1 + 0x190]\n 16886: a5 = s1 + 0x1000\n 16890: u64 [a5 + 0xfffffffffffff868] = a4\n 16894: a4 = u64 [s1 + 0x140]\n 16898: a5 = s1 + 0x1000\n 16902: u64 [a5 + 0xfffffffffffff860] = a4\n 16906: a4 = s1 + 0x1000\n 16910: u64 [a4 + 0xfffffffffffff858] = a3\n 16914: a3 = s1 + 0x1000\n 16918: u64 [a3 + 0xfffffffffffff850] = a1\n 16922: a1 = s1 + 0x1000\n 16926: u64 [a1 + 0xfffffffffffff848] = a0\n 16930: a0 = s1 + 0x7ff\n 16934: a0 = a0 + 0x61\n 16937: a1 = s1 + 0x7ff\n 16941: a1 = a1 + 0x41\n 16944: a3 = s1 + 0x1000\n 16948: u64 [a3 + 0xfffffffffffff840] = a2\n 16952: ra = 176, jump @11\n      : @234 [@dyn 88] (gas: 19)\n 16958: a0 = u64 [s1 + 0x140]\n 16962: a2 = a0 + 0x1\n 16965: u64 [s1 + 0x188] = a2\n 16969: a0 = a2 <u 0x1\n 16972: a1 = u64 [s1 + 0x190]\n 16976: a0 = a0 + a1\n 16979: u64 [s1 + 0x50] = a0\n 16982: a0 = a0 | a2\n 16985: a0 = a0 <u 0x1\n 16988: a1 = u64 [s1 + 0x138]\n 16992: a0 = a0 + a1\n 16995: u64 [s1 + 0x48] = a0\n 16998: a0 = a0 <u a1\n 17001: a1 = u64 [s1 + 0x198]\n 17005: a0 = a0 + a1\n 17008: u64 [s1 + 0x40] = a0\n 17011: a1 = 0x20\n 17014: a0 = u64 [s1 + 0x38]\n 17017: ra = 178, jump @0\n      : @235 [@dyn 89] (gas: 78)\n 17023: a1 = u8 [a0 + 0x11]\n 17026: a2 = u8 [a0 + 0x10]\n 17029: a3 = u8 [a0 + 0x12]\n 17032: a4 = u8 [a0 + 0x13]\n 17035: a1 = a1 << 0x8\n 17038: a1 = a1 | a2\n 17041: a3 = a3 << 0x10\n 17044: a4 = a4 << 0x18\n 17047: a3 = a3 | a4\n 17050: a1 = a1 | a3\n 17053: a2 = u8 [a0 + 0x15]\n 17056: a3 = u8 [a0 + 0x14]\n 17059: a4 = u8 [a0 + 0x16]\n 17062: a5 = u8 [a0 + 0x17]\n 17065: a2 = a2 << 0x8\n 17068: a2 = a2 | a3\n 17071: a4 = a4 << 0x10\n 17074: a5 = a5 << 0x18\n 17077: a4 = a4 | a5\n 17080: a2 = a2 | a4\n 17083: a2 = a2 << 0x20\n 17086: t0 = a2 | a1\n 17089: a2 = u8 [a0 + 0x19]\n 17092: a3 = u8 [a0 + 0x18]\n 17095: a4 = u8 [a0 + 0x1a]\n 17098: a5 = u8 [a0 + 0x1b]\n 17101: a2 = a2 << 0x8\n 17104: a2 = a2 | a3\n 17107: a4 = a4 << 0x10\n 17110: a5 = a5 << 0x18\n 17113: a4 = a4 | a5\n 17116: a2 = a2 | a4\n 17119: a3 = u8 [a0 + 0x1d]\n 17122: a4 = u8 [a0 + 0x1c]\n 17125: a5 = u8 [a0 + 0x1e]\n 17128: a1 = u8 [a0 + 0x1f]\n 17131: a3 = a3 << 0x8\n 17134: a3 = a3 | a4\n 17137: a5 = a5 << 0x10\n 17140: a1 = a1 << 0x18\n 17143: a1 = a1 | a5\n 17146: a1 = a1 | a3\n 17149: a1 = a1 << 0x20\n 17152: a1 = a1 | a2\n 17155: a2 = u8 [a0 + 0xd]\n 17158: a3 = u8 [a0 + 0xc]\n 17161: a4 = u8 [a0 + 0xe]\n 17164: a0 = u8 [a0 + 0xf]\n 17167: a2 = a2 << 0x8\n 17170: a2 = a2 | a3\n 17173: a4 = a4 << 0x10\n 17176: a0 = a0 << 0x18\n 17179: a0 = a0 | a4\n 17182: a0 = a0 | a2\n 17185: a1 = reverse a1\n 17187: u64 [s1 + 0x38] = a1\n 17190: a1 = reverse t0\n 17192: u64 [s1 + 0x28] = a1\n 17195: a0 = reverse a0\n 17197: a0 = a0 >> 0x20\n 17200: u64 [s1 + 0x20] = a0\n 17203: a0 = u64 [s1 + 0x40]\n 17206: a1 = s1 + 0x1000\n 17210: u64 [a1 + 0xfffffffffffff818] = a0\n 17214: a0 = u64 [s1 + 0x48]\n 17217: a1 = s1 + 0x1000\n 17221: u64 [a1 + 0xfffffffffffff810] = a0\n 17225: a0 = u64 [s1 + 0x50]\n 17228: a1 = s1 + 0x1000\n 17232: u64 [a1 + 0xfffffffffffff808] = a0\n 17236: a0 = s1 + 0x7ff\n 17240: a0 = a0 + 0x21\n 17243: a1 = s1 + 0x7ff\n 17247: a1 = a1 + 0x1\n 17250: a2 = u64 [s1 + 0x188]\n 17254: a3 = s1 + 0x1000\n 17258: u64 [a3 + 0xfffffffffffff800] = a2\n 17262: ra = 180, jump @10\n      : @236 [@dyn 90] (gas: 24)\n 17268: a0 = s1 + 0x1000\n 17272: a0 = u32 [a0 + 0xfffffffffffff834]\n 17276: a1 = s1 + 0x1000\n 17280: a1 = u64 [a1 + 0xfffffffffffff838]\n 17284: a0 = a0 << 0x20\n 17287: a2 = u64 [s1 + 0x20]\n 17290: a0 = a0 | a2\n 17293: u64 [s1 + 0x7d8] = a1\n 17297: a1 = u64 [s1 + 0x40]\n 17300: u64 [s1 + 0x7f8] = a1\n 17304: a1 = u64 [s1 + 0x48]\n 17307: u64 [s1 + 0x7f0] = a1\n 17311: a1 = u64 [s1 + 0x50]\n 17314: u64 [s1 + 0x7e8] = a1\n 17318: a1 = u64 [s1 + 0x188]\n 17322: u64 [s1 + 0x7e0] = a1\n 17326: u64 [s1 + 0x7d0] = a0\n 17330: a0 = u64 [s1 + 0x28]\n 17333: u64 [s1 + 0x7c8] = a0\n 17337: a0 = s1 + 0x7e0\n 17341: a1 = s1 + 0x7c0\n 17345: a2 = u64 [s1 + 0x38]\n 17348: u64 [s1 + 0x7c0] = a2\n 17352: ra = 182, jump @11\n      : @237 [@dyn 91] (gas: 3)\n 17358: a1 = 0x20\n 17361: a0 = u64 [s1 + 0x30]\n 17364: ra = 184, jump @0\n      : @238 [@dyn 92] (gas: 115)\n 17370: a1 = u8 [a0 + 0x1]\n 17373: a2 = u8 [a0]\n 17375: a3 = u8 [a0 + 0x2]\n 17378: a4 = u8 [a0 + 0x3]\n 17381: a1 = a1 << 0x8\n 17384: a1 = a1 | a2\n 17387: a3 = a3 << 0x10\n 17390: a4 = a4 << 0x18\n 17393: a3 = a3 | a4\n 17396: a1 = a1 | a3\n 17399: a2 = u8 [a0 + 0x5]\n 17402: a3 = u8 [a0 + 0x4]\n 17405: a4 = u8 [a0 + 0x6]\n 17408: a5 = u8 [a0 + 0x7]\n 17411: a2 = a2 << 0x8\n 17414: a2 = a2 | a3\n 17417: a4 = a4 << 0x10\n 17420: a5 = a5 << 0x18\n 17423: a4 = a4 | a5\n 17426: a2 = a2 | a4\n 17429: a2 = a2 << 0x20\n 17432: t0 = a2 | a1\n 17435: a2 = u8 [a0 + 0x9]\n 17438: a3 = u8 [a0 + 0x8]\n 17441: a4 = u8 [a0 + 0xa]\n 17444: a5 = u8 [a0 + 0xb]\n 17447: a2 = a2 << 0x8\n 17450: a2 = a2 | a3\n 17453: a4 = a4 << 0x10\n 17456: a5 = a5 << 0x18\n 17459: a4 = a4 | a5\n 17462: a2 = a2 | a4\n 17465: a3 = u8 [a0 + 0xd]\n 17468: a4 = u8 [a0 + 0xc]\n 17471: a5 = u8 [a0 + 0xe]\n 17474: a1 = u8 [a0 + 0xf]\n 17477: a3 = a3 << 0x8\n 17480: a3 = a3 | a4\n 17483: a5 = a5 << 0x10\n 17486: a1 = a1 << 0x18\n 17489: a1 = a1 | a5\n 17492: a1 = a1 | a3\n 17495: a1 = a1 << 0x20\n 17498: t1 = a1 | a2\n 17501: a1 = u8 [a0 + 0x11]\n 17504: a3 = u8 [a0 + 0x10]\n 17507: a4 = u8 [a0 + 0x12]\n 17510: a5 = u8 [a0 + 0x13]\n 17513: a1 = a1 << 0x8\n 17516: a1 = a1 | a3\n 17519: a4 = a4 << 0x10\n 17522: a5 = a5 << 0x18\n 17525: a4 = a4 | a5\n 17528: a1 = a1 | a4\n 17531: a3 = u8 [a0 + 0x15]\n 17534: a4 = u8 [a0 + 0x14]\n 17537: a5 = u8 [a0 + 0x16]\n 17540: a2 = u8 [a0 + 0x17]\n 17543: a3 = a3 << 0x8\n 17546: a3 = a3 | a4\n 17549: a5 = a5 << 0x10\n 17552: a2 = a2 << 0x18\n 17555: a2 = a2 | a5\n 17558: a2 = a2 | a3\n 17561: a2 = a2 << 0x20\n 17564: t2 = a2 | a1\n 17567: a1 = u8 [a0 + 0x19]\n 17570: a2 = u8 [a0 + 0x18]\n 17573: a4 = u8 [a0 + 0x1a]\n 17576: a5 = u8 [a0 + 0x1b]\n 17579: a1 = a1 << 0x8\n 17582: a1 = a1 | a2\n 17585: a4 = a4 << 0x10\n 17588: a5 = a5 << 0x18\n 17591: a4 = a4 | a5\n 17594: a1 = a1 | a4\n 17597: a2 = u8 [a0 + 0x1d]\n 17600: a4 = u8 [a0 + 0x1c]\n 17603: a5 = u8 [a0 + 0x1e]\n 17606: a0 = u8 [a0 + 0x1f]\n 17609: a2 = a2 << 0x8\n 17612: a2 = a2 | a4\n 17615: a5 = a5 << 0x10\n 17618: a0 = a0 << 0x18\n 17621: a0 = a0 | a5\n 17624: a0 = a0 | a2\n 17627: a0 = a0 << 0x20\n 17630: a0 = a0 | a1\n 17633: a2 = u64 [s1 + 0x140]\n 17637: a1 = a2 + 0x2\n 17640: a2 = a1 <u a2\n 17643: a3 = u64 [s1 + 0x190]\n 17647: a4 = a3 + a2\n 17650: a5 = a4 <u a3\n 17653: a5 = a2 if a2 == 0\n 17656: a2 = u64 [s1 + 0x138]\n 17660: a5 = a5 + a2\n 17663: a2 = a5 <u a2\n 17666: a3 = u64 [s1 + 0x198]\n 17670: a2 = a2 + a3\n 17673: ra = reverse a0\n 17675: t2 = reverse t2\n 17677: a3 = reverse t1\n 17679: a0 = reverse t0\n 17681: u64 [s1 + 0x7b8] = a2\n 17685: u64 [s1 + 0x7b0] = a5\n 17689: u64 [s1 + 0x7a8] = a4\n 17693: u64 [s1 + 0x7a0] = a1\n 17697: u64 [s1 + 0x798] = a0\n 17701: u64 [s1 + 0x790] = a3\n 17705: u64 [s1 + 0x788] = t2\n 17709: a0 = s1 + 0x7a0\n 17713: a1 = s1 + 0x780\n 17717: u64 [s1 + 0x780] = ra\n 17721: ra = 186, jump @11\n      : @239 [@dyn 93] (gas: 3)\n 17727: a0 = 0x40\n 17730: a1 = 0x20\n 17733: ra = 188, jump @0\n      : @240 [@dyn 94] (gas: 100)\n 17739: a1 = u8 [a0 + 0x11]\n 17742: a2 = u8 [a0 + 0x10]\n 17745: a3 = u8 [a0 + 0x12]\n 17748: a4 = u8 [a0 + 0x13]\n 17751: a1 = a1 << 0x8\n 17754: a1 = a1 | a2\n 17757: a3 = a3 << 0x10\n 17760: a4 = a4 << 0x18\n 17763: a3 = a3 | a4\n 17766: a1 = a1 | a3\n 17769: a2 = u8 [a0 + 0x15]\n 17772: a3 = u8 [a0 + 0x14]\n 17775: a4 = u8 [a0 + 0x16]\n 17778: a5 = u8 [a0 + 0x17]\n 17781: a2 = a2 << 0x8\n 17784: a2 = a2 | a3\n 17787: a4 = a4 << 0x10\n 17790: a5 = a5 << 0x18\n 17793: a4 = a4 | a5\n 17796: a2 = a2 | a4\n 17799: a2 = a2 << 0x20\n 17802: t0 = a2 | a1\n 17805: a2 = u8 [a0 + 0x1]\n 17808: a3 = u8 [a0]\n 17810: a4 = u8 [a0 + 0x2]\n 17813: a5 = u8 [a0 + 0x3]\n 17816: a2 = a2 << 0x8\n 17819: a2 = a2 | a3\n 17822: a4 = a4 << 0x10\n 17825: a5 = a5 << 0x18\n 17828: a4 = a4 | a5\n 17831: a2 = a2 | a4\n 17834: a3 = u8 [a0 + 0x5]\n 17837: a4 = u8 [a0 + 0x4]\n 17840: a5 = u8 [a0 + 0x6]\n 17843: a1 = u8 [a0 + 0x7]\n 17846: a3 = a3 << 0x8\n 17849: a3 = a3 | a4\n 17852: a5 = a5 << 0x10\n 17855: a1 = a1 << 0x18\n 17858: a1 = a1 | a5\n 17861: a1 = a1 | a3\n 17864: a1 = a1 << 0x20\n 17867: t1 = a1 | a2\n 17870: a1 = u8 [a0 + 0x19]\n 17873: a3 = u8 [a0 + 0x18]\n 17876: a4 = u8 [a0 + 0x1a]\n 17879: a5 = u8 [a0 + 0x1b]\n 17882: a1 = a1 << 0x8\n 17885: a1 = a1 | a3\n 17888: a4 = a4 << 0x10\n 17891: a5 = a5 << 0x18\n 17894: a4 = a4 | a5\n 17897: a1 = a1 | a4\n 17900: a3 = u8 [a0 + 0x1d]\n 17903: a4 = u8 [a0 + 0x1c]\n 17906: a5 = u8 [a0 + 0x1e]\n 17909: a2 = u8 [a0 + 0x1f]\n 17912: a3 = a3 << 0x8\n 17915: a3 = a3 | a4\n 17918: a5 = a5 << 0x10\n 17921: a2 = a2 << 0x18\n 17924: a2 = a2 | a5\n 17927: a2 = a2 | a3\n 17930: a2 = a2 << 0x20\n 17933: a3 = a2 | a1\n 17936: a1 = u8 [a0 + 0x9]\n 17939: a2 = u8 [a0 + 0x8]\n 17942: a4 = u8 [a0 + 0xa]\n 17945: a5 = u8 [a0 + 0xb]\n 17948: a1 = a1 << 0x8\n 17951: a1 = a1 | a2\n 17954: a4 = a4 << 0x10\n 17957: a5 = a5 << 0x18\n 17960: a4 = a4 | a5\n 17963: a1 = a1 | a4\n 17966: a2 = u8 [a0 + 0xd]\n 17969: a4 = u8 [a0 + 0xc]\n 17972: a5 = u8 [a0 + 0xe]\n 17975: a0 = u8 [a0 + 0xf]\n 17978: a2 = a2 << 0x8\n 17981: a2 = a2 | a4\n 17984: a5 = a5 << 0x10\n 17987: a0 = a0 << 0x18\n 17990: a0 = a0 | a5\n 17993: a0 = a0 | a2\n 17996: a0 = a0 << 0x20\n 17999: a0 = a0 | a1\n 18002: a0 = reverse a0\n 18004: a3 = reverse a3\n 18006: a1 = reverse t1\n 18008: a2 = reverse t0\n 18010: a1 = a1 | a2\n 18013: a2 = a3 | a0\n 18016: a2 = a2 | a1\n 18019: a2 = a2 >> 0x20\n 18022: a0 = a0 | a1\n 18025: a0 = a0 << 0x20\n 18028: a0 = a0 | a2\n 18031: jump @214 if a0 != 0\n      : @241 (gas: 4)\n 18035: i32 a0 = a3 + 0\n 18037: a1 = 0x20\n 18040: u64 [s1 + 0x198] = a3\n 18044: ra = 190, jump @0\n      : @242 [@dyn 95] (gas: 141)\n 18050: a1 = u64 [s1 + 0x100]\n 18054: u8 [a0 + 0x10] = a1\n 18057: a1 = u64 [s1 + 0xc0]\n 18061: u8 [a0 + 0xf] = a1\n 18064: a1 = u64 [s1 + 0xb8]\n 18068: u8 [a0 + 0xe] = a1\n 18071: a1 = u64 [s1 + 0xb0]\n 18075: u8 [a0 + 0xd] = a1\n 18078: a1 = u64 [s1 + 0xa8]\n 18082: u8 [a0 + 0xc] = a1\n 18085: a1 = u64 [s1 + 0xa0]\n 18089: u8 [a0 + 0xb] = a1\n 18092: a1 = u64 [s1 + 0x98]\n 18096: u8 [a0 + 0xa] = a1\n 18099: a1 = u64 [s1 + 0x90]\n 18103: u8 [a0 + 0x9] = a1\n 18106: a1 = u64 [s1 + 0x108]\n 18110: u8 [a0 + 0x8] = a1\n 18113: a1 = u64 [s1 + 0x88]\n 18117: u8 [a0 + 0x7] = a1\n 18120: a1 = u64 [s1 + 0x80]\n 18124: u8 [a0 + 0x6] = a1\n 18127: a1 = u64 [s1 + 0x78]\n 18130: u8 [a0 + 0x5] = a1\n 18133: a1 = u64 [s1 + 0x70]\n 18136: u8 [a0 + 0x4] = a1\n 18139: a1 = u64 [s1 + 0x68]\n 18142: u8 [a0 + 0x3] = a1\n 18145: a1 = u64 [s1 + 0x60]\n 18148: u8 [a0 + 0x2] = a1\n 18151: a1 = u64 [s1 + 0x58]\n 18154: u8 [a0 + 0x1] = a1\n 18157: a1 = u64 [s1 + 0x128]\n 18161: u8 [a0] = a1\n 18163: a1 = u64 [s1 + 0x110]\n 18167: u8 [a0 + 0x18] = a1\n 18170: a1 = u64 [s1 + 0xf8]\n 18174: u8 [a0 + 0x17] = a1\n 18177: a1 = u64 [s1 + 0xf0]\n 18181: u8 [a0 + 0x16] = a1\n 18184: a1 = u64 [s1 + 0xe8]\n 18188: u8 [a0 + 0x15] = a1\n 18191: a1 = u64 [s1 + 0xe0]\n 18195: u8 [a0 + 0x14] = a1\n 18198: a1 = u64 [s1 + 0xd8]\n 18202: u8 [a0 + 0x13] = a1\n 18205: a1 = u64 [s1 + 0xd0]\n 18209: u8 [a0 + 0x12] = a1\n 18212: a1 = u64 [s1 + 0xc8]\n 18216: u8 [a0 + 0x11] = a1\n 18219: a1 = u64 [s1 + 0x180]\n 18223: u8 [a0 + 0x1f] = a1\n 18226: a1 = u64 [s1 + 0x178]\n 18230: u8 [a0 + 0x1e] = a1\n 18233: a1 = u64 [s1 + 0x170]\n 18237: u8 [a0 + 0x1d] = a1\n 18240: a1 = u64 [s1 + 0x168]\n 18244: u8 [a0 + 0x1c] = a1\n 18247: a1 = u64 [s1 + 0x130]\n 18251: u8 [a0 + 0x1b] = a1\n 18254: a1 = u64 [s1 + 0x120]\n 18258: u8 [a0 + 0x1a] = a1\n 18261: a1 = u64 [s1 + 0x118]\n 18265: u8 [a0 + 0x19] = a1\n 18268: a0 = s1 + 0x1000\n 18272: i32 a0 = a0 + 0xfffffffffffffb60\n 18276: ecalli 3 // 'caller'\n 18278: a2 = s1 + 0x7ff\n 18282: a2 = a2 + 0x139\n 18286: a0 = u64 [a2 + 0x230]\n 18290: a1 = i32 [a2 + 0x238]\n 18294: a2 = u64 [a2 + 0x228]\n 18298: a3 = reverse a0\n 18300: a0 = a3 << 0x20\n 18303: a1 = reverse a1\n 18305: a1 = a1 >> 0x20\n 18308: t0 = a1 | a0\n 18311: a3 = a3 >> 0x20\n 18314: a2 = reverse a2\n 18316: a1 = a2 << 0x20\n 18319: a1 = a1 | a3\n 18322: a2 = a2 >> 0x20\n 18325: u64 [s1 + 1848] = 0\n 18329: a0 = u64 [s1 + 0x148]\n 18333: u64 [s1 + 0x758] = a0\n 18337: a0 = u64 [s1 + 0x150]\n 18341: u64 [s1 + 0x750] = a0\n 18345: a0 = u64 [s1 + 0x158]\n 18349: u64 [s1 + 0x748] = a0\n 18353: a0 = u64 [s1 + 0x160]\n 18357: u64 [s1 + 0x740] = a0\n 18361: a3 = u64 [0x20000]\n 18366: a4 = u64 [0x20008]\n 18371: a5 = u64 [0x20010]\n 18376: a0 = u64 [0x20018]\n 18381: u64 [s1 + 0x778] = a3\n 18385: u64 [s1 + 0x770] = a4\n 18389: u64 [s1 + 0x768] = a5\n 18393: u64 [s1 + 0x760] = a0\n 18397: u64 [s1 + 0x730] = a2\n 18401: u64 [s1 + 0x728] = a1\n 18405: a2 = s1 + 0x760\n 18409: a3 = s1 + 0x740\n 18413: a4 = s1 + 0x720\n 18417: u64 [s1 + 0x720] = t0\n 18421: a0 = u64 [s1 + 0x198]\n 18425: ra = 0xc0\n 18429: sp = sp + 0xffffffffffffff20\n 18433: u64 [sp + 0xd8] = ra\n 18437: u64 [sp + 0xd0] = s0\n 18441: u64 [sp + 0xc8] = s1\n 18445: s0 = sp + 0xe0\n 18449: sp = sp & 0xffffffffffffffe0\n 18452: a5 = u64 [a4]\n 18454: u64 [sp + 0x40] = a5\n 18457: a5 = u64 [a4 + 0x8]\n 18460: u64 [sp + 0x48] = a5\n 18463: a5 = u64 [a4 + 0x10]\n 18466: u64 [sp + 0x50] = a5\n 18469: a4 = u64 [a4 + 0x18]\n 18472: u64 [sp + 0x58] = a4\n 18475: a4 = u64 [a3]\n 18477: u64 [sp + 0x18] = a4\n 18480: a4 = u64 [a3 + 0x8]\n 18483: u64 [sp + 0x20] = a4\n 18486: a4 = u64 [a3 + 0x10]\n 18489: u64 [sp + 0x28] = a4\n 18492: a3 = u64 [a3 + 0x18]\n 18495: u64 [sp + 0x30] = a3\n 18498: s1 = u64 [a2]\n 18500: a3 = u64 [a2 + 0x8]\n 18503: u64 [sp] = a3\n 18505: a3 = u64 [a2 + 0x10]\n 18508: u64 [sp + 0x8] = a3\n 18511: a2 = u64 [a2 + 0x18]\n 18514: u64 [sp + 0x10] = a2\n 18517: i32 a0 = a0 + 0\n 18519: a1 = 0x20\n 18522: u64 [sp + 0x38] = a1\n 18525: ra = 0x6\n 18528: jump @0\n      : @243 [@dyn 96] (gas: 1)\n 18531: jump @286\n      : @244 (gas: 4)\n 18534: i32 a0 = a0 + 0\n 18536: u64 [s1 + 0x178] = a0\n 18540: a1 = 0x20\n 18543: ra = 194, jump @0\n      : @245 [@dyn 97] (gas: 67)\n 18549: a3 = u64 [s1 + 0x190]\n 18553: u8 [a0 + 0x10] = a3\n 18556: a2 = u64 [s1 + 0x180]\n 18560: a1 = a2 >> 0x38\n 18563: u8 [a0 + 0xf] = a1\n 18566: a1 = a2 >> 0x30\n 18569: u8 [a0 + 0xe] = a1\n 18572: a1 = a2 >> 0x28\n 18575: u8 [a0 + 0xd] = a1\n 18578: a1 = a2 >> 0x20\n 18581: u8 [a0 + 0xc] = a1\n 18584: a1 = a2 >> 0x18\n 18587: u8 [a0 + 0xb] = a1\n 18590: a1 = a2 >> 0x10\n 18593: u8 [a0 + 0xa] = a1\n 18596: a1 = a2 >> 0x8\n 18599: u8 [a0 + 0x9] = a1\n 18602: u8 [a0 + 0x8] = a2\n 18605: a2 = u64 [s1 + 0x188]\n 18609: a1 = a2 >> 0x38\n 18612: u8 [a0 + 0x7] = a1\n 18615: a1 = a2 >> 0x30\n 18618: u8 [a0 + 0x6] = a1\n 18621: a1 = a2 >> 0x28\n 18624: u8 [a0 + 0x5] = a1\n 18627: a1 = a2 >> 0x20\n 18630: u8 [a0 + 0x4] = a1\n 18633: a1 = a2 >> 0x18\n 18636: u8 [a0 + 0x3] = a1\n 18639: a1 = a2 >> 0x10\n 18642: u8 [a0 + 0x2] = a1\n 18645: a1 = a2 >> 0x8\n 18648: u8 [a0 + 0x1] = a1\n 18651: u8 [a0] = a2\n 18653: a2 = u64 [s1 + 0x198]\n 18657: u8 [a0 + 0x18] = a2\n 18660: a1 = a3 >> 0x38\n 18663: u8 [a0 + 0x17] = a1\n 18666: a1 = a3 >> 0x30\n 18669: u8 [a0 + 0x16] = a1\n 18672: a1 = a3 >> 0x28\n 18675: u8 [a0 + 0x15] = a1\n 18678: a1 = a3 >> 0x20\n 18681: u8 [a0 + 0x14] = a1\n 18684: a1 = a3 >> 0x18\n 18687: u8 [a0 + 0x13] = a1\n 18690: a1 = a3 >> 0x10\n 18693: u8 [a0 + 0x12] = a1\n 18696: a1 = a3 >> 0x8\n 18699: u8 [a0 + 0x11] = a1\n 18702: a1 = a2 >> 0x38\n 18705: u8 [a0 + 0x1f] = a1\n 18708: a1 = a2 >> 0x30\n 18711: u8 [a0 + 0x1e] = a1\n 18714: a1 = a2 >> 0x28\n 18717: u8 [a0 + 0x1d] = a1\n 18720: a1 = a2 >> 0x20\n 18723: u8 [a0 + 0x1c] = a1\n 18726: a1 = a2 >> 0x18\n 18729: u8 [a0 + 0x1b] = a1\n 18732: a1 = a2 >> 0x10\n 18735: u8 [a0 + 0x1a] = a1\n 18738: a1 = a2 >> 0x8\n 18741: u8 [a0 + 0x19] = a1\n 18744: a1 = 0x20\n 18747: a0 = u64 [s1 + 0x178]\n 18751: ra = 196, jump @0\n      : @246 [@dyn 98] (gas: 5)\n 18757: i32 a1 = a0 + 0\n 18759: a2 = 0x20\n 18762: a0 = 0\n 18764: ecalli 8 // 'seal_return'\n 18766: fallthrough\n      : @247 (gas: 1)\n 18767: jump @262 if a0 != 967344903\n      : @248 (gas: 11)\n 18775: a0 = sp + 0xffffffffffffffe0\n 18778: a0 = a0 & 0xffffffffffffffe0\n 18781: u64 [s1 + 0x190] = a0\n 18785: sp = a0\n 18787: u64 [a0 + 24] = 0\n 18790: u64 [a0 + 16] = 0\n 18793: u64 [a0 + 8] = 0\n 18796: u64 [a0 + 0] = 0\n 18798: i32 a0 = a0 + 0\n 18800: ecalli 11 // 'value_transferred'\n 18802: fallthrough\n      : @249 (gas: 9)\n 18803: a3 = u64 [s1 + 0x190]\n 18807: a0 = u64 [a3 + 0x10]\n 18810: a1 = u64 [a3 + 0x18]\n 18813: a2 = u64 [a3 + 0x8]\n 18816: a3 = u64 [a3]\n 18818: a1 = a1 | a2\n 18821: a0 = a0 | a3\n 18824: a0 = a0 | a1\n 18827: jump @268 if a0 != 0\n      : @250 (gas: 3)\n 18831: a0 = u64 [s1 + 0x198]\n 18835: a0 = i32 [a0]\n 18837: jump @268 if a0 <=u 35\n      : @251 (gas: 5)\n 18842: a0 = s1 + 0x1000\n 18846: i32 a0 = a0 + 0xfffffffffffffa00\n 18850: a1 = 0x4\n 18853: ecalli 1 // 'call_data_load'\n 18855: fallthrough\n      : @252 (gas: 14)\n 18856: a0 = s1 + 0x7ff\n 18860: a0 = a0 + 0x139\n 18864: a2 = u64 [a0 + 0xd8]\n 18868: a3 = u64 [a0 + 0xe0]\n 18872: a1 = 0x100000000\n 18882: a1 = a1 ^ a2\n 18885: a1 = a1 | a3\n 18888: u64 [s1 + 0x198] = a2\n 18892: a2 = a2 >> 0x20\n 18895: a2 = a2 <u 0x1\n 18898: u64 [s1 + 0x190] = a3\n 18902: a2 = 0 if a3 != 0\n 18904: a2 = 0 if a1 == 0\n 18906: jump @268 if a2 == 0\n      : @253 (gas: 13)\n 18910: a2 = s1 + 0x7ff\n 18914: a2 = a2 + 0x139\n 18918: a1 = u64 [a2 + 0xd0]\n 18922: u64 [s1 + 0x180] = a1\n 18926: a1 = u64 [a2 + 0xc8]\n 18930: u64 [s1 + 0x188] = a1\n 18934: u64 [s1 + 856] = 0\n 18938: u64 [s1 + 848] = 0\n 18942: u64 [s1 + 832] = 0x1\n 18947: a0 = s1 + 0x360\n 18951: a1 = s1 + 0x340\n 18955: u64 [s1 + 840] = 0\n 18959: ra = 198, jump @10\n      : @254 [@dyn 99] (gas: 39)\n 18965: a0 = u64 [s1 + 0x368]\n 18969: u64 [s1 + 0x178] = a0\n 18973: a0 = u64 [s1 + 0x360]\n 18977: u64 [s1 + 0x170] = a0\n 18981: a0 = u32 [s1 + 0x370]\n 18985: u64 [s1 + 0x168] = a0\n 18989: a0 = s1 + 0x1000\n 18993: i32 a0 = a0 + 0xfffffffffffffa20\n 18997: ecalli 3 // 'caller'\n 18999: a2 = s1 + 0x7ff\n 19003: a2 = a2 + 0x139\n 19007: a0 = u64 [a2 + 0xf0]\n 19011: a1 = u64 [a2 + 0xe8]\n 19015: a2 = i32 [a2 + 0xf8]\n 19019: a0 = reverse a0\n 19021: a3 = a0 >> 0x20\n 19024: a1 = reverse a1\n 19026: a4 = a1 << 0x20\n 19029: a3 = a3 | a4\n 19032: a0 = a0 << 0x20\n 19035: a2 = reverse a2\n 19037: a2 = a2 >> 0x20\n 19040: a0 = a0 | a2\n 19043: a1 = a1 >> 0x20\n 19046: a2 = u64 [s1 + 0x168]\n 19050: a1 = a1 ^ a2\n 19053: a2 = u64 [s1 + 0x170]\n 19057: a0 = a0 ^ a2\n 19060: a0 = a0 | a1\n 19063: a1 = u64 [s1 + 0x178]\n 19067: a1 = a1 ^ a3\n 19070: a0 = a0 | a1\n 19073: a0 = a0 <u 0x1\n 19076: u64 [s1 + 824] = 0\n 19080: u64 [s1 + 816] = 0\n 19084: u64 [s1 + 0x320] = a0\n 19088: a0 = s1 + 0x320\n 19092: u64 [s1 + 808] = 0\n 19096: ra = 200, jump @301\n      : @255 [@dyn 100] (gas: 11)\n 19102: a0 = u64 [s1 + 0x190]\n 19106: u64 [s1 + 0x318] = a0\n 19110: a0 = u64 [s1 + 0x198]\n 19114: u64 [s1 + 0x310] = a0\n 19118: a0 = u64 [s1 + 0x180]\n 19122: u64 [s1 + 0x308] = a0\n 19126: a1 = s1 + 0x300\n 19130: a0 = u64 [s1 + 0x188]\n 19134: u64 [s1 + 0x300] = a0\n 19138: a0 = 0\n 19140: ra = 202, jump @8\n      : @256 [@dyn 101] (gas: 7)\n 19146: u64 [s1 + 760] = 0\n 19150: u64 [s1 + 752] = 0\n 19154: u64 [s1 + 736] = 0x2\n 19159: a0 = 0x20\n 19162: a1 = s1 + 0x2e0\n 19166: u64 [s1 + 744] = 0\n 19170: ra = 204, jump @8\n      : @257 [@dyn 102] (gas: 3)\n 19176: a1 = 0x40\n 19179: a0 = 0\n 19181: ra = 206, jump @0\n      : @258 [@dyn 103] (gas: 28)\n 19187: a1 = sp + 0xffffffffffffffe0\n 19190: a1 = a1 & 0xffffffffffffffe0\n 19193: u64 [s1 + 0x178] = a1\n 19197: sp = a1\n 19199: i32 a0 = a0 + 0\n 19201: i32 a2 = a1 + 0\n 19203: a1 = 0x40\n 19206: ecalli 6 // 'hash_keccak_256'\n 19208: a3 = u64 [s1 + 0x178]\n 19212: a0 = u64 [a3 + 0x18]\n 19215: a1 = u64 [a3 + 0x10]\n 19218: a2 = u64 [a3 + 0x8]\n 19221: a3 = u64 [a3]\n 19223: a4 = reverse a0\n 19225: u64 [s1 + 0x178] = a4\n 19229: a0 = reverse a1\n 19231: u64 [s1 + 0x170] = a0\n 19235: a1 = reverse a2\n 19237: u64 [s1 + 0x168] = a1\n 19241: a2 = reverse a3\n 19243: u64 [s1 + 0x160] = a2\n 19247: u64 [s1 + 0x2b8] = a2\n 19251: u64 [s1 + 0x2b0] = a1\n 19255: u64 [s1 + 0x2a8] = a0\n 19259: a0 = s1 + 0x2c0\n 19263: a1 = s1 + 0x2a0\n 19267: u64 [s1 + 0x2a0] = a4\n 19271: ra = 208, jump @10\n      : @259 [@dyn 104] (gas: 20)\n 19277: a0 = u64 [s1 + 0x2c8]\n 19281: a1 = u64 [s1 + 0x2d0]\n 19285: a2 = u64 [s1 + 0x2c0]\n 19289: a3 = u64 [s1 + 0x2d8]\n 19293: a2 = a2 & 0xffffffffffffff00\n 19297: u64 [s1 + 0x278] = a3\n 19301: u64 [s1 + 0x270] = a1\n 19305: u64 [s1 + 0x268] = a0\n 19309: u64 [s1 + 0x260] = a2\n 19313: a0 = u64 [s1 + 0x160]\n 19317: u64 [s1 + 0x298] = a0\n 19321: a0 = u64 [s1 + 0x168]\n 19325: u64 [s1 + 0x290] = a0\n 19329: a0 = u64 [s1 + 0x170]\n 19333: u64 [s1 + 0x288] = a0\n 19337: a0 = s1 + 0x280\n 19341: a1 = s1 + 0x260\n 19345: a2 = u64 [s1 + 0x178]\n 19349: u64 [s1 + 0x280] = a2\n 19353: ra = 210, jump @11\n      : @260 [@dyn 105] (gas: 19)\n 19359: a0 = u64 [s1 + 0x190]\n 19363: u64 [s1 + 0x238] = a0\n 19367: a0 = u64 [s1 + 0x198]\n 19371: u64 [s1 + 0x230] = a0\n 19375: a0 = u64 [s1 + 0x180]\n 19379: u64 [s1 + 0x228] = a0\n 19383: a0 = u64 [0x20040]\n 19388: a1 = u64 [s1 + 0x188]\n 19392: u64 [s1 + 0x220] = a1\n 19396: a1 = u64 [0x20048]\n 19401: u64 [s1 + 0x258] = a0\n 19405: a0 = u64 [0x20050]\n 19410: u64 [s1 + 0x250] = a1\n 19414: a1 = u64 [0x20058]\n 19419: u64 [s1 + 0x248] = a0\n 19423: a2 = s1 + 0x240\n 19427: a3 = s1 + 0x220\n 19431: u64 [s1 + 0x240] = a1\n 19435: jump @285\n      : @261 (gas: 3)\n 19438: a0 = 0\n 19440: ra = 0xd4\n 19444: jump @0\n      : @262 (gas: 1)\n 19447: jump @268 if a0 != 1220271709\n      : @263 (gas: 11)\n 19455: a0 = sp + 0xffffffffffffffe0\n 19458: a0 = a0 & 0xffffffffffffffe0\n 19461: u64 [s1 + 0x190] = a0\n 19465: sp = a0\n 19467: u64 [a0 + 24] = 0\n 19470: u64 [a0 + 16] = 0\n 19473: u64 [a0 + 8] = 0\n 19476: u64 [a0 + 0] = 0\n 19478: i32 a0 = a0 + 0\n 19480: ecalli 11 // 'value_transferred'\n 19482: fallthrough\n      : @264 (gas: 9)\n 19483: a3 = u64 [s1 + 0x190]\n 19487: a0 = u64 [a3 + 0x10]\n 19490: a1 = u64 [a3 + 0x18]\n 19493: a2 = u64 [a3 + 0x8]\n 19496: a3 = u64 [a3]\n 19498: a1 = a1 | a2\n 19501: a0 = a0 | a3\n 19504: a0 = a0 | a1\n 19507: jump @268 if a0 != 0\n      : @265 (gas: 3)\n 19510: a0 = u64 [s1 + 0x198]\n 19514: a0 = i32 [a0]\n 19516: jump @268 if a0 <=u 35\n      : @266 (gas: 5)\n 19520: a0 = s1 + 0x1000\n 19524: i32 a0 = a0 + 0xfffffffffffffa40\n 19528: a1 = 0x4\n 19531: ecalli 1 // 'call_data_load'\n 19533: fallthrough\n      : @267 (gas: 15)\n 19534: a0 = s1 + 0x7ff\n 19538: a0 = a0 + 0x139\n 19542: a2 = u64 [a0 + 0x118]\n 19546: a3 = u64 [a0 + 0x120]\n 19550: a0 = 0x1\n 19553: a1 = 0x100000000\n 19563: a1 = a1 ^ a2\n 19566: a1 = a1 | a3\n 19569: u64 [s1 + 0x198] = a2\n 19573: a2 = a2 >> 0x20\n 19576: a2 = a2 <u a0\n 19579: u64 [s1 + 0x190] = a3\n 19583: a2 = 0 if a3 != 0\n 19585: a2 = 0 if a1 == 0\n 19587: jump @277 if a2 != 0\n      : @268 (gas: 4)\n 19591: a0 = 0\n 19593: a1 = 0\n 19595: ra = 0xd4\n 19599: jump @0\n      : @269 (gas: 2)\n 19602: a1 = 0\n 19604: ra = 212, jump @0\n      : @270 [@dyn 106] (gas: 5)\n 19610: i32 a1 = a0 + 0\n 19612: a0 = 0x1\n 19615: a2 = 0\n 19617: ecalli 8 // 'seal_return'\n 19619: fallthrough\n      : @271 (gas: 8)\n 19620: u64 [s1 + 1808] = 0\n 19624: u64 [s1 + 1800] = 0\n 19628: u64 [s1 + 1792] = 0\n 19632: a0 = 0x4e487b7100000000\n 19642: a1 = s1 + 0x700\n 19646: u64 [s1 + 0x718] = a0\n 19650: a0 = 0\n 19652: ra = 214, jump @8\n      : @272 [@dyn 107] (gas: 8)\n 19658: u64 [s1 + 1784] = 0\n 19662: u64 [s1 + 1776] = 0\n 19666: u64 [s1 + 1760] = 0x41\n 19671: a0 = 0x4\n 19674: a1 = s1 + 0x6e0\n 19678: u64 [s1 + 1768] = 0\n 19682: ra = 0xda\n 19686: jump @8\n      : @273 (gas: 13)\n 19689: a0 = s1 + 0x1000\n 19693: u64 [a0 + 4294965424] = 0\n 19697: a0 = s1 + 0x1000\n 19701: u64 [a0 + 4294965416] = 0\n 19705: a0 = s1 + 0x1000\n 19709: u64 [a0 + 4294965408] = 0\n 19713: a0 = 0x4e487b7100000000\n 19723: a1 = s1 + 0x7ff\n 19727: a1 = a1 + 0xa1\n 19731: a2 = s1 + 0x1000\n 19735: u64 [a2 + 0xfffffffffffff8b8] = a0\n 19739: a0 = 0\n 19741: ra = 216, jump @8\n      : @274 [@dyn 108] (gas: 12)\n 19747: a0 = s1 + 0x1000\n 19751: u64 [a0 + 4294965400] = 0\n 19755: a0 = s1 + 0x1000\n 19759: u64 [a0 + 4294965392] = 0\n 19763: a0 = s1 + 0x1000\n 19767: u64 [a0 + 4294965384] = 0\n 19771: a0 = 0x4\n 19774: a1 = s1 + 0x7ff\n 19778: a1 = a1 + 0x81\n 19782: a2 = s1 + 0x1000\n 19786: u64 [a2 + 4294965376] = 0\n 19790: ra = 218, jump @8\n      : @275 [@dyn 109] (gas: 3)\n 19796: a1 = 0x24\n 19799: a0 = 0\n 19801: ra = 220, jump @0\n      : @276 [@dyn 110] (gas: 5)\n 19807: i32 a1 = a0 + 0\n 19809: a0 = 0x1\n 19812: a2 = 0x24\n 19815: ecalli 8 // 'seal_return'\n 19817: fallthrough\n      : @277 (gas: 13)\n 19818: a2 = s1 + 0x7ff\n 19822: a2 = a2 + 0x139\n 19826: a1 = u64 [a2 + 0x110]\n 19830: u64 [s1 + 0x180] = a1\n 19834: a1 = u64 [a2 + 0x108]\n 19838: u64 [s1 + 0x188] = a1\n 19842: u64 [s1 + 1208] = 0\n 19846: u64 [s1 + 1200] = 0\n 19850: u64 [s1 + 0x4a0] = a0\n 19854: a0 = s1 + 0x4c0\n 19858: a1 = s1 + 0x4a0\n 19862: u64 [s1 + 1192] = 0\n 19866: ra = 222, jump @10\n      : @278 [@dyn 111] (gas: 39)\n 19872: a0 = u64 [s1 + 0x4c8]\n 19876: u64 [s1 + 0x178] = a0\n 19880: a0 = u64 [s1 + 0x4c0]\n 19884: u64 [s1 + 0x170] = a0\n 19888: a0 = u32 [s1 + 0x4d0]\n 19892: u64 [s1 + 0x168] = a0\n 19896: a0 = s1 + 0x1000\n 19900: i32 a0 = a0 + 0xfffffffffffffa60\n 19904: ecalli 3 // 'caller'\n 19906: a2 = s1 + 0x7ff\n 19910: a2 = a2 + 0x139\n 19914: a0 = u64 [a2 + 0x130]\n 19918: a1 = u64 [a2 + 0x128]\n 19922: a2 = i32 [a2 + 0x138]\n 19926: a0 = reverse a0\n 19928: a3 = a0 >> 0x20\n 19931: a1 = reverse a1\n 19933: a4 = a1 << 0x20\n 19936: a3 = a3 | a4\n 19939: a0 = a0 << 0x20\n 19942: a2 = reverse a2\n 19944: a2 = a2 >> 0x20\n 19947: a0 = a0 | a2\n 19950: a1 = a1 >> 0x20\n 19953: a2 = u64 [s1 + 0x168]\n 19957: a1 = a1 ^ a2\n 19960: a2 = u64 [s1 + 0x170]\n 19964: a0 = a0 ^ a2\n 19967: a0 = a0 | a1\n 19970: a1 = u64 [s1 + 0x178]\n 19974: a1 = a1 ^ a3\n 19977: a0 = a0 | a1\n 19980: a0 = a0 <u 0x1\n 19983: u64 [s1 + 1176] = 0\n 19987: u64 [s1 + 1168] = 0\n 19991: u64 [s1 + 0x480] = a0\n 19995: a0 = s1 + 0x480\n 19999: u64 [s1 + 1160] = 0\n 20003: ra = 224, jump @301\n      : @279 [@dyn 112] (gas: 11)\n 20009: a0 = u64 [s1 + 0x190]\n 20013: u64 [s1 + 0x478] = a0\n 20017: a0 = u64 [s1 + 0x198]\n 20021: u64 [s1 + 0x470] = a0\n 20025: a0 = u64 [s1 + 0x180]\n 20029: u64 [s1 + 0x468] = a0\n 20033: a1 = s1 + 0x460\n 20037: a0 = u64 [s1 + 0x188]\n 20041: u64 [s1 + 0x460] = a0\n 20045: a0 = 0\n 20047: ra = 226, jump @8\n      : @280 [@dyn 113] (gas: 7)\n 20053: u64 [s1 + 1112] = 0\n 20057: u64 [s1 + 1104] = 0\n 20061: u64 [s1 + 1088] = 0x2\n 20066: a0 = 0x20\n 20069: a1 = s1 + 0x440\n 20073: u64 [s1 + 1096] = 0\n 20077: ra = 228, jump @8\n      : @281 [@dyn 114] (gas: 3)\n 20083: a1 = 0x40\n 20086: a0 = 0\n 20088: ra = 230, jump @0\n      : @282 [@dyn 115] (gas: 28)\n 20094: a1 = sp + 0xffffffffffffffe0\n 20097: a1 = a1 & 0xffffffffffffffe0\n 20100: u64 [s1 + 0x178] = a1\n 20104: sp = a1\n 20106: i32 a0 = a0 + 0\n 20108: i32 a2 = a1 + 0\n 20110: a1 = 0x40\n 20113: ecalli 6 // 'hash_keccak_256'\n 20115: a3 = u64 [s1 + 0x178]\n 20119: a0 = u64 [a3 + 0x18]\n 20122: a1 = u64 [a3 + 0x10]\n 20125: a2 = u64 [a3 + 0x8]\n 20128: a3 = u64 [a3]\n 20130: a4 = reverse a0\n 20132: u64 [s1 + 0x160] = a4\n 20136: a0 = reverse a1\n 20138: u64 [s1 + 0x178] = a0\n 20142: a1 = reverse a2\n 20144: u64 [s1 + 0x170] = a1\n 20148: a2 = reverse a3\n 20150: u64 [s1 + 0x168] = a2\n 20154: u64 [s1 + 0x418] = a2\n 20158: u64 [s1 + 0x410] = a1\n 20162: u64 [s1 + 0x408] = a0\n 20166: a0 = s1 + 0x420\n 20170: a1 = s1 + 0x400\n 20174: u64 [s1 + 0x400] = a4\n 20178: ra = 232, jump @10\n      : @283 [@dyn 116] (gas: 21)\n 20184: a0 = u64 [s1 + 0x428]\n 20188: a1 = u64 [s1 + 0x420]\n 20192: a2 = u64 [s1 + 0x430]\n 20196: a3 = u64 [s1 + 0x438]\n 20200: a1 = a1 & 0xffffffffffffff00\n 20204: a4 = a1 | 0x1\n 20207: u64 [s1 + 0x3d8] = a3\n 20211: u64 [s1 + 0x3d0] = a2\n 20215: u64 [s1 + 0x3c8] = a0\n 20219: a0 = u64 [s1 + 0x168]\n 20223: u64 [s1 + 0x3f8] = a0\n 20227: a0 = u64 [s1 + 0x170]\n 20231: u64 [s1 + 0x3f0] = a0\n 20235: a0 = u64 [s1 + 0x178]\n 20239: u64 [s1 + 0x3e8] = a0\n 20243: a0 = u64 [s1 + 0x160]\n 20247: u64 [s1 + 0x3e0] = a0\n 20251: a0 = s1 + 0x3e0\n 20255: a1 = s1 + 0x3c0\n 20259: u64 [s1 + 0x3c0] = a4\n 20263: ra = 234, jump @11\n      : @284 [@dyn 117] (gas: 19)\n 20269: a0 = u64 [s1 + 0x190]\n 20273: u64 [s1 + 0x398] = a0\n 20277: a0 = u64 [s1 + 0x198]\n 20281: u64 [s1 + 0x390] = a0\n 20285: a0 = u64 [s1 + 0x180]\n 20289: u64 [s1 + 0x388] = a0\n 20293: a0 = u64 [0x20020]\n 20298: a1 = u64 [s1 + 0x188]\n 20302: u64 [s1 + 0x380] = a1\n 20306: a1 = u64 [0x20028]\n 20311: u64 [s1 + 0x3b8] = a0\n 20315: a0 = u64 [0x20030]\n 20320: u64 [s1 + 0x3b0] = a1\n 20324: a1 = u64 [0x20038]\n 20329: u64 [s1 + 0x3a8] = a0\n 20333: a2 = s1 + 0x3a0\n 20337: a3 = s1 + 0x380\n 20341: u64 [s1 + 0x3a0] = a1\n 20345: fallthrough\n      : @285 (gas: 27)\n 20346: ra = 0xec\n 20350: sp = sp + 0xffffffffffffff60\n 20354: u64 [sp + 0x98] = ra\n 20358: u64 [sp + 0x90] = s0\n 20362: u64 [sp + 0x88] = s1\n 20366: s0 = sp + 0xa0\n 20370: sp = sp & 0xffffffffffffffe0\n 20373: a4 = u64 [a3]\n 20375: u64 [sp + 0x38] = a4\n 20378: a4 = u64 [a3 + 0x8]\n 20381: u64 [sp + 0x28] = a4\n 20384: a4 = u64 [a3 + 0x10]\n 20387: u64 [sp + 0x20] = a4\n 20390: a3 = u64 [a3 + 0x18]\n 20393: u64 [sp + 0x18] = a3\n 20396: a3 = u64 [a2]\n 20398: u64 [sp + 0x10] = a3\n 20401: a3 = u64 [a2 + 0x8]\n 20404: u64 [sp + 0x8] = a3\n 20407: a3 = u64 [a2 + 0x10]\n 20410: u64 [sp] = a3\n 20412: s1 = u64 [a2 + 0x18]\n 20415: a0 = 0\n 20417: a1 = 0\n 20419: u64 [sp + 48] = 0\n 20422: ra = 0x4\n 20425: jump @0\n      : @286 [@dyn 118] (gas: 3)\n 20428: a0 = 0\n 20430: a1 = 0\n 20432: ra = 238, jump @0\n      : @287 [@dyn 119] (gas: 6)\n 20438: i32 a1 = a0 + 0\n 20440: a0 = 0\n 20442: a2 = 0\n 20444: ra = 0xf0\n 20448: ecalli 8 // 'seal_return'\n 20450: fallthrough\n      : @288 [@dyn 120] (gas: 33)\n 20451: sp = sp + 0xffffffffffffff80\n 20454: u64 [sp + 0x78] = ra\n 20457: u64 [sp + 0x70] = s0\n 20460: u64 [sp + 0x68] = s1\n 20463: s0 = sp + 0x80\n 20467: sp = sp & 0xffffffffffffffe0\n 20470: a2 = u64 [a1]\n 20472: t0 = u64 [a1 + 0x18]\n 20475: a4 = u64 [a1 + 0x8]\n 20478: a1 = u64 [a1 + 0x10]\n 20481: a5 = a2 + 0xfffffffffffffffc\n 20484: s1 = a5 <u a2\n 20487: a2 = a4 + s1\n 20490: a2 = a2 + 0xffffffffffffffff\n 20493: a3 = a2 ^ a4\n 20496: a4 = a2 <u a4\n 20499: a4 = s1 if a3 == 0\n 20502: a3 = a1 + 0xffffffffffffffff\n 20505: a4 = a4 + a3\n 20508: a3 = a4 <u a3\n 20511: a1 = a1 <u 0x1\n 20514: a1 = t0 - a1\n 20517: a1 = a1 + a3\n 20520: a3 = a1 >s 0\n 20522: s1 = a4 >u 0\n 20524: s1 = a3 if a1 != 0\n 20527: a1 = a1 | a4\n 20530: a3 = a2 >u 0\n 20532: a4 = a5 <u 0x40\n 20535: a4 = a4 ^ 0x1\n 20538: a4 = a3 if a2 != 0\n 20541: a4 = s1 if a1 != 0\n 20544: jump @290 if a4 == 0\n      : @289 (gas: 37)\n 20547: s1 = a0\n 20549: i32 a0 = sp + 0x20\n 20552: a1 = 0x4\n 20555: ecalli 1 // 'call_data_load'\n 20557: a0 = u64 [sp + 0x20]\n 20560: u64 [sp + 0x18] = a0\n 20563: a0 = u64 [sp + 0x28]\n 20566: u64 [sp + 0x10] = a0\n 20569: a0 = u64 [sp + 0x30]\n 20572: u64 [sp + 0x8] = a0\n 20575: a0 = u64 [sp + 0x38]\n 20578: u64 [sp] = a0\n 20580: i32 a0 = sp + 0x40\n 20583: a1 = 0x24\n 20586: ecalli 1 // 'call_data_load'\n 20588: a0 = u64 [sp + 0x40]\n 20591: a1 = u64 [sp + 0x48]\n 20594: a2 = u64 [sp + 0x50]\n 20597: a3 = u64 [sp + 0x58]\n 20600: a4 = u64 [sp]\n 20602: u64 [s1 + 0x18] = a4\n 20605: a4 = u64 [sp + 0x8]\n 20608: u64 [s1 + 0x10] = a4\n 20611: a4 = u64 [sp + 0x10]\n 20614: u64 [s1 + 0x8] = a4\n 20617: a4 = u64 [sp + 0x18]\n 20620: u64 [s1] = a4\n 20622: u64 [s1 + 0x38] = a3\n 20625: u64 [s1 + 0x30] = a2\n 20628: u64 [s1 + 0x28] = a1\n 20631: u64 [s1 + 0x20] = a0\n 20634: sp = s0 + 0xffffffffffffff80\n 20637: ra = u64 [sp + 0x78]\n 20640: s0 = u64 [sp + 0x70]\n 20643: s1 = u64 [sp + 0x68]\n 20646: sp = sp + 0x80\n 20650: ret\n      : @290 (gas: 3)\n 20652: a0 = 0\n 20654: a1 = 0\n 20656: ra = 242, jump @0\n      : @291 [@dyn 121] (gas: 6)\n 20662: i32 a1 = a0 + 0\n 20664: a0 = 0x1\n 20667: a2 = 0\n 20669: ra = 0xf4\n 20673: ecalli 8 // 'seal_return'\n 20675: fallthrough\n      : @292 [@dyn 122] (gas: 44)\n 20676: sp = sp + 0xffffffffffffff00\n 20680: u64 [sp + 0xf8] = ra\n 20684: u64 [sp + 0xf0] = s0\n 20688: u64 [sp + 0xe8] = s1\n 20692: s0 = sp + 0x100\n 20696: sp = sp & 0xffffffffffffffe0\n 20699: s1 = sp\n 20701: u64 [s1 + 0x38] = a0\n 20704: a0 = u64 [a2]\n 20706: u64 [s1 + 0x40] = a0\n 20709: a0 = u64 [a2 + 0x8]\n 20712: u64 [s1 + 0x48] = a0\n 20715: a0 = u64 [a2 + 0x10]\n 20718: u64 [s1 + 0x50] = a0\n 20721: a0 = u64 [a2 + 0x18]\n 20724: u64 [s1 + 0x58] = a0\n 20727: a0 = u64 [a1 + 0x18]\n 20730: a2 = u64 [a1 + 0x10]\n 20733: a3 = u64 [a1 + 0x8]\n 20736: a1 = u64 [a1]\n 20738: a5 = reverse a0\n 20740: a4 = reverse a2\n 20742: a2 = reverse a3\n 20744: a0 = reverse a1\n 20746: u64 [s1 + 0x30] = a0\n 20749: u64 [s1 + 0xb8] = a0\n 20753: u64 [s1 + 0x28] = a2\n 20756: u64 [s1 + 0xb0] = a2\n 20760: u64 [s1 + 0x20] = a4\n 20763: u64 [s1 + 0xa8] = a4\n 20767: u64 [s1 + 0x18] = a5\n 20770: u64 [s1 + 0xa0] = a5\n 20774: u64 [s1 + 216] = 0\n 20778: u64 [s1 + 208] = 0\n 20782: u64 [s1 + 200] = 0\n 20786: u64 [s1 + 192] = 0\n 20790: u32 [s1 + 224] = 0x20\n 20795: i32 a1 = s1 + 0xa0\n 20799: i32 a3 = s1 + 0xc0\n 20803: i32 a4 = s1 + 0xe0\n 20807: a2 = 0xffffffffffffffff\n 20810: a0 = 0\n 20812: ecalli 5 // 'get_storage'\n 20814: fallthrough\n      : @293 (gas: 24)\n 20815: a0 = u64 [s1 + 0xd8]\n 20819: a1 = u64 [s1 + 0xd0]\n 20823: a2 = u64 [s1 + 0xc8]\n 20827: a3 = u64 [s1 + 0xc0]\n 20831: t0 = reverse a0\n 20833: a0 = reverse a1\n 20835: a2 = reverse a2\n 20837: a3 = reverse a3\n 20839: a1 = u64 [s1 + 0x58]\n 20842: a4 = a3 ^ a1\n 20845: a3 = a1 <u a3\n 20848: a1 = u64 [s1 + 0x50]\n 20851: a5 = a1 <u a2\n 20854: a5 = a3 if a4 != 0\n 20857: a3 = u64 [s1 + 0x48]\n 20860: t1 = a0 ^ a3\n 20863: a3 = a3 <u a0\n 20866: a0 = u64 [s1 + 0x40]\n 20869: a0 = a0 <u t0\n 20872: a0 = a3 if t1 != 0\n 20875: a1 = a1 ^ a2\n 20878: a1 = a1 | a4\n 20881: a0 = a5 if a1 != 0\n 20884: jump @297 if a0 == 0\n      : @294 (gas: 3)\n 20888: a1 = 0x20\n 20891: a0 = 0\n 20893: ra = 246, jump @0\n      : @295 [@dyn 123] (gas: 67)\n 20899: a2 = u64 [s1 + 0x20]\n 20902: u8 [a0 + 0x8] = a2\n 20905: a3 = u64 [s1 + 0x18]\n 20908: a1 = a3 >> 0x38\n 20911: u8 [a0 + 0x7] = a1\n 20914: a1 = a3 >> 0x30\n 20917: u8 [a0 + 0x6] = a1\n 20920: a1 = a3 >> 0x28\n 20923: u8 [a0 + 0x5] = a1\n 20926: a1 = a3 >> 0x20\n 20929: u8 [a0 + 0x4] = a1\n 20932: a1 = a3 >> 0x18\n 20935: u8 [a0 + 0x3] = a1\n 20938: a1 = a3 >> 0x10\n 20941: u8 [a0 + 0x2] = a1\n 20944: a1 = a3 >> 0x8\n 20947: u8 [a0 + 0x1] = a1\n 20950: u8 [a0] = a3\n 20952: a3 = u64 [s1 + 0x28]\n 20955: u8 [a0 + 0x10] = a3\n 20958: a1 = a2 >> 0x38\n 20961: u8 [a0 + 0xf] = a1\n 20964: a1 = a2 >> 0x30\n 20967: u8 [a0 + 0xe] = a1\n 20970: a1 = a2 >> 0x28\n 20973: u8 [a0 + 0xd] = a1\n 20976: a1 = a2 >> 0x20\n 20979: u8 [a0 + 0xc] = a1\n 20982: a1 = a2 >> 0x18\n 20985: u8 [a0 + 0xb] = a1\n 20988: a1 = a2 >> 0x10\n 20991: u8 [a0 + 0xa] = a1\n 20994: a1 = a2 >> 0x8\n 20997: u8 [a0 + 0x9] = a1\n 21000: a2 = u64 [s1 + 0x30]\n 21003: u8 [a0 + 0x18] = a2\n 21006: a1 = a3 >> 0x38\n 21009: u8 [a0 + 0x17] = a1\n 21012: a1 = a3 >> 0x30\n 21015: u8 [a0 + 0x16] = a1\n 21018: a1 = a3 >> 0x28\n 21021: u8 [a0 + 0x15] = a1\n 21024: a1 = a3 >> 0x20\n 21027: u8 [a0 + 0x14] = a1\n 21030: a1 = a3 >> 0x18\n 21033: u8 [a0 + 0x13] = a1\n 21036: a1 = a3 >> 0x10\n 21039: u8 [a0 + 0x12] = a1\n 21042: a1 = a3 >> 0x8\n 21045: u8 [a0 + 0x11] = a1\n 21048: a1 = a2 >> 0x38\n 21051: u8 [a0 + 0x1f] = a1\n 21054: a1 = a2 >> 0x30\n 21057: u8 [a0 + 0x1e] = a1\n 21060: a1 = a2 >> 0x28\n 21063: u8 [a0 + 0x1d] = a1\n 21066: a1 = a2 >> 0x20\n 21069: u8 [a0 + 0x1c] = a1\n 21072: a1 = a2 >> 0x18\n 21075: u8 [a0 + 0x1b] = a1\n 21078: a1 = a2 >> 0x10\n 21081: u8 [a0 + 0x1a] = a1\n 21084: a1 = a2 >> 0x8\n 21087: u8 [a0 + 0x19] = a1\n 21090: a1 = 0x20\n 21093: a0 = 0\n 21095: ra = 248, jump @0\n      : @296 [@dyn 124] (gas: 70)\n 21101: a1 = sp + 0xffffffffffffffe0\n 21104: a1 = a1 & 0xffffffffffffffe0\n 21107: u64 [s1 + 0x30] = a1\n 21110: sp = a1\n 21112: i32 a0 = a0 + 0\n 21114: i32 a2 = a1 + 0\n 21116: a1 = 0x20\n 21119: ecalli 6 // 'hash_keccak_256'\n 21121: t0 = u64 [s1 + 0x30]\n 21124: a0 = u64 [t0 + 0x18]\n 21127: a1 = u64 [t0 + 0x10]\n 21130: a3 = reverse a0\n 21132: a1 = reverse a1\n 21134: a4 = 0x3\n 21137: a0 = u64 [s1 + 0x40]\n 21140: a2 = a0 << 0x1\n 21143: t1 = a2 + a0\n 21146: a4 = a0 mulhu a4\n 21149: a2 = u64 [s1 + 0x48]\n 21152: a5 = a2 << 0x1\n 21155: a5 = a5 + a2\n 21158: a4 = a4 + a5\n 21161: t1 = t1 + a3\n 21164: a3 = t1 <u a3\n 21167: a0 = a1 + a4\n 21170: ra = a0 + a3\n 21173: a0 = ra ^ a1\n 21176: a1 = ra <u a1\n 21179: a1 = a3 if a0 == 0\n 21182: a0 = a4 <u a5\n 21185: a4 = 0x3\n 21188: a3 = a2 mulhu a4\n 21191: a0 = a0 + a3\n 21194: a2 = u64 [s1 + 0x50]\n 21197: a3 = a2 << 0x1\n 21200: t2 = a3 + a2\n 21203: a4 = a2 mulhu a4\n 21206: a5 = u64 [t0]\n 21208: a2 = u64 [s1 + 0x58]\n 21211: a3 = a2 << 0x1\n 21214: a3 = a3 + a2\n 21217: a3 = a3 + a4\n 21220: a4 = reverse a5\n 21222: a3 = a3 + a4\n 21225: a4 = u64 [t0 + 0x8]\n 21228: t2 = t2 + a0\n 21231: a0 = t2 <u a0\n 21234: a0 = a0 + a3\n 21237: a3 = reverse a4\n 21239: t2 = t2 + a3\n 21242: a3 = t2 <u a3\n 21245: a0 = a0 + a3\n 21248: a1 = a1 + t2\n 21251: a3 = a1 <u t2\n 21254: a0 = a0 + a3\n 21257: a3 = u64 [s1 + 0x38]\n 21260: u64 [a3] = t1\n 21262: u64 [a3 + 0x8] = ra\n 21265: u64 [a3 + 0x10] = a1\n 21268: u64 [a3 + 0x18] = a0\n 21271: u64 [a3 + 56] = 0\n 21274: u64 [a3 + 48] = 0\n 21277: u64 [a3 + 40] = 0\n 21280: u64 [a3 + 32] = 0\n 21283: sp = s0 + 0xffffffffffffff00\n 21287: ra = u64 [sp + 0xf8]\n 21291: s0 = u64 [sp + 0xf0]\n 21295: s1 = u64 [sp + 0xe8]\n 21299: sp = sp + 0x100\n 21303: ret\n      : @297 (gas: 8)\n 21305: u64 [s1 + 144] = 0\n 21309: u64 [s1 + 136] = 0\n 21313: u64 [s1 + 128] = 0\n 21317: a0 = 0x4e487b7100000000\n 21327: a1 = s1 + 0x80\n 21331: u64 [s1 + 0x98] = a0\n 21335: a0 = 0\n 21337: ra = 250, jump @8\n      : @298 [@dyn 125] (gas: 7)\n 21343: u64 [s1 + 120] = 0\n 21346: u64 [s1 + 112] = 0\n 21349: u64 [s1 + 96] = 0x32\n 21353: a0 = 0x4\n 21356: a1 = s1 + 0x60\n 21359: u64 [s1 + 104] = 0\n 21362: ra = 252, jump @8\n      : @299 [@dyn 126] (gas: 3)\n 21368: a1 = 0x24\n 21371: a0 = 0\n 21373: ra = 254, jump @0\n      : @300 [@dyn 127] (gas: 6)\n 21379: i32 a1 = a0 + 0\n 21381: a0 = 0x1\n 21384: a2 = 0x24\n 21387: ra = 0x100\n 21391: ecalli 8 // 'seal_return'\n 21393: fallthrough\n      : @301 [@dyn 128] (gas: 12)\n 21394: sp = sp + 0xffffffffffffffd0\n 21397: u64 [sp + 0x28] = ra\n 21400: u64 [sp + 0x20] = s0\n 21403: u64 [sp + 0x18] = s1\n 21406: a1 = u64 [a0 + 0x10]\n 21409: a2 = u64 [a0 + 0x18]\n 21412: a3 = u64 [a0 + 0x8]\n 21415: a0 = u64 [a0]\n 21417: a2 = a2 | a3\n 21420: a0 = a0 | a1\n 21423: a0 = a0 | a2\n 21426: jump @303 if a0 == 0\n      : @302 (gas: 5)\n 21429: ra = u64 [sp + 0x28]\n 21432: s0 = u64 [sp + 0x20]\n 21435: s1 = u64 [sp + 0x18]\n 21438: sp = sp + 0x30\n 21441: ret\n      : @303 (gas: 3)\n 21443: a0 = 0x40\n 21446: a1 = 0x20\n 21449: ra = 258, jump @0\n      : @304 [@dyn 129] (gas: 102)\n 21455: a1 = u8 [a0 + 0x11]\n 21458: a2 = u8 [a0 + 0x10]\n 21461: a3 = u8 [a0 + 0x12]\n 21464: a4 = u8 [a0 + 0x13]\n 21467: a1 = a1 << 0x8\n 21470: a1 = a1 | a2\n 21473: a3 = a3 << 0x10\n 21476: a4 = a4 << 0x18\n 21479: a3 = a3 | a4\n 21482: a1 = a1 | a3\n 21485: a2 = u8 [a0 + 0x15]\n 21488: a3 = u8 [a0 + 0x14]\n 21491: a4 = u8 [a0 + 0x16]\n 21494: a5 = u8 [a0 + 0x17]\n 21497: a2 = a2 << 0x8\n 21500: a2 = a2 | a3\n 21503: a4 = a4 << 0x10\n 21506: a5 = a5 << 0x18\n 21509: a4 = a4 | a5\n 21512: a2 = a2 | a4\n 21515: a2 = a2 << 0x20\n 21518: a1 = a1 | a2\n 21521: a2 = u8 [a0 + 0x1]\n 21524: a3 = u8 [a0]\n 21526: a4 = u8 [a0 + 0x2]\n 21529: a5 = u8 [a0 + 0x3]\n 21532: a2 = a2 << 0x8\n 21535: a2 = a2 | a3\n 21538: a4 = a4 << 0x10\n 21541: a5 = a5 << 0x18\n 21544: a4 = a4 | a5\n 21547: a2 = a2 | a4\n 21550: a3 = u8 [a0 + 0x5]\n 21553: a4 = u8 [a0 + 0x4]\n 21556: a5 = u8 [a0 + 0x6]\n 21559: s1 = u8 [a0 + 0x7]\n 21562: a3 = a3 << 0x8\n 21565: a3 = a3 | a4\n 21568: a5 = a5 << 0x10\n 21571: s1 = s1 << 0x18\n 21574: a5 = a5 | s1\n 21577: a3 = a3 | a5\n 21580: a3 = a3 << 0x20\n 21583: a2 = a2 | a3\n 21586: a3 = u8 [a0 + 0x19]\n 21589: a4 = u8 [a0 + 0x18]\n 21592: a5 = u8 [a0 + 0x1a]\n 21595: s1 = u8 [a0 + 0x1b]\n 21598: a3 = a3 << 0x8\n 21601: a3 = a3 | a4\n 21604: a5 = a5 << 0x10\n 21607: s1 = s1 << 0x18\n 21610: a5 = a5 | s1\n 21613: a3 = a3 | a5\n 21616: a4 = u8 [a0 + 0x1d]\n 21619: a5 = u8 [a0 + 0x1c]\n 21622: s1 = u8 [a0 + 0x1e]\n 21625: s0 = u8 [a0 + 0x1f]\n 21628: a4 = a4 << 0x8\n 21631: a4 = a4 | a5\n 21634: s1 = s1 << 0x10\n 21637: s0 = s0 << 0x18\n 21640: s0 = s0 | s1\n 21643: a4 = a4 | s0\n 21646: a4 = a4 << 0x20\n 21649: a3 = a3 | a4\n 21652: a4 = u8 [a0 + 0x9]\n 21655: a5 = u8 [a0 + 0x8]\n 21658: s1 = u8 [a0 + 0xa]\n 21661: s0 = u8 [a0 + 0xb]\n 21664: a4 = a4 << 0x8\n 21667: a4 = a4 | a5\n 21670: s1 = s1 << 0x10\n 21673: s0 = s0 << 0x18\n 21676: s0 = s0 | s1\n 21679: a4 = a4 | s0\n 21682: a5 = u8 [a0 + 0xd]\n 21685: s1 = u8 [a0 + 0xc]\n 21688: s0 = u8 [a0 + 0xe]\n 21691: a0 = u8 [a0 + 0xf]\n 21694: a5 = a5 << 0x8\n 21697: a5 = a5 | s1\n 21700: s0 = s0 << 0x10\n 21703: a0 = a0 << 0x18\n 21706: a0 = a0 | s0\n 21709: a0 = a0 | a5\n 21712: a0 = a0 << 0x20\n 21715: a0 = a0 | a4\n 21718: s0 = reverse a0\n 21720: a3 = reverse a3\n 21722: s1 = reverse a2\n 21724: a0 = reverse a1\n 21726: u64 [sp + 0x8] = a0\n 21729: a0 = a0 | s1\n 21732: u64 [sp + 0x10] = a3\n 21735: a1 = a3 | s0\n 21738: a1 = a1 | a0\n 21741: a1 = a1 >> 0x20\n 21744: a0 = a0 | s0\n 21747: a0 = a0 << 0x20\n 21750: a0 = a0 | a1\n 21753: jump @311 if a0 != 0\n      : @305 (gas: 4)\n 21757: a0 = i32 [sp + 0x10]\n 21760: a1 = 0x20\n 21763: u64 [sp] = a0\n 21765: ra = 260, jump @0\n      : @306 [@dyn 130] (gas: 41)\n 21771: u8 [a0 + 31] = 0\n 21774: u8 [a0 + 30] = 0\n 21777: u8 [a0 + 29] = 0\n 21780: u8 [a0 + 28] = 0\n 21783: u8 [a0 + 27] = 0\n 21786: u8 [a0 + 26] = 0\n 21789: u8 [a0 + 25] = 0\n 21792: u8 [a0 + 24] = 0\n 21795: u8 [a0 + 23] = 0\n 21798: u8 [a0 + 22] = 0\n 21801: u8 [a0 + 21] = 0\n 21804: u8 [a0 + 20] = 0\n 21807: u8 [a0 + 19] = 0\n 21810: u8 [a0 + 18] = 0\n 21813: u8 [a0 + 17] = 0\n 21816: u8 [a0 + 16] = 0\n 21819: u8 [a0 + 15] = 0\n 21822: u8 [a0 + 14] = 0\n 21825: u8 [a0 + 13] = 0\n 21828: u8 [a0 + 12] = 0\n 21831: u8 [a0 + 11] = 0\n 21834: u8 [a0 + 10] = 0\n 21837: u8 [a0 + 9] = 0\n 21840: u8 [a0 + 8] = 0\n 21843: u8 [a0 + 7] = 0\n 21846: u8 [a0 + 6] = 0\n 21849: u8 [a0 + 5] = 0\n 21852: u8 [a0 + 3] = 0xa0\n 21857: u8 [a0 + 2] = 0x79\n 21861: u8 [a0 + 1] = 0xc3\n 21866: u8 [a0 + 0] = 0x8\n 21869: s1 = s1 | s0\n 21872: s0 = 0x100000000\n 21882: a1 = 0xfffffffc\n 21892: a2 = u64 [sp + 0x10]\n 21895: a1 = a2 <u a1\n 21898: a2 = u64 [sp + 0x8]\n 21901: a1 = 0 if a2 != 0\n 21903: a1 = 0 if s1 != 0\n 21905: u8 [a0 + 4] = 0\n 21908: jump @311 if a1 == 0\n      : @307 (gas: 4)\n 21912: a0 = u64 [sp]\n 21914: i32 a0 = a0 + 0x4\n 21917: a1 = 0x20\n 21920: ra = 262, jump @0\n      : @308 [@dyn 131] (gas: 39)\n 21926: u8 [a0 + 31] = 0x20\n 21930: u8 [a0 + 30] = 0\n 21933: u8 [a0 + 29] = 0\n 21936: u8 [a0 + 28] = 0\n 21939: u8 [a0 + 27] = 0\n 21942: u8 [a0 + 26] = 0\n 21945: u8 [a0 + 25] = 0\n 21948: u8 [a0 + 24] = 0\n 21951: u8 [a0 + 23] = 0\n 21954: u8 [a0 + 22] = 0\n 21957: u8 [a0 + 21] = 0\n 21960: u8 [a0 + 20] = 0\n 21963: u8 [a0 + 19] = 0\n 21966: u8 [a0 + 18] = 0\n 21969: u8 [a0 + 17] = 0\n 21972: u8 [a0 + 16] = 0\n 21975: u8 [a0 + 15] = 0\n 21978: u8 [a0 + 14] = 0\n 21981: u8 [a0 + 13] = 0\n 21984: u8 [a0 + 12] = 0\n 21987: u8 [a0 + 11] = 0\n 21990: u8 [a0 + 10] = 0\n 21993: u8 [a0 + 9] = 0\n 21996: u8 [a0 + 8] = 0\n 21999: u8 [a0 + 7] = 0\n 22002: u8 [a0 + 6] = 0\n 22005: u8 [a0 + 5] = 0\n 22008: u8 [a0 + 4] = 0\n 22011: u8 [a0 + 3] = 0\n 22014: u8 [a0 + 2] = 0\n 22017: u8 [a0 + 1] = 0\n 22020: a1 = s0 + 0xffffffffffffffdc\n 22023: a2 = u64 [sp + 0x10]\n 22026: a1 = a2 <u a1\n 22029: a2 = u64 [sp + 0x8]\n 22032: a1 = 0 if a2 != 0\n 22034: a1 = 0 if s1 != 0\n 22036: u8 [a0 + 0] = 0\n 22038: jump @311 if a1 == 0\n      : @309 (gas: 4)\n 22042: a0 = u64 [sp]\n 22044: i32 a0 = a0 + 0x24\n 22047: a1 = 0x20\n 22050: ra = 264, jump @0\n      : @310 [@dyn 132] (gas: 39)\n 22056: u8 [a0 + 31] = 0x16\n 22060: u8 [a0 + 30] = 0\n 22063: u8 [a0 + 29] = 0\n 22066: u8 [a0 + 28] = 0\n 22069: u8 [a0 + 27] = 0\n 22072: u8 [a0 + 26] = 0\n 22075: u8 [a0 + 25] = 0\n 22078: u8 [a0 + 24] = 0\n 22081: u8 [a0 + 23] = 0\n 22084: u8 [a0 + 22] = 0\n 22087: u8 [a0 + 21] = 0\n 22090: u8 [a0 + 20] = 0\n 22093: u8 [a0 + 19] = 0\n 22096: u8 [a0 + 18] = 0\n 22099: u8 [a0 + 17] = 0\n 22102: u8 [a0 + 16] = 0\n 22105: u8 [a0 + 15] = 0\n 22108: u8 [a0 + 14] = 0\n 22111: u8 [a0 + 13] = 0\n 22114: u8 [a0 + 12] = 0\n 22117: u8 [a0 + 11] = 0\n 22120: u8 [a0 + 10] = 0\n 22123: u8 [a0 + 9] = 0\n 22126: u8 [a0 + 8] = 0\n 22129: u8 [a0 + 7] = 0\n 22132: u8 [a0 + 6] = 0\n 22135: u8 [a0 + 5] = 0\n 22138: u8 [a0 + 4] = 0\n 22141: u8 [a0 + 3] = 0\n 22144: u8 [a0 + 2] = 0\n 22147: u8 [a0 + 1] = 0\n 22150: a1 = 0xffffffbc\n 22160: a2 = u64 [sp + 0x10]\n 22163: a1 = a2 <u a1\n 22166: a2 = u64 [sp + 0x8]\n 22169: a1 = 0 if a2 != 0\n 22171: a1 = 0 if s1 != 0\n 22173: u8 [a0 + 0] = 0\n 22175: jump @312 if a1 != 0\n      : @311 (gas: 1)\n 22178: trap\n      : @312 (gas: 4)\n 22179: s0 = u64 [sp]\n 22181: i32 a0 = s0 + 0x44\n 22184: a1 = 0x20\n 22187: ra = 266, jump @0\n      : @313 [@dyn 133] (gas: 38)\n 22193: u8 [a0 + 31] = 0\n 22196: u8 [a0 + 30] = 0\n 22199: u8 [a0 + 29] = 0\n 22202: u8 [a0 + 28] = 0\n 22205: u8 [a0 + 27] = 0\n 22208: u8 [a0 + 26] = 0\n 22211: u8 [a0 + 25] = 0\n 22214: u8 [a0 + 24] = 0\n 22217: u8 [a0 + 23] = 0\n 22220: u8 [a0 + 22] = 0\n 22223: u8 [a0 + 21] = 0x65\n 22227: u8 [a0 + 20] = 0x74\n 22231: u8 [a0 + 19] = 0x61\n 22235: u8 [a0 + 18] = 0x72\n 22239: u8 [a0 + 17] = 0x65\n 22243: u8 [a0 + 16] = 0x70\n 22247: a4 = 0x6f\n 22250: u8 [a0 + 0xf] = a4\n 22253: s1 = 0x20\n 22256: u8 [a0 + 0xe] = s1\n 22259: a5 = 0x6e\n 22262: u8 [a0 + 0xd] = a5\n 22265: u8 [a0 + 12] = 0x61\n 22269: u8 [a0 + 11] = 0x63\n 22273: u8 [a0 + 0xa] = s1\n 22276: u8 [a0 + 9] = 0x72\n 22280: u8 [a0 + 8] = 0x65\n 22284: u8 [a0 + 0x7] = a5\n 22287: u8 [a0 + 6] = 0x77\n 22291: u8 [a0 + 0x5] = a4\n 22294: u8 [a0 + 0x4] = s1\n 22297: u8 [a0 + 3] = 0x79\n 22301: u8 [a0 + 2] = 0x6c\n 22305: u8 [a0 + 0x1] = a5\n 22308: u8 [a0 + 0] = 0x4f\n 22311: a1 = 0x64\n 22314: a0 = s0\n 22316: ra = 268, jump @0\n      : @314 [@dyn 134] (gas: 6)\n 22322: i32 a1 = a0 + 0\n 22324: a0 = 0x1\n 22327: a2 = 0x64\n 22330: ra = 0x10e\n 22334: ecalli 8 // 'seal_return'\n 22336: fallthrough\n      : @315 [@dyn 135] (gas: 10)\n 22337: sp = sp + 0xffffffffffffff60\n 22341: u64 [sp + 0x98] = ra\n 22345: u64 [sp + 0x90] = s0\n 22349: u64 [sp + 0x88] = s1\n 22353: s0 = sp + 0xa0\n 22357: sp = sp & 0xfffffffffffffff0\n 22360: u64 [sp + 0x38] = a0\n 22363: a0 = 0x40\n 22366: a1 = 0x20\n 22369: ra = 272, jump @0\n      : @316 [@dyn 136] (gas: 97)\n 22375: a1 = u8 [a0 + 0x9]\n 22378: a2 = u8 [a0 + 0x8]\n 22381: a3 = u8 [a0 + 0xa]\n 22384: a4 = u8 [a0 + 0xb]\n 22387: a1 = a1 << 0x8\n 22390: a1 = a1 | a2\n 22393: a3 = a3 << 0x10\n 22396: a4 = a4 << 0x18\n 22399: a3 = a3 | a4\n 22402: a1 = a1 | a3\n 22405: a2 = u8 [a0 + 0xd]\n 22408: a3 = u8 [a0 + 0xc]\n 22411: a4 = u8 [a0 + 0xe]\n 22414: a5 = u8 [a0 + 0xf]\n 22417: a2 = a2 << 0x8\n 22420: a2 = a2 | a3\n 22423: a4 = a4 << 0x10\n 22426: a5 = a5 << 0x18\n 22429: a4 = a4 | a5\n 22432: a2 = a2 | a4\n 22435: a2 = a2 << 0x20\n 22438: t0 = a2 | a1\n 22441: a2 = u8 [a0 + 0x1]\n 22444: a3 = u8 [a0]\n 22446: a4 = u8 [a0 + 0x2]\n 22449: a5 = u8 [a0 + 0x3]\n 22452: a2 = a2 << 0x8\n 22455: a2 = a2 | a3\n 22458: a4 = a4 << 0x10\n 22461: a5 = a5 << 0x18\n 22464: a4 = a4 | a5\n 22467: a2 = a2 | a4\n 22470: a3 = u8 [a0 + 0x5]\n 22473: a4 = u8 [a0 + 0x4]\n 22476: a5 = u8 [a0 + 0x6]\n 22479: s1 = u8 [a0 + 0x7]\n 22482: a3 = a3 << 0x8\n 22485: a3 = a3 | a4\n 22488: a5 = a5 << 0x10\n 22491: s1 = s1 << 0x18\n 22494: a5 = a5 | s1\n 22497: a3 = a3 | a5\n 22500: a3 = a3 << 0x20\n 22503: a2 = a2 | a3\n 22506: a3 = u8 [a0 + 0x19]\n 22509: a4 = u8 [a0 + 0x18]\n 22512: a5 = u8 [a0 + 0x1a]\n 22515: s1 = u8 [a0 + 0x1b]\n 22518: a3 = a3 << 0x8\n 22521: a3 = a3 | a4\n 22524: a5 = a5 << 0x10\n 22527: s1 = s1 << 0x18\n 22530: a5 = a5 | s1\n 22533: a3 = a3 | a5\n 22536: a4 = u8 [a0 + 0x1d]\n 22539: a5 = u8 [a0 + 0x1c]\n 22542: s1 = u8 [a0 + 0x1e]\n 22545: a1 = u8 [a0 + 0x1f]\n 22548: a4 = a4 << 0x8\n 22551: a4 = a4 | a5\n 22554: s1 = s1 << 0x10\n 22557: a1 = a1 << 0x18\n 22560: a1 = a1 | s1\n 22563: a1 = a1 | a4\n 22566: a1 = a1 << 0x20\n 22569: a3 = a3 | a1\n 22572: a1 = u8 [a0 + 0x11]\n 22575: a4 = u8 [a0 + 0x10]\n 22578: a5 = u8 [a0 + 0x12]\n 22581: s1 = u8 [a0 + 0x13]\n 22584: a1 = a1 << 0x8\n 22587: a1 = a1 | a4\n 22590: a5 = a5 << 0x10\n 22593: s1 = s1 << 0x18\n 22596: a5 = a5 | s1\n 22599: a1 = a1 | a5\n 22602: a4 = u8 [a0 + 0x15]\n 22605: a5 = u8 [a0 + 0x14]\n 22608: s1 = u8 [a0 + 0x16]\n 22611: a0 = u8 [a0 + 0x17]\n 22614: a4 = a4 << 0x8\n 22617: a4 = a4 | a5\n 22620: s1 = s1 << 0x10\n 22623: a0 = a0 << 0x18\n 22626: a0 = a0 | s1\n 22629: a0 = a0 | a4\n 22632: a0 = a0 << 0x20\n 22635: a0 = a0 | a1\n 22638: a4 = reverse a0\n 22640: a3 = reverse a3\n 22642: a5 = reverse a2\n 22644: a2 = reverse t0\n 22646: a0 = a2 | a5\n 22649: a1 = a3 <u 0xffffffffffffffa0\n 22652: a1 = 0 if a4 != 0\n 22654: a1 = 0 if a0 != 0\n 22656: jump @319 if a1 == 0\n      : @317 (gas: 18)\n 22660: a0 = a3 + 0x60\n 22663: u64 [sp + 0x10] = a0\n 22666: s1 = a0 <u a3\n 22669: a0 = a4 + s1\n 22672: u64 [sp + 0x8] = a0\n 22675: a1 = a0 <u a4\n 22678: a1 = s1 if s1 == 0\n 22681: u64 [sp + 0x30] = a2\n 22684: s1 = a2 + a1\n 22687: a0 = s1 <u a2\n 22690: a0 = a0 + a5\n 22693: u64 [sp] = a0\n 22695: a0 = 0x40\n 22698: a1 = 0x20\n 22701: u64 [sp + 0x28] = a4\n 22704: u64 [sp + 0x18] = a3\n 22707: u64 [sp + 0x20] = a5\n 22710: ra = 274, jump @0\n      : @318 [@dyn 137] (gas: 82)\n 22716: a1 = u64 [sp]\n 22718: a1 = reverse a1\n 22720: a2 = reverse s1\n 22722: a3 = u64 [sp + 0x8]\n 22725: a3 = reverse a3\n 22727: a4 = u64 [sp + 0x10]\n 22730: a4 = reverse a4\n 22732: u8 [a0 + 0x18] = a4\n 22735: a5 = a4 >> 0x38\n 22738: u8 [a0 + 0x1f] = a5\n 22741: a5 = a4 >> 0x30\n 22744: u8 [a0 + 0x1e] = a5\n 22747: a5 = a4 >> 0x28\n 22750: u8 [a0 + 0x1d] = a5\n 22753: a5 = a4 >> 0x20\n 22756: u8 [a0 + 0x1c] = a5\n 22759: a5 = a4 >> 0x18\n 22762: u8 [a0 + 0x1b] = a5\n 22765: a5 = a4 >> 0x10\n 22768: u8 [a0 + 0x1a] = a5\n 22771: a4 = a4 >> 0x8\n 22774: u8 [a0 + 0x19] = a4\n 22777: u8 [a0 + 0x10] = a3\n 22780: a4 = a3 >> 0x38\n 22783: u8 [a0 + 0x17] = a4\n 22786: a4 = a3 >> 0x30\n 22789: u8 [a0 + 0x16] = a4\n 22792: a4 = a3 >> 0x28\n 22795: u8 [a0 + 0x15] = a4\n 22798: a4 = a3 >> 0x20\n 22801: u8 [a0 + 0x14] = a4\n 22804: a4 = a3 >> 0x18\n 22807: u8 [a0 + 0x13] = a4\n 22810: a4 = a3 >> 0x10\n 22813: u8 [a0 + 0x12] = a4\n 22816: a3 = a3 >> 0x8\n 22819: u8 [a0 + 0x11] = a3\n 22822: u8 [a0 + 0x8] = a2\n 22825: a3 = a2 >> 0x38\n 22828: u8 [a0 + 0xf] = a3\n 22831: a3 = a2 >> 0x30\n 22834: u8 [a0 + 0xe] = a3\n 22837: a3 = a2 >> 0x28\n 22840: u8 [a0 + 0xd] = a3\n 22843: a3 = a2 >> 0x20\n 22846: u8 [a0 + 0xc] = a3\n 22849: a3 = a2 >> 0x18\n 22852: u8 [a0 + 0xb] = a3\n 22855: a3 = a2 >> 0x10\n 22858: u8 [a0 + 0xa] = a3\n 22861: a2 = a2 >> 0x8\n 22864: u8 [a0 + 0x9] = a2\n 22867: u8 [a0] = a1\n 22869: a2 = a1 >> 0x38\n 22872: u8 [a0 + 0x7] = a2\n 22875: a2 = a1 >> 0x30\n 22878: u8 [a0 + 0x6] = a2\n 22881: a2 = a1 >> 0x28\n 22884: u8 [a0 + 0x5] = a2\n 22887: a2 = a1 >> 0x20\n 22890: u8 [a0 + 0x4] = a2\n 22893: a2 = a1 >> 0x18\n 22896: u8 [a0 + 0x3] = a2\n 22899: a2 = a1 >> 0x10\n 22902: u8 [a0 + 0x2] = a2\n 22905: a1 = a1 >> 0x8\n 22908: u8 [a0 + 0x1] = a1\n 22911: a0 = u64 [sp + 0x38]\n 22914: a1 = u64 [sp + 0x18]\n 22917: u64 [a0] = a1\n 22919: a1 = u64 [sp + 0x20]\n 22922: u64 [a0 + 0x18] = a1\n 22925: a1 = u64 [sp + 0x28]\n 22928: u64 [a0 + 0x8] = a1\n 22931: a1 = u64 [sp + 0x30]\n 22934: u64 [a0 + 0x10] = a1\n 22937: sp = s0 + 0xffffffffffffff60\n 22941: ra = u64 [sp + 0x98]\n 22945: s0 = u64 [sp + 0x90]\n 22949: s1 = u64 [sp + 0x88]\n 22953: sp = sp + 0xa0\n 22957: ret\n      : @319 (gas: 8)\n 22959: u64 [sp + 112] = 0\n 22962: u64 [sp + 104] = 0\n 22965: u64 [sp + 96] = 0\n 22968: a0 = 0x4e487b7100000000\n 22978: a1 = sp + 0x60\n 22981: u64 [sp + 0x78] = a0\n 22984: a0 = 0\n 22986: ra = 276, jump @8\n      : @320 [@dyn 138] (gas: 7)\n 22992: u64 [sp + 88] = 0\n 22995: u64 [sp + 80] = 0\n 22998: u64 [sp + 64] = 0x41\n 23002: a0 = 0x4\n 23005: a1 = sp + 0x40\n 23008: u64 [sp + 72] = 0\n 23011: ra = 278, jump @8\n      : @321 [@dyn 139] (gas: 3)\n 23017: a1 = 0x24\n 23020: a0 = 0\n 23022: ra = 280, jump @0\n      : @322 [@dyn 140] (gas: 7)\n 23028: i32 a1 = a0 + 0\n 23030: a0 = 0x1\n 23033: a2 = 0x24\n 23036: ecalli 8 // 'seal_return'\n 23038: a0 = 0\n 23040: ra = 0x11a\n 23044: jump @14\n      : @323 [export #0: 'call'] (gas: 2)\n 23047: a0 = 0\n 23049: ra = 282, jump @14\n      : @324 [@dyn 141] [export #1: 'deploy'] (gas: 2)\n 23055: a0 = 0x1\n 23058: ra = 284, jump @14\n      : @325 [@dyn 142] (gas: 1)\n 23064: trap\n","bytecode":{"object":"50564d0000d867000000000000010700c17000c000400360aa0ddefbb574e2ca0bbb406894f758d4496d2b1f19015cbf0cf48ce0bfc6d502569b9f64f82ecf76e2cd1c573e940447296ddc4a3c2accd4a797558be38a99d480b25c94af101486832f3aed2923ed1969d5bb9fd693169dd0e784e7adaf2d520480c40c000000000e0000001c0000002a000000300000003d00000048000000570000005a00000065000000770000008200000063616c6c5f646174615f636f707963616c6c5f646174615f6c6f616463616c6c5f646174615f73697a6563616c6c65726465706f7369745f6576656e746765745f73746f72616765686173685f6b656363616b5f3235366e6f777365616c5f72657475726e7365745f696d6d757461626c655f646174617365745f73746f7261676576616c75655f7472616e73666572726564051302c0075a0463616c6cc00f5a066465706c6f7906c07f66808e02c0195a650023028202230328034c03e003eb049505ff05ca06ef06fb0623079608ce09690bb20b5c0cea0c530d290e920eff0e280f750fd00f5b11c411ad120013d6131e150316da16b317c1183e1a141b7d1b6d1c431dad1d401e781f9420ea215322f6223e24ee247d250f26842731289b2844298c2a3c2bcb2b5b2ce12cb12d882ef22e1430ec3133334b342335f33520360b377537fd379638cd391c3af13bf43cca3da13e0b3f713ff63f7040cb403e427f427443ce43da433f454b458246634875484549154a9e4aca4ae84af34a4d4b9f4b9a4cca4c234d544d5f4da04d294e554e734e7e4ed84e2d4fcc4fd64fe34fb650c450a3516d525f53785383539253cf530b55a6552856b156325741576757bc58d059e959f4590f5a185a8b791052093b3309010001ae9833c8780883881f8488e0553801000128390a600002ae8a123d086000023308700002c8870732003308700002c88707320000009511d87b10207b15187b161082897b19088289087b1982851082861883773308205010029f6f686f59821a6faa821b086fbb787b18787a10787908787898bc38787c1f98bc30787c1e98bc28787c1d98bc20787c1c98bc18787c1b98bc10787c1a98bb08787b1998ab38787b1798ab30787b1698ab28787b1598ab20787b1498ab18787b1398ab10787b1298aa08787a11989a38787a0f989a30787a0e989a28787a0d989a20787a0c989a18787a0b989a10787a0a98990878790998893878790798893078790698892878790598892078790498891878790398891078790298880878780182102082151882161095112832009511a07b10587b15507b16489515608411e06476828718828910828a0882886f776f996faa6f887b18187b1a107b19087b17491138491130491128491120481140208318831a20831b403309ff33070a05821738821830821928821a206f776f886f996faa7b6a187b69107b68087b679551a082105882155082164895116032009511a07b10587b15507b16489515608411e08282828308828b10828818827c18827910827a0882776fc66f996faa6f776f846fbb6f386f2c7b17187b1a107b19087b167b1c387b18307b1b287b14208318831a203309ff330b2033070a0a9551a082105882155082164895116032006f6882196f99821a086faa821b106fbb7b1b587b1a507b19487b18408218186f888219206f99821a286faa821b386fbb7b1b787b1a707b19687b18608379831740330802821a300a04955160ff8210980082159000821688009511a00032006f687b187882186f887b18708218086f887b18688218106f887b18608218186f887b1898008218206f887b1890008218286f887b1888008218306f887b1880008218406f887b18b8008218486f887b18b0008218506f887b18a8008218586f887b18a0008379831760330803821a380a04955120ff8210d8008215d0008216c8009511e00032009511f07b10087b158475010a02013d076400025105075010080950100ad8039511e0fe7b1018017b1510017b160801951520018411e0641633074033082050100cb9fc46171f800046171e46171d46171c46171b46171a46171946171846171746171646171546171446171346171246171146171046170f46170e46170d46170c46170b46170a46170946170846170746170646170546170446170346170246170146074916584916404916484916508367400a0b01826750826858826948826a40d49808d4a707d487075107163307330850100e25fc837833070133090a08018367600a03826768816870826a607b6a286f779779206f88988820d498087b68309877206fa8978820d487077b6720140700000000000000017b67387b67d8004926d0004926c8004926c0004926f8004926f0004926e8004926e0004826a000208368c000836ae000836ba0003309ff33070a058267e0008068e8008269206f99826a306faa826b2897bb20d4b808826b387b6bd8004926d0004926c8004926c0007b6af8007b69f0007b68e8007b67e0008368c000836ae0003309ff330b2033070a0a836780000a038267880081689000826a80007b6a286f779779206f88988820d498087b68309877206fa8978820d487077b672033082033075010101afb8268206f888269306f99826b2898ba18787a0f98ba10787a0e98ba08787a0d787b0c46170b46170a4617094617084617074617064617054617044617034617024617014607787918787810989a38787a1f989a30787a1e989a28787a1d989a20787a1c989a18787a1b989a10787a1a98990878791998893878791798893078791698892878791598892078791498891878791398891078791298880878781133072033082050101270fa46171f0246171e46171d46171c46171b46171a46171946171846171746171646171546171446171346171246171146171046170f46170e46170d46170c46170b46170a4617094617084617074617064617054617044617034617024617014607330840330750101406fa9518e08488e07b68306481837783893308400a06826730827a187b6a188279107b69208278087b682882777b67307b6ad8007b69d0007b68c8007b67c0004926f8004926f0004926e8004926e0004826a000208368c000836ae000836ba0003309ff33070a058267f8008268e0008269e800826af000977708987708826b38d4b707826b187b6bd800826b207b6bd000826b287b6bc800826b307b6bc0007b67f8007b6af0007b69e8007b68e0008368c000836ae0003309ff330b2033070a0a3307800033085010163bf98377330833090a01390868000251080d330770000383770a090133078000330850101816f983783307330933001a0a0801951108f87b10f0077b15e8077b16e0079515f8079511d8fb8411e0641633074033082050101ce2f846171f800046171e46171d46171c46171b46171a46171946171846171746171646171546171446171346171246171146171046170f46170e46170d46170c46170b46170a461709461708461707461703330864000246170246170146077b68980139086400024617064617054617045518040728f144956700108377e0f933080a01019567ff07957739018177c4005a470683a839e90258470d88a8af0a28ed1151475bcba58d0a28b21e9517e08477e07b6790016471491718491710491708490783770a0b01826a900182a71082a81882a90882aad49808d4a707d487075107062882448267980181779569ff079599390156170307286d44140700000000000000017b9780024929780249297002492968024929a0024929980249299002492988024829a80220956700108378a0fb95670010837ac0fb95670010837be0fb3309ff33070a059568ff07958839018287a0027b679801828798027b679001828790027b67880133074033082050101e6ff77c78117c79107c7a127c7b13978808d4980897aa1097bb18d4ba0ad4a8087c79157c7a147c7b167c7c17979908d4a90997bb1097cc18d4cb0bd4b909979920d489027c79017c7a7c7b027c7c03979908d4a90997bb1097cc18d4cb0bd4b9097c7a057c7b047c7c067c780797aa08d4ba0a97cc10978818d4c808d4a808978820d498037c78197c7a187c7b1a7c7c1b978808d4a80897bb1097cc18d4cb0bd4b8087c7a1d7c7b1c7c7c1e7c791f97aa08d4ba0a97cc10979918d4c909d4a909979920d4890a7c78097c79087c7b0a7c7c0b978808d4980897bb1097cc18d4cb0bd4b8087c790d7c7b0c7c7c0e7c770f979908d4b90997cc10977718d4c707d49707977720d487076f786fa76f396f2ad4a909d4870ad49a0a98aa20d49808978820d4a80851080628013083777b67800133082050102037f6826a9001787a108269880198983878780f98983078780e98982878780d98982078780c46170b140800000000ffffffff14090000ffffffff000078790a1409000000ffffffff0078790978780846170746170646170546170446170346170246170146078269980178791898a83878781798a83078781698a82878781598a82078781498a81878781398a81078781298a80878781198983878781f98983078781e98982878781d98982078781c98981878781b98981078781a989808787819330820826780013300c4002868f55a479a6706690a281a1151479b6706690a2858159517e08477e07b6790016471491718491710491708490783770a0b01826a900182a71082a81882a90882aad49808d4a707d4870751070628a14182679801817756174307289441956700108377a0fb3308040a019568ff0795883901828780027b675001828778027b675801828770027b676001828768027b676801956700108377c0fb3308240a019568ff07958839018287a0027b677001828798027b677801828790027b678001828788027b67880195674006501022dd4b826b5806826c500682694806826a4006d4b907d4ca08d47808988820d4c707977720d48707510706282d2e83a73308207b6738017b6998017b6a90017b6b48017b6c400150102453f4826a90018269980146171f46171e46171d46171c46171b46171a46171946171846171746171646171546171446171346171246171146171046170f46170e46170d46170c46170b46170a46170946170846170746170646170546170446170346170246170182684801826b4001d48b0b140c00000000010000001408e0ffffff00000000d88a08949894b84607520806287c2d826738018377203308207b6b48017b6c4001501026a9f346171f46171e46171d46171c46171b46171a46171946171846171746171646171546171446171346171246171146171046170f46170e46170d46170c46170b46170a461709461708461707461706461705461704461703461702461701826840019588c082699001d88908826998019498826948019498460752080628e62c826738018377403308205010281bf346171f46171e46171d46171c46171b46171a46171946171846171746171646171546171446171346171246171146171046170f46170e46170d46170c46170b46170a4617094617084617074617064617054617044617034617024617014607330820330750102ab2f2826850016f88826958016f99826a60016faa826b68016fbb98bc38787c1f98bc30787c1e98bc28787c1d98bc20787c1c98bc18787c1b98bc10787c1a98bc08787c19787b1898ab38787b1798ab30787b1698ab28787b1598ab20787b1498ab18787b1398ab10787b1298ab08787b11787a10989a38787a0f989a30787a0e989a28787a0d989a20787a0c989a18787a0b989a10787a0a989a08787a09787908988938787907988930787906988928787905988920787904988918787903988910787902988908787901787833072033082050102cdcf146171f46171e46171d46171c46171b46171a46171946171846171746171646171546171446171346171246171146171046170f46170e46170d46170c46170b46170a4617094617084617074617064617054617044617034617024617014607330840330750102e73f19518e08488e07b6898016481837783893308400a06826a980182a71882a81082a90882aa6f7b6f876f986fa9826a70017b6ad805826a78017b6ad005826a80017b6ac805826a88017b6ac0057b69f8057b68f0057b67e805956700069568e0059569c0057b6be005501030ca41826700067b677001826708067b677801826710067b678801826718067b6780019567a0055010321e488267b8057b6768018267b0057b6760018267a8057b6790018267a0057b679801826780017b677805826788017b677005826778017b6768059567800595686005826970017b696005501034c3f18267680182689001d487078269600182689801d49808d47808988820d49707977720d4870751070628212a826798057b674001826790057b674801826788057b675001826780057b675801816798013308207b67380150103635f0826840016f89826848016f8b826850016f8c826858016f8a98a8387b68580178781f98a8307b68500178781e98a8287b68480178781d98a8207b68400178781c98a8187b68300178781b98a8107b68200178781a98a8087b6818017878197b6a1001787a18787c1098c8387b68f80078781798c8307b68f00078781698c8287b68e80078781598c8207b68e00078781498c8187b68d80078781398c8107b68d0007878127b6c000198cc087b6cc800787c11787b0898b8387b68c00078780f98b8307b68b80078780e98b8287b68b00078780d98b8207b68a80078780c98b8187b68a00078780b98b8107b68980078780a7b6b080198bb087b6b9000787b0978799898387b6888007878079898307b6880007878069898287b68787878059898207b68707878049898187b68687878039898107b68607878027b6928019899087b69587879018267700195770188780182697801c89808d48709889901826a8801c8a909d8a90a826b8001c8ba0a7b6930057b6828057b67200595674005956820057b6a3805501038ddef8267680182686001d47809140a00000000010000001407e0ffffff0000000082689801d87807826890019487949752070628322882675005826848057b6848826840057b68509777209877207b6740826738018377203308207b67387b6968017b6a600150103a41ee8268406f888269486f99826a506faa98ab38787b1f98ab30787b1e98ab28787b1d98ab20787b1c98ab18787b1b98ab10787b1a98ab08787b19787a1878791046170b46170a4617094617074617064617054617044617034617024617014607989a38787a17989a30787a16989a28787a15989a20787a14989a18787a13989a10787a1298990878791178780898893878790f98893078790e98892878790d98882078780c82677001957902d87907826a7801c87a08d8a80ada770a82678801c87a0ad87a07826b8001c8b7077b67f8047b6af0047b68e804956700059568e0047b69e00450103c8bee826760019577c082689801d8780782689001948782686801948752070628f426826718057b678001826710057b678801826708057b679001826700057b679801826738018377403308207b67780150103e05ed826880016f88826988016f99826a90016faa826b98016fbb98bc38787c1f98bc30787c1e98bc28787c1d98bc20787c1c98bc18787c1b98bc10787c1a98bc08787c19787b18787a1098ab38787b1798ab30787b1698ab28787b1598ab20787b1498ab18787b1398ab10787b1298aa08787a11787908989a38787a0f989a30787a0e989a28787a0d989a20787a0c989a18787a0b989a10787a0a98990878790978789889387879079889307879069889287879059889207879049889187879039889107879029888087878013307403308205010402fec7c78117c79107c7a127c7b13978808d4980897aa1097bb18d4ba0ad4a8087c79157c7a147c7b167c7c17979908d4a90997bb1097cc18d4cb0bd4b909979920d489027c79017c7a7c7b027c7c03979908d4a90997bb1097cc18d4cb0bd4b9097c7a057c7b047c7c067c780797aa08d4ba0a97cc10978818d4c808d4a808978820d498037c78197c7a187c7b1a7c7c1b978808d4a80897bb1097cc18d4cb0bd4b8087c7a1d7c7b1c7c7c1e7c791f97aa08d4ba0a97cc10979918d4c909d4a909979920d4890a7c78097c79087c7b0a7c7c0b978808d4980897bb1097cc18d4cb0bd4b8087c790d7c7b0c7c7c0e7c770f979908d4b90997cc10977718d4c707d49707977720d487076f7b6fa96f3c6f2ad4ca07d4b908d47808988820d4b707977720d4870751070628c12483973308207b6770017b6998017b6a90017b6b88017b6c8001501042e7ea826800017878108268c00078780f8268b80078780e8268b00078780d8268a80078780c8268a00078780b8268980078780a82689000787809826808017878088268880078780782688000787806826878787805826870787804826868787803826860787802826858787801826828017878826810017878188268f8007878178268f0007878168268e8007878158268e0007878148268d8007878138268d0007878128268c8007878118268580178781f8268500178781e8268480178781d8268400178781c8268300178781b8268200178781a8268180178781933082082673850104402ea826a90018269980182688801826b8001d48b0b140c00000000010000001408e0ffffff00000000d8890894a894b8520806288a237c780c7b6880017c780d7b6860017c780e7b6858017c780f7b6850017c78107b6848017c78117b6840017c78127b6838017c78137b6830017c78147b6828017c78157b6820017c78167b6818017c78177b6810017c78187b6808017c78197b6800017c781a7b68f8007c781b7b68f0007c781c7b68e8007c781d7b68e0007c781e7b68d8007c771f7b67d000826770018377203308207b6b88017b6c68015010462be98268d00078781f8268d80078781e8268e00078781d8268e80078781c8268f00078781b8268f80078781a826800017878198268080178781882681001787817826818017878168268200178781582682801787814826830017878138268380178781282684001787811826848017878108268500178780f8268580178780e8268600178780d8268800178780c140800000000ffffffff14090000ffffffff000078790a1409000000ffffffff0078790978780846170b46170746170646170546170446170346170246170146073308208267780150104852e8826868019588c082699801d8890882699001949882698801949852080628ee217c787b6898017c78017b6890017c78027b6888017c78037b6880017c78047b6878017c78057b6868017c78067b6860017c78077b6858017c78087b6850017c78097b6848017c780a7b6840017c780b7b6838017c780c7b6830017c780d7b6828017c780e7b6820017c780f7b6818017c78107b6810017c78117b6808017c78127b6800017c78137b68f8007c78147b68f0007c78157b68e8007c78167b68e0007c78177b68d8007c78187b68d0007c78197b68c8007c781a7b68c0007c781b7b68b8007c781c7b68b0007c781d7b68a8007c781e7b68a0007c771f7b6798008267700183774033082050104a44e78268980078781f8268a00078781e8268a80078781d8268b00078781c8268b80078781b8268c00078781a8268c8007878198268d0007878188268d8007878178268e0007878168268e8007878158268f0007878148268f8007878138268000178781282680801787811826810017878108268180178780f8268200178780e8268280178780d8268300178780c8268380178780b8268400178780a8268480178780982685001787808826858017878078268600178780682686801787805826878017878048268800178780382688801787802826890017878018268980178783308608267700133008e002855e651470e88a8af0a2837139517e08477e07b6790016471491718491710491708490783770a0b01826a900182a71082a81882a90882aad49808d4a707d4870751070628983282679801817756172307288b3295670010837780fb3308040a019567ff0795773901827848027b689801827850027b689001827858027b688801827760027b678001330820330750104cc7e5826880016f88826988016f99826a90016faa826b98016fbb98bc38787c1f98bc30787c1e98bc28787c1d98bc20787c1c98bc18787c1b98bc10787c1a98bc08787c19787b1898ab38787b1798ab30787b1698ab28787b1598ab20787b1498ab18787b1398ab10787b1298ab08787b11787a10989a38787a0f989a30787a0e989a28787a0d989a20787a0c989a18787a0b989a10787a0a989a08787a09787908988938787907988930787906988928787905988920787904988918787903988910787902988908787901787833072033082050104ef1e446171f46171e46171d46171c46171b46171a46171946171846171746171646171546171446171346171246171146171046170f46170e46170d46170c46170b46170a4617094617084617074617064617054617044617034617024617014607330840330750105088e49518e08488e07b6898016481837783893308400a06826a980182a71882a81082a90882aa956bff0795bb39017bb780027bb878027bb970027bba680228751c5147198e96630a288c2d9517e08477e07b6790016471491718491710491708490783770a0b01826a900182a71082a81882a90882aad49808d4a707d48707510706288a3082679801817756172307287d3095670010837780fa3308040a01019569ff079599390182985801829a600114070000000001000000d38707d4a7077b6898019888208888017b6a900194a89378520806289e2f829750017b678001829748017b678801330820330750105298e3826890016f88826998016f99826a80016faa826b88016fbb787b1898bc38787c1f98bc30787c1e98bc28787c1d98bc20787c1c98bc18787c1b98bc10787c1a98bb08787b19787a1098ab38787b1798ab30787b1698ab28787b1598ab20787b1498ab18787b1398ab10787b1298aa08787a11787908989a38787a0f989a30787a0e989a28787a0d989a20787a0c989a18787a0b989a10787a0a9899087879097878988938787907988930787906988928787905988920787904988918787903988910787902988808787801330720330820501054c2e246171f0246171e46171d46171c46171b46171a46171946171846171746171646171546171446171346171246171146171046170f46170e46170d46170c46170b46170a4617094617084617074617064617054617044617034617024617014607330840330750105658e29518e08488e07b6898016481837783893308400a06826a980182a71882a81082a90882aa956bff0795bb39017bb780027bb878027bb970027bba6802492ba002492b9802492b9002492b8802482ba80220956700108378a0fb95670010837ac0fb95670010837be0fb3309ff33070a059568ff07958839018287a0027b679801828798027b679001330740330820501058c5e17c78117c79107c7a127c7b13978808d4980897aa1097bb18d4ba0ad4a8087c79157c7a147c7b167c7c17979908d4a90997bb1097cc18d4cb0bd4b909979920d489027c79017c7a7c7b027c7c03979908d4a90997bb1097cc18d4cb0bd4b9097c7a057c7b047c7c067c780797aa08d4ba0a97cc10978818d4c808d4a808978820d498037c78197c7a187c7b1a7c7c1b978808d4a80897bb1097cc18d4cb0bd4b8087c7a1d7c7b1c7c7c1e7c791f97aa08d4ba0a97cc10979918d4c909d4a909979920d4890a7c78097c79087c7b0a7c7c0b978808d4980897bb1097cc18d4cb0bd4b8087c790d7c7b0c7c7c0e7c770f979908d4b90997cc10977718d4c707d49707977720d487076f786fa76f396f2ad4a909d4870ad49a0a98aa20d49808978820d4a80851080628571a83777b67880133082050105a8de01408ffffffffffffff00826a9801d3a80882699001e1980998a8388e88939846171e46171d46171c46171b46171a46171946171846171746171646171546171446171346171246171146171046170f46170e46170d46170c46170b46170a461709461708461707461706461705461704461703461702461701460778781f330820826788013300c40028ffdf51474a65717c0a287c2c9517e08477e07b6790016471491718491710491708490783770a0b01826a900182a71082a81882a90882aad49808d4a707d4870751070628422c8267980181775617230728352c956700108377a0fa3308040a019567ff0795773901827868017b689801827870017b689001827878017b688801827780017b678001330820330750105c71df826880016f8a826888016f8c826890016f8b826898016f899898387b68900178781f9898307b68880178781e9898287b68800178781d9898207b68780178781c9898187b68700178781b9898107b68680178781a9898087b6860017878197b69580178791898b8387b68380178781798b8307b68300178781698b8287b68280178781598b8207b68200178781498b8187b68180178781398b8107b68100178781298b8087b6808017878117b6b4801787b1098c8387b68000178780f98c8307b68f80078780e98c8287b68f00078780d98c8207b68e80078780c98c8187b68e00078780b98c8107b68d80078780a98c8087b68d0007878097b6c4001787c0898a8387b68c80078780798a8307b68c00078780698a8287b68b80078780598a8207b68b00078780498a8187b68a80078780398a8107b68a00078780298a8087b6898007878017b6a5001787a33072033082050105e1bde46171f46171e46171d46171c46171b46171a46171946171846171746171646171546171446171346171246171146171046170f46170e46170d46170c46170b46170a46170946170846170746170646170546170446170346170246170146073308403307501060b2dd9518e08488e07b6898016481837783893308400a06826a980182a71882a81082a90882aa956bff0795bb39017bb780027bb878027bb970027bba6802492ba002492b9802492b9002492b8802482ba80220956700108378a0fb95670010837ac0fb95670010837be0fb3309ff33070a0501956aff0795aa390182a7a00282a8980282a9900282aa8802d4790bd48a0cd4cb0b510b062815133307403308205010620fdd7c78117c79107c7a127c7b13978808d4980897aa1097bb18d4ba0ad4a8087c79157c7a147c7b167c7c17979908d4a90997bb1097cc18d4cb0bd4b909979920d489027c79017c7a7c7b027c7c03979908d4a90997bb1097cc18d4cb0bd4b9097c7a057c7b047c7c067c780797aa08d4ba0a97cc10978818d4c808d4a808978820d498037c78197c7a187c7b1a7c7c1b978808d4a80897bb1097cc18d4cb0bd4b8087c7a1d7c7b1c7c7c1e7c791f97aa08d4ba0a97cc10979918d4c909d4a909979920d4890a7c78097c79087c7b0a7c7c0b978808d4980897bb1097cc18d4cb0bd4b8087c790d7c7b0c7c7c0e7c770f979908d4b90997cc10977718d4c707d49707977720d487076f7b6fa96f3c6f2ad4ca07d4b908d47808988820d4b707977720d4870751070628a11583973308207b6778017b6998017b6a90017b6b88017b6c8001501064c7db46171f46171e46171d46171c46171b46171a46171946171846171746171646171546171446171346171246171146171046170f46170e46170d46170c46170b46170a461709461708461707461706461705461703a00046170279461701c30046070882688801826a8001d48a0a140b00000000010000001408fcffffff0000000082699801d8890882699001949894a846170452080628ea14826778018377043308207b6a88017b6b800150106617db826b8801826a90018269980146171f2046171e46171d46171c46171b46171a46171946171846171746171646171546171446171346171246171146171046170f46170e46170d46170c46170b46170a461709461708461707461706461705461704461703461702461701826880019588dcd8890894a894b846075208062853148267780183772433082050106888da46171f1446171e46171d46171c46171b46171a46171946171846171746171646171546171446171346171246171146171046170f46170e46170d46170c46170b46170a4617094617084617074617064617054617044617034617024617011408bcffffff0000000082699801d88908826990019498826988019498460752080628c1138267780183774433082050106af6d946171f46171e46171d46171c46171b46171a4617194617184617174617164617154617144617136446171265461711644617106146170f6f46170e6c46170d7046170c75330c20787c0b46170a74330b63787b094617086146170772461706744617056e4617046f787b03285106514724bf45a50a2803269517e08477e07b6790016471491718491710491708490783770a0b01826a900182a71082a81882a90882aad49808d4a707d4870751070628c9258267980181775617430728bc25956700108377c0fa3308040a019568ff07958839018287a0017b674801828798017b675001828790017b675801828788017b676001956700108377e0fa3308240a019568ff07958839018287c0017b6768018287b8017b6770018287b0017b6778018287a8017b67800195670010837700fb0a039569ff07959939018297d0018198d801829ac8017b6a90016f779779206f88988820d498087b6898019877206fa8978820d487077b678801330820330750106c81d8826888016f88826998016f99826b900198ba18787a0f98ba10787a0e98ba08787a0d787b0c46170b46170a4617094617084617074617064617054617044617034617024617014607787918787810989a38787a1f989a30787a1e989a28787a1d989a20787a1c989a18787a1b989a10787a1a98990878791998893878791798893078791698892878791598892078791498891878791398891078791298880878781133072033082050106ed4d746171f0246171e46171d46171c46171b46171a46171946171846171746171646171546171446171346171246171146171046170f46170e46170d46170c46170b46170a461709461708461707461706461705461704461703461702461701460733084033075010706ad79518e08488e07b6898016481837783893308400a06826a980182a71882a81082a90882aa956bff0795bb39017bb780027bb878027bb970027bba6802492ba002492b9802492b9002492b8802482ba80220956700108378a0fb95670010837ac0fb95670010837be0fb3309ff33070a05019568ff07958839018287a002828898021409ffffffffffffff00d37909e189089877388e779387510706288910330740330820501072c1d67c78117c79107c7a127c7b13978808d4980897aa1097bb18d4ba0ad4a8087c79157c7a147c7b167c7c17979908d4a90997bb1097cc18d4cb0bd4b909979920d489027c79017c7a7c7b027c7c03979908d4a90997bb1097cc18d4cb0bd4b9097c7a057c7b047c7c067c780797aa08d4ba0a97cc10978818d4c808d4a808978820d498037c78197c7a187c7b1a7c7c1b978808d4a80897bb1097cc18d4cb0bd4b8087c7a1d7c7b1c7c7c1e7c791f97aa08d4ba0a97cc10979918d4c909d4a909979920d4890a7c78097c79087c7b0a7c7c0b978808d4980897bb1097cc18d4cb0bd4b8087c790d7c7b0c7c7c0e7c770f979908d4b90997cc10977718d4c707d49707977720d487076f7b6fa96f3c6f2ad4ca07d4b908d47808988820d4b707977720d4870751070628530f83973308207b6778017b6998017b6a90017b6b88017b6c800150107479d546171f46171e46171d46171c46171b46171a46171946171846171746171646171546171446171346171246171146171046170f46170e46170d46170c46170b46170a461709461708461707461706461705461703a00046170279461701c30046070882688801826a8001d48a0a140b00000000010000001408fcffffff0000000082699801d8890882699001949894a8461704520806289c0e826778018377043308207b6a88017b6b8001501076c9d4826b8801826a90018269980146171f2046171e46171d46171c46171b46171a46171946171846171746171646171546171446171346171246171146171046170f46170e46170d46170c46170b46170a461709461708461707461706461705461704461703461702461701826880019588dcd8890894a894b8460752080628050e826778018377243308205010783ad446171f1846171e46171d46171c46171b46171a46171946171846171746171646171546171446171346171246171146171046170f46170e46170d46170c46170b46170a4617094617084617074617064617054617044617034617024617011408bcffffff0000000082699801d8890882699001949882698801949846075108760d8267780183774433082050107aaad346171f46171e46171d46171c46171b46171a461719461718461717643302617872164617156f4617146c46171370330b75787b12461711204617106f330c74787c0f46170e2046170d6446170c6546170b7a46170a69461709724617086f46170768787c06787b057872044617032001787c024617016f46074e3308648267780150107c24d383783307013309640a080151470bf1dd2d0a28941f9517e08477e07b6790016471491718491710491708490783770a0b01826a900182a71082a81882a90882aad49808d4a707d48707510706285a1f82679801817756174307284d1f956700108377a0fb3308040a019568ff0795883901828768027b677801828770027b677001828778027b676801828780027b676001956700108377c0fb3308240a019568ff07958839018287a0027b679801828798027b679001828790027b678801828788027b678001330820330750107e54d2826860016f88826968016f99826a70016faa826b78016fbb98bc38787c1f98bc30787c1e98bc28787c1d98bc20787c1c98bc18787c1b98bc10787c1a98bc08787c19787b1898ab38787b1798ab30787b1698ab28787b1598ab20787b1498ab18787b1398ab10787b1298ab08787b11787a10989a38787a0f989a30787a0e989a28787a0d989a20787a0c989a18787a0b989a10787a0a989a08787a097879089889387879079889307879069889287879059889207879049889187879039889107879029889087879017878330720330820502080007ed146171f46171e46171d46171c46171b46171a46171946171846171746171646171546171446171346171246171146171046170f46170e46170d46170c46170b46170a461709461708461707461706461705461704461703461702461701460733084033075020820014d19518e08488e07b6878016481837783893308400a0682677801827b18827a1082790882789567ff07957739017b6b60017b7b80027b6a68017b7a78027b6970017b7970027b6878017b7868024927a0024927980249279002492788024827a80220956700108378a0fb95670010837ac0fb95670010837be0fb3309ff33070a050182648001826c88018263900182629801956aff0795aa390182a7a00282a8980282a9900282aa88026f776f886f996faad38c0bd88c08d87407dbb807d3a208d8a20ad8930bdb8a0bd39309d49808db8b0752070628cb1c826760016f7a826768016f77826870016f88826978016f997b64a0017b6ca8017b69d8017b63b0017b68d0017b62b8017b67c8019567e0019568c0019569a0017b6ac00150208400b6208267f8017b6798018268f0017b6880018269e8017b699001826ae0017b6a88016f776f886f996faa956bff0795bb39017bba80027bb978027bb870027bb76802492ba002492b9802492b9002492b8802482ba80220956700108378a0fb95670010837ac0fb95670010837be0fb3309ff33070a05956aff0795aa390182a7a0027b67780182a798027b677001826788019577016f787ba8800288780182699001c89808d4870788770182698001c897076f887ba878026f787ba8700282a890027b686001d8970782689801c887076f777ba7680282a788027b676801492aa002492a9802492a9002492a8802482aa80220956700108378a0fb95670010837ac0fb95670010837be0fb3309ff33070a0582688801958702d88708826a9001c88a09d8a90ada880a82688001c88a0ad88a08826b9801c8b8086f77956bff0795bb39017bb780026f977bb778026fa77bb7700280b794027b6788016f877bb7680282b7a0027b679801482ba8022082b798027b679001492ba002492b9802492b9002492b8802956700108378a0fb95670010837ac0fb95670010837be0fb3309ff33070a059568ff07958839018287a0027b675001828798027b674801828790027b673801828788027b674001330740330820502086001ace7c78117c79107c7a127c7b13978808d4980897aa1097bb18d4ba0ad4a8087c79157c7a147c7b167c7c17979908d4a90997bb1097cc18d4cb0bd4b909979920d489027c79017c7a7c7b027c7c03979908d4a90997bb1097cc18d4cb0bd4b9097c7a057c7b047c7c067c780797aa08d4ba0a97cc10978818d4c808d4a808978820d498037c78197c7a187c7b1a7c7c1b978808d4a80897bb1097cc18d4cb0bd4b8087c7a1d7c7b1c7c7c1e7c791f97aa08d4ba0a97cc10979918d4c909d4a909979920d4890a7c78097c79087c7b0a7c7c0b978808d4980897bb1097cc18d4cb0bd4b8087c790d7c7b0c7c7c0e7c770f979908d4b90997cc10977718d4c707d49707977720d487076f7b6fa96f3c6f2ad4ca07d4b908d47808988820d4b707977720d487075207ae0683973308207b6720017b6980017b6a58017b6b30017b6c280150208800d3cc826a7001787a108269600198983878780f98983078780e98982878780d98982078780c98981878780b98981078780a9898087878097879088269680198983878780798983078780698982878780598982078780498981878780398981078780298980878780178798269780178791898a83878781798a83078781698a82878781598a82078781498a81878781398a81078781298a8088262580178781198983878781f98983078781e98982878781d98982078781c98981878781b98981078781a98980882693001826b2801d49b0b140c00000000010000001409e0ffffff00000000826a8001d89a09942994b978781951099a05826788019777207b677001826720018377203308207b6b88017b6c780150208a00bbcb826a9001787a108269700198983878780f98983078780e98982878780d98982078780c98981878780b98981078780a98980878780978790846170746170646170546170446170346170246170146078269980178791898a83878781798a83078781698a82878781598a82078781498a81878781398a81078781298a80878781198983878781f98983078781e98982878781d98982078781c98981878781b98981078781a989808826978019599c0826a8001d89a09826a580194a9826a880194a97878195109af048267200183774033082050208c00e3ca826a4801787a108269380198983878780f98983078780e98982878780d98982078780c98981878780b98981078780a9898087878097879088269400198983878780798983078780698982878780598982078780498981878780398981078780298980878780178798269500178791898a83878781798a83078781698a82878781598a82078781498a81878781398a81078781298a80878781198983878781f98983078781e98982878781d98982078781c98981878781b98981078781a9898087878193308608267200150208e0013ca837833096033070a08016faa7b6a98016f997b6990006f887b6888006f777b678000330820330750209000e6c9826840017878088268c8007878078268c0007878068268b8007878058268b0007878048268a8007878038268a00078780282689800787801826850017878826848017878108268000178780f8268f80078780e8268f00078780d8268e80078780c8268e00078780b8268d80078780a8268d00078780982685801787818826838017878178268300178781682682801787815826820017878148268180178781382681001787812826808017878118268900178781f8268880178781e8268800178781d8268780178781c8268700178781b8268680178781a8268600178781933072033082050209200fbc846171f46171e46171d46171c46171b46171a46171946171846171746171646171546171446171346171246171146171046170f46170e46170d46170c46170b46170a461709461708461707461706461705461704461703461702461701460733084033075020940091c89518e08488e07b6890016481837783893308400a06826a900182a71882a81082a90882ab6f726f836f946fb982678000887b01826c8800c9bc0bd47c0c647888cc0182679000c9c70ad8c70c82679801c9c70c9587ff7b6c78067b6a70067b6b68067b6760067b6998067b6490067b6388069567a00695688006956960067b62800650209600cd188267b8068268b0068269a806826aa0066f776f886f996faa956bff0795bb39017bba80027bb978027bb870027bb7680201492ba002492b9802492b9002492b8802482ba80220956700108378a0fb95670010837ac0fb95670010837be0fb3309ff33070a059568ff07958839018287a0027b679801828798027b679001828790027b678001828788027b6788013307403308205020980070c77c78117c79107c7a127c7b13978808d4980897aa1097bb18d4ba0ad4a8087c79157c7a147c7b167c7c17979908d4a90997bb1097cc18d4cb0bd4b909979920d489027c79017c7a7c7b027c7c03979908d4a90997bb1097cc18d4cb0bd4b9097c7a057c7b047c7c067c780797aa08d4ba0a97cc10978818d4c808d4a808978820d498037c78197c7a187c7b1a7c7c1b978808d4a80897bb1097cc18d4cb0bd4b8087c7a1d7c7b1c7c7c1e7c791f97aa08d4ba0a97cc10979918d4c909d4a909979920d4890a7c78097c79087c7b0a7c7c0b978808d4980897bb1097cc18d4cb0bd4b8087c790d7c7b0c7c7c0e7c770f979908d4b90997cc10977718d4c707d49707977720d487076f786fa76f396f2ad4a909d4870ad49a0a98aa20d49808978820d4a8085108ac0e009567ff079577c10150209a007a1d9567ff0795773901827ba000827c980082799000827a8800d4b907d4ca08d47808988820d4c707977720d487075207c483a73308207b6788017b6998017b6a90017b6b40017b6c380150209c00eac5826868016f89826870016f8b826878016f8c826880016f8a98a8387b68800178781f98a8307b68780178781e98a8287b68700178781d98a8207b68680178781c98a8187b68300178781b98a8107b68200178781a98a8087b6818017878197b6a1001787a18787c1098c8387b68f80078781798c8307b68f00078781698c8287b68e80078781598c8207b68e00078781498c8187b68d80078781398c8107b68d0007878127b6c000198cc087b6cc800787c11787b0898b8387b68c00078780f98b8307b68b80078780e98b8287b68b00078780d98b8207b68a80078780c98b8187b68a00078780b98b8107b68980078780a7b6b080198bb087b6b9000787b0978799898387b6888007878079898307b6880007878069898287b68787878059898207b68707878049898187b68687878039898107b68607878027b6928019899087b695878790195670010837720fb0a0301826a9001826898018267400182693801d47909140b00000000010000001407e0ffffff00000000d87a0794879497510723fe9567ff07957739017b69400164798277f0018198f801829ce8017b6c486f779779206f88988820d498087b68509877206fc8978820d487077b6740826788018377203308207b67387b6b380150209e0015c48268406f888269506f99826b4898ba18787a0f98ba10787a0e98ba08787a0d787b0c46170b46170a4617094617084617074617064617054617044617034617024617014607787918787810989a38787a1f989a30787a1e989a28787a1d989a20787a1c989a18787a1b989a10787a1a98990878791998893878791798893078791698892878791598892078791498891878791398891078791298880878781195670010837740fb0a0701826738019577c082689001d87807826898019487826840019487510709fd9567ff0795773901827808027b689801827810027b689001827818027b684001827720027b673801826788018377403308207b67305020a00012c3826838016f88826940016f99826a90016faa826b98016fbb98bc38787c1f98bc30787c1e98bc28787c1d98bc20787c1c98bc18787c1b98bc10787c1a98bc08787c19787b1898ab38787b1798ab30787b1698ab28787b1598ab20787b1498ab18787b1398ab10787b1298ab08787b11787a10989a38787a0f989a30787a0e989a28787a0d989a20787a0c989a18787a0b989a10787a0a989a08787a09787908988938787907988930787906988928787905988920787904988918787903988910787902988908787901787833082033075020a2003cc2826848016f88826950016f99826a58016faa826b60016fbb98bc38787c1f98bc30787c1e98bc28787c1d98bc20787c1c98bc18787c1b98bc10787c1a98bc08787c19787b1898ab38787b1798ab30787b1698ab28787b1598ab20787b1498ab18787b1398ab10787b1298ab08787b11787a10989a38787a0f989a30787a0e989a28787a0d989a20787a0c989a18787a0b989a10787a0a989a08787a0978790898893878790798893078790698892878790598892078790498891878790398891078790298890878790178783307203308205020a40065c146171f46171e46171d46171c46171b46171a46171946171846171746171646171546171446171346171246171146171046170f46170e46170d46170c46170b46170a461709461708461707461706461705461704461703461702461701460733084033075020a600fbc09518e08488e07b6898016481837783893308400a06826a980182a71882a81082a90882aa6f7b6f876f986faa9569ff07959939017b6a38017b9a607b6840017b98587b6790017b97509567ff079577a1019568ff07958881017b6b98017b9b485020a800c8c19569ff079599390182928000829c78829a70d42c0788a80194785108190d8297687b6750957701887801c8a808649bd48709889901c8c9097b6a48d8c90ac8a203826a98017bba287bb708826790017bb730826740017bb7387bb810826738017bb7407bb9189567ff07957761019568ff07958841017bb3207b6c407b62285020aa00c4c1826728956800107b87d8f8826740956800107b87d0f8826748956800107b87c8f8826750956800107b87c0f882673801956800107b87f8f882674001956800107b87f0f882679001956800107b87e8f89567ff07957701019568ff079588e1009569ff079599c100826a9801956b00107bbae0f85020ac005a10956aff0795aa390182a782a8f882a9f082aae8d49707d4a808d4870752075d0c9567ff07957739018278e07b6898018277d87b67380195670010827708f97b67900195670010827700f97b674001330820826788015020ae003bbf7c78017c797c7a027c7b03978808d4980897aa1097bb18d4ba0ad4a8087c79057c7a047c7b067c7c07979908d4a90997bb1097cc18d4cb0bd4b909979920d489027c79097c7a087c7b0a7c7c0b979908d4a90997bb1097cc18d4cb0bd4b9097c7a0d7c7b0c7c7c0e7c780f97aa08d4ba0a97cc10978818d4c808d4a808978820d498037c78117c7a107c7b127c7c13978808d4a80897bb1097cc18d4cb0bd4b8087c7a157c7b147c7c167c791797aa08d4ba0a97cc10979918d4c909d4a909979920d4890a7c78197c79187c7b1a7c7c1b978808d4980897bb1097cc18d4cb0bd4b8087c791d7c7b1c7c7c1e7c771f979908d4b90997cc10977718d4c707d49707977720d487076f796fa76f386f2a826b9801956c00107bcb78f8826b3801956c00107bcb70f8826b9001956c00107bcb68f8826b4001956c00107bcb60f8956b00107bba58f8956a00107ba850f8956800107b8748f89567ff079577619568ff07958841956a00107ba940f85020b0007cbf826740019579017b69880188970182689001c887077b6750d4970788770182683801c887077b6748d8870782689801c887077b67403308208267385020b20087bd7c78117c79107c7a127c7b13978808d4980897aa1097bb18d4ba0ad4a8087c79157c7a147c7b167c7c17979908d4a90997bb1097cc18d4cb0bd4b909979920d489027c79197c7a187c7b1a7c7c1b979908d4a90997bb1097cc18d4cb0bd4b9097c7a1d7c7b1c7c7c1e7c781f97aa08d4ba0a97cc10978818d4c808d4a808978820d498087c790d7c7a0c7c7b0e7c770f979908d4a90997bb10977718d4b707d497076f887b68386f287b68286f779877207b6720826740956800107b8718f8826748956800107b8710f8826750956800107b8708f89567ff079577219568ff0795880182698801956a00107ba900f85020b400c5bd95670010807734f895680010828838f8977720826920d497077b68d8078268407b68f8078268487b68f0078268507b68e807826888017b68e0077b67d0078267287b67c8079567e0079568c0078269387b69c0075020b600ecbd3308208267305020b8002cbc7c78017c797c7a027c7b03978808d4980897aa1097bb18d4ba0ad4a8087c79057c7a047c7b067c7c07979908d4a90997bb1097cc18d4cb0bd4b909979920d489027c79097c7a087c7b0a7c7c0b979908d4a90997bb1097cc18d4cb0bd4b9097c7a0d7c7b0c7c7c0e7c780f97aa08d4ba0a97cc10978818d4c808d4a808978820d498037c78117c7a107c7b127c7c13978808d4a80897bb1097cc18d4cb0bd4b8087c7a157c7b147c7c167c791797aa08d4ba0a97cc10979918d4c909d4a909979920d489047c78197c79187c7b1a7c7c1b978808d4980897bb1097cc18d4cb0bd4b8087c791d7c7b1c7c7c1e7c771f979908d4b90997cc10977718d4c707d49707977720d4870782694001959802d89809826a9001c89a0bd8ab0cda990c82693801c89c0cd89c09826a9801c8a9096f706f446f3a6f277b69b8077b6cb0077b6ba8077b68a0077b6798077b6a90077b6488079567a007956880077b6080075020ba007bbc3307403308205020bc00bbba7c78117c79107c7a127c7b13978808d4980897aa1097bb18d4ba0ad4a8087c79157c7a147c7b167c7c17979908d4a90997bb1097cc18d4cb0bd4b909979920d489027c79017c7a7c7b027c7c03979908d4a90997bb1097cc18d4cb0bd4b9097c7a057c7b047c7c067c780797aa08d4ba0a97cc10978818d4c808d4a808978820d498037c78197c7a187c7b1a7c7c1b978808d4a80897bb1097cc18d4cb0bd4b8087c7a1d7c7b1c7c7c1e7c791f97aa08d4ba0a97cc10979918d4c909d4a909979920d4890a7c78097c79087c7b0a7c7c0b978808d4980897bb1097cc18d4cb0bd4b8087c790d7c7b0c7c7c0e7c770f979908d4b90997cc10977718d4c707d49707977720d487076f776faa6f386f29d49808d47a09d48909989920d48707977720d4970752074ff383a73308207b6a98015020be0084b9826800017878108268c00078780f8268b80078780e8268b00078780d8268a80078780c8268a00078780b8268980078780a82689000787809826808017878088268880078780782688000787806826878787805826870787804826868787803826860787802826858787801826828017878826810017878188268f8007878178268f0007878168268e8007878158268e0007878148268d8007878138268d0007878128268c8007878118268800178781f8268780178781e8268700178781d8268680178781c8268300178781b8268200178781a8268180178781995670010837760fb0a039569ff07959939018297300281983802829928026f7a97a7206f88988820d4780298aa206f99979820d4a80898992049263807826748017b675807826750017b675007826758017b674807826760017b6740073a0a0000023a0b0800023a0c1000023a071800027b6a78077b6b70077b6c68077b6760077b6930077b68280795696007956a4007956b20077b622007826798013300c000951120ff7b10d8007b15d0007b16c8009515e0008411e082bc7b1c4082bc087b1c4882bc107b1c5082bb187b1b5882ab7b1b1882ab087b1b2082ab107b1b2882aa187b1a308296829a087b1a829a107b1a088299187b191083773308207b183833000628a0b728690783777b6778013308205020c20091b7826a9001787a108269800198983878780f98983078780e98982878780d98982078780c98981878780b98981078780a9898087878097879088269880198983878780798983078780698982878780598982078780498981878780398981078780298980878780178798269980178791898a83878781798a83078781698a82878781598a82078781498a81878781398a81078781298a80878781198983878781f98983078781e98982878781d98982078781c98981878781b98981078781a989808787819330820826778015020c400c1b6837833092033070a080152470783a839a8029517e08477e07b6790016471491718491710491708490783770a0b01826a900182a71082a81882a90882aad49808d4a707d487075207fc02826798018177541723f20295670010837700fa3308040a01019567ff07957739018279d800827ae00014080000000001000000d39808d4a8087b6998019899208899017b6a900194a993895109ad029569ff07959939018298d0007b6880018298c8007b688801492658034926500349264003019567600395684003492648035020c60024b7826768037b677801826760037b677001806770037b67680195670010837720fa0a039569ff07959939018297f0008298e8008199f8006f77987a206f88978b20d4ba0a9777206f99989920d4970798882082696801d3980882697001d39707d4870782687801d3a808d4870788770149263803492630037b67200395672003492628035020c800fa08826790017b671803826798017b671003826780017b67080395680003826788017b67000333075020ca007cb54926f8024926f0024926e002023307209568e0024926e8025020cc005eb533084033075020ce0013b59518e08488e07b6878016481837783893308400a06826a780182a71882a81082a90882aa6f7b7b6b78016f877b6770016f987b6868016fa97b6960017b69b8027b68b0027b67a8029567c0029568a0027b6ba0025020d000ecb58267c8028268d0028269c002826ad802849900ff7b6a78027b6870027b6768027b696002826760017b679802826768017b679002826770017b6788029567800295686002826978017b6980025020d2001bb6826790017b673802826798017b673002826780017b6728023a07400002826888017b6820023a084800027b6758023a075000027b6850023a085800027b67480295694002956a20027b684002288f0333073300d400280cb452475ddebb4890009517e08477e07b6790016471491718491710491708490783770a0b01826a900182a71082a81882a90882aad49808d4a707d487075207548267980181775417234b95670010837740fa3308040a01019567ff079577390182791801827a200133070114080000000001000000d39808d4a8087b699801989920d879097b6a900194a993895209e700330733083300d4002871b333085020d4006cb3837833070133090a0801492610074926080749260007140700000000717b484e956800077b67180733075020d6007cb34926f8064926f0064926e006413307049568e0064926e8063300da00285ab3956700104927b0f8956700104927a8f8956700104927a0f8140700000000717b484e9568ff079588a100956900107b97b8f833075020d80023b395670010492798f895670010492790f895670010492788f83307049568ff079588810095690010492980f85020da00f2b233082433075020dc00a7b283783307013309240a08019569ff0795993901829810017b688001829808017b6888014926b8044926b0047b67a0049567c0049568a0044926a8045020de0099b38267c8047b6778018267c0047b6770018067d0047b67680195670010837760fa0a039569ff07959939018297300182982801819938016f77987a206f88978b20d4ba0a9777206f99989920d4970798882082696801d3980882697001d39707d4870782687801d3a808d4870788770149269804492690047b67800495678004492688045020e0006f05826790017b677804826798017b677004826780017b67680495686004826788017b67600433075020e200f1b14926580449265004492640040233072095684004492648045020e400d3b133084033075020e60088b19518e08488e07b6878016481837783893308400a06826a780182a71882a81082a90882aa6f7b7b6b60016f877b6778016f987b6870016fa97b6968017b6918047b6810047b67080495672004956800047b6b00045020e80061b2826728048268200482693004826a3804848800ff868b017b6ad8037b69d0037b67c803826768017b67f803826770017b67f003826778017b67e803826760017b67e0039567e0039568c0037b6bc0035020ea008db2826790017b679803826798017b679003826780017b6788033a07200002826888017b6880033a082800027b67b8033a073000027b68b0033a083800027b67a8039569a003956a80037b68a003013300ec00951160ff7b1098007b1590007b1688009515a0008411e082ab7b1b3882ab087b1b2882ab107b1b2082aa187b1a18829a7b1a10829a087b1a08829a107b1a829618330733084911303300042837b0330733085020ee0030b08378330733093300f0000a08019511807b10787b15707b1668951580008411e08289828218828b08828810959cfcd89c06c86b099599ffd3b90ad8b90bdaa60b958affc8ab0bd8ab0a888801c98208c8a8088f8a8eb6db8a06d4b8088e9a88cb4085bb01db9a0bdb860b510b6c64768317203308040a018217207b17188217287b17108217307b17088217387b178317403308240a01821740821848821950821a58821b7b6b18821b087b6b10821b107b6b08821b187b6b7b6a387b69307b68287b6720955180821078821570821668951180003200330733085020f20050af837833070133093300f4000a0801951100ff7b10f8007b15f0007b16e800951500018411e064167b673882977b67408297087b67488297107b67508297187b6758828718828910828a0882886f7c6f9b6fa96f877b67307b67b8007b69287b69b0007b6b207b6ba8007b6c187b6ca0004926d8004926d0004926c8004926c0004826e000208368a000836ac000836be0003309ff33070a05018267d8008268d0008269c800826ac0006f726f876f996faa826858d38a0bd8a80a826850d8980cdbba0c826a48d3a703d87a0a826740d82707db3a07d39808d4b808db8c075107a50133082033075020f60063ae826920787908826a1898a83878780798a83078780698a82878780598a82078780498a81878780398a81078780298a808787801787a826a28787a1098983878780f98983078780e98982878780d98982078780c98981878780b98981078780a98980878780982693078791898a83878781798a83078781698a82878781598a82078781498a81878781398a81078781298a80878781198983878781f98983078781e98982878781d98982078781c98981878781b98981078781a98980878781933082033075020f80099ad9518e08488e07b68306481837783893308200a068262308227188228106f7a6f88330b03826740977901c87903d6b70b826948979c01c89c0cc8cb0bc8a303d8a30ac8b807c8a700d38007d88008da7a08d8cb07330b03d6b90ac8a707826950979a01c89a04d6b90b822c826958979a01c89a0ac8ba0a6fcbc8ba0a822b08c87404d87407c8a7076fbac8a404d8a40ac8a707c84808d8480ac8a707826a387ba37ba0087ba8107ba718491a38491a30491a28491a20955100ff8210f8008215f0008216e800951100013200492690004926880049268000140700000000717b484e956880007b67980033075020fa00e7ac491678491670491660323307049568604916685020fc00ceac33082433075020fe0083ac8378330701330924330000010a08019511d07b10287b15207b1618827810827918827a088277d4a909d48707d4970751071182102882152082161895113032003307403308205020020137ac7c78117c79107c7a127c7b13978808d4980897aa1097bb18d4ba0ad4a8087c79157c7a147c7b167c7c17979908d4a90997bb1097cc18d4cb0bd4b909979920d498087c79017c7a7c7b027c7c03979908d4a90997bb1097cc18d4cb0bd4b9097c7a057c7b047c7c067c760797aa08d4ba0a97cc10976618d46c0cd4ca0a97aa20d4a9097c7a197c7b187c7c1a7c761b97aa08d4ba0a97cc10976618d46c0cd4ca0a7c7b1d7c7c1c7c761e7c751f97bb08d4cb0b976610975518d46505d45b0b97bb20d4ba0a7c7b097c7c087c760a7c750b97bb08d4cb0b976610975518d46505d45b0b7c7c0d7c760c7c750e7c770f97cc08d46c0c975510977718d45707d4c707977720d4b7076f756faa6f966f877b1708d467077b1a10d45a08d47808988820d45707977720d487075207a9018117103308207b1750200401fbaa46171f46171e46171d46171c46171b46171a46171946171846171746171646171546171446171346171246171146171046170f46170e46170d46170c46170b46170a461709461708461707461706461705461703a00046170279461701c300460708d45606140500000000010000001408fcffffff00000000821910d889088219089498946846170451080e0182178377043308205020060160aa46171f2046171e46171d46171c46171b46171a46171946171846171746171646171546171446171346171246171146171046170f46170e46170d46170c46170b46170a4617094617084617074617064617054617044617034617024617019558dc821910d8890882190894989468460751088c00821783772433082050200801dea946171f1646171e46171d46171c46171b46171a46171946171846171746171646171546171446171346171246171146171046170f46170e46170d46170c46170b46170a4617094617084617074617064617054617044617034617024617011408bcffffff00000000821910d8890882190894989468460752080400821583574433082050200a0155a946171f46171e46171d46171c46171b46171a461719461718461717461716461715654617147446171361461712724617116546171070330b6f787b0f33062078760e330c6e787c0d46170c6146170b6378760a4617097246170865787c0746170677787b05787604461703794617026c787c0146074f330864645750200c01d4a8837833070133096433000e010a0801951160ff7b1098007b1590007b1688009515a0008411f07b1738330740330820502010019fa87c78097c79087c7a0a7c7b0b978808d4980897aa1097bb18d4ba0ad4a8087c790d7c7a0c7c7b0e7c7c0f979908d4a90997bb1097cc18d4cb0bd4b909979920d489027c79017c7a7c7b027c7c03979908d4a90997bb1097cc18d4cb0bd4b9097c7a057c7b047c7c067c760797aa08d4ba0a97cc10976618d46c0cd4ca0a97aa20d4a9097c7a197c7b187c7c1a7c761b97aa08d4ba0a97cc10976618d46c0cd4ca0a7c7b1d7c7c1c7c761e7c781f97bb08d4cb0b976610978818d46808d4b808978820d48a0a7c78117c7b107c7c127c7613978808d4b80897cc10976618d46c0cd4c8087c7b157c7c147c76167c771797bb08d4cb0b976610977718d46707d4b707977720d487076f7b6faa6f9c6f29d4c90788a8a094b8947851082f0195a7607b1710d8a706c86b077b1708d8b708da66087b1930c88906d89607c8c7077b173307403308207b1b287b1a187b1c20502012014aa782186f886f69821a086faa821b106fbb787b1898bc38787c1f98bc30787c1e98bc28787c1d98bc20787c1c98bc18787c1b98bc10787c1a98bb08787b19787a1098ab38787b1798ab30787b1698ab28787b1598ab20787b1498ab18787b1398ab10787b1298aa08787a11787908989a38787a0f989a30787a0e989a28787a0d989a20787a0c989a18787a0b989a10787a0a98990878790978789889387879079889307879069889287879059889207879049889187879039889107879029888087878018217388218187b788218207b78188218287b78088218307b7810955160ff8210980082159000821688009511a0003200491170491168491160140700000000717b484e9518607b177833075020140176a649115849115049114041330704951840491148502016015da633082433075020180112a683783307013309240a08330733001a012805a9330750201a0100a933070150201c01f7a80049489220248414d249525252a22a2529499224499224499224499224499224499224499224494a92a42455252949a224952455494a929424494992545595a42429492549aa524a9294524a9292141111954a4a4a8a142952a448912245498a888892d29008111191921092244992244992244992242949d22449920aa5a62429254949024844444444888854444a491211111111915414112925494952482949922449922449499224499224499224499224219224499224499224499224298524554a9224252222222244442a22224912894422222222a9285487841a852a8d88884849084992244992244992240949119244226a44040412481225a9469292245144248088888888101111918a88888848429224499224499224294992244992244992244992244992244992244992244992a42a499224454224922449124000092049922445922449922449922449922411092490244a528d242549a248448a8888888888481111111111112222922449522222224424499224499224499224499288041040aa2492889024499224499224499224492291282a89242449922449922449922449925288a2284a9224499224499224499224499224499224499224495212922449922449922449922449292451a548525544444444444444848888888808111111111111111111212211499224111111119108511445892492482289249248248924924822892412892491441249249144229112492449922449224924912492484444448848000144a29288449244928890524a9224499224499224494a92244992244992249144924822111111211289a2242222222292085114454992244992244992244992244992244992922449922449429224499224499224294992244992244992244992244992244992244992244992a42a4992242522224224128944229148241249922449a248241289442291482412894422498888480001a492442291482412894422914824128944229188242244229148241289442291482412894422914800012480244992a4448844a228291289442291482412894422914824128944229148241289442291484412229148241289442291482412894422914824128944229148241289448948204994a41a494a924491881411111111914214455192244992244992244992244992244992244992244992929024499224499224499224494a21892a459222222212481225a9469292245124228d88082089242a898848218aa22849922449922449922449922449922449529224499224498824499224499224499224494a21892a45922222222222424444442a222222094992244992244992a4244992244992244992244992244992244992244992244992aa2449921409014422a924499224499224499224494a2212481225a9469292245124224544444444a41045519448228924924822894412492491441249249148228924924822892412492491441249249144a2242449922449922449922449925248a24a91a48888888888101111911a1111912449429224499224499224294992244992244992244992244992244992244992244992a42a4992242522224292244992244992244992102111092080485492482242444492244992244992244992249154492421922449922449922449922409201245259184244992248988888848228988882490244a528d242549a248448a88888888884811111111111145444494924849a4104591244992244992942449922449922449922449122249922449922449922449925248a24a91a48888888888101111911a111140924a929024499224499224494a9224499224499224499224499224499224499224499224a94a9224498988889024499224499224499224444844020820129524928810119124499224499224499224492455124988244992244992244992244902884451114948922489242292882422222222494c24114a1a481225a946929224512422454444444444a4888888888814a2288a9224499224499224499224499224499224499224499294044992244992244992244992a4142451a5485244444444444444888888488d88888888a84a9224499244511445444444444410111111511511111111112222225211111191229124521411891411111121222222154924892452441445441111222222222222521111111111499024499224499224494a9224499224499224499224499224499224499224499224a94a922451222222884492244992248924499224498a244992244922499224499288041040a41291882422884492244992244992244592244992244992244992442251948824884492244992248924499224498a24499224499224499224492228b5288a22059148241289442251241289442291482412894422914824128944229124489224499224499224499224a520892a4592aa22919448228988888888882022a22a222262444488888848454444444424419224499224499224294992244992244992244992244992244992244992244992a42a4992c488202222224992a44444441045519448228924924822894492482289249248229148124924914412492412299144922449922492443422220104908a882822524a9292449208524a922449922449529224499224499224499224118d44a2282222222222224910455194244992244992244992244992244992244992244992a4144451142549922449922449922449922449922449922449922429099224499224499224499224492948a24a91a4aa884824121111092222498a2449499244128924928888244122129188444444444444444444440411254912118944444444224849922449922449922449922449922449922449922449922449922449922449925445444444444444444444221141241249124922498224499224499224499224499224499224499224494a29494422121189444410119124128944442422124112a424499224499224499224499224499224499224499224499224499224499224492289249144aa2222222222822448922449922449922425499224499224499224499224499224499224499224499254254992281144229148241289442291244992248a44229148241289442291482412514444949294242222222242082122222222222222225292242949929492a42449912012499224499224922449922429922449922449922449922489a0d480244a528d2425892844a41111012491444544444444888820222222a2888828252949249248121111414444444414448444042948a24a91a4a2288a8888882022222222222222222282888888101122448888489180244a528d2425491411694444024822898a8a14941a11014414448444442222220288882888888848444490829246444444444404111111114544442949492291449288880822222222a220222422484112558a24154551444444041111918888888888888820222222448408112222464444a424495292944a5241154d9248499224499224959424292949929494242549529224495441291a11112925499224552512894444448888d48888aa24499224491229489224499224494992244992244992244992244992244992a42049959254922449922449922449495292a4244952922489888822228088822492042928892649929224494a8224499224499224495292244992244992244992244992244992244992244992244955922449222948922449922449922449122224010490a4122541244992244992244992244992245594049124499224499224499224490049aa2c099224499288888824492212914822921494442322224982244992244992244952922449922449922449922449922449922449922449922449555291244992a4244950a59424499224499224499224499224499224294992244992a424492222a2240124054924095250529182040100"},"methodIdentifiers":{"addUploader(address)":"48bbde5d","contractHistory(uint256,uint256)":"2dddf10b","getHistory(uint256,uint256)":"6906679b","getHistoryCount(uint256)":"afa8880e","getLatestHash(uint256)":"7c71654a","owner()":"8da5cb5b","removeUploader(address)":"39a88307","uploadContract(uint256,bytes32)":"a545bf24","uploaders(address)":"63968e19"}},"hash":"a577a032be591e329c4f842b95df818f18169421b392f9260722b2633f64d8cf","factoryDependencies":{}}}}