{"abi":[{"type":"constructor","inputs":[],"stateMutability":"nonpayable"},{"type":"function","name":"balanceOf","inputs":[{"name":"tokenOwner","type":"address","internalType":"address"}],"outputs":[{"name":"","type":"uint256","internalType":"uint256"}],"stateMutability":"view"},{"type":"function","name":"decimals","inputs":[],"outputs":[{"name":"","type":"uint8","internalType":"uint8"}],"stateMutability":"view"},{"type":"function","name":"name","inputs":[],"outputs":[{"name":"","type":"string","internalType":"string"}],"stateMutability":"view"},{"type":"function","name":"symbol","inputs":[],"outputs":[{"name":"","type":"string","internalType":"string"}],"stateMutability":"view"},{"type":"function","name":"totalSupply","inputs":[],"outputs":[{"name":"","type":"uint256","internalType":"uint256"}],"stateMutability":"view"},{"type":"function","name":"transferFrom","inputs":[{"name":"from","type":"address","internalType":"address"},{"name":"to","type":"address","internalType":"address"},{"name":"numTokens","type":"uint256","internalType":"uint256"}],"outputs":[{"name":"","type":"bool","internalType":"bool"}],"stateMutability":"nonpayable"},{"type":"event","name":"Approval","inputs":[{"name":"owner","type":"address","indexed":true,"internalType":"address"},{"name":"spender","type":"address","indexed":true,"internalType":"address"},{"name":"value","type":"uint256","indexed":false,"internalType":"uint256"}],"anonymous":false},{"type":"event","name":"Transfer","inputs":[{"name":"from","type":"address","indexed":true,"internalType":"address"},{"name":"to","type":"address","indexed":true,"internalType":"address"},{"name":"value","type":"uint256","indexed":false,"internalType":"uint256"}],"anonymous":false}],"bytecode":{"object":"0x6080604052678ac7230489e800005f553480156019575f5ffd5b505f5460015f3373ffffffffffffffffffffffffffffffffffffffff1673ffffffffffffffffffffffffffffffffffffffff1681526020019081526020015f20819055506106c38061006a5f395ff3fe608060405234801561000f575f5ffd5b5060043610610060575f3560e01c806306fdde031461006457806318160ddd1461008257806323b872dd146100a0578063313ce567146100d057806370a08231146100ee57806395d89b411461011e575b5f5ffd5b61006c61013c565b604051610079919061043f565b60405180910390f35b61008a610175565b6040516100979190610477565b60405180910390f35b6100ba60048036038101906100b59190610518565b61017d565b6040516100c79190610582565b60405180910390f35b6100d861034b565b6040516100e591906105b6565b60405180910390f35b610108600480360381019061010391906105cf565b610350565b6040516101159190610477565b60405180910390f35b610126610396565b604051610133919061043f565b60405180910390f35b6040518060400160405280600781526020017f54435f436f696e0000000000000000000000000000000000000000000000000081525081565b5f5f54905090565b5f8160015f8673ffffffffffffffffffffffffffffffffffffffff1673ffffffffffffffffffffffffffffffffffffffff1681526020019081526020015f205410156101c7575f5ffd5b8160015f8673ffffffffffffffffffffffffffffffffffffffff1673ffffffffffffffffffffffffffffffffffffffff1681526020019081526020015f20546102109190610627565b60015f8673ffffffffffffffffffffffffffffffffffffffff1673ffffffffffffffffffffffffffffffffffffffff1681526020019081526020015f20819055508160015f8573ffffffffffffffffffffffffffffffffffffffff1673ffffffffffffffffffffffffffffffffffffffff1681526020019081526020015f205461029a919061065a565b60015f8573ffffffffffffffffffffffffffffffffffffffff1673ffffffffffffffffffffffffffffffffffffffff1681526020019081526020015f20819055508273ffffffffffffffffffffffffffffffffffffffff168473ffffffffffffffffffffffffffffffffffffffff167fddf252ad1be2c89b69c2b068fc378daa952ba7f163c4a11628f55a4df523b3ef846040516103389190610477565b60405180910390a3600190509392505050565b601281565b5f60015f8373ffffffffffffffffffffffffffffffffffffffff1673ffffffffffffffffffffffffffffffffffffffff1681526020019081526020015f20549050919050565b6040518060400160405280600381526020017f545443000000000000000000000000000000000000000000000000000000000081525081565b5f81519050919050565b5f82825260208201905092915050565b8281835e5f83830152505050565b5f601f19601f8301169050919050565b5f610411826103cf565b61041b81856103d9565b935061042b8185602086016103e9565b610434816103f7565b840191505092915050565b5f6020820190508181035f8301526104578184610407565b905092915050565b5f819050919050565b6104718161045f565b82525050565b5f60208201905061048a5f830184610468565b92915050565b5f5ffd5b5f73ffffffffffffffffffffffffffffffffffffffff82169050919050565b5f6104bd82610494565b9050919050565b6104cd816104b3565b81146104d7575f5ffd5b50565b5f813590506104e8816104c4565b92915050565b6104f78161045f565b8114610501575f5ffd5b50565b5f81359050610512816104ee565b92915050565b5f5f5f6060848603121561052f5761052e610490565b5b5f61053c868287016104da565b935050602061054d868287016104da565b925050604061055e86828701610504565b9150509250925092565b5f8115159050919050565b61057c81610568565b82525050565b5f6020820190506105955f830184610573565b92915050565b5f60ff82169050919050565b6105b08161059b565b82525050565b5f6020820190506105c95f8301846105a7565b92915050565b5f602082840312156105e4576105e3610490565b5b5f6105f1848285016104da565b91505092915050565b7f4e487b71000000000000000000000000000000000000000000000000000000005f52601160045260245ffd5b5f6106318261045f565b915061063c8361045f565b9250828203905081811115610654576106536105fa565b5b92915050565b5f6106648261045f565b915061066f8361045f565b9250828201905080821115610687576106866105fa565b5b9291505056fea26469706673582212208b64aa2ce6d96f153344569e0e832423c70e610b052145c912bff88bb5087a1264736f6c634300081c0033","linkReferences":{}},"methodIdentifiers":{"balanceOf(address)":"70a08231","decimals()":"313ce567","name()":"06fdde03","symbol()":"95d89b41","totalSupply()":"18160ddd","transferFrom(address,address,uint256)":"23b872dd"},"id":0}