{
  "_format": "hh-sol-artifact-1",
  "contractName": "CryptoMarketRegistry",
  "sourceName": "contracts/CryptoMarket.sol",
  "abi": [
    {
      "inputs": [],
      "stateMutability": "nonpayable",
      "type": "constructor"
    },
    {
      "inputs": [],
      "name": "CoinAlreadyExists",
      "type": "error"
    },
    {
      "inputs": [],
      "name": "CoinNotFound",
      "type": "error"
    },
    {
      "inputs": [],
      "name": "InvalidPrice",
      "type": "error"
    },
    {
      "inputs": [
        {
          "internalType": "address",
          "name": "owner",
          "type": "address"
        }
      ],
      "name": "OwnableInvalidOwner",
      "type": "error"
    },
    {
      "inputs": [
        {
          "internalType": "address",
          "name": "account",
          "type": "address"
        }
      ],
      "name": "OwnableUnauthorizedAccount",
      "type": "error"
    },
    {
      "anonymous": false,
      "inputs": [
        {
          "indexed": true,
          "internalType": "string",
          "name": "symbol",
          "type": "string"
        }
      ],
      "name": "CoinDeactivated",
      "type": "event"
    },
    {
      "anonymous": false,
      "inputs": [
        {
          "indexed": true,
          "internalType": "string",
          "name": "symbol",
          "type": "string"
        },
        {
          "indexed": false,
          "internalType": "string",
          "name": "name",
          "type": "string"
        }
      ],
      "name": "CoinRegistered",
      "type": "event"
    },
    {
      "anonymous": false,
      "inputs": [
        {
          "indexed": true,
          "internalType": "string",
          "name": "symbol",
          "type": "string"
        },
        {
          "indexed": false,
          "internalType": "uint256",
          "name": "newPrice",
          "type": "uint256"
        },
        {
          "indexed": false,
          "internalType": "int256",
          "name": "priceChange",
          "type": "int256"
        },
        {
          "indexed": false,
          "internalType": "uint256",
          "name": "timestamp",
          "type": "uint256"
        }
      ],
      "name": "CoinUpdated",
      "type": "event"
    },
    {
      "anonymous": false,
      "inputs": [
        {
          "indexed": true,
          "internalType": "address",
          "name": "previousOwner",
          "type": "address"
        },
        {
          "indexed": true,
          "internalType": "address",
          "name": "newOwner",
          "type": "address"
        }
      ],
      "name": "OwnershipTransferred",
      "type": "event"
    },
    {
      "inputs": [
        {
          "internalType": "uint256",
          "name": "",
          "type": "uint256"
        }
      ],
      "name": "activeSymbols",
      "outputs": [
        {
          "internalType": "string",
          "name": "",
          "type": "string"
        }
      ],
      "stateMutability": "view",
      "type": "function"
    },
    {
      "inputs": [
        {
          "internalType": "string",
          "name": "",
          "type": "string"
        }
      ],
      "name": "coins",
      "outputs": [
        {
          "internalType": "string",
          "name": "name",
          "type": "string"
        },
        {
          "internalType": "string",
          "name": "symbol",
          "type": "string"
        },
        {
          "internalType": "uint256",
          "name": "price",
          "type": "uint256"
        },
        {
          "internalType": "int256",
          "name": "priceChange",
          "type": "int256"
        },
        {
          "internalType": "uint256",
          "name": "lastUpdated",
          "type": "uint256"
        },
        {
          "internalType": "bool",
          "name": "isActive",
          "type": "bool"
        }
      ],
      "stateMutability": "view",
      "type": "function"
    },
    {
      "inputs": [
        {
          "internalType": "string",
          "name": "symbol",
          "type": "string"
        }
      ],
      "name": "deactivateCoin",
      "outputs": [],
      "stateMutability": "nonpayable",
      "type": "function"
    },
    {
      "inputs": [],
      "name": "getAllActiveCoins",
      "outputs": [
        {
          "components": [
            {
              "internalType": "string",
              "name": "name",
              "type": "string"
            },
            {
              "internalType": "string",
              "name": "symbol",
              "type": "string"
            },
            {
              "internalType": "uint256",
              "name": "price",
              "type": "uint256"
            },
            {
              "internalType": "int256",
              "name": "priceChange",
              "type": "int256"
            },
            {
              "internalType": "uint256",
              "name": "lastUpdated",
              "type": "uint256"
            },
            {
              "internalType": "bool",
              "name": "isActive",
              "type": "bool"
            }
          ],
          "internalType": "struct CryptoMarketRegistry.CoinInfo[]",
          "name": "",
          "type": "tuple[]"
        }
      ],
      "stateMutability": "view",
      "type": "function"
    },
    {
      "inputs": [
        {
          "internalType": "string",
          "name": "symbol",
          "type": "string"
        }
      ],
      "name": "getCoinBySymbol",
      "outputs": [
        {
          "components": [
            {
              "internalType": "string",
              "name": "name",
              "type": "string"
            },
            {
              "internalType": "string",
              "name": "symbol",
              "type": "string"
            },
            {
              "internalType": "uint256",
              "name": "price",
              "type": "uint256"
            },
            {
              "internalType": "int256",
              "name": "priceChange",
              "type": "int256"
            },
            {
              "internalType": "uint256",
              "name": "lastUpdated",
              "type": "uint256"
            },
            {
              "internalType": "bool",
              "name": "isActive",
              "type": "bool"
            }
          ],
          "internalType": "struct CryptoMarketRegistry.CoinInfo",
          "name": "",
          "type": "tuple"
        }
      ],
      "stateMutability": "view",
      "type": "function"
    },
    {
      "inputs": [],
      "name": "owner",
      "outputs": [
        {
          "internalType": "address",
          "name": "",
          "type": "address"
        }
      ],
      "stateMutability": "view",
      "type": "function"
    },
    {
      "inputs": [
        {
          "internalType": "string",
          "name": "symbol",
          "type": "string"
        },
        {
          "internalType": "string",
          "name": "name",
          "type": "string"
        },
        {
          "internalType": "uint256",
          "name": "initialPrice",
          "type": "uint256"
        }
      ],
      "name": "registerCoin",
      "outputs": [],
      "stateMutability": "nonpayable",
      "type": "function"
    },
    {
      "inputs": [],
      "name": "renounceOwnership",
      "outputs": [],
      "stateMutability": "nonpayable",
      "type": "function"
    },
    {
      "inputs": [
        {
          "internalType": "address",
          "name": "newOwner",
          "type": "address"
        }
      ],
      "name": "transferOwnership",
      "outputs": [],
      "stateMutability": "nonpayable",
      "type": "function"
    },
    {
      "inputs": [
        {
          "internalType": "string",
          "name": "symbol",
          "type": "string"
        },
        {
          "internalType": "uint256",
          "name": "newPrice",
          "type": "uint256"
        }
      ],
      "name": "updateCoinPrice",
      "outputs": [],
      "stateMutability": "nonpayable",
      "type": "function"
    }
  ],
  "bytecode": "0x608060405234801561001057600080fd5b5033600073ffffffffffffffffffffffffffffffffffffffff168173ffffffffffffffffffffffffffffffffffffffff16036100845760006040517f1e4fbdf700000000000000000000000000000000000000000000000000000000815260040161007b919061019e565b60405180910390fd5b6100938161009960201b60201c565b506101b9565b60008060009054906101000a900473ffffffffffffffffffffffffffffffffffffffff169050816000806101000a81548173ffffffffffffffffffffffffffffffffffffffff021916908373ffffffffffffffffffffffffffffffffffffffff1602179055508173ffffffffffffffffffffffffffffffffffffffff168173ffffffffffffffffffffffffffffffffffffffff167f8be0079c531659141344cd1fd0a4f28419497f9722a3daafe3b4186f6b6457e060405160405180910390a35050565b600073ffffffffffffffffffffffffffffffffffffffff82169050919050565b60006101888261015d565b9050919050565b6101988161017d565b82525050565b60006020820190506101b3600083018461018f565b92915050565b611fc0806101c86000396000f3fe608060405234801561001057600080fd5b506004361061009e5760003560e01c8063a821703411610066578063a821703414610138578063b1e213a214610168578063c1c3f64c14610198578063f2fde38b146101b4578063f882f7b9146101d05761009e565b80630a789602146100a35780633c7271f7146100d85780636d351db9146100f4578063715018a6146101105780638da5cb5b1461011a575b600080fd5b6100bd60048036038101906100b89190611185565b6101ee565b6040516100cf9695949392919061129a565b60405180910390f35b6100f260048036038101906100ed9190611395565b61035d565b005b61010e600480360381019061010991906113f5565b6104c5565b005b61011861079f565b005b6101226107b3565b60405161012f91906114cb565b60405180910390f35b610152600480360381019061014d91906114e6565b6107dc565b60405161015f919061163a565b60405180910390f35b610182600480360381019061017d919061165c565b610974565b60405161018f9190611689565b60405180910390f35b6101b260048036038101906101ad91906114e6565b610a20565b005b6101ce60048036038101906101c991906116d7565b610afa565b005b6101d8610b80565b6040516101e59190611856565b60405180910390f35b600181805160208101820180518482526020830160208501208183528095505050505050600091509050806000018054610227906118a7565b80601f0160208091040260200160405190810160405280929190818152602001828054610253906118a7565b80156102a05780601f10610275576101008083540402835291602001916102a0565b820191906000526020600020905b81548152906001019060200180831161028357829003601f168201915b5050505050908060010180546102b5906118a7565b80601f01602080910402602001604051908101604052809291908181526020018280546102e1906118a7565b801561032e5780601f106103035761010080835404028352916020019161032e565b820191906000526020600020905b81548152906001019060200180831161031157829003601f168201915b5050505050908060020154908060030154908060040154908060050160009054906101000a900460ff16905086565b610365610ea0565b600060018484604051610379929190611908565b908152602001604051809103902090508060050160009054906101000a900460ff166103d1576040517f764fc2b900000000000000000000000000000000000000000000000000000000815260040160405180910390fd5b6000820361040a576040517ebfc92100000000000000000000000000000000000000000000000000000000815260040160405180910390fd5b6000808260040154111561044b5781600201546127108360020154856104309190611950565b61043a9190611984565b61044491906119f5565b9050610450565b600090505b828260020181905550808260030181905550428260040181905550848460405161047b929190611908565b60405180910390207fe74166ab59078f3a1e29c419333171e0785dc7155c947df0b6c2286ee817f20a8483426040516104b693929190611a26565b60405180910390a25050505050565b6104cd610ea0565b6000600186866040516104e1929190611908565b908152602001604051809103902060010180546104fd906118a7565b905014610536576040517fb5aed12600000000000000000000000000000000000000000000000000000000815260040160405180910390fd5b6000810361056f576040517ebfc92100000000000000000000000000000000000000000000000000000000815260040160405180910390fd5b6040518060c0016040528084848080601f016020809104026020016040519081016040528093929190818152602001838380828437600081840152601f19601f82011690508083019250505050505050815260200186868080601f016020809104026020016040519081016040528093929190818152602001838380828437600081840152601f19601f82011690508083019250505050505050815260200182815260200160008152602001428152602001600115158152506001868660405161063a929190611908565b9081526020016040518091039020600082015181600001908161065d9190611c09565b5060208201518160010190816106739190611c09565b5060408201518160020155606082015181600301556080820151816004015560a08201518160050160006101000a81548160ff02191690831515021790555090505060028585909180600181540180825580915050600190039060005260206000200160009091929091929091929091925091826106f2929190611ce6565b508484604051610703929190611908565b60405180910390207feb855ed9bc061b0cfb015c4c00438f216aeafaf67fb58fd4e942381b95d0ab22848460405161073c929190611de3565b60405180910390a28484604051610754929190611908565b60405180910390207fe74166ab59078f3a1e29c419333171e0785dc7155c947df0b6c2286ee817f20a8260004260405161079093929190611e42565b60405180910390a25050505050565b6107a7610ea0565b6107b16000610f27565b565b60008060009054906101000a900473ffffffffffffffffffffffffffffffffffffffff16905090565b6107e4610ff3565b600183836040516107f6929190611908565b90815260200160405180910390206040518060c001604052908160008201805461081f906118a7565b80601f016020809104026020016040519081016040528092919081815260200182805461084b906118a7565b80156108985780601f1061086d57610100808354040283529160200191610898565b820191906000526020600020905b81548152906001019060200180831161087b57829003601f168201915b505050505081526020016001820180546108b1906118a7565b80601f01602080910402602001604051908101604052809291908181526020018280546108dd906118a7565b801561092a5780601f106108ff5761010080835404028352916020019161092a565b820191906000526020600020905b81548152906001019060200180831161090d57829003601f168201915b505050505081526020016002820154815260200160038201548152602001600482015481526020016005820160009054906101000a900460ff161515151581525050905092915050565b6002818154811061098457600080fd5b90600052602060002001600091509050805461099f906118a7565b80601f01602080910402602001604051908101604052809291908181526020018280546109cb906118a7565b8015610a185780601f106109ed57610100808354040283529160200191610a18565b820191906000526020600020905b8154815290600101906020018083116109fb57829003601f168201915b505050505081565b610a28610ea0565b600060018383604051610a3c929190611908565b908152602001604051809103902090508060050160009054906101000a900460ff16610a94576040517f764fc2b900000000000000000000000000000000000000000000000000000000815260040160405180910390fd5b60008160050160006101000a81548160ff0219169083151502179055508282604051610ac1929190611908565b60405180910390207fed05f0f26560d3e99993f6c03ae57256e82c93bcee2862cb28c0d9d2cdfde61c60405160405180910390a2505050565b610b02610ea0565b600073ffffffffffffffffffffffffffffffffffffffff168173ffffffffffffffffffffffffffffffffffffffff1603610b745760006040517f1e4fbdf7000000000000000000000000000000000000000000000000000000008152600401610b6b91906114cb565b60405180910390fd5b610b7d81610f27565b50565b60606000805b600280549050811015610c0057600160028281548110610ba957610ba8611e79565b5b90600052602060002001604051610bc09190611f2b565b908152602001604051809103902060050160009054906101000a900460ff1615610bf3578180610bef90611f42565b9250505b8080600101915050610b86565b5060008167ffffffffffffffff811115610c1d57610c1c61105a565b5b604051908082528060200260200182016040528015610c5657816020015b610c43610ff3565b815260200190600190039081610c3b5790505b5090506000805b600280549050811015610e9657600160028281548110610c8057610c7f611e79565b5b90600052602060002001604051610c979190611f2b565b908152602001604051809103902060050160009054906101000a900460ff1615610e8957600160028281548110610cd157610cd0611e79565b5b90600052602060002001604051610ce89190611f2b565b90815260200160405180910390206040518060c0016040529081600082018054610d11906118a7565b80601f0160208091040260200160405190810160405280929190818152602001828054610d3d906118a7565b8015610d8a5780601f10610d5f57610100808354040283529160200191610d8a565b820191906000526020600020905b815481529060010190602001808311610d6d57829003601f168201915b50505050508152602001600182018054610da3906118a7565b80601f0160208091040260200160405190810160405280929190818152602001828054610dcf906118a7565b8015610e1c5780601f10610df157610100808354040283529160200191610e1c565b820191906000526020600020905b815481529060010190602001808311610dff57829003601f168201915b505050505081526020016002820154815260200160038201548152602001600482015481526020016005820160009054906101000a900460ff161515151581525050838380610e6a90611f42565b945081518110610e7d57610e7c611e79565b5b60200260200101819052505b8080600101915050610c5d565b5081935050505090565b610ea8610feb565b73ffffffffffffffffffffffffffffffffffffffff16610ec66107b3565b73ffffffffffffffffffffffffffffffffffffffff1614610f2557610ee9610feb565b6040517f118cdaa7000000000000000000000000000000000000000000000000000000008152600401610f1c91906114cb565b60405180910390fd5b565b60008060009054906101000a900473ffffffffffffffffffffffffffffffffffffffff169050816000806101000a81548173ffffffffffffffffffffffffffffffffffffffff021916908373ffffffffffffffffffffffffffffffffffffffff1602179055508173ffffffffffffffffffffffffffffffffffffffff168173ffffffffffffffffffffffffffffffffffffffff167f8be0079c531659141344cd1fd0a4f28419497f9722a3daafe3b4186f6b6457e060405160405180910390a35050565b600033905090565b6040518060c0016040528060608152602001606081526020016000815260200160008152602001600081526020016000151581525090565b6000604051905090565b600080fd5b600080fd5b600080fd5b600080fd5b6000601f19601f8301169050919050565b7f4e487b7100000000000000000000000000000000000000000000000000000000600052604160045260246000fd5b61109282611049565b810181811067ffffffffffffffff821117156110b1576110b061105a565b5b80604052505050565b60006110c461102b565b90506110d08282611089565b919050565b600067ffffffffffffffff8211156110f0576110ef61105a565b5b6110f982611049565b9050602081019050919050565b82818337600083830152505050565b6000611128611123846110d5565b6110ba565b90508281526020810184848401111561114457611143611044565b5b61114f848285611106565b509392505050565b600082601f83011261116c5761116b61103f565b5b813561117c848260208601611115565b91505092915050565b60006020828403121561119b5761119a611035565b5b600082013567ffffffffffffffff8111156111b9576111b861103a565b5b6111c584828501611157565b91505092915050565b600081519050919050565b600082825260208201905092915050565b60005b838110156112085780820151818401526020810190506111ed565b60008484015250505050565b600061121f826111ce565b61122981856111d9565b93506112398185602086016111ea565b61124281611049565b840191505092915050565b6000819050919050565b6112608161124d565b82525050565b6000819050919050565b61127981611266565b82525050565b60008115159050919050565b6112948161127f565b82525050565b600060c08201905081810360008301526112b48189611214565b905081810360208301526112c88188611214565b90506112d76040830187611257565b6112e46060830186611270565b6112f16080830185611257565b6112fe60a083018461128b565b979650505050505050565b600080fd5b600080fd5b60008083601f8401126113295761132861103f565b5b8235905067ffffffffffffffff81111561134657611345611309565b5b6020830191508360018202830111156113625761136161130e565b5b9250929050565b6113728161124d565b811461137d57600080fd5b50565b60008135905061138f81611369565b92915050565b6000806000604084860312156113ae576113ad611035565b5b600084013567ffffffffffffffff8111156113cc576113cb61103a565b5b6113d886828701611313565b935093505060206113eb86828701611380565b9150509250925092565b60008060008060006060868803121561141157611410611035565b5b600086013567ffffffffffffffff81111561142f5761142e61103a565b5b61143b88828901611313565b9550955050602086013567ffffffffffffffff81111561145e5761145d61103a565b5b61146a88828901611313565b9350935050604061147d88828901611380565b9150509295509295909350565b600073ffffffffffffffffffffffffffffffffffffffff82169050919050565b60006114b58261148a565b9050919050565b6114c5816114aa565b82525050565b60006020820190506114e060008301846114bc565b92915050565b600080602083850312156114fd576114fc611035565b5b600083013567ffffffffffffffff81111561151b5761151a61103a565b5b61152785828601611313565b92509250509250929050565b600082825260208201905092915050565b600061154f826111ce565b6115598185611533565b93506115698185602086016111ea565b61157281611049565b840191505092915050565b6115868161124d565b82525050565b61159581611266565b82525050565b6115a48161127f565b82525050565b600060c08301600083015184820360008601526115c78282611544565b915050602083015184820360208601526115e18282611544565b91505060408301516115f6604086018261157d565b506060830151611609606086018261158c565b50608083015161161c608086018261157d565b5060a083015161162f60a086018261159b565b508091505092915050565b6000602082019050818103600083015261165481846115aa565b905092915050565b60006020828403121561167257611671611035565b5b600061168084828501611380565b91505092915050565b600060208201905081810360008301526116a38184611214565b905092915050565b6116b4816114aa565b81146116bf57600080fd5b50565b6000813590506116d1816116ab565b92915050565b6000602082840312156116ed576116ec611035565b5b60006116fb848285016116c2565b91505092915050565b600081519050919050565b600082825260208201905092915050565b6000819050602082019050919050565b600060c083016000830151848203600086015261174d8282611544565b915050602083015184820360208601526117678282611544565b915050604083015161177c604086018261157d565b50606083015161178f606086018261158c565b5060808301516117a2608086018261157d565b5060a08301516117b560a086018261159b565b508091505092915050565b60006117cc8383611730565b905092915050565b6000602082019050919050565b60006117ec82611704565b6117f6818561170f565b93508360208202850161180885611720565b8060005b85811015611844578484038952815161182585826117c0565b9450611830836117d4565b925060208a0199505060018101905061180c565b50829750879550505050505092915050565b6000602082019050818103600083015261187081846117e1565b905092915050565b7f4e487b7100000000000000000000000000000000000000000000000000000000600052602260045260246000fd5b600060028204905060018216806118bf57607f821691505b6020821081036118d2576118d1611878565b5b50919050565b600081905092915050565b60006118ef83856118d8565b93506118fc838584611106565b82840190509392505050565b60006119158284866118e3565b91508190509392505050565b7f4e487b7100000000000000000000000000000000000000000000000000000000600052601160045260246000fd5b600061195b8261124d565b91506119668361124d565b925082820390508181111561197e5761197d611921565b5b92915050565b600061198f8261124d565b915061199a8361124d565b92508282026119a88161124d565b915082820484148315176119bf576119be611921565b5b5092915050565b7f4e487b7100000000000000000000000000000000000000000000000000000000600052601260045260246000fd5b6000611a008261124d565b9150611a0b8361124d565b925082611a1b57611a1a6119c6565b5b828204905092915050565b6000606082019050611a3b6000830186611257565b611a486020830185611270565b611a556040830184611257565b949350505050565b60008190508160005260206000209050919050565b60006020601f8301049050919050565b600082821b905092915050565b600060088302611abf7fffffffffffffffffffffffffffffffffffffffffffffffffffffffffffffffff82611a82565b611ac98683611a82565b95508019841693508086168417925050509392505050565b6000819050919050565b6000611b06611b01611afc8461124d565b611ae1565b61124d565b9050919050565b6000819050919050565b611b2083611aeb565b611b34611b2c82611b0d565b848454611a8f565b825550505050565b600090565b611b49611b3c565b611b54818484611b17565b505050565b5b81811015611b7857611b6d600082611b41565b600181019050611b5a565b5050565b601f821115611bbd57611b8e81611a5d565b611b9784611a72565b81016020851015611ba6578190505b611bba611bb285611a72565b830182611b59565b50505b505050565b600082821c905092915050565b6000611be060001984600802611bc2565b1980831691505092915050565b6000611bf98383611bcf565b9150826002028217905092915050565b611c12826111ce565b67ffffffffffffffff811115611c2b57611c2a61105a565b5b611c3582546118a7565b611c40828285611b7c565b600060209050601f831160018114611c735760008415611c61578287015190505b611c6b8582611bed565b865550611cd3565b601f198416611c8186611a5d565b60005b82811015611ca957848901518255600182019150602085019450602081019050611c84565b86831015611cc65784890151611cc2601f891682611bcf565b8355505b6001600288020188555050505b505050505050565b600082905092915050565b611cf08383611cdb565b67ffffffffffffffff811115611d0957611d0861105a565b5b611d1382546118a7565b611d1e828285611b7c565b6000601f831160018114611d4d5760008415611d3b578287013590505b611d458582611bed565b865550611dad565b601f198416611d5b86611a5d565b60005b82811015611d8357848901358255600182019150602085019450602081019050611d5e565b86831015611da05784890135611d9c601f891682611bcf565b8355505b6001600288020188555050505b50505050505050565b6000611dc283856111d9565b9350611dcf838584611106565b611dd883611049565b840190509392505050565b60006020820190508181036000830152611dfe818486611db6565b90509392505050565b6000819050919050565b6000611e2c611e27611e2284611e07565b611ae1565b611266565b9050919050565b611e3c81611e11565b82525050565b6000606082019050611e576000830186611257565b611e646020830185611e33565b611e716040830184611257565b949350505050565b7f4e487b7100000000000000000000000000000000000000000000000000000000600052603260045260246000fd5b60008154611eb5816118a7565b611ebf81866118d8565b94506001821660008114611eda5760018114611eef57611f22565b60ff1983168652811515820286019350611f22565b611ef885611a5d565b60005b83811015611f1a57815481890152600182019150602081019050611efb565b838801955050505b50505092915050565b6000611f378284611ea8565b915081905092915050565b6000611f4d8261124d565b91507fffffffffffffffffffffffffffffffffffffffffffffffffffffffffffffffff8203611f7f57611f7e611921565b5b60018201905091905056fea2646970667358221220f18df44f44ab6601505dde401f35ddd0a7c0556dc57350d96c372ddfb3407e6b64736f6c634300081c0033",
  "linkReferences": {},
  "deployedLinkReferences": {}
}