{"abi":[{"type":"constructor","inputs":[],"stateMutability":"nonpayable"},{"type":"function","name":"balanceOf","inputs":[],"outputs":[{"name":"","type":"uint256","internalType":"uint256"}],"stateMutability":"view"},{"type":"function","name":"getE7balance","inputs":[],"outputs":[{"name":"","type":"uint256","internalType":"uint256"}],"stateMutability":"view"},{"type":"function","name":"getlogo","inputs":[{"name":"id","type":"uint256","internalType":"uint256"}],"outputs":[{"name":"","type":"uint256","internalType":"uint256"}],"stateMutability":"view"},{"type":"function","name":"getowner","inputs":[{"name":"TokenID","type":"uint256","internalType":"uint256"}],"outputs":[{"name":"","type":"address","internalType":"address"}],"stateMutability":"view"},{"type":"function","name":"getpool","inputs":[],"outputs":[{"name":"","type":"tuple[]","internalType":"struct main.Award[]","components":[{"name":"id","type":"uint256","internalType":"uint256"},{"name":"power","type":"uint256","internalType":"uint256"}]},{"name":"","type":"uint256","internalType":"uint256"}],"stateMutability":"view"},{"type":"function","name":"getprice","inputs":[{"name":"TokenID","type":"uint256","internalType":"uint256"}],"outputs":[{"name":"","type":"uint256","internalType":"uint256"}],"stateMutability":"view"},{"type":"function","name":"getstore","inputs":[],"outputs":[{"name":"","type":"tuple[]","internalType":"struct main.Award[]","components":[{"name":"id","type":"uint256","internalType":"uint256"},{"name":"power","type":"uint256","internalType":"uint256"}]},{"name":"","type":"uint256","internalType":"uint256"}],"stateMutability":"view"},{"type":"function","name":"getstorehouse_A","inputs":[{"name":"TokenID","type":"uint256","internalType":"uint256"}],"outputs":[{"name":"","type":"tuple","internalType":"struct main.Award","components":[{"name":"id","type":"uint256","internalType":"uint256"},{"name":"power","type":"uint256","internalType":"uint256"}]}],"stateMutability":"view"},{"type":"function","name":"getstorehouse_ID","inputs":[],"outputs":[{"name":"","type":"uint256[]","internalType":"uint256[]"},{"name":"","type":"uint256","internalType":"uint256"}],"stateMutability":"view"},{"type":"function","name":"recharge","inputs":[{"name":"money","type":"uint256","internalType":"uint256"}],"outputs":[{"name":"","type":"bool","internalType":"bool"}],"stateMutability":"nonpayable"},{"type":"function","name":"repool","inputs":[],"outputs":[{"name":"","type":"bool","internalType":"bool"}],"stateMutability":"nonpayable"},{"type":"function","name":"tran_pool","inputs":[],"outputs":[{"name":"","type":"uint256","internalType":"uint256"}],"stateMutability":"nonpayable"},{"type":"function","name":"tran_store","inputs":[{"name":"TokenID","type":"uint256","internalType":"uint256"}],"outputs":[{"name":"","type":"bool","internalType":"bool"}],"stateMutability":"nonpayable"},{"type":"function","name":"upload","inputs":[{"name":"TokenID","type":"uint256","internalType":"uint256"},{"name":"pri","type":"uint256","internalType":"uint256"}],"outputs":[{"name":"","type":"bool","internalType":"bool"}],"stateMutability":"nonpayable"}],"bytecode":{"object":"0x608060405260405161001090610728565b604051809103905ff080158015610029573d5f5f3e3d5ffd5b505f5f6101000a81548173ffffffffffffffffffffffffffffffffffffffff021916908373ffffffffffffffffffffffffffffffffffffffff16021790555060405161007490610735565b604051809103905ff08015801561008d573d5f5f3e3d5ffd5b5060015f6101000a81548173ffffffffffffffffffffffffffffffffffffffff021916908373ffffffffffffffffffffffffffffffffffffffff160217905550436003555f601a553480156100e0575f5ffd5b503360025f6101000a81548173ffffffffffffffffffffffffffffffffffffffff021916908373ffffffffffffffffffffffffffffffffffffffff16021790555061012f61014260201b60201c565b61013d61046160201b60201c565b61094f565b5f600590505f5f90505b600a81101561045d575f444284846101649190610778565b604051602001610176939291906107cb565b604051602081830303815290604052805190602001205f1c90505f604051806040016040528083815260200160326023856101b19190610834565b6101bb9190610778565b8152509050601981908060018154018082558091505060019003905f5260205f2090600202015f909190919091505f820151815f0155602082015181600101555050601a5f81548092919061020f90610864565b919050555030601c5f835f015181526020019081526020015f205f6101000a81548173ffffffffffffffffffffffffffffffffffffffff021916908373ffffffffffffffffffffffffffffffffffffffff16021790555060056008836102759190610834565b6003836020015161028691906108ab565b6102909190610778565b61029a91906108ab565b601b5f835f015181526020019081526020015f208190555060015f9054906101000a900473ffffffffffffffffffffffffffffffffffffffff1673ffffffffffffffffffffffffffffffffffffffff1663b95a51ee825f015183602001516040518363ffffffff1660e01b81526004016103159291906108fb565b5f604051808303815f87803b15801561032c575f5ffd5b505af115801561033e573d5f5f3e3d5ffd5b5050505080601d5f835f015181526020019081526020015f205f820151815f015560208201518160010155905050601e5f3073ffffffffffffffffffffffffffffffffffffffff1673ffffffffffffffffffffffffffffffffffffffff1681526020019081526020015f205f01815f0151908060018154018082558091505060019003905f5260205f20015f9091909190915055601e5f3073ffffffffffffffffffffffffffffffffffffffff1673ffffffffffffffffffffffffffffffffffffffff1681526020019081526020015f206001015f81548092919061042290610864565b91905055508360205f835f015181526020019081526020015f2081905550838061044b90610864565b9450505050808060010191505061014c565b5050565b5f6018819055505f5f90505b6005811015610725575f44428360405160200161048c939291906107cb565b604051602081830303815290604052805190602001205f1c90505f604051806040016040528083815260200160466014856104c79190610834565b6104d19190610778565b815250905080600484600a81106104eb576104ea610922565b5b600202015f820151815f01556020820151816001015590505060185f81548092919061051690610864565b919050555030601c5f835f015181526020019081526020015f205f6101000a81548173ffffffffffffffffffffffffffffffffffffffff021916908373ffffffffffffffffffffffffffffffffffffffff160217905550610378601b5f835f015181526020019081526020015f208190555060015f9054906101000a900473ffffffffffffffffffffffffffffffffffffffff1673ffffffffffffffffffffffffffffffffffffffff1663b95a51ee825f015183602001516040518363ffffffff1660e01b81526004016105eb9291906108fb565b5f604051808303815f87803b158015610602575f5ffd5b505af1158015610614573d5f5f3e3d5ffd5b5050505080601d5f835f015181526020019081526020015f205f820151815f015560208201518160010155905050601e5f3073ffffffffffffffffffffffffffffffffffffffff1673ffffffffffffffffffffffffffffffffffffffff1681526020019081526020015f205f01815f0151908060018154018082558091505060019003905f5260205f20015f9091909190915055601e5f3073ffffffffffffffffffffffffffffffffffffffff1673ffffffffffffffffffffffffffffffffffffffff1681526020019081526020015f206001015f8154809291906106f890610864565b91905055508260205f835f015181526020019081526020015f20819055505050808060010191505061046d565b50565b61072d806131f683390190565b61083e8061392383390190565b5f819050919050565b7f4e487b71000000000000000000000000000000000000000000000000000000005f52601160045260245ffd5b5f61078282610742565b915061078d83610742565b92508282019050808211156107a5576107a461074b565b5b92915050565b5f819050919050565b6107c56107c082610742565b6107ab565b82525050565b5f6107d682866107b4565b6020820191506107e682856107b4565b6020820191506107f682846107b4565b602082019150819050949350505050565b7f4e487b71000000000000000000000000000000000000000000000000000000005f52601260045260245ffd5b5f61083e82610742565b915061084983610742565b92508261085957610858610807565b5b828206905092915050565b5f61086e82610742565b91507fffffffffffffffffffffffffffffffffffffffffffffffffffffffffffffffff82036108a05761089f61074b565b5b600182019050919050565b5f6108b582610742565b91506108c083610742565b92508282026108ce81610742565b915082820484148315176108e5576108e461074b565b5b5092915050565b6108f581610742565b82525050565b5f60408201905061090e5f8301856108ec565b61091b60208301846108ec565b9392505050565b7f4e487b71000000000000000000000000000000000000000000000000000000005f52603260045260245ffd5b61289a8061095c5f395ff3fe608060405234801561000f575f5ffd5b50600436106100e8575f3560e01c80639f6c0cb31161008a578063cd9ab4a411610064578063cd9ab4a414610285578063dae5fb8e146102a4578063eb3a0cfc146102c2578063ef299b0b146102e1576100e8565b80639f6c0cb314610207578063bf77692814610225578063c84a7ec314610255576100e8565b806357aada19116100c657806357aada191461017c578063722713f71461019b57806392afd355146101b95780639e7e1079146101d7576100e8565b80631f59eb1b146100ec5780632a45571d1461011c5780634845ae7a1461014c575b5f5ffd5b61010660048036038101906101019190612136565b610311565b6040516101139190612170565b60405180910390f35b61013660048036038101906101319190612189565b61032b565b60405161014391906121e1565b60405180910390f35b61016660048036038101906101619190612136565b61046a565b6040516101739190612239565b60405180910390f35b6101846104a3565b604051610192929190612336565b60405180910390f35b6101a3610585565b6040516101b09190612170565b60405180910390f35b6101c1610623565b6040516101ce9190612170565b60405180910390f35b6101f160048036038101906101ec9190612136565b6106c2565b6040516101fe91906121e1565b60405180910390f35b61020f611022565b60405161021c9190612170565b60405180910390f35b61023f600480360381019061023a9190612136565b6119c6565b60405161024c9190612170565b60405180910390f35b61026f600480360381019061026a9190612136565b6119e0565b60405161027c9190612391565b60405180910390f35b61028d611a1e565b60405161029b929190612336565b60405180910390f35b6102ac611af8565b6040516102b991906121e1565b60405180910390f35b6102ca611b8c565b6040516102d8929190612452565b60405180910390f35b6102fb60048036038101906102f69190612136565b611d3a565b60405161030891906121e1565b60405180910390f35b5f60205f8381526020019081526020015f20549050919050565b5f6002601f5f3373ffffffffffffffffffffffffffffffffffffffff1673ffffffffffffffffffffffffffffffffffffffff1681526020019081526020015f20541015610376575f5ffd5b5f601d5f8581526020019081526020015f206040518060400160405290815f82015481526020016001820154815250509050806019601a54815481106103bf576103be612480565b5b905f5260205f2090600202015f820151815f015560208201518160010155905050601a5f8154809291906103f2906124da565b9190505550601f5f3373ffffffffffffffffffffffffffffffffffffffff1673ffffffffffffffffffffffffffffffffffffffff1681526020019081526020015f205f815480929190610444906124da565b919050555082601b5f8681526020019081526020015f2081905550600191505092915050565b5f601c5f8381526020019081526020015f205f9054906101000a900473ffffffffffffffffffffffffffffffffffffffff169050919050565b60605f5f601a5467ffffffffffffffff8111156104c3576104c2612521565b5b6040519080825280602002602001820160405280156104fc57816020015b6104e96120e7565b8152602001906001900390816104e15790505b5090505f5f90505b601a54811015610577576019818154811061052257610521612480565b5b905f5260205f2090600202016040518060400160405290815f820154815260200160018201548152505082828151811061055f5761055e612480565b5b60200260200101819052508080600101915050610504565b5080601a5492509250509091565b5f5f5f9054906101000a900473ffffffffffffffffffffffffffffffffffffffff1673ffffffffffffffffffffffffffffffffffffffff166370a08231336040518263ffffffff1660e01b81526004016105df9190612239565b602060405180830381865afa1580156105fa573d5f5f3e3d5ffd5b505050506040513d601f19601f8201168201806040525081019061061e9190612562565b905090565b5f60015f9054906101000a900473ffffffffffffffffffffffffffffffffffffffff1673ffffffffffffffffffffffffffffffffffffffff166370a08231336040518263ffffffff1660e01b815260040161067e9190612239565b602060405180830381865afa158015610699573d5f5f3e3d5ffd5b505050506040513d601f19601f820116820180604052508101906106bd9190612562565b905090565b5f601b5f8381526020019081526020015f20545f5f9054906101000a900473ffffffffffffffffffffffffffffffffffffffff1673ffffffffffffffffffffffffffffffffffffffff166370a08231336040518263ffffffff1660e01b815260040161072e9190612239565b602060405180830381865afa158015610749573d5f5f3e3d5ffd5b505050506040513d601f19601f8201168201806040525081019061076d9190612562565b10156107ae576040517f08c379a00000000000000000000000000000000000000000000000000000000081526004016107a5906125e7565b60405180910390fd5b5f5f9054906101000a900473ffffffffffffffffffffffffffffffffffffffff1673ffffffffffffffffffffffffffffffffffffffff166323b872dd33601c5f8681526020019081526020015f205f9054906101000a900473ffffffffffffffffffffffffffffffffffffffff16601b5f8781526020019081526020015f20546040518463ffffffff1660e01b815260040161084c93929190612605565b6020604051808303815f875af1158015610868573d5f5f3e3d5ffd5b505050506040513d601f19601f8201168201806040525081019061088c9190612664565b6108cb576040517f08c379a00000000000000000000000000000000000000000000000000000000081526004016108c2906126d9565b60405180910390fd5b60015f9054906101000a900473ffffffffffffffffffffffffffffffffffffffff1673ffffffffffffffffffffffffffffffffffffffff166323b872dd601c5f8581526020019081526020015f205f9054906101000a900473ffffffffffffffffffffffffffffffffffffffff1633856040518463ffffffff1660e01b815260040161095993929190612605565b5f604051808303815f87803b158015610970575f5ffd5b505af1158015610982573d5f5f3e3d5ffd5b505050505f5f90505b601e5f601c5f8681526020019081526020015f205f9054906101000a900473ffffffffffffffffffffffffffffffffffffffff1673ffffffffffffffffffffffffffffffffffffffff1673ffffffffffffffffffffffffffffffffffffffff1681526020019081526020015f2060010154811015610cb95782601e5f601c5f8781526020019081526020015f205f9054906101000a900473ffffffffffffffffffffffffffffffffffffffff1673ffffffffffffffffffffffffffffffffffffffff1673ffffffffffffffffffffffffffffffffffffffff1681526020019081526020015f205f018281548110610a8557610a84612480565b5b905f5260205f20015403610cac57601e5f601c5f8681526020019081526020015f205f9054906101000a900473ffffffffffffffffffffffffffffffffffffffff1673ffffffffffffffffffffffffffffffffffffffff1673ffffffffffffffffffffffffffffffffffffffff1681526020019081526020015f205f016001601e5f601c5f8881526020019081526020015f205f9054906101000a900473ffffffffffffffffffffffffffffffffffffffff1673ffffffffffffffffffffffffffffffffffffffff1673ffffffffffffffffffffffffffffffffffffffff1681526020019081526020015f2060010154610b7f91906126f7565b81548110610b9057610b8f612480565b5b905f5260205f200154601e5f601c5f8781526020019081526020015f205f9054906101000a900473ffffffffffffffffffffffffffffffffffffffff1673ffffffffffffffffffffffffffffffffffffffff1673ffffffffffffffffffffffffffffffffffffffff1681526020019081526020015f205f018281548110610c1a57610c19612480565b5b905f5260205f200181905550601e5f601c5f8681526020019081526020015f205f9054906101000a900473ffffffffffffffffffffffffffffffffffffffff1673ffffffffffffffffffffffffffffffffffffffff1673ffffffffffffffffffffffffffffffffffffffff1681526020019081526020015f206001015f815480929190610ca69061272a565b91905055505b808060010191505061098b565b505f5f90505b601a54811015610d7a578260198281548110610cde57610cdd612480565b5b905f5260205f2090600202015f015403610d6d5760196001601a54610d0391906126f7565b81548110610d1457610d13612480565b5b905f5260205f20906002020160198281548110610d3457610d33612480565b5b905f5260205f2090600202015f820154815f015560018201548160010155905050601a5f815480929190610d679061272a565b91905055505b8080600101915050610cbf565b50601e5f3373ffffffffffffffffffffffffffffffffffffffff1673ffffffffffffffffffffffffffffffffffffffff1681526020019081526020015f205f0182908060018154018082558091505060019003905f5260205f20015f9091909190915055601e5f3373ffffffffffffffffffffffffffffffffffffffff1673ffffffffffffffffffffffffffffffffffffffff1681526020019081526020015f205f016001601e5f3373ffffffffffffffffffffffffffffffffffffffff1673ffffffffffffffffffffffffffffffffffffffff1681526020019081526020015f205f0180549050610e6c91906126f7565b81548110610e7d57610e7c612480565b5b905f5260205f200154601e5f3373ffffffffffffffffffffffffffffffffffffffff1673ffffffffffffffffffffffffffffffffffffffff1681526020019081526020015f205f01601e5f3373ffffffffffffffffffffffffffffffffffffffff1673ffffffffffffffffffffffffffffffffffffffff1681526020019081526020015f206001015481548110610f1757610f16612480565b5b905f5260205f200181905550601e5f3373ffffffffffffffffffffffffffffffffffffffff1673ffffffffffffffffffffffffffffffffffffffff1681526020019081526020015f206001015f815480929190610f73906124da565b9190505550601f5f3373ffffffffffffffffffffffffffffffffffffffff1673ffffffffffffffffffffffffffffffffffffffff1681526020019081526020015f205f815480929190610fc5906124da565b919050555033601c5f8481526020019081526020015f205f6101000a81548173ffffffffffffffffffffffffffffffffffffffff021916908373ffffffffffffffffffffffffffffffffffffffff16021790555060019050919050565b5f5f601854444260185460405160200161103e93929190612771565b604051602081830303815290604052805190602001205f1c61106091906127da565b90505f600482600a811061107757611076612480565b5b600202015f01549050601b5f8281526020019081526020015f20545f5f9054906101000a900473ffffffffffffffffffffffffffffffffffffffff1673ffffffffffffffffffffffffffffffffffffffff166370a08231336040518263ffffffff1660e01b81526004016110eb9190612239565b602060405180830381865afa158015611106573d5f5f3e3d5ffd5b505050506040513d601f19601f8201168201806040525081019061112a9190612562565b101561116b576040517f08c379a0000000000000000000000000000000000000000000000000000000008152600401611162906125e7565b60405180910390fd5b5f5f9054906101000a900473ffffffffffffffffffffffffffffffffffffffff1673ffffffffffffffffffffffffffffffffffffffff166323b872dd33601c5f8581526020019081526020015f205f9054906101000a900473ffffffffffffffffffffffffffffffffffffffff16601b5f8681526020019081526020015f20546040518463ffffffff1660e01b815260040161120993929190612605565b6020604051808303815f875af1158015611225573d5f5f3e3d5ffd5b505050506040513d601f19601f820116820180604052508101906112499190612664565b611288576040517f08c379a000000000000000000000000000000000000000000000000000000000815260040161127f906126d9565b60405180910390fd5b60015f9054906101000a900473ffffffffffffffffffffffffffffffffffffffff1673ffffffffffffffffffffffffffffffffffffffff166323b872dd601c5f8481526020019081526020015f205f9054906101000a900473ffffffffffffffffffffffffffffffffffffffff1633846040518463ffffffff1660e01b815260040161131693929190612605565b5f604051808303815f87803b15801561132d575f5ffd5b505af115801561133f573d5f5f3e3d5ffd5b505050505f5f90505b601e5f601c5f8581526020019081526020015f205f9054906101000a900473ffffffffffffffffffffffffffffffffffffffff1673ffffffffffffffffffffffffffffffffffffffff1673ffffffffffffffffffffffffffffffffffffffff1681526020019081526020015f20600101548110156116765781601e5f601c5f8681526020019081526020015f205f9054906101000a900473ffffffffffffffffffffffffffffffffffffffff1673ffffffffffffffffffffffffffffffffffffffff1673ffffffffffffffffffffffffffffffffffffffff1681526020019081526020015f205f01828154811061144257611441612480565b5b905f5260205f2001540361166957601e5f601c5f8581526020019081526020015f205f9054906101000a900473ffffffffffffffffffffffffffffffffffffffff1673ffffffffffffffffffffffffffffffffffffffff1673ffffffffffffffffffffffffffffffffffffffff1681526020019081526020015f205f016001601e5f601c5f8781526020019081526020015f205f9054906101000a900473ffffffffffffffffffffffffffffffffffffffff1673ffffffffffffffffffffffffffffffffffffffff1673ffffffffffffffffffffffffffffffffffffffff1681526020019081526020015f206001015461153c91906126f7565b8154811061154d5761154c612480565b5b905f5260205f200154601e5f601c5f8681526020019081526020015f205f9054906101000a900473ffffffffffffffffffffffffffffffffffffffff1673ffffffffffffffffffffffffffffffffffffffff1673ffffffffffffffffffffffffffffffffffffffff1681526020019081526020015f205f0182815481106115d7576115d6612480565b5b905f5260205f200181905550601e5f601c5f8581526020019081526020015f205f9054906101000a900473ffffffffffffffffffffffffffffffffffffffff1673ffffffffffffffffffffffffffffffffffffffff1673ffffffffffffffffffffffffffffffffffffffff1681526020019081526020015f206001015f8154809291906116639061272a565b91905055505b8080600101915050611348565b505f5f90505b60185481101561171f5781600482600a811061169b5761169a612480565b5b600202015f01540361171257600460016018546116b891906126f7565b600a81106116c9576116c8612480565b5b60020201600482600a81106116e1576116e0612480565b5b600202015f820154815f01556001820154816001015590505060185f81548092919061170c9061272a565b91905055505b808060010191505061167c565b50601e5f3373ffffffffffffffffffffffffffffffffffffffff1673ffffffffffffffffffffffffffffffffffffffff1681526020019081526020015f205f0181908060018154018082558091505060019003905f5260205f20015f9091909190915055601e5f3373ffffffffffffffffffffffffffffffffffffffff1673ffffffffffffffffffffffffffffffffffffffff1681526020019081526020015f205f016001601e5f3373ffffffffffffffffffffffffffffffffffffffff1673ffffffffffffffffffffffffffffffffffffffff1681526020019081526020015f205f018054905061181191906126f7565b8154811061182257611821612480565b5b905f5260205f200154601e5f3373ffffffffffffffffffffffffffffffffffffffff1673ffffffffffffffffffffffffffffffffffffffff1681526020019081526020015f205f01601e5f3373ffffffffffffffffffffffffffffffffffffffff1673ffffffffffffffffffffffffffffffffffffffff1681526020019081526020015f2060010154815481106118bc576118bb612480565b5b905f5260205f200181905550601e5f3373ffffffffffffffffffffffffffffffffffffffff1673ffffffffffffffffffffffffffffffffffffffff1681526020019081526020015f206001015f815480929190611918906124da565b9190505550601f5f3373ffffffffffffffffffffffffffffffffffffffff1673ffffffffffffffffffffffffffffffffffffffff1681526020019081526020015f205f81548092919061196a906124da565b919050555033601c5f8381526020019081526020015f205f6101000a81548173ffffffffffffffffffffffffffffffffffffffff021916908373ffffffffffffffffffffffffffffffffffffffff160217905550809250505090565b5f601b5f8381526020019081526020015f20549050919050565b6119e86120e7565b601d5f8381526020019081526020015f206040518060400160405290815f82015481526020016001820154815250509050919050565b60605f5f60185467ffffffffffffffff811115611a3e57611a3d612521565b5b604051908082528060200260200182016040528015611a7757816020015b611a646120e7565b815260200190600190039081611a5c5790505b5090505f5f90505b601854811015611aea57600481600a8110611a9d57611a9c612480565b5b600202016040518060400160405290815f8201548152602001600182015481525050828281518110611ad257611ad1612480565b5b60200260200101819052508080600101915050611a7f565b508060185492509250509091565b5f60025f9054906101000a900473ffffffffffffffffffffffffffffffffffffffff1673ffffffffffffffffffffffffffffffffffffffff163373ffffffffffffffffffffffffffffffffffffffff1614611b51575f5ffd5b5f43905060035461438082611b6691906126f7565b10611b8457611b73611e20565b806003819055506001915050611b89565b5f9150505b90565b60605f5f601e5f3373ffffffffffffffffffffffffffffffffffffffff1673ffffffffffffffffffffffffffffffffffffffff1681526020019081526020015f206001015467ffffffffffffffff811115611bea57611be9612521565b5b604051908082528060200260200182016040528015611c185781602001602082028036833780820191505090505b5090505f5f90505b601e5f3373ffffffffffffffffffffffffffffffffffffffff1673ffffffffffffffffffffffffffffffffffffffff1681526020019081526020015f2060010154811015611cee57601e5f3373ffffffffffffffffffffffffffffffffffffffff1673ffffffffffffffffffffffffffffffffffffffff1681526020019081526020015f205f018181548110611cb957611cb8612480565b5b905f5260205f200154828281518110611cd557611cd4612480565b5b6020026020010181815250508080600101915050611c20565b5080601e5f3373ffffffffffffffffffffffffffffffffffffffff1673ffffffffffffffffffffffffffffffffffffffff1681526020019081526020015f206001015492509250509091565b5f5f5f9054906101000a900473ffffffffffffffffffffffffffffffffffffffff1673ffffffffffffffffffffffffffffffffffffffff166323b872dd3033856040518463ffffffff1660e01b8152600401611d9893929190612605565b6020604051808303815f875af1158015611db4573d5f5f3e3d5ffd5b505050506040513d601f19601f82011682018060405250810190611dd89190612664565b611e17576040517f08c379a0000000000000000000000000000000000000000000000000000000008152600401611e0e906126d9565b60405180910390fd5b60019050919050565b5f6018819055505f5f90505b60058110156120e4575f444283604051602001611e4b93929190612771565b604051602081830303815290604052805190602001205f1c90505f60405180604001604052808381526020016046601485611e8691906127da565b611e90919061280a565b815250905080600484600a8110611eaa57611ea9612480565b5b600202015f820151815f01556020820151816001015590505060185f815480929190611ed5906124da565b919050555030601c5f835f015181526020019081526020015f205f6101000a81548173ffffffffffffffffffffffffffffffffffffffff021916908373ffffffffffffffffffffffffffffffffffffffff160217905550610378601b5f835f015181526020019081526020015f208190555060015f9054906101000a900473ffffffffffffffffffffffffffffffffffffffff1673ffffffffffffffffffffffffffffffffffffffff1663b95a51ee825f015183602001516040518363ffffffff1660e01b8152600401611faa92919061283d565b5f604051808303815f87803b158015611fc1575f5ffd5b505af1158015611fd3573d5f5f3e3d5ffd5b5050505080601d5f835f015181526020019081526020015f205f820151815f015560208201518160010155905050601e5f3073ffffffffffffffffffffffffffffffffffffffff1673ffffffffffffffffffffffffffffffffffffffff1681526020019081526020015f205f01815f0151908060018154018082558091505060019003905f5260205f20015f9091909190915055601e5f3073ffffffffffffffffffffffffffffffffffffffff1673ffffffffffffffffffffffffffffffffffffffff1681526020019081526020015f206001015f8154809291906120b7906124da565b91905055508260205f835f015181526020019081526020015f208190555050508080600101915050611e2c565b50565b60405180604001604052805f81526020015f81525090565b5f5ffd5b5f819050919050565b61211581612103565b811461211f575f5ffd5b50565b5f813590506121308161210c565b92915050565b5f6020828403121561214b5761214a6120ff565b5b5f61215884828501612122565b91505092915050565b61216a81612103565b82525050565b5f6020820190506121835f830184612161565b92915050565b5f5f6040838503121561219f5761219e6120ff565b5b5f6121ac85828601612122565b92505060206121bd85828601612122565b9150509250929050565b5f8115159050919050565b6121db816121c7565b82525050565b5f6020820190506121f45f8301846121d2565b92915050565b5f73ffffffffffffffffffffffffffffffffffffffff82169050919050565b5f612223826121fa565b9050919050565b61223381612219565b82525050565b5f60208201905061224c5f83018461222a565b92915050565b5f81519050919050565b5f82825260208201905092915050565b5f819050602082019050919050565b61228481612103565b82525050565b604082015f82015161229e5f85018261227b565b5060208201516122b1602085018261227b565b50505050565b5f6122c2838361228a565b60408301905092915050565b5f602082019050919050565b5f6122e482612252565b6122ee818561225c565b93506122f98361226c565b805f5b8381101561232957815161231088826122b7565b975061231b836122ce565b9250506001810190506122fc565b5085935050505092915050565b5f6040820190508181035f83015261234e81856122da565b905061235d6020830184612161565b9392505050565b604082015f8201516123785f85018261227b565b50602082015161238b602085018261227b565b50505050565b5f6040820190506123a45f830184612364565b92915050565b5f81519050919050565b5f82825260208201905092915050565b5f819050602082019050919050565b5f6123de838361227b565b60208301905092915050565b5f602082019050919050565b5f612400826123aa565b61240a81856123b4565b9350612415836123c4565b805f5b8381101561244557815161242c88826123d3565b9750612437836123ea565b925050600181019050612418565b5085935050505092915050565b5f6040820190508181035f83015261246a81856123f6565b90506124796020830184612161565b9392505050565b7f4e487b71000000000000000000000000000000000000000000000000000000005f52603260045260245ffd5b7f4e487b71000000000000000000000000000000000000000000000000000000005f52601160045260245ffd5b5f6124e482612103565b91507fffffffffffffffffffffffffffffffffffffffffffffffffffffffffffffffff8203612516576125156124ad565b5b600182019050919050565b7f4e487b71000000000000000000000000000000000000000000000000000000005f52604160045260245ffd5b5f8151905061255c8161210c565b92915050565b5f60208284031215612577576125766120ff565b5b5f6125848482850161254e565b91505092915050565b5f82825260208201905092915050565b7f496e73756666696369656e742062616c616e63650000000000000000000000005f82015250565b5f6125d160148361258d565b91506125dc8261259d565b602082019050919050565b5f6020820190508181035f8301526125fe816125c5565b9050919050565b5f6060820190506126185f83018661222a565b612625602083018561222a565b6126326040830184612161565b949350505050565b612643816121c7565b811461264d575f5ffd5b50565b5f8151905061265e8161263a565b92915050565b5f60208284031215612679576126786120ff565b5b5f61268684828501612650565b91505092915050565b7f5472616e73616374696f6e204661696c656400000000000000000000000000005f82015250565b5f6126c360128361258d565b91506126ce8261268f565b602082019050919050565b5f6020820190508181035f8301526126f0816126b7565b9050919050565b5f61270182612103565b915061270c83612103565b9250828203905081811115612724576127236124ad565b5b92915050565b5f61273482612103565b91505f8203612746576127456124ad565b5b600182039050919050565b5f819050919050565b61276b61276682612103565b612751565b82525050565b5f61277c828661275a565b60208201915061278c828561275a565b60208201915061279c828461275a565b602082019150819050949350505050565b7f4e487b71000000000000000000000000000000000000000000000000000000005f52601260045260245ffd5b5f6127e482612103565b91506127ef83612103565b9250826127ff576127fe6127ad565b5b828206905092915050565b5f61281482612103565b915061281f83612103565b9250828201905080821115612837576128366124ad565b5b92915050565b5f6040820190506128505f830185612161565b61285d6020830184612161565b939250505056fea2646970667358221220e0585efa658dbc60f794e87cc3d5a1a09f0a6a1ef86abece80b9cc76bf3a524464736f6c634300081c00336080604052678ac7230489e800005f553480156019575f5ffd5b505f5460015f3373ffffffffffffffffffffffffffffffffffffffff1673ffffffffffffffffffffffffffffffffffffffff1681526020019081526020015f20819055506106c38061006a5f395ff3fe608060405234801561000f575f5ffd5b5060043610610060575f3560e01c806306fdde031461006457806318160ddd1461008257806323b872dd146100a0578063313ce567146100d057806370a08231146100ee57806395d89b411461011e575b5f5ffd5b61006c61013c565b604051610079919061043f565b60405180910390f35b61008a610175565b6040516100979190610477565b60405180910390f35b6100ba60048036038101906100b59190610518565b61017d565b6040516100c79190610582565b60405180910390f35b6100d861034b565b6040516100e591906105b6565b60405180910390f35b610108600480360381019061010391906105cf565b610350565b6040516101159190610477565b60405180910390f35b610126610396565b604051610133919061043f565b60405180910390f35b6040518060400160405280600781526020017f54435f436f696e0000000000000000000000000000000000000000000000000081525081565b5f5f54905090565b5f8160015f8673ffffffffffffffffffffffffffffffffffffffff1673ffffffffffffffffffffffffffffffffffffffff1681526020019081526020015f205410156101c7575f5ffd5b8160015f8673ffffffffffffffffffffffffffffffffffffffff1673ffffffffffffffffffffffffffffffffffffffff1681526020019081526020015f20546102109190610627565b60015f8673ffffffffffffffffffffffffffffffffffffffff1673ffffffffffffffffffffffffffffffffffffffff1681526020019081526020015f20819055508160015f8573ffffffffffffffffffffffffffffffffffffffff1673ffffffffffffffffffffffffffffffffffffffff1681526020019081526020015f205461029a919061065a565b60015f8573ffffffffffffffffffffffffffffffffffffffff1673ffffffffffffffffffffffffffffffffffffffff1681526020019081526020015f20819055508273ffffffffffffffffffffffffffffffffffffffff168473ffffffffffffffffffffffffffffffffffffffff167fddf252ad1be2c89b69c2b068fc378daa952ba7f163c4a11628f55a4df523b3ef846040516103389190610477565b60405180910390a3600190509392505050565b601281565b5f60015f8373ffffffffffffffffffffffffffffffffffffffff1673ffffffffffffffffffffffffffffffffffffffff1681526020019081526020015f20549050919050565b6040518060400160405280600381526020017f545443000000000000000000000000000000000000000000000000000000000081525081565b5f81519050919050565b5f82825260208201905092915050565b8281835e5f83830152505050565b5f601f19601f8301169050919050565b5f610411826103cf565b61041b81856103d9565b935061042b8185602086016103e9565b610434816103f7565b840191505092915050565b5f6020820190508181035f8301526104578184610407565b905092915050565b5f819050919050565b6104718161045f565b82525050565b5f60208201905061048a5f830184610468565b92915050565b5f5ffd5b5f73ffffffffffffffffffffffffffffffffffffffff82169050919050565b5f6104bd82610494565b9050919050565b6104cd816104b3565b81146104d7575f5ffd5b50565b5f813590506104e8816104c4565b92915050565b6104f78161045f565b8114610501575f5ffd5b50565b5f81359050610512816104ee565b92915050565b5f5f5f6060848603121561052f5761052e610490565b5b5f61053c868287016104da565b935050602061054d868287016104da565b925050604061055e86828701610504565b9150509250925092565b5f8115159050919050565b61057c81610568565b82525050565b5f6020820190506105955f830184610573565b92915050565b5f60ff82169050919050565b6105b08161059b565b82525050565b5f6020820190506105c95f8301846105a7565b92915050565b5f602082840312156105e4576105e3610490565b5b5f6105f1848285016104da565b91505092915050565b7f4e487b71000000000000000000000000000000000000000000000000000000005f52601160045260245ffd5b5f6106318261045f565b915061063c8361045f565b9250828203905081811115610654576106536105fa565b5b92915050565b5f6106648261045f565b915061066f8361045f565b9250828201905080821115610687576106866105fa565b5b9291505056fea26469706673582212208b64aa2ce6d96f153344569e0e832423c70e610b052145c912bff88bb5087a1264736f6c634300081c00336080604052348015600e575f5ffd5b50335f5f6101000a81548173ffffffffffffffffffffffffffffffffffffffff021916908373ffffffffffffffffffffffffffffffffffffffff1602179055506107e38061005b5f395ff3fe608060405234801561000f575f5ffd5b5060043610610055575f3560e01c806323b872dd146100595780636352211e1461007557806370a08231146100a5578063a9059cbb146100d5578063b95a51ee14610105575b5f5ffd5b610073600480360381019061006e91906104f5565b610121565b005b61008f600480360381019061008a9190610545565b610258565b60405161009c919061057f565b60405180910390f35b6100bf60048036038101906100ba9190610598565b610291565b6040516100cc91906105d2565b60405180910390f35b6100ef60048036038101906100ea91906105eb565b6102d7565b6040516100fc9190610643565b60405180910390f35b61011f600480360381019061011a919061065c565b610363565b005b8273ffffffffffffffffffffffffffffffffffffffff1661014182610258565b73ffffffffffffffffffffffffffffffffffffffff1614610160575f5ffd5b8160015f8381526020019081526020015f205f6101000a81548173ffffffffffffffffffffffffffffffffffffffff021916908373ffffffffffffffffffffffffffffffffffffffff16021790555060025f8473ffffffffffffffffffffffffffffffffffffffff1673ffffffffffffffffffffffffffffffffffffffff1681526020019081526020015f205f8154809291906101fc906106c7565b919050555060025f8373ffffffffffffffffffffffffffffffffffffffff1673ffffffffffffffffffffffffffffffffffffffff1681526020019081526020015f205f81548092919061024e906106ee565b9190505550505050565b5f60015f8381526020019081526020015f205f9054906101000a900473ffffffffffffffffffffffffffffffffffffffff169050919050565b5f60025f8373ffffffffffffffffffffffffffffffffffffffff1673ffffffffffffffffffffffffffffffffffffffff1681526020019081526020015f20549050919050565b5f6102e3338484610121565b8273ffffffffffffffffffffffffffffffffffffffff1661030383610258565b73ffffffffffffffffffffffffffffffffffffffff1614610359576040517f08c379a00000000000000000000000000000000000000000000000000000000081526004016103509061078f565b60405180910390fd5b6001905092915050565b5f60405180604001604052808481526020018381525090505f5f9054906101000a900473ffffffffffffffffffffffffffffffffffffffff1660015f835f015181526020019081526020015f205f6101000a81548173ffffffffffffffffffffffffffffffffffffffff021916908373ffffffffffffffffffffffffffffffffffffffff16021790555060025f5f5f9054906101000a900473ffffffffffffffffffffffffffffffffffffffff1673ffffffffffffffffffffffffffffffffffffffff1673ffffffffffffffffffffffffffffffffffffffff1681526020019081526020015f205f81548092919061045a906106ee565b9190505550505050565b5f5ffd5b5f73ffffffffffffffffffffffffffffffffffffffff82169050919050565b5f61049182610468565b9050919050565b6104a181610487565b81146104ab575f5ffd5b50565b5f813590506104bc81610498565b92915050565b5f819050919050565b6104d4816104c2565b81146104de575f5ffd5b50565b5f813590506104ef816104cb565b92915050565b5f5f5f6060848603121561050c5761050b610464565b5b5f610519868287016104ae565b935050602061052a868287016104ae565b925050604061053b868287016104e1565b9150509250925092565b5f6020828403121561055a57610559610464565b5b5f610567848285016104e1565b91505092915050565b61057981610487565b82525050565b5f6020820190506105925f830184610570565b92915050565b5f602082840312156105ad576105ac610464565b5b5f6105ba848285016104ae565b91505092915050565b6105cc816104c2565b82525050565b5f6020820190506105e55f8301846105c3565b92915050565b5f5f6040838503121561060157610600610464565b5b5f61060e858286016104ae565b925050602061061f858286016104e1565b9150509250929050565b5f8115159050919050565b61063d81610629565b82525050565b5f6020820190506106565f830184610634565b92915050565b5f5f6040838503121561067257610671610464565b5b5f61067f858286016104e1565b9250506020610690858286016104e1565b9150509250929050565b7f4e487b71000000000000000000000000000000000000000000000000000000005f52601160045260245ffd5b5f6106d1826104c2565b91505f82036106e3576106e261069a565b5b600182039050919050565b5f6106f8826104c2565b91507fffffffffffffffffffffffffffffffffffffffffffffffffffffffffffffffff820361072a5761072961069a565b5b600182019050919050565b5f82825260208201905092915050565b7f5472616e736c617465204661696c6564000000000000000000000000000000005f82015250565b5f610779601083610735565b915061078482610745565b602082019050919050565b5f6020820190508181035f8301526107a68161076d565b905091905056fea26469706673582212203991f262da8419e8f5eca63486ee06cce93d4af00f1e2e531068f664fec2e66b64736f6c634300081c0033","linkReferences":{}},"methodIdentifiers":{"balanceOf()":"722713f7","getE7balance()":"92afd355","getlogo(uint256)":"1f59eb1b","getowner(uint256)":"4845ae7a","getpool()":"cd9ab4a4","getprice(uint256)":"bf776928","getstore()":"57aada19","getstorehouse_A(uint256)":"c84a7ec3","getstorehouse_ID()":"eb3a0cfc","recharge(uint256)":"ef299b0b","repool()":"dae5fb8e","tran_pool()":"9f6c0cb3","tran_store(uint256)":"9e7e1079","upload(uint256,uint256)":"2a45571d"},"id":2}