{
  "_format": "hh-sol-artifact-1",
  "contractName": "LotteryFactory",
  "sourceName": "contracts/LotteryFactory.sol",
  "abi": [
    {
      "inputs": [],
      "stateMutability": "nonpayable",
      "type": "constructor"
    },
    {
      "inputs": [
        {
          "internalType": "address",
          "name": "owner",
          "type": "address"
        }
      ],
      "name": "OwnableInvalidOwner",
      "type": "error"
    },
    {
      "inputs": [
        {
          "internalType": "address",
          "name": "account",
          "type": "address"
        }
      ],
      "name": "OwnableUnauthorizedAccount",
      "type": "error"
    },
    {
      "anonymous": false,
      "inputs": [
        {
          "indexed": true,
          "internalType": "string",
          "name": "lotteryId",
          "type": "string"
        },
        {
          "indexed": true,
          "internalType": "address",
          "name": "instanceAddress",
          "type": "address"
        },
        {
          "indexed": true,
          "internalType": "address",
          "name": "owner",
          "type": "address"
        }
      ],
      "name": "LotteryInstanceCreated",
      "type": "event"
    },
    {
      "anonymous": false,
      "inputs": [
        {
          "indexed": true,
          "internalType": "address",
          "name": "previousOwner",
          "type": "address"
        },
        {
          "indexed": true,
          "internalType": "address",
          "name": "newOwner",
          "type": "address"
        }
      ],
      "name": "OwnershipTransferred",
      "type": "event"
    },
    {
      "inputs": [
        {
          "internalType": "string",
          "name": "_lotteryId",
          "type": "string"
        },
        {
          "internalType": "string",
          "name": "_lotteryName",
          "type": "string"
        },
        {
          "internalType": "uint256",
          "name": "_entryFee",
          "type": "uint256"
        },
        {
          "internalType": "uint256",
          "name": "_drawTime",
          "type": "uint256"
        }
      ],
      "name": "createLottery",
      "outputs": [],
      "stateMutability": "payable",
      "type": "function"
    },
    {
      "inputs": [],
      "name": "getAllLotteryIds",
      "outputs": [
        {
          "internalType": "string[]",
          "name": "",
          "type": "string[]"
        }
      ],
      "stateMutability": "view",
      "type": "function"
    },
    {
      "inputs": [
        {
          "internalType": "string",
          "name": "_lotteryId",
          "type": "string"
        }
      ],
      "name": "getLotteryInstanceAddress",
      "outputs": [
        {
          "internalType": "address",
          "name": "",
          "type": "address"
        }
      ],
      "stateMutability": "view",
      "type": "function"
    },
    {
      "inputs": [
        {
          "internalType": "uint256",
          "name": "",
          "type": "uint256"
        }
      ],
      "name": "lotteryIds",
      "outputs": [
        {
          "internalType": "string",
          "name": "",
          "type": "string"
        }
      ],
      "stateMutability": "view",
      "type": "function"
    },
    {
      "inputs": [
        {
          "internalType": "string",
          "name": "",
          "type": "string"
        }
      ],
      "name": "lotteryInstances",
      "outputs": [
        {
          "internalType": "address",
          "name": "",
          "type": "address"
        }
      ],
      "stateMutability": "view",
      "type": "function"
    },
    {
      "inputs": [],
      "name": "owner",
      "outputs": [
        {
          "internalType": "address",
          "name": "",
          "type": "address"
        }
      ],
      "stateMutability": "view",
      "type": "function"
    },
    {
      "inputs": [],
      "name": "renounceOwnership",
      "outputs": [],
      "stateMutability": "nonpayable",
      "type": "function"
    },
    {
      "inputs": [
        {
          "internalType": "address",
          "name": "newOwner",
          "type": "address"
        }
      ],
      "name": "transferOwnership",
      "outputs": [],
      "stateMutability": "nonpayable",
      "type": "function"
    }
  ],
  "bytecode": "0x608060405234801561001057600080fd5b5033600073ffffffffffffffffffffffffffffffffffffffff168173ffffffffffffffffffffffffffffffffffffffff16036100845760006040517f1e4fbdf700000000000000000000000000000000000000000000000000000000815260040161007b919061019e565b60405180910390fd5b6100938161009960201b60201c565b506101b9565b60008060009054906101000a900473ffffffffffffffffffffffffffffffffffffffff169050816000806101000a81548173ffffffffffffffffffffffffffffffffffffffff021916908373ffffffffffffffffffffffffffffffffffffffff1602179055508173ffffffffffffffffffffffffffffffffffffffff168173ffffffffffffffffffffffffffffffffffffffff167f8be0079c531659141344cd1fd0a4f28419497f9722a3daafe3b4186f6b6457e060405160405180910390a35050565b600073ffffffffffffffffffffffffffffffffffffffff82169050919050565b60006101888261015d565b9050919050565b6101988161017d565b82525050565b60006020820190506101b3600083018461018f565b92915050565b613b6e806101c86000396000f3fe60806040526004361061007b5760003560e01c80638da5cb5b1161004e5780638da5cb5b1461011b578063b3ce0ce514610146578063c9c628ab14610183578063f2fde38b146101c05761007b565b806356e7d93c146100805780636cc699971461009c5780636e1d6b8e146100c7578063715018a614610104575b600080fd5b61009a60048036038101906100959190610a30565b6101e9565b005b3480156100a857600080fd5b506100b1610467565b6040516100be9190610c10565b60405180910390f35b3480156100d357600080fd5b506100ee60048036038101906100e99190610c32565b610540565b6040516100fb9190610cbc565b60405180910390f35b34801561011057600080fd5b50610119610588565b005b34801561012757600080fd5b5061013061059c565b60405161013d9190610cbc565b60405180910390f35b34801561015257600080fd5b5061016d60048036038101906101689190610c32565b6105c5565b60405161017a9190610cbc565b60405180910390f35b34801561018f57600080fd5b506101aa60048036038101906101a59190610cd7565b61060e565b6040516101b79190610d4e565b60405180910390f35b3480156101cc57600080fd5b506101e760048036038101906101e29190610d9c565b6106ba565b005b600073ffffffffffffffffffffffffffffffffffffffff166001856040516102119190610e05565b908152602001604051809103902060009054906101000a900473ffffffffffffffffffffffffffffffffffffffff1673ffffffffffffffffffffffffffffffffffffffff1614610296576040517f08c379a000000000000000000000000000000000000000000000000000000000815260040161028d90610e68565b60405180910390fd5b4281116102d8576040517f08c379a00000000000000000000000000000000000000000000000000000000081526004016102cf90610ed4565b60405180910390fd5b600082101561031c576040517f08c379a000000000000000000000000000000000000000000000000000000000815260040161031390610f40565b60405180910390fd5b600034858585853360405161033090610893565b61033e959493929190610f6f565b6040518091039082f090508015801561035b573d6000803e3d6000fd5b5090508060018660405161036f9190610e05565b908152602001604051809103902060006101000a81548173ffffffffffffffffffffffffffffffffffffffff021916908373ffffffffffffffffffffffffffffffffffffffff1602179055506002859080600181540180825580915050600190039060005260206000200160009091909190915090816103ef91906111dc565b503373ffffffffffffffffffffffffffffffffffffffff168173ffffffffffffffffffffffffffffffffffffffff168660405161042c9190610e05565b60405180910390207f91042f5cc5dd3ed76d1acc1b8406718fd9f794c03e6190fe079970e76b6a857160405160405180910390a45050505050565b60606002805480602002602001604051908101604052809291908181526020016000905b828210156105375783829060005260206000200180546104aa90610fff565b80601f01602080910402602001604051908101604052809291908181526020018280546104d690610fff565b80156105235780601f106104f857610100808354040283529160200191610523565b820191906000526020600020905b81548152906001019060200180831161050657829003601f168201915b50505050508152602001906001019061048b565b50505050905090565b60006001826040516105529190610e05565b908152602001604051809103902060009054906101000a900473ffffffffffffffffffffffffffffffffffffffff169050919050565b610590610740565b61059a60006107c7565b565b60008060009054906101000a900473ffffffffffffffffffffffffffffffffffffffff16905090565b6001818051602081018201805184825260208301602085012081835280955050505050506000915054906101000a900473ffffffffffffffffffffffffffffffffffffffff1681565b6002818154811061061e57600080fd5b90600052602060002001600091509050805461063990610fff565b80601f016020809104026020016040519081016040528092919081815260200182805461066590610fff565b80156106b25780601f10610687576101008083540402835291602001916106b2565b820191906000526020600020905b81548152906001019060200180831161069557829003601f168201915b505050505081565b6106c2610740565b600073ffffffffffffffffffffffffffffffffffffffff168173ffffffffffffffffffffffffffffffffffffffff16036107345760006040517f1e4fbdf700000000000000000000000000000000000000000000000000000000815260040161072b9190610cbc565b60405180910390fd5b61073d816107c7565b50565b61074861088b565b73ffffffffffffffffffffffffffffffffffffffff1661076661059c565b73ffffffffffffffffffffffffffffffffffffffff16146107c55761078961088b565b6040517f118cdaa70000000000000000000000000000000000000000000000000000000081526004016107bc9190610cbc565b60405180910390fd5b565b60008060009054906101000a900473ffffffffffffffffffffffffffffffffffffffff169050816000806101000a81548173ffffffffffffffffffffffffffffffffffffffff021916908373ffffffffffffffffffffffffffffffffffffffff1602179055508173ffffffffffffffffffffffffffffffffffffffff168173ffffffffffffffffffffffffffffffffffffffff167f8be0079c531659141344cd1fd0a4f28419497f9722a3daafe3b4186f6b6457e060405160405180910390a35050565b600033905090565b61288a806112af83390190565b6000604051905090565b600080fd5b600080fd5b600080fd5b600080fd5b6000601f19601f8301169050919050565b7f4e487b7100000000000000000000000000000000000000000000000000000000600052604160045260246000fd5b610907826108be565b810181811067ffffffffffffffff82111715610926576109256108cf565b5b80604052505050565b60006109396108a0565b905061094582826108fe565b919050565b600067ffffffffffffffff821115610965576109646108cf565b5b61096e826108be565b9050602081019050919050565b82818337600083830152505050565b600061099d6109988461094a565b61092f565b9050828152602081018484840111156109b9576109b86108b9565b5b6109c484828561097b565b509392505050565b600082601f8301126109e1576109e06108b4565b5b81356109f184826020860161098a565b91505092915050565b6000819050919050565b610a0d816109fa565b8114610a1857600080fd5b50565b600081359050610a2a81610a04565b92915050565b60008060008060808587031215610a4a57610a496108aa565b5b600085013567ffffffffffffffff811115610a6857610a676108af565b5b610a74878288016109cc565b945050602085013567ffffffffffffffff811115610a9557610a946108af565b5b610aa1878288016109cc565b9350506040610ab287828801610a1b565b9250506060610ac387828801610a1b565b91505092959194509250565b600081519050919050565b600082825260208201905092915050565b6000819050602082019050919050565b600081519050919050565b600082825260208201905092915050565b60005b83811015610b35578082015181840152602081019050610b1a565b60008484015250505050565b6000610b4c82610afb565b610b568185610b06565b9350610b66818560208601610b17565b610b6f816108be565b840191505092915050565b6000610b868383610b41565b905092915050565b6000602082019050919050565b6000610ba682610acf565b610bb08185610ada565b935083602082028501610bc285610aeb565b8060005b85811015610bfe5784840389528151610bdf8582610b7a565b9450610bea83610b8e565b925060208a01995050600181019050610bc6565b50829750879550505050505092915050565b60006020820190508181036000830152610c2a8184610b9b565b905092915050565b600060208284031215610c4857610c476108aa565b5b600082013567ffffffffffffffff811115610c6657610c656108af565b5b610c72848285016109cc565b91505092915050565b600073ffffffffffffffffffffffffffffffffffffffff82169050919050565b6000610ca682610c7b565b9050919050565b610cb681610c9b565b82525050565b6000602082019050610cd16000830184610cad565b92915050565b600060208284031215610ced57610cec6108aa565b5b6000610cfb84828501610a1b565b91505092915050565b600082825260208201905092915050565b6000610d2082610afb565b610d2a8185610d04565b9350610d3a818560208601610b17565b610d43816108be565b840191505092915050565b60006020820190508181036000830152610d688184610d15565b905092915050565b610d7981610c9b565b8114610d8457600080fd5b50565b600081359050610d9681610d70565b92915050565b600060208284031215610db257610db16108aa565b5b6000610dc084828501610d87565b91505092915050565b600081905092915050565b6000610ddf82610afb565b610de98185610dc9565b9350610df9818560208601610b17565b80840191505092915050565b6000610e118284610dd4565b915081905092915050565b7fe68abde5a59620494420e5b7b2e8a2abe4bdbfe794a800000000000000000000600082015250565b6000610e52601683610d04565b9150610e5d82610e1c565b602082019050919050565b60006020820190508181036000830152610e8181610e45565b9050919050565b7fe5bc80e5a596e697b6e997b4e5bf85e9a1bbe59ca8e69caae69da50000000000600082015250565b6000610ebe601b83610d04565b9150610ec982610e88565b602082019050919050565b60006020820190508181036000830152610eed81610eb1565b9050919050565b7fe585a5e59cbae8b4b9e4b88de883bde4b8bae8b49fe695b00000000000000000600082015250565b6000610f2a601883610d04565b9150610f3582610ef4565b602082019050919050565b60006020820190508181036000830152610f5981610f1d565b9050919050565b610f69816109fa565b82525050565b600060a0820190508181036000830152610f898188610d15565b90508181036020830152610f9d8187610d15565b9050610fac6040830186610f60565b610fb96060830185610f60565b610fc66080830184610cad565b9695505050505050565b7f4e487b7100000000000000000000000000000000000000000000000000000000600052602260045260246000fd5b6000600282049050600182168061101757607f821691505b60208210810361102a57611029610fd0565b5b50919050565b60008190508160005260206000209050919050565b60006020601f8301049050919050565b600082821b905092915050565b6000600883026110927fffffffffffffffffffffffffffffffffffffffffffffffffffffffffffffffff82611055565b61109c8683611055565b95508019841693508086168417925050509392505050565b6000819050919050565b60006110d96110d46110cf846109fa565b6110b4565b6109fa565b9050919050565b6000819050919050565b6110f3836110be565b6111076110ff826110e0565b848454611062565b825550505050565b600090565b61111c61110f565b6111278184846110ea565b505050565b5b8181101561114b57611140600082611114565b60018101905061112d565b5050565b601f8211156111905761116181611030565b61116a84611045565b81016020851015611179578190505b61118d61118585611045565b83018261112c565b50505b505050565b600082821c905092915050565b60006111b360001984600802611195565b1980831691505092915050565b60006111cc83836111a2565b9150826002028217905092915050565b6111e582610afb565b67ffffffffffffffff8111156111fe576111fd6108cf565b5b6112088254610fff565b61121382828561114f565b600060209050601f8311600181146112465760008415611234578287015190505b61123e85826111c0565b8655506112a6565b601f19841661125486611030565b60005b8281101561127c57848901518255600182019150602085019450602081019050611257565b868310156112995784890151611295601f8916826111a2565b8355505b6001600288020188555050505b50505050505056fe608060405260405161288a38038061288a83398181016040528101906100259190610495565b80600073ffffffffffffffffffffffffffffffffffffffff168173ffffffffffffffffffffffffffffffffffffffff16036100985760006040517f1e4fbdf700000000000000000000000000000000000000000000000000000000815260040161008f9190610557565b60405180910390fd5b6100a7816101c860201b60201c565b5084600190816100b79190610789565b5083600290816100c79190610789565b5082600381905550816009819055506000600a60006101000a81548160ff021916908360038111156100fc576100fb61085b565b5b0217905550346006819055508073ffffffffffffffffffffffffffffffffffffffff168560405161012d91906108c6565b60405180910390207f09b01cca52945b4bbf43b464de9abfc8c99492e590ebb0133727a6dc7d225f4a86868660405161016893929190610936565b60405180910390a38460405161017e91906108c6565b60405180910390207f6c532347b92eb8567b91ea89b73bb409279dc66588e272b625ee3e379ca33d5560006040516101b691906109bc565b60405180910390a250505050506109d7565b60008060009054906101000a900473ffffffffffffffffffffffffffffffffffffffff169050816000806101000a81548173ffffffffffffffffffffffffffffffffffffffff021916908373ffffffffffffffffffffffffffffffffffffffff1602179055508173ffffffffffffffffffffffffffffffffffffffff168173ffffffffffffffffffffffffffffffffffffffff167f8be0079c531659141344cd1fd0a4f28419497f9722a3daafe3b4186f6b6457e060405160405180910390a35050565b6000604051905090565b600080fd5b600080fd5b600080fd5b600080fd5b6000601f19601f8301169050919050565b7f4e487b7100000000000000000000000000000000000000000000000000000000600052604160045260246000fd5b6102f3826102aa565b810181811067ffffffffffffffff82111715610312576103116102bb565b5b80604052505050565b600061032561028c565b905061033182826102ea565b919050565b600067ffffffffffffffff821115610351576103506102bb565b5b61035a826102aa565b9050602081019050919050565b60005b8381101561038557808201518184015260208101905061036a565b60008484015250505050565b60006103a461039f84610336565b61031b565b9050828152602081018484840111156103c0576103bf6102a5565b5b6103cb848285610367565b509392505050565b600082601f8301126103e8576103e76102a0565b5b81516103f8848260208601610391565b91505092915050565b6000819050919050565b61041481610401565b811461041f57600080fd5b50565b6000815190506104318161040b565b92915050565b600073ffffffffffffffffffffffffffffffffffffffff82169050919050565b600061046282610437565b9050919050565b61047281610457565b811461047d57600080fd5b50565b60008151905061048f81610469565b92915050565b600080600080600060a086880312156104b1576104b0610296565b5b600086015167ffffffffffffffff8111156104cf576104ce61029b565b5b6104db888289016103d3565b955050602086015167ffffffffffffffff8111156104fc576104fb61029b565b5b610508888289016103d3565b945050604061051988828901610422565b935050606061052a88828901610422565b925050608061053b88828901610480565b9150509295509295909350565b61055181610457565b82525050565b600060208201905061056c6000830184610548565b92915050565b600081519050919050565b7f4e487b7100000000000000000000000000000000000000000000000000000000600052602260045260246000fd5b600060028204905060018216806105c457607f821691505b6020821081036105d7576105d661057d565b5b50919050565b60008190508160005260206000209050919050565b60006020601f8301049050919050565b600082821b905092915050565b60006008830261063f7fffffffffffffffffffffffffffffffffffffffffffffffffffffffffffffffff82610602565b6106498683610602565b95508019841693508086168417925050509392505050565b6000819050919050565b600061068661068161067c84610401565b610661565b610401565b9050919050565b6000819050919050565b6106a08361066b565b6106b46106ac8261068d565b84845461060f565b825550505050565b600090565b6106c96106bc565b6106d4818484610697565b505050565b5b818110156106f8576106ed6000826106c1565b6001810190506106da565b5050565b601f82111561073d5761070e816105dd565b610717846105f2565b81016020851015610726578190505b61073a610732856105f2565b8301826106d9565b50505b505050565b600082821c905092915050565b600061076060001984600802610742565b1980831691505092915050565b6000610779838361074f565b9150826002028217905092915050565b61079282610572565b67ffffffffffffffff8111156107ab576107aa6102bb565b5b6107b582546105ac565b6107c08282856106fc565b600060209050601f8311600181146107f357600084156107e1578287015190505b6107eb858261076d565b865550610853565b601f198416610801866105dd565b60005b8281101561082957848901518255600182019150602085019450602081019050610804565b868310156108465784890151610842601f89168261074f565b8355505b6001600288020188555050505b505050505050565b7f4e487b7100000000000000000000000000000000000000000000000000000000600052602160045260246000fd5b600081905092915050565b60006108a082610572565b6108aa818561088a565b93506108ba818560208601610367565b80840191505092915050565b60006108d28284610895565b915081905092915050565b600082825260208201905092915050565b60006108f982610572565b61090381856108dd565b9350610913818560208601610367565b61091c816102aa565b840191505092915050565b61093081610401565b82525050565b6000606082019050818103600083015261095081866108ee565b905061095f6020830185610927565b61096c6040830184610927565b949350505050565b600481106109855761098461085b565b5b50565b600081905061099682610974565b919050565b60006109a682610988565b9050919050565b6109b68161099b565b82525050565b60006020820190506109d160008301846109ad565b92915050565b611ea4806109e66000396000f3fe6080604052600436106101395760003560e01c8063719ce73e116100ab578063b7a8807c1161006f578063b7a8807c146103d1578063d337616e146103fc578063dfbf53ae14610413578063e580f47b1461043e578063e97dcb6214610469578063f2fde38b1461047357610140565b8063719ce73e1461030e578063884bf67c146103395780638da5cb5b146103645780638e7ea5b21461038f578063b2185bb1146103ba57610140565b80634b6753bc116100fd5780634b6753bc146102345780635aa68ac01461025f57806361aa85771461028a5780636b68c03c146102b557806370740ac9146102e0578063715018a6146102f757610140565b8063072ea61c1461014557806323d141491461017057806324ac60a71461019b57806327a360d1146101c657806335c1d349146101f757610140565b3661014057005b600080fd5b34801561015157600080fd5b5061015a61049c565b60405161016791906112cd565b60405180910390f35b34801561017c57600080fd5b506101856104a2565b6040516101929190611378565b60405180910390f35b3480156101a757600080fd5b506101b0610530565b6040516101bd91906112cd565b60405180910390f35b3480156101d257600080fd5b506101db610536565b6040516101ee9796959493929190611452565b60405180910390f35b34801561020357600080fd5b5061021e600480360381019061021991906114f9565b61059b565b60405161022b9190611526565b60405180910390f35b34801561024057600080fd5b506102496105da565b60405161025691906112cd565b60405180910390f35b34801561026b57600080fd5b506102746105e0565b60405161028191906115ff565b60405180910390f35b34801561029657600080fd5b5061029f61066e565b6040516102ac9190611621565b60405180910390f35b3480156102c157600080fd5b506102ca610681565b6040516102d79190611621565b60405180910390f35b3480156102ec57600080fd5b506102f5610698565b005b34801561030357600080fd5b5061030c610976565b005b34801561031a57600080fd5b5061032361098a565b60405161033091906112cd565b60405180910390f35b34801561034557600080fd5b5061034e610990565b60405161035b91906112cd565b60405180910390f35b34801561037057600080fd5b50610379610998565b6040516103869190611526565b60405180910390f35b34801561039b57600080fd5b506103a46109c1565b6040516103b19190611526565b60405180910390f35b3480156103c657600080fd5b506103cf6109eb565b005b3480156103dd57600080fd5b506103e6610d3e565b6040516103f391906112cd565b60405180910390f35b34801561040857600080fd5b50610411610d44565b005b34801561041f57600080fd5b50610428610e13565b6040516104359190611526565b60405180910390f35b34801561044a57600080fd5b50610453610e39565b6040516104609190611378565b60405180910390f35b610471610ec7565b005b34801561047f57600080fd5b5061049a60048036038101906104959190611668565b61109d565b005b60035481565b600280546104af906116c4565b80601f01602080910402602001604051908101604052809291908181526020018280546104db906116c4565b80156105285780601f106104fd57610100808354040283529160200191610528565b820191906000526020600020905b81548152906001019060200180831161050b57829003601f168201915b505050505081565b60095481565b60606000806000806000808661054a610998565b60035460095447600a60009054906101000a900460ff16600560009054906101000a900473ffffffffffffffffffffffffffffffffffffffff16965096509650965096509650965090919293949596565b600481815481106105ab57600080fd5b906000526020600020016000915054906101000a900473ffffffffffffffffffffffffffffffffffffffff1681565b60085481565b6060600480548060200260200160405190810160405280929190818152602001828054801561066457602002820191906000526020600020905b8160009054906101000a900473ffffffffffffffffffffffffffffffffffffffff1673ffffffffffffffffffffffffffffffffffffffff168152602001906001019080831161061a575b5050505050905090565b600a60009054906101000a900460ff1681565b6000600a60009054906101000a900460ff16905090565b600560009054906101000a900473ffffffffffffffffffffffffffffffffffffffff1673ffffffffffffffffffffffffffffffffffffffff163373ffffffffffffffffffffffffffffffffffffffff1614610728576040517f08c379a000000000000000000000000000000000000000000000000000000000815260040161071f90611767565b60405180910390fd5b6002600381111561073c5761073b6113db565b5b600a60009054906101000a900460ff16600381111561075e5761075d6113db565b5b1461079e576040517f08c379a0000000000000000000000000000000000000000000000000000000008152600401610795906117d3565b60405180910390fd5b60004790506000600560009054906101000a900473ffffffffffffffffffffffffffffffffffffffff1673ffffffffffffffffffffffffffffffffffffffff16826040516107eb90611824565b60006040518083038185875af1925050503d8060008114610828576040519150601f19603f3d011682016040523d82523d6000602084013e61082d565b606091505b5050905080610871576040517f08c379a000000000000000000000000000000000000000000000000000000000815260040161086890611885565b60405180910390fd5b600560009054906101000a900473ffffffffffffffffffffffffffffffffffffffff1673ffffffffffffffffffffffffffffffffffffffff1660016040516108b99190611948565b60405180910390207f314c5e9b289951079edff32c7d5735269c32d107a251b34ea3da6060161bcfd5846040516108f091906112cd565b60405180910390a36003600a60006101000a81548160ff0219169083600381111561091e5761091d6113db565b5b021790555060016040516109329190611948565b60405180910390207f6c532347b92eb8567b91ea89b73bb409279dc66588e272b625ee3e379ca33d55600360405161096a9190611621565b60405180910390a25050565b61097e611123565b61098860006111aa565b565b60065481565b600047905090565b60008060009054906101000a900473ffffffffffffffffffffffffffffffffffffffff16905090565b6000600560009054906101000a900473ffffffffffffffffffffffffffffffffffffffff16905090565b6109f3611123565b60006003811115610a0757610a066113db565b5b600a60009054906101000a900460ff166003811115610a2957610a286113db565b5b14610a69576040517f08c379a0000000000000000000000000000000000000000000000000000000008152600401610a60906119d1565b60405180910390fd5b600954421015610aae576040517f08c379a0000000000000000000000000000000000000000000000000000000008152600401610aa590611a63565b60405180910390fd5b600060048054905011610af6576040517f08c379a0000000000000000000000000000000000000000000000000000000008152600401610aed90611acf565b60405180910390fd5b6001600a60006101000a81548160ff02191690836003811115610b1c57610b1b6113db565b5b02179055506001604051610b309190611948565b60405180910390207f6c532347b92eb8567b91ea89b73bb409279dc66588e272b625ee3e379ca33d556001604051610b689190611621565b60405180910390a26000600480549050424460048054905033604051602001610b949493929190611b58565b6040516020818303038152906040528051906020012060001c610bb79190611bd5565b905060048181548110610bcd57610bcc611c06565b5b9060005260206000200160009054906101000a900473ffffffffffffffffffffffffffffffffffffffff16600560006101000a81548173ffffffffffffffffffffffffffffffffffffffff021916908373ffffffffffffffffffffffffffffffffffffffff160217905550600560009054906101000a900473ffffffffffffffffffffffffffffffffffffffff1673ffffffffffffffffffffffffffffffffffffffff166001604051610c809190611948565b60405180910390207f3908bf456fbdc97b7f7f7c4842166b5eacaf5abdbb59e6b9062ba7052970e51f600654604051610cb991906112cd565b60405180910390a36002600a60006101000a81548160ff02191690836003811115610ce757610ce66113db565b5b02179055506001604051610cfb9190611948565b60405180910390207f6c532347b92eb8567b91ea89b73bb409279dc66588e272b625ee3e379ca33d556002604051610d339190611621565b60405180910390a250565b60075481565b610d4c611123565b600380811115610d5f57610d5e6113db565b5b600a60009054906101000a900460ff166003811115610d8157610d806113db565b5b14610dc1576040517f08c379a0000000000000000000000000000000000000000000000000000000008152600401610db890611c81565b60405180910390fd5b60046000610dcf9190611276565b6000600560006101000a81548173ffffffffffffffffffffffffffffffffffffffff021916908373ffffffffffffffffffffffffffffffffffffffff160217905550565b600560009054906101000a900473ffffffffffffffffffffffffffffffffffffffff1681565b60018054610e46906116c4565b80601f0160208091040260200160405190810160405280929190818152602001828054610e72906116c4565b8015610ebf5780601f10610e9457610100808354040283529160200191610ebf565b820191906000526020600020905b815481529060010190602001808311610ea257829003601f168201915b505050505081565b60006003811115610edb57610eda6113db565b5b600a60009054906101000a900460ff166003811115610efd57610efc6113db565b5b14610f3d576040517f08c379a0000000000000000000000000000000000000000000000000000000008152600401610f3490611ced565b60405180910390fd5b6009544210610f81576040517f08c379a0000000000000000000000000000000000000000000000000000000008152600401610f7890611d7f565b60405180910390fd5b6003543414610fc5576040517f08c379a0000000000000000000000000000000000000000000000000000000008152600401610fbc90611deb565b60405180910390fd5b6004339080600181540180825580915050600190039060005260206000200160009091909190916101000a81548173ffffffffffffffffffffffffffffffffffffffff021916908373ffffffffffffffffffffffffffffffffffffffff160217905550346006600082825461103a9190611e3a565b925050819055503373ffffffffffffffffffffffffffffffffffffffff1660016040516110679190611948565b60405180910390207fd98357f837e8c4e2ebe60e48ae9f24044635751d42893cc1b5a985ad79f3be9f60405160405180910390a3565b6110a5611123565b600073ffffffffffffffffffffffffffffffffffffffff168173ffffffffffffffffffffffffffffffffffffffff16036111175760006040517f1e4fbdf700000000000000000000000000000000000000000000000000000000815260040161110e9190611526565b60405180910390fd5b611120816111aa565b50565b61112b61126e565b73ffffffffffffffffffffffffffffffffffffffff16611149610998565b73ffffffffffffffffffffffffffffffffffffffff16146111a85761116c61126e565b6040517f118cdaa700000000000000000000000000000000000000000000000000000000815260040161119f9190611526565b60405180910390fd5b565b60008060009054906101000a900473ffffffffffffffffffffffffffffffffffffffff169050816000806101000a81548173ffffffffffffffffffffffffffffffffffffffff021916908373ffffffffffffffffffffffffffffffffffffffff1602179055508173ffffffffffffffffffffffffffffffffffffffff168173ffffffffffffffffffffffffffffffffffffffff167f8be0079c531659141344cd1fd0a4f28419497f9722a3daafe3b4186f6b6457e060405160405180910390a35050565b600033905090565b50805460008255906000526020600020908101906112949190611297565b50565b5b808211156112b0576000816000905550600101611298565b5090565b6000819050919050565b6112c7816112b4565b82525050565b60006020820190506112e260008301846112be565b92915050565b600081519050919050565b600082825260208201905092915050565b60005b83811015611322578082015181840152602081019050611307565b60008484015250505050565b6000601f19601f8301169050919050565b600061134a826112e8565b61135481856112f3565b9350611364818560208601611304565b61136d8161132e565b840191505092915050565b60006020820190508181036000830152611392818461133f565b905092915050565b600073ffffffffffffffffffffffffffffffffffffffff82169050919050565b60006113c58261139a565b9050919050565b6113d5816113ba565b82525050565b7f4e487b7100000000000000000000000000000000000000000000000000000000600052602160045260246000fd5b6004811061141b5761141a6113db565b5b50565b600081905061142c8261140a565b919050565b600061143c8261141e565b9050919050565b61144c81611431565b82525050565b600060e082019050818103600083015261146c818a61133f565b905061147b60208301896113cc565b61148860408301886112be565b61149560608301876112be565b6114a260808301866112be565b6114af60a0830185611443565b6114bc60c08301846113cc565b98975050505050505050565b600080fd5b6114d6816112b4565b81146114e157600080fd5b50565b6000813590506114f3816114cd565b92915050565b60006020828403121561150f5761150e6114c8565b5b600061151d848285016114e4565b91505092915050565b600060208201905061153b60008301846113cc565b92915050565b600081519050919050565b600082825260208201905092915050565b6000819050602082019050919050565b611576816113ba565b82525050565b6000611588838361156d565b60208301905092915050565b6000602082019050919050565b60006115ac82611541565b6115b6818561154c565b93506115c18361155d565b8060005b838110156115f25781516115d9888261157c565b97506115e483611594565b9250506001810190506115c5565b5085935050505092915050565b6000602082019050818103600083015261161981846115a1565b905092915050565b60006020820190506116366000830184611443565b92915050565b611645816113ba565b811461165057600080fd5b50565b6000813590506116628161163c565b92915050565b60006020828403121561167e5761167d6114c8565b5b600061168c84828501611653565b91505092915050565b7f4e487b7100000000000000000000000000000000000000000000000000000000600052602260045260246000fd5b600060028204905060018216806116dc57607f821691505b6020821081036116ef576116ee611695565b5b50919050565b7fe58faae69c89e4b8ade5a596e88085e6898de883bde9a286e58f96e5a596e98760008201527f9100000000000000000000000000000000000000000000000000000000000000602082015250565b60006117516021836112f3565b915061175c826116f5565b604082019050919050565b6000602082019050818103600083015261178081611744565b9050919050565b7fe5a596e98791e5bd93e5898de4b88de58fafe9a286e58f960000000000000000600082015250565b60006117bd6018836112f3565b91506117c882611787565b602082019050919050565b600060208201905081810360008301526117ec816117b0565b9050919050565b600081905092915050565b50565b600061180e6000836117f3565b9150611819826117fe565b600082019050919050565b600061182f82611801565b9150819050919050565b7fe5a596e98791e8bdace8b4a6e5a4b1e8b4a50000000000000000000000000000600082015250565b600061186f6012836112f3565b915061187a82611839565b602082019050919050565b6000602082019050818103600083015261189e81611862565b9050919050565b600081905092915050565b60008190508160005260206000209050919050565b600081546118d2816116c4565b6118dc81866118a5565b945060018216600081146118f7576001811461190c5761193f565b60ff198316865281151582028601935061193f565b611915856118b0565b60005b8381101561193757815481890152600182019150602081019050611918565b838801955050505b50505092915050565b600061195482846118c5565b915081905092915050565b7fe68abde5a596e69caae5bc80e694bee68896e69caae588b0e5bc80e5a596e69760008201527fb6e997b400000000000000000000000000000000000000000000000000000000602082015250565b60006119bb6024836112f3565b91506119c68261195f565b604082019050919050565b600060208201905081810360008301526119ea816119ae565b9050919050565b7fe69caae588b0e5bc80e5a596e697b6e997b4efbc8ce697a0e6b395e5bc80e5a560008201527f9600000000000000000000000000000000000000000000000000000000000000602082015250565b6000611a4d6021836112f3565b9150611a58826119f1565b604082019050919050565b60006020820190508181036000830152611a7c81611a40565b9050919050565b7fe6b2a1e69c89e58f82e4b88ee88085efbc8ce697a0e6b395e5bc80e5a5960000600082015250565b6000611ab9601e836112f3565b9150611ac482611a83565b602082019050919050565b60006020820190508181036000830152611ae881611aac565b9050919050565b6000819050919050565b611b0a611b05826112b4565b611aef565b82525050565b60008160601b9050919050565b6000611b2882611b10565b9050919050565b6000611b3a82611b1d565b9050919050565b611b52611b4d826113ba565b611b2f565b82525050565b6000611b648287611af9565b602082019150611b748286611af9565b602082019150611b848285611af9565b602082019150611b948284611b41565b60148201915081905095945050505050565b7f4e487b7100000000000000000000000000000000000000000000000000000000600052601260045260246000fd5b6000611be0826112b4565b9150611beb836112b4565b925082611bfb57611bfa611ba6565b5b828206905092915050565b7f4e487b7100000000000000000000000000000000000000000000000000000000600052603260045260246000fd5b7fe68abde5a596e69caae7bb93e69d9fefbc8ce697a0e6b395e9878de7bdae0000600082015250565b6000611c6b601e836112f3565b9150611c7682611c35565b602082019050919050565b60006020820190508181036000830152611c9a81611c5e565b9050919050565b7fe5bd93e5898de68abde5a596e69caae5bc80e694bee58f82e4b88e0000000000600082015250565b6000611cd7601b836112f3565b9150611ce282611ca1565b602082019050919050565b60006020820190508181036000830152611d0681611cca565b9050919050565b7fe5b7b2e588b0e5bc80e5a596e697b6e997b4efbc8ce697a0e6b395e58f82e4b860008201527f8e00000000000000000000000000000000000000000000000000000000000000602082015250565b6000611d696021836112f3565b9150611d7482611d0d565b604082019050919050565b60006020820190508181036000830152611d9881611d5c565b9050919050565b7fe694afe4bb98e79a84e585a5e59cbae8b4b9e4b88de6ada3e7a1ae0000000000600082015250565b6000611dd5601b836112f3565b9150611de082611d9f565b602082019050919050565b60006020820190508181036000830152611e0481611dc8565b9050919050565b7f4e487b7100000000000000000000000000000000000000000000000000000000600052601160045260246000fd5b6000611e45826112b4565b9150611e50836112b4565b9250828201905080821115611e6857611e67611e0b565b5b9291505056fea26469706673582212205d053788197e35929c0f6f3b357673edd2e2e6eb4adddc1806e49250c84f245d64736f6c634300081c0033a2646970667358221220c3c980abc452adad0eece203ed63693d13ebf7cf9fe253270e85449d83e6007b64736f6c634300081c0033",
  "linkReferences": {},
  "deployedLinkReferences": {}
}