{"contracts/ContractVerifier.sol":{"ContractVerifier":{"abi":[{"inputs":[],"stateMutability":"nonpayable","type":"constructor"},{"anonymous":false,"inputs":[{"indexed":true,"internalType":"uint256","name":"contractId","type":"uint256"},{"indexed":true,"internalType":"address","name":"user","type":"address"}],"name":"ContractAccessGranted","type":"event"},{"anonymous":false,"inputs":[{"indexed":true,"internalType":"uint256","name":"contractId","type":"uint256"},{"indexed":true,"internalType":"address","name":"user","type":"address"}],"name":"ContractAccessRevoked","type":"event"},{"anonymous":false,"inputs":[{"indexed":true,"internalType":"uint256","name":"contractId","type":"uint256"},{"indexed":false,"internalType":"bytes32","name":"fileHash","type":"bytes32"},{"indexed":true,"internalType":"address","name":"uploader","type":"address"}],"name":"ContractUploaded","type":"event"},{"anonymous":false,"inputs":[{"indexed":true,"internalType":"address","name":"user","type":"address"},{"indexed":false,"internalType":"string","name":"role","type":"string"},{"indexed":false,"internalType":"string","name":"departmentId","type":"string"}],"name":"RoleAssigned","type":"event"},{"inputs":[{"internalType":"address","name":"user","type":"address"}],"name":"assignUserRole","outputs":[],"stateMutability":"nonpayable","type":"function"},{"inputs":[{"internalType":"uint256","name":"contractId","type":"uint256"},{"internalType":"address","name":"user","type":"address"}],"name":"canAccessContract","outputs":[{"internalType":"bool","name":"","type":"bool"}],"stateMutability":"view","type":"function"},{"inputs":[{"internalType":"uint256","name":"contractId","type":"uint256"}],"name":"getContractMeta","outputs":[{"components":[{"internalType":"string","name":"contractType","type":"string"},{"internalType":"address[]","name":"allowedViewers","type":"address[]"}],"internalType":"struct IContractVerifier.ContractMeta","name":"","type":"tuple"}],"stateMutability":"view","type":"function"},{"inputs":[{"internalType":"uint256","name":"contractId","type":"uint256"},{"internalType":"uint256","name":"version","type":"uint256"}],"name":"getHistory","outputs":[{"components":[{"internalType":"bytes32","name":"fileHash","type":"bytes32"},{"internalType":"address","name":"uploader","type":"address"},{"internalType":"uint256","name":"timestamp","type":"uint256"},{"internalType":"string","name":"remark","type":"string"}],"internalType":"struct IContractVerifier.ContractVersion","name":"","type":"tuple"}],"stateMutability":"view","type":"function"},{"inputs":[{"internalType":"uint256","name":"contractId","type":"uint256"}],"name":"getHistoryCount","outputs":[{"internalType":"uint256","name":"","type":"uint256"}],"stateMutability":"view","type":"function"},{"inputs":[{"internalType":"uint256","name":"contractId","type":"uint256"}],"name":"getLatestHash","outputs":[{"internalType":"bytes32","name":"","type":"bytes32"}],"stateMutability":"view","type":"function"},{"inputs":[{"internalType":"address","name":"uploader","type":"address"}],"name":"getUploaderHistory","outputs":[{"internalType":"uint256[]","name":"","type":"uint256[]"}],"stateMutability":"view","type":"function"},{"inputs":[{"internalType":"address","name":"user","type":"address"}],"name":"getUserInfo","outputs":[{"components":[{"internalType":"string","name":"role","type":"string"},{"internalType":"string","name":"departmentId","type":"string"}],"internalType":"struct IContractVerifier.UserInfo","name":"","type":"tuple"}],"stateMutability":"view","type":"function"},{"inputs":[{"internalType":"uint256","name":"contractId","type":"uint256"},{"internalType":"address","name":"user","type":"address"}],"name":"grantAccessToContract","outputs":[],"stateMutability":"nonpayable","type":"function"},{"inputs":[{"internalType":"bytes32","name":"fileHash","type":"bytes32"}],"name":"isHashExists","outputs":[{"internalType":"bool","name":"","type":"bool"}],"stateMutability":"view","type":"function"},{"inputs":[],"name":"owner","outputs":[{"internalType":"address","name":"","type":"address"}],"stateMutability":"view","type":"function"},{"inputs":[{"internalType":"uint256","name":"contractId","type":"uint256"},{"internalType":"address","name":"user","type":"address"}],"name":"revokeAccessFromContract","outputs":[],"stateMutability":"nonpayable","type":"function"},{"inputs":[{"internalType":"uint256","name":"contractId","type":"uint256"},{"internalType":"bytes32","name":"fileHash","type":"bytes32"},{"internalType":"string","name":"remark","type":"string"},{"internalType":"string","name":"contractType","type":"string"}],"name":"uploadContract","outputs":[],"stateMutability":"nonpayable","type":"function"}],"evm":{"assembly":"// RO data = 0/0 bytes\n// RW data = 240/65792 bytes\n// Stack size = 16384 bytes\n\n// Instructions = 11228\n// Code size = 39836 bytes\n\n      : @0 (gas: 2)\n     0: i32 a2 = a0 >> 0x10\n     3: jump @6 if a2 != 0\n      : @1 (gas: 2)\n     6: a2 = 0x10001\n    11: jump @6 if a1 >=u a2\n      : @2 (gas: 4)\n    14: a1 = a1 + a0\n    17: i32 a1 = a1 + 0x1f\n    20: a1 = a1 & 0xffffffffffffffe0\n    23: jump @7 if a1 >=u 65537\n      : @3 (gas: 2)\n    29: a3 = i32 [0x200f0]\n    34: jump @5 if a3 >=u a1\n      : @4 (gas: 4)\n    37: u32 [0x200f0] = a1\n    42: a1 = 0x20100\n    47: a0 = a0 + a1\n    50: ret\n      : @5 (gas: 3)\n    52: a1 = 0x20100\n    57: a0 = a0 + a1\n    60: ret\n      : @6 (gas: 1)\n    62: trap\n      : @7 (gas: 1)\n    63: trap\n      : @8 (gas: 2)\n    64: a1 = i32 [0x200f8]\n    69: jump @35 if a1 == 0\n      : @9 (gas: 4)\n    73: a0 = 0x30100\n    78: i32 a0 = a0 + 0\n    80: ecalli 9 // 'set_immutable_data'\n    82: jump @35\n      : @10 (gas: 7)\n    85: sp = sp + 0xfffffffffffffff0\n    88: u64 [sp + 0x8] = ra\n    91: u64 [sp] = s0\n    93: s0 = a0\n    95: i32 a0 = a1 + 0\n    97: a1 = 0x20\n   100: ra = 2, jump @0\n      : @11 [@dyn 1] (gas: 100)\n   104: a1 = u8 [a0 + 0x1]\n   107: a2 = u8 [a0]\n   109: a3 = u8 [a0 + 0x2]\n   112: a4 = u8 [a0 + 0x3]\n   115: a1 = a1 << 0x8\n   118: a1 = a1 | a2\n   121: a3 = a3 << 0x10\n   124: a4 = a4 << 0x18\n   127: a3 = a3 | a4\n   130: a1 = a1 | a3\n   133: a2 = u8 [a0 + 0x5]\n   136: a3 = u8 [a0 + 0x4]\n   139: a4 = u8 [a0 + 0x6]\n   142: a5 = u8 [a0 + 0x7]\n   145: a2 = a2 << 0x8\n   148: a2 = a2 | a3\n   151: a4 = a4 << 0x10\n   154: a5 = a5 << 0x18\n   157: a4 = a4 | a5\n   160: a2 = a2 | a4\n   163: a2 = a2 << 0x20\n   166: t0 = a2 | a1\n   169: a2 = u8 [a0 + 0x9]\n   172: a3 = u8 [a0 + 0x8]\n   175: a4 = u8 [a0 + 0xa]\n   178: a5 = u8 [a0 + 0xb]\n   181: a2 = a2 << 0x8\n   184: a2 = a2 | a3\n   187: a4 = a4 << 0x10\n   190: a5 = a5 << 0x18\n   193: a4 = a4 | a5\n   196: a2 = a2 | a4\n   199: a3 = u8 [a0 + 0xd]\n   202: a4 = u8 [a0 + 0xc]\n   205: a5 = u8 [a0 + 0xe]\n   208: a1 = u8 [a0 + 0xf]\n   211: a3 = a3 << 0x8\n   214: a3 = a3 | a4\n   217: a5 = a5 << 0x10\n   220: a1 = a1 << 0x18\n   223: a1 = a1 | a5\n   226: a1 = a1 | a3\n   229: a1 = a1 << 0x20\n   232: t1 = a1 | a2\n   235: a1 = u8 [a0 + 0x11]\n   238: a3 = u8 [a0 + 0x10]\n   241: a4 = u8 [a0 + 0x12]\n   244: a5 = u8 [a0 + 0x13]\n   247: a1 = a1 << 0x8\n   250: a1 = a1 | a3\n   253: a4 = a4 << 0x10\n   256: a5 = a5 << 0x18\n   259: a4 = a4 | a5\n   262: a1 = a1 | a4\n   265: a3 = u8 [a0 + 0x15]\n   268: a4 = u8 [a0 + 0x14]\n   271: a5 = u8 [a0 + 0x16]\n   274: a2 = u8 [a0 + 0x17]\n   277: a3 = a3 << 0x8\n   280: a3 = a3 | a4\n   283: a5 = a5 << 0x10\n   286: a2 = a2 << 0x18\n   289: a2 = a2 | a5\n   292: a2 = a2 | a3\n   295: a2 = a2 << 0x20\n   298: a3 = a2 | a1\n   301: a1 = u8 [a0 + 0x19]\n   304: a2 = u8 [a0 + 0x18]\n   307: a4 = u8 [a0 + 0x1a]\n   310: a5 = u8 [a0 + 0x1b]\n   313: a1 = a1 << 0x8\n   316: a1 = a1 | a2\n   319: a4 = a4 << 0x10\n   322: a5 = a5 << 0x18\n   325: a4 = a4 | a5\n   328: a1 = a1 | a4\n   331: a2 = u8 [a0 + 0x1d]\n   334: a4 = u8 [a0 + 0x1c]\n   337: a5 = u8 [a0 + 0x1e]\n   340: a0 = u8 [a0 + 0x1f]\n   343: a2 = a2 << 0x8\n   346: a2 = a2 | a4\n   349: a5 = a5 << 0x10\n   352: a0 = a0 << 0x18\n   355: a0 = a0 | a5\n   358: a0 = a0 | a2\n   361: a0 = a0 << 0x20\n   364: a0 = a0 | a1\n   367: a0 = reverse a0\n   369: a1 = reverse a3\n   371: a2 = reverse t1\n   373: a3 = reverse t0\n   375: u64 [s0 + 0x18] = a3\n   378: u64 [s0 + 0x10] = a2\n   381: u64 [s0 + 0x8] = a1\n   384: u64 [s0] = a0\n   386: ra = u64 [sp + 0x8]\n   389: s0 = u64 [sp]\n   391: sp = sp + 0x10\n   394: ret\n      : @12 (gas: 13)\n   396: sp = sp + 0xffffffffffffffd8\n   399: u64 [sp + 0x20] = ra\n   402: u64 [sp + 0x18] = s0\n   405: u64 [sp + 0x10] = s1\n   408: a2 = u64 [a1]\n   410: u64 [sp + 0x8] = a2\n   413: a2 = u64 [a1 + 0x8]\n   416: u64 [sp] = a2\n   418: s0 = u64 [a1 + 0x10]\n   421: s1 = u64 [a1 + 0x18]\n   424: i32 a0 = a0 + 0\n   426: a1 = 0x20\n   429: ra = 4, jump @0\n      : @13 [@dyn 2] (gas: 71)\n   434: a1 = reverse s1\n   436: a2 = reverse s0\n   438: a3 = u64 [sp]\n   440: a3 = reverse a3\n   442: a4 = u64 [sp + 0x8]\n   445: a4 = reverse a4\n   447: u8 [a0 + 0x18] = a4\n   450: u8 [a0 + 0x10] = a3\n   453: u8 [a0 + 0x8] = a2\n   456: u8 [a0] = a1\n   458: a5 = a4 >> 0x38\n   461: u8 [a0 + 0x1f] = a5\n   464: a5 = a4 >> 0x30\n   467: u8 [a0 + 0x1e] = a5\n   470: a5 = a4 >> 0x28\n   473: u8 [a0 + 0x1d] = a5\n   476: a5 = a4 >> 0x20\n   479: u8 [a0 + 0x1c] = a5\n   482: a5 = a4 >> 0x18\n   485: u8 [a0 + 0x1b] = a5\n   488: a5 = a4 >> 0x10\n   491: u8 [a0 + 0x1a] = a5\n   494: a4 = a4 >> 0x8\n   497: u8 [a0 + 0x19] = a4\n   500: a4 = a3 >> 0x38\n   503: u8 [a0 + 0x17] = a4\n   506: a4 = a3 >> 0x30\n   509: u8 [a0 + 0x16] = a4\n   512: a4 = a3 >> 0x28\n   515: u8 [a0 + 0x15] = a4\n   518: a4 = a3 >> 0x20\n   521: u8 [a0 + 0x14] = a4\n   524: a4 = a3 >> 0x18\n   527: u8 [a0 + 0x13] = a4\n   530: a4 = a3 >> 0x10\n   533: u8 [a0 + 0x12] = a4\n   536: a3 = a3 >> 0x8\n   539: u8 [a0 + 0x11] = a3\n   542: a3 = a2 >> 0x38\n   545: u8 [a0 + 0xf] = a3\n   548: a3 = a2 >> 0x30\n   551: u8 [a0 + 0xe] = a3\n   554: a3 = a2 >> 0x28\n   557: u8 [a0 + 0xd] = a3\n   560: a3 = a2 >> 0x20\n   563: u8 [a0 + 0xc] = a3\n   566: a3 = a2 >> 0x18\n   569: u8 [a0 + 0xb] = a3\n   572: a3 = a2 >> 0x10\n   575: u8 [a0 + 0xa] = a3\n   578: a2 = a2 >> 0x8\n   581: u8 [a0 + 0x9] = a2\n   584: a2 = a1 >> 0x38\n   587: u8 [a0 + 0x7] = a2\n   590: a2 = a1 >> 0x30\n   593: u8 [a0 + 0x6] = a2\n   596: a2 = a1 >> 0x28\n   599: u8 [a0 + 0x5] = a2\n   602: a2 = a1 >> 0x20\n   605: u8 [a0 + 0x4] = a2\n   608: a2 = a1 >> 0x18\n   611: u8 [a0 + 0x3] = a2\n   614: a2 = a1 >> 0x10\n   617: u8 [a0 + 0x2] = a2\n   620: a1 = a1 >> 0x8\n   623: u8 [a0 + 0x1] = a1\n   626: ra = u64 [sp + 0x20]\n   629: s0 = u64 [sp + 0x18]\n   632: s1 = u64 [sp + 0x10]\n   635: sp = sp + 0x28\n   638: ret\n      : @14 (gas: 43)\n   640: sp = sp + 0xffffffffffffffa0\n   643: u64 [sp + 0x58] = ra\n   646: u64 [sp + 0x50] = s0\n   649: u64 [sp + 0x48] = s1\n   652: s0 = sp + 0x60\n   655: sp = sp & 0xffffffffffffffe0\n   658: s1 = a0\n   660: a0 = u64 [a1 + 0x18]\n   663: a2 = u64 [a1 + 0x10]\n   666: a3 = u64 [a1 + 0x8]\n   669: a1 = u64 [a1]\n   671: a0 = reverse a0\n   673: a2 = reverse a2\n   675: a3 = reverse a3\n   677: a1 = reverse a1\n   679: u64 [sp + 0x18] = a1\n   682: u64 [sp + 0x10] = a3\n   685: u64 [sp + 0x8] = a2\n   688: u64 [sp] = a0\n   690: u64 [sp + 56] = 0\n   693: u64 [sp + 48] = 0\n   696: u64 [sp + 40] = 0\n   699: u64 [sp + 32] = 0\n   702: u32 [sp + 64] = 0x20\n   706: i32 a1 = sp + 0\n   708: i32 a3 = sp + 0x20\n   711: i32 a4 = sp + 0x40\n   714: a2 = 0xffffffffffffffff\n   717: a0 = 0\n   719: ecalli 5 // 'get_storage'\n   721: a0 = u64 [sp + 0x38]\n   724: a1 = u64 [sp + 0x30]\n   727: a2 = u64 [sp + 0x28]\n   730: a3 = u64 [sp + 0x20]\n   733: a0 = reverse a0\n   735: a1 = reverse a1\n   737: a2 = reverse a2\n   739: a3 = reverse a3\n   741: u64 [s1 + 0x18] = a3\n   744: u64 [s1 + 0x10] = a2\n   747: u64 [s1 + 0x8] = a1\n   750: u64 [s1] = a0\n   752: t0 = 6, jump @1236\n      : @15 [@dyn 3] (gas: 1)\n   758: ret\n      : @16 (gas: 37)\n   760: sp = sp + 0xffffffffffffffa0\n   763: u64 [sp + 0x58] = ra\n   766: u64 [sp + 0x50] = s0\n   769: u64 [sp + 0x48] = s1\n   772: s0 = sp + 0x60\n   775: sp = sp & 0xffffffffffffffe0\n   778: t0 = u64 [a1]\n   780: t1 = u64 [a1 + 0x8]\n   783: a4 = u64 [a1 + 0x10]\n   786: a1 = u64 [a1 + 0x18]\n   789: a5 = u64 [a0 + 0x18]\n   792: a2 = u64 [a0 + 0x10]\n   795: a3 = u64 [a0 + 0x8]\n   798: a0 = u64 [a0]\n   800: s1 = reverse a5\n   802: a2 = reverse a2\n   804: a3 = reverse a3\n   806: a0 = reverse a0\n   808: t2 = reverse a1\n   810: a4 = reverse a4\n   812: a1 = reverse t1\n   814: a5 = reverse t0\n   816: u64 [sp + 0x18] = a0\n   819: u64 [sp + 0x10] = a3\n   822: u64 [sp + 0x8] = a2\n   825: u64 [sp] = s1\n   827: u64 [sp + 0x38] = a5\n   830: u64 [sp + 0x30] = a1\n   833: u64 [sp + 0x28] = a4\n   836: u64 [sp + 0x20] = t2\n   839: i32 a1 = sp + 0\n   841: i32 a3 = sp + 0x20\n   844: a2 = 0xffffffffffffffff\n   847: a4 = 0x20\n   850: a0 = 0\n   852: ecalli 10 // 'set_storage'\n   854: t0 = 8, jump @1236\n      : @17 [@dyn 4] (gas: 1)\n   860: ret\n      : @18 [@dyn 5] (gas: 34)\n   862: a1 = reverse s1\n   864: a2 = u64 [sp]\n   866: a2 = reverse a2\n   868: a3 = u64 [sp + 0x8]\n   871: a3 = reverse a3\n   873: a4 = u64 [sp + 0x10]\n   876: a4 = reverse a4\n   878: u64 [sp + 0x58] = a4\n   881: u64 [sp + 0x50] = a3\n   884: u64 [sp + 0x48] = a2\n   887: u64 [sp + 0x40] = a1\n   890: a1 = u64 [sp + 0x18]\n   893: a1 = reverse a1\n   895: a2 = u64 [sp + 0x20]\n   898: a2 = reverse a2\n   900: a3 = u64 [sp + 0x28]\n   903: a3 = reverse a3\n   905: a4 = u64 [sp + 0x38]\n   908: a4 = reverse a4\n   910: u64 [sp + 0x78] = a4\n   913: u64 [sp + 0x70] = a3\n   916: u64 [sp + 0x68] = a2\n   919: u64 [sp + 0x60] = a1\n   922: i32 a2 = a0 + 0\n   924: i32 a0 = sp + 0x40\n   927: a1 = 0x2\n   930: a3 = u64 [sp + 0x30]\n   933: ecalli 4 // 'deposit_event'\n   935: sp = s0 + 0xffffffffffffff60\n   939: ra = u64 [sp + 0x98]\n   943: s0 = u64 [sp + 0x90]\n   947: s1 = u64 [sp + 0x88]\n   951: sp = sp + 0xa0\n   955: ret\n      : @19 (gas: 35)\n   957: sp = sp + 0xffffffffffffff20\n   961: u64 [sp + 0xd8] = ra\n   965: u64 [sp + 0xd0] = s0\n   969: u64 [sp + 0xc8] = s1\n   973: s0 = sp + 0xe0\n   977: sp = sp & 0xffffffffffffffe0\n   980: a5 = u64 [a4]\n   982: u64 [sp + 0x40] = a5\n   985: a5 = u64 [a4 + 0x8]\n   988: u64 [sp + 0x48] = a5\n   991: a5 = u64 [a4 + 0x10]\n   994: u64 [sp + 0x50] = a5\n   997: a4 = u64 [a4 + 0x18]\n  1000: u64 [sp + 0x58] = a4\n  1003: t0 = 0xc\n  1006: a4 = u64 [a3]\n  1008: u64 [sp + 0x18] = a4\n  1011: a4 = u64 [a3 + 0x8]\n  1014: u64 [sp + 0x20] = a4\n  1017: a4 = u64 [a3 + 0x10]\n  1020: u64 [sp + 0x28] = a4\n  1023: a3 = u64 [a3 + 0x18]\n  1026: u64 [sp + 0x30] = a3\n  1029: s1 = u64 [a2]\n  1031: a3 = u64 [a2 + 0x8]\n  1034: u64 [sp] = a3\n  1036: a3 = u64 [a2 + 0x10]\n  1039: u64 [sp + 0x8] = a3\n  1042: a2 = u64 [a2 + 0x18]\n  1045: u64 [sp + 0x10] = a2\n  1048: i32 a0 = a0 + 0\n  1050: i32 a1 = a1 + 0\n  1052: u64 [sp + 0x38] = a1\n  1055: ra = 0xe\n  1058: jump @0\n      : @20 [@dyn 6] (gas: 2)\n  1061: u64 [sp + 0x38] = a1\n  1064: ra = 14, jump @0\n      : @21 [@dyn 7] (gas: 46)\n  1069: a1 = reverse s1\n  1071: u64 [sp + 0x78] = a1\n  1074: a1 = u64 [sp]\n  1076: a1 = reverse a1\n  1078: u64 [sp + 0x70] = a1\n  1081: a1 = u64 [sp + 0x8]\n  1084: a1 = reverse a1\n  1086: u64 [sp + 0x68] = a1\n  1089: a1 = u64 [sp + 0x10]\n  1092: a1 = reverse a1\n  1094: u64 [sp + 0x60] = a1\n  1097: a1 = u64 [sp + 0x18]\n  1100: a1 = reverse a1\n  1102: u64 [sp + 0x98] = a1\n  1106: a1 = u64 [sp + 0x20]\n  1109: a1 = reverse a1\n  1111: u64 [sp + 0x90] = a1\n  1115: a1 = u64 [sp + 0x28]\n  1118: a1 = reverse a1\n  1120: u64 [sp + 0x88] = a1\n  1124: a1 = u64 [sp + 0x30]\n  1127: a1 = reverse a1\n  1129: u64 [sp + 0x80] = a1\n  1133: a1 = u64 [sp + 0x40]\n  1136: a1 = reverse a1\n  1138: u64 [sp + 0xb8] = a1\n  1142: a1 = u64 [sp + 0x48]\n  1145: a1 = reverse a1\n  1147: u64 [sp + 0xb0] = a1\n  1151: a1 = u64 [sp + 0x50]\n  1154: a1 = reverse a1\n  1156: u64 [sp + 0xa8] = a1\n  1160: a1 = u64 [sp + 0x58]\n  1163: a1 = reverse a1\n  1165: u64 [sp + 0xa0] = a1\n  1169: i32 a2 = a0 + 0\n  1171: i32 a0 = sp + 0x60\n  1174: a1 = 0x3\n  1177: a3 = u64 [sp + 0x38]\n  1180: ecalli 4 // 'deposit_event'\n  1182: sp = s0 + 0xffffffffffffff20\n  1186: ra = u64 [sp + 0xd8]\n  1190: s0 = u64 [sp + 0xd0]\n  1194: s1 = u64 [sp + 0xc8]\n  1198: sp = sp + 0xe0\n  1202: ret\n      : @22 (gas: 6)\n  1204: sp = sp + 0xfffffffffffffff0\n  1207: u64 [sp + 0x8] = ra\n  1210: u64 [sp] = s0\n  1212: s0 = a0 & 0x1\n  1215: ecalli 2 // 'call_data_size'\n  1217: fallthrough\n      : @23 (gas: 2)\n  1218: u32 [0x200f4] = a0\n  1223: jump @25 if s0 == 0\n      : @24 (gas: 1)\n  1226: ra = 16, jump @26\n      : @25 [@dyn 8] (gas: 1)\n  1230: ra = 18, jump @37\n      : @26 [@dyn 9] (gas: 13)\n  1235: sp = sp + 0xfffffffffffffee0\n  1239: u64 [sp + 0x118] = ra\n  1243: u64 [sp + 0x110] = s0\n  1247: u64 [sp + 0x108] = s1\n  1251: s0 = sp + 0x120\n  1255: sp = sp & 0xffffffffffffffe0\n  1258: u64 [sp + 184] = 0\n  1262: u64 [sp + 176] = 0\n  1266: u64 [sp + 160] = 0x80\n  1272: a0 = 0x40\n  1275: a1 = sp + 0xa0\n  1279: u64 [sp + 168] = 0\n  1283: ra = 20, jump @12\n      : @27 [@dyn 10] (gas: 7)\n  1288: u64 [sp + 216] = 0\n  1292: u64 [sp + 208] = 0\n  1296: u64 [sp + 200] = 0\n  1300: u64 [sp + 192] = 0\n  1304: i32 a0 = sp + 0xc0\n  1308: ecalli 11 // 'value_transferred'\n  1310: fallthrough\n      : @28 (gas: 8)\n  1311: a0 = u64 [sp + 0xd0]\n  1315: a1 = u64 [sp + 0xd8]\n  1319: a2 = u64 [sp + 0xc8]\n  1323: a3 = u64 [sp + 0xc0]\n  1327: a1 = a1 | a2\n  1330: a0 = a0 | a3\n  1333: a0 = a0 | a1\n  1336: jump @31 if a0 == 0\n      : @29 (gas: 3)\n  1339: a0 = 0\n  1341: a1 = 0\n  1343: ra = 22, jump @0\n      : @30 [@dyn 11] (gas: 5)\n  1348: i32 a1 = a0 + 0\n  1350: a0 = 0x1\n  1353: a2 = 0\n  1355: ecalli 8 // 'seal_return'\n  1357: fallthrough\n      : @31 (gas: 24)\n  1358: i32 a0 = sp + 0xe0\n  1362: ecalli 3 // 'caller'\n  1364: a0 = u64 [sp + 0xe8]\n  1368: a1 = i32 [sp + 0xf0]\n  1372: a2 = u64 [sp + 0xe0]\n  1376: a0 = reverse a0\n  1378: a3 = a0 << 0x20\n  1381: a1 = reverse a1\n  1383: a1 = a1 >> 0x20\n  1386: a1 = a1 | a3\n  1389: u64 [sp + 0x18] = a1\n  1392: a0 = a0 >> 0x20\n  1395: a1 = reverse a2\n  1397: a2 = a1 << 0x20\n  1400: a0 = a0 | a2\n  1403: u64 [sp + 0x10] = a0\n  1406: s1 = a1 >> 0x20\n  1409: u64 [sp + 120] = 0\n  1412: u64 [sp + 112] = 0\n  1415: u64 [sp + 104] = 0\n  1418: a0 = sp + 0x80\n  1422: a1 = sp + 0x60\n  1425: u64 [sp + 96] = 0\n  1428: ra = 24, jump @14\n      : @32 [@dyn 12] (gas: 17)\n  1433: a0 = u32 [sp + 0x94]\n  1437: a1 = u64 [sp + 0x98]\n  1441: a0 = a0 << 0x20\n  1444: s1 = s1 | a0\n  1447: u64 [sp + 0x38] = a1\n  1450: a0 = u64 [sp + 0x10]\n  1453: u64 [sp + 0x28] = a0\n  1456: a0 = u64 [sp + 0x18]\n  1459: u64 [sp + 0x20] = a0\n  1462: u64 [sp + 88] = 0\n  1465: u64 [sp + 80] = 0\n  1468: u64 [sp + 72] = 0\n  1471: u64 [sp + 64] = 0\n  1474: a0 = sp + 0x40\n  1477: a1 = sp + 0x20\n  1480: u64 [sp + 0x30] = s1\n  1483: ra = 26, jump @16\n      : @33 [@dyn 13] (gas: 3)\n  1488: a0 = 0x80\n  1492: a1 = 0\n  1494: ra = 28, jump @0\n      : @34 [@dyn 14] (gas: 5)\n  1499: i32 a0 = a0 + 0\n  1501: a1 = 0\n  1503: a2 = 0\n  1505: ecalli 0 // 'call_data_copy'\n  1506: jump @8\n      : @35 (gas: 3)\n  1509: a0 = 0x80\n  1513: a1 = 0\n  1515: ra = 30, jump @0\n      : @36 [@dyn 15] (gas: 6)\n  1520: i32 a1 = a0 + 0\n  1522: a0 = 0\n  1524: a2 = 0\n  1526: ra = 0x20\n  1529: ecalli 8 // 'seal_return'\n  1531: fallthrough\n      : @37 [@dyn 16] (gas: 16)\n  1532: sp = sp + 0xfffffffffffffe10\n  1536: u64 [sp + 0x1e8] = ra\n  1540: u64 [sp + 0x1e0] = s0\n  1544: u64 [sp + 0x1d8] = s1\n  1548: s0 = sp + 0x1f0\n  1552: sp = sp + 0xffffffffffffc4f0\n  1556: sp = sp & 0xffffffffffffffe0\n  1559: s1 = sp\n  1561: a2 = s1 + 0x38d8\n  1565: u64 [a2 + 224] = 0\n  1569: u64 [a2 + 216] = 0\n  1573: u64 [a2 + 200] = 0x80\n  1579: a0 = 0x40\n  1582: a1 = s1 + 0x39a0\n  1586: u64 [a2 + 208] = 0\n  1590: ra = 34, jump @12\n      : @38 [@dyn 17] (gas: 4)\n  1595: a0 = 0x200f4\n  1600: u64 [s1 + 0x158] = a0\n  1604: a0 = i32 [0x200f4]\n  1609: jump @40 if a0 >=u 4\n      : @39 (gas: 1)\n  1613: jump @945\n      : @40 (gas: 6)\n  1616: a0 = s1 + 0x4000\n  1620: i32 a0 = a0 + 0xfffffffffffff9c0\n  1624: a1 = 0\n  1626: ra = 0x24\n  1629: ecalli 1 // 'call_data_load'\n  1631: fallthrough\n      : @41 [@dyn 18] (gas: 3)\n  1632: a0 = s1 + 0x38d8\n  1636: a0 = i32 [a0 + 0x104]\n  1640: jump @43 if a0 != 2241618621\n      : @42 (gas: 1)\n  1647: jump @458\n      : @43 (gas: 1)\n  1650: jump @45 if a0 != 2376452955\n      : @44 (gas: 1)\n  1657: jump @241\n      : @45 (gas: 1)\n  1660: jump @47 if a0 != 2703610915\n      : @46 (gas: 1)\n  1667: jump @589\n      : @47 (gas: 1)\n  1670: jump @49 if a0 != 2947057678\n      : @48 (gas: 1)\n  1677: jump @545\n      : @49 (gas: 1)\n  1680: jump @163 if a0 == 3431098909\n      : @50 (gas: 1)\n  1688: jump @52 if a0 != 3514808638\n      : @51 (gas: 1)\n  1695: jump @566\n      : @52 (gas: 1)\n  1698: jump @54 if a0 != 17777993\n      : @53 (gas: 1)\n  1705: jump @254\n      : @54 (gas: 1)\n  1708: jump @56 if a0 != 1003799639\n      : @55 (gas: 1)\n  1715: jump @522\n      : @56 (gas: 1)\n  1718: jump @58 if a0 != 1251417335\n      : @57 (gas: 1)\n  1725: jump @209\n      : @58 (gas: 1)\n  1728: jump @60 if a0 != 1334833850\n      : @59 (gas: 1)\n  1735: jump @363\n      : @60 (gas: 1)\n  1738: jump @62 if a0 != 1669775815\n      : @61 (gas: 1)\n  1745: jump @405\n      : @62 (gas: 1)\n  1748: jump @64 if a0 == 1762027419\n      : @63 (gas: 1)\n  1755: jump @635\n      : @64 (gas: 1)\n  1758: t0 = 38, jump @1201\n      : @65 [@dyn 19] (gas: 4)\n  1764: ra = 0x28\n  1767: ecalli 11 // 'value_transferred'\n  1769: t0 = 0x2a\n  1772: jump @1204\n      : @66 [@dyn 20] (gas: 1)\n  1776: t0 = 42, jump @1204\n      : @67 [@dyn 21] (gas: 1)\n  1782: jump @69 if a0 == 0\n      : @68 (gas: 1)\n  1785: jump @945\n      : @69 (gas: 3)\n  1788: a0 = u64 [s1 + 0x158]\n  1792: a0 = i32 [a0]\n  1794: jump @71 if a0 >u 67\n      : @70 (gas: 1)\n  1798: jump @945\n      : @71 (gas: 31)\n  1801: a0 = s1 + 0x4000\n  1805: i32 a0 = a0 + 0xfffffffffffffba0\n  1809: a1 = 0x4\n  1812: ecalli 1 // 'call_data_load'\n  1814: a1 = s1 + 0x38d8\n  1818: a2 = a1 + 0x200\n  1822: a0 = u64 [a2 + 0xe0]\n  1826: u64 [s1 + 0x118] = a0\n  1830: a0 = u64 [a2 + 0xd8]\n  1834: u64 [s1 + 0x110] = a0\n  1838: a0 = u64 [a2 + 0xd0]\n  1842: u64 [s1 + 0x108] = a0\n  1846: a0 = u64 [a2 + 0xc8]\n  1850: u64 [s1 + 0x100] = a0\n  1854: a0 = s1 + 0x4000\n  1858: i32 a0 = a0 + 0xfffffffffffffbc0\n  1862: a1 = 0x24\n  1865: ecalli 1 // 'call_data_load'\n  1867: a1 = s1 + 0x38d8\n  1871: a0 = u64 [a1 + 0x300]\n  1875: u64 [s1 + 0x120] = a0\n  1879: a2 = a1 + 0x200\n  1883: a0 = u64 [a2 + 0xf8]\n  1887: u64 [s1 + 0x128] = a0\n  1891: a0 = u64 [a2 + 0xf0]\n  1895: u64 [s1 + 0x130] = a0\n  1899: a0 = u64 [a2 + 0xe8]\n  1903: u64 [s1 + 0x138] = a0\n  1907: a0 = s1 + 0x2360\n  1911: a1 = 0x40\n  1914: ra = 44, jump @10\n      : @72 [@dyn 22] (gas: 3)\n  1919: a1 = s1 + 0x20d8\n  1923: a5 = a1 + 0x200\n  1927: t0 = 46, jump @1223\n      : @73 [@dyn 23] (gas: 6)\n  1933: i32 a0 = a0 + 0x340\n  1937: a0 = a0 + s1\n  1940: u64 [a5 + 0x68] = a3\n  1943: ra = 0x30\n  1946: t0 = 0x546\n  1950: jump @1237\n      : @74 [@dyn 24] (gas: 1)\n  1954: t0 = 50, jump @1233\n      : @75 [@dyn 25] (gas: 1)\n  1960: jump @77 if a0 == 0\n      : @76 (gas: 1)\n  1963: jump @747\n      : @77 (gas: 8)\n  1966: a0 = s1 + 0x20d8\n  1970: u64 [a0 + 608] = 0\n  1974: u64 [a0 + 600] = 0\n  1978: u64 [a0 + 592] = 0\n  1982: a1 = s1 + 0x2320\n  1986: u64 [a0 + 584] = 0\n  1990: a0 = u64 [s1 + 0x158]\n  1994: ra = 52, jump @12\n      : @78 [@dyn 26] (gas: 4)\n  1999: a4 = s1 + 0x100\n  2003: a0 = u64 [a4 + 0x48]\n  2006: a2 = u64 [a4 + 0x40]\n  2009: t0 = 54, jump @1230\n      : @79 [@dyn 27] (gas: 1)\n  2015: jump @81 if a0 != 0\n      : @80 (gas: 1)\n  2018: jump @747\n      : @81 (gas: 12)\n  2021: a0 = u64 [s1 + 0x158]\n  2025: i32 a0 = a0 + 0x20\n  2028: a1 = s1 + 0x20d8\n  2032: u64 [s1 + 0x148] = a2\n  2036: a2 = a1\n  2038: u64 [a1 + 576] = 0\n  2042: u64 [a1 + 568] = 0\n  2046: u64 [a1 + 560] = 0\n  2050: a1 = s1 + 0x2300\n  2054: u64 [a2 + 552] = 0\n  2058: u64 [s1 + 0x140] = a3\n  2062: ra = 56, jump @12\n      : @82 [@dyn 28] (gas: 4)\n  2067: a3 = s1 + 0x100\n  2071: a2 = u64 [a3 + 0x48]\n  2074: a0 = u64 [a3 + 0x40]\n  2077: t0 = 58, jump @1249\n      : @83 [@dyn 29] (gas: 1)\n  2083: jump @85 if a0 != 0\n      : @84 (gas: 1)\n  2086: jump @747\n      : @85 (gas: 5)\n  2089: a0 = u64 [s1 + 0x158]\n  2093: i32 a0 = a0 + 0x40\n  2096: t0 = 0x3c\n  2099: a2 = s1 + 0x20d8\n  2103: fallthrough\n      : @86 [@dyn 30] (gas: 6)\n  2104: u64 [a2 + 544] = 0\n  2108: u64 [a2 + 536] = 0\n  2112: u64 [a2 + 528] = 0\n  2116: a1 = s1 + 0x22e0\n  2120: u64 [a2 + 520] = 0\n  2124: ra = 62, jump @12\n      : @87 [@dyn 31] (gas: 3)\n  2129: a0 = 0xffffffa0\n  2139: a2 = s1 + 0x100\n  2143: t0 = 64, jump @1217\n      : @88 [@dyn 32] (gas: 1)\n  2149: jump @90 if a0 != 0\n      : @89 (gas: 1)\n  2152: jump @747\n      : @90 (gas: 5)\n  2155: a0 = u64 [s1 + 0x158]\n  2159: i32 a0 = a0 + 0x60\n  2162: t0 = 0x42\n  2165: a2 = s1 + 0x20d8\n  2169: fallthrough\n      : @91 [@dyn 33] (gas: 6)\n  2170: u64 [a2 + 512] = 0\n  2174: u64 [a2 + 504] = 0\n  2178: u64 [a2 + 488] = 0x60\n  2183: a1 = s1 + 0x22c0\n  2187: u64 [a2 + 496] = 0\n  2191: ra = 68, jump @12\n      : @92 [@dyn 34] (gas: 4)\n  2196: a0 = u64 [s1 + 0x118]\n  2200: t0 = 0x46\n  2203: a2 = s1 + 0x20d8\n  2207: fallthrough\n      : @93 [@dyn 35] (gas: 11)\n  2208: a3 = a2 + 0x100\n  2212: u64 [a3 + 0xe0] = a0\n  2216: a0 = u64 [s1 + 0x110]\n  2220: u64 [a3 + 0xd8] = a0\n  2224: a0 = u64 [s1 + 0x108]\n  2228: u64 [a3 + 0xd0] = a0\n  2232: a1 = s1 + 0x22a0\n  2236: a0 = u64 [s1 + 0x100]\n  2240: u64 [a3 + 0xc8] = a0\n  2244: a0 = 0\n  2246: ra = 72, jump @12\n      : @94 [@dyn 36] (gas: 9)\n  2251: a0 = s1 + 0x20d8\n  2255: u64 [a0 + 448] = 0\n  2259: u64 [a0 + 440] = 0\n  2263: u64 [a0 + 432] = 0\n  2267: a3 = a0\n  2269: a0 = 0x20\n  2272: a1 = s1 + 0x2280\n  2276: u64 [a3 + 424] = 0x2\n  2281: ra = 74, jump @12\n      : @95 [@dyn 37] (gas: 3)\n  2286: a1 = 0x40\n  2289: a0 = 0\n  2291: ra = 76, jump @0\n      : @96 [@dyn 38] (gas: 1)\n  2296: t0 = 78, jump @1202\n      : @97 [@dyn 39] (gas: 4)\n  2302: ra = 0x50\n  2305: ecalli 6 // 'hash_keccak_256'\n  2307: t0 = 0x52\n  2310: jump @1210\n      : @98 [@dyn 40] (gas: 1)\n  2314: t0 = 82, jump @1210\n      : @99 [@dyn 41] (gas: 8)\n  2320: a5 = a3 + 0x100\n  2324: u64 [a5 + 0x80] = a2\n  2328: u64 [a5 + 0x78] = a1\n  2331: u64 [a5 + 0x70] = a0\n  2334: a0 = s1 + 0x2260\n  2338: a1 = s1 + 0x2240\n  2342: u64 [a5 + 0x68] = a4\n  2345: ra = 84, jump @14\n      : @100 [@dyn 42] (gas: 22)\n  2350: a3 = s1 + 0x20d8\n  2354: a4 = a3 + 0x100\n  2358: a0 = u64 [a4 + 0x90]\n  2362: a1 = u64 [a4 + 0x88]\n  2366: a2 = u64 [a4 + 0x98]\n  2370: a3 = u64 [a4 + 0xa0]\n  2374: t1 = u64 [s1 + 0x130]\n  2378: a4 = t1 ^ a0\n  2381: a0 = t1 <u a0\n  2384: t0 = u64 [s1 + 0x138]\n  2388: a1 = t0 <u a1\n  2391: a1 = a0 if a4 != 0\n  2394: t2 = u64 [s1 + 0x120]\n  2398: a0 = t2 ^ a3\n  2401: a3 = t2 <u a3\n  2404: a5 = u64 [s1 + 0x128]\n  2408: a4 = a5 <u a2\n  2411: a4 = a3 if a0 != 0\n  2414: a2 = a2 ^ a5\n  2417: a0 = a0 | a2\n  2420: a1 = a4 if a0 != 0\n  2423: jump @102 if a1 != 0\n      : @101 (gas: 1)\n  2426: jump @730\n      : @102 (gas: 12)\n  2429: a2 = s1 + 0x20d8\n  2433: a0 = u64 [s1 + 0x100]\n  2437: u64 [a2 + 0xa8] = a0\n  2441: a0 = u64 [s1 + 0x108]\n  2445: u64 [a2 + 0xb0] = a0\n  2449: a0 = u64 [s1 + 0x110]\n  2453: u64 [a2 + 0xb8] = a0\n  2457: a1 = s1 + 0x2180\n  2461: a0 = u64 [s1 + 0x118]\n  2465: u64 [a2 + 0xc0] = a0\n  2469: a0 = 0\n  2471: ra = 86, jump @12\n      : @103 [@dyn 43] (gas: 8)\n  2476: a2 = s1 + 0x20d8\n  2480: u64 [a2 + 160] = 0\n  2484: u64 [a2 + 152] = 0\n  2488: u64 [a2 + 136] = 0x2\n  2493: a0 = 0x20\n  2496: a1 = s1 + 0x2160\n  2500: u64 [a2 + 144] = 0\n  2504: ra = 88, jump @12\n      : @104 [@dyn 44] (gas: 3)\n  2509: a1 = 0x40\n  2512: a0 = 0\n  2514: ra = 90, jump @0\n      : @105 [@dyn 45] (gas: 1)\n  2519: t0 = 92, jump @1202\n      : @106 [@dyn 46] (gas: 4)\n  2525: ra = 0x5e\n  2528: ecalli 6 // 'hash_keccak_256'\n  2530: t0 = 0x60\n  2533: jump @1210\n      : @107 [@dyn 47] (gas: 1)\n  2537: t0 = 96, jump @1210\n      : @108 [@dyn 48] (gas: 16)\n  2543: a5 = u64 [s1 + 0x120]\n  2547: u64 [a3 + 0x20] = a5\n  2550: a5 = u64 [s1 + 0x128]\n  2554: u64 [a3 + 0x18] = a5\n  2557: a5 = u64 [s1 + 0x130]\n  2561: u64 [a3 + 0x10] = a5\n  2564: a5 = u64 [s1 + 0x138]\n  2568: u64 [a3 + 0x8] = a5\n  2571: u64 [a3 + 0x40] = a2\n  2574: u64 [a3 + 0x38] = a1\n  2577: u64 [a3 + 0x30] = a0\n  2580: a0 = s1 + 0x2120\n  2584: a1 = s1 + 0x2100\n  2588: a2 = s1 + 0x20e0\n  2592: u64 [a3 + 0x28] = a4\n  2595: ra = 98, jump @1136\n      : @109 [@dyn 49] (gas: 12)\n  2601: a1 = s1 + 0x20d8\n  2605: a0 = u64 [a1 + 0x48]\n  2608: u64 [s1 + 0x130] = a0\n  2612: a0 = u64 [a1 + 0x50]\n  2615: u64 [s1 + 0x138] = a0\n  2619: a0 = u64 [a1 + 0x58]\n  2622: u64 [s1 + 0x148] = a0\n  2626: a0 = u64 [a1 + 0x60]\n  2629: u64 [s1 + 0x140] = a0\n  2633: a0 = s1 + 0x20c0\n  2637: a1 = 0x40\n  2640: ra = 100, jump @10\n      : @110 [@dyn 50] (gas: 20)\n  2645: a0 = s1 + 0x20d8\n  2649: a1 = u64 [a0]\n  2651: u64 [s1 + 0x128] = a1\n  2655: a5 = a0 + 0xffffffffffffff00\n  2659: a2 = u64 [a5 + 0xf8]\n  2663: u64 [s1 + 0x120] = a2\n  2667: a4 = u64 [a5 + 0xf0]\n  2671: u64 [s1 + 0x150] = a4\n  2675: a3 = u64 [a5 + 0xe8]\n  2679: u64 [s1 + 0x158] = a3\n  2683: a5 = s1 + 0x18d8\n  2687: u64 [a5 + 0x7e0] = a1\n  2691: a1 = a5 + 0x700\n  2695: u64 [a1 + 0xd8] = a2\n  2699: u64 [a1 + 0xd0] = a4\n  2703: a0 = s1 + 0x20a0\n  2707: u64 [a1 + 0xc8] = a3\n  2711: ra = 0x66\n  2714: t0 = 0x546\n  2718: jump @1237\n      : @111 [@dyn 51] (gas: 14)\n  2722: a0 = u64 [s1 + 0x140]\n  2726: a1 = s1 + 0x18d8\n  2730: a2 = a1 + 0x700\n  2734: u64 [a2 + 0xa0] = a0\n  2738: a0 = u64 [s1 + 0x148]\n  2742: u64 [a2 + 0x98] = a0\n  2746: a0 = u64 [s1 + 0x138]\n  2750: u64 [a2 + 0x90] = a0\n  2754: a3 = a1\n  2756: a0 = s1 + 0x2080\n  2760: a1 = s1 + 0x2060\n  2764: a2 = u64 [s1 + 0x130]\n  2768: u64 [a3 + 0x788] = a2\n  2772: ra = 104, jump @14\n      : @112 [@dyn 52] (gas: 13)\n  2777: a3 = s1 + 0x100\n  2781: a0 = u64 [a3 + 0x28]\n  2784: a1 = u64 [a3 + 0x50]\n  2787: a0 = a0 | a1\n  2790: a2 = u64 [a3 + 0x20]\n  2793: a1 = u64 [a3 + 0x58]\n  2796: a1 = a1 | a2\n  2799: a1 = a1 | a0\n  2802: a1 = a1 >> 0x20\n  2805: a0 = a0 | a2\n  2808: a0 = a0 << 0x20\n  2811: a0 = a0 | a1\n  2814: jump @114 if a0 == 0\n      : @113 (gas: 1)\n  2817: jump @747\n      : @114 (gas: 13)\n  2820: a4 = s1 + 0x18d8\n  2824: a5 = a4 + 0x700\n  2828: a0 = u64 [a5 + 0xc0]\n  2832: a1 = u64 [a5 + 0xb8]\n  2836: a2 = u64 [a5 + 0xb0]\n  2840: a3 = u64 [a5 + 0xa8]\n  2844: u64 [a5 + 0x68] = a3\n  2847: u64 [a5 + 0x70] = a2\n  2850: u64 [a5 + 0x78] = a1\n  2853: a1 = s1 + 0x2040\n  2857: u64 [a5 + 0x80] = a0\n  2861: a0 = u64 [s1 + 0x158]\n  2865: ra = 106, jump @12\n      : @115 [@dyn 53] (gas: 21)\n  2870: a0 = u64 [s1 + 0x130]\n  2874: a0 = a0 + 0x1\n  2877: a1 = a0 <u 0x1\n  2880: a2 = u64 [s1 + 0x138]\n  2884: a1 = a1 + a2\n  2887: a2 = a0 | a1\n  2890: a2 = a2 <u 0x1\n  2893: a3 = u64 [s1 + 0x148]\n  2897: a2 = a2 + a3\n  2900: a3 = a2 <u a3\n  2903: a4 = u64 [s1 + 0x140]\n  2907: a3 = a3 + a4\n  2910: a4 = s1 + 0x18d8\n  2914: a5 = a4 + 0x700\n  2918: u64 [a5 + 0x38] = a2\n  2921: u64 [a5 + 0x30] = a1\n  2924: u64 [a5 + 0x28] = a0\n  2927: a0 = s1 + 0x2020\n  2931: a1 = s1 + 0x2000\n  2935: u64 [a5 + 0x40] = a3\n  2938: ra = 108, jump @14\n      : @116 [@dyn 54] (gas: 4)\n  2943: a4 = s1 + 0x100\n  2947: a0 = u64 [a4 + 0x28]\n  2950: a2 = u64 [a4 + 0x20]\n  2953: t0 = 110, jump @1230\n      : @117 [@dyn 55] (gas: 1)\n  2959: jump @119 if a0 != 0\n      : @118 (gas: 1)\n  2962: jump @747\n      : @119 (gas: 18)\n  2965: a4 = s1 + 0x18d8\n  2969: a5 = a4 + 0x700\n  2973: a0 = u64 [a5 + 0x58]\n  2976: a1 = u64 [a5 + 0x50]\n  2979: u64 [s1 + 0x128] = a2\n  2983: a2 = u64 [a5 + 0x48]\n  2986: a0 = a0 << 0x20\n  2989: u64 [s1 + 0x120] = a3\n  2993: a3 = a0 >> 0x20\n  2996: a0 = u64 [s1 + 0x158]\n  3000: i32 a0 = a0 + 0x20\n  3003: u64 [a4 + 1824] = 0\n  3007: u64 [a5 + 0x8] = a2\n  3010: u64 [a5 + 0x10] = a1\n  3013: a1 = s1 + 0x1fe0\n  3017: u64 [a5 + 0x18] = a3\n  3020: u64 [s1 + 0x108] = a0\n  3024: ra = 112, jump @12\n      : @120 [@dyn 56] (gas: 5)\n  3029: a1 = u64 [s1 + 0x130]\n  3033: a0 = a1 + 0x2\n  3036: a1 = a0 <u a1\n  3039: a3 = u64 [s1 + 0x138]\n  3043: t0 = 114, jump @1243\n      : @121 [@dyn 57] (gas: 2)\n  3049: a1 = u64 [s1 + 0x148]\n  3053: t0 = 116, jump @1254\n      : @122 [@dyn 58] (gas: 9)\n  3059: a5 = a1 + 0x600\n  3063: u64 [a5 + 0xd8] = a3\n  3067: u64 [a5 + 0xd0] = a2\n  3071: u64 [a5 + 0xc8] = a0\n  3075: a2 = a1\n  3077: a0 = s1 + 0x1fc0\n  3081: a1 = s1 + 0x1fa0\n  3085: u64 [a2 + 0x6e0] = a4\n  3089: ra = 118, jump @14\n      : @123 [@dyn 59] (gas: 4)\n  3094: a3 = s1 + 0x100\n  3098: a2 = u64 [a3 + 0x28]\n  3101: a0 = u64 [a3 + 0x20]\n  3104: t0 = 120, jump @1249\n      : @124 [@dyn 60] (gas: 1)\n  3110: jump @126 if a0 != 0\n      : @125 (gas: 1)\n  3113: jump @747\n      : @126 (gas: 15)\n  3116: a5 = s1 + 0x18d8\n  3120: a4 = u64 [a5 + 0x700]\n  3124: a1 = u64 [a5 + 0x6f8]\n  3128: a2 = u64 [a5 + 0x6f0]\n  3132: a3 = u64 [a5 + 0x6e8]\n  3136: a0 = u64 [s1 + 0x158]\n  3140: i32 a0 = a0 + 0x40\n  3143: u64 [a5 + 0x6a8] = a3\n  3147: a3 = a5 + 0x600\n  3151: u64 [a3 + 0xb0] = a2\n  3155: u64 [a3 + 0xb8] = a1\n  3159: a1 = s1 + 0x1f80\n  3163: u64 [a3 + 0xc0] = a4\n  3167: u64 [s1 + 0x100] = a0\n  3171: ra = 122, jump @12\n      : @127 [@dyn 61] (gas: 3)\n  3176: a0 = s1 + 0x1f60\n  3180: a1 = 0x40\n  3183: ra = 124, jump @10\n      : @128 [@dyn 62] (gas: 34)\n  3188: a5 = s1 + 0x18d8\n  3192: t1 = u64 [a5 + 0x6a0]\n  3196: u64 [s1 + 0x120] = t1\n  3200: t2 = u64 [a5 + 0x698]\n  3204: u64 [s1 + 0x118] = t2\n  3208: ra = u64 [a5 + 0x690]\n  3212: u64 [s1 + 0x110] = ra\n  3216: a0 = u64 [s1 + 0x130]\n  3220: t0 = a0 + 0x3\n  3223: a0 = t0 <u a0\n  3226: a2 = u64 [s1 + 0x138]\n  3230: a1 = a2 + a0\n  3233: a2 = a1 <u a2\n  3236: a2 = a0 if a0 == 0\n  3239: a3 = u64 [a5 + 0x688]\n  3243: u64 [s1 + 0x138] = a3\n  3247: a0 = u64 [s1 + 0x148]\n  3251: a2 = a2 + a0\n  3254: a0 = a2 <u a0\n  3257: a4 = u64 [s1 + 0x140]\n  3261: a0 = a0 + a4\n  3264: u64 [a5 + 0x640] = t1\n  3268: u64 [a5 + 0x638] = t2\n  3272: u64 [a5 + 0x630] = ra\n  3276: a4 = a5 + 0x600\n  3280: u64 [a4 + 0x28] = a3\n  3283: u64 [a4 + 0x60] = a0\n  3286: u64 [a4 + 0x58] = a2\n  3289: u64 [a4 + 0x50] = a1\n  3292: a0 = s1 + 0x1f40\n  3296: a1 = s1 + 0x1f20\n  3300: a2 = s1 + 0x1f00\n  3304: u64 [a5 + 0x648] = t0\n  3308: ra = 126, jump @1084\n      : @129 [@dyn 63] (gas: 40)\n  3313: a1 = s1 + 0x18d8\n  3317: a5 = a1 + 0x600\n  3321: a0 = u64 [a5 + 0x70]\n  3324: a2 = u64 [a5 + 0x80]\n  3328: a4 = u64 [a5 + 0x68]\n  3331: u64 [s1 + 0x148] = a4\n  3335: a3 = u64 [a5 + 0x78]\n  3338: t0 = u64 [s1 + 0x110]\n  3342: ra = a0 ^ t0\n  3345: a5 = a0 <u t0\n  3348: t1 = u64 [s1 + 0x138]\n  3352: t2 = a4 <u t1\n  3355: a5 = t2 if ra == 0\n  3358: a1 = u64 [s1 + 0x118]\n  3362: a4 = a3 - a1\n  3365: a3 = a3 <u a1\n  3368: ra = a1\n  3370: a1 = u64 [s1 + 0x120]\n  3374: a2 = a2 - a1\n  3377: a2 = a2 - a3\n  3380: a3 = a4 <u a5\n  3383: a2 = a2 - a3\n  3386: a4 = a4 - a5\n  3389: a0 = a0 - t0\n  3392: t2 = a0 - t2\n  3395: a3 = u64 [s1 + 0x148]\n  3399: a3 = a3 - t1\n  3402: a0 = s1 + 0x18d8\n  3406: u64 [a0 + 0x5e8] = a3\n  3410: u64 [a0 + 0x620] = a1\n  3414: u64 [a0 + 0x618] = ra\n  3418: u64 [a0 + 0x610] = t0\n  3422: u64 [a0 + 0x608] = t1\n  3426: u64 [a0 + 0x5f0] = t2\n  3430: u64 [a0 + 0x5f8] = a4\n  3434: a3 = a0\n  3436: a0 = s1 + 0x1ee0\n  3440: a1 = s1 + 0x1ec0\n  3444: u64 [a3 + 0x600] = a2\n  3448: ra = 128, jump @1126\n      : @130 [@dyn 64] (gas: 9)\n  3454: a0 = 0xffffffa0\n  3464: a2 = s1 + 0x100\n  3468: a1 = u64 [a2 + 0x58]\n  3471: a0 = a1 <u a0\n  3474: a1 = u64 [a2 + 0x50]\n  3477: a0 = 0 if a1 != 0\n  3479: a1 = u64 [a2 + 0x28]\n  3482: a0 = 0 if a1 != 0\n  3484: jump @132 if a0 != 0\n      : @131 (gas: 1)\n  3487: jump @747\n      : @132 (gas: 16)\n  3490: a0 = u64 [s1 + 0x158]\n  3494: i32 a2 = a0 + 0x60\n  3497: a3 = s1 + 0x18d8\n  3501: a0 = u64 [s1 + 0x138]\n  3505: a4 = a3 + 0x500\n  3509: u64 [a4 + 0xc8] = a0\n  3513: a0 = u64 [s1 + 0x110]\n  3517: u64 [a4 + 0xd0] = a0\n  3521: a0 = u64 [s1 + 0x118]\n  3525: u64 [a4 + 0xd8] = a0\n  3529: a1 = s1 + 0x1ea0\n  3533: a0 = u64 [s1 + 0x120]\n  3537: u64 [a4 + 0xe0] = a0\n  3541: u64 [s1 + 0x130] = a2\n  3545: a0 = a2\n  3547: ra = 130, jump @12\n      : @133 [@dyn 65] (gas: 3)\n  3553: a0 = s1 + 0x1e80\n  3557: a1 = 0x40\n  3560: ra = 132, jump @10\n      : @134 [@dyn 66] (gas: 19)\n  3566: a4 = s1 + 0x18d8\n  3570: a5 = a4 + 0x500\n  3574: a2 = u64 [a5 + 0xc0]\n  3578: a3 = u64 [a5 + 0xb8]\n  3582: a0 = u64 [a5 + 0xb0]\n  3586: a1 = u64 [a5 + 0xa8]\n  3590: a5 = s1 + 0x100\n  3594: u64 [a5 + 0x48] = a0\n  3597: u64 [a5 + 0x40] = a2\n  3600: a0 = a0 | a2\n  3603: u64 [a5 + 0x50] = a1\n  3606: a1 = a1 | a3\n  3609: a1 = a1 | a0\n  3612: a1 = a1 >> 0x20\n  3615: u64 [a5 + 0x38] = a3\n  3618: a0 = a0 | a3\n  3621: a0 = a0 << 0x20\n  3624: a0 = a0 | a1\n  3627: jump @136 if a0 == 0\n      : @135 (gas: 1)\n  3630: jump @747\n      : @136 (gas: 7)\n  3633: u64 [a4 + 1440] = 0\n  3637: u64 [a4 + 1432] = 0\n  3641: u64 [a4 + 1424] = 0\n  3645: a1 = s1 + 0x1e60\n  3649: u64 [a4 + 1416] = 0x20\n  3654: a0 = u64 [s1 + 0x150]\n  3658: ra = 134, jump @12\n      : @137 [@dyn 67] (gas: 3)\n  3664: a0 = s1 + 0x1e40\n  3668: a1 = u64 [s1 + 0x158]\n  3672: ra = 136, jump @10\n      : @138 [@dyn 68] (gas: 14)\n  3678: a3 = s1 + 0x100\n  3682: a0 = u64 [a3 + 0x40]\n  3685: a2 = u64 [a3 + 0x38]\n  3688: a2 = a2 | a0\n  3691: a0 = 0x100000000\n  3701: u64 [a3 + 0x28] = a0\n  3704: a0 = 0xffffffe0\n  3714: a1 = u64 [a3 + 0x50]\n  3717: a0 = a1 <u a0\n  3720: a1 = u64 [a3 + 0x48]\n  3723: a0 = 0 if a1 != 0\n  3725: u64 [a3 + 0x58] = a2\n  3728: a0 = 0 if a2 != 0\n  3730: jump @140 if a0 != 0\n      : @139 (gas: 1)\n  3733: jump @747\n      : @140 (gas: 15)\n  3736: a5 = s1 + 0x18d8\n  3740: t0 = u64 [a5 + 0x580]\n  3744: a1 = u64 [a5 + 0x578]\n  3748: a3 = u64 [a5 + 0x570]\n  3752: a4 = u64 [a5 + 0x568]\n  3756: a2 = i32 [s1 + 0x150]\n  3760: u64 [s1 + 0x120] = a2\n  3764: i32 a0 = a2 + 0x20\n  3767: a2 = a5 + 0x500\n  3771: u64 [a2 + 0x48] = a4\n  3774: u64 [a2 + 0x50] = a3\n  3777: u64 [a2 + 0x58] = a1\n  3780: a1 = s1 + 0x1e20\n  3784: u64 [a5 + 0x560] = t0\n  3788: ra = 138, jump @12\n      : @141 [@dyn 69] (gas: 3)\n  3794: a0 = s1 + 0x1e00\n  3798: a1 = u64 [s1 + 0x108]\n  3802: ra = 140, jump @10\n      : @142 [@dyn 70] (gas: 4)\n  3808: a2 = s1 + 0x100\n  3812: a0 = u64 [a2 + 0x28]\n  3815: a0 = a0 + 0xffffffffffffffc0\n  3818: t0 = 142, jump @1229\n      : @143 [@dyn 71] (gas: 1)\n  3825: jump @145 if a0 != 0\n      : @144 (gas: 1)\n  3828: jump @747\n      : @145 (gas: 16)\n  3831: a5 = s1 + 0x18d8\n  3835: a1 = u64 [a5 + 0x538]\n  3839: a2 = u64 [a5 + 0x530]\n  3843: a3 = u64 [a5 + 0x528]\n  3847: a4 = 0xffffffff\n  3857: a4 = a4 & a1\n  3860: a2 = a2 & 0xffffffffffffffff\n  3863: a3 = a3 & 0xffffffffffffffff\n  3866: a0 = u64 [s1 + 0x120]\n  3870: i32 a0 = a0 + 0x40\n  3873: u64 [a5 + 1312] = 0\n  3877: u64 [a5 + 0x508] = a3\n  3881: u64 [a5 + 0x510] = a2\n  3885: a1 = s1 + 0x1de0\n  3889: u64 [a5 + 0x518] = a4\n  3893: ra = 144, jump @12\n      : @146 [@dyn 72] (gas: 3)\n  3899: a0 = s1 + 0x1dc0\n  3903: a1 = u64 [s1 + 0x100]\n  3907: ra = 146, jump @10\n      : @147 [@dyn 73] (gas: 5)\n  3913: a0 = 0x100000000\n  3923: a2 = s1 + 0x100\n  3927: u64 [a2 + 0x28] = a0\n  3930: a0 = 0xffffffa0\n  3940: t0 = 148, jump @1229\n      : @148 [@dyn 74] (gas: 1)\n  3947: jump @150 if a0 != 0\n      : @149 (gas: 1)\n  3950: jump @747\n      : @150 (gas: 14)\n  3953: a5 = s1 + 0x18d8\n  3957: a2 = u64 [a5 + 0x500]\n  3961: a1 = u64 [a5 + 0x4f8]\n  3965: a3 = u64 [a5 + 0x4f0]\n  3969: a4 = u64 [a5 + 0x4e8]\n  3973: a0 = u64 [s1 + 0x120]\n  3977: i32 a0 = a0 + 0x60\n  3980: u64 [a5 + 0x4c8] = a4\n  3984: a4 = a5 + 0x400\n  3988: u64 [a4 + 0xd0] = a3\n  3992: u64 [a4 + 0xd8] = a1\n  3996: a1 = s1 + 0x1da0\n  4000: u64 [a4 + 0xe0] = a2\n  4004: ra = 150, jump @12\n      : @151 [@dyn 75] (gas: 3)\n  4010: a0 = s1 + 0x1d80\n  4014: a1 = u64 [s1 + 0x130]\n  4018: ra = 152, jump @10\n      : @152 [@dyn 76] (gas: 4)\n  4024: a2 = s1 + 0x100\n  4028: a0 = u64 [a2 + 0x28]\n  4031: a0 = a0 + 0xffffffffffffff80\n  4034: t0 = 154, jump @1229\n      : @153 [@dyn 77] (gas: 1)\n  4041: jump @155 if a0 != 0\n      : @154 (gas: 1)\n  4044: jump @747\n      : @155 (gas: 18)\n  4047: a2 = s1 + 0x18d8\n  4051: a3 = a2 + 0x400\n  4055: a0 = u64 [a3 + 0xc0]\n  4059: u64 [s1 + 0x118] = a0\n  4063: a0 = u64 [a3 + 0xb8]\n  4067: u64 [s1 + 0x128] = a0\n  4071: a0 = u64 [a3 + 0xb0]\n  4075: u64 [s1 + 0x130] = a0\n  4079: a0 = u64 [a3 + 0xa8]\n  4083: u64 [s1 + 0x158] = a0\n  4087: a0 = u64 [s1 + 0x120]\n  4091: i32 a0 = a0 + 0x80\n  4095: u64 [a2 + 1184] = 0\n  4099: u64 [a2 + 1176] = 0\n  4103: u64 [a3 + 136] = 0x80\n  4109: a1 = s1 + 0x1d60\n  4113: u64 [a2 + 1168] = 0\n  4117: ra = 156, jump @12\n      : @156 [@dyn 78] (gas: 5)\n  4123: a1 = u64 [s1 + 0x150]\n  4127: a0 = a1 + 0xa0\n  4131: a1 = a0 <u a1\n  4134: a3 = u64 [s1 + 0x148]\n  4138: t0 = 158, jump @1243\n      : @157 [@dyn 79] (gas: 2)\n  4145: a1 = u64 [s1 + 0x138]\n  4149: t0 = 160, jump @1254\n      : @158 [@dyn 80] (gas: 18)\n  4156: a5 = a1 + 0x400\n  4160: u64 [a5 + 0x30] = a2\n  4163: u64 [a5 + 0x28] = a0\n  4166: a0 = u64 [s1 + 0x118]\n  4170: u64 [a5 + 0x60] = a0\n  4173: a0 = u64 [s1 + 0x128]\n  4177: u64 [a5 + 0x58] = a0\n  4180: a0 = u64 [s1 + 0x130]\n  4184: u64 [a5 + 0x50] = a0\n  4187: a0 = u64 [s1 + 0x158]\n  4191: u64 [a5 + 0x48] = a0\n  4194: u64 [a5 + 0x38] = a3\n  4197: a3 = a1\n  4199: a0 = s1 + 0x1d40\n  4203: a1 = s1 + 0x1d20\n  4207: a2 = s1 + 0x1d00\n  4211: u64 [a3 + 0x440] = a4\n  4215: ra = 162, jump @1057\n      : @159 [@dyn 81] (gas: 26)\n  4221: a1 = s1 + 0x18d8\n  4225: a0 = u64 [a1 + 0x470]\n  4229: t0 = u64 [a1 + 0x480]\n  4233: t1 = u64 [a1 + 0x468]\n  4237: a3 = u64 [a1 + 0x478]\n  4241: a1 = u64 [s1 + 0x148]\n  4245: a4 = a0 ^ a1\n  4248: a5 = a0 <u a1\n  4251: ra = a1\n  4253: t2 = u64 [s1 + 0x150]\n  4257: a1 = t1 <u t2\n  4260: a5 = a1 if a4 == 0\n  4263: a2 = u64 [s1 + 0x138]\n  4267: a4 = a3 - a2\n  4270: a3 = a3 <u a2\n  4273: a2 = u64 [s1 + 0x140]\n  4277: a2 = t0 - a2\n  4280: a2 = a2 - a3\n  4283: a3 = a4 <u a5\n  4286: a2 = a2 - a3\n  4289: a4 = a4 - a5\n  4292: a0 = a0 - ra\n  4295: a1 = a0 - a1\n  4298: a0 = t1 - t2\n  4301: a1 = a1 | a2\n  4304: t0 = 164, jump @1235\n      : @160 [@dyn 82] (gas: 1)\n  4311: jump @162 if a1 == 0\n      : @161 (gas: 1)\n  4314: jump @747\n      : @162 (gas: 5)\n  4317: i32 a1 = a0 + 0\n  4319: u64 [s1 + 0x158] = a1\n  4323: a0 = u64 [s1 + 0x120]\n  4327: ra = 0x4ec\n  4331: jump @0\n      : @163 (gas: 1)\n  4334: t0 = 166, jump @1201\n      : @164 [@dyn 83] (gas: 4)\n  4341: ra = 0xa8\n  4345: ecalli 11 // 'value_transferred'\n  4347: t0 = 0xaa\n  4351: jump @1204\n      : @165 [@dyn 84] (gas: 1)\n  4355: t0 = 170, jump @1204\n      : @166 [@dyn 85] (gas: 1)\n  4362: jump @168 if a0 == 0\n      : @167 (gas: 1)\n  4365: jump @945\n      : @168 (gas: 3)\n  4368: a0 = u64 [s1 + 0x158]\n  4372: a0 = i32 [a0]\n  4374: jump @170 if a0 >u 67\n      : @169 (gas: 1)\n  4378: jump @945\n      : @170 (gas: 18)\n  4381: a0 = s1 + 0x4000\n  4385: i32 a0 = a0 + 0xfffffffffffffc80\n  4389: a1 = 0x4\n  4392: ecalli 1 // 'call_data_load'\n  4394: a1 = s1 + 0x38d8\n  4398: a2 = a1 + 0x300\n  4402: a0 = u64 [a2 + 0xc0]\n  4406: u64 [s1 + 0x140] = a0\n  4410: a0 = u64 [a2 + 0xb8]\n  4414: u64 [s1 + 0x148] = a0\n  4418: a0 = u64 [a2 + 0xb0]\n  4422: u64 [s1 + 0x150] = a0\n  4426: a0 = u64 [a2 + 0xa8]\n  4430: u64 [s1 + 0x158] = a0\n  4434: a0 = s1 + 0x3860\n  4438: ra = 0xac\n  4442: t0 = 0x508\n  4446: jump @1252\n      : @171 [@dyn 86] (gas: 15)\n  4450: a0 = s1 + 0x30d8\n  4454: a1 = u64 [a0 + 0x788]\n  4458: u64 [s1 + 0x138] = a1\n  4462: a1 = u64 [a0 + 0x790]\n  4466: u64 [s1 + 0x130] = a1\n  4470: a1 = u32 [a0 + 0x798]\n  4474: u64 [s1 + 0x128] = a1\n  4478: u64 [a0 + 1888] = 0\n  4482: u64 [a0 + 1880] = 0\n  4486: u64 [a0 + 1872] = 0\n  4490: a2 = a0\n  4492: a0 = s1 + 0x3840\n  4496: a1 = s1 + 0x3820\n  4500: u64 [a2 + 1864] = 0\n  4504: ra = 174, jump @14\n      : @172 [@dyn 87] (gas: 12)\n  4510: a0 = s1 + 0x30d8\n  4514: a1 = u64 [a0 + 0x770]\n  4518: u64 [s1 + 0x120] = a1\n  4522: a1 = u64 [a0 + 0x768]\n  4526: u64 [s1 + 0x118] = a1\n  4530: a0 = u32 [a0 + 0x778]\n  4534: u64 [s1 + 0x110] = a0\n  4538: a0 = s1 + 0x4000\n  4542: i32 a0 = a0 + 0xfffffffffffffca0\n  4546: ra = 0xb0\n  4550: ecalli 3 // 'caller'\n  4552: fallthrough\n      : @173 [@dyn 88] (gas: 5)\n  4553: a2 = s1 + 0x38d8\n  4557: a0 = u64 [a2 + 0x3d0]\n  4561: a1 = u64 [a2 + 0x3c8]\n  4565: a2 = i32 [a2 + 0x3d8]\n  4569: t0 = 178, jump @1211\n      : @174 [@dyn 89] (gas: 6)\n  4576: u64 [a1 + 1856] = 0\n  4580: u64 [a1 + 1848] = 0\n  4584: u64 [a1 + 0x728] = a0\n  4588: a0 = s1 + 0x3800\n  4592: u64 [a1 + 1840] = 0\n  4596: ra = 180, jump @1185\n      : @175 [@dyn 90] (gas: 1)\n  4603: t0 = 182, jump @1248\n      : @176 [@dyn 91] (gas: 11)\n  4610: a3 = a2 + 0x700\n  4614: u64 [a3 + 0x20] = a0\n  4617: a0 = u64 [s1 + 0x148]\n  4621: u64 [a3 + 0x18] = a0\n  4624: a0 = u64 [s1 + 0x150]\n  4628: u64 [a3 + 0x10] = a0\n  4631: a1 = s1 + 0x37e0\n  4635: a0 = u64 [s1 + 0x158]\n  4639: u64 [a3 + 0x8] = a0\n  4642: a0 = 0\n  4644: ra = 184, jump @12\n      : @177 [@dyn 92] (gas: 9)\n  4650: a0 = s1 + 0x30d8\n  4654: u64 [a0 + 1792] = 0\n  4658: u64 [a0 + 1784] = 0\n  4662: u64 [a0 + 1776] = 0\n  4666: a3 = a0\n  4668: a0 = 0x20\n  4671: a1 = s1 + 0x37c0\n  4675: u64 [a3 + 1768] = 0x6\n  4680: ra = 186, jump @12\n      : @178 [@dyn 93] (gas: 3)\n  4686: a1 = 0x40\n  4689: a0 = 0\n  4691: ra = 188, jump @0\n      : @179 [@dyn 94] (gas: 1)\n  4697: t0 = 190, jump @1205\n      : @180 [@dyn 95] (gas: 4)\n  4704: ra = 0xc0\n  4708: ecalli 6 // 'hash_keccak_256'\n  4710: t0 = 0xc2\n  4714: jump @1203\n      : @181 [@dyn 96] (gas: 1)\n  4718: t0 = 194, jump @1203\n      : @182 [@dyn 97] (gas: 11)\n  4725: u64 [a2 + 1760] = 0\n  4729: a0 = u64 [s1 + 0x128]\n  4733: a3 = a2 + 0x600\n  4737: u64 [a3 + 0xd8] = a0\n  4741: a0 = u64 [s1 + 0x130]\n  4745: u64 [a3 + 0xd0] = a0\n  4749: a1 = s1 + 0x37a0\n  4753: a0 = u64 [s1 + 0x138]\n  4757: u64 [a3 + 0xc8] = a0\n  4761: a0 = 0\n  4763: ra = 196, jump @12\n      : @183 [@dyn 98] (gas: 4)\n  4769: t0 = 0xc6\n  4773: a2 = s1 + 0x30d8\n  4777: a0 = u64 [s1 + 0x108]\n  4781: fallthrough\n      : @184 [@dyn 99] (gas: 11)\n  4782: a4 = a2 + 0x600\n  4786: u64 [a4 + 0xc0] = a0\n  4790: a0 = u64 [s1 + 0x110]\n  4794: u64 [a4 + 0xb8] = a0\n  4798: a0 = u64 [s1 + 0x118]\n  4802: u64 [a4 + 0xb0] = a0\n  4806: a0 = 0x20\n  4809: a1 = s1 + 0x3780\n  4813: a3 = u64 [s1 + 0x120]\n  4817: u64 [a4 + 0xa8] = a3\n  4821: ra = 200, jump @12\n      : @185 [@dyn 100] (gas: 3)\n  4827: a1 = 0x40\n  4830: a0 = 0\n  4832: ra = 202, jump @0\n      : @186 [@dyn 101] (gas: 1)\n  4838: t0 = 204, jump @1205\n      : @187 [@dyn 102] (gas: 5)\n  4845: ra = 0xce\n  4849: ecalli 6 // 'hash_keccak_256'\n  4851: a3 = u64 [s1 + 0x120]\n  4855: t0 = 0xd0\n  4859: jump @1213\n      : @188 [@dyn 103] (gas: 2)\n  4863: a3 = u64 [s1 + 0x120]\n  4867: t0 = 208, jump @1213\n      : @189 [@dyn 104] (gas: 8)\n  4874: a5 = a3 + 0x600\n  4878: u64 [a5 + 0x80] = a2\n  4882: u64 [a5 + 0x78] = a1\n  4885: u64 [a5 + 0x70] = a0\n  4888: a0 = s1 + 0x3760\n  4892: a1 = s1 + 0x3740\n  4896: u64 [a5 + 0x68] = a4\n  4899: ra = 210, jump @14\n      : @190 [@dyn 105] (gas: 3)\n  4905: a0 = s1 + 0x30d8\n  4909: a0 = u8 [a0 + 0x688]\n  4913: jump @192 if a0 != 0\n      : @191 (gas: 1)\n  4916: jump @947\n      : @192 (gas: 3)\n  4919: a0 = s1 + 0x3720\n  4923: a1 = 0x40\n  4926: ra = 212, jump @10\n      : @193 [@dyn 106] (gas: 2)\n  4932: a2 = s1 + 0x30d8\n  4936: fallthrough\n      : @194 (gas: 13)\n  4937: t0 = u64 [a2 + 0x660]\n  4941: a1 = a2 + 0x600\n  4945: a5 = u64 [a1 + 0x58]\n  4948: a3 = u64 [a1 + 0x50]\n  4951: a0 = u64 [a1 + 0x48]\n  4954: a4 = a3 | t0\n  4957: a1 = a0 | a5\n  4960: a1 = a1 | a4\n  4963: a1 = a1 >> 0x20\n  4966: a4 = a4 | a5\n  4969: a4 = a4 << 0x20\n  4972: a1 = a1 | a4\n  4975: jump @196 if a1 == 0\n      : @195 (gas: 1)\n  4978: jump @747\n      : @196 (gas: 11)\n  4981: u64 [a2 + 1592] = 0\n  4985: u64 [a2 + 1584] = 0\n  4989: u64 [a2 + 1576] = 0\n  4993: a4 = 0x8c379a000000000\n  5003: a1 = s1 + 0x3700\n  5007: u64 [a2 + 0x640] = a4\n  5011: u64 [s1 + 0x158] = a3\n  5015: u64 [s1 + 0x150] = a0\n  5019: u64 [s1 + 0x140] = t0\n  5023: u64 [s1 + 0x148] = a5\n  5027: ra = 214, jump @12\n      : @197 [@dyn 107] (gas: 1)\n  5033: t0 = 216, jump @1206\n      : @198 [@dyn 108] (gas: 1)\n  5040: jump @200 if a0 != 0\n      : @199 (gas: 1)\n  5043: jump @747\n      : @200 (gas: 12)\n  5046: i32 a0 = a2 + 0\n  5048: u64 [s1 + 0x138] = a0\n  5052: i32 a0 = a0 + 0x4\n  5055: a2 = s1 + 0x30d8\n  5059: u64 [a2 + 1568] = 0\n  5063: u64 [a2 + 1560] = 0\n  5067: u64 [a2 + 1544] = 0x20\n  5072: a1 = s1 + 0x36e0\n  5076: u64 [a2 + 1552] = 0\n  5080: u64 [s1 + 0x148] = a3\n  5084: u64 [s1 + 0x140] = a4\n  5088: ra = 218, jump @12\n      : @201 [@dyn 109] (gas: 1)\n  5094: t0 = 220, jump @1214\n      : @202 [@dyn 110] (gas: 1)\n  5101: jump @204 if a0 != 0\n      : @203 (gas: 1)\n  5104: jump @747\n      : @204 (gas: 9)\n  5107: a0 = u64 [s1 + 0x138]\n  5111: i32 a0 = a0 + 0x24\n  5114: a4 = s1 + 0x30d8\n  5118: u64 [a4 + 1536] = 0\n  5122: u64 [a4 + 1528] = 0\n  5126: u64 [a4 + 1512] = 0xf\n  5131: a1 = s1 + 0x36c0\n  5135: u64 [a4 + 1520] = 0\n  5139: ra = 222, jump @12\n      : @205 [@dyn 111] (gas: 1)\n  5145: t0 = 224, jump @1208\n      : @206 [@dyn 112] (gas: 1)\n  5152: jump @208 if a0 != 0\n      : @207 (gas: 1)\n  5155: jump @747\n      : @208 (gas: 12)\n  5158: a0 = u64 [s1 + 0x138]\n  5162: i32 a0 = a0 + 0x44\n  5165: a1 = u64 [0x20000]\n  5170: a2 = u64 [0x20008]\n  5175: a3 = s1 + 0x30d8\n  5179: u64 [a3 + 0x5e0] = a1\n  5183: u64 [a3 + 1488] = 0\n  5187: u64 [a3 + 0x5d8] = a2\n  5191: a1 = s1 + 0x36a0\n  5195: u64 [a3 + 1480] = 0\n  5199: ra = 0x35e\n  5203: jump @12\n      : @209 (gas: 1)\n  5206: t0 = 226, jump @1201\n      : @210 [@dyn 113] (gas: 4)\n  5213: ra = 0xe4\n  5217: ecalli 11 // 'value_transferred'\n  5219: t0 = 0xe6\n  5223: jump @1204\n      : @211 [@dyn 114] (gas: 1)\n  5227: t0 = 230, jump @1204\n      : @212 [@dyn 115] (gas: 1)\n  5234: jump @214 if a0 == 0\n      : @213 (gas: 1)\n  5237: jump @945\n      : @214 (gas: 1)\n  5240: t0 = 232, jump @1251\n      : @215 [@dyn 116] (gas: 1)\n  5247: jump @217 if a1 <u a0\n      : @216 (gas: 1)\n  5250: jump @945\n      : @217 (gas: 4)\n  5253: a0 = s1 + 0x1460\n  5257: ra = 0xea\n  5261: t0 = 0x4fc\n  5265: jump @1252\n      : @218 [@dyn 117] (gas: 12)\n  5269: a3 = s1 + 0x10d8\n  5273: a4 = a3 + 0x300\n  5277: a0 = u64 [a4 + 0x88]\n  5281: a1 = u64 [a4 + 0x90]\n  5285: a2 = u32 [a3 + 0x398]\n  5289: u64 [a3 + 896] = 0\n  5293: u64 [a4 + 0x78] = a2\n  5296: u64 [a4 + 0x70] = a1\n  5299: a1 = s1 + 0x1440\n  5303: u64 [a4 + 0x68] = a0\n  5306: a0 = 0\n  5308: ra = 236, jump @12\n      : @219 [@dyn 118] (gas: 3)\n  5314: t0 = 0xee\n  5318: a2 = s1 + 0x10d8\n  5322: fallthrough\n      : @220 [@dyn 119] (gas: 7)\n  5323: u64 [a2 + 864] = 0\n  5327: u64 [a2 + 856] = 0\n  5331: u64 [a2 + 840] = 0x5\n  5336: a0 = 0x20\n  5339: a1 = s1 + 0x1420\n  5343: u64 [a2 + 848] = 0\n  5347: ra = 240, jump @12\n      : @221 [@dyn 120] (gas: 3)\n  5353: a1 = 0x40\n  5356: a0 = 0\n  5358: ra = 242, jump @0\n      : @222 [@dyn 121] (gas: 1)\n  5364: t0 = 244, jump @1202\n      : @223 [@dyn 122] (gas: 4)\n  5371: ra = 0xf6\n  5375: ecalli 6 // 'hash_keccak_256'\n  5377: t0 = 0xf8\n  5381: jump @1238\n      : @224 [@dyn 123] (gas: 1)\n  5385: t0 = 248, jump @1238\n      : @225 [@dyn 124] (gas: 10)\n  5392: u64 [s1 + 0x158] = a0\n  5396: a0 = reverse a1\n  5398: u64 [s1 + 0x150] = a0\n  5402: a0 = reverse a2\n  5404: u64 [s1 + 0x148] = a0\n  5408: a0 = reverse a3\n  5410: u64 [s1 + 0x140] = a0\n  5414: a0 = s1 + 0x1400\n  5418: a1 = 0x40\n  5421: ra = 250, jump @10\n      : @226 [@dyn 125] (gas: 23)\n  5427: a0 = s1 + 0x10d8\n  5431: a2 = a0 + 0x300\n  5435: a1 = u64 [a2 + 0x40]\n  5438: u64 [s1 + 0xb0] = a1\n  5442: a1 = u64 [a2 + 0x38]\n  5445: u64 [s1 + 0xa8] = a1\n  5449: a1 = u64 [a2 + 0x30]\n  5452: u64 [s1 + 0xa0] = a1\n  5456: a1 = u64 [a2 + 0x28]\n  5459: u64 [s1 + 0xb8] = a1\n  5463: a4 = s1 + 0x100\n  5467: a1 = u64 [a4 + 0x40]\n  5470: u64 [a2] = a1\n  5472: a1 = u64 [a4 + 0x48]\n  5475: u64 [a0 + 0x2f8] = a1\n  5479: a1 = u64 [a4 + 0x50]\n  5482: u64 [a0 + 0x2f0] = a1\n  5486: a2 = a0\n  5488: a0 = s1 + 0x13e0\n  5492: a1 = s1 + 0x13c0\n  5496: a3 = u64 [a4 + 0x58]\n  5499: u64 [a2 + 0x2e8] = a3\n  5503: ra = 252, jump @14\n      : @227 [@dyn 126] (gas: 12)\n  5509: t2 = u64 [s1 + 0xa0]\n  5513: a4 = u64 [s1 + 0xa8]\n  5517: a3 = u64 [s1 + 0xb0]\n  5521: a0 = u64 [s1 + 0xb8]\n  5525: a2 = t2 | a3\n  5528: a1 = a0 | a4\n  5531: a1 = a1 | a2\n  5534: a1 = a1 >> 0x20\n  5537: a2 = a2 | a4\n  5540: a2 = a2 << 0x20\n  5543: a1 = a1 | a2\n  5546: jump @229 if a1 == 0\n      : @228 (gas: 1)\n  5549: jump @747\n      : @229 (gas: 16)\n  5552: a1 = s1 + 0x10d8\n  5556: t0 = u64 [a1 + 0x320]\n  5560: t1 = u64 [a1 + 0x318]\n  5564: a2 = u64 [a1 + 0x310]\n  5568: a5 = u64 [a1 + 0x308]\n  5572: u64 [s1 + 0xe0] = a5\n  5576: u64 [a1 + 0x2c8] = a5\n  5580: u64 [s1 + 0xe8] = a2\n  5584: u64 [a1 + 0x2d0] = a2\n  5588: u64 [s1 + 0xf0] = t1\n  5592: u64 [a1 + 0x2d8] = t1\n  5596: a2 = a1\n  5598: a1 = s1 + 0x13a0\n  5602: u64 [s1 + 0xf8] = t0\n  5606: u64 [a2 + 0x2e0] = t0\n  5610: ra = 254, jump @12\n      : @230 [@dyn 127] (gas: 30)\n  5616: a1 = u64 [s1 + 0xb8]\n  5620: a0 = a1 + 0x20\n  5623: u64 [s1 + 0xc8] = a0\n  5627: a0 = a0 <u a1\n  5630: a2 = u64 [s1 + 0xa0]\n  5634: a1 = a2 + a0\n  5637: u64 [s1 + 0xd0] = a1\n  5641: a1 = a1 <u a2\n  5644: a1 = a0 if a0 == 0\n  5647: a0 = u64 [s1 + 0xa8]\n  5651: a1 = a1 + a0\n  5654: u64 [s1 + 0xc0] = a1\n  5658: a0 = a1 <u a0\n  5661: a1 = u64 [s1 + 0xb0]\n  5665: a0 = a0 + a1\n  5668: u64 [s1 + 0xd8] = a0\n  5672: a0 = u64 [s1 + 0x140]\n  5676: a1 = s1 + 0x10d8\n  5680: a2 = a1 + 0x200\n  5684: u64 [a2 + 0xc0] = a0\n  5688: a0 = u64 [s1 + 0x148]\n  5692: u64 [a2 + 0xb8] = a0\n  5696: a0 = u64 [s1 + 0x150]\n  5700: u64 [a2 + 0xb0] = a0\n  5704: a2 = a1\n  5706: a1 = s1 + 0x1380\n  5710: a0 = u64 [s1 + 0x158]\n  5714: u64 [a2 + 0x2a8] = a0\n  5718: a0 = 0\n  5720: ra = 256, jump @12\n      : @231 [@dyn 128] (gas: 3)\n  5726: a1 = 0x20\n  5729: a0 = 0\n  5731: ra = 258, jump @0\n      : @232 [@dyn 129] (gas: 4)\n  5737: a1 = sp + 0xffffffffffffffe0\n  5740: a1 = a1 & 0xffffffffffffffe0\n  5743: u64 [s1 + 0x158] = a1\n  5747: t0 = 260, jump @1215\n      : @233 [@dyn 130] (gas: 27)\n  5754: ecalli 6 // 'hash_keccak_256'\n  5756: t0 = 0\n  5758: t1 = 0\n  5760: a5 = 0\n  5762: ra = 0\n  5764: a4 = s1 + 0x100\n  5768: a3 = u64 [a4 + 0x58]\n  5771: a0 = u64 [a3]\n  5773: a1 = u64 [a3 + 0x8]\n  5776: a2 = u64 [a3 + 0x10]\n  5779: a3 = u64 [a3 + 0x18]\n  5782: a0 = reverse a0\n  5784: u64 [a4 + 0x38] = a0\n  5787: t2 = reverse a1\n  5789: a0 = reverse a2\n  5791: u64 [a4 + 0x30] = a0\n  5794: a0 = reverse a3\n  5796: u64 [a4 + 0x28] = a0\n  5799: a0 = u64 [s1 + 0xc8]\n  5803: u64 [a4 + 0x58] = a0\n  5806: a0 = u64 [s1 + 0xd0]\n  5810: u64 [a4 + 0x50] = a0\n  5813: a0 = u64 [s1 + 0xc0]\n  5817: u64 [a4 + 0x48] = a0\n  5820: a0 = u64 [s1 + 0xd8]\n  5824: u64 [a4 + 0x40] = a0\n  5827: fallthrough\n      : @234 (gas: 16)\n  5828: a0 = u64 [s1 + 0xe0]\n  5832: a0 = t0 <u a0\n  5835: a2 = u64 [s1 + 0xe8]\n  5839: a1 = t1 ^ a2\n  5842: a2 = t1 <u a2\n  5845: a2 = a0 if a1 == 0\n  5848: a4 = u64 [s1 + 0xf0]\n  5852: a0 = a5 <u a4\n  5855: a3 = u64 [s1 + 0xf8]\n  5859: a1 = ra ^ a3\n  5862: a3 = ra <u a3\n  5865: a3 = a0 if a1 == 0\n  5868: a0 = a5 ^ a4\n  5871: a0 = a0 | a1\n  5874: a3 = a2 if a0 == 0\n  5877: jump @236 if a3 != 0\n      : @235 (gas: 1)\n  5880: jump @680\n      : @236 (gas: 17)\n  5883: u64 [s1 + 0x108] = a5\n  5887: u64 [s1 + 0x110] = ra\n  5891: u64 [s1 + 0x118] = t1\n  5895: u64 [s1 + 0x120] = t0\n  5899: a3 = s1 + 0x10d8\n  5903: a0 = u64 [s1 + 0x128]\n  5907: a4 = a3 + 0x100\n  5911: u64 [a4 + 0x68] = a0\n  5914: a0 = u64 [s1 + 0x130]\n  5918: u64 [a4 + 0x70] = a0\n  5921: u64 [s1 + 0x100] = t2\n  5925: u64 [a3 + 0x178] = t2\n  5929: a0 = s1 + 0x1260\n  5933: a1 = s1 + 0x1240\n  5937: a2 = u64 [s1 + 0x138]\n  5941: u64 [a4 + 0x80] = a2\n  5945: ra = 262, jump @14\n      : @237 [@dyn 131] (gas: 13)\n  5951: a4 = s1 + 0x100\n  5955: a0 = u64 [a4 + 0x58]\n  5958: a3 = u64 [a4 + 0x48]\n  5961: a2 = a0 | a3\n  5964: a1 = u64 [a4 + 0x40]\n  5967: a5 = u64 [a4 + 0x50]\n  5970: a1 = a1 | a5\n  5973: a2 = a2 | a1\n  5976: a2 = a2 >> 0x20\n  5979: a1 = a1 | a3\n  5982: a1 = a1 << 0x20\n  5985: a1 = a1 | a2\n  5988: jump @239 if a1 == 0\n      : @238 (gas: 1)\n  5991: jump @747\n      : @239 (gas: 14)\n  5994: a4 = s1 + 0x10d8\n  5998: t0 = u64 [a4 + 0x1a0]\n  6002: a1 = u64 [a4 + 0x198]\n  6006: a2 = u64 [a4 + 0x190]\n  6010: u64 [s1 + 0x148] = a3\n  6014: a3 = u64 [a4 + 0x188]\n  6018: u64 [a4 + 0x148] = a3\n  6022: u64 [a4 + 0x150] = a2\n  6026: u64 [a4 + 0x158] = a1\n  6030: a1 = s1 + 0x1220\n  6034: u64 [a4 + 0x160] = t0\n  6038: u64 [s1 + 0x158] = a0\n  6042: u64 [s1 + 0x150] = a5\n  6046: ra = 264, jump @12\n      : @240 [@dyn 132] (gas: 46)\n  6052: a0 = u64 [s1 + 0x158]\n  6056: t2 = a0 + 0x20\n  6059: a2 = t2 <u a0\n  6062: a0 = u64 [s1 + 0x150]\n  6066: a1 = a0 + a2\n  6069: a3 = a1 <u a0\n  6072: a3 = a2 if a2 == 0\n  6075: a0 = u64 [s1 + 0x148]\n  6079: a2 = a0 + a3\n  6082: a3 = a2 <u a0\n  6085: a0 = u64 [s1 + 0x140]\n  6089: a0 = a0 + a3\n  6092: u64 [s1 + 0x140] = a0\n  6096: a0 = u64 [s1 + 0x128]\n  6100: a0 = a0 + 0x1\n  6103: a3 = a0 <u 0x1\n  6106: a4 = u64 [s1 + 0x130]\n  6110: a4 = a4 + a3\n  6113: u64 [s1 + 0x130] = a4\n  6117: u64 [s1 + 0x128] = a0\n  6121: a3 = a0 | a4\n  6124: a3 = a3 <u 0x1\n  6127: a0 = u64 [s1 + 0x100]\n  6131: a3 = a3 + a0\n  6134: a4 = a3 <u a0\n  6137: a0 = u64 [s1 + 0x138]\n  6141: a0 = a0 + a4\n  6144: u64 [s1 + 0x138] = a0\n  6148: t0 = u64 [s1 + 0x120]\n  6152: t0 = t0 + 0x1\n  6155: a4 = t0 <u 0x1\n  6158: t1 = u64 [s1 + 0x118]\n  6162: t1 = t1 + a4\n  6165: a4 = t0 | t1\n  6168: a4 = a4 <u 0x1\n  6171: a0 = u64 [s1 + 0x108]\n  6175: a4 = a4 + a0\n  6178: a5 = a4 <u a0\n  6181: ra = u64 [s1 + 0x110]\n  6185: ra = ra + a5\n  6188: u64 [s1 + 0x158] = t2\n  6192: u64 [s1 + 0x150] = a1\n  6196: u64 [s1 + 0x148] = a2\n  6200: t2 = a3\n  6202: a5 = a4\n  6204: jump @234\n      : @241 (gas: 1)\n  6207: t0 = 266, jump @1201\n      : @242 [@dyn 133] (gas: 4)\n  6213: ra = 0x10c\n  6217: ecalli 11 // 'value_transferred'\n  6219: t0 = 0x10e\n  6223: jump @1204\n      : @243 [@dyn 134] (gas: 1)\n  6226: t0 = 270, jump @1204\n      : @244 [@dyn 135] (gas: 1)\n  6232: jump @246 if a0 == 0\n      : @245 (gas: 1)\n  6235: jump @945\n      : @246 (gas: 4)\n  6238: a0 = u64 [s1 + 0x158]\n  6242: a0 = i32 [a0]\n  6244: a2 = s1 + 0x28d8\n  6248: jump @248 if a0 >u 3\n      : @247 (gas: 1)\n  6252: jump @945\n      : @248 (gas: 7)\n  6255: u64 [a2 + 1600] = 0\n  6259: u64 [a2 + 1592] = 0\n  6263: u64 [a2 + 1584] = 0\n  6267: a0 = s1 + 0x2f20\n  6271: a1 = s1 + 0x2f00\n  6275: u64 [a2 + 1576] = 0\n  6279: ra = 272, jump @14\n      : @249 [@dyn 136] (gas: 13)\n  6285: a0 = s1 + 0x28d8\n  6289: a0 = u64 [a0 + 0x658]\n  6293: a1 = s1 + 0x100\n  6297: u64 [a1 + 0x48] = a0\n  6300: a0 = s1 + 0x28d8\n  6304: a0 = u64 [a0 + 0x650]\n  6308: u64 [a1 + 0x58] = a0\n  6311: a0 = s1 + 0x28d8\n  6315: a0 = u64 [a0 + 0x648]\n  6319: u64 [a1 + 0x50] = a0\n  6322: a0 = s1 + 0x2ee0\n  6326: a1 = 0x40\n  6329: ra = 274, jump @10\n      : @250 [@dyn 137] (gas: 7)\n  6335: a3 = s1 + 0x28d8\n  6339: a5 = a3 + 0x600\n  6343: a4 = u64 [a5 + 0x20]\n  6346: a1 = u64 [a5 + 0x18]\n  6349: a2 = u64 [a5 + 0x10]\n  6352: a0 = u64 [a5 + 0x8]\n  6355: t0 = 276, jump @1242\n      : @251 [@dyn 138] (gas: 1)\n  6362: jump @253 if a1 == 0\n      : @252 (gas: 1)\n  6365: jump @747\n      : @253 (gas: 15)\n  6368: a4 = s1 + 0x100\n  6372: a1 = u64 [a4 + 0x48]\n  6375: a1 = a1 << 0x20\n  6378: a2 = a1 >> 0x20\n  6381: u64 [a3 + 1536] = 0\n  6385: a1 = u64 [a4 + 0x50]\n  6388: a5 = a3 + 0x500\n  6392: u64 [a5 + 0xe8] = a1\n  6396: a1 = u64 [a4 + 0x58]\n  6399: u64 [a5 + 0xf0] = a1\n  6403: a1 = s1 + 0x2ec0\n  6407: u64 [a5 + 0xf8] = a2\n  6411: u64 [s1 + 0x158] = a0\n  6415: ra = 0x316\n  6419: jump @12\n      : @254 (gas: 1)\n  6422: t0 = 278, jump @1201\n      : @255 [@dyn 139] (gas: 4)\n  6428: ra = 0x118\n  6432: ecalli 11 // 'value_transferred'\n  6434: t0 = 0x11a\n  6438: jump @1204\n      : @256 [@dyn 140] (gas: 1)\n  6441: t0 = 282, jump @1204\n      : @257 [@dyn 141] (gas: 1)\n  6447: jump @259 if a0 == 0\n      : @258 (gas: 1)\n  6450: jump @945\n      : @259 (gas: 3)\n  6453: a0 = u64 [s1 + 0x158]\n  6457: a0 = i32 [a0]\n  6459: jump @261 if a0 >u 131\n      : @260 (gas: 1)\n  6464: jump @945\n      : @261 (gas: 33)\n  6467: a0 = s1 + 0x4000\n  6471: i32 a0 = a0 + 0xfffffffffffff9e0\n  6475: a1 = 0x4\n  6478: ecalli 1 // 'call_data_load'\n  6480: a1 = s1 + 0x38d8\n  6484: a2 = a1 + 0x100\n  6488: a0 = u64 [a2 + 0x20]\n  6491: u64 [s1 + 0x78] = a0\n  6494: a0 = u64 [a2 + 0x18]\n  6497: u64 [s1 + 0x80] = a0\n  6501: a0 = u64 [a2 + 0x10]\n  6504: u64 [s1 + 0x88] = a0\n  6508: a0 = u64 [a2 + 0x8]\n  6511: u64 [s1 + 0x90] = a0\n  6515: a0 = s1 + 0x4000\n  6519: i32 a0 = a0 + 0xfffffffffffffa00\n  6523: a1 = 0x24\n  6526: ecalli 1 // 'call_data_load'\n  6528: a1 = s1 + 0x38d8\n  6532: a2 = a1 + 0x100\n  6536: a0 = u64 [a2 + 0x40]\n  6539: u64 [s1 + 0xb0] = a0\n  6543: a0 = u64 [a2 + 0x38]\n  6546: u64 [s1 + 0xa8] = a0\n  6550: a0 = u64 [a2 + 0x30]\n  6553: u64 [s1 + 0xa0] = a0\n  6557: a0 = u64 [a2 + 0x28]\n  6560: u64 [s1 + 0x98] = a0\n  6564: a0 = s1 + 0x4000\n  6568: i32 a0 = a0 + 0xfffffffffffffa20\n  6572: a1 = 0x44\n  6575: ecalli 1 // 'call_data_load'\n  6577: fallthrough\n      : @262 (gas: 9)\n  6578: a5 = s1 + 0x38d8\n  6582: a3 = a5 + 0x100\n  6586: a0 = u64 [a3 + 0x60]\n  6589: a1 = u64 [a3 + 0x58]\n  6592: a2 = u64 [a3 + 0x50]\n  6595: a3 = a1 | a0\n  6598: a4 = a2 <u 0x1\n  6601: a4 = 0 if a3 != 0\n  6603: jump @264 if a4 != 0\n      : @263 (gas: 1)\n  6606: jump @945\n      : @264 (gas: 25)\n  6609: a3 = u64 [a5 + 0x148]\n  6613: a4 = u64 [s1 + 0x158]\n  6617: t0 = u32 [a4]\n  6619: a5 = a3 + 0x4\n  6622: a3 = a5 <u a3\n  6625: a4 = a2 + a3\n  6628: a2 = a4 <u a2\n  6631: a2 = a3 if a3 == 0\n  6634: a2 = a2 + a1\n  6637: a1 = a2 <u a1\n  6640: a3 = a0 + a1\n  6643: a0 = s1 + 0x10d8\n  6647: u64 [a0 + 32] = 0\n  6650: u64 [a0 + 24] = 0\n  6653: u64 [a0 + 16] = 0\n  6656: u64 [a0 + 0x8] = t0\n  6659: u64 [a0 + 0x28] = a5\n  6662: u64 [a0 + 0x30] = a4\n  6665: u64 [a0 + 0x38] = a2\n  6668: a4 = a0\n  6670: a0 = s1 + 0x1120\n  6674: a1 = s1 + 0x1100\n  6678: a2 = s1 + 0x10e0\n  6682: u64 [a4 + 0x40] = a3\n  6685: ra = 284, jump @1031\n      : @265 [@dyn 142] (gas: 23)\n  6691: a1 = s1 + 0x10d8\n  6695: a0 = u64 [a1 + 0x60]\n  6698: a2 = s1 + 0x100\n  6702: u64 [a2 + 0x18] = a0\n  6705: a0 = u64 [a1 + 0x58]\n  6708: u64 [a2 + 0x20] = a0\n  6711: a0 = u64 [a1 + 0x50]\n  6714: u64 [a2 + 0x10] = a0\n  6717: a0 = u64 [a1 + 0x48]\n  6720: u64 [a2 + 0x28] = a0\n  6723: a0 = u64 [a1 + 0x80]\n  6727: u64 [a2 + 0x38] = a0\n  6730: a0 = u64 [a1 + 0x78]\n  6733: u64 [a2 + 0x30] = a0\n  6736: a0 = u64 [a1 + 0x70]\n  6739: u64 [a2 + 0x48] = a0\n  6742: a0 = u64 [a1 + 0x68]\n  6745: u64 [a2 + 0x40] = a0\n  6748: a0 = s1 + 0x4000\n  6752: i32 a0 = a0 + 0xfffffffffffffa40\n  6756: a1 = 0x64\n  6759: ecalli 1 // 'call_data_load'\n  6761: fallthrough\n      : @266 (gas: 9)\n  6762: a5 = s1 + 0x38d8\n  6766: a3 = a5 + 0x100\n  6770: a0 = u64 [a3 + 0x80]\n  6774: a1 = u64 [a3 + 0x78]\n  6777: a2 = u64 [a3 + 0x70]\n  6780: a3 = a1 | a0\n  6783: a4 = a2 <u 0x1\n  6786: a4 = 0 if a3 != 0\n  6788: jump @268 if a4 != 0\n      : @267 (gas: 1)\n  6791: jump @945\n      : @268 (gas: 26)\n  6794: a3 = u64 [a5 + 0x168]\n  6798: t1 = s1 + 0x7ff\n  6802: t1 = t1 + 0xd1\n  6806: a4 = u64 [s1 + 0x158]\n  6810: t0 = u32 [a4]\n  6812: a5 = a3 + 0x4\n  6815: a3 = a5 <u a3\n  6818: a4 = a2 + a3\n  6821: a2 = a4 <u a2\n  6824: a2 = a3 if a3 == 0\n  6827: a2 = a2 + a1\n  6830: a1 = a2 <u a1\n  6833: a3 = a0 + a1\n  6836: u64 [t1 + 1960] = 0\n  6840: u64 [t1 + 1952] = 0\n  6844: u64 [t1 + 1944] = 0\n  6848: u64 [t1 + 0x790] = t0\n  6852: u64 [t1 + 0x7b0] = a5\n  6856: a5 = t1 + 0x700\n  6860: u64 [a5 + 0xb8] = a4\n  6864: u64 [a5 + 0xc0] = a2\n  6868: a0 = s1 + 0x10a0\n  6872: a1 = s1 + 0x1080\n  6876: a2 = s1 + 0x1060\n  6880: u64 [a5 + 0xc8] = a3\n  6884: ra = 286, jump @1031\n      : @269 [@dyn 143] (gas: 26)\n  6890: a1 = s1 + 0x7ff\n  6894: a1 = a1 + 0xd1\n  6898: a2 = a1 + 0x700\n  6902: a0 = u64 [a2 + 0xe8]\n  6906: u64 [s1 + 0xb8] = a0\n  6910: a0 = u64 [a2 + 0xe0]\n  6914: u64 [s1 + 0xc8] = a0\n  6918: a0 = u64 [a2 + 0xd8]\n  6922: u64 [s1 + 0xc0] = a0\n  6926: a0 = u64 [a2 + 0xd0]\n  6930: u64 [s1 + 0xd0] = a0\n  6934: a1 = s1 + 0x10d8\n  6938: a0 = u64 [a1]\n  6940: u64 [s1 + 0x60] = a0\n  6943: a2 = a1 + 0xffffffffffffff00\n  6947: a0 = u64 [a2 + 0xf8]\n  6951: u64 [s1 + 0x58] = a0\n  6954: a0 = u64 [a2 + 0xf0]\n  6958: u64 [s1 + 0x68] = a0\n  6961: a0 = u64 [a2 + 0xe8]\n  6965: u64 [s1 + 0x70] = a0\n  6968: a0 = s1 + 0x4000\n  6972: i32 a0 = a0 + 0xfffffffffffffa60\n  6976: ra = 0x120\n  6980: ecalli 3 // 'caller'\n  6982: fallthrough\n      : @270 [@dyn 144] (gas: 5)\n  6983: a2 = s1 + 0x38d8\n  6987: a0 = u64 [a2 + 0x190]\n  6991: a1 = i32 [a2 + 0x198]\n  6995: a2 = u64 [a2 + 0x188]\n  6999: t0 = 290, jump @1227\n      : @271 [@dyn 145] (gas: 10)\n  7005: a2 = s1 + 0x7ff\n  7009: a2 = a2 + 0xd1\n  7013: u64 [a2 + 1928] = 0\n  7017: a4 = a2 + 0x700\n  7021: u64 [a4 + 0x80] = a1\n  7025: u64 [a4 + 0x78] = a0\n  7028: a1 = s1 + 0x1040\n  7032: u64 [a4 + 0x70] = a3\n  7035: a0 = 0\n  7037: ra = 292, jump @12\n      : @272 [@dyn 146] (gas: 9)\n  7043: a2 = s1 + 0x7ff\n  7047: a2 = a2 + 0xd1\n  7051: u64 [a2 + 1896] = 0\n  7055: u64 [a2 + 1888] = 0\n  7059: u64 [a2 + 1872] = 0x1\n  7064: a0 = 0x20\n  7067: a1 = s1 + 0x1020\n  7071: u64 [a2 + 1880] = 0\n  7075: ra = 294, jump @12\n      : @273 [@dyn 147] (gas: 3)\n  7081: a1 = 0x40\n  7084: a0 = 0\n  7086: ra = 296, jump @0\n      : @274 [@dyn 148] (gas: 12)\n  7092: a1 = sp + 0xffffffffffffffe0\n  7095: a1 = a1 & 0xffffffffffffffe0\n  7098: u64 [s1 + 0x150] = a1\n  7102: sp = a1\n  7104: i32 a0 = a0 + 0\n  7106: i32 a2 = a1 + 0\n  7108: a1 = 0x40\n  7111: ra = 0x12a\n  7115: ecalli 6 // 'hash_keccak_256'\n  7117: a3 = u64 [s1 + 0x150]\n  7121: t0 = 0x12c\n  7125: jump @1216\n      : @275 [@dyn 149] (gas: 2)\n  7128: a3 = u64 [s1 + 0x150]\n  7132: t0 = 300, jump @1216\n      : @276 [@dyn 150] (gas: 17)\n  7138: a3 = s1 + 0x7ff\n  7142: a3 = a3 + 0xd1\n  7146: u64 [a3 + 1800] = 0\n  7150: u64 [a3 + 1792] = 0\n  7154: u64 [a3 + 1784] = 0\n  7158: u64 [a3 + 1776] = 0x80\n  7164: a5 = a3 + 0x700\n  7168: u64 [a5 + 0x28] = a2\n  7171: u64 [a5 + 0x20] = a1\n  7174: u64 [a5 + 0x18] = a0\n  7177: a0 = s1 + 0x1000\n  7181: a1 = s1 + 0x7ff\n  7185: a1 = a1 + 0x7e1\n  7189: a2 = s1 + 0x7ff\n  7193: a2 = a2 + 0x7c1\n  7197: u64 [a5 + 0x10] = a4\n  7200: ra = 302, jump @1084\n      : @277 [@dyn 151] (gas: 34)\n  7206: t1 = s1 + 0x7ff\n  7210: t1 = t1 + 0xd1\n  7214: a1 = t1 + 0x700\n  7218: a0 = u64 [a1 + 0x30]\n  7221: t0 = u64 [t1 + 0x748]\n  7225: a2 = u64 [a1 + 0x38]\n  7228: a3 = u64 [a1 + 0x40]\n  7231: a4 = a0 + 0xffffffffffffff80\n  7234: a0 = a4 <u a0\n  7237: a5 = a2 + a0\n  7240: a5 = a5 + 0xffffffffffffffff\n  7243: a1 = a5 ^ a2\n  7246: a2 = a5 <u a2\n  7249: a2 = a0 if a1 == 0\n  7252: a0 = a3 + 0xffffffffffffffff\n  7255: a2 = a2 + a0\n  7258: a0 = a2 <u a0\n  7261: a1 = a3 <u 0x1\n  7264: a1 = t0 - a1\n  7267: a3 = a1 + a0\n  7270: u64 [t1 + 0x6b0] = a4\n  7274: u64 [t1 + 1768] = 0\n  7278: u64 [t1 + 1760] = 0\n  7282: u64 [t1 + 1752] = 0\n  7286: a4 = t1 + 0x600\n  7290: u64 [a4 + 208] = 0x80\n  7296: u64 [a4 + 0xb8] = a5\n  7300: u64 [a4 + 0xc0] = a2\n  7304: a0 = s1 + 0x7ff\n  7308: a0 = a0 + 0x7a1\n  7312: a1 = s1 + 0x7ff\n  7316: a1 = a1 + 0x781\n  7320: u64 [a4 + 0xc8] = a3\n  7324: ra = 304, jump @1126\n      : @278 [@dyn 152] (gas: 4)\n  7330: a0 = s1 + 0x7ff\n  7334: a0 = a0 + 0x761\n  7338: a1 = 0x80\n  7342: ra = 306, jump @10\n      : @279 [@dyn 153] (gas: 15)\n  7348: a0 = s1 + 0x7ff\n  7352: a0 = a0 + 0xd1\n  7356: a4 = a0 + 0x600\n  7360: a1 = u64 [a4 + 0xa8]\n  7364: a2 = u64 [a4 + 0xa0]\n  7368: a3 = u64 [a4 + 0x98]\n  7372: a0 = u64 [a4 + 0x90]\n  7376: a1 = a1 | a3\n  7379: a3 = a0 | a2\n  7382: a3 = a3 | a1\n  7385: a3 = a3 >> 0x20\n  7388: a1 = a1 | a2\n  7391: a1 = a1 << 0x20\n  7394: a1 = a1 | a3\n  7397: jump @281 if a1 == 0\n      : @280 (gas: 1)\n  7400: jump @747\n      : @281 (gas: 4)\n  7403: i32 a1 = a0 + 0\n  7405: u64 [s1 + 0x150] = a1\n  7409: a0 = 0xa0\n  7413: ra = 308, jump @0\n      : @282 [@dyn 154] (gas: 29)\n  7419: a1 = sp + 0xffffffffffffffe0\n  7422: a1 = a1 & 0xffffffffffffffe0\n  7425: u64 [s1 + 0x108] = a1\n  7429: sp = a1\n  7431: i32 a0 = a0 + 0\n  7433: i32 a2 = a1 + 0\n  7435: a1 = u64 [s1 + 0x150]\n  7439: ecalli 6 // 'hash_keccak_256'\n  7441: a2 = u64 [s1 + 0x108]\n  7445: a0 = u64 [a2 + 0x18]\n  7448: a1 = u64 [0x200a0]\n  7453: t0 = u64 [a2]\n  7455: a3 = u64 [a2 + 0x10]\n  7458: a4 = u64 [a2 + 0x8]\n  7461: a0 = a0 ^ a1\n  7464: a1 = u64 [0x200a8]\n  7469: a5 = u64 [0x200b0]\n  7474: a2 = u64 [0x200b8]\n  7479: a1 = a1 ^ a4\n  7482: a0 = a0 | a1\n  7485: a3 = a3 ^ a5\n  7488: a1 = t0 ^ a2\n  7491: a1 = a1 | a3\n  7494: a0 = a0 | a1\n  7497: u64 [s1 + 0x150] = a0\n  7501: a0 = s1 + 0x7ff\n  7505: a0 = a0 + 0x741\n  7509: a1 = 0x40\n  7512: ra = 310, jump @10\n      : @283 [@dyn 155] (gas: 13)\n  7518: a2 = s1 + 0x7ff\n  7522: a2 = a2 + 0xd1\n  7526: a5 = a2 + 0x600\n  7530: a0 = u64 [a5 + 0x88]\n  7534: a1 = u64 [a5 + 0x80]\n  7538: a3 = u64 [a5 + 0x70]\n  7541: a4 = u64 [a5 + 0x78]\n  7544: t1 = a3 | a1\n  7547: a5 = a4 | a0\n  7550: t0 = a1 | a0\n  7553: t2 = a2\n  7555: a2 = u64 [s1 + 0x150]\n  7559: jump @285 if a2 == 0\n      : @284 (gas: 1)\n  7562: jump @695\n      : @285 (gas: 16)\n  7565: u64 [s1 + 0x100] = t0\n  7569: a2 = t2 + 0x500\n  7573: u64 [a2 + 0xd0] = a3\n  7577: u64 [a2 + 0xd8] = a4\n  7581: u64 [a2 + 0xe8] = a0\n  7585: a0 = s1 + 0x7ff\n  7589: a0 = a0 + 0x6a1\n  7593: u64 [a2 + 0xe0] = a1\n  7597: u64 [s1 + 0x108] = a3\n  7601: u64 [s1 + 0xf8] = a4\n  7605: u64 [s1 + 0x150] = a1\n  7609: u64 [s1 + 0xe8] = a5\n  7613: u64 [s1 + 0xf0] = t1\n  7617: ra = 0x138\n  7621: t0 = 0x546\n  7625: jump @1237\n      : @286 [@dyn 156] (gas: 9)\n  7628: a2 = u64 [s1 + 0xe8]\n  7632: a0 = u64 [s1 + 0xf0]\n  7636: a0 = a0 | a2\n  7639: a0 = a0 >> 0x20\n  7642: a1 = u64 [s1 + 0x150]\n  7646: a1 = a1 | a2\n  7649: a1 = a1 << 0x20\n  7652: a0 = a0 | a1\n  7655: jump @288 if a0 == 0\n      : @287 (gas: 1)\n  7658: jump @747\n      : @288 (gas: 15)\n  7661: a0 = u64 [s1 + 0x98]\n  7665: a2 = s1 + 0x7ff\n  7669: a2 = a2 + 0xd1\n  7673: a3 = a2 + 0x500\n  7677: u64 [a3 + 0xb0] = a0\n  7681: a0 = u64 [s1 + 0xa0]\n  7685: u64 [a3 + 0xb8] = a0\n  7689: a0 = u64 [s1 + 0xa8]\n  7693: u64 [a3 + 0xc0] = a0\n  7697: a1 = s1 + 0x7ff\n  7701: a1 = a1 + 0x681\n  7705: a0 = u64 [s1 + 0xb0]\n  7709: u64 [a3 + 0xc8] = a0\n  7713: a0 = u64 [s1 + 0x108]\n  7717: ra = 314, jump @12\n      : @289 [@dyn 157] (gas: 4)\n  7723: a0 = s1 + 0x4000\n  7727: i32 a0 = a0 + 0xfffffffffffffa80\n  7731: ecalli 3 // 'caller'\n  7733: fallthrough\n      : @290 (gas: 9)\n  7734: a2 = 0x100000000\n  7744: a0 = 0xffffffe0\n  7754: a4 = u64 [s1 + 0x108]\n  7758: a0 = a4 <u a0\n  7761: a1 = u64 [s1 + 0xf8]\n  7765: a0 = 0 if a1 != 0\n  7767: a1 = u64 [s1 + 0x100]\n  7771: a0 = 0 if a1 != 0\n  7773: jump @292 if a0 != 0\n      : @291 (gas: 1)\n  7776: jump @747\n      : @292 (gas: 27)\n  7779: a0 = s1 + 0x38d8\n  7783: u64 [s1 + 0x150] = a2\n  7787: a2 = a0\n  7789: a0 = u64 [a0 + 0x1b0]\n  7793: a1 = i32 [a2 + 0x1b8]\n  7797: a2 = u64 [a2 + 0x1a8]\n  7801: a0 = reverse a0\n  7803: a3 = a0 << 0x20\n  7806: a1 = reverse a1\n  7808: a1 = a1 >> 0x20\n  7811: t0 = a1 | a3\n  7814: a0 = a0 >> 0x20\n  7817: a1 = reverse a2\n  7819: a2 = a1 << 0x20\n  7822: a2 = a2 | a0\n  7825: a1 = a1 >> 0x20\n  7828: i32 a0 = a4 + 0x20\n  7831: a3 = s1 + 0x7ff\n  7835: a3 = a3 + 0xd1\n  7839: u64 [a3 + 1448] = 0\n  7843: u64 [a3 + 0x5a0] = a1\n  7847: u64 [a3 + 0x598] = a2\n  7851: a1 = s1 + 0x7ff\n  7855: a1 = a1 + 0x661\n  7859: u64 [a3 + 0x590] = t0\n  7863: u64 [s1 + 0xd8] = a0\n  7867: ra = 316, jump @12\n      : @293 [@dyn 158] (gas: 4)\n  7873: a0 = s1 + 0x4000\n  7877: i32 a0 = a0 + 0xfffffffffffffaa0\n  7881: ecalli 7 // 'now'\n  7883: fallthrough\n      : @294 (gas: 10)\n  7884: a2 = s1 + 0x100\n  7888: a4 = u64 [a2 + 0x8]\n  7891: a0 = u64 [a2 + 0x50]\n  7894: a0 = a0 + 0xffffffffffffffc0\n  7897: a0 = a4 <u a0\n  7900: a1 = u64 [s1 + 0xf8]\n  7904: a0 = 0 if a1 != 0\n  7906: a1 = u64 [a2]\n  7908: a0 = 0 if a1 != 0\n  7910: jump @296 if a0 != 0\n      : @295 (gas: 1)\n  7913: jump @747\n      : @296 (gas: 17)\n  7916: a0 = s1 + 0x38d8\n  7920: a5 = u64 [a0 + 0x1c8]\n  7924: a1 = u64 [a0 + 0x1d0]\n  7928: a2 = u64 [a0 + 0x1d8]\n  7932: a3 = u64 [a0 + 0x1e0]\n  7936: i32 a0 = a4 + 0x40\n  7939: a4 = s1 + 0x7ff\n  7943: a4 = a4 + 0xd1\n  7947: u64 [a4 + 0x588] = a3\n  7951: a3 = a4 + 0x500\n  7955: u64 [a3 + 0x80] = a2\n  7959: u64 [a3 + 0x78] = a1\n  7962: a1 = s1 + 0x7ff\n  7966: a1 = a1 + 0x641\n  7970: u64 [a3 + 0x70] = a5\n  7973: u64 [s1 + 0x38] = a0\n  7976: ra = 318, jump @12\n      : @297 [@dyn 159] (gas: 8)\n  7982: a3 = s1 + 0x100\n  7986: a0 = u64 [a3 + 0x38]\n  7989: a1 = u64 [a3 + 0x30]\n  7992: a0 = a0 | a1\n  7995: a2 = u64 [a3 + 0x48]\n  7998: a1 = a2 <u 0x1\n  8001: a1 = 0 if a0 != 0\n  8003: jump @299 if a1 != 0\n      : @298 (gas: 1)\n  8006: jump @1006\n      : @299 (gas: 18)\n  8009: a1 = u64 [s1 + 0x140]\n  8013: a0 = a1 + 0x1f\n  8016: a1 = a0 <u a1\n  8019: a1 = a1 + a2\n  8022: a1 = a1 & 0x1\n  8025: a0 = a0 & 0xffffffffffffffe0\n  8028: a3 = a0 + 0x20\n  8031: u64 [s1 + 0x40] = a3\n  8034: a0 = a3 <u a0\n  8037: a3 = a1 + a0\n  8040: u64 [s1 + 0x48] = a3\n  8043: a1 = a3 <u a1\n  8046: a1 = a0 if a0 == 0\n  8049: u64 [s1 + 0x50] = a1\n  8052: a0 = s1 + 0x7ff\n  8056: a0 = a0 + 0x621\n  8060: a1 = 0x40\n  8063: ra = 320, jump @10\n      : @300 [@dyn 160] (gas: 27)\n  8069: a2 = s1 + 0x7ff\n  8073: a2 = a2 + 0xd1\n  8077: a0 = u64 [a2 + 0x568]\n  8081: u64 [s1 + 0x150] = a0\n  8085: a3 = u64 [a2 + 0x560]\n  8089: u64 [s1 + 0xf0] = a3\n  8093: a4 = u64 [a2 + 0x558]\n  8097: u64 [s1 + 0xe8] = a4\n  8101: a5 = u64 [a2 + 0x550]\n  8105: u64 [s1 + 0xe0] = a5\n  8109: u64 [a2 + 1320] = 0\n  8113: a1 = u64 [s1 + 0x40]\n  8116: u64 [a2 + 0x510] = a1\n  8120: u64 [a2 + 0x548] = a0\n  8124: u64 [a2 + 0x540] = a3\n  8128: u64 [a2 + 0x538] = a4\n  8132: a4 = a2 + 0x500\n  8136: u64 [a4 + 0x30] = a5\n  8139: a0 = u64 [s1 + 0x48]\n  8142: u64 [a4 + 0x18] = a0\n  8145: a0 = s1 + 0x7ff\n  8149: a0 = a0 + 0x601\n  8153: a1 = s1 + 0x7ff\n  8157: a1 = a1 + 0x5e1\n  8161: a3 = u64 [s1 + 0x50]\n  8164: u64 [a4 + 0x20] = a3\n  8167: ra = 322, jump @1126\n      : @301 [@dyn 161] (gas: 12)\n  8173: a0 = u64 [s1 + 0xe0]\n  8177: a1 = u64 [s1 + 0xe8]\n  8181: a2 = u64 [s1 + 0xf0]\n  8185: a5 = u64 [s1 + 0x150]\n  8189: a5 = a5 | a1\n  8192: a1 = a0 | a2\n  8195: a1 = a1 | a5\n  8198: a1 = a1 >> 0x20\n  8201: a5 = a5 | a2\n  8204: a5 = a5 << 0x20\n  8207: a1 = a1 | a5\n  8210: jump @303 if a1 == 0\n      : @302 (gas: 1)\n  8213: jump @747\n      : @303 (gas: 13)\n  8216: a2 = s1 + 0x7ff\n  8220: a2 = a2 + 0xd1\n  8224: a1 = u64 [s1 + 0x140]\n  8228: u64 [a2 + 0x4f0] = a1\n  8232: a1 = u64 [s1 + 0x148]\n  8236: u64 [a2 + 0x4f8] = a1\n  8240: a1 = u64 [s1 + 0x130]\n  8244: u64 [a2 + 0x500] = a1\n  8248: a1 = s1 + 0x7ff\n  8252: a1 = a1 + 0x5c1\n  8256: a3 = u64 [s1 + 0x138]\n  8260: u64 [a2 + 0x508] = a3\n  8264: ra = 324, jump @12\n      : @304 [@dyn 162] (gas: 36)\n  8270: t0 = u64 [s1 + 0x128]\n  8274: a1 = u64 [s1 + 0x140]\n  8278: a1 = a1 + t0\n  8281: a2 = a1 <u t0\n  8284: ra = u64 [s1 + 0x110]\n  8288: a0 = u64 [s1 + 0x148]\n  8292: a0 = a0 + ra\n  8295: a0 = a0 + a2\n  8298: a3 = a0 ^ ra\n  8301: a4 = a0 <u ra\n  8304: a4 = a2 if a3 == 0\n  8307: t1 = u64 [s1 + 0x120]\n  8311: a2 = u64 [s1 + 0x130]\n  8315: a2 = a2 + t1\n  8318: a3 = a2 <u t1\n  8321: t2 = u64 [s1 + 0x118]\n  8325: a5 = u64 [s1 + 0x138]\n  8329: a5 = a5 + t2\n  8332: a3 = a3 + a5\n  8335: a5 = u64 [s1 + 0x158]\n  8339: a5 = u32 [a5]\n  8341: a4 = a4 + a2\n  8344: a2 = a4 <u a2\n  8347: a2 = a2 + a3\n  8350: a1 = a5 <u a1\n  8353: a3 = a0 <u 0x1\n  8356: a1 = a1 ^ 0x1\n  8359: a1 = a3 if a0 != 0\n  8362: a0 = a4 <u 0x1\n  8365: a3 = a2 <u 0x1\n  8368: a3 = a0 if a2 == 0\n  8371: a2 = a2 | a4\n  8374: a1 = a3 if a2 != 0\n  8377: a3 = u64 [s1 + 0x148]\n  8381: a4 = u64 [s1 + 0x140]\n  8385: jump @306 if a1 != 0\n      : @305 (gas: 1)\n  8388: jump @1009\n      : @306 (gas: 8)\n  8391: a0 = t0 | t1\n  8394: a1 = ra | t2\n  8397: a0 = a0 | a1\n  8400: a0 = a0 >> 0x20\n  8403: a1 = a1 | t1\n  8406: a1 = a1 << 0x20\n  8409: a0 = a0 | a1\n  8412: jump @308 if a0 == 0\n      : @307 (gas: 1)\n  8415: jump @747\n      : @308 (gas: 10)\n  8418: a2 = u64 [s1 + 0x130]\n  8422: a0 = a4 | a2\n  8425: a1 = u64 [s1 + 0x138]\n  8429: a1 = a1 | a3\n  8432: a0 = a0 | a1\n  8435: a0 = a0 >> 0x20\n  8438: a1 = a1 | a2\n  8441: a1 = a1 << 0x20\n  8444: a0 = a0 | a1\n  8447: jump @310 if a0 == 0\n      : @309 (gas: 1)\n  8450: jump @747\n      : @310 (gas: 10)\n  8453: t1 = u64 [s1 + 0x150]\n  8457: t2 = u64 [s1 + 0xf0]\n  8461: a0 = t2 | t1\n  8464: ra = 0xffffffe0\n  8474: a5 = u64 [s1 + 0xe0]\n  8478: a1 = a5 <u ra\n  8481: a2 = u64 [s1 + 0xe8]\n  8485: a1 = 0 if a2 != 0\n  8487: a1 = 0 if a0 != 0\n  8489: jump @312 if a1 != 0\n      : @311 (gas: 1)\n  8492: jump @747\n      : @312 (gas: 7)\n  8495: i32 t0 = t0 + 0\n  8497: u64 [s1 + 0x128] = t0\n  8501: i32 a0 = a5 + 0x20\n  8504: i32 a1 = a4 + 0\n  8506: u64 [s1 + 0x120] = a1\n  8510: u64 [s1 + 0x158] = ra\n  8514: ra = 326, jump @0\n      : @313 [@dyn 163] (gas: 5)\n  8520: i32 a0 = a0 + 0\n  8522: a1 = u64 [s1 + 0x120]\n  8526: a2 = u64 [s1 + 0x128]\n  8530: ecalli 0 // 'call_data_copy'\n  8531: fallthrough\n      : @314 (gas: 28)\n  8532: t0 = u64 [s1 + 0x140]\n  8536: a0 = u64 [s1 + 0xe0]\n  8540: t0 = t0 + a0\n  8543: a1 = t0 <u a0\n  8546: a0 = u64 [s1 + 0xe8]\n  8550: a2 = u64 [s1 + 0x148]\n  8554: a2 = a2 + a0\n  8557: a2 = a2 + a1\n  8560: a3 = a2 ^ a0\n  8563: a4 = a2 <u a0\n  8566: a4 = a1 if a3 == 0\n  8569: a1 = u64 [s1 + 0x130]\n  8573: a0 = u64 [s1 + 0xf0]\n  8577: a1 = a1 + a0\n  8580: a3 = a1 <u a0\n  8583: a5 = u64 [s1 + 0x138]\n  8587: a0 = u64 [s1 + 0x150]\n  8591: a5 = a5 + a0\n  8594: a3 = a3 + a5\n  8597: a4 = a4 + a1\n  8600: a1 = a4 <u a1\n  8603: a1 = a1 + a3\n  8606: a1 = a1 | a4\n  8609: a3 = u64 [s1 + 0x158]\n  8613: a3 = t0 <u a3\n  8616: a3 = 0 if a2 != 0\n  8618: a3 = 0 if a1 != 0\n  8620: jump @316 if a3 != 0\n      : @315 (gas: 1)\n  8623: jump @747\n      : @316 (gas: 10)\n  8626: i32 a0 = t0 + 0x20\n  8629: a2 = s1 + 0x7ff\n  8633: a2 = a2 + 0xd1\n  8637: u64 [a2 + 1256] = 0\n  8641: u64 [a2 + 1248] = 0\n  8645: u64 [a2 + 1240] = 0\n  8649: a1 = s1 + 0x7ff\n  8653: a1 = a1 + 0x5a1\n  8657: u64 [a2 + 1232] = 0\n  8661: ra = 328, jump @12\n      : @317 [@dyn 164] (gas: 2)\n  8667: a0 = 0xffffffa0\n  8677: t0 = 330, jump @1245\n      : @318 [@dyn 165] (gas: 1)\n  8683: jump @320 if a0 != 0\n      : @319 (gas: 1)\n  8686: jump @747\n      : @320 (gas: 18)\n  8689: a0 = u64 [s1 + 0x108]\n  8693: i32 a2 = a0 + 0x60\n  8696: a3 = s1 + 0x7ff\n  8700: a3 = a3 + 0xd1\n  8704: a0 = u64 [s1 + 0xe0]\n  8708: a4 = a3 + 0x400\n  8712: u64 [a4 + 0xb0] = a0\n  8716: a0 = u64 [s1 + 0xe8]\n  8720: u64 [a4 + 0xb8] = a0\n  8724: a0 = u64 [s1 + 0xf0]\n  8728: u64 [a4 + 0xc0] = a0\n  8732: a1 = s1 + 0x7ff\n  8736: a1 = a1 + 0x581\n  8740: a0 = u64 [s1 + 0x150]\n  8744: u64 [a4 + 0xc8] = a0\n  8748: u64 [s1 + 0x118] = a2\n  8752: a0 = a2\n  8754: ra = 332, jump @12\n      : @321 [@dyn 166] (gas: 15)\n  8760: a0 = u64 [s1 + 0x78]\n  8763: a2 = s1 + 0x7ff\n  8767: a2 = a2 + 0xd1\n  8771: a3 = a2 + 0x400\n  8775: u64 [a3 + 0xa8] = a0\n  8779: a0 = u64 [s1 + 0x80]\n  8783: u64 [a3 + 0xa0] = a0\n  8787: a0 = u64 [s1 + 0x88]\n  8791: u64 [a3 + 0x98] = a0\n  8795: a1 = s1 + 0x7ff\n  8799: a1 = a1 + 0x561\n  8803: a0 = u64 [s1 + 0x90]\n  8807: u64 [a3 + 0x90] = a0\n  8811: a0 = 0\n  8813: ra = 334, jump @12\n      : @322 [@dyn 167] (gas: 10)\n  8819: a2 = s1 + 0x7ff\n  8823: a2 = a2 + 0xd1\n  8827: u64 [a2 + 1160] = 0\n  8831: u64 [a2 + 1152] = 0\n  8835: u64 [a2 + 1136] = 0x2\n  8840: a0 = 0x20\n  8843: a1 = s1 + 0x7ff\n  8847: a1 = a1 + 0x541\n  8851: u64 [a2 + 1144] = 0\n  8855: ra = 336, jump @12\n      : @323 [@dyn 168] (gas: 3)\n  8861: a1 = 0x40\n  8864: a0 = 0\n  8866: ra = 338, jump @0\n      : @324 [@dyn 169] (gas: 1)\n  8872: t0 = 340, jump @1202\n      : @325 [@dyn 170] (gas: 27)\n  8878: ecalli 6 // 'hash_keccak_256'\n  8880: a5 = s1 + 0x100\n  8884: a3 = u64 [a5 + 0x58]\n  8887: a0 = u64 [a3 + 0x18]\n  8890: a1 = u64 [a3 + 0x10]\n  8893: a2 = u64 [a3 + 0x8]\n  8896: a3 = u64 [a3]\n  8898: a4 = reverse a0\n  8900: a0 = reverse a1\n  8902: a1 = reverse a2\n  8904: a3 = reverse a3\n  8906: a2 = s1 + 0x7ff\n  8910: a2 = a2 + 0xd1\n  8914: u64 [a5 + 0x40] = a3\n  8917: u64 [a2 + 0x448] = a3\n  8921: u64 [a5 + 0x48] = a1\n  8924: a3 = a2 + 0x400\n  8928: u64 [a3 + 0x40] = a1\n  8931: u64 [a5 + 0x50] = a0\n  8934: u64 [a3 + 0x38] = a0\n  8937: a0 = s1 + 0x7ff\n  8941: a0 = a0 + 0x521\n  8945: a1 = s1 + 0x7ff\n  8949: a1 = a1 + 0x501\n  8953: u64 [a5 + 0x58] = a4\n  8956: u64 [a3 + 0x30] = a4\n  8959: ra = 342, jump @14\n      : @326 [@dyn 171] (gas: 13)\n  8965: a1 = s1 + 0x7ff\n  8969: a1 = a1 + 0xd1\n  8973: a3 = a1 + 0x400\n  8977: a2 = u64 [a3 + 0x68]\n  8980: a0 = u64 [a3 + 0x60]\n  8983: a1 = u64 [a3 + 0x58]\n  8986: a3 = a0\n  8988: t0 = a2\n  8990: a0 = a0 | a2\n  8993: a2 = a1\n  8995: a1 = a1 <u 0x1\n  8998: a1 = 0 if a0 != 0\n  9000: jump @328 if a1 != 0\n      : @327 (gas: 1)\n  9003: jump @1010\n      : @328 (gas: 33)\n  9006: a5 = s1 + 0x7ff\n  9010: a5 = a5 + 0xd1\n  9014: a0 = u64 [a5 + 0x450]\n  9018: u64 [s1 + 0x138] = a0\n  9022: a0 = a0 + 0x1\n  9025: a1 = a0 <u 0x1\n  9028: u64 [s1 + 0x130] = a2\n  9032: a1 = a1 + a2\n  9035: a2 = a0 | a1\n  9038: a2 = a2 <u 0x1\n  9041: u64 [s1 + 0x128] = a3\n  9045: a2 = a2 + a3\n  9048: a3 = a2 <u a3\n  9051: u64 [s1 + 0x120] = t0\n  9055: a3 = a3 + t0\n  9058: a4 = u64 [s1 + 0x158]\n  9062: u64 [a5 + 0x410] = a4\n  9066: u64 [a5 + 0x3f0] = a0\n  9070: a0 = u64 [s1 + 0x150]\n  9074: a4 = a5 + 0x400\n  9078: u64 [a4 + 0x18] = a0\n  9081: a0 = u64 [s1 + 0x148]\n  9085: u64 [a4 + 0x20] = a0\n  9088: u64 [a5 + 0x3f8] = a1\n  9092: a0 = u64 [s1 + 0x140]\n  9096: u64 [a4 + 0x28] = a0\n  9099: u64 [a4] = a2\n  9101: a0 = s1 + 0x7ff\n  9105: a0 = a0 + 0x4e1\n  9109: a1 = s1 + 0x7ff\n  9113: a1 = a1 + 0x4c1\n  9117: u64 [a4 + 0x8] = a3\n  9120: ra = 344, jump @16\n      : @329 [@dyn 172] (gas: 28)\n  9126: a0 = s1 + 0x7ff\n  9130: a0 = a0 + 0xd1\n  9134: a5 = s1 + 0x100\n  9138: a1 = u64 [a5 + 0x20]\n  9141: a2 = a0 + 0x300\n  9145: u64 [a2 + 0x88] = a1\n  9149: a1 = u64 [a5 + 0x28]\n  9152: u64 [a2 + 0x80] = a1\n  9156: a1 = u64 [a5 + 0x30]\n  9159: u64 [a2 + 0x78] = a1\n  9162: a1 = u64 [a5 + 0x38]\n  9165: u64 [a2 + 0x70] = a1\n  9168: a1 = u64 [a5 + 0x40]\n  9171: u64 [a2 + 0xa8] = a1\n  9175: a1 = u64 [a5 + 0x48]\n  9178: u64 [a2 + 0xa0] = a1\n  9182: a1 = u64 [a5 + 0x50]\n  9185: u64 [a2 + 0x98] = a1\n  9189: a4 = a0\n  9191: a0 = s1 + 0x7ff\n  9195: a0 = a0 + 0x481\n  9199: a1 = s1 + 0x7ff\n  9203: a1 = a1 + 0x461\n  9207: a2 = s1 + 0x7ff\n  9211: a2 = a2 + 0x441\n  9215: a3 = u64 [a5 + 0x58]\n  9218: u64 [a4 + 0x390] = a3\n  9222: ra = 346, jump @1136\n      : @330 [@dyn 173] (gas: 11)\n  9228: a3 = s1 + 0x7ff\n  9232: a3 = a3 + 0xd1\n  9236: a4 = a3 + 0x300\n  9240: a0 = u64 [a4 + 0xe8]\n  9244: a1 = u64 [a4 + 0xe0]\n  9248: a2 = u64 [a4 + 0xd8]\n  9252: a3 = u64 [a4 + 0xd0]\n  9256: a0 = a0 | a2\n  9259: a1 = a1 | a3\n  9262: a0 = a0 | a1\n  9265: jump @332 if a0 == 0\n      : @331 (gas: 1)\n  9268: jump @1013\n      : @332 (gas: 15)\n  9271: a1 = s1 + 0x7ff\n  9275: a1 = a1 + 0xd1\n  9279: a2 = a1 + 0x300\n  9283: a0 = u64 [a2 + 0xc8]\n  9287: u64 [s1 + 0x158] = a0\n  9291: a0 = u64 [a2 + 0xc0]\n  9295: u64 [s1 + 0x150] = a0\n  9299: a0 = u64 [a2 + 0xb8]\n  9303: u64 [s1 + 0x148] = a0\n  9307: a0 = u64 [a2 + 0xb0]\n  9311: u64 [s1 + 0x140] = a0\n  9315: a0 = s1 + 0x7ff\n  9319: a0 = a0 + 0x3e1\n  9323: a1 = u64 [s1 + 0x108]\n  9327: ra = 348, jump @10\n      : @333 [@dyn 174] (gas: 25)\n  9333: a4 = s1 + 0x7ff\n  9337: a4 = a4 + 0xd1\n  9341: a5 = a4 + 0x300\n  9345: a0 = u64 [a5 + 0x10]\n  9348: a1 = u64 [a5 + 0x18]\n  9351: a2 = u64 [a5 + 0x20]\n  9354: a3 = u64 [a5 + 0x28]\n  9357: u64 [a4 + 0x2e8] = a3\n  9361: a3 = a4 + 0x200\n  9365: u64 [a3 + 0xe0] = a2\n  9369: u64 [a3 + 0xd8] = a1\n  9373: u64 [a3 + 0xd0] = a0\n  9377: a0 = u64 [s1 + 0x158]\n  9381: u64 [a5 + 0x8] = a0\n  9384: a0 = u64 [s1 + 0x150]\n  9388: u64 [a5] = a0\n  9390: a0 = u64 [s1 + 0x148]\n  9394: u64 [a3 + 0xf8] = a0\n  9398: a0 = s1 + 0x7ff\n  9402: a0 = a0 + 0x3c1\n  9406: a1 = s1 + 0x7ff\n  9410: a1 = a1 + 0x3a1\n  9414: a2 = u64 [s1 + 0x140]\n  9418: u64 [a3 + 0xf0] = a2\n  9422: ra = 350, jump @16\n      : @334 [@dyn 175] (gas: 20)\n  9428: a0 = u64 [s1 + 0x140]\n  9432: a2 = a0 + 0x1\n  9435: u64 [s1 + 0x138] = a2\n  9439: a0 = a2 <u 0x1\n  9442: a1 = u64 [s1 + 0x148]\n  9446: a0 = a0 + a1\n  9449: u64 [s1 + 0x130] = a0\n  9453: a0 = a0 | a2\n  9456: a0 = a0 <u 0x1\n  9459: a1 = u64 [s1 + 0x150]\n  9463: a0 = a0 + a1\n  9466: u64 [s1 + 0x128] = a0\n  9470: a0 = a0 <u a1\n  9473: a1 = u64 [s1 + 0x158]\n  9477: a0 = a0 + a1\n  9480: u64 [s1 + 0x120] = a0\n  9484: a0 = s1 + 0x7ff\n  9488: a0 = a0 + 0x381\n  9492: a1 = u64 [s1 + 0xd8]\n  9496: ra = 352, jump @10\n      : @335 [@dyn 176] (gas: 23)\n  9502: a0 = s1 + 0x7ff\n  9506: a0 = a0 + 0xd1\n  9510: a2 = a0 + 0x200\n  9514: a1 = u64 [a2 + 0xb0]\n  9518: u64 [s1 + 0x110] = a1\n  9522: a1 = u64 [a2 + 0xb8]\n  9526: u64 [s1 + 0x108] = a1\n  9530: a1 = u32 [a0 + 0x2c0]\n  9534: u64 [s1 + 0x100] = a1\n  9538: a1 = u64 [s1 + 0x120]\n  9542: u64 [a2 + 0x88] = a1\n  9546: a1 = u64 [s1 + 0x128]\n  9550: u64 [a2 + 0x80] = a1\n  9554: a1 = u64 [s1 + 0x130]\n  9558: u64 [a2 + 0x78] = a1\n  9561: a3 = a0\n  9563: a0 = s1 + 0x7ff\n  9567: a0 = a0 + 0x361\n  9571: a1 = s1 + 0x7ff\n  9575: a1 = a1 + 0x341\n  9579: a2 = u64 [s1 + 0x138]\n  9583: u64 [a3 + 0x270] = a2\n  9587: ra = 354, jump @14\n      : @336 [@dyn 177] (gas: 27)\n  9593: a3 = s1 + 0x7ff\n  9597: a3 = a3 + 0xd1\n  9601: a0 = u32 [a3 + 0x2a4]\n  9605: a4 = a3 + 0x200\n  9609: a1 = u64 [a4 + 0xa8]\n  9613: a0 = a0 << 0x20\n  9616: a2 = u64 [s1 + 0x100]\n  9620: a2 = a2 | a0\n  9623: u64 [a4 + 0x48] = a1\n  9626: a0 = u64 [s1 + 0x108]\n  9630: u64 [a4 + 0x38] = a0\n  9633: a0 = u64 [s1 + 0x110]\n  9637: u64 [a4 + 0x30] = a0\n  9640: a0 = u64 [s1 + 0x120]\n  9644: u64 [a4 + 0x68] = a0\n  9647: a0 = u64 [s1 + 0x128]\n  9651: u64 [a4 + 0x60] = a0\n  9654: a0 = u64 [s1 + 0x130]\n  9658: u64 [a4 + 0x58] = a0\n  9661: a0 = u64 [s1 + 0x138]\n  9665: u64 [a4 + 0x50] = a0\n  9668: a0 = s1 + 0x7ff\n  9672: a0 = a0 + 0x321\n  9676: a1 = s1 + 0x7ff\n  9680: a1 = a1 + 0x301\n  9684: u64 [a4 + 0x40] = a2\n  9687: ra = 356, jump @16\n      : @337 [@dyn 178] (gas: 4)\n  9693: a0 = s1 + 0x7ff\n  9697: a0 = a0 + 0x2e1\n  9701: a1 = u64 [s1 + 0x38]\n  9704: ra = 358, jump @10\n      : @338 [@dyn 179] (gas: 31)\n  9710: a3 = s1 + 0x7ff\n  9714: a3 = a3 + 0xd1\n  9718: t0 = u64 [a3 + 0x210]\n  9722: t1 = u64 [a3 + 0x218]\n  9726: t2 = u64 [a3 + 0x220]\n  9730: ra = u64 [a3 + 0x228]\n  9734: a0 = u64 [s1 + 0x140]\n  9738: a2 = a0 + 0x2\n  9741: a5 = a2 <u a0\n  9744: a1 = u64 [s1 + 0x148]\n  9748: a0 = a1 + a5\n  9751: a1 = a0 <u a1\n  9754: a1 = a5 if a5 == 0\n  9757: a4 = u64 [s1 + 0x150]\n  9761: a1 = a1 + a4\n  9764: a5 = a1 <u a4\n  9767: a4 = u64 [s1 + 0x158]\n  9771: a5 = a5 + a4\n  9774: u64 [a3 + 0x1e8] = ra\n  9778: u64 [a3 + 0x1e0] = t2\n  9782: u64 [a3 + 0x1d8] = t1\n  9786: u64 [a3 + 0x1d0] = t0\n  9790: u64 [a3 + 0x208] = a5\n  9794: u64 [a3 + 0x200] = a1\n  9798: u64 [a3 + 0x1f8] = a0\n  9802: a0 = s1 + 0x7ff\n  9806: a0 = a0 + 0x2c1\n  9810: a1 = s1 + 0x7ff\n  9814: a1 = a1 + 0x2a1\n  9818: u64 [a3 + 0x1f0] = a2\n  9822: ra = 360, jump @16\n      : @339 [@dyn 180] (gas: 4)\n  9828: a0 = s1 + 0x7ff\n  9832: a0 = a0 + 0x281\n  9836: a1 = u64 [s1 + 0x118]\n  9840: ra = 362, jump @10\n      : @340 [@dyn 181] (gas: 19)\n  9846: a1 = s1 + 0x7ff\n  9850: a1 = a1 + 0xd1\n  9854: a4 = a1 + 0x100\n  9858: a2 = u64 [a4 + 0xc8]\n  9862: a3 = u64 [a4 + 0xc0]\n  9866: a0 = u64 [a4 + 0xb8]\n  9870: a1 = u64 [a4 + 0xb0]\n  9874: u64 [s1 + 0xf0] = a0\n  9878: u64 [s1 + 0xe8] = a2\n  9882: a0 = a0 | a2\n  9885: u64 [s1 + 0xf8] = a1\n  9889: a1 = a1 | a3\n  9892: a1 = a1 | a0\n  9895: a1 = a1 >> 0x20\n  9898: u64 [s1 + 0xe0] = a3\n  9902: a0 = a0 | a3\n  9905: a0 = a0 << 0x20\n  9908: a0 = a0 | a1\n  9911: jump @342 if a0 == 0\n      : @341 (gas: 1)\n  9914: jump @747\n      : @342 (gas: 4)\n  9917: a0 = s1 + 0x7ff\n  9921: a0 = a0 + 0x261\n  9925: a1 = u64 [s1 + 0xf8]\n  9929: ra = 364, jump @10\n      : @343 [@dyn 182] (gas: 14)\n  9935: a0 = s1 + 0x7ff\n  9939: a0 = a0 + 0xd1\n  9943: a3 = a0 + 0x100\n  9947: a1 = u64 [a3 + 0xa8]\n  9951: a2 = u64 [a3 + 0xa0]\n  9955: a0 = u64 [a3 + 0x98]\n  9959: u64 [s1 + 0x48] = a1\n  9962: u64 [s1 + 0x38] = a2\n  9965: a1 = a1 | a2\n  9968: u64 [s1 + 0x40] = a0\n  9971: a0 = a0 <u 0x1\n  9974: u64 [s1 + 0x138] = a1\n  9978: a0 = 0 if a1 != 0\n  9980: jump @345 if a0 != 0\n      : @344 (gas: 1)\n  9983: jump @1016\n      : @345 (gas: 31)\n  9986: a0 = u64 [s1 + 0x140]\n  9990: a1 = a0 + 0x3\n  9993: a0 = a1 <u a0\n  9996: t0 = a1\n  9998: u64 [s1 + 0x30] = a1\n 10001: a1 = u64 [s1 + 0x148]\n 10005: a2 = a1 + a0\n 10008: a1 = a2 <u a1\n 10011: a4 = a2\n 10013: u64 [s1 + 0x28] = a2\n 10016: a1 = a0 if a0 == 0\n 10019: a2 = u64 [s1 + 0x150]\n 10023: a5 = a2 + a1\n 10026: u64 [s1 + 0x18] = a5\n 10029: a3 = s1 + 0x7ff\n 10033: a3 = a3 + 0xd1\n 10037: a0 = u64 [a3 + 0x190]\n 10041: u64 [s1 + 0x50] = a0\n 10044: a0 = a5 <u a2\n 10047: a1 = u64 [s1 + 0x158]\n 10051: a2 = a1 + a0\n 10054: u64 [s1 + 0x20] = a2\n 10057: u64 [a3 + 0x150] = t0\n 10061: u64 [a3 + 0x158] = a4\n 10065: u64 [a3 + 0x160] = a5\n 10069: a0 = s1 + 0x7ff\n 10073: a0 = a0 + 0x241\n 10077: a1 = s1 + 0x7ff\n 10081: a1 = a1 + 0x221\n 10085: u64 [a3 + 0x168] = a2\n 10089: ra = 366, jump @14\n      : @346 [@dyn 183] (gas: 16)\n 10095: a4 = s1 + 0x7ff\n 10099: a4 = a4 + 0xd1\n 10103: a5 = a4 + 0x100\n 10107: a2 = u64 [a5 + 0x70]\n 10110: a0 = u64 [a5 + 0x78]\n 10113: a1 = u64 [a5 + 0x80]\n 10117: a3 = u64 [a5 + 0x88]\n 10121: u64 [a5 + 0x28] = a3\n 10124: u64 [a5 + 0x20] = a1\n 10127: u64 [a5 + 0x18] = a0\n 10130: a0 = s1 + 0x7ff\n 10134: a0 = a0 + 0x201\n 10138: a1 = s1 + 0x7ff\n 10142: a1 = a1 + 0x1e1\n 10146: u64 [a5 + 0x10] = a2\n 10149: ra = 368, jump @1075\n      : @347 [@dyn 184] (gas: 34)\n 10155: a4 = s1 + 0x7ff\n 10159: a4 = a4 + 0xd1\n 10163: a5 = a4 + 0x100\n 10167: a0 = u64 [a5 + 0x30]\n 10170: a1 = u64 [a5 + 0x38]\n 10173: a2 = u64 [a5 + 0x40]\n 10176: a3 = u64 [a5 + 0x48]\n 10179: u64 [a4 + 0xe8] = a3\n 10183: a3 = u64 [s1 + 0x48]\n 10186: u64 [a4 + 0xc8] = a3\n 10190: a3 = u64 [s1 + 0x38]\n 10193: u64 [a4 + 0xc0] = a3\n 10197: a3 = u64 [s1 + 0x40]\n 10200: u64 [a4 + 0xb8] = a3\n 10204: a3 = u64 [s1 + 0x50]\n 10207: u64 [a4 + 0xb0] = a3\n 10211: u64 [a4 + 0xe0] = a2\n 10215: u64 [a4 + 0xd8] = a1\n 10219: u64 [a4 + 0xd0] = a0\n 10223: a0 = u64 [s1 + 0x20]\n 10226: u64 [a5 + 0x8] = a0\n 10229: a0 = u64 [s1 + 0x18]\n 10232: u64 [a5] = a0\n 10234: a0 = u64 [s1 + 0x28]\n 10237: u64 [a4 + 0xf8] = a0\n 10241: a0 = s1 + 0x7ff\n 10245: a0 = a0 + 0x1c1\n 10249: a1 = s1 + 0x7ff\n 10253: a1 = a1 + 0x1a1\n 10257: a2 = s1 + 0x7ff\n 10261: a2 = a2 + 0x181\n 10265: a3 = u64 [s1 + 0x30]\n 10268: u64 [a4 + 0xf0] = a3\n 10272: ra = 370, jump @1152\n      : @348 [@dyn 185] (gas: 14)\n 10278: a2 = u64 [s1 + 0x40]\n 10281: a0 = a2 >u 0\n 10283: a1 = u64 [s1 + 0x50]\n 10286: a1 = a1 <u 0x20\n 10289: a1 = a1 ^ 0x1\n 10292: a1 = a0 if a2 != 0\n 10295: a0 = u64 [s1 + 0x38]\n 10298: a0 = a0 >u 0\n 10300: a3 = u64 [s1 + 0x48]\n 10303: a2 = a3 >u 0\n 10305: a2 = a0 if a3 == 0\n 10308: a0 = u64 [s1 + 0x138]\n 10312: a2 = a1 if a0 == 0\n 10315: jump @350 if a2 != 0\n      : @349 (gas: 1)\n 10318: jump @835\n      : @350 (gas: 17)\n 10321: a0 = u64 [s1 + 0x50]\n 10324: a0 = a0 & 0xffffffffffffffe0\n 10327: u64 [s1 + 0xd8] = a0\n 10331: a0 = s1 + 0x7ff\n 10335: a0 = a0 + 0xd1\n 10339: a1 = u64 [s1 + 0x30]\n 10342: u64 [a0 + 0x70] = a1\n 10345: a1 = u64 [s1 + 0x28]\n 10348: u64 [a0 + 0x78] = a1\n 10351: a1 = u64 [s1 + 0x18]\n 10354: u64 [a0 + 0x80] = a1\n 10358: a1 = s1 + 0x7ff\n 10362: a1 = a1 + 0x141\n 10366: a2 = u64 [s1 + 0x20]\n 10369: u64 [a0 + 0x88] = a2\n 10373: a0 = 0\n 10375: ra = 372, jump @12\n      : @351 [@dyn 186] (gas: 3)\n 10381: a1 = 0x20\n 10384: a0 = 0\n 10386: ra = 374, jump @0\n      : @352 [@dyn 187] (gas: 4)\n 10392: a1 = sp + 0xffffffffffffffe0\n 10395: a1 = a1 & 0xffffffffffffffe0\n 10398: u64 [s1 + 0x150] = a1\n 10402: t0 = 376, jump @1215\n      : @353 [@dyn 188] (gas: 25)\n 10408: ecalli 6 // 'hash_keccak_256'\n 10410: u64 [s1 + 344] = 0x20\n 10415: t0 = 0\n 10417: t2 = 0\n 10419: ra = 0\n 10421: u64 [s1 + 304] = 0\n 10425: t1 = 0\n 10427: a5 = 0\n 10429: a4 = s1 + 0x100\n 10433: a3 = u64 [a4 + 0x50]\n 10436: a0 = u64 [a3]\n 10438: a1 = u64 [a3 + 0x8]\n 10441: a2 = u64 [a3 + 0x10]\n 10444: a3 = u64 [a3 + 0x18]\n 10447: a0 = reverse a0\n 10449: u64 [a4 + 0x40] = a0\n 10452: a0 = reverse a1\n 10454: u64 [a4 + 0x38] = a0\n 10457: a0 = reverse a2\n 10459: a2 = 0\n 10461: u64 [a4 + 0x48] = a0\n 10464: a0 = reverse a3\n 10466: a3 = u64 [a4 + 0x30]\n 10469: u64 [a4 + 0x50] = a0\n 10472: fallthrough\n      : @354 (gas: 20)\n 10473: a0 = u64 [s1 + 0xd8]\n 10477: u64 [s1 + 0x130] = a3\n 10481: a0 = a3 <u a0\n 10484: a4 = a0 ^ 0x1\n 10487: u64 [s1 + 0x118] = t1\n 10491: a4 = 0x1 if t1 != 0\n 10494: u64 [s1 + 0x128] = a5\n 10498: u64 [s1 + 0x120] = a2\n 10502: a0 = a2 | a5\n 10505: a4 = 0x1 if a0 != 0\n 10508: a1 = u64 [s1 + 0xf8]\n 10512: t1 = u64 [s1 + 0x158]\n 10516: a1 = a1 + t1\n 10519: a3 = u64 [s1 + 0xf0]\n 10523: a3 = a3 + t0\n 10526: a2 = u64 [s1 + 0xe0]\n 10530: a2 = a2 + t2\n 10533: a0 = u64 [s1 + 0xe8]\n 10537: a0 = a0 + ra\n 10540: jump @356 if a4 == 0\n      : @355 (gas: 1)\n 10543: jump @837\n      : @356 (gas: 9)\n 10546: u64 [s1 + 0x110] = ra\n 10550: a4 = a1 <u t1\n 10553: a3 = a3 + a4\n 10556: a5 = t0\n 10558: t0 = a3 ^ t0\n 10561: u64 [s1 + 0x108] = a5\n 10565: a5 = a3 <u a5\n 10568: a5 = a4 if t0 == 0\n 10571: t0 = 378, jump @1218\n      : @357 [@dyn 189] (gas: 1)\n 10577: jump @359 if a0 == 0\n      : @358 (gas: 1)\n 10580: jump @747\n      : @359 (gas: 2)\n 10583: a0 = s1 + 0x260\n 10587: ra = 380, jump @10\n      : @360 [@dyn 190] (gas: 20)\n 10593: a4 = s1 + 0x200\n 10597: a0 = u64 [a4 + 0x60]\n 10600: a1 = u64 [a4 + 0x68]\n 10603: a2 = u64 [a4 + 0x70]\n 10606: a3 = u64 [a4 + 0x78]\n 10609: u64 [a4 + 0x38] = a3\n 10612: u64 [a4 + 0x30] = a2\n 10615: u64 [a4 + 0x28] = a1\n 10618: u64 [a4 + 0x20] = a0\n 10621: a0 = u64 [s1 + 0x140]\n 10625: u64 [a4 + 0x58] = a0\n 10628: a0 = u64 [s1 + 0x138]\n 10632: u64 [a4 + 0x50] = a0\n 10635: a0 = u64 [s1 + 0x148]\n 10639: u64 [a4 + 0x48] = a0\n 10642: a0 = s1 + 0x240\n 10646: a1 = s1 + 0x220\n 10650: a2 = u64 [s1 + 0x150]\n 10654: u64 [a4 + 0x40] = a2\n 10657: ra = 382, jump @16\n      : @361 [@dyn 191] (gas: 1)\n 10663: t0 = 384, jump @1212\n      : @362 [@dyn 192] (gas: 36)\n 10669: t0 = a1 + a0\n 10672: a1 = t0 <u a1\n 10675: a0 = u64 [s1 + 0x140]\n 10679: a0 = a0 + a1\n 10682: u64 [s1 + 0x140] = a0\n 10686: a0 = u64 [s1 + 0x158]\n 10690: t1 = a0 + 0x20\n 10693: a3 = t1 <u a0\n 10696: a0 = u64 [s1 + 0x108]\n 10700: t2 = a0 + a3\n 10703: a4 = t2 <u a0\n 10706: a4 = a3 if a3 == 0\n 10709: a0 = u64 [s1 + 0x100]\n 10713: a4 = a4 + a0\n 10716: a3 = a4 <u a0\n 10719: ra = u64 [s1 + 0x110]\n 10723: ra = ra + a3\n 10726: a0 = u64 [s1 + 0x130]\n 10730: a3 = a0 + 0x20\n 10733: a5 = a3 <u a0\n 10736: a1 = u64 [s1 + 0x118]\n 10740: a0 = a1 + a5\n 10743: a1 = a0 <u a1\n 10746: a1 = a5 if a5 == 0\n 10749: a2 = u64 [s1 + 0x120]\n 10753: a1 = a1 + a2\n 10756: a5 = a1 <u a2\n 10759: a2 = u64 [s1 + 0x128]\n 10763: a5 = a5 + a2\n 10766: u64 [s1 + 0x138] = t0\n 10770: u64 [s1 + 0x158] = t1\n 10774: t0 = t2\n 10776: t2 = a4\n 10778: t1 = a0\n 10780: a2 = a1\n 10782: jump @354\n      : @363 (gas: 1)\n 10785: t0 = 386, jump @1201\n      : @364 [@dyn 193] (gas: 4)\n 10791: ra = 0x184\n 10795: ecalli 11 // 'value_transferred'\n 10797: t0 = 0x186\n 10801: jump @1204\n      : @365 [@dyn 194] (gas: 1)\n 10804: t0 = 390, jump @1204\n      : @366 [@dyn 195] (gas: 1)\n 10810: jump @368 if a0 == 0\n      : @367 (gas: 1)\n 10813: jump @945\n      : @368 (gas: 1)\n 10816: t0 = 392, jump @1251\n      : @369 [@dyn 196] (gas: 1)\n 10822: jump @371 if a1 <u a0\n      : @370 (gas: 1)\n 10825: jump @945\n      : @371 (gas: 2)\n 10828: a0 = s1 + 0x18e0\n 10832: ra = 394, jump @1177\n      : @372 [@dyn 197] (gas: 7)\n 10838: a0 = s1 + 0x4000\n 10842: i32 a0 = a0 + 0xfffffffffffffb80\n 10846: a1 = 0x4\n 10849: ra = 0x18c\n 10853: ecalli 1 // 'call_data_load'\n 10855: t0 = 0x18e\n 10859: jump @1253\n      : @373 [@dyn 198] (gas: 1)\n 10862: t0 = 398, jump @1253\n      : @374 [@dyn 199] (gas: 13)\n 10868: a0 = u64 [a4 + 0xa8]\n 10872: a1 = u64 [a4 + 0xb0]\n 10876: a2 = u64 [a4 + 0xb8]\n 10880: a3 = u64 [a4 + 0xc0]\n 10884: a4 = s1 + 0x18d8\n 10888: u64 [a4] = a3\n 10890: a3 = a4 + 0xffffffffffffff00\n 10894: u64 [a3 + 0xf8] = a2\n 10898: u64 [a3 + 0xf0] = a1\n 10902: a1 = s1 + 0x18c0\n 10906: u64 [a3 + 0xe8] = a0\n 10910: a0 = 0\n 10912: ra = 400, jump @12\n      : @375 [@dyn 200] (gas: 3)\n 10918: t0 = 0x192\n 10922: a2 = s1 + 0x10d8\n 10926: fallthrough\n      : @376 [@dyn 201] (gas: 7)\n 10927: u64 [a2 + 2016] = 0\n 10931: u64 [a2 + 2008] = 0\n 10935: u64 [a2 + 1992] = 0x3\n 10940: a0 = 0x20\n 10943: a1 = s1 + 0x18a0\n 10947: u64 [a2 + 2000] = 0\n 10951: ra = 404, jump @12\n      : @377 [@dyn 202] (gas: 3)\n 10957: a1 = 0x40\n 10960: a0 = 0\n 10962: ra = 406, jump @0\n      : @378 [@dyn 203] (gas: 1)\n 10968: t0 = 408, jump @1202\n      : @379 [@dyn 204] (gas: 4)\n 10974: ra = 0x19a\n 10978: ecalli 6 // 'hash_keccak_256'\n 10980: t0 = 0x19c\n 10984: jump @1238\n      : @380 [@dyn 205] (gas: 1)\n 10987: t0 = 412, jump @1238\n      : @381 [@dyn 206] (gas: 10)\n 10993: u64 [s1 + 0x140] = a0\n 10997: a0 = reverse a1\n 10999: u64 [s1 + 0x148] = a0\n 11003: a0 = reverse a2\n 11005: u64 [s1 + 0x158] = a0\n 11009: a0 = reverse a3\n 11011: u64 [s1 + 0x150] = a0\n 11015: a0 = s1 + 0x1880\n 11019: a1 = 0x40\n 11022: ra = 414, jump @10\n      : @382 [@dyn 207] (gas: 18)\n 11028: a4 = s1 + 0x10d8\n 11032: a5 = a4 + 0x700\n 11036: a0 = u64 [a5 + 0xc0]\n 11040: u64 [s1 + 0x98] = a0\n 11044: a1 = u64 [a5 + 0xb8]\n 11048: u64 [s1 + 0x90] = a1\n 11052: a2 = u64 [a5 + 0xb0]\n 11056: u64 [s1 + 0xa0] = a2\n 11060: a3 = u64 [a5 + 0xa8]\n 11064: u64 [s1 + 0xa8] = a3\n 11068: u64 [a5 + 0xa0] = a0\n 11072: u64 [a5 + 0x98] = a1\n 11076: u64 [a5 + 0x90] = a2\n 11080: a0 = s1 + 0x1860\n 11084: u64 [a5 + 0x88] = a3\n 11088: ra = 0x1a0\n 11092: t0 = 0x558\n 11096: jump @1237\n      : @383 [@dyn 208] (gas: 3)\n 11099: a0 = s1 + 0x1840\n 11103: a1 = 0x40\n 11106: ra = 418, jump @10\n      : @384 [@dyn 209] (gas: 27)\n 11112: a0 = s1 + 0x10d8\n 11116: a5 = a0 + 0x700\n 11120: a2 = u64 [a5 + 0x80]\n 11124: u64 [s1 + 0x138] = a2\n 11128: a3 = u64 [a5 + 0x78]\n 11131: u64 [s1 + 0x130] = a3\n 11135: a4 = u64 [a5 + 0x70]\n 11138: u64 [s1 + 0x128] = a4\n 11142: a1 = u64 [a5 + 0x68]\n 11145: u64 [s1 + 0x120] = a1\n 11149: u64 [a5 + 0x20] = a2\n 11152: u64 [a5 + 0x18] = a3\n 11155: u64 [a5 + 0x10] = a4\n 11158: u64 [a5 + 0x8] = a1\n 11161: a1 = u64 [s1 + 0x150]\n 11165: u64 [a5 + 0x40] = a1\n 11168: a1 = u64 [s1 + 0x158]\n 11172: u64 [a5 + 0x38] = a1\n 11175: a1 = u64 [s1 + 0x148]\n 11179: u64 [a5 + 0x30] = a1\n 11182: a4 = a0\n 11184: a0 = s1 + 0x1820\n 11188: a1 = s1 + 0x1800\n 11192: a2 = s1 + 0x17e0\n 11196: a3 = u64 [s1 + 0x140]\n 11200: u64 [a4 + 0x728] = a3\n 11204: ra = 420, jump @1084\n      : @385 [@dyn 210] (gas: 40)\n 11210: a1 = s1 + 0x10d8\n 11214: a5 = a1 + 0x700\n 11218: a0 = u64 [a5 + 0x50]\n 11221: a2 = u64 [a5 + 0x60]\n 11224: a4 = u64 [a5 + 0x48]\n 11227: u64 [s1 + 0x118] = a4\n 11231: a3 = u64 [a5 + 0x58]\n 11234: t0 = u64 [s1 + 0x128]\n 11238: ra = a0 ^ t0\n 11241: a5 = a0 <u t0\n 11244: t1 = u64 [s1 + 0x120]\n 11248: t2 = a4 <u t1\n 11251: a5 = t2 if ra == 0\n 11254: a1 = u64 [s1 + 0x130]\n 11258: a4 = a3 - a1\n 11261: a3 = a3 <u a1\n 11264: ra = a1\n 11266: a1 = u64 [s1 + 0x138]\n 11270: a2 = a2 - a1\n 11273: a2 = a2 - a3\n 11276: a3 = a4 <u a5\n 11279: a2 = a2 - a3\n 11282: a4 = a4 - a5\n 11285: a0 = a0 - t0\n 11288: t2 = a0 - t2\n 11291: a3 = u64 [s1 + 0x118]\n 11295: a3 = a3 - t1\n 11298: a0 = s1 + 0x10d8\n 11302: u64 [a0 + 0x6c8] = a3\n 11306: u64 [a0 + 0x700] = a1\n 11310: u64 [a0 + 0x6f8] = ra\n 11314: u64 [a0 + 0x6f0] = t0\n 11318: u64 [a0 + 0x6e8] = t1\n 11322: u64 [a0 + 0x6d0] = t2\n 11326: u64 [a0 + 0x6d8] = a4\n 11330: a3 = a0\n 11332: a0 = s1 + 0x17c0\n 11336: a1 = s1 + 0x17a0\n 11340: u64 [a3 + 0x6e0] = a2\n 11344: ra = 422, jump @1126\n      : @386 [@dyn 211] (gas: 12)\n 11350: a0 = u64 [s1 + 0xa8]\n 11354: a1 = u64 [s1 + 0x98]\n 11358: a2 = u64 [s1 + 0xa0]\n 11362: a2 = a2 | a1\n 11365: a3 = u64 [s1 + 0x90]\n 11369: a1 = a0 | a3\n 11372: a1 = a1 | a2\n 11375: a1 = a1 >> 0x20\n 11378: a2 = a2 | a3\n 11381: a2 = a2 << 0x20\n 11384: a1 = a1 | a2\n 11387: jump @388 if a1 == 0\n      : @387 (gas: 1)\n 11390: jump @747\n      : @388 (gas: 12)\n 11393: a3 = s1 + 0x10d8\n 11397: a1 = u64 [s1 + 0x120]\n 11401: a4 = a3 + 0x600\n 11405: u64 [a4 + 0xa8] = a1\n 11409: a1 = u64 [s1 + 0x128]\n 11413: u64 [a4 + 0xb0] = a1\n 11417: a1 = u64 [s1 + 0x130]\n 11421: u64 [a4 + 0xb8] = a1\n 11425: a1 = s1 + 0x1780\n 11429: a2 = u64 [s1 + 0x138]\n 11433: u64 [a4 + 0xc0] = a2\n 11437: ra = 424, jump @12\n      : @389 [@dyn 212] (gas: 19)\n 11443: a0 = u64 [s1 + 0x140]\n 11447: a2 = a0 + 0x1\n 11450: u64 [s1 + 0x140] = a2\n 11454: a0 = a2 <u 0x1\n 11457: a1 = u64 [s1 + 0x148]\n 11461: a0 = a0 + a1\n 11464: u64 [s1 + 0x148] = a0\n 11468: a0 = a0 | a2\n 11471: a0 = a0 <u 0x1\n 11474: a1 = u64 [s1 + 0x158]\n 11478: a0 = a0 + a1\n 11481: u64 [s1 + 0x138] = a0\n 11485: a0 = a0 <u a1\n 11488: a1 = u64 [s1 + 0x150]\n 11492: a0 = a0 + a1\n 11495: u64 [s1 + 0x158] = a0\n 11499: a0 = s1 + 0x1760\n 11503: a1 = 0x40\n 11506: ra = 426, jump @10\n      : @390 [@dyn 213] (gas: 23)\n 11512: a0 = s1 + 0x10d8\n 11516: a2 = a0 + 0x600\n 11520: a1 = u64 [a2 + 0xa0]\n 11524: u64 [s1 + 0x88] = a1\n 11528: a1 = u64 [a2 + 0x98]\n 11532: u64 [s1 + 0x80] = a1\n 11536: a1 = u64 [a2 + 0x90]\n 11540: u64 [s1 + 0x78] = a1\n 11543: a1 = u64 [a2 + 0x88]\n 11547: u64 [s1 + 0x70] = a1\n 11550: a4 = s1 + 0x100\n 11554: a1 = u64 [a4 + 0x58]\n 11557: u64 [a2 + 0x60] = a1\n 11560: a1 = u64 [a4 + 0x38]\n 11563: u64 [a2 + 0x58] = a1\n 11566: a1 = u64 [a4 + 0x48]\n 11569: u64 [a2 + 0x50] = a1\n 11572: a2 = a0\n 11574: a0 = s1 + 0x1740\n 11578: a1 = s1 + 0x1720\n 11582: a3 = u64 [a4 + 0x40]\n 11585: u64 [a2 + 0x648] = a3\n 11589: ra = 428, jump @14\n      : @391 [@dyn 214] (gas: 12)\n 11595: a3 = u64 [s1 + 0x70]\n 11598: a1 = u64 [s1 + 0x78]\n 11601: a2 = u64 [s1 + 0x80]\n 11605: a0 = u64 [s1 + 0x88]\n 11609: a0 = a0 | a1\n 11612: a1 = a3 | a2\n 11615: a1 = a1 | a0\n 11618: a1 = a1 >> 0x20\n 11621: a0 = a0 | a2\n 11624: a0 = a0 << 0x20\n 11627: a0 = a0 | a1\n 11630: jump @393 if a0 == 0\n      : @392 (gas: 1)\n 11633: jump @747\n      : @393 (gas: 19)\n 11636: a2 = s1 + 0x10d8\n 11640: t0 = u64 [a2 + 0x680]\n 11644: t1 = u64 [a2 + 0x678]\n 11648: a5 = a2 + 0x600\n 11652: a1 = u64 [a5 + 0x70]\n 11655: a4 = u64 [a5 + 0x68]\n 11658: a0 = 0xffffffff\n 11668: u64 [s1 + 0xd8] = a0\n 11672: u64 [s1 + 0xb8] = a4\n 11676: u64 [a5 + 0x28] = a4\n 11679: u64 [s1 + 0xc0] = a1\n 11683: u64 [a5 + 0x30] = a1\n 11686: u64 [s1 + 0xc8] = t1\n 11690: u64 [a2 + 0x638] = t1\n 11694: a1 = s1 + 0x1700\n 11698: u64 [s1 + 0xd0] = t0\n 11702: u64 [a2 + 0x640] = t0\n 11706: a0 = a3\n 11708: ra = 430, jump @12\n      : @394 [@dyn 215] (gas: 14)\n 11714: a0 = u64 [s1 + 0x158]\n 11718: a1 = s1 + 0x10d8\n 11722: a2 = a1 + 0x600\n 11726: u64 [a2 + 0x20] = a0\n 11729: a0 = u64 [s1 + 0x138]\n 11733: u64 [a2 + 0x18] = a0\n 11736: a0 = u64 [s1 + 0x148]\n 11740: u64 [a2 + 0x10] = a0\n 11743: a2 = a1\n 11745: a1 = s1 + 0x16e0\n 11749: a0 = u64 [s1 + 0x140]\n 11753: u64 [a2 + 0x608] = a0\n 11757: a0 = 0\n 11759: ra = 432, jump @12\n      : @395 [@dyn 216] (gas: 3)\n 11765: a1 = 0x20\n 11768: a0 = 0\n 11770: ra = 434, jump @0\n      : @396 [@dyn 217] (gas: 4)\n 11776: a1 = sp + 0xffffffffffffffe0\n 11779: a1 = a1 & 0xffffffffffffffe0\n 11782: u64 [s1 + 0x158] = a1\n 11786: t0 = 436, jump @1215\n      : @397 [@dyn 218] (gas: 30)\n 11792: ecalli 6 // 'hash_keccak_256'\n 11794: u64 [s1 + 312] = 0\n 11798: a5 = 0\n 11800: u64 [s1 + 304] = 0\n 11804: a4 = s1 + 0x100\n 11808: a3 = u64 [a4 + 0x58]\n 11811: a0 = u64 [a3]\n 11813: a1 = u64 [a3 + 0x8]\n 11816: a2 = u64 [a3 + 0x10]\n 11819: a3 = u64 [a3 + 0x18]\n 11822: a0 = reverse a0\n 11824: u64 [a4 + 0x8] = a0\n 11827: a0 = reverse a1\n 11829: u64 [a4 + 0x10] = a0\n 11832: a0 = reverse a2\n 11834: u64 [a4 + 0x20] = a0\n 11837: a0 = reverse a3\n 11839: u64 [a4 + 0x18] = a0\n 11842: a3 = 0\n 11844: a0 = 0xffffffe0\n 11854: u64 [s1 + 0xb0] = a0\n 11858: a0 = u64 [s1 + 0x70]\n 11861: u64 [a4 + 0x58] = a0\n 11864: a0 = u64 [s1 + 0x78]\n 11867: u64 [a4 + 0x50] = a0\n 11870: a0 = u64 [s1 + 0x80]\n 11874: u64 [a4 + 0x48] = a0\n 11877: a0 = u64 [s1 + 0x88]\n 11881: u64 [a4 + 0x40] = a0\n 11884: fallthrough\n      : @398 (gas: 33)\n 11885: t2 = u64 [s1 + 0x158]\n 11889: ra = t2 + 0x20\n 11892: a0 = u64 [s1 + 0xb8]\n 11896: a1 = u64 [s1 + 0x138]\n 11900: a0 = a1 <u a0\n 11903: a2 = u64 [s1 + 0xc0]\n 11907: a1 = a5 ^ a2\n 11910: a2 = a5 <u a2\n 11913: a2 = a0 if a1 == 0\n 11916: a4 = u64 [s1 + 0xc8]\n 11920: t0 = a3 <u a4\n 11923: a0 = a3\n 11925: a3 = u64 [s1 + 0xd0]\n 11929: a1 = u64 [s1 + 0x130]\n 11933: t1 = a1 ^ a3\n 11936: a3 = a1 <u a3\n 11939: a3 = t0 if t1 == 0\n 11942: u64 [s1 + 0x100] = a0\n 11946: a0 = a0 ^ a4\n 11949: a0 = a0 | t1\n 11952: u64 [s1 + 0x128] = ra\n 11956: a4 = ra <u t2\n 11959: a3 = a2 if a0 == 0\n 11962: a0 = u64 [s1 + 0x150]\n 11966: a1 = a0 + a4\n 11969: a0 = a1 <u a0\n 11972: a0 = a4 if a4 == 0\n 11975: a2 = u64 [s1 + 0x148]\n 11979: a4 = a2 + a0\n 11982: a0 = a4 <u a2\n 11985: a2 = u64 [s1 + 0x140]\n 11989: a0 = a0 + a2\n 11992: jump @400 if a3 != 0\n      : @399 (gas: 1)\n 11995: jump @705\n      : @400 (gas: 17)\n 11998: u64 [s1 + 0xe0] = a4\n 12002: u64 [s1 + 0xe8] = a0\n 12006: u64 [s1 + 0xf0] = a1\n 12010: u64 [s1 + 0xf8] = a5\n 12014: a3 = s1 + 0x10d8\n 12018: a0 = u64 [s1 + 0x118]\n 12022: a4 = a3 + 0x300\n 12026: u64 [a4 + 0xc8] = a0\n 12030: a0 = u64 [s1 + 0x120]\n 12034: u64 [a4 + 0xd0] = a0\n 12038: a0 = u64 [s1 + 0x110]\n 12042: u64 [a4 + 0xd8] = a0\n 12046: a0 = s1 + 0x14c0\n 12050: a1 = s1 + 0x14a0\n 12054: a2 = u64 [s1 + 0x108]\n 12058: u64 [a4 + 0xe0] = a2\n 12062: ra = 438, jump @14\n      : @401 [@dyn 219] (gas: 11)\n 12068: a3 = s1 + 0x100\n 12072: a0 = u64 [a3 + 0x48]\n 12075: a1 = u64 [a3 + 0x40]\n 12078: a0 = a0 | a1\n 12081: a1 = u64 [s1 + 0xb0]\n 12085: a2 = u64 [a3 + 0x58]\n 12088: a1 = a2 <u a1\n 12091: a2 = u64 [a3 + 0x50]\n 12094: a1 = 0 if a2 != 0\n 12096: a1 = 0 if a0 != 0\n 12098: jump @403 if a1 != 0\n      : @402 (gas: 1)\n 12101: jump @747\n      : @403 (gas: 16)\n 12104: a4 = s1 + 0x10d8\n 12108: a5 = a4 + 0x300\n 12112: a0 = u64 [a5 + 0xf8]\n 12116: a1 = u64 [a5 + 0xf0]\n 12120: a2 = u64 [a5 + 0xe8]\n 12124: a3 = u64 [s1 + 0xd8]\n 12128: a0 = a0 & a3\n 12131: a1 = a1 & 0xffffffffffffffff\n 12134: a2 = a2 & 0xffffffffffffffff\n 12137: u64 [a4 + 960] = 0\n 12141: u64 [a5 + 0xa8] = a2\n 12145: u64 [a5 + 0xb0] = a1\n 12149: a1 = s1 + 0x1480\n 12153: u64 [a5 + 0xb8] = a0\n 12157: a0 = u64 [s1 + 0x128]\n 12161: ra = 440, jump @12\n      : @404 [@dyn 220] (gas: 41)\n 12167: a4 = s1 + 0x100\n 12171: a1 = u64 [a4 + 0x18]\n 12174: a1 = a1 + 0x1\n 12177: a0 = a1 <u 0x1\n 12180: a2 = u64 [a4 + 0x20]\n 12183: a2 = a2 + a0\n 12186: u64 [a4 + 0x20] = a2\n 12189: u64 [a4 + 0x18] = a1\n 12192: a0 = a1 | a2\n 12195: a0 = a0 <u 0x1\n 12198: a1 = u64 [a4 + 0x10]\n 12201: a0 = a0 + a1\n 12204: a1 = a0 <u a1\n 12207: a2 = u64 [a4 + 0x8]\n 12210: a2 = a2 + a1\n 12213: u64 [a4 + 0x8] = a2\n 12216: a2 = u64 [a4 + 0x38]\n 12219: a2 = a2 + 0x1\n 12222: a1 = a2 <u 0x1\n 12225: a5 = u64 [s1 + 0xf8]\n 12229: a5 = a5 + a1\n 12232: u64 [a4 + 0x38] = a2\n 12235: a1 = a2 | a5\n 12238: a1 = a1 <u 0x1\n 12241: a2 = u64 [a4]\n 12243: a1 = a1 + a2\n 12246: a2 = a1 <u a2\n 12249: a3 = u64 [a4 + 0x30]\n 12252: a3 = a3 + a2\n 12255: u64 [a4 + 0x30] = a3\n 12258: a2 = u64 [a4 + 0x28]\n 12261: u64 [a4 + 0x58] = a2\n 12264: a2 = u64 [s1 + 0xf0]\n 12268: u64 [a4 + 0x50] = a2\n 12271: a2 = u64 [s1 + 0xe0]\n 12275: u64 [a4 + 0x48] = a2\n 12278: a2 = u64 [s1 + 0xe8]\n 12282: u64 [a4 + 0x40] = a2\n 12285: u64 [a4 + 0x10] = a0\n 12288: a3 = a1\n 12290: jump @398\n      : @405 (gas: 1)\n 12293: t0 = 442, jump @1201\n      : @406 [@dyn 221] (gas: 4)\n 12299: ra = 0x1bc\n 12303: ecalli 11 // 'value_transferred'\n 12305: t0 = 0x1be\n 12309: jump @1204\n      : @407 [@dyn 222] (gas: 1)\n 12312: t0 = 446, jump @1204\n      : @408 [@dyn 223] (gas: 1)\n 12318: jump @410 if a0 == 0\n      : @409 (gas: 1)\n 12321: jump @945\n      : @410 (gas: 1)\n 12324: t0 = 448, jump @1251\n      : @411 [@dyn 224] (gas: 1)\n 12330: jump @413 if a1 <u a0\n      : @412 (gas: 1)\n 12333: jump @945\n      : @413 (gas: 4)\n 12336: a0 = s1 + 0x1ce0\n 12340: ra = 0x1c2\n 12344: t0 = 0x4fc\n 12348: jump @1252\n      : @414 [@dyn 225] (gas: 3)\n 12351: t0 = 0x1c4\n 12355: a1 = s1 + 0x18d8\n 12359: fallthrough\n      : @415 [@dyn 226] (gas: 8)\n 12360: a0 = u64 [a1 + 0x408]\n 12364: u64 [s1 + 0x158] = a0\n 12368: a0 = u64 [a1 + 0x410]\n 12372: u64 [s1 + 0x150] = a0\n 12376: a0 = u32 [a1 + 0x418]\n 12380: u64 [s1 + 0x148] = a0\n 12384: a0 = s1 + 0x1cc0\n 12388: ra = 454, jump @1177\n      : @416 [@dyn 227] (gas: 12)\n 12394: a0 = s1 + 0x18d8\n 12398: u64 [a0 + 992] = 0\n 12402: a1 = u64 [s1 + 0x148]\n 12406: a3 = a0 + 0x300\n 12410: u64 [a3 + 0xd8] = a1\n 12414: a1 = u64 [s1 + 0x150]\n 12418: u64 [a3 + 0xd0] = a1\n 12422: a1 = s1 + 0x1ca0\n 12426: a2 = u64 [s1 + 0x158]\n 12430: u64 [a3 + 0xc8] = a2\n 12434: a0 = 0\n 12436: ra = 456, jump @12\n      : @417 [@dyn 228] (gas: 9)\n 12442: a0 = s1 + 0x18d8\n 12446: u64 [a0 + 960] = 0\n 12450: u64 [a0 + 952] = 0\n 12454: u64 [a0 + 944] = 0\n 12458: a3 = a0\n 12460: a0 = 0x20\n 12463: a1 = s1 + 0x1c80\n 12467: u64 [a3 + 936] = 0x1\n 12472: ra = 458, jump @12\n      : @418 [@dyn 229] (gas: 3)\n 12478: a1 = 0x40\n 12481: a0 = 0\n 12483: ra = 460, jump @0\n      : @419 [@dyn 230] (gas: 1)\n 12489: t0 = 462, jump @1202\n      : @420 [@dyn 231] (gas: 4)\n 12495: ra = 0x1d0\n 12499: ecalli 6 // 'hash_keccak_256'\n 12501: t0 = 0x1d2\n 12505: jump @1238\n      : @421 [@dyn 232] (gas: 1)\n 12508: t0 = 466, jump @1238\n      : @422 [@dyn 233] (gas: 10)\n 12514: u64 [s1 + 0x120] = a0\n 12518: a0 = reverse a1\n 12520: u64 [s1 + 0x128] = a0\n 12524: a0 = reverse a2\n 12526: u64 [s1 + 0x138] = a0\n 12530: a0 = reverse a3\n 12532: u64 [s1 + 0x130] = a0\n 12536: a0 = s1 + 0x1c60\n 12540: a1 = 0x40\n 12543: ra = 468, jump @10\n      : @423 [@dyn 234] (gas: 3)\n 12549: a1 = s1 + 0x18d8\n 12553: a5 = a1 + 0x300\n 12557: t0 = 470, jump @1223\n      : @424 [@dyn 235] (gas: 6)\n 12563: i32 a0 = a0 + 0xfffffffffffffc40\n 12567: a0 = a0 + s1\n 12570: u64 [a5 + 0x68] = a3\n 12573: ra = 0x1d8\n 12577: t0 = 0x558\n 12581: jump @1237\n      : @425 [@dyn 236] (gas: 3)\n 12584: a0 = s1 + 0x1c20\n 12588: a1 = 0x40\n 12591: ra = 474, jump @10\n      : @426 [@dyn 237] (gas: 28)\n 12597: a0 = s1 + 0x18d8\n 12601: a5 = a0 + 0x300\n 12605: a2 = u64 [a5 + 0x60]\n 12608: u64 [s1 + 0x118] = a2\n 12612: a3 = u64 [a5 + 0x58]\n 12615: u64 [s1 + 0x110] = a3\n 12619: a4 = u64 [a5 + 0x50]\n 12622: u64 [s1 + 0x108] = a4\n 12626: a1 = u64 [a5 + 0x48]\n 12629: u64 [s1 + 0x100] = a1\n 12633: u64 [a5] = a2\n 12635: a2 = a0 + 0x200\n 12639: u64 [a2 + 0xf8] = a3\n 12643: u64 [a2 + 0xf0] = a4\n 12647: u64 [a2 + 0xe8] = a1\n 12651: a1 = u64 [s1 + 0x130]\n 12655: u64 [a5 + 0x20] = a1\n 12658: a1 = u64 [s1 + 0x138]\n 12662: u64 [a5 + 0x18] = a1\n 12665: a1 = u64 [s1 + 0x128]\n 12669: u64 [a5 + 0x10] = a1\n 12672: a4 = a0\n 12674: a0 = s1 + 0x1c00\n 12678: a1 = s1 + 0x1be0\n 12682: a2 = s1 + 0x1bc0\n 12686: a3 = u64 [s1 + 0x120]\n 12690: u64 [a4 + 0x308] = a3\n 12694: ra = 476, jump @1084\n      : @427 [@dyn 238] (gas: 41)\n 12700: a1 = s1 + 0x18d8\n 12704: a5 = a1 + 0x300\n 12708: a0 = u64 [a5 + 0x30]\n 12711: a2 = u64 [a5 + 0x40]\n 12714: a4 = u64 [a5 + 0x28]\n 12717: u64 [s1 + 0xf8] = a4\n 12721: a3 = u64 [a5 + 0x38]\n 12724: t0 = u64 [s1 + 0x108]\n 12728: ra = a0 ^ t0\n 12731: a5 = a0 <u t0\n 12734: t1 = u64 [s1 + 0x100]\n 12738: t2 = a4 <u t1\n 12741: a5 = t2 if ra == 0\n 12744: a1 = u64 [s1 + 0x110]\n 12748: a4 = a3 - a1\n 12751: a3 = a3 <u a1\n 12754: ra = a1\n 12756: a1 = u64 [s1 + 0x118]\n 12760: a2 = a2 - a1\n 12763: a2 = a2 - a3\n 12766: a3 = a4 <u a5\n 12769: a2 = a2 - a3\n 12772: a4 = a4 - a5\n 12775: a0 = a0 - t0\n 12778: t2 = a0 - t2\n 12781: a3 = u64 [s1 + 0xf8]\n 12785: a3 = a3 - t1\n 12788: a0 = s1 + 0x18d8\n 12792: a5 = a0 + 0x200\n 12796: u64 [a5 + 0xa8] = a3\n 12800: u64 [a5 + 0xe0] = a1\n 12804: u64 [a0 + 0x2d8] = ra\n 12808: u64 [a0 + 0x2d0] = t0\n 12812: u64 [a0 + 0x2c8] = t1\n 12816: u64 [a0 + 0x2b0] = t2\n 12820: u64 [a5 + 0xb8] = a4\n 12824: a3 = a0\n 12826: a0 = s1 + 0x1ba0\n 12830: a1 = s1 + 0x1b80\n 12834: u64 [a3 + 0x2c0] = a2\n 12838: ra = 478, jump @1126\n      : @428 [@dyn 239] (gas: 1)\n 12844: t0 = 480, jump @1233\n      : @429 [@dyn 240] (gas: 1)\n 12850: jump @431 if a0 == 0\n      : @430 (gas: 1)\n 12853: jump @747\n      : @431 (gas: 13)\n 12856: a2 = s1 + 0x18d8\n 12860: a0 = u64 [s1 + 0x100]\n 12864: a3 = a2 + 0x200\n 12868: u64 [a3 + 0x88] = a0\n 12872: a0 = u64 [s1 + 0x108]\n 12876: u64 [a3 + 0x90] = a0\n 12880: a0 = u64 [s1 + 0x110]\n 12884: u64 [a3 + 0x98] = a0\n 12888: a1 = s1 + 0x1b60\n 12892: a0 = u64 [s1 + 0x118]\n 12896: u64 [a3 + 0xa0] = a0\n 12900: a0 = u64 [s1 + 0x158]\n 12904: ra = 482, jump @12\n      : @432 [@dyn 241] (gas: 3)\n 12910: a0 = s1 + 0x1b40\n 12914: a1 = 0x40\n 12917: ra = 484, jump @10\n      : @433 [@dyn 242] (gas: 34)\n 12923: a5 = s1 + 0x18d8\n 12927: t1 = u64 [a5 + 0x280]\n 12931: u64 [s1 + 0x118] = t1\n 12935: t2 = u64 [a5 + 0x278]\n 12939: u64 [s1 + 0x110] = t2\n 12943: ra = u64 [a5 + 0x270]\n 12947: u64 [s1 + 0x108] = ra\n 12951: t0 = u64 [a5 + 0x268]\n 12955: u64 [s1 + 0x100] = t0\n 12959: a3 = u64 [s1 + 0x120]\n 12963: a3 = a3 + 0x1\n 12966: a0 = a3 <u 0x1\n 12969: a1 = u64 [s1 + 0x128]\n 12973: a0 = a0 + a1\n 12976: a1 = a3 | a0\n 12979: a1 = a1 <u 0x1\n 12982: a2 = u64 [s1 + 0x138]\n 12986: a1 = a1 + a2\n 12989: a2 = a1 <u a2\n 12992: a4 = u64 [s1 + 0x130]\n 12996: a2 = a2 + a4\n 12999: u64 [a5 + 0x220] = t1\n 13003: u64 [a5 + 0x218] = t2\n 13007: u64 [a5 + 0x210] = ra\n 13011: u64 [a5 + 0x208] = t0\n 13015: a4 = a5 + 0x200\n 13019: u64 [a4 + 0x40] = a2\n 13022: u64 [a4 + 0x38] = a1\n 13025: u64 [a4 + 0x30] = a0\n 13028: a0 = s1 + 0x1b20\n 13032: a1 = s1 + 0x1b00\n 13036: a2 = s1 + 0x1ae0\n 13040: u64 [a4 + 0x28] = a3\n 13043: ra = 486, jump @1084\n      : @434 [@dyn 243] (gas: 40)\n 13049: a1 = s1 + 0x18d8\n 13053: a5 = a1 + 0x200\n 13057: a0 = u64 [a5 + 0x50]\n 13060: a2 = u64 [a5 + 0x60]\n 13063: a4 = u64 [a5 + 0x48]\n 13066: u64 [s1 + 0x138] = a4\n 13070: a3 = u64 [a5 + 0x58]\n 13073: t0 = u64 [s1 + 0x108]\n 13077: ra = a0 ^ t0\n 13080: a5 = a0 <u t0\n 13083: t1 = u64 [s1 + 0x100]\n 13087: t2 = a4 <u t1\n 13090: a5 = t2 if ra == 0\n 13093: a1 = u64 [s1 + 0x110]\n 13097: a4 = a3 - a1\n 13100: a3 = a3 <u a1\n 13103: ra = a1\n 13105: a1 = u64 [s1 + 0x118]\n 13109: a2 = a2 - a1\n 13112: a2 = a2 - a3\n 13115: a3 = a4 <u a5\n 13118: a2 = a2 - a3\n 13121: a4 = a4 - a5\n 13124: a0 = a0 - t0\n 13127: t2 = a0 - t2\n 13130: a3 = u64 [s1 + 0x138]\n 13134: a3 = a3 - t1\n 13137: a0 = s1 + 0x18d8\n 13141: u64 [a0 + 0x1c8] = a3\n 13145: u64 [a0 + 0x200] = a1\n 13149: u64 [a0 + 0x1f8] = ra\n 13153: u64 [a0 + 0x1f0] = t0\n 13157: u64 [a0 + 0x1e8] = t1\n 13161: u64 [a0 + 0x1d0] = t2\n 13165: u64 [a0 + 0x1d8] = a4\n 13169: a3 = a0\n 13171: a0 = s1 + 0x1ac0\n 13175: a1 = s1 + 0x1aa0\n 13179: u64 [a3 + 0x1e0] = a2\n 13183: ra = 488, jump @1126\n      : @435 [@dyn 244] (gas: 11)\n 13189: a3 = s1 + 0x100\n 13193: a0 = u64 [a3 + 0x48]\n 13196: a1 = u64 [a3 + 0x40]\n 13199: a0 = a0 | a1\n 13202: a1 = 0xffffffe0\n 13212: a2 = u64 [a3 + 0x58]\n 13215: a1 = a2 <u a1\n 13218: a2 = u64 [a3 + 0x50]\n 13221: a1 = 0 if a2 != 0\n 13223: a1 = 0 if a0 != 0\n 13225: jump @437 if a1 != 0\n      : @436 (gas: 1)\n 13228: jump @747\n      : @437 (gas: 16)\n 13231: a0 = u64 [s1 + 0x158]\n 13235: i32 a2 = a0 + 0x20\n 13238: a3 = s1 + 0x18d8\n 13242: a0 = u64 [s1 + 0x100]\n 13246: a4 = a3 + 0x100\n 13250: u64 [a4 + 0xa8] = a0\n 13254: a0 = u64 [s1 + 0x108]\n 13258: u64 [a4 + 0xb0] = a0\n 13262: a0 = u64 [s1 + 0x110]\n 13266: u64 [a4 + 0xb8] = a0\n 13270: a1 = s1 + 0x1a80\n 13274: a0 = u64 [s1 + 0x118]\n 13278: u64 [a4 + 0xc0] = a0\n 13282: u64 [s1 + 0x130] = a2\n 13286: a0 = a2\n 13288: ra = 490, jump @12\n      : @438 [@dyn 245] (gas: 3)\n 13294: a0 = s1 + 0x1a60\n 13298: a1 = 0x40\n 13301: ra = 492, jump @10\n      : @439 [@dyn 246] (gas: 18)\n 13307: a4 = s1 + 0x18d8\n 13311: a5 = a4 + 0x100\n 13315: a2 = u64 [a5 + 0xa0]\n 13319: a3 = u64 [a5 + 0x98]\n 13323: a1 = u64 [a5 + 0x90]\n 13327: a0 = u64 [a5 + 0x88]\n 13331: a5 = s1 + 0x100\n 13335: u64 [a5 + 0x50] = a1\n 13338: u64 [a5 + 0x48] = a2\n 13341: a2 = a2 | a1\n 13344: a1 = a0 | a3\n 13347: a1 = a1 | a2\n 13350: a1 = a1 >> 0x20\n 13353: u64 [a5 + 0x40] = a3\n 13356: a2 = a2 | a3\n 13359: a2 = a2 << 0x20\n 13362: a1 = a1 | a2\n 13365: jump @441 if a1 == 0\n      : @440 (gas: 1)\n 13368: jump @747\n      : @441 (gas: 7)\n 13371: u64 [a4 + 384] = 0\n 13375: u64 [a4 + 376] = 0\n 13379: u64 [a4 + 368] = 0\n 13383: a1 = s1 + 0x1a40\n 13387: u64 [a4 + 360] = 0x20\n 13392: u64 [s1 + 0x138] = a0\n 13396: ra = 494, jump @12\n      : @442 [@dyn 247] (gas: 3)\n 13402: a0 = s1 + 0x1a20\n 13406: a1 = u64 [s1 + 0x158]\n 13410: ra = 496, jump @10\n      : @443 [@dyn 248] (gas: 12)\n 13416: a5 = s1 + 0x100\n 13420: a1 = u64 [a5 + 0x38]\n 13423: a0 = u64 [a5 + 0x48]\n 13426: a2 = u64 [a5 + 0x40]\n 13429: a3 = a2 | a0\n 13432: a4 = 0x100000000\n 13442: a0 = 0xffffffe0\n 13452: a0 = a1 <u a0\n 13455: a2 = u64 [a5 + 0x50]\n 13458: a0 = 0 if a2 != 0\n 13460: a0 = 0 if a3 != 0\n 13462: jump @445 if a0 != 0\n      : @444 (gas: 1)\n 13465: jump @747\n      : @445 (gas: 21)\n 13468: a2 = s1 + 0x18d8\n 13472: a5 = a2 + 0x100\n 13476: a0 = u64 [a5 + 0x60]\n 13479: u64 [s1 + 0x118] = a0\n 13483: a0 = u64 [a5 + 0x58]\n 13486: u64 [s1 + 0x120] = a0\n 13490: a0 = u64 [a5 + 0x50]\n 13493: u64 [s1 + 0x128] = a0\n 13497: a0 = u64 [a5 + 0x48]\n 13500: u64 [s1 + 0x158] = a0\n 13504: i32 a1 = a1 + 0\n 13506: u64 [s1 + 0x100] = a1\n 13510: i32 a0 = a1 + 0x20\n 13513: u64 [a2 + 320] = 0\n 13517: u64 [a2 + 312] = 0\n 13521: u64 [a5 + 40] = 0x40\n 13525: a1 = s1 + 0x1a00\n 13529: u64 [a2 + 304] = 0\n 13533: u64 [s1 + 0x110] = a3\n 13537: u64 [s1 + 0x108] = a4\n 13541: ra = 498, jump @12\n      : @446 [@dyn 249] (gas: 6)\n 13547: a0 = u64 [s1 + 0x138]\n 13551: a0 = a0 + 0x60\n 13554: a1 = u64 [s1 + 0x138]\n 13558: a1 = a0 <u a1\n 13561: a3 = u64 [s1 + 0x150]\n 13565: t0 = 500, jump @1243\n      : @447 [@dyn 250] (gas: 23)\n 13571: a1 = u64 [s1 + 0x140]\n 13575: a3 = a3 + a1\n 13578: a1 = a3 <u a1\n 13581: a4 = u64 [s1 + 0x148]\n 13585: a4 = a4 + a1\n 13588: a1 = s1 + 0x18d8\n 13592: u64 [a1 + 0xd0] = a2\n 13596: u64 [a1 + 0xc8] = a0\n 13600: a0 = u64 [s1 + 0x118]\n 13604: u64 [a1 + 0x100] = a0\n 13608: a0 = u64 [s1 + 0x120]\n 13612: u64 [a1 + 0xf8] = a0\n 13616: a0 = u64 [s1 + 0x128]\n 13620: u64 [a1 + 0xf0] = a0\n 13624: a0 = u64 [s1 + 0x158]\n 13628: u64 [a1 + 0xe8] = a0\n 13632: u64 [a1 + 0xd8] = a3\n 13636: a3 = a1\n 13638: a0 = s1 + 0x19e0\n 13642: a1 = s1 + 0x19c0\n 13646: a2 = s1 + 0x19a0\n 13650: u64 [a3 + 0xe0] = a4\n 13654: ra = 502, jump @1057\n      : @448 [@dyn 251] (gas: 3)\n 13660: t0 = 0x1f8\n 13664: a1 = s1 + 0x18d8\n 13668: fallthrough\n      : @449 [@dyn 252] (gas: 12)\n 13669: a2 = a1 + 0x100\n 13673: a0 = u64 [a2 + 0x20]\n 13676: u64 [s1 + 0x118] = a0\n 13680: a0 = u64 [a2 + 0x18]\n 13683: u64 [s1 + 0x120] = a0\n 13687: a0 = u64 [a2 + 0x10]\n 13690: u64 [s1 + 0x128] = a0\n 13694: a0 = u64 [a2 + 0x8]\n 13697: u64 [s1 + 0x158] = a0\n 13701: a0 = s1 + 0x1980\n 13705: a1 = u64 [s1 + 0x130]\n 13709: ra = 506, jump @10\n      : @450 [@dyn 253] (gas: 10)\n 13715: a2 = s1 + 0x100\n 13719: a3 = u64 [a2 + 0x38]\n 13722: a0 = u64 [a2 + 0x8]\n 13725: a0 = a0 + 0xffffffffffffffc0\n 13728: a0 = a3 <u a0\n 13731: a1 = u64 [a2 + 0x50]\n 13734: a0 = 0 if a1 != 0\n 13736: a1 = u64 [a2 + 0x10]\n 13739: a0 = 0 if a1 != 0\n 13741: jump @452 if a0 != 0\n      : @451 (gas: 1)\n 13744: jump @747\n      : @452 (gas: 55)\n 13747: a1 = s1 + 0x18d8\n 13751: a0 = u64 [a1 + 0xc0]\n 13755: u64 [s1 + 0x110] = a0\n 13759: a0 = u64 [a1 + 0xb8]\n 13763: u64 [s1 + 0x130] = a0\n 13767: a0 = u64 [s1 + 0x158]\n 13771: a2 = a0 <u a3\n 13774: t2 = a0\n 13776: a4 = u64 [s1 + 0x150]\n 13780: a1 = u64 [s1 + 0x128]\n 13784: t0 = a1 ^ a4\n 13787: a0 = a1 <u a4\n 13790: a5 = a1\n 13792: a0 = a2 if t0 == 0\n 13795: t1 = u64 [s1 + 0x140]\n 13799: t0 = u64 [s1 + 0x120]\n 13803: ra = t0 - t1\n 13806: a1 = a3\n 13808: a3 = a5 - a4\n 13811: a4 = a3 - a2\n 13814: a3 = t2 - a1\n 13817: t2 = a3 + 0xffffffffffffffe0\n 13820: a5 = t2 <u a3\n 13823: a3 = a4 + a5\n 13826: a3 = a3 + 0xffffffffffffffff\n 13829: a1 = a3 ^ a4\n 13832: a4 = a3 <u a4\n 13835: a4 = a5 if a1 == 0\n 13838: t0 = t0 <u t1\n 13841: a2 = u64 [s1 + 0x148]\n 13845: a5 = u64 [s1 + 0x118]\n 13849: a5 = a5 - a2\n 13852: a5 = a5 - t0\n 13855: a1 = ra <u a0\n 13858: t0 = a5 - a1\n 13861: a5 = s1 + 0x18d8\n 13865: a1 = u64 [a5 + 0xb0]\n 13869: u64 [s1 + 0xf8] = a1\n 13873: a0 = ra - a0\n 13876: a1 = a0 <u 0x1\n 13879: a2 = t0 - a1\n 13882: a1 = u64 [a5 + 0xa8]\n 13886: u64 [s1 + 0x108] = a1\n 13890: a0 = a0 + 0xffffffffffffffff\n 13893: a4 = a4 + a0\n 13896: a0 = a4 <u a0\n 13899: a2 = a2 + a0\n 13902: a0 = u64 [s1 + 0x100]\n 13906: i32 a0 = a0 + 0x40\n 13909: u64 [a5 + 0x88] = t2\n 13913: u64 [a5 + 0x90] = a3\n 13917: u64 [a5 + 0x98] = a4\n 13921: a1 = s1 + 0x1960\n 13925: u64 [a5 + 0xa0] = a2\n 13929: ra = 508, jump @12\n      : @453 [@dyn 254] (gas: 22)\n 13935: a0 = s1 + 0x18d8\n 13939: a1 = u64 [s1 + 0x118]\n 13943: u64 [a0 + 0x40] = a1\n 13946: a1 = u64 [s1 + 0x120]\n 13950: u64 [a0 + 0x38] = a1\n 13953: a1 = u64 [s1 + 0x128]\n 13957: u64 [a0 + 0x30] = a1\n 13960: a1 = u64 [s1 + 0x158]\n 13964: u64 [a0 + 0x28] = a1\n 13967: a1 = u64 [s1 + 0x110]\n 13971: u64 [a0 + 0x60] = a1\n 13974: a1 = u64 [s1 + 0x130]\n 13978: u64 [a0 + 0x58] = a1\n 13981: a1 = u64 [s1 + 0xf8]\n 13985: u64 [a0 + 0x50] = a1\n 13988: a4 = a0\n 13990: a0 = s1 + 0x1940\n 13994: a1 = s1 + 0x1920\n 13998: a2 = s1 + 0x1900\n 14002: a3 = u64 [s1 + 0x108]\n 14006: u64 [a4 + 0x48] = a3\n 14009: ra = 510, jump @1057\n      : @454 [@dyn 255] (gas: 26)\n 14015: a1 = s1 + 0x18d8\n 14019: a0 = u64 [a1 + 0x70]\n 14022: t0 = u64 [a1 + 0x80]\n 14026: t1 = u64 [a1 + 0x68]\n 14029: a3 = u64 [a1 + 0x78]\n 14032: a1 = u64 [s1 + 0x150]\n 14036: a4 = a0 ^ a1\n 14039: a5 = a0 <u a1\n 14042: t2 = a1\n 14044: ra = u64 [s1 + 0x138]\n 14048: a1 = t1 <u ra\n 14051: a5 = a1 if a4 == 0\n 14054: a2 = u64 [s1 + 0x140]\n 14058: a4 = a3 - a2\n 14061: a3 = a3 <u a2\n 14064: a2 = u64 [s1 + 0x148]\n 14068: a2 = t0 - a2\n 14071: a2 = a2 - a3\n 14074: a3 = a4 <u a5\n 14077: a2 = a2 - a3\n 14080: a4 = a4 - a5\n 14083: a0 = a0 - t2\n 14086: a1 = a0 - a1\n 14089: a0 = t1 - ra\n 14092: a1 = a1 | a2\n 14095: t0 = 512, jump @1235\n      : @455 [@dyn 256] (gas: 1)\n 14101: jump @457 if a1 == 0\n      : @456 (gas: 1)\n 14104: jump @747\n      : @457 (gas: 5)\n 14107: i32 a1 = a0 + 0\n 14109: u64 [s1 + 0x158] = a1\n 14113: a0 = u64 [s1 + 0x100]\n 14117: ra = 0x4ec\n 14121: jump @0\n      : @458 (gas: 1)\n 14124: t0 = 514, jump @1201\n      : @459 [@dyn 257] (gas: 4)\n 14130: ra = 0x204\n 14134: ecalli 11 // 'value_transferred'\n 14136: t0 = 0x206\n 14140: jump @1204\n      : @460 [@dyn 258] (gas: 1)\n 14143: t0 = 518, jump @1204\n      : @461 [@dyn 259] (gas: 1)\n 14149: jump @463 if a0 == 0\n      : @462 (gas: 1)\n 14152: jump @945\n      : @463 (gas: 1)\n 14155: t0 = 520, jump @1251\n      : @464 [@dyn 260] (gas: 1)\n 14161: jump @466 if a1 <u a0\n      : @465 (gas: 1)\n 14164: jump @945\n      : @466 (gas: 4)\n 14167: a0 = s1 + 0x2ea0\n 14171: ra = 0x20a\n 14175: t0 = 0x4fc\n 14179: jump @1252\n      : @467 [@dyn 261] (gas: 16)\n 14182: a1 = s1 + 0x28d8\n 14186: a2 = a1 + 0x500\n 14190: a0 = u64 [a2 + 0xd8]\n 14194: u64 [s1 + 0x118] = a0\n 14198: a0 = u64 [a2 + 0xd0]\n 14202: u64 [s1 + 0xc0] = a0\n 14206: a0 = u64 [a2 + 0xc8]\n 14210: u64 [s1 + 0xc8] = a0\n 14214: u64 [a1 + 1440] = 0\n 14218: u64 [a1 + 1432] = 0\n 14222: u64 [a1 + 1424] = 0\n 14226: a2 = a1\n 14228: a0 = s1 + 0x2e80\n 14232: a1 = s1 + 0x2e60\n 14236: u64 [a2 + 1416] = 0\n 14240: ra = 524, jump @14\n      : @468 [@dyn 262] (gas: 41)\n 14246: a0 = s1 + 0x28d8\n 14250: a1 = u64 [a0 + 0x5b0]\n 14254: u64 [s1 + 0x158] = a1\n 14258: a1 = u64 [a0 + 0x5a8]\n 14262: u64 [s1 + 0x150] = a1\n 14266: a0 = u32 [a0 + 0x5b8]\n 14270: u64 [s1 + 0x148] = a0\n 14274: a0 = s1 + 0x4000\n 14278: i32 a0 = a0 + 0xfffffffffffffc00\n 14282: ecalli 3 // 'caller'\n 14284: a2 = s1 + 0x38d8\n 14288: a3 = a2 + 0x300\n 14292: a0 = u64 [a3 + 0x30]\n 14295: a1 = u64 [a3 + 0x28]\n 14298: a2 = i32 [a3 + 0x38]\n 14301: a0 = reverse a0\n 14303: a3 = a0 >> 0x20\n 14306: a1 = reverse a1\n 14308: a4 = a1 << 0x20\n 14311: a3 = a3 | a4\n 14314: a0 = a0 << 0x20\n 14317: a2 = reverse a2\n 14319: a2 = a2 >> 0x20\n 14322: a0 = a0 | a2\n 14325: a1 = a1 >> 0x20\n 14328: a2 = u64 [s1 + 0x148]\n 14332: a1 = a1 ^ a2\n 14335: a2 = u64 [s1 + 0x150]\n 14339: a0 = a0 ^ a2\n 14342: a0 = a0 | a1\n 14345: a1 = u64 [s1 + 0x158]\n 14349: a1 = a1 ^ a3\n 14352: a0 = a0 | a1\n 14355: a0 = a0 <u 0x1\n 14358: a1 = s1 + 0x28d8\n 14362: u64 [a1 + 1408] = 0\n 14366: u64 [a1 + 1400] = 0\n 14370: u64 [a1 + 0x568] = a0\n 14374: a0 = s1 + 0x2e40\n 14378: u64 [a1 + 1392] = 0\n 14382: ra = 526, jump @1185\n      : @469 [@dyn 263] (gas: 3)\n 14388: a0 = s1 + 0x2e20\n 14392: a1 = 0x40\n 14395: ra = 528, jump @10\n      : @470 [@dyn 264] (gas: 18)\n 14401: a4 = s1 + 0x28d8\n 14405: a5 = a4 + 0x500\n 14409: a2 = u64 [a5 + 0x60]\n 14412: a3 = u64 [a5 + 0x58]\n 14415: a0 = u64 [a5 + 0x50]\n 14418: a1 = u64 [a5 + 0x48]\n 14421: u64 [s1 + 0x128] = a2\n 14425: u64 [a5 + 0x40] = a2\n 14428: u64 [s1 + 0x120] = a3\n 14432: u64 [a5 + 0x38] = a3\n 14435: u64 [s1 + 0x130] = a0\n 14439: u64 [a5 + 0x30] = a0\n 14442: a0 = s1 + 0x2e00\n 14446: u64 [s1 + 0x138] = a1\n 14450: u64 [a5 + 0x28] = a1\n 14453: ra = 0x212\n 14457: t0 = 0x558\n 14461: jump @1237\n      : @471 [@dyn 265] (gas: 3)\n 14464: a0 = s1 + 0x2de0\n 14468: a1 = 0x40\n 14471: ra = 532, jump @10\n      : @472 [@dyn 266] (gas: 21)\n 14477: a0 = s1 + 0x28d8\n 14481: a3 = u64 [a0 + 0x520]\n 14485: u64 [s1 + 0x150] = a3\n 14489: a2 = u64 [a0 + 0x518]\n 14493: u64 [s1 + 0x148] = a2\n 14497: a5 = u64 [a0 + 0x510]\n 14501: u64 [s1 + 0x140] = a5\n 14505: a4 = u64 [a0 + 0x508]\n 14509: u64 [s1 + 0x158] = a4\n 14513: u64 [a0 + 1248] = 0\n 14517: u64 [a0 + 1240] = 0\n 14521: u64 [a0 + 1232] = 0\n 14525: u64 [a0 + 1224] = 0x40\n 14530: u64 [a0 + 0x500] = a3\n 14534: u64 [a0 + 0x4f8] = a2\n 14538: u64 [a0 + 0x4f0] = a5\n 14542: a2 = a0\n 14544: a0 = s1 + 0x2dc0\n 14548: a1 = s1 + 0x2da0\n 14552: u64 [a2 + 0x4e8] = a4\n 14556: ra = 534, jump @1126\n      : @473 [@dyn 267] (gas: 1)\n 14562: t0 = 536, jump @1232\n      : @474 [@dyn 268] (gas: 1)\n 14568: jump @476 if a0 == 0\n      : @475 (gas: 1)\n 14571: jump @747\n      : @476 (gas: 8)\n 14574: a2 = s1 + 0x28d8\n 14578: u64 [a2 + 1216] = 0\n 14582: u64 [a2 + 1208] = 0\n 14586: u64 [a2 + 1200] = 0\n 14590: a1 = s1 + 0x2d80\n 14594: u64 [a2 + 1192] = 0x8\n 14599: a0 = u64 [s1 + 0x158]\n 14603: ra = 538, jump @12\n      : @477 [@dyn 269] (gas: 11)\n 14609: a3 = s1 + 0x100\n 14613: a0 = u64 [a3 + 0x50]\n 14616: a1 = u64 [a3 + 0x48]\n 14619: a0 = a0 | a1\n 14622: a1 = 0xffffffe0\n 14632: a2 = u64 [a3 + 0x58]\n 14635: a1 = a2 <u a1\n 14638: a2 = u64 [a3 + 0x40]\n 14641: a1 = 0 if a2 != 0\n 14643: a1 = 0 if a0 != 0\n 14645: jump @479 if a1 != 0\n      : @478 (gas: 1)\n 14648: jump @747\n      : @479 (gas: 11)\n 14651: a0 = u64 [s1 + 0x158]\n 14655: i32 a0 = a0 + 0x20\n 14658: a3 = s1 + 0x28d8\n 14662: u64 [a3 + 1176] = 0\n 14666: a2 = u64 [0x20058]\n 14671: u64 [a3 + 1168] = 0\n 14675: u64 [a3 + 1160] = 0\n 14679: a1 = s1 + 0x2d60\n 14683: u64 [s1 + 0xb8] = a2\n 14687: u64 [a3 + 0x4a0] = a2\n 14691: ra = 540, jump @12\n      : @480 [@dyn 270] (gas: 13)\n 14697: a5 = s1 + 0x100\n 14701: a2 = u64 [a5 + 0x38]\n 14704: a4 = u64 [a5 + 0x20]\n 14707: a0 = a2 | a4\n 14710: a1 = u64 [a5 + 0x30]\n 14713: a3 = u64 [a5 + 0x28]\n 14716: a1 = a1 | a3\n 14719: a0 = a0 | a1\n 14722: a0 = a0 >> 0x20\n 14725: a1 = a1 | a4\n 14728: a1 = a1 << 0x20\n 14731: a0 = a0 | a1\n 14734: jump @482 if a0 == 0\n      : @481 (gas: 1)\n 14737: jump @747\n      : @482 (gas: 13)\n 14740: a3 = s1 + 0x28d8\n 14744: a0 = u64 [s1 + 0x158]\n 14748: a4 = a3 + 0x400\n 14752: u64 [a4 + 0x68] = a0\n 14755: a0 = u64 [s1 + 0x140]\n 14759: u64 [a4 + 0x70] = a0\n 14762: a0 = u64 [s1 + 0x148]\n 14766: u64 [a4 + 0x78] = a0\n 14769: a1 = s1 + 0x2d40\n 14773: a0 = u64 [s1 + 0x150]\n 14777: u64 [a4 + 0x80] = a0\n 14781: a0 = a2\n 14783: ra = 542, jump @12\n      : @483 [@dyn 271] (gas: 3)\n 14789: a0 = s1 + 0x2d20\n 14793: a1 = 0x40\n 14796: ra = 544, jump @10\n      : @484 [@dyn 272] (gas: 22)\n 14802: a0 = s1 + 0x28d8\n 14806: a2 = u64 [a0 + 0x460]\n 14810: u64 [s1 + 0x150] = a2\n 14814: a1 = u64 [a0 + 0x458]\n 14818: u64 [s1 + 0x148] = a1\n 14822: a4 = u64 [a0 + 0x450]\n 14826: u64 [s1 + 0x140] = a4\n 14830: a3 = u64 [a0 + 0x448]\n 14834: u64 [s1 + 0x158] = a3\n 14838: u64 [a0 + 1056] = 0\n 14842: u64 [a0 + 1048] = 0\n 14846: u64 [a0 + 1040] = 0\n 14850: u64 [a0 + 1032] = 0x40\n 14855: a5 = a0 + 0x400\n 14859: u64 [a5 + 0x40] = a2\n 14862: u64 [a5 + 0x38] = a1\n 14865: u64 [a5 + 0x30] = a4\n 14868: a2 = a0\n 14870: a0 = s1 + 0x2d00\n 14874: a1 = s1 + 0x2ce0\n 14878: u64 [a2 + 0x428] = a3\n 14882: ra = 546, jump @1126\n      : @485 [@dyn 273] (gas: 1)\n 14888: t0 = 548, jump @1232\n      : @486 [@dyn 274] (gas: 1)\n 14894: jump @488 if a0 == 0\n      : @487 (gas: 1)\n 14897: jump @747\n      : @488 (gas: 8)\n 14900: a2 = s1 + 0x28d8\n 14904: u64 [a2 + 1024] = 0\n 14908: u64 [a2 + 1016] = 0\n 14912: u64 [a2 + 1008] = 0\n 14916: a1 = s1 + 0x2cc0\n 14920: u64 [a2 + 1000] = 0x3\n 14925: a0 = u64 [s1 + 0x158]\n 14929: ra = 550, jump @12\n      : @489 [@dyn 275] (gas: 11)\n 14935: a4 = s1 + 0x100\n 14939: a0 = u64 [a4 + 0x50]\n 14942: a1 = u64 [a4 + 0x48]\n 14945: a0 = a0 | a1\n 14948: a3 = 0xffffffe0\n 14958: a1 = u64 [a4 + 0x58]\n 14961: a1 = a1 <u a3\n 14964: a2 = u64 [a4 + 0x40]\n 14967: a1 = 0 if a2 != 0\n 14969: a1 = 0 if a0 != 0\n 14971: jump @491 if a1 != 0\n      : @490 (gas: 1)\n 14974: jump @747\n      : @491 (gas: 11)\n 14977: a0 = u64 [s1 + 0x158]\n 14981: i32 a0 = a0 + 0x20\n 14984: a2 = s1 + 0x28d8\n 14988: u64 [a2 + 984] = 0\n 14992: u64 [a2 + 976] = 0\n 14996: a1 = 0x4450540000000000\n 15006: u64 [a2 + 0x3e0] = a1\n 15010: a1 = s1 + 0x2ca0\n 15014: u64 [a2 + 968] = 0\n 15018: u64 [s1 + 0x110] = a3\n 15022: ra = 552, jump @12\n      : @492 [@dyn 276] (gas: 11)\n 15028: a4 = s1 + 0x100\n 15032: a0 = u64 [a4 + 0x28]\n 15035: a1 = u64 [a4 + 0x20]\n 15038: a0 = a0 | a1\n 15041: a2 = u64 [a4 + 0x38]\n 15044: a1 = u64 [a4 + 0x10]\n 15047: a1 = a2 <u a1\n 15050: a3 = u64 [a4 + 0x30]\n 15053: a1 = 0 if a3 != 0\n 15055: a1 = 0 if a0 != 0\n 15057: jump @494 if a1 != 0\n      : @493 (gas: 1)\n 15060: jump @747\n      : @494 (gas: 14)\n 15063: i32 a0 = a2 + 0x20\n 15066: a4 = s1 + 0x28d8\n 15070: a1 = u64 [s1 + 0x158]\n 15074: a2 = a4 + 0x300\n 15078: u64 [a2 + 0xa8] = a1\n 15082: a1 = u64 [s1 + 0x140]\n 15086: u64 [a2 + 0xb0] = a1\n 15090: a1 = u64 [s1 + 0x148]\n 15094: u64 [a2 + 0xb8] = a1\n 15098: a1 = s1 + 0x2c80\n 15102: a3 = u64 [s1 + 0x150]\n 15106: u64 [a2 + 0xc0] = a3\n 15110: u64 [s1 + 0x80] = a0\n 15114: ra = 554, jump @12\n      : @495 [@dyn 277] (gas: 15)\n 15120: a0 = u64 [s1 + 0x118]\n 15124: a0 = a0 << 0x20\n 15127: a0 = a0 >> 0x20\n 15130: a2 = s1 + 0x28d8\n 15134: u64 [a2 + 928] = 0\n 15138: u64 [s1 + 0x78] = a0\n 15141: a3 = a2 + 0x300\n 15145: u64 [a3 + 0x98] = a0\n 15149: a0 = u64 [s1 + 0xc0]\n 15153: u64 [a3 + 0x90] = a0\n 15157: a1 = s1 + 0x2c60\n 15161: a0 = u64 [s1 + 0xc8]\n 15165: u64 [a3 + 0x88] = a0\n 15169: a0 = 0\n 15171: ra = 556, jump @12\n      : @496 [@dyn 278] (gas: 8)\n 15177: a2 = s1 + 0x28d8\n 15181: u64 [a2 + 896] = 0\n 15185: u64 [a2 + 888] = 0\n 15189: u64 [a2 + 872] = 0x1\n 15194: a0 = 0x20\n 15197: a1 = s1 + 0x2c40\n 15201: u64 [a2 + 880] = 0\n 15205: ra = 558, jump @12\n      : @497 [@dyn 279] (gas: 3)\n 15211: a1 = 0x40\n 15214: a0 = 0\n 15216: ra = 560, jump @0\n      : @498 [@dyn 280] (gas: 1)\n 15222: t0 = 562, jump @1202\n      : @499 [@dyn 281] (gas: 14)\n 15228: ecalli 6 // 'hash_keccak_256'\n 15230: a2 = s1 + 0x100\n 15234: a1 = u64 [a2 + 0x58]\n 15237: a0 = u64 [a1 + 0x18]\n 15240: u64 [a2 + 0x48] = a0\n 15243: a0 = u64 [a1 + 0x10]\n 15246: u64 [a2 + 0x40] = a0\n 15249: a0 = u64 [a1 + 0x8]\n 15252: u64 [a2 + 0x30] = a0\n 15255: a0 = u64 [a1]\n 15257: u64 [a2 + 0x28] = a0\n 15260: a0 = s1 + 0x2c20\n 15264: a1 = u64 [a2 + 0x38]\n 15267: ra = 564, jump @10\n      : @500 [@dyn 282] (gas: 17)\n 15273: a1 = s1 + 0x28d8\n 15277: a4 = a1 + 0x300\n 15281: a2 = u64 [a4 + 0x60]\n 15284: a3 = u64 [a4 + 0x58]\n 15287: a0 = u64 [a4 + 0x50]\n 15290: a1 = u64 [a4 + 0x48]\n 15293: u64 [s1 + 0xf8] = a0\n 15297: u64 [s1 + 0xf0] = a2\n 15301: a0 = a0 | a2\n 15304: a2 = a1 | a3\n 15307: a2 = a2 | a0\n 15310: a2 = a2 >> 0x20\n 15313: u64 [s1 + 0xe8] = a3\n 15317: a0 = a0 | a3\n 15320: a0 = a0 << 0x20\n 15323: a0 = a0 | a2\n 15326: jump @502 if a0 == 0\n      : @501 (gas: 1)\n 15329: jump @747\n      : @502 (gas: 3)\n 15332: a0 = s1 + 0x2c00\n 15336: u64 [s1 + 0xd8] = a1\n 15340: ra = 566, jump @10\n      : @503 [@dyn 283] (gas: 14)\n 15346: a2 = s1 + 0x28d8\n 15350: a4 = a2 + 0x300\n 15354: a1 = u64 [a4 + 0x40]\n 15357: a0 = u64 [a4 + 0x38]\n 15360: a3 = u64 [a4 + 0x30]\n 15363: u64 [s1 + 0x88] = a0\n 15367: a4 = s1 + 0x100\n 15371: u64 [a4 + 0x58] = a1\n 15374: a1 = a1 | a0\n 15377: u64 [a4 + 0x50] = a3\n 15380: a0 = a3 <u 0x1\n 15383: u64 [a4 + 0x38] = a1\n 15386: a0 = 0 if a1 != 0\n 15388: jump @505 if a0 != 0\n      : @504 (gas: 1)\n 15391: jump @1019\n      : @505 (gas: 22)\n 15394: a0 = u64 [s1 + 0x128]\n 15398: a3 = reverse a0\n 15400: u64 [s1 + 0xa8] = a3\n 15404: a0 = u64 [a2 + 0x328]\n 15408: u64 [s1 + 0xb0] = a0\n 15412: a0 = u64 [s1 + 0x130]\n 15416: a1 = reverse a0\n 15418: u64 [s1 + 0xa0] = a1\n 15422: a0 = u64 [s1 + 0x140]\n 15426: a4 = reverse a0\n 15428: u64 [s1 + 0x98] = a4\n 15432: a0 = u64 [s1 + 0x148]\n 15436: a0 = reverse a0\n 15438: u64 [s1 + 0x90] = a0\n 15442: a5 = a2 + 0x200\n 15446: u64 [a5 + 0xe8] = a0\n 15450: u64 [a5 + 0xf0] = a4\n 15454: u64 [a5 + 0xf8] = a1\n 15458: a0 = s1 + 0x2be0\n 15462: a1 = s1 + 0x2bc0\n 15466: u64 [a2 + 0x300] = a3\n 15470: ra = 568, jump @14\n      : @506 [@dyn 284] (gas: 14)\n 15476: a4 = s1 + 0x28d8\n 15480: a5 = a4 + 0x300\n 15484: a2 = u64 [a5 + 0x8]\n 15487: a0 = u64 [a5 + 0x10]\n 15490: a1 = u64 [a5 + 0x18]\n 15493: a3 = u64 [a5 + 0x20]\n 15496: a5 = a4 + 0x200\n 15500: u64 [a5 + 0xc0] = a3\n 15504: u64 [a5 + 0xb8] = a1\n 15508: u64 [a5 + 0xb0] = a0\n 15512: a0 = s1 + 0x2ba0\n 15516: a1 = s1 + 0x2b80\n 15520: u64 [a5 + 0xa8] = a2\n 15524: ra = 570, jump @1075\n      : @507 [@dyn 285] (gas: 30)\n 15530: a4 = s1 + 0x28d8\n 15534: a5 = a4 + 0x200\n 15538: a0 = u64 [a5 + 0xc8]\n 15542: a1 = u64 [a5 + 0xd0]\n 15546: a2 = u64 [a5 + 0xd8]\n 15550: a3 = u64 [a5 + 0xe0]\n 15554: u64 [a5 + 0x80] = a3\n 15558: a3 = u64 [s1 + 0x158]\n 15562: u64 [a5 + 0x60] = a3\n 15565: a3 = u64 [s1 + 0x88]\n 15569: u64 [a5 + 0x58] = a3\n 15572: a3 = u64 [s1 + 0x150]\n 15576: u64 [a5 + 0x50] = a3\n 15579: a3 = u64 [s1 + 0xb0]\n 15583: u64 [a5 + 0x48] = a3\n 15586: u64 [a5 + 0x78] = a2\n 15589: u64 [a5 + 0x70] = a1\n 15592: u64 [a5 + 0x68] = a0\n 15595: a0 = u64 [s1 + 0xa8]\n 15599: u64 [a5 + 0xa0] = a0\n 15603: a0 = u64 [s1 + 0xa0]\n 15607: u64 [a5 + 0x98] = a0\n 15611: a0 = u64 [s1 + 0x98]\n 15615: u64 [a5 + 0x90] = a0\n 15619: a0 = s1 + 0x2b60\n 15623: a1 = s1 + 0x2b40\n 15627: a2 = s1 + 0x2b20\n 15631: a3 = u64 [s1 + 0x90]\n 15635: u64 [a5 + 0x88] = a3\n 15639: ra = 572, jump @1152\n      : @508 [@dyn 286] (gas: 31)\n 15645: t0 = u64 [s1 + 0xb0]\n 15649: a5 = u64 [s1 + 0x150]\n 15653: a0 = a5 >u 0\n 15655: a1 = t0 <u 0x20\n 15658: a1 = a1 ^ 0x1\n 15661: a1 = a0 if a5 != 0\n 15664: a4 = u64 [s1 + 0x88]\n 15668: a0 = a4 >u 0\n 15670: a3 = u64 [s1 + 0x158]\n 15674: a2 = a3 >u 0\n 15676: a2 = a0 if a3 == 0\n 15679: a0 = u64 [s1 + 0x138]\n 15683: a2 = a1 if a0 == 0\n 15686: a0 = a5 | a3\n 15689: u64 [s1 + 0xe0] = a0\n 15693: t1 = t0 >> 0x3f\n 15696: t2 = a5 << 0x1\n 15699: a5 = a5 >> 0x3f\n 15702: a0 = a4\n 15704: ra = a4 << 0x1\n 15707: a4 = a4 >> 0x3f\n 15710: a3 = a3 << 0x1\n 15713: a1 = t0 << 0x1\n 15716: u64 [s1 + 0x70] = a1\n 15719: u64 [s1 + 0x68] = a5\n 15722: u64 [s1 + 0x60] = t1\n 15725: u64 [s1 + 0x58] = ra\n 15728: u64 [s1 + 0x50] = t2\n 15731: u64 [s1 + 0x48] = a4\n 15734: u64 [s1 + 0x40] = a3\n 15737: jump @510 if a2 != 0\n      : @509 (gas: 1)\n 15740: jump @748\n      : @510 (gas: 15)\n 15743: a5 = t0 & 0xffffffffffffffe0\n 15746: u64 [s1 + 0xd0] = a5\n 15750: a0 = u64 [s1 + 0x90]\n 15754: a2 = s1 + 0x28d8\n 15758: a3 = a2 + 0x200\n 15762: u64 [a3 + 0x8] = a0\n 15765: a0 = u64 [s1 + 0x98]\n 15769: u64 [a3 + 0x10] = a0\n 15772: a0 = u64 [s1 + 0xa0]\n 15776: u64 [a3 + 0x18] = a0\n 15779: a1 = s1 + 0x2ae0\n 15783: a0 = u64 [s1 + 0xa8]\n 15787: u64 [a3 + 0x20] = a0\n 15790: a0 = 0\n 15792: ra = 574, jump @12\n      : @511 [@dyn 287] (gas: 3)\n 15798: a1 = 0x20\n 15801: a0 = 0\n 15803: ra = 576, jump @0\n      : @512 [@dyn 288] (gas: 4)\n 15809: a1 = sp + 0xffffffffffffffe0\n 15812: a1 = a1 & 0xffffffffffffffe0\n 15815: u64 [s1 + 0x150] = a1\n 15819: t0 = 578, jump @1215\n      : @513 [@dyn 289] (gas: 25)\n 15825: ecalli 6 // 'hash_keccak_256'\n 15827: u64 [s1 + 344] = 0x20\n 15832: t1 = 0\n 15834: t0 = 0\n 15836: t2 = 0\n 15838: u64 [s1 + 304] = 0\n 15842: ra = 0\n 15844: a5 = 0\n 15846: a4 = s1 + 0x100\n 15850: a3 = u64 [a4 + 0x50]\n 15853: a0 = u64 [a3]\n 15855: a1 = u64 [a3 + 0x8]\n 15858: a2 = u64 [a3 + 0x10]\n 15861: a3 = u64 [a3 + 0x18]\n 15864: a0 = reverse a0\n 15866: u64 [a4 + 0x40] = a0\n 15869: a0 = reverse a1\n 15871: u64 [a4 + 0x38] = a0\n 15874: a0 = reverse a2\n 15876: a2 = 0\n 15878: u64 [a4 + 0x48] = a0\n 15881: a0 = reverse a3\n 15883: a3 = u64 [a4 + 0x30]\n 15886: u64 [a4 + 0x50] = a0\n 15889: fallthrough\n      : @514 (gas: 21)\n 15890: a0 = u64 [s1 + 0xd0]\n 15894: u64 [s1 + 0x130] = a3\n 15898: a0 = a3 <u a0\n 15901: a4 = a0 ^ 0x1\n 15904: u64 [s1 + 0x120] = ra\n 15908: a4 = 0x1 if ra != 0\n 15911: u64 [s1 + 0x128] = a2\n 15915: a0 = a2 | a5\n 15918: a4 = 0x1 if a0 != 0\n 15921: a1 = u64 [s1 + 0xd8]\n 15925: a0 = u64 [s1 + 0x158]\n 15929: a1 = a1 + a0\n 15932: a3 = u64 [s1 + 0xf8]\n 15936: ra = t1 + a3\n 15939: a2 = u64 [s1 + 0xe8]\n 15943: a2 = a2 + t0\n 15946: a0 = u64 [s1 + 0xf0]\n 15950: a3 = t1\n 15952: t1 = t2 + a0\n 15955: a0 = u64 [s1 + 0xe0]\n 15959: jump @516 if a4 == 0\n      : @515 (gas: 1)\n 15962: jump @750\n      : @516 (gas: 23)\n 15965: u64 [s1 + 0x110] = a5\n 15969: u64 [s1 + 0x118] = t2\n 15973: a0 = u64 [s1 + 0x158]\n 15977: a4 = a1 <u a0\n 15980: ra = ra + a4\n 15983: a0 = t0\n 15985: t0 = ra ^ a3\n 15988: a5 = ra <u a3\n 15991: a5 = a4 if t0 == 0\n 15994: a4 = a0\n 15996: a5 = a5 + a2\n 15999: t0 = a5 <u a2\n 16002: a2 = a2 <u a0\n 16005: a0 = t1 + a2\n 16008: a0 = a0 + t0\n 16011: a2 = a1 | a5\n 16014: a0 = ra | a0\n 16017: a2 = a2 | a0\n 16020: a2 = a2 >> 0x20\n 16023: a0 = a0 | a5\n 16026: a0 = a0 << 0x20\n 16029: a0 = a0 | a2\n 16032: jump @518 if a0 == 0\n      : @517 (gas: 1)\n 16035: jump @747\n      : @518 (gas: 4)\n 16038: a0 = s1 + 0x2660\n 16042: u64 [s1 + 0x108] = a4\n 16046: u64 [s1 + 0x100] = a3\n 16050: ra = 580, jump @10\n      : @519 [@dyn 290] (gas: 21)\n 16056: a4 = s1 + 0x20d8\n 16060: a5 = a4 + 0x500\n 16064: a0 = u64 [a5 + 0x88]\n 16068: a1 = u64 [a5 + 0x90]\n 16072: a2 = u64 [a5 + 0x98]\n 16076: a3 = u64 [a5 + 0xa0]\n 16080: u64 [a5 + 0x60] = a3\n 16083: u64 [a5 + 0x58] = a2\n 16086: u64 [a5 + 0x50] = a1\n 16089: u64 [a5 + 0x48] = a0\n 16092: a0 = u64 [s1 + 0x140]\n 16096: u64 [a5 + 0x80] = a0\n 16100: a0 = u64 [s1 + 0x138]\n 16104: u64 [a5 + 0x78] = a0\n 16107: a0 = u64 [s1 + 0x148]\n 16111: u64 [a5 + 0x70] = a0\n 16114: a0 = s1 + 0x2640\n 16118: a1 = s1 + 0x2620\n 16122: a2 = u64 [s1 + 0x150]\n 16126: u64 [a5 + 0x68] = a2\n 16129: ra = 582, jump @16\n      : @520 [@dyn 291] (gas: 1)\n 16135: t0 = 584, jump @1212\n      : @521 [@dyn 292] (gas: 36)\n 16141: t0 = a1 + a0\n 16144: a1 = t0 <u a1\n 16147: a0 = u64 [s1 + 0x140]\n 16151: a0 = a0 + a1\n 16154: u64 [s1 + 0x140] = a0\n 16158: a0 = u64 [s1 + 0x158]\n 16162: t1 = a0 + 0x20\n 16165: a3 = t1 <u a0\n 16168: a0 = u64 [s1 + 0x100]\n 16172: a2 = a0 + a3\n 16175: a4 = a2 <u a0\n 16178: a4 = a3 if a3 == 0\n 16181: a0 = u64 [s1 + 0x108]\n 16185: a4 = a4 + a0\n 16188: a3 = a4 <u a0\n 16191: t2 = u64 [s1 + 0x118]\n 16195: t2 = t2 + a3\n 16198: a0 = u64 [s1 + 0x130]\n 16202: a3 = a0 + 0x20\n 16205: a5 = a3 <u a0\n 16208: a1 = u64 [s1 + 0x120]\n 16212: a0 = a1 + a5\n 16215: a1 = a0 <u a1\n 16218: a1 = a5 if a5 == 0\n 16221: a5 = u64 [s1 + 0x128]\n 16225: a1 = a1 + a5\n 16228: a5 = a1 <u a5\n 16231: ra = u64 [s1 + 0x110]\n 16235: a5 = a5 + ra\n 16238: u64 [s1 + 0x138] = t0\n 16242: u64 [s1 + 0x158] = t1\n 16246: t1 = a2\n 16248: t0 = a4\n 16250: ra = a0\n 16252: a2 = a1\n 16254: jump @514\n      : @522 (gas: 1)\n 16257: t0 = 586, jump @1201\n      : @523 [@dyn 293] (gas: 4)\n 16263: ra = 0x24c\n 16267: ecalli 11 // 'value_transferred'\n 16269: t0 = 0x24e\n 16273: jump @1204\n      : @524 [@dyn 294] (gas: 1)\n 16276: t0 = 590, jump @1204\n      : @525 [@dyn 295] (gas: 1)\n 16282: jump @527 if a0 == 0\n      : @526 (gas: 1)\n 16285: jump @945\n      : @527 (gas: 1)\n 16288: t0 = 592, jump @1251\n      : @528 [@dyn 296] (gas: 1)\n 16294: jump @530 if a1 <u a0\n      : @529 (gas: 1)\n 16297: jump @945\n      : @530 (gas: 7)\n 16300: a0 = s1 + 0x4000\n 16304: i32 a0 = a0 + 0xfffffffffffffb60\n 16308: a1 = 0x4\n 16311: ra = 0x252\n 16315: ecalli 1 // 'call_data_load'\n 16317: t0 = 0x254\n 16321: jump @1253\n      : @531 [@dyn 297] (gas: 1)\n 16324: t0 = 596, jump @1253\n      : @532 [@dyn 298] (gas: 13)\n 16330: a0 = u64 [a4 + 0x88]\n 16334: a1 = u64 [a4 + 0x90]\n 16338: a2 = u64 [a4 + 0x98]\n 16342: a3 = u64 [a4 + 0xa0]\n 16346: a4 = s1 + 0x10d8\n 16350: a5 = a4 + 0x100\n 16354: u64 [a5 + 0x40] = a3\n 16357: u64 [a5 + 0x38] = a2\n 16360: u64 [a5 + 0x30] = a1\n 16363: a1 = s1 + 0x1200\n 16367: u64 [a5 + 0x28] = a0\n 16370: a0 = 0\n 16372: ra = 598, jump @12\n      : @533 [@dyn 299] (gas: 3)\n 16378: t0 = 0x258\n 16382: a2 = s1 + 0x10d8\n 16386: fallthrough\n      : @534 [@dyn 300] (gas: 7)\n 16387: u64 [a2 + 288] = 0\n 16391: u64 [a2 + 280] = 0\n 16395: u64 [a2 + 264] = 0x4\n 16400: a0 = 0x20\n 16403: a1 = s1 + 0x11e0\n 16407: u64 [a2 + 272] = 0\n 16411: ra = 602, jump @12\n      : @535 [@dyn 301] (gas: 3)\n 16417: a1 = 0x40\n 16420: a0 = 0\n 16422: ra = 604, jump @0\n      : @536 [@dyn 302] (gas: 1)\n 16428: t0 = 606, jump @1202\n      : @537 [@dyn 303] (gas: 4)\n 16434: ra = 0x260\n 16438: ecalli 6 // 'hash_keccak_256'\n 16440: t0 = 0x262\n 16444: jump @1225\n      : @538 [@dyn 304] (gas: 1)\n 16447: t0 = 610, jump @1225\n      : @539 [@dyn 305] (gas: 9)\n 16453: i32 a3 = a3 + 0xd8\n 16457: a3 = a3 + s1\n 16460: u64 [a3 + 0xe0] = a2\n 16464: u64 [a3 + 0xd8] = a1\n 16468: u64 [a3 + 0xd0] = a0\n 16472: a0 = s1 + 0x11c0\n 16476: a1 = s1 + 0x11a0\n 16480: u64 [a3 + 0xc8] = a4\n 16484: ra = 612, jump @14\n      : @540 [@dyn 306] (gas: 6)\n 16490: a0 = s1 + 0x10d8\n 16494: a0 = u64 [a0 + 0xe8]\n 16498: u64 [s1 + 0x158] = a0\n 16502: a0 = s1 + 0x1180\n 16506: a1 = 0x40\n 16509: ra = 614, jump @10\n      : @541 [@dyn 307] (gas: 6)\n 16515: a3 = s1 + 0x10d8\n 16519: a4 = u64 [a3 + 0xc0]\n 16523: a1 = u64 [a3 + 0xb8]\n 16527: a2 = u64 [a3 + 0xb0]\n 16531: a0 = u64 [a3 + 0xa8]\n 16535: t0 = 616, jump @1242\n      : @542 [@dyn 308] (gas: 1)\n 16541: jump @544 if a1 == 0\n      : @543 (gas: 1)\n 16544: jump @747\n      : @544 (gas: 10)\n 16547: a1 = u8 [s1 + 0x158]\n 16551: a1 = a1 >u 0\n 16553: u64 [a3 + 160] = 0\n 16557: u64 [a3 + 152] = 0\n 16561: u64 [a3 + 0x88] = a1\n 16565: a1 = s1 + 0x1160\n 16569: u64 [a3 + 144] = 0\n 16573: u64 [s1 + 0x158] = a0\n 16577: ra = 0x316\n 16581: jump @12\n      : @545 (gas: 1)\n 16584: t0 = 618, jump @1201\n      : @546 [@dyn 309] (gas: 4)\n 16590: ra = 0x26c\n 16594: ecalli 11 // 'value_transferred'\n 16596: t0 = 0x26e\n 16600: jump @1204\n      : @547 [@dyn 310] (gas: 1)\n 16603: t0 = 622, jump @1204\n      : @548 [@dyn 311] (gas: 1)\n 16609: jump @550 if a0 == 0\n      : @549 (gas: 1)\n 16612: jump @945\n      : @550 (gas: 1)\n 16615: t0 = 624, jump @1251\n      : @551 [@dyn 312] (gas: 1)\n 16621: jump @553 if a1 <u a0\n      : @552 (gas: 1)\n 16624: jump @945\n      : @553 (gas: 19)\n 16627: a0 = s1 + 0x4000\n 16631: i32 a0 = a0 + 0xfffffffffffffc60\n 16635: a1 = 0x4\n 16638: ecalli 1 // 'call_data_load'\n 16640: a3 = s1 + 0x38d8\n 16644: a4 = a3 + 0x300\n 16648: a0 = u64 [a4 + 0x88]\n 16652: a1 = u64 [a4 + 0x90]\n 16656: a2 = u64 [a4 + 0x98]\n 16660: a3 = u64 [a4 + 0xa0]\n 16664: a4 = s1 + 0x30d8\n 16668: a5 = a4 + 0x200\n 16672: u64 [a5 + 0x60] = a3\n 16675: u64 [a5 + 0x58] = a2\n 16678: u64 [a5 + 0x50] = a1\n 16681: a1 = s1 + 0x3320\n 16685: u64 [a5 + 0x48] = a0\n 16688: a0 = 0\n 16690: ra = 626, jump @12\n      : @554 [@dyn 313] (gas: 3)\n 16696: t0 = 0x274\n 16700: a2 = s1 + 0x30d8\n 16704: fallthrough\n      : @555 [@dyn 314] (gas: 7)\n 16705: u64 [a2 + 576] = 0\n 16709: u64 [a2 + 568] = 0\n 16713: u64 [a2 + 552] = 0x2\n 16718: a0 = 0x20\n 16721: a1 = s1 + 0x3300\n 16725: u64 [a2 + 560] = 0\n 16729: ra = 630, jump @12\n      : @556 [@dyn 315] (gas: 3)\n 16735: a1 = 0x40\n 16738: a0 = 0\n 16740: ra = 632, jump @0\n      : @557 [@dyn 316] (gas: 1)\n 16746: t0 = 634, jump @1202\n      : @558 [@dyn 317] (gas: 5)\n 16752: ra = 0x27c\n 16756: ecalli 6 // 'hash_keccak_256'\n 16758: a3 = u64 [s1 + 0x158]\n 16762: t0 = 0x27e\n 16766: jump @1213\n      : @559 [@dyn 318] (gas: 2)\n 16769: a3 = u64 [s1 + 0x158]\n 16773: t0 = 638, jump @1213\n      : @560 [@dyn 319] (gas: 8)\n 16779: u64 [a3 + 0x200] = a2\n 16783: a2 = a3 + 0x100\n 16787: u64 [a2 + 0xf8] = a1\n 16791: u64 [a2 + 0xf0] = a0\n 16795: a0 = s1 + 0x32e0\n 16799: a1 = s1 + 0x32c0\n 16803: u64 [a2 + 0xe8] = a4\n 16807: ra = 640, jump @14\n      : @561 [@dyn 320] (gas: 14)\n 16813: a0 = s1 + 0x30d8\n 16817: a2 = a0 + 0x200\n 16821: a1 = u64 [a2 + 0x20]\n 16824: a0 = s1 + 0x100\n 16828: u64 [a0 + 0x58] = a1\n 16831: a1 = u64 [a2 + 0x18]\n 16834: u64 [a0 + 0x50] = a1\n 16837: a1 = u64 [a2 + 0x10]\n 16840: u64 [a0 + 0x48] = a1\n 16843: a1 = u64 [a2 + 0x8]\n 16846: u64 [a0 + 0x40] = a1\n 16849: a0 = s1 + 0x32a0\n 16853: a1 = 0x40\n 16856: ra = 642, jump @10\n      : @562 [@dyn 321] (gas: 7)\n 16862: a3 = s1 + 0x30d8\n 16866: a5 = a3 + 0x100\n 16870: a0 = u64 [a5 + 0xe0]\n 16874: a1 = u64 [a5 + 0xd8]\n 16878: a2 = u64 [a5 + 0xd0]\n 16882: a4 = u64 [a5 + 0xc8]\n 16886: t0 = 644, jump @1241\n      : @563 [@dyn 322] (gas: 1)\n 16892: jump @565 if a0 == 0\n      : @564 (gas: 1)\n 16895: jump @747\n      : @565 (gas: 15)\n 16898: a2 = s1 + 0x100\n 16902: a0 = u64 [a2 + 0x40]\n 16905: a5 = a3 + 0x100\n 16909: u64 [a5 + 0xa8] = a0\n 16913: a0 = u64 [a2 + 0x48]\n 16916: u64 [a5 + 0xb0] = a0\n 16920: a0 = u64 [a2 + 0x50]\n 16923: u64 [a5 + 0xb8] = a0\n 16927: a1 = s1 + 0x3280\n 16931: a0 = u64 [a2 + 0x58]\n 16934: u64 [a5 + 0xc0] = a0\n 16938: a0 = a4\n 16940: u64 [s1 + 0x158] = a4\n 16944: ra = 0x316\n 16948: jump @12\n      : @566 (gas: 1)\n 16951: t0 = 646, jump @1201\n      : @567 [@dyn 323] (gas: 4)\n 16957: ra = 0x288\n 16961: ecalli 11 // 'value_transferred'\n 16963: t0 = 0x28a\n 16967: jump @1204\n      : @568 [@dyn 324] (gas: 1)\n 16970: t0 = 650, jump @1204\n      : @569 [@dyn 325] (gas: 1)\n 16976: jump @571 if a0 == 0\n      : @570 (gas: 1)\n 16979: jump @945\n      : @571 (gas: 4)\n 16982: a0 = u64 [s1 + 0x158]\n 16986: a0 = i32 [a0]\n 16988: a1 = 0x43\n 16991: jump @573 if a1 <u a0\n      : @572 (gas: 1)\n 16994: jump @945\n      : @573 (gas: 4)\n 16997: a0 = s1 + 0x3980\n 17001: ra = 0x28c\n 17005: t0 = 0x508\n 17009: jump @1252\n      : @574 [@dyn 326] (gas: 24)\n 17012: a1 = s1 + 0x38d8\n 17016: a0 = u64 [a1 + 0xa8]\n 17020: u64 [s1 + 0x158] = a0\n 17024: a0 = u64 [a1 + 0xb0]\n 17028: u64 [s1 + 0x150] = a0\n 17032: a0 = u32 [a1 + 0xb8]\n 17036: u64 [s1 + 0x148] = a0\n 17040: a0 = s1 + 0x4000\n 17044: i32 a0 = a0 + 0xfffffffffffffcc0\n 17048: a1 = 0x4\n 17051: ecalli 1 // 'call_data_load'\n 17053: a4 = s1 + 0x38d8\n 17057: a3 = a4 + 0x300\n 17061: a0 = u64 [a3 + 0xe8]\n 17065: a1 = u64 [a3 + 0xf0]\n 17069: a2 = u64 [a3 + 0xf8]\n 17073: a3 = u64 [a4 + 0x400]\n 17077: u64 [a4 + 0xa0] = a3\n 17081: u64 [a4 + 0x98] = a2\n 17085: u64 [a4 + 0x90] = a1\n 17089: a1 = s1 + 0x3960\n 17093: u64 [a4 + 0x88] = a0\n 17097: a0 = 0\n 17099: ra = 654, jump @12\n      : @575 [@dyn 327] (gas: 8)\n 17105: a2 = s1 + 0x38d8\n 17109: u64 [a2 + 128] = 0\n 17113: u64 [a2 + 120] = 0\n 17116: u64 [a2 + 104] = 0x6\n 17120: a0 = 0x20\n 17123: a1 = s1 + 0x3940\n 17127: u64 [a2 + 112] = 0\n 17130: ra = 656, jump @12\n      : @576 [@dyn 328] (gas: 3)\n 17136: a1 = 0x40\n 17139: a0 = 0\n 17141: ra = 658, jump @0\n      : @577 [@dyn 329] (gas: 32)\n 17147: a1 = sp + 0xffffffffffffffe0\n 17150: a1 = a1 & 0xffffffffffffffe0\n 17153: u64 [s1 + 0x140] = a1\n 17157: sp = a1\n 17159: i32 a0 = a0 + 0\n 17161: i32 a2 = a1 + 0\n 17163: a1 = 0x40\n 17166: ecalli 6 // 'hash_keccak_256'\n 17168: a3 = u64 [s1 + 0x140]\n 17172: a0 = u64 [a3 + 0x18]\n 17175: a1 = u64 [a3 + 0x10]\n 17178: a2 = u64 [a3 + 0x8]\n 17181: a3 = u64 [a3]\n 17183: a0 = reverse a0\n 17185: u64 [s1 + 0x140] = a0\n 17189: a0 = reverse a1\n 17191: u64 [s1 + 0x138] = a0\n 17195: a0 = reverse a2\n 17197: u64 [s1 + 0x130] = a0\n 17201: a0 = reverse a3\n 17203: u64 [s1 + 0x128] = a0\n 17207: a2 = s1 + 0x38d8\n 17211: u64 [a2 + 96] = 0\n 17214: a0 = u64 [s1 + 0x148]\n 17218: u64 [a2 + 0x58] = a0\n 17221: a0 = u64 [s1 + 0x150]\n 17225: u64 [a2 + 0x50] = a0\n 17228: a1 = s1 + 0x3920\n 17232: a0 = u64 [s1 + 0x158]\n 17236: u64 [a2 + 0x48] = a0\n 17239: a0 = 0\n 17241: ra = 660, jump @12\n      : @578 [@dyn 330] (gas: 12)\n 17247: a2 = s1 + 0x38d8\n 17251: a0 = u64 [s1 + 0x128]\n 17255: u64 [a2 + 0x40] = a0\n 17258: a0 = u64 [s1 + 0x130]\n 17262: u64 [a2 + 0x38] = a0\n 17265: a0 = u64 [s1 + 0x138]\n 17269: u64 [a2 + 0x30] = a0\n 17272: a0 = 0x20\n 17275: a1 = s1 + 0x3900\n 17279: a3 = u64 [s1 + 0x140]\n 17283: u64 [a2 + 0x28] = a3\n 17286: ra = 662, jump @12\n      : @579 [@dyn 331] (gas: 3)\n 17292: a1 = 0x40\n 17295: a0 = 0\n 17297: ra = 664, jump @0\n      : @580 [@dyn 332] (gas: 1)\n 17303: t0 = 666, jump @1202\n      : @581 [@dyn 333] (gas: 5)\n 17309: ra = 0x29c\n 17313: ecalli 6 // 'hash_keccak_256'\n 17315: a3 = u64 [s1 + 0x158]\n 17319: t0 = 0x29e\n 17323: jump @1216\n      : @582 [@dyn 334] (gas: 2)\n 17326: a3 = u64 [s1 + 0x158]\n 17330: t0 = 670, jump @1216\n      : @583 [@dyn 335] (gas: 9)\n 17336: a3 = s1 + 0x38d8\n 17340: u64 [a3] = a2\n 17342: a2 = a3 + 0xffffffffffffff00\n 17346: u64 [a2 + 0xf8] = a1\n 17350: u64 [a2 + 0xf0] = a0\n 17354: a0 = s1 + 0x38e0\n 17358: a1 = s1 + 0x38c0\n 17362: u64 [a2 + 0xe8] = a4\n 17366: ra = 672, jump @14\n      : @584 [@dyn 336] (gas: 6)\n 17372: a0 = s1 + 0x38d8\n 17376: a0 = u64 [a0 + 0x8]\n 17379: u64 [s1 + 0x158] = a0\n 17383: a0 = s1 + 0x38a0\n 17387: a1 = 0x40\n 17390: ra = 674, jump @10\n      : @585 [@dyn 337] (gas: 7)\n 17396: a3 = s1 + 0x30d8\n 17400: a5 = a3 + 0x700\n 17404: a4 = u64 [a5 + 0xe0]\n 17408: a1 = u64 [a5 + 0xd8]\n 17412: a2 = u64 [a5 + 0xd0]\n 17416: a0 = u64 [a5 + 0xc8]\n 17420: t0 = 676, jump @1242\n      : @586 [@dyn 338] (gas: 1)\n 17426: jump @588 if a1 == 0\n      : @587 (gas: 1)\n 17429: jump @747\n      : @588 (gas: 10)\n 17432: a1 = u8 [s1 + 0x158]\n 17436: a1 = a1 >u 0\n 17438: u64 [a3 + 1984] = 0\n 17442: u64 [a3 + 1976] = 0\n 17446: u64 [a3 + 0x7a8] = a1\n 17450: a1 = s1 + 0x3880\n 17454: u64 [a3 + 1968] = 0\n 17458: u64 [s1 + 0x158] = a0\n 17462: ra = 0x316\n 17466: jump @12\n      : @589 (gas: 1)\n 17469: t0 = 678, jump @1201\n      : @590 [@dyn 339] (gas: 4)\n 17475: ra = 0x2a8\n 17479: ecalli 11 // 'value_transferred'\n 17481: t0 = 0x2aa\n 17485: jump @1204\n      : @591 [@dyn 340] (gas: 1)\n 17488: t0 = 682, jump @1204\n      : @592 [@dyn 341] (gas: 1)\n 17494: jump @594 if a0 == 0\n      : @593 (gas: 1)\n 17497: jump @945\n      : @594 (gas: 3)\n 17500: a0 = u64 [s1 + 0x158]\n 17504: a0 = i32 [a0]\n 17506: jump @596 if a0 >u 67\n      : @595 (gas: 1)\n 17510: jump @945\n      : @596 (gas: 18)\n 17513: a0 = s1 + 0x4000\n 17517: i32 a0 = a0 + 0xfffffffffffffc20\n 17521: a1 = 0x4\n 17524: ecalli 1 // 'call_data_load'\n 17526: a1 = s1 + 0x38d8\n 17530: a2 = a1 + 0x300\n 17534: a0 = u64 [a2 + 0x60]\n 17537: u64 [s1 + 0x140] = a0\n 17541: a0 = u64 [a2 + 0x58]\n 17544: u64 [s1 + 0x148] = a0\n 17548: a0 = u64 [a2 + 0x50]\n 17551: u64 [s1 + 0x150] = a0\n 17555: a0 = u64 [a2 + 0x48]\n 17558: u64 [s1 + 0x158] = a0\n 17562: a0 = s1 + 0x3260\n 17566: ra = 0x2ac\n 17570: t0 = 0x508\n 17574: jump @1252\n      : @597 [@dyn 342] (gas: 15)\n 17577: a0 = s1 + 0x30d8\n 17581: a1 = u64 [a0 + 0x188]\n 17585: u64 [s1 + 0x138] = a1\n 17589: a1 = u64 [a0 + 0x190]\n 17593: u64 [s1 + 0x130] = a1\n 17597: a1 = u32 [a0 + 0x198]\n 17601: u64 [s1 + 0x128] = a1\n 17605: u64 [a0 + 352] = 0\n 17609: u64 [a0 + 344] = 0\n 17613: u64 [a0 + 336] = 0\n 17617: a2 = a0\n 17619: a0 = s1 + 0x3240\n 17623: a1 = s1 + 0x3220\n 17627: u64 [a2 + 328] = 0\n 17631: ra = 686, jump @14\n      : @598 [@dyn 343] (gas: 12)\n 17637: a0 = s1 + 0x30d8\n 17641: a1 = u64 [a0 + 0x170]\n 17645: u64 [s1 + 0x120] = a1\n 17649: a1 = u64 [a0 + 0x168]\n 17653: u64 [s1 + 0x118] = a1\n 17657: a0 = u32 [a0 + 0x178]\n 17661: u64 [s1 + 0x110] = a0\n 17665: a0 = s1 + 0x4000\n 17669: i32 a0 = a0 + 0xfffffffffffffc40\n 17673: ra = 0x2b0\n 17677: ecalli 3 // 'caller'\n 17679: fallthrough\n      : @599 [@dyn 344] (gas: 6)\n 17680: a2 = s1 + 0x38d8\n 17684: a3 = a2 + 0x300\n 17688: a0 = u64 [a3 + 0x70]\n 17691: a1 = u64 [a3 + 0x68]\n 17694: a2 = i32 [a3 + 0x78]\n 17697: t0 = 690, jump @1211\n      : @600 [@dyn 345] (gas: 6)\n 17703: u64 [a1 + 320] = 0\n 17707: u64 [a1 + 312] = 0\n 17711: u64 [a1 + 0x128] = a0\n 17715: a0 = s1 + 0x3200\n 17719: u64 [a1 + 304] = 0\n 17723: ra = 692, jump @1185\n      : @601 [@dyn 346] (gas: 1)\n 17729: t0 = 694, jump @1248\n      : @602 [@dyn 347] (gas: 11)\n 17735: a3 = a2 + 0x100\n 17739: u64 [a3 + 0x20] = a0\n 17742: a0 = u64 [s1 + 0x148]\n 17746: u64 [a3 + 0x18] = a0\n 17749: a0 = u64 [s1 + 0x150]\n 17753: u64 [a3 + 0x10] = a0\n 17756: a1 = s1 + 0x31e0\n 17760: a0 = u64 [s1 + 0x158]\n 17764: u64 [a3 + 0x8] = a0\n 17767: a0 = 0\n 17769: ra = 696, jump @12\n      : @603 [@dyn 348] (gas: 9)\n 17775: a0 = s1 + 0x30d8\n 17779: u64 [a0 + 256] = 0\n 17783: u64 [a0 + 248] = 0\n 17787: u64 [a0 + 240] = 0\n 17791: a3 = a0\n 17793: a0 = 0x20\n 17796: a1 = s1 + 0x31c0\n 17800: u64 [a3 + 232] = 0x6\n 17805: ra = 698, jump @12\n      : @604 [@dyn 349] (gas: 3)\n 17811: a1 = 0x40\n 17814: a0 = 0\n 17816: ra = 700, jump @0\n      : @605 [@dyn 350] (gas: 1)\n 17822: t0 = 702, jump @1205\n      : @606 [@dyn 351] (gas: 4)\n 17828: ra = 0x2c0\n 17832: ecalli 6 // 'hash_keccak_256'\n 17834: t0 = 0x2c2\n 17838: jump @1203\n      : @607 [@dyn 352] (gas: 1)\n 17841: t0 = 706, jump @1203\n      : @608 [@dyn 353] (gas: 10)\n 17847: u64 [a2 + 224] = 0\n 17851: a0 = u64 [s1 + 0x128]\n 17855: u64 [a2 + 0xd8] = a0\n 17859: a0 = u64 [s1 + 0x130]\n 17863: u64 [a2 + 0xd0] = a0\n 17867: a1 = s1 + 0x31a0\n 17871: a0 = u64 [s1 + 0x138]\n 17875: u64 [a2 + 0xc8] = a0\n 17879: a0 = 0\n 17881: ra = 708, jump @12\n      : @609 [@dyn 354] (gas: 4)\n 17887: t0 = 0x2c6\n 17891: a2 = s1 + 0x30d8\n 17895: a0 = u64 [s1 + 0x108]\n 17899: fallthrough\n      : @610 [@dyn 355] (gas: 10)\n 17900: u64 [a2 + 0xc0] = a0\n 17904: a0 = u64 [s1 + 0x110]\n 17908: u64 [a2 + 0xb8] = a0\n 17912: a0 = u64 [s1 + 0x118]\n 17916: u64 [a2 + 0xb0] = a0\n 17920: a0 = 0x20\n 17923: a1 = s1 + 0x3180\n 17927: a3 = u64 [s1 + 0x120]\n 17931: u64 [a2 + 0xa8] = a3\n 17935: ra = 712, jump @12\n      : @611 [@dyn 356] (gas: 3)\n 17941: a1 = 0x40\n 17944: a0 = 0\n 17946: ra = 714, jump @0\n      : @612 [@dyn 357] (gas: 1)\n 17952: t0 = 716, jump @1205\n      : @613 [@dyn 358] (gas: 5)\n 17958: ra = 0x2ce\n 17962: ecalli 6 // 'hash_keccak_256'\n 17964: a3 = u64 [s1 + 0x120]\n 17968: t0 = 0x2d0\n 17972: jump @1213\n      : @614 [@dyn 359] (gas: 2)\n 17975: a3 = u64 [s1 + 0x120]\n 17979: t0 = 720, jump @1213\n      : @615 [@dyn 360] (gas: 7)\n 17985: u64 [a3 + 0x80] = a2\n 17989: u64 [a3 + 0x78] = a1\n 17992: u64 [a3 + 0x70] = a0\n 17995: a0 = s1 + 0x3160\n 17999: a1 = s1 + 0x3140\n 18003: u64 [a3 + 0x68] = a4\n 18006: ra = 722, jump @14\n      : @616 [@dyn 361] (gas: 3)\n 18012: t0 = 0x2d4\n 18016: a2 = s1 + 0x30d8\n 18020: fallthrough\n      : @617 [@dyn 362] (gas: 2)\n 18021: a0 = u8 [a2 + 0x88]\n 18025: jump @619 if a0 == 0\n      : @618 (gas: 1)\n 18028: jump @976\n      : @619 (gas: 3)\n 18031: a0 = s1 + 0x2fc0\n 18035: a1 = 0x40\n 18038: ra = 726, jump @10\n      : @620 [@dyn 363] (gas: 14)\n 18044: a2 = s1 + 0x28d8\n 18048: t0 = u64 [a2 + 0x700]\n 18052: a1 = a2 + 0x600\n 18056: a5 = u64 [a1 + 0xf8]\n 18060: a3 = u64 [a1 + 0xf0]\n 18064: a0 = u64 [a1 + 0xe8]\n 18068: a4 = a3 | t0\n 18071: a1 = a0 | a5\n 18074: a1 = a1 | a4\n 18077: a1 = a1 >> 0x20\n 18080: a4 = a4 | a5\n 18083: a4 = a4 << 0x20\n 18086: a1 = a1 | a4\n 18089: jump @622 if a1 == 0\n      : @621 (gas: 1)\n 18092: jump @747\n      : @622 (gas: 11)\n 18095: u64 [a2 + 1752] = 0\n 18099: u64 [a2 + 1744] = 0\n 18103: u64 [a2 + 1736] = 0\n 18107: a4 = 0x8c379a000000000\n 18117: a1 = s1 + 0x2fa0\n 18121: u64 [a2 + 0x6e0] = a4\n 18125: u64 [s1 + 0x158] = a3\n 18129: u64 [s1 + 0x150] = a0\n 18133: u64 [s1 + 0x140] = t0\n 18137: u64 [s1 + 0x148] = a5\n 18141: ra = 728, jump @12\n      : @623 [@dyn 364] (gas: 1)\n 18147: t0 = 730, jump @1206\n      : @624 [@dyn 365] (gas: 1)\n 18153: jump @626 if a0 != 0\n      : @625 (gas: 1)\n 18156: jump @747\n      : @626 (gas: 12)\n 18159: i32 a0 = a2 + 0\n 18161: u64 [s1 + 0x138] = a0\n 18165: i32 a0 = a0 + 0x4\n 18168: a2 = s1 + 0x28d8\n 18172: u64 [a2 + 1728] = 0\n 18176: u64 [a2 + 1720] = 0\n 18180: u64 [a2 + 1704] = 0x20\n 18185: a1 = s1 + 0x2f80\n 18189: u64 [a2 + 1712] = 0\n 18193: u64 [s1 + 0x148] = a3\n 18197: u64 [s1 + 0x140] = a4\n 18201: ra = 732, jump @12\n      : @627 [@dyn 366] (gas: 1)\n 18207: t0 = 734, jump @1214\n      : @628 [@dyn 367] (gas: 1)\n 18213: jump @630 if a0 != 0\n      : @629 (gas: 1)\n 18216: jump @747\n      : @630 (gas: 9)\n 18219: a0 = u64 [s1 + 0x138]\n 18223: i32 a0 = a0 + 0x24\n 18226: a4 = s1 + 0x28d8\n 18230: u64 [a4 + 1696] = 0\n 18234: u64 [a4 + 1688] = 0\n 18238: u64 [a4 + 1672] = 0xb\n 18243: a1 = s1 + 0x2f60\n 18247: u64 [a4 + 1680] = 0\n 18251: ra = 736, jump @12\n      : @631 [@dyn 368] (gas: 1)\n 18257: t0 = 738, jump @1208\n      : @632 [@dyn 369] (gas: 1)\n 18263: jump @634 if a0 != 0\n      : @633 (gas: 1)\n 18266: jump @747\n      : @634 (gas: 12)\n 18269: a0 = u64 [s1 + 0x138]\n 18273: i32 a0 = a0 + 0x44\n 18276: a1 = u64 [0x20050]\n 18281: a2 = s1 + 0x28d8\n 18285: u64 [a2 + 1648] = 0\n 18289: u64 [a2 + 0x680] = a1\n 18293: a1 = 0x7465640000000000\n 18303: u64 [a2 + 0x678] = a1\n 18307: a1 = s1 + 0x2f40\n 18311: u64 [a2 + 1640] = 0\n 18315: ra = 0x35e\n 18319: jump @12\n      : @635 (gas: 1)\n 18322: jump @637 if a0 == 2087806282\n      : @636 (gas: 1)\n 18329: jump @945\n      : @637 (gas: 1)\n 18332: t0 = 740, jump @1201\n      : @638 [@dyn 370] (gas: 4)\n 18338: ra = 0x2e6\n 18342: ecalli 11 // 'value_transferred'\n 18344: t0 = 0x2e8\n 18348: jump @1204\n      : @639 [@dyn 371] (gas: 1)\n 18351: t0 = 744, jump @1204\n      : @640 [@dyn 372] (gas: 1)\n 18357: jump @642 if a0 == 0\n      : @641 (gas: 1)\n 18360: jump @945\n      : @642 (gas: 1)\n 18363: t0 = 746, jump @1251\n      : @643 [@dyn 373] (gas: 1)\n 18369: jump @645 if a1 <u a0\n      : @644 (gas: 1)\n 18372: jump @945\n      : @645 (gas: 23)\n 18375: a0 = s1 + 0x4000\n 18379: i32 a0 = a0 + 0xfffffffffffffbe0\n 18383: a1 = 0x4\n 18386: ecalli 1 // 'call_data_load'\n 18388: a0 = s1 + 0x38d8\n 18392: a5 = a0 + 0x300\n 18396: a1 = u64 [a5 + 0x20]\n 18399: a2 = u64 [a5 + 0x18]\n 18402: a3 = u64 [a5 + 0x10]\n 18405: a4 = u64 [a5 + 0x8]\n 18408: a0 = s1 + 0x20d8\n 18412: u64 [s1 + 0x150] = a1\n 18416: u64 [a0 + 0x500] = a1\n 18420: u64 [s1 + 0x148] = a2\n 18424: a5 = a0 + 0x400\n 18428: u64 [a5 + 0xf8] = a2\n 18432: u64 [s1 + 0x140] = a3\n 18436: u64 [a5 + 0xf0] = a3\n 18440: a1 = s1 + 0x25c0\n 18444: u64 [s1 + 0x138] = a4\n 18448: u64 [a5 + 0xe8] = a4\n 18452: a0 = 0\n 18454: ra = 748, jump @12\n      : @646 [@dyn 374] (gas: 9)\n 18460: a0 = s1 + 0x20d8\n 18464: u64 [a0 + 1248] = 0\n 18468: u64 [a0 + 1240] = 0\n 18472: u64 [a0 + 1232] = 0\n 18476: a3 = a0\n 18478: a0 = 0x20\n 18481: a1 = s1 + 0x25a0\n 18485: u64 [a3 + 1224] = 0x2\n 18490: ra = 750, jump @12\n      : @647 [@dyn 375] (gas: 3)\n 18496: a1 = 0x40\n 18499: a0 = 0\n 18501: ra = 752, jump @0\n      : @648 [@dyn 376] (gas: 1)\n 18507: t0 = 754, jump @1202\n      : @649 [@dyn 377] (gas: 4)\n 18513: ra = 0x2f4\n 18517: ecalli 6 // 'hash_keccak_256'\n 18519: t0 = 0x2f6\n 18523: jump @1210\n      : @650 [@dyn 378] (gas: 1)\n 18526: t0 = 758, jump @1210\n      : @651 [@dyn 379] (gas: 8)\n 18532: a5 = a3 + 0x400\n 18536: u64 [a5 + 0xa0] = a2\n 18540: u64 [a5 + 0x98] = a1\n 18544: u64 [a5 + 0x90] = a0\n 18548: a0 = s1 + 0x2580\n 18552: a1 = s1 + 0x2560\n 18556: u64 [a5 + 0x88] = a4\n 18560: ra = 760, jump @14\n      : @652 [@dyn 380] (gas: 10)\n 18566: a2 = s1 + 0x20d8\n 18570: t0 = u64 [a2 + 0x4c0]\n 18574: a0 = a2 + 0x400\n 18578: a5 = u64 [a0 + 0xb8]\n 18582: a3 = u64 [a0 + 0xb0]\n 18586: a4 = u64 [a0 + 0xa8]\n 18590: a0 = a3 | t0\n 18593: a1 = a4 | a5\n 18596: a0 = a0 | a1\n 18599: jump @669 if a0 != 0\n      : @653 (gas: 3)\n 18603: a0 = s1 + 0x2400\n 18607: a1 = 0x40\n 18610: ra = 762, jump @10\n      : @654 [@dyn 381] (gas: 14)\n 18616: a2 = s1 + 0x20d8\n 18620: t0 = u64 [a2 + 0x340]\n 18624: a1 = a2 + 0x300\n 18628: a5 = u64 [a1 + 0x38]\n 18631: a3 = u64 [a1 + 0x30]\n 18634: a0 = u64 [a1 + 0x28]\n 18637: a4 = a3 | t0\n 18640: a1 = a0 | a5\n 18643: a1 = a1 | a4\n 18646: a1 = a1 >> 0x20\n 18649: a4 = a4 | a5\n 18652: a4 = a4 << 0x20\n 18655: a1 = a1 | a4\n 18658: jump @656 if a1 == 0\n      : @655 (gas: 1)\n 18661: jump @747\n      : @656 (gas: 11)\n 18664: u64 [a2 + 792] = 0\n 18668: u64 [a2 + 784] = 0\n 18672: u64 [a2 + 776] = 0\n 18676: a4 = 0x8c379a000000000\n 18686: a1 = s1 + 0x23e0\n 18690: u64 [a2 + 0x320] = a4\n 18694: u64 [s1 + 0x158] = a3\n 18698: u64 [s1 + 0x150] = a0\n 18702: u64 [s1 + 0x140] = t0\n 18706: u64 [s1 + 0x148] = a5\n 18710: ra = 764, jump @12\n      : @657 [@dyn 382] (gas: 1)\n 18716: t0 = 766, jump @1206\n      : @658 [@dyn 383] (gas: 1)\n 18722: jump @660 if a0 != 0\n      : @659 (gas: 1)\n 18725: jump @747\n      : @660 (gas: 6)\n 18728: i32 a0 = a2 + 0\n 18730: u64 [s1 + 0x138] = a0\n 18734: i32 a0 = a0 + 0x4\n 18737: t0 = 0x300\n 18741: a2 = s1 + 0x20d8\n 18745: fallthrough\n      : @661 [@dyn 384] (gas: 8)\n 18746: u64 [a2 + 768] = 0\n 18750: u64 [a2 + 760] = 0\n 18754: u64 [a2 + 744] = 0x20\n 18759: a1 = s1 + 0x23c0\n 18763: u64 [a2 + 752] = 0\n 18767: u64 [s1 + 0x148] = a3\n 18771: u64 [s1 + 0x140] = a4\n 18775: ra = 770, jump @12\n      : @662 [@dyn 385] (gas: 10)\n 18781: a1 = s1 + 0x100\n 18785: a3 = u64 [a1 + 0x48]\n 18788: a4 = u64 [a1 + 0x50]\n 18791: a2 = u64 [a1 + 0x58]\n 18794: a0 = u64 [a1 + 0x40]\n 18797: a0 = a0 + 0xffffffffffffffdc\n 18800: a0 = a4 <u a0\n 18803: a0 = 0 if a2 != 0\n 18805: a0 = 0 if a3 != 0\n 18807: jump @664 if a0 != 0\n      : @663 (gas: 1)\n 18810: jump @747\n      : @664 (gas: 9)\n 18813: a0 = u64 [s1 + 0x138]\n 18817: i32 a0 = a0 + 0x24\n 18820: a3 = s1 + 0x20d8\n 18824: u64 [a3 + 736] = 0\n 18828: u64 [a3 + 728] = 0\n 18832: u64 [a3 + 712] = 0x14\n 18837: a1 = s1 + 0x23a0\n 18841: u64 [a3 + 720] = 0\n 18845: ra = 772, jump @12\n      : @665 [@dyn 386] (gas: 1)\n 18851: t0 = 774, jump @1208\n      : @666 [@dyn 387] (gas: 1)\n 18857: jump @668 if a0 != 0\n      : @667 (gas: 1)\n 18860: jump @747\n      : @668 (gas: 14)\n 18863: a0 = u64 [s1 + 0x138]\n 18867: i32 a0 = a0 + 0x44\n 18870: a1 = u64 [0x20080]\n 18875: a2 = u64 [0x20088]\n 18880: a3 = s1 + 0x20d8\n 18884: a4 = a3 + 0x200\n 18888: u64 [a4 + 0xc0] = a1\n 18892: u64 [a4 + 0xb8] = a2\n 18896: a1 = 0x6164656400000000\n 18906: u64 [a4 + 0xb0] = a1\n 18910: a1 = s1 + 0x2380\n 18914: u64 [a3 + 680] = 0\n 18918: ra = 0x35e\n 18922: jump @12\n      : @669 (gas: 15)\n 18925: a0 = u64 [s1 + 0x138]\n 18929: u64 [a2 + 0x468] = a0\n 18933: a0 = u64 [s1 + 0x140]\n 18937: u64 [a2 + 0x470] = a0\n 18941: a0 = u64 [s1 + 0x148]\n 18945: u64 [a2 + 0x478] = a0\n 18949: a1 = s1 + 0x2540\n 18953: a0 = u64 [s1 + 0x150]\n 18957: u64 [a2 + 0x480] = a0\n 18961: a0 = 0\n 18963: u64 [s1 + 0x158] = t0\n 18967: u64 [s1 + 0x140] = a4\n 18971: u64 [s1 + 0x150] = a5\n 18975: u64 [s1 + 0x148] = a3\n 18979: ra = 776, jump @12\n      : @670 [@dyn 388] (gas: 11)\n 18985: a0 = s1 + 0x20d8\n 18989: u64 [a0 + 1120] = 0\n 18993: a0 = s1 + 0x20d8\n 18997: u64 [a0 + 1112] = 0\n 19001: a0 = s1 + 0x20d8\n 19005: u64 [a0 + 1096] = 0x2\n 19010: a0 = 0x20\n 19013: a1 = s1 + 0x2520\n 19017: a2 = s1 + 0x20d8\n 19021: u64 [a2 + 1104] = 0\n 19025: ra = 778, jump @12\n      : @671 [@dyn 389] (gas: 3)\n 19031: a1 = 0x40\n 19034: a0 = 0\n 19036: ra = 780, jump @0\n      : @672 [@dyn 390] (gas: 49)\n 19042: a1 = sp + 0xffffffffffffffe0\n 19045: a1 = a1 & 0xffffffffffffffe0\n 19048: u64 [s1 + 0x138] = a1\n 19052: sp = a1\n 19054: i32 a0 = a0 + 0\n 19056: i32 a2 = a1 + 0\n 19058: a1 = 0x40\n 19061: ecalli 6 // 'hash_keccak_256'\n 19063: a3 = u64 [s1 + 0x138]\n 19067: a0 = u64 [a3 + 0x18]\n 19070: a1 = u64 [a3 + 0x10]\n 19073: a2 = u64 [a3 + 0x8]\n 19076: a4 = u64 [a3]\n 19078: t0 = reverse a0\n 19080: t1 = reverse a1\n 19082: t2 = reverse a2\n 19084: a2 = reverse a4\n 19086: a0 = u64 [s1 + 0x140]\n 19090: a4 = a0 <u 0x1\n 19093: a5 = u64 [s1 + 0x148]\n 19097: a4 = a5 - a4\n 19100: a5 = a5 | a0\n 19103: a5 = a5 <u 0x1\n 19106: a1 = u64 [s1 + 0x150]\n 19110: a3 = a1 - a5\n 19113: a5 = a1 <u a5\n 19116: a1 = u64 [s1 + 0x158]\n 19120: a5 = a1 - a5\n 19123: a0 = a0 + 0xffffffffffffffff\n 19126: a1 = s1 + 0x20d8\n 19130: u64 [a1 + 0x3e0] = a5\n 19134: a1 = s1 + 0x20d8\n 19138: u64 [a1 + 0x3d8] = a3\n 19142: a1 = s1 + 0x20d8\n 19146: u64 [a1 + 0x3d0] = a4\n 19150: a1 = s1 + 0x20d8\n 19154: u64 [a1 + 0x3c8] = a0\n 19158: a0 = s1 + 0x20d8\n 19162: u64 [a0 + 0x400] = a2\n 19166: a0 = s1 + 0x20d8\n 19170: u64 [a0 + 0x3f8] = t2\n 19174: a0 = s1 + 0x20d8\n 19178: u64 [a0 + 0x3f0] = t1\n 19182: a0 = s1 + 0x24e0\n 19186: a1 = s1 + 0x24c0\n 19190: a2 = s1 + 0x24a0\n 19194: a3 = s1 + 0x20d8\n 19198: u64 [a3 + 0x3e8] = t0\n 19202: ra = 782, jump @1136\n      : @673 [@dyn 391] (gas: 19)\n 19208: a0 = s1 + 0x20d8\n 19212: a2 = u64 [a0 + 0x408]\n 19216: a0 = s1 + 0x20d8\n 19220: a0 = u64 [a0 + 0x410]\n 19224: a1 = s1 + 0x20d8\n 19228: a1 = u64 [a1 + 0x418]\n 19232: a3 = s1 + 0x20d8\n 19236: a3 = u64 [a3 + 0x420]\n 19240: a4 = s1 + 0x20d8\n 19244: u64 [a4 + 0x3a0] = a3\n 19248: a3 = s1 + 0x20d8\n 19252: u64 [a3 + 0x398] = a1\n 19256: a1 = s1 + 0x20d8\n 19260: u64 [a1 + 0x390] = a0\n 19264: a0 = s1 + 0x2480\n 19268: a1 = s1 + 0x2460\n 19272: a3 = s1 + 0x20d8\n 19276: u64 [a3 + 0x388] = a2\n 19280: ra = 784, jump @14\n      : @674 [@dyn 392] (gas: 16)\n 19286: a0 = s1 + 0x20d8\n 19290: a0 = u64 [a0 + 0x3c0]\n 19294: a1 = s1 + 0x100\n 19298: u64 [a1 + 0x58] = a0\n 19301: a0 = s1 + 0x20d8\n 19305: a0 = u64 [a0 + 0x3b8]\n 19309: u64 [a1 + 0x50] = a0\n 19312: a0 = s1 + 0x20d8\n 19316: a0 = u64 [a0 + 0x3b0]\n 19320: u64 [a1 + 0x48] = a0\n 19323: a0 = s1 + 0x20d8\n 19327: a0 = u64 [a0 + 0x3a8]\n 19331: u64 [a1 + 0x40] = a0\n 19334: a0 = s1 + 0x2440\n 19338: a1 = 0x40\n 19341: ra = 786, jump @10\n      : @675 [@dyn 393] (gas: 7)\n 19347: a3 = s1 + 0x20d8\n 19351: a5 = a3 + 0x300\n 19355: a0 = u64 [a5 + 0x80]\n 19359: a1 = u64 [a5 + 0x78]\n 19362: a2 = u64 [a5 + 0x70]\n 19365: a4 = u64 [a5 + 0x68]\n 19368: t0 = 788, jump @1241\n      : @676 [@dyn 394] (gas: 1)\n 19374: jump @747 if a0 != 0\n      : @677 (gas: 14)\n 19378: a2 = s1 + 0x100\n 19382: a0 = u64 [a2 + 0x40]\n 19385: a5 = a3 + 0x300\n 19389: u64 [a5 + 0x48] = a0\n 19392: a0 = u64 [a2 + 0x48]\n 19395: u64 [a5 + 0x50] = a0\n 19398: a0 = u64 [a2 + 0x50]\n 19401: u64 [a5 + 0x58] = a0\n 19404: a1 = s1 + 0x2420\n 19408: a0 = u64 [a2 + 0x58]\n 19411: u64 [a5 + 0x60] = a0\n 19414: a0 = a4\n 19416: u64 [s1 + 0x158] = a4\n 19420: ra = 790, jump @12\n      : @678 [@dyn 395] (gas: 3)\n 19426: a0 = i32 [s1 + 0x158]\n 19430: a1 = 0x20\n 19433: ra = 792, jump @0\n      : @679 [@dyn 396] (gas: 5)\n 19439: i32 a1 = a0 + 0\n 19441: a2 = 0x20\n 19444: a0 = 0\n 19446: ecalli 8 // 'seal_return'\n 19448: fallthrough\n      : @680 (gas: 39)\n 19449: a0 = u64 [s1 + 0xb8]\n 19453: ra = u64 [s1 + 0x158]\n 19457: a1 = ra <u a0\n 19460: u64 [s1 + 0x138] = a1\n 19464: a5 = u64 [s1 + 0xa0]\n 19468: t0 = u64 [s1 + 0x150]\n 19472: a3 = t0 ^ a5\n 19475: a2 = t0 <u a5\n 19478: a2 = a1 if a3 == 0\n 19481: t1 = u64 [s1 + 0xa8]\n 19485: a3 = u64 [s1 + 0x148]\n 19489: t2 = a3 - t1\n 19492: a3 = a3 <u t1\n 19495: a1 = u64 [s1 + 0xb0]\n 19499: a4 = u64 [s1 + 0x140]\n 19503: a4 = a4 - a1\n 19506: a4 = a4 - a3\n 19509: a3 = t2 <u a2\n 19512: a4 = a4 - a3\n 19515: u64 [s1 + 0x148] = a4\n 19519: t2 = t2 - a2\n 19522: a2 = t0 - a5\n 19525: a3 = u64 [s1 + 0x138]\n 19529: a2 = a2 - a3\n 19532: a4 = ra - a0\n 19535: a3 = s1 + 0x10d8\n 19539: u64 [a3 + 0x288] = a0\n 19543: u64 [a3 + 0x268] = a4\n 19547: a4 = a3 + 0x200\n 19551: u64 [a4 + 0x90] = a5\n 19555: u64 [a3 + 0x298] = t1\n 19559: u64 [a4 + 0x70] = a2\n 19562: u64 [a4 + 0xa0] = a1\n 19566: u64 [a3 + 0x278] = t2\n 19570: a0 = s1 + 0x1360\n 19574: a1 = s1 + 0x1340\n 19578: a2 = u64 [s1 + 0x148]\n 19582: u64 [a4 + 0x80] = a2\n 19586: ra = 794, jump @1126\n      : @681 [@dyn 397] (gas: 3)\n 19592: a0 = s1 + 0x1320\n 19596: a1 = 0x40\n 19599: ra = 796, jump @10\n      : @682 [@dyn 398] (gas: 2)\n 19605: a2 = s1 + 0x10d8\n 19609: fallthrough\n      : @683 (gas: 13)\n 19610: t0 = u64 [a2 + 0x260]\n 19614: a1 = a2 + 0x200\n 19618: a5 = u64 [a1 + 0x58]\n 19621: a4 = u64 [a1 + 0x50]\n 19624: a0 = u64 [a1 + 0x48]\n 19627: a3 = a4 | t0\n 19630: a1 = a0 | a5\n 19633: a1 = a1 | a3\n 19636: a1 = a1 >> 0x20\n 19639: a3 = a3 | a5\n 19642: a3 = a3 << 0x20\n 19645: a1 = a1 | a3\n 19648: jump @747 if a1 != 0\n      : @684 (gas: 22)\n 19652: a1 = a0 + 0x20\n 19655: u64 [s1 + 0x150] = a1\n 19659: t1 = a1 <u a0\n 19662: a1 = a4 + t1\n 19665: u64 [s1 + 0x158] = a1\n 19669: a1 = a1 <u a4\n 19672: a1 = t1 if t1 == 0\n 19675: a1 = a1 + a5\n 19678: u64 [s1 + 0x140] = a1\n 19682: a1 = a1 <u a5\n 19685: a1 = a1 + t0\n 19688: u64 [s1 + 0x148] = a1\n 19692: u64 [a2 + 576] = 0\n 19696: u64 [a2 + 568] = 0\n 19700: u64 [a2 + 560] = 0\n 19704: a1 = s1 + 0x1300\n 19708: u64 [a2 + 552] = 0x20\n 19713: u64 [s1 + 0xf0] = a0\n 19717: u64 [s1 + 0xe8] = a4\n 19721: u64 [s1 + 0xe0] = t0\n 19725: u64 [s1 + 0xb0] = a5\n 19729: ra = 798, jump @12\n      : @685 [@dyn 399] (gas: 3)\n 19735: a0 = s1 + 0x12e0\n 19739: a1 = u64 [s1 + 0xb8]\n 19743: ra = 800, jump @10\n      : @686 [@dyn 400] (gas: 13)\n 19749: a4 = s1 + 0x100\n 19753: a5 = u64 [a4 + 0x50]\n 19756: a2 = u64 [a4 + 0x40]\n 19759: a0 = a5 | a2\n 19762: a1 = u64 [a4 + 0x58]\n 19765: a3 = u64 [a4 + 0x48]\n 19768: a1 = a1 | a3\n 19771: a0 = a0 | a1\n 19774: a0 = a0 >> 0x20\n 19777: a1 = a1 | a2\n 19780: a1 = a1 << 0x20\n 19783: a0 = a0 | a1\n 19786: jump @747 if a0 != 0\n      : @687 (gas: 20)\n 19790: a2 = s1 + 0x10d8\n 19794: t0 = u64 [a2 + 0x220]\n 19798: a0 = a2 + 0x200\n 19802: a1 = u64 [a0 + 0x18]\n 19805: a3 = u64 [a0 + 0x10]\n 19808: a4 = u64 [a0 + 0x8]\n 19811: a0 = i32 [s1 + 0xf0]\n 19815: u64 [s1 + 0xb8] = a0\n 19819: u64 [s1 + 0xf8] = a4\n 19823: a0 = a2 + 0x100\n 19827: u64 [a0 + 0xe8] = a4\n 19831: u64 [s1 + 0x100] = a3\n 19835: u64 [a0 + 0xf0] = a3\n 19839: u64 [s1 + 0x108] = a1\n 19843: u64 [a0 + 0xf8] = a1\n 19847: a1 = s1 + 0x12c0\n 19851: u64 [s1 + 0x110] = t0\n 19855: u64 [a2 + 0x200] = t0\n 19859: a0 = a5\n 19861: ra = 802, jump @12\n      : @688 [@dyn 401] (gas: 24)\n 19867: ra = 0\n 19869: a4 = 0\n 19871: t0 = 0\n 19873: t2 = 0\n 19875: a1 = u64 [s1 + 0xf0]\n 19879: a0 = a1 + 0x40\n 19882: a3 = s1 + 0x100\n 19886: u64 [a3 + 0x50] = a0\n 19889: a0 = a0 <u a1\n 19892: a2 = u64 [s1 + 0xe8]\n 19896: a1 = a2 + a0\n 19899: u64 [a3 + 0x48] = a1\n 19902: a1 = a1 <u a2\n 19905: a1 = a0 if a0 == 0\n 19908: a0 = u64 [s1 + 0xb0]\n 19912: a1 = a1 + a0\n 19915: u64 [a3 + 0x40] = a1\n 19918: a0 = a1 <u a0\n 19921: a1 = u64 [s1 + 0xe0]\n 19925: a0 = a0 + a1\n 19928: u64 [a3 + 0x58] = a0\n 19931: a1 = u64 [s1 + 0xc8]\n 19935: t1 = u64 [s1 + 0xc0]\n 19939: fallthrough\n      : @689 (gas: 17)\n 19940: a0 = u64 [s1 + 0xf8]\n 19944: a0 = ra <u a0\n 19947: a2 = u64 [s1 + 0x100]\n 19951: a3 = a4 ^ a2\n 19954: u64 [s1 + 0x138] = a4\n 19958: a2 = a4 <u a2\n 19961: a2 = a0 if a3 == 0\n 19964: a5 = u64 [s1 + 0x108]\n 19968: a0 = t0 <u a5\n 19971: a3 = u64 [s1 + 0x110]\n 19975: a4 = t2 ^ a3\n 19978: a3 = t2 <u a3\n 19981: a3 = a0 if a4 == 0\n 19984: a0 = t0 ^ a5\n 19987: a0 = a0 | a4\n 19990: a3 = a2 if a0 == 0\n 19993: jump @745 if a3 == 0\n      : @690 (gas: 10)\n 19997: a0 = a1 | t1\n 20000: a2 = u64 [s1 + 0xd8]\n 20004: a3 = u64 [s1 + 0xd0]\n 20008: a2 = a2 | a3\n 20011: a0 = a0 | a2\n 20014: a0 = a0 >> 0x20\n 20017: a2 = a2 | t1\n 20020: a2 = a2 << 0x20\n 20023: a0 = a0 | a2\n 20026: jump @747 if a0 != 0\n      : @691 (gas: 7)\n 20030: u64 [s1 + 0x120] = t0\n 20034: u64 [s1 + 0x128] = t2\n 20038: u64 [s1 + 0x130] = ra\n 20042: u64 [s1 + 0xc0] = t1\n 20046: a0 = s1 + 0x12a0\n 20050: u64 [s1 + 0xc8] = a1\n 20054: ra = 804, jump @10\n      : @692 [@dyn 402] (gas: 13)\n 20060: a1 = s1 + 0x100\n 20064: a5 = u64 [a1 + 0x50]\n 20067: a2 = u64 [a1 + 0x40]\n 20070: a0 = a5 | a2\n 20073: a3 = u64 [a1 + 0x58]\n 20076: t1 = u64 [s1 + 0x148]\n 20080: a1 = t1 | a3\n 20083: a0 = a0 | a1\n 20086: a0 = a0 >> 0x20\n 20089: a1 = a1 | a2\n 20092: a1 = a1 << 0x20\n 20095: a0 = a0 | a1\n 20098: jump @747 if a0 != 0\n      : @693 (gas: 17)\n 20102: a4 = s1 + 0x10d8\n 20106: u64 [s1 + 0x140] = a2\n 20110: t0 = u64 [a4 + 0x1e0]\n 20114: a2 = a4 + 0x100\n 20118: a1 = u64 [a2 + 0xd8]\n 20122: a0 = u64 [a2 + 0xd0]\n 20126: u64 [s1 + 0x158] = a3\n 20130: a3 = u64 [a2 + 0xc8]\n 20134: u64 [a2 + 0xa8] = a3\n 20138: u64 [a2 + 0xb0] = a0\n 20142: u64 [a2 + 0xb8] = a1\n 20146: a1 = s1 + 0x1280\n 20150: u64 [a4 + 0x1c0] = t0\n 20154: a0 = a5\n 20156: u64 [s1 + 0x150] = a5\n 20160: u64 [s1 + 0x148] = t1\n 20164: ra = 806, jump @12\n      : @694 [@dyn 403] (gas: 50)\n 20170: a1 = u64 [s1 + 0x150]\n 20174: a0 = a1 + 0x20\n 20177: u64 [s1 + 0x118] = a0\n 20181: a2 = a0 <u a1\n 20184: a0 = u64 [s1 + 0x148]\n 20188: t1 = a0 + a2\n 20191: a3 = t1 <u a0\n 20194: a3 = a2 if a2 == 0\n 20197: a0 = u64 [s1 + 0x140]\n 20201: t0 = a0 + a3\n 20204: a3 = t0 <u a0\n 20207: a0 = u64 [s1 + 0x158]\n 20211: a0 = a0 + a3\n 20214: u64 [s1 + 0x158] = a0\n 20218: a0 = u64 [s1 + 0xc8]\n 20222: a3 = a0 + 0x20\n 20225: a4 = a3 <u a0\n 20228: a0 = u64 [s1 + 0xd0]\n 20232: a5 = a0 + a4\n 20235: a0 = a5 <u a0\n 20238: a0 = a4 if a4 == 0\n 20241: a1 = u64 [s1 + 0xc0]\n 20245: a2 = a1 + a0\n 20248: a4 = a2 <u a1\n 20251: a0 = u64 [s1 + 0xd8]\n 20255: a0 = a0 + a4\n 20258: u64 [s1 + 0xd8] = a0\n 20262: ra = u64 [s1 + 0x130]\n 20266: ra = ra + 0x1\n 20269: a4 = ra <u 0x1\n 20272: t2 = u64 [s1 + 0x138]\n 20276: t2 = t2 + a4\n 20279: a4 = ra | t2\n 20282: a4 = a4 <u 0x1\n 20285: a0 = u64 [s1 + 0x120]\n 20289: a4 = a4 + a0\n 20292: a1 = a4 <u a0\n 20295: a0 = u64 [s1 + 0x128]\n 20299: a0 = a0 + a1\n 20302: a1 = u64 [s1 + 0x118]\n 20306: u64 [s1 + 0x150] = a1\n 20310: u64 [s1 + 0x148] = t1\n 20314: u64 [s1 + 0x140] = t0\n 20318: a1 = a3\n 20320: u64 [s1 + 0xd0] = a5\n 20324: t1 = a2\n 20326: t0 = a4\n 20328: a4 = t2\n 20330: t2 = a0\n 20332: jump @689\n      : @695 (gas: 6)\n 20335: a0 = t1 | a5\n 20338: a0 = a0 >> 0x20\n 20341: a1 = a1 | a5\n 20344: a1 = a1 << 0x20\n 20347: a0 = a0 | a1\n 20350: jump @747 if a0 != 0\n      : @696 (gas: 12)\n 20354: u64 [t2 + 1632] = 0\n 20358: u64 [t2 + 1624] = 0\n 20362: u64 [t2 + 1616] = 0\n 20366: a0 = 0x8c379a000000000\n 20376: a1 = s1 + 0x7ff\n 20380: a1 = a1 + 0x721\n 20384: u64 [t2 + 0x668] = a0\n 20388: a0 = a3\n 20390: u64 [s1 + 0x108] = a3\n 20394: u64 [s1 + 0x100] = t0\n 20398: u64 [s1 + 0xf8] = a4\n 20402: ra = 808, jump @12\n      : @697 [@dyn 404] (gas: 9)\n 20408: a1 = u64 [s1 + 0x108]\n 20412: a3 = 0x100000000\n 20422: a0 = 0xfffffffc\n 20432: a0 = a1 <u a0\n 20435: a2 = u64 [s1 + 0xf8]\n 20439: a0 = 0 if a2 != 0\n 20441: a2 = u64 [s1 + 0x100]\n 20445: a0 = 0 if a2 != 0\n 20447: jump @747 if a0 == 0\n      : @698 (gas: 13)\n 20451: i32 a0 = a1 + 0\n 20453: u64 [s1 + 0x150] = a0\n 20457: i32 a0 = a0 + 0x4\n 20460: a2 = s1 + 0x7ff\n 20464: a2 = a2 + 0xd1\n 20468: u64 [a2 + 1608] = 0\n 20472: u64 [a2 + 1600] = 0\n 20476: u64 [a2 + 1584] = 0x20\n 20481: a1 = s1 + 0x7ff\n 20485: a1 = a1 + 0x701\n 20489: u64 [a2 + 1592] = 0\n 20493: u64 [s1 + 0x158] = a3\n 20497: ra = 810, jump @12\n      : @699 [@dyn 405] (gas: 10)\n 20503: a4 = u64 [s1 + 0xf8]\n 20507: a1 = s1 + 0x100\n 20511: a3 = u64 [a1]\n 20513: a2 = u64 [a1 + 0x8]\n 20516: a0 = u64 [a1 + 0x58]\n 20519: a0 = a0 + 0xffffffffffffffdc\n 20522: a0 = a2 <u a0\n 20525: a0 = 0 if a4 != 0\n 20527: a0 = 0 if a3 != 0\n 20529: jump @747 if a0 == 0\n      : @700 (gas: 11)\n 20533: a0 = u64 [s1 + 0x150]\n 20537: i32 a0 = a0 + 0x24\n 20540: a5 = s1 + 0x7ff\n 20544: a5 = a5 + 0xd1\n 20548: u64 [a5 + 1576] = 0\n 20552: u64 [a5 + 1568] = 0\n 20556: u64 [a5 + 1552] = 0xc\n 20561: a1 = s1 + 0x7ff\n 20565: a1 = a1 + 0x6e1\n 20569: u64 [a5 + 1560] = 0\n 20573: ra = 812, jump @12\n      : @701 [@dyn 406] (gas: 2)\n 20579: a0 = 0xffffffbc\n 20589: t0 = 814, jump @1245\n      : @702 [@dyn 407] (gas: 1)\n 20595: jump @747 if a0 == 0\n      : @703 (gas: 13)\n 20599: a0 = u64 [s1 + 0x150]\n 20603: i32 a0 = a0 + 0x44\n 20606: a1 = u64 [0x200c0]\n 20611: a2 = s1 + 0x7ff\n 20615: a2 = a2 + 0xd1\n 20619: u64 [a2 + 1528] = 0\n 20623: u64 [a2 + 0x608] = a1\n 20627: a1 = 0x6164657200000000\n 20637: u64 [a2 + 0x600] = a1\n 20641: a1 = s1 + 0x7ff\n 20645: a1 = a1 + 0x6c1\n 20649: u64 [a2 + 1520] = 0\n 20653: ra = 816, jump @12\n      : @704 [@dyn 408] (gas: 4)\n 20659: a1 = 0x64\n 20662: a0 = u64 [s1 + 0x150]\n 20666: ra = 0x360\n 20670: jump @0\n      : @705 (gas: 37)\n 20673: t0 = u64 [s1 + 0x70]\n 20676: a2 = u64 [s1 + 0x128]\n 20680: t2 = a2 <u t0\n 20683: ra = u64 [s1 + 0x78]\n 20686: a3 = a1 ^ ra\n 20689: a2 = a1 <u ra\n 20692: a2 = t2 if a3 == 0\n 20695: a5 = u64 [s1 + 0x80]\n 20699: a3 = a4 - a5\n 20702: t1 = a3 <u a2\n 20705: a4 = a4 <u a5\n 20708: a4 = a4 + t1\n 20711: u64 [s1 + 0x158] = a4\n 20715: t1 = u64 [s1 + 0x88]\n 20719: a4 = a0 - t1\n 20722: a0 = u64 [s1 + 0x158]\n 20726: a0 = a4 - a0\n 20729: u64 [s1 + 0x158] = a0\n 20733: a4 = a3 - a2\n 20736: a2 = a1 - ra\n 20739: a2 = a2 - t2\n 20742: a0 = u64 [s1 + 0x128]\n 20746: a0 = a0 - t0\n 20749: a3 = s1 + 0x10d8\n 20753: u64 [a3 + 0x5e8] = t0\n 20757: u64 [a3 + 0x5c8] = a0\n 20761: u64 [a3 + 0x5f0] = ra\n 20765: u64 [a3 + 0x5f8] = a5\n 20769: a5 = a3 + 0x500\n 20773: u64 [a5 + 0xd0] = a2\n 20777: u64 [a3 + 0x600] = t1\n 20781: u64 [a5 + 0xd8] = a4\n 20785: a0 = s1 + 0x16c0\n 20789: a1 = s1 + 0x16a0\n 20793: a2 = u64 [s1 + 0x158]\n 20797: u64 [a5 + 0xe0] = a2\n 20801: ra = 818, jump @1126\n      : @706 [@dyn 409] (gas: 10)\n 20807: a0 = u64 [s1 + 0x98]\n 20811: a1 = u64 [s1 + 0x90]\n 20815: a0 = a0 | a1\n 20818: a1 = 0xffffffe0\n 20828: a2 = u64 [s1 + 0xa8]\n 20832: a1 = a2 <u a1\n 20835: a3 = u64 [s1 + 0xa0]\n 20839: a1 = 0 if a3 != 0\n 20841: a1 = 0 if a0 != 0\n 20843: jump @747 if a1 == 0\n      : @707 (gas: 14)\n 20847: i32 a0 = a2 + 0x20\n 20850: a4 = s1 + 0x10d8\n 20854: a1 = u64 [s1 + 0x70]\n 20857: a2 = a4 + 0x500\n 20861: u64 [a2 + 0xa8] = a1\n 20865: a1 = u64 [s1 + 0x78]\n 20868: u64 [a2 + 0xb0] = a1\n 20872: a1 = u64 [s1 + 0x80]\n 20876: u64 [a2 + 0xb8] = a1\n 20880: a1 = s1 + 0x1680\n 20884: a3 = u64 [s1 + 0x88]\n 20888: u64 [a2 + 0xc0] = a3\n 20892: u64 [s1 + 0x158] = a0\n 20896: ra = 820, jump @12\n      : @708 [@dyn 410] (gas: 3)\n 20902: a0 = s1 + 0x1660\n 20906: a1 = 0x40\n 20909: ra = 822, jump @10\n      : @709 [@dyn 411] (gas: 14)\n 20915: t0 = s1 + 0x10d8\n 20919: a1 = t0 + 0x500\n 20923: a3 = u64 [a1 + 0xa0]\n 20927: a5 = u64 [a1 + 0x98]\n 20931: a4 = u64 [a1 + 0x90]\n 20935: a0 = u64 [a1 + 0x88]\n 20939: a2 = a4 | a3\n 20942: a1 = a0 | a5\n 20945: a1 = a1 | a2\n 20948: a1 = a1 >> 0x20\n 20951: a2 = a2 | a5\n 20954: a2 = a2 << 0x20\n 20957: a1 = a1 | a2\n 20960: jump @747 if a1 != 0\n      : @710 (gas: 10)\n 20964: u64 [t0 + 1408] = 0\n 20968: u64 [t0 + 1400] = 0\n 20972: u64 [t0 + 1392] = 0\n 20976: u64 [s1 + 0x88] = a3\n 20980: a1 = s1 + 0x1640\n 20984: u64 [t0 + 1384] = 0x20\n 20989: u64 [s1 + 0x98] = a0\n 20993: u64 [s1 + 0x90] = a4\n 20997: u64 [s1 + 0x80] = a5\n 21001: ra = 824, jump @12\n      : @711 [@dyn 412] (gas: 3)\n 21007: a0 = s1 + 0x1620\n 21011: a1 = u64 [s1 + 0xa8]\n 21015: ra = 826, jump @10\n      : @712 [@dyn 413] (gas: 11)\n 21021: t0 = u64 [s1 + 0x80]\n 21025: a3 = u64 [s1 + 0x88]\n 21029: a1 = u64 [s1 + 0x98]\n 21033: a5 = t0 | a3\n 21036: a4 = 0x100000000\n 21046: a0 = 0xffffffe0\n 21056: a0 = a1 <u a0\n 21059: a2 = u64 [s1 + 0x90]\n 21063: a0 = 0 if a2 != 0\n 21065: a0 = 0 if a5 != 0\n 21067: jump @747 if a0 == 0\n      : @713 (gas: 3)\n 21071: t0 = 0x33c\n 21075: a2 = s1 + 0x10d8\n 21079: fallthrough\n      : @714 [@dyn 414] (gas: 20)\n 21080: a3 = a2 + 0x500\n 21084: a0 = u64 [a3 + 0x60]\n 21087: u64 [s1 + 0x128] = a0\n 21091: a0 = u64 [a3 + 0x58]\n 21094: u64 [s1 + 0x140] = a0\n 21098: a0 = u64 [a3 + 0x50]\n 21101: u64 [s1 + 0x148] = a0\n 21105: a0 = u64 [a3 + 0x48]\n 21108: u64 [s1 + 0x150] = a0\n 21112: i32 a1 = a1 + 0\n 21114: u64 [s1 + 0x78] = a1\n 21117: i32 a0 = a1 + 0x20\n 21120: u64 [a2 + 1344] = 0\n 21124: u64 [a2 + 1336] = 0\n 21128: u64 [a3 + 40] = 0x40\n 21132: a1 = s1 + 0x1600\n 21136: u64 [a2 + 1328] = 0\n 21140: u64 [s1 + 0x138] = a5\n 21144: u64 [s1 + 0x130] = a4\n 21148: ra = 830, jump @12\n      : @715 [@dyn 415] (gas: 33)\n 21154: a0 = u64 [s1 + 0x98]\n 21158: a0 = a0 + 0x60\n 21161: a1 = u64 [s1 + 0x98]\n 21165: a1 = a0 <u a1\n 21168: a2 = u64 [s1 + 0x90]\n 21172: a2 = a2 + a1\n 21175: a3 = u64 [s1 + 0x90]\n 21179: a3 = a2 <u a3\n 21182: a3 = a1 if a1 == 0\n 21185: a1 = u64 [s1 + 0x80]\n 21189: a3 = a3 + a1\n 21192: a1 = a3 <u a1\n 21195: a4 = u64 [s1 + 0x88]\n 21199: a4 = a4 + a1\n 21202: a1 = s1 + 0x10d8\n 21206: a5 = a1 + 0x400\n 21210: u64 [a5 + 0xd0] = a2\n 21214: u64 [a5 + 0xc8] = a0\n 21218: a0 = u64 [s1 + 0x128]\n 21222: u64 [a1 + 0x500] = a0\n 21226: a0 = u64 [s1 + 0x140]\n 21230: u64 [a5 + 0xf8] = a0\n 21234: a0 = u64 [s1 + 0x148]\n 21238: u64 [a5 + 0xf0] = a0\n 21242: a0 = u64 [s1 + 0x150]\n 21246: u64 [a5 + 0xe8] = a0\n 21250: u64 [a5 + 0xd8] = a3\n 21254: a3 = a1\n 21256: a0 = s1 + 0x15e0\n 21260: a1 = s1 + 0x15c0\n 21264: a2 = s1 + 0x15a0\n 21268: u64 [a3 + 0x4e0] = a4\n 21272: ra = 832, jump @1057\n      : @716 [@dyn 416] (gas: 13)\n 21278: a1 = s1 + 0x10d8\n 21282: a2 = a1 + 0x500\n 21286: a0 = u64 [a2 + 0x20]\n 21289: u64 [s1 + 0x140] = a0\n 21293: a0 = u64 [a2 + 0x18]\n 21296: u64 [s1 + 0x148] = a0\n 21300: a0 = u64 [a2 + 0x10]\n 21303: u64 [s1 + 0x150] = a0\n 21307: a0 = u64 [a2 + 0x8]\n 21310: u64 [s1 + 0x110] = a0\n 21314: a0 = s1 + 0x1580\n 21318: a1 = u64 [s1 + 0x158]\n 21322: ra = 834, jump @10\n      : @717 [@dyn 417] (gas: 9)\n 21328: a3 = u64 [s1 + 0x90]\n 21332: a5 = u64 [s1 + 0x98]\n 21336: a0 = u64 [s1 + 0x130]\n 21340: a0 = a0 + 0xffffffffffffffc0\n 21343: a0 = a5 <u a0\n 21346: a0 = 0 if a3 != 0\n 21348: a1 = u64 [s1 + 0x138]\n 21352: a0 = 0 if a1 != 0\n 21354: jump @747 if a0 == 0\n      : @718 (gas: 51)\n 21358: t1 = s1 + 0x10d8\n 21362: a0 = u64 [t1 + 0x4c0]\n 21366: u64 [s1 + 0x138] = a0\n 21370: a0 = u64 [t1 + 0x4b8]\n 21374: u64 [s1 + 0x130] = a0\n 21378: a1 = u64 [s1 + 0x110]\n 21382: a2 = a1 <u a5\n 21385: a4 = u64 [s1 + 0x150]\n 21389: t0 = a4 ^ a3\n 21392: a0 = a4 <u a3\n 21395: a0 = a2 if t0 == 0\n 21398: t2 = u64 [s1 + 0x148]\n 21402: t0 = u64 [s1 + 0x80]\n 21406: t1 = t2 - t0\n 21409: a3 = a4 - a3\n 21412: a4 = a3 - a2\n 21415: a3 = a1 - a5\n 21418: ra = a3 + 0xffffffffffffffe0\n 21421: a5 = ra <u a3\n 21424: a3 = a4 + a5\n 21427: a3 = a3 + 0xffffffffffffffff\n 21430: a1 = a3 ^ a4\n 21433: a4 = a3 <u a4\n 21436: a4 = a5 if a1 == 0\n 21439: a1 = t2 <u t0\n 21442: a5 = u64 [s1 + 0x140]\n 21446: a2 = u64 [s1 + 0x88]\n 21450: a5 = a5 - a2\n 21453: a5 = a5 - a1\n 21456: a1 = t1 <u a0\n 21459: a5 = a5 - a1\n 21462: a2 = s1 + 0x10d8\n 21466: a1 = u64 [a2 + 0x4b0]\n 21470: u64 [s1 + 0x128] = a1\n 21474: a0 = t1 - a0\n 21477: a1 = a0 <u 0x1\n 21480: a5 = a5 - a1\n 21483: a1 = u64 [a2 + 0x4a8]\n 21487: u64 [s1 + 0x158] = a1\n 21491: a0 = a0 + 0xffffffffffffffff\n 21494: a4 = a4 + a0\n 21497: a0 = a4 <u a0\n 21500: a5 = a5 + a0\n 21503: a0 = u64 [s1 + 0x78]\n 21506: i32 a0 = a0 + 0x40\n 21509: u64 [a2 + 0x488] = ra\n 21513: u64 [a2 + 0x490] = a3\n 21517: u64 [a2 + 0x498] = a4\n 21521: a1 = s1 + 0x1560\n 21525: u64 [a2 + 0x4a0] = a5\n 21529: ra = 836, jump @12\n      : @719 [@dyn 418] (gas: 13)\n 21535: a5 = s1 + 0x100\n 21539: a1 = u64 [a5 + 0x58]\n 21542: a3 = u64 [a5 + 0x28]\n 21545: a2 = u64 [a5 + 0x30]\n 21548: a0 = a1 | a2\n 21551: a4 = u64 [a5 + 0x38]\n 21554: a4 = a4 | a3\n 21557: a0 = a0 | a4\n 21560: a0 = a0 >> 0x20\n 21563: a4 = a4 | a2\n 21566: a4 = a4 << 0x20\n 21569: a0 = a0 | a4\n 21572: jump @747 if a0 != 0\n      : @720 (gas: 2)\n 21576: a0 = s1 + 0x1540\n 21580: ra = 838, jump @10\n      : @721 [@dyn 419] (gas: 13)\n 21586: a5 = s1 + 0x100\n 21590: a2 = u64 [a5 + 0x48]\n 21593: a4 = u64 [a5 + 0x10]\n 21596: a0 = a4 | a2\n 21599: a1 = u64 [a5 + 0x40]\n 21602: a3 = u64 [a5 + 0x50]\n 21605: a1 = a1 | a3\n 21608: a0 = a0 | a1\n 21611: a0 = a0 >> 0x20\n 21614: a1 = a1 | a2\n 21617: a1 = a1 << 0x20\n 21620: a0 = a0 | a1\n 21623: jump @747 if a0 != 0\n      : @722 (gas: 18)\n 21627: a3 = a4\n 21629: a0 = s1 + 0x10d8\n 21633: a2 = u64 [a0 + 0x480]\n 21637: a1 = u64 [a0 + 0x478]\n 21641: a4 = u64 [a0 + 0x470]\n 21645: a5 = u64 [a0 + 0x468]\n 21649: u64 [s1 + 0xa0] = a5\n 21653: u64 [a0 + 0x448] = a5\n 21657: u64 [s1 + 0xa8] = a4\n 21661: a5 = a0 + 0x400\n 21665: u64 [a5 + 0x50] = a4\n 21668: u64 [s1 + 0xb0] = a1\n 21672: u64 [a5 + 0x58] = a1\n 21675: a1 = s1 + 0x1520\n 21679: u64 [s1 + 0xb8] = a2\n 21683: u64 [a5 + 0x60] = a2\n 21686: a0 = a3\n 21688: ra = 840, jump @12\n      : @723 [@dyn 420] (gas: 8)\n 21694: a5 = u64 [s1 + 0x110]\n 21698: a2 = 0\n 21700: a3 = 0\n 21702: t2 = 0\n 21704: ra = 0\n 21706: a0 = 0xffffffe0\n 21716: u64 [s1 + 0x108] = a0\n 21720: fallthrough\n      : @724 (gas: 32)\n 21721: t0 = a5 + 0x20\n 21724: a0 = u64 [s1 + 0xa0]\n 21728: u64 [s1 + 0x100] = a2\n 21732: a0 = a2 <u a0\n 21735: a2 = u64 [s1 + 0xa8]\n 21739: a1 = a3 ^ a2\n 21742: u64 [s1 + 0xf8] = a3\n 21746: a2 = a3 <u a2\n 21749: a2 = a0 if a1 == 0\n 21752: t1 = u64 [s1 + 0xb0]\n 21756: a0 = t2 <u t1\n 21759: a3 = u64 [s1 + 0xb8]\n 21763: a1 = ra ^ a3\n 21766: u64 [s1 + 0xf0] = ra\n 21770: a3 = ra <u a3\n 21773: a3 = a0 if a1 == 0\n 21776: a0 = t2 ^ t1\n 21779: a0 = a0 | a1\n 21782: u64 [s1 + 0x120] = t0\n 21786: a4 = a5\n 21788: a5 = t0 <u a5\n 21791: a3 = a2 if a0 == 0\n 21794: a0 = u64 [s1 + 0x150]\n 21798: a1 = a0 + a5\n 21801: a0 = a1 <u a0\n 21804: a0 = a5 if a5 == 0\n 21807: a2 = u64 [s1 + 0x148]\n 21811: a5 = a2 + a0\n 21814: a0 = a5 <u a2\n 21817: a2 = u64 [s1 + 0x140]\n 21821: a0 = a0 + a2\n 21824: jump @791 if a3 == 0\n      : @725 (gas: 16)\n 21828: u64 [s1 + 0xc8] = a0\n 21832: u64 [s1 + 0xd0] = a5\n 21836: u64 [s1 + 0xe0] = a1\n 21840: u64 [s1 + 0xe8] = t2\n 21844: a5 = s1 + 0x100\n 21848: u64 [a5 + 0x10] = a4\n 21851: a0 = u64 [a5 + 0x38]\n 21854: a1 = u64 [a5 + 0x30]\n 21857: a0 = a0 | a1\n 21860: a2 = u64 [a5 + 0x58]\n 21863: a1 = u64 [a5 + 0x8]\n 21866: a1 = a2 <u a1\n 21869: a3 = u64 [a5 + 0x28]\n 21872: a1 = 0 if a3 != 0\n 21874: a1 = 0 if a0 != 0\n 21876: jump @747 if a1 == 0\n      : @726 (gas: 5)\n 21880: a1 = a2 + 0x20\n 21883: a0 = s1 + 0x1500\n 21887: u64 [s1 + 0x118] = a1\n 21891: u64 [s1 + 0x158] = a2\n 21895: ra = 842, jump @10\n      : @727 [@dyn 421] (gas: 11)\n 21901: a3 = s1 + 0x100\n 21905: a0 = u64 [a3 + 0x48]\n 21908: a1 = u64 [a3 + 0x40]\n 21911: a0 = a0 | a1\n 21914: a1 = u64 [a3 + 0x10]\n 21917: a2 = u64 [a3 + 0x8]\n 21920: a1 = a1 <u a2\n 21923: a2 = u64 [a3 + 0x50]\n 21926: a1 = 0 if a2 != 0\n 21928: a1 = 0 if a0 != 0\n 21930: jump @747 if a1 == 0\n      : @728 (gas: 32)\n 21934: a0 = u64 [s1 + 0x118]\n 21938: a1 = u64 [s1 + 0x158]\n 21942: a0 = a0 <u a1\n 21945: a1 = u64 [s1 + 0x128]\n 21949: a2 = a1 + a0\n 21952: u64 [s1 + 0x110] = a2\n 21956: a1 = a2 <u a1\n 21959: a1 = a0 if a0 == 0\n 21962: a0 = u64 [s1 + 0x130]\n 21966: a1 = a1 + a0\n 21969: u64 [s1 + 0xc0] = a1\n 21973: a0 = a1 <u a0\n 21976: a4 = s1 + 0x10d8\n 21980: a1 = u64 [a4 + 0x438]\n 21984: a2 = u64 [a4 + 0x430]\n 21988: a3 = u64 [a4 + 0x428]\n 21992: a5 = u64 [s1 + 0x138]\n 21996: a5 = a5 + a0\n 21999: u64 [s1 + 0x138] = a5\n 22003: a0 = u64 [s1 + 0xd8]\n 22007: a0 = a0 & a1\n 22010: a5 = 0xffffffffffffffff\n 22013: a1 = a2 & a5\n 22016: a2 = a3 & a5\n 22019: u64 [a4 + 1056] = 0\n 22023: a3 = a4 + 0x400\n 22027: u64 [a3 + 0x8] = a2\n 22030: u64 [a3 + 0x10] = a1\n 22033: a1 = s1 + 0x14e0\n 22037: u64 [a3 + 0x18] = a0\n 22040: a0 = u64 [s1 + 0x120]\n 22044: ra = 844, jump @12\n      : @729 [@dyn 422] (gas: 27)\n 22050: a4 = s1 + 0x100\n 22054: a2 = u64 [a4]\n 22056: a2 = a2 + 0x1\n 22059: a0 = a2 <u 0x1\n 22062: a3 = u64 [s1 + 0xf8]\n 22066: a3 = a3 + a0\n 22069: a0 = a2 | a3\n 22072: a0 = a0 <u 0x1\n 22075: a1 = u64 [s1 + 0xe8]\n 22079: t2 = a1 + a0\n 22082: a1 = t2 <u a1\n 22085: ra = u64 [s1 + 0xf0]\n 22089: ra = ra + a1\n 22092: a5 = u64 [a4 + 0x20]\n 22095: a1 = u64 [s1 + 0xe0]\n 22099: u64 [a4 + 0x50] = a1\n 22102: a1 = u64 [s1 + 0xd0]\n 22106: u64 [a4 + 0x48] = a1\n 22109: a1 = u64 [s1 + 0xc8]\n 22113: u64 [a4 + 0x40] = a1\n 22116: a1 = u64 [a4 + 0x18]\n 22119: u64 [a4 + 0x58] = a1\n 22122: a1 = u64 [a4 + 0x10]\n 22125: u64 [a4 + 0x28] = a1\n 22128: a1 = u64 [s1 + 0xc0]\n 22132: u64 [a4 + 0x30] = a1\n 22135: jump @724\n      : @730 (gas: 3)\n 22138: a0 = s1 + 0x2220\n 22142: a1 = 0x40\n 22145: ra = 846, jump @10\n      : @731 [@dyn 423] (gas: 14)\n 22151: a2 = s1 + 0x20d8\n 22155: t0 = u64 [a2 + 0x160]\n 22159: a1 = a2 + 0x100\n 22163: a5 = u64 [a1 + 0x58]\n 22166: a3 = u64 [a1 + 0x50]\n 22169: a0 = u64 [a1 + 0x48]\n 22172: a4 = a3 | t0\n 22175: a1 = a0 | a5\n 22178: a1 = a1 | a4\n 22181: a1 = a1 >> 0x20\n 22184: a4 = a4 | a5\n 22187: a4 = a4 << 0x20\n 22190: a1 = a1 | a4\n 22193: jump @747 if a1 != 0\n      : @732 (gas: 11)\n 22197: u64 [a2 + 312] = 0\n 22201: u64 [a2 + 304] = 0\n 22205: u64 [a2 + 296] = 0\n 22209: a4 = 0x8c379a000000000\n 22219: a1 = s1 + 0x2200\n 22223: u64 [a2 + 0x140] = a4\n 22227: u64 [s1 + 0x158] = a3\n 22231: u64 [s1 + 0x150] = a0\n 22235: u64 [s1 + 0x140] = t0\n 22239: u64 [s1 + 0x148] = a5\n 22243: ra = 848, jump @12\n      : @733 [@dyn 424] (gas: 1)\n 22249: t0 = 850, jump @1206\n      : @734 [@dyn 425] (gas: 1)\n 22255: jump @747 if a0 == 0\n      : @735 (gas: 6)\n 22259: i32 a0 = a2 + 0\n 22261: u64 [s1 + 0x138] = a0\n 22265: i32 a0 = a0 + 0x4\n 22268: t0 = 0x354\n 22272: a2 = s1 + 0x20d8\n 22276: fallthrough\n      : @736 [@dyn 426] (gas: 8)\n 22277: u64 [a2 + 288] = 0\n 22281: u64 [a2 + 280] = 0\n 22285: u64 [a2 + 264] = 0x20\n 22290: a1 = s1 + 0x21e0\n 22294: u64 [a2 + 272] = 0\n 22298: u64 [s1 + 0x148] = a3\n 22302: u64 [s1 + 0x140] = a4\n 22306: ra = 854, jump @12\n      : @737 [@dyn 427] (gas: 1)\n 22312: t0 = 856, jump @1214\n      : @738 [@dyn 428] (gas: 1)\n 22318: jump @747 if a0 == 0\n      : @739 (gas: 9)\n 22322: a0 = u64 [s1 + 0x138]\n 22326: i32 a0 = a0 + 0x24\n 22329: a4 = s1 + 0x20d8\n 22333: u64 [a4 + 256] = 0\n 22337: u64 [a4 + 248] = 0\n 22341: u64 [a4 + 232] = 0xf\n 22346: a1 = s1 + 0x21c0\n 22350: u64 [a4 + 240] = 0\n 22354: ra = 858, jump @12\n      : @740 [@dyn 429] (gas: 1)\n 22360: t0 = 860, jump @1208\n      : @741 [@dyn 430] (gas: 1)\n 22366: jump @747 if a0 == 0\n      : @742 (gas: 12)\n 22370: a0 = u64 [s1 + 0x138]\n 22374: i32 a0 = a0 + 0x44\n 22377: a1 = u64 [0x20090]\n 22382: a2 = u64 [0x20098]\n 22387: a3 = s1 + 0x20d8\n 22391: u64 [a3 + 0xe0] = a1\n 22395: a4 = 0\n 22397: u64 [a3 + 208] = 0\n 22401: u64 [a3 + 0xd8] = a2\n 22405: a1 = s1 + 0x21a0\n 22409: u64 [a3 + 200] = 0\n 22413: ra = 862, jump @12\n      : @743 [@dyn 431] (gas: 3)\n 22419: a1 = 0x64\n 22422: a0 = u64 [s1 + 0x138]\n 22426: ra = 864, jump @0\n      : @744 [@dyn 432] (gas: 5)\n 22432: i32 a1 = a0 + 0\n 22434: a0 = 0x1\n 22437: a2 = 0x64\n 22440: ecalli 8 // 'seal_return'\n 22442: fallthrough\n      : @745 (gas: 30)\n 22443: t0 = u64 [s1 + 0xf0]\n 22447: t2 = u64 [s1 + 0x150]\n 22451: ra = t2 <u t0\n 22454: a5 = u64 [s1 + 0xe8]\n 22458: a1 = u64 [s1 + 0x148]\n 22462: a3 = a1 ^ a5\n 22465: a2 = a1 <u a5\n 22468: a2 = ra if a3 == 0\n 22471: a3 = u64 [s1 + 0xb0]\n 22475: a4 = u64 [s1 + 0x140]\n 22479: a0 = a4 - a3\n 22482: t1 = a4 <u a3\n 22485: a4 = u64 [s1 + 0xe0]\n 22489: a3 = u64 [s1 + 0x158]\n 22493: a4 = a3 - a4\n 22496: a4 = a4 - t1\n 22499: a3 = a0 <u a2\n 22502: a4 = a4 - a3\n 22505: a0 = a0 - a2\n 22508: a2 = a1 - a5\n 22511: a2 = a2 - ra\n 22514: a5 = t2 - t0\n 22517: a2 = a2 | a4\n 22520: a3 = a5 | a0\n 22523: a3 = a3 | a2\n 22526: a1 = a2 | a0\n 22529: a3 = a3 >> 0x20\n 22532: a1 = a1 << 0x20\n 22535: a1 = a1 | a3\n 22538: jump @747 if a1 != 0\n      : @746 (gas: 1)\n 22541: jump @1021\n      : @747 (gas: 1)\n 22544: trap\n      : @748 (gas: 4)\n 22545: a0 = t0 | a0\n 22548: a2 = u64 [s1 + 0xe0]\n 22552: a0 = a0 | a2\n 22555: jump @761 if a0 != 0\n      : @749 (gas: 5)\n 22559: u64 [s1 + 312] = 0\n 22563: u64 [s1 + 320] = 0\n 22567: u64 [s1 + 336] = 0\n 22571: u64 [s1 + 328] = 0\n 22575: jump @764\n      : @750 (gas: 7)\n 22578: a4 = u64 [s1 + 0xb0]\n 22582: a5 = u64 [s1 + 0xd0]\n 22586: a4 = a4 ^ a5\n 22589: a5 = u64 [s1 + 0x88]\n 22593: a4 = a4 | a5\n 22596: a4 = a4 | a0\n 22599: jump @760 if a4 == 0\n      : @751 (gas: 20)\n 22603: t2 = a3\n 22605: a0 = u64 [s1 + 0x158]\n 22609: a4 = a1 <u a0\n 22612: a3 = ra + a4\n 22615: a0 = a3 ^ t2\n 22618: a5 = a3 <u t2\n 22621: a5 = a4 if a0 == 0\n 22624: a5 = a5 + a2\n 22627: a4 = a5 <u a2\n 22630: a2 = a2 <u t0\n 22633: a0 = t1 + a2\n 22636: a0 = a0 + a4\n 22639: a2 = a1 | a5\n 22642: a0 = a0 | a3\n 22645: a2 = a2 | a0\n 22648: a2 = a2 >> 0x20\n 22651: a0 = a0 | a5\n 22654: a0 = a0 << 0x20\n 22657: a0 = a0 | a2\n 22660: jump @747 if a0 != 0\n      : @752 (gas: 2)\n 22663: a0 = s1 + 0x2ac0\n 22667: ra = 866, jump @10\n      : @753 [@dyn 433] (gas: 12)\n 22673: a0 = s1 + 0x28d8\n 22677: a1 = u64 [a0 + 0x200]\n 22681: u64 [s1 + 0x130] = a1\n 22685: a2 = a0 + 0x100\n 22689: a1 = u64 [a2 + 0xf8]\n 22693: u64 [s1 + 0x128] = a1\n 22697: a1 = u64 [a2 + 0xf0]\n 22701: u64 [s1 + 0x120] = a1\n 22705: a0 = u64 [a2 + 0xe8]\n 22709: u64 [s1 + 0x118] = a0\n 22713: a0 = u64 [s1 + 0xb0]\n 22717: t0 = 868, jump @1244\n      : @754 [@dyn 434] (gas: 1)\n 22723: ra = 870, jump @1260\n      : @755 [@dyn 435] (gas: 6)\n 22729: u64 [s1 + 0x110] = a0\n 22733: u64 [s1 + 0xf8] = a1\n 22737: a0 = 0xffffffffffffffff\n 22740: a1 = 0xffffffffffffffff\n 22743: a2 = u64 [s1 + 0x158]\n 22747: ra = 872, jump @1255\n      : @756 [@dyn 436] (gas: 1)\n 22753: t0 = 874, jump @1234\n      : @757 [@dyn 437] (gas: 1)\n 22759: ra = 876, jump @1255\n      : @758 [@dyn 438] (gas: 1)\n 22765: t0 = 878, jump @1207\n      : @759 [@dyn 439] (gas: 17)\n 22771: a4 = u64 [s1 + 0x140]\n 22775: a5 = s1 + 0x28d8\n 22779: u64 [a5 + 0x1e0] = a4\n 22783: a4 = u64 [s1 + 0x138]\n 22787: u64 [a5 + 0x1d8] = a4\n 22791: a4 = u64 [s1 + 0x148]\n 22795: u64 [a5 + 0x1d0] = a4\n 22799: a4 = u64 [s1 + 0x150]\n 22803: u64 [a5 + 0x1c8] = a4\n 22807: a4 = a5 + 0x100\n 22811: u64 [a4 + 0xc0] = a3\n 22815: u64 [a4 + 0xb8] = a1\n 22819: u64 [a4 + 0xb0] = a0\n 22823: a0 = s1 + 0x2aa0\n 22827: a1 = s1 + 0x2a80\n 22831: u64 [a4 + 0xa8] = a2\n 22835: ra = 880, jump @16\n      : @760 [@dyn 440] (gas: 12)\n 22841: a0 = u64 [s1 + 0x60]\n 22844: a2 = u64 [s1 + 0x50]\n 22847: a2 = a2 | a0\n 22850: a0 = u64 [s1 + 0x68]\n 22853: a1 = u64 [s1 + 0x58]\n 22856: a0 = a0 | a1\n 22859: a1 = u64 [s1 + 0x48]\n 22862: a3 = u64 [s1 + 0x40]\n 22865: a1 = a1 | a3\n 22868: a3 = u64 [s1 + 0x70]\n 22871: a3 = a3 + 0x1\n 22874: jump @768\n      : @761 (gas: 10)\n 22877: a0 = u64 [s1 + 0xf0]\n 22881: a1 = u64 [s1 + 0xe8]\n 22885: a0 = a0 | a1\n 22888: a1 = 0xffffffe0\n 22898: a2 = u64 [s1 + 0xd8]\n 22902: a1 = a2 <u a1\n 22905: a3 = u64 [s1 + 0xf8]\n 22909: a1 = 0 if a3 != 0\n 22911: a1 = 0 if a0 != 0\n 22913: jump @747 if a1 == 0\n      : @762 (gas: 3)\n 22917: i32 a1 = a2 + 0x20\n 22920: a0 = s1 + 0x2b00\n 22924: ra = 882, jump @10\n      : @763 [@dyn 441] (gas: 13)\n 22930: a0 = s1 + 0x28d8\n 22934: a2 = a0 + 0x200\n 22938: a1 = u64 [a2 + 0x40]\n 22941: a3 = s1 + 0x100\n 22945: u64 [a3 + 0x48] = a1\n 22948: a1 = u64 [a2 + 0x38]\n 22951: u64 [a3 + 0x50] = a1\n 22954: a1 = u64 [a2 + 0x30]\n 22957: u64 [a3 + 0x40] = a1\n 22960: a0 = u64 [a2 + 0x28]\n 22963: u64 [a3 + 0x38] = a0\n 22966: t0 = u64 [s1 + 0xb0]\n 22970: fallthrough\n      : @764 (gas: 6)\n 22971: a1 = t0 << 0x3\n 22974: u64 [s1 + 0x158] = a1\n 22978: i32 a2 = 0x80 - a1\n 22982: a0 = 0xffffffffffffffff\n 22985: a1 = 0xffffffffffffffff\n 22988: ra = 884, jump @1260\n      : @765 [@dyn 442] (gas: 7)\n 22994: u64 [s1 + 0x130] = a0\n 22998: u64 [s1 + 0x118] = a1\n 23002: a0 = u64 [s1 + 0xb0]\n 23006: i32 a2 = a0 << 0x3\n 23009: a0 = 0xffffffffffffffff\n 23012: a1 = 0xffffffffffffffff\n 23015: ra = 886, jump @1255\n      : @766 [@dyn 443] (gas: 10)\n 23021: u64 [s1 + 0x120] = a0\n 23025: u64 [s1 + 0x128] = a1\n 23029: a0 = u64 [s1 + 0x118]\n 23033: a0 = a0 | a1\n 23036: u64 [s1 + 0x118] = a0\n 23040: a0 = u64 [s1 + 0x158]\n 23044: i32 a2 = a0 + 0xffffffffffffff80\n 23047: a0 = 0xffffffffffffffff\n 23050: a1 = 0xffffffffffffffff\n 23053: ra = 888, jump @1255\n      : @767 [@dyn 444] (gas: 37)\n 23059: a4 = u64 [s1 + 0x158]\n 23063: a2 = a4 <u 0x80\n 23067: a3 = u64 [s1 + 0x118]\n 23071: a1 = a3 if a2 != 0\n 23074: a5 = u64 [s1 + 0x120]\n 23078: a3 = u64 [s1 + 0x130]\n 23082: a3 = a3 | a5\n 23085: a3 = a0 if a2 == 0\n 23088: a1 = 0xffffffffffffffff if a4 == 0\n 23091: a3 = 0xffffffffffffffff if a4 == 0\n 23094: a5 = 0 if a2 == 0\n 23096: t1 = a5\n 23098: a5 = u64 [s1 + 0x128]\n 23102: a5 = 0 if a2 == 0\n 23104: a0 = u64 [s1 + 0x60]\n 23107: a2 = u64 [s1 + 0x50]\n 23110: t0 = a2 | a0\n 23113: a0 = u64 [s1 + 0x48]\n 23116: a4 = u64 [s1 + 0x40]\n 23119: a4 = a4 | a0\n 23122: a0 = u64 [s1 + 0x68]\n 23125: a2 = u64 [s1 + 0x58]\n 23128: a2 = a2 | a0\n 23131: a0 = u64 [s1 + 0x138]\n 23135: t2 = a0 & ~a3\n 23138: a0 = u64 [s1 + 0x140]\n 23142: a3 = a0 & ~a1\n 23145: a0 = u64 [s1 + 0x148]\n 23149: a1 = a0 & ~a5\n 23152: a0 = u64 [s1 + 0x150]\n 23156: a0 = a0 & ~t1\n 23159: a0 = a0 | a2\n 23162: a1 = a1 | a4\n 23165: a2 = a3 | t0\n 23168: a4 = u64 [s1 + 0x70]\n 23171: a3 = t2 | a4\n 23174: fallthrough\n      : @768 (gas: 17)\n 23175: a4 = s1 + 0x28d8\n 23179: a5 = a4 + 0x100\n 23183: u64 [a5 + 0x68] = a3\n 23186: a3 = u64 [s1 + 0x90]\n 23190: u64 [a5 + 0x88] = a3\n 23194: u64 [a5 + 0x70] = a2\n 23197: a2 = u64 [s1 + 0x98]\n 23201: u64 [a5 + 0x90] = a2\n 23205: u64 [a5 + 0x78] = a0\n 23208: a0 = u64 [s1 + 0xa0]\n 23212: u64 [a5 + 0x98] = a0\n 23216: u64 [a5 + 0x80] = a1\n 23220: a0 = s1 + 0x2a60\n 23224: a1 = s1 + 0x2a40\n 23228: a2 = u64 [s1 + 0xa8]\n 23232: u64 [a5 + 0xa0] = a2\n 23236: ra = 890, jump @16\n      : @769 [@dyn 445] (gas: 3)\n 23242: a0 = s1 + 0x2a20\n 23246: a1 = u64 [s1 + 0x80]\n 23250: ra = 892, jump @10\n      : @770 [@dyn 446] (gas: 17)\n 23256: a0 = s1 + 0x28d8\n 23260: a5 = a0 + 0x100\n 23264: a3 = u64 [a5 + 0x60]\n 23267: a4 = u64 [a5 + 0x58]\n 23270: a2 = u64 [a5 + 0x50]\n 23273: a1 = u64 [a5 + 0x48]\n 23276: u64 [s1 + 0xf8] = a2\n 23280: u64 [s1 + 0xf0] = a3\n 23284: a0 = a2 | a3\n 23287: a2 = a1 | a4\n 23290: a2 = a2 | a0\n 23293: a2 = a2 >> 0x20\n 23296: u64 [s1 + 0xe8] = a4\n 23300: a0 = a0 | a4\n 23303: a0 = a0 << 0x20\n 23306: a0 = a0 | a2\n 23309: jump @747 if a0 != 0\n      : @771 (gas: 3)\n 23313: a0 = s1 + 0x2a00\n 23317: u64 [s1 + 0xe0] = a1\n 23321: ra = 894, jump @10\n      : @772 [@dyn 447] (gas: 19)\n 23327: t0 = s1 + 0x28d8\n 23331: a0 = t0 + 0x100\n 23335: a5 = u64 [a0 + 0x40]\n 23338: a4 = u64 [a0 + 0x38]\n 23341: a1 = u64 [a0 + 0x30]\n 23344: a0 = a5 >u 0\n 23346: a3 = a4 >u 0\n 23348: a3 = a0 if a5 != 0\n 23351: u64 [s1 + 0xb0] = a1\n 23355: a0 = a1 >u 0\n 23357: u64 [s1 + 0x88] = a4\n 23361: u64 [s1 + 0x80] = a5\n 23365: a1 = a4 | a5\n 23368: a2 = s1 + 0x100\n 23372: u64 [a2 + 0x48] = a0\n 23375: u64 [a2 + 0x58] = a3\n 23378: u64 [a2 + 0x50] = a1\n 23381: a0 = a3 if a1 != 0\n 23384: jump @774 if a0 == 0\n      : @773 (gas: 1)\n 23387: jump @1023\n      : @774 (gas: 27)\n 23390: a0 = u64 [s1 + 0x90]\n 23394: a3 = a0 + 0x1\n 23397: a0 = a3 <u 0x1\n 23400: a1 = u64 [s1 + 0x98]\n 23404: a1 = a1 + a0\n 23407: a0 = a3 | a1\n 23410: a4 = a1\n 23412: u64 [s1 + 0x98] = a1\n 23416: u64 [s1 + 0x90] = a3\n 23420: a0 = a0 <u 0x1\n 23423: a1 = u64 [t0 + 0x128]\n 23427: u64 [s1 + 0xd0] = a1\n 23431: a1 = u64 [s1 + 0xa0]\n 23435: a5 = a1 + a0\n 23438: u64 [s1 + 0x70] = a5\n 23441: a0 = a5 <u a1\n 23444: a1 = u64 [s1 + 0xa8]\n 23448: a2 = a1 + a0\n 23451: u64 [s1 + 0xa8] = a2\n 23455: a0 = t0\n 23457: u64 [a0 + 0xe8] = a3\n 23461: u64 [a0 + 0xf0] = a4\n 23465: u64 [a0 + 0xf8] = a5\n 23469: a0 = s1 + 0x29e0\n 23473: a1 = s1 + 0x29c0\n 23477: u64 [t0 + 0x100] = a2\n 23481: ra = 896, jump @14\n      : @775 [@dyn 448] (gas: 13)\n 23487: a4 = s1 + 0x28d8\n 23491: a5 = a4 + 0x100\n 23495: a2 = u64 [a5 + 0x8]\n 23498: a0 = u64 [a5 + 0x10]\n 23501: a1 = u64 [a5 + 0x18]\n 23504: a3 = u64 [a5 + 0x20]\n 23507: u64 [a4 + 0xc0] = a3\n 23511: u64 [a4 + 0xb8] = a1\n 23515: u64 [a4 + 0xb0] = a0\n 23519: a0 = s1 + 0x29a0\n 23523: a1 = s1 + 0x2980\n 23527: u64 [a4 + 0xa8] = a2\n 23531: ra = 898, jump @1075\n      : @776 [@dyn 449] (gas: 29)\n 23537: a4 = s1 + 0x28d8\n 23541: a0 = u64 [a4 + 0xc8]\n 23545: a1 = u64 [a4 + 0xd0]\n 23549: a2 = u64 [a4 + 0xd8]\n 23553: a3 = u64 [a4 + 0xe0]\n 23557: u64 [a4 + 0x80] = a3\n 23561: a3 = u64 [s1 + 0x80]\n 23565: u64 [a4 + 0x60] = a3\n 23568: a3 = u64 [s1 + 0x88]\n 23572: u64 [a4 + 0x58] = a3\n 23575: a3 = u64 [s1 + 0xb0]\n 23579: u64 [a4 + 0x50] = a3\n 23582: a3 = u64 [s1 + 0xd0]\n 23586: u64 [a4 + 0x48] = a3\n 23589: u64 [a4 + 0x78] = a2\n 23592: u64 [a4 + 0x70] = a1\n 23595: u64 [a4 + 0x68] = a0\n 23598: a0 = u64 [s1 + 0xa8]\n 23602: u64 [a4 + 0xa0] = a0\n 23606: a0 = u64 [s1 + 0x70]\n 23609: u64 [a4 + 0x98] = a0\n 23613: a0 = u64 [s1 + 0x98]\n 23617: u64 [a4 + 0x90] = a0\n 23621: a0 = s1 + 0x2960\n 23625: a1 = s1 + 0x2940\n 23629: a2 = s1 + 0x2920\n 23633: a3 = u64 [s1 + 0x90]\n 23637: u64 [a4 + 0x88] = a3\n 23641: ra = 900, jump @1152\n      : @777 [@dyn 450] (gas: 11)\n 23647: a1 = u64 [s1 + 0xd0]\n 23651: a0 = a1 <u 0x20\n 23654: a0 = a0 ^ 0x1\n 23657: a5 = s1 + 0x100\n 23661: a2 = u64 [a5 + 0x48]\n 23664: a4 = u64 [s1 + 0xb0]\n 23668: a0 = a2 if a4 != 0\n 23671: a2 = u64 [a5 + 0x58]\n 23674: a3 = u64 [a5 + 0x50]\n 23677: a0 = a2 if a3 != 0\n 23680: jump @789 if a0 == 0\n      : @778 (gas: 14)\n 23684: a1 = a1 & 0xffffffffffffffe0\n 23687: u64 [s1 + 0xd8] = a1\n 23691: a0 = s1 + 0x28d8\n 23695: a1 = u64 [s1 + 0x90]\n 23699: u64 [a0 + 0x8] = a1\n 23702: a1 = u64 [s1 + 0x98]\n 23706: u64 [a0 + 0x10] = a1\n 23709: a1 = u64 [s1 + 0x70]\n 23712: u64 [a0 + 0x18] = a1\n 23715: a1 = s1 + 0x28e0\n 23719: a2 = u64 [s1 + 0xa8]\n 23723: u64 [a0 + 0x20] = a2\n 23726: a0 = 0\n 23728: ra = 902, jump @12\n      : @779 [@dyn 451] (gas: 3)\n 23734: a1 = 0x20\n 23737: a0 = 0\n 23739: ra = 904, jump @0\n      : @780 [@dyn 452] (gas: 4)\n 23745: a1 = sp + 0xffffffffffffffe0\n 23748: a1 = a1 & 0xffffffffffffffe0\n 23751: u64 [s1 + 0x150] = a1\n 23755: t0 = 906, jump @1215\n      : @781 [@dyn 453] (gas: 25)\n 23761: ecalli 6 // 'hash_keccak_256'\n 23763: u64 [s1 + 344] = 0x20\n 23768: t0 = 0\n 23770: t2 = 0\n 23772: ra = 0\n 23774: u64 [s1 + 304] = 0\n 23778: t1 = 0\n 23780: a5 = 0\n 23782: a4 = s1 + 0x100\n 23786: a3 = u64 [a4 + 0x50]\n 23789: a0 = u64 [a3]\n 23791: a1 = u64 [a3 + 0x8]\n 23794: a2 = u64 [a3 + 0x10]\n 23797: a3 = u64 [a3 + 0x18]\n 23800: a0 = reverse a0\n 23802: u64 [a4 + 0x40] = a0\n 23805: a0 = reverse a1\n 23807: u64 [a4 + 0x38] = a0\n 23810: a0 = reverse a2\n 23812: a2 = 0\n 23814: u64 [a4 + 0x48] = a0\n 23817: a0 = reverse a3\n 23819: a3 = u64 [a4 + 0x30]\n 23822: u64 [a4 + 0x50] = a0\n 23825: fallthrough\n      : @782 (gas: 20)\n 23826: a0 = u64 [s1 + 0xd8]\n 23830: u64 [s1 + 0x130] = a3\n 23834: a0 = a3 <u a0\n 23837: a4 = a0 ^ 0x1\n 23840: u64 [s1 + 0x118] = t1\n 23844: a4 = 0x1 if t1 != 0\n 23847: u64 [s1 + 0x128] = a5\n 23851: u64 [s1 + 0x120] = a2\n 23855: a0 = a2 | a5\n 23858: a4 = 0x1 if a0 != 0\n 23861: a1 = u64 [s1 + 0xe0]\n 23865: t1 = u64 [s1 + 0x158]\n 23869: a1 = a1 + t1\n 23872: a3 = u64 [s1 + 0xf8]\n 23876: a3 = a3 + t0\n 23879: a2 = u64 [s1 + 0xe8]\n 23883: a2 = a2 + t2\n 23886: a0 = u64 [s1 + 0xf0]\n 23890: a0 = a0 + ra\n 23893: jump @793 if a4 != 0\n      : @783 (gas: 9)\n 23897: u64 [s1 + 0x110] = ra\n 23901: a4 = a1 <u t1\n 23904: a3 = a3 + a4\n 23907: a5 = t0\n 23909: t0 = a3 ^ t0\n 23912: u64 [s1 + 0x108] = a5\n 23916: a5 = a3 <u a5\n 23919: a5 = a4 if t0 == 0\n 23922: t0 = 908, jump @1218\n      : @784 [@dyn 454] (gas: 1)\n 23928: jump @747 if a0 != 0\n      : @785 (gas: 2)\n 23932: a0 = s1 + 0x2700\n 23936: ra = 910, jump @10\n      : @786 [@dyn 455] (gas: 22)\n 23942: a4 = s1 + 0x20d8\n 23946: a5 = a4 + 0x600\n 23950: a0 = u64 [a5 + 0x28]\n 23953: a1 = u64 [a5 + 0x30]\n 23956: a2 = u64 [a5 + 0x38]\n 23959: a3 = u64 [a5 + 0x40]\n 23962: u64 [a5] = a3\n 23964: a3 = a4 + 0x500\n 23968: u64 [a3 + 0xf8] = a2\n 23972: u64 [a3 + 0xf0] = a1\n 23976: u64 [a3 + 0xe8] = a0\n 23980: a0 = u64 [s1 + 0x140]\n 23984: u64 [a5 + 0x20] = a0\n 23987: a0 = u64 [s1 + 0x138]\n 23991: u64 [a5 + 0x18] = a0\n 23994: a0 = u64 [s1 + 0x148]\n 23998: u64 [a5 + 0x10] = a0\n 24001: a0 = s1 + 0x26e0\n 24005: a1 = s1 + 0x26c0\n 24009: a2 = u64 [s1 + 0x150]\n 24013: u64 [a5 + 0x8] = a2\n 24016: ra = 912, jump @16\n      : @787 [@dyn 456] (gas: 1)\n 24022: t0 = 914, jump @1212\n      : @788 [@dyn 457] (gas: 36)\n 24028: t0 = a1 + a0\n 24031: a1 = t0 <u a1\n 24034: a0 = u64 [s1 + 0x140]\n 24038: a0 = a0 + a1\n 24041: u64 [s1 + 0x140] = a0\n 24045: a0 = u64 [s1 + 0x158]\n 24049: t1 = a0 + 0x20\n 24052: a3 = t1 <u a0\n 24055: a0 = u64 [s1 + 0x108]\n 24059: t2 = a0 + a3\n 24062: a4 = t2 <u a0\n 24065: a4 = a3 if a3 == 0\n 24068: a0 = u64 [s1 + 0x100]\n 24072: a4 = a4 + a0\n 24075: a3 = a4 <u a0\n 24078: ra = u64 [s1 + 0x110]\n 24082: ra = ra + a3\n 24085: a0 = u64 [s1 + 0x130]\n 24089: a3 = a0 + 0x20\n 24092: a5 = a3 <u a0\n 24095: a1 = u64 [s1 + 0x118]\n 24099: a0 = a1 + a5\n 24102: a1 = a0 <u a1\n 24105: a1 = a5 if a5 == 0\n 24108: a2 = u64 [s1 + 0x120]\n 24112: a1 = a1 + a2\n 24115: a5 = a1 <u a2\n 24118: a2 = u64 [s1 + 0x128]\n 24122: a5 = a5 + a2\n 24125: u64 [s1 + 0x138] = t0\n 24129: u64 [s1 + 0x158] = t1\n 24133: t0 = t2\n 24135: t2 = a4\n 24137: t1 = a0\n 24139: a2 = a1\n 24141: jump @782\n      : @789 (gas: 6)\n 24144: a0 = u64 [s1 + 0x88]\n 24148: a0 = a0 | a1\n 24151: a1 = u64 [s1 + 0x80]\n 24155: a1 = a1 | a4\n 24158: a0 = a0 | a1\n 24161: jump @805 if a0 != 0\n      : @790 (gas: 5)\n 24165: u64 [s1 + 304] = 0\n 24169: u64 [s1 + 312] = 0\n 24173: u64 [s1 + 328] = 0\n 24177: u64 [s1 + 320] = 0\n 24181: jump @808\n      : @791 (gas: 27)\n 24184: t1 = u64 [s1 + 0x98]\n 24188: t2 = u64 [s1 + 0x120]\n 24192: ra = t2 <u t1\n 24195: a4 = u64 [s1 + 0x90]\n 24199: a3 = a1 ^ a4\n 24202: a2 = a1 <u a4\n 24205: a2 = ra if a3 == 0\n 24208: a3 = u64 [s1 + 0x80]\n 24212: t0 = a5 - a3\n 24215: a3 = a5 <u a3\n 24218: a5 = u64 [s1 + 0x88]\n 24222: a0 = a0 - a5\n 24225: a5 = t0 <u a2\n 24228: a3 = a3 + a5\n 24231: a3 = a0 - a3\n 24234: a5 = t0 - a2\n 24237: a2 = a1 - a4\n 24240: a2 = a2 - ra\n 24243: a0 = t2 - t1\n 24246: a2 = a2 | a3\n 24249: a3 = a0 | a5\n 24252: a3 = a3 | a2\n 24255: a1 = a2 | a5\n 24258: a3 = a3 >> 0x20\n 24261: a1 = a1 << 0x20\n 24264: a1 = a1 | a3\n 24267: jump @747 if a1 != 0\n      : @792 (gas: 5)\n 24271: i32 a1 = a0 + 0\n 24273: u64 [s1 + 0x158] = a1\n 24277: a0 = u64 [s1 + 0x78]\n 24280: ra = 0x4ec\n 24284: jump @0\n      : @793 (gas: 11)\n 24287: ra = t0\n 24289: a4 = u64 [s1 + 0xd0]\n 24293: a5 = u64 [s1 + 0xd8]\n 24297: a4 = a4 ^ a5\n 24300: a5 = u64 [s1 + 0x88]\n 24304: t0 = a4 | a5\n 24307: a5 = u64 [s1 + 0x80]\n 24311: a4 = u64 [s1 + 0xb0]\n 24315: a5 = a5 | a4\n 24318: a4 = t0 | a5\n 24321: jump @804 if a4 == 0\n      : @794 (gas: 6)\n 24325: a4 = a1 <u t1\n 24328: a3 = a3 + a4\n 24331: t0 = a3 ^ ra\n 24334: a5 = a3 <u ra\n 24337: a5 = a4 if t0 == 0\n 24340: t0 = 916, jump @1226\n      : @795 [@dyn 458] (gas: 1)\n 24346: jump @747 if a0 != 0\n      : @796 (gas: 2)\n 24350: a0 = s1 + 0x28c0\n 24354: ra = 918, jump @10\n      : @797 [@dyn 459] (gas: 12)\n 24360: a0 = s1 + 0x28d8\n 24364: a1 = u64 [a0]\n 24366: u64 [s1 + 0x130] = a1\n 24370: a2 = a0 + 0xffffffffffffff00\n 24374: a1 = u64 [a2 + 0xf8]\n 24378: u64 [s1 + 0x128] = a1\n 24382: a1 = u64 [a2 + 0xf0]\n 24386: u64 [s1 + 0x120] = a1\n 24390: a0 = u64 [a2 + 0xe8]\n 24394: u64 [s1 + 0x118] = a0\n 24398: a0 = u64 [s1 + 0xd0]\n 24402: t0 = 920, jump @1244\n      : @798 [@dyn 460] (gas: 1)\n 24408: ra = 922, jump @1260\n      : @799 [@dyn 461] (gas: 6)\n 24414: u64 [s1 + 0x110] = a0\n 24418: u64 [s1 + 0xf8] = a1\n 24422: a0 = 0xffffffffffffffff\n 24425: a1 = 0xffffffffffffffff\n 24428: a2 = u64 [s1 + 0x158]\n 24432: ra = 924, jump @1255\n      : @800 [@dyn 462] (gas: 1)\n 24438: t0 = 926, jump @1234\n      : @801 [@dyn 463] (gas: 1)\n 24444: ra = 928, jump @1255\n      : @802 [@dyn 464] (gas: 1)\n 24450: t0 = 930, jump @1207\n      : @803 [@dyn 465] (gas: 17)\n 24456: a4 = s1 + 0x20d8\n 24460: a5 = u64 [s1 + 0x140]\n 24464: u64 [a4 + 0x7e0] = a5\n 24468: a5 = u64 [s1 + 0x138]\n 24472: u64 [a4 + 0x7d8] = a5\n 24476: a5 = u64 [s1 + 0x148]\n 24480: u64 [a4 + 0x7d0] = a5\n 24484: a5 = u64 [s1 + 0x150]\n 24488: u64 [a4 + 0x7c8] = a5\n 24492: a5 = a4 + 0x700\n 24496: u64 [a5 + 0xc0] = a3\n 24500: u64 [a5 + 0xb8] = a1\n 24504: u64 [a5 + 0xb0] = a0\n 24508: a0 = s1 + 0x28a0\n 24512: a1 = s1 + 0x2880\n 24516: u64 [a5 + 0xa8] = a2\n 24520: ra = 932, jump @16\n      : @804 [@dyn 466] (gas: 16)\n 24526: a4 = u64 [s1 + 0xd0]\n 24530: a0 = a4 >> 0x3f\n 24533: a2 = u64 [s1 + 0xb0]\n 24537: a1 = a2 << 0x1\n 24540: a1 = a1 | a0\n 24543: a0 = a2 >> 0x3f\n 24546: a3 = u64 [s1 + 0x88]\n 24550: a2 = a3 << 0x1\n 24553: a0 = a0 | a2\n 24556: a2 = a3 >> 0x3f\n 24559: a3 = u64 [s1 + 0x80]\n 24563: a3 = a3 << 0x1\n 24566: a2 = a2 | a3\n 24569: a3 = a4 << 0x1\n 24572: a3 = a3 + 0x1\n 24575: jump @812\n      : @805 (gas: 10)\n 24578: a0 = u64 [s1 + 0xf0]\n 24582: a1 = u64 [s1 + 0xe8]\n 24586: a0 = a0 | a1\n 24589: a1 = 0xffffffe0\n 24599: a2 = u64 [s1 + 0xe0]\n 24603: a1 = a2 <u a1\n 24606: a2 = u64 [s1 + 0xf8]\n 24610: a1 = 0 if a2 != 0\n 24612: a1 = 0 if a0 != 0\n 24614: jump @747 if a1 == 0\n      : @806 (gas: 4)\n 24618: a0 = u64 [s1 + 0xe0]\n 24622: i32 a1 = a0 + 0x20\n 24625: a0 = s1 + 0x2900\n 24629: ra = 934, jump @10\n      : @807 [@dyn 467] (gas: 11)\n 24635: a0 = s1 + 0x28d8\n 24639: a1 = u64 [a0 + 0x40]\n 24642: a2 = s1 + 0x100\n 24646: u64 [a2 + 0x40] = a1\n 24649: a1 = u64 [a0 + 0x38]\n 24652: u64 [a2 + 0x48] = a1\n 24655: a1 = u64 [a0 + 0x30]\n 24658: u64 [a2 + 0x38] = a1\n 24661: a0 = u64 [a0 + 0x28]\n 24664: u64 [a2 + 0x30] = a0\n 24667: fallthrough\n      : @808 (gas: 7)\n 24668: a0 = u64 [s1 + 0xd0]\n 24672: a1 = a0 << 0x3\n 24675: u64 [s1 + 0x150] = a1\n 24679: i32 a2 = 0x80 - a1\n 24683: a0 = 0xffffffffffffffff\n 24686: a1 = 0xffffffffffffffff\n 24689: ra = 936, jump @1260\n      : @809 [@dyn 468] (gas: 7)\n 24695: u64 [s1 + 0x128] = a0\n 24699: u64 [s1 + 0x118] = a1\n 24703: a0 = u64 [s1 + 0xd0]\n 24707: i32 a2 = a0 << 0x3\n 24710: a0 = 0xffffffffffffffff\n 24713: a1 = 0xffffffffffffffff\n 24716: ra = 938, jump @1255\n      : @810 [@dyn 469] (gas: 10)\n 24722: u64 [s1 + 0x158] = a0\n 24726: u64 [s1 + 0x120] = a1\n 24730: a0 = u64 [s1 + 0x118]\n 24734: a0 = a0 | a1\n 24737: u64 [s1 + 0x118] = a0\n 24741: a0 = u64 [s1 + 0x150]\n 24745: i32 a2 = a0 + 0xffffffffffffff80\n 24748: a0 = 0xffffffffffffffff\n 24751: a1 = 0xffffffffffffffff\n 24754: ra = 940, jump @1255\n      : @811 [@dyn 470] (gas: 44)\n 24760: a4 = u64 [s1 + 0x150]\n 24764: a3 = a4 <u 0x80\n 24768: a2 = u64 [s1 + 0x118]\n 24772: a1 = a2 if a3 != 0\n 24775: a5 = u64 [s1 + 0x158]\n 24779: a2 = u64 [s1 + 0x128]\n 24783: a2 = a2 | a5\n 24786: a2 = a0 if a3 == 0\n 24789: a1 = 0xffffffffffffffff if a4 == 0\n 24792: a2 = 0xffffffffffffffff if a4 == 0\n 24795: a5 = 0 if a3 == 0\n 24797: u64 [s1 + 0x158] = a5\n 24801: t0 = u64 [s1 + 0x120]\n 24805: t0 = 0 if a3 == 0\n 24807: t2 = u64 [s1 + 0xd0]\n 24811: a0 = t2 >> 0x3f\n 24814: t1 = u64 [s1 + 0xb0]\n 24818: a3 = t1 << 0x1\n 24821: a0 = a0 | a3\n 24824: u64 [s1 + 0x150] = a0\n 24828: a0 = u64 [s1 + 0x80]\n 24832: a0 = a0 << 0x1\n 24835: a5 = u64 [s1 + 0x88]\n 24839: a4 = a5 >> 0x3f\n 24842: ra = a0 | a4\n 24845: a0 = t1 >> 0x3f\n 24848: a5 = a5 << 0x1\n 24851: a5 = a5 | a0\n 24854: a0 = u64 [s1 + 0x130]\n 24858: a3 = a0 & ~a2\n 24861: a0 = u64 [s1 + 0x138]\n 24865: a1 = a0 & ~a1\n 24868: a0 = u64 [s1 + 0x140]\n 24872: a2 = a0 & ~t0\n 24875: a0 = u64 [s1 + 0x148]\n 24879: a4 = u64 [s1 + 0x158]\n 24883: a0 = a0 & ~a4\n 24886: a0 = a0 | a5\n 24889: a2 = a2 | ra\n 24892: a4 = u64 [s1 + 0x150]\n 24896: a1 = a1 | a4\n 24899: a4 = t2 << 0x1\n 24902: a3 = a3 | a4\n 24905: fallthrough\n      : @812 (gas: 17)\n 24906: a4 = s1 + 0x20d8\n 24910: a5 = a4 + 0x700\n 24914: u64 [a5 + 0x68] = a3\n 24917: a3 = u64 [s1 + 0x90]\n 24921: u64 [a5 + 0x88] = a3\n 24925: u64 [a5 + 0x70] = a1\n 24928: a1 = u64 [s1 + 0x98]\n 24932: u64 [a5 + 0x90] = a1\n 24936: u64 [a5 + 0x78] = a0\n 24939: a0 = u64 [s1 + 0x70]\n 24942: u64 [a5 + 0x98] = a0\n 24946: u64 [a5 + 0x80] = a2\n 24950: a0 = s1 + 0x2860\n 24954: a1 = s1 + 0x2840\n 24958: a2 = u64 [s1 + 0xa8]\n 24962: u64 [a5 + 0xa0] = a2\n 24966: ra = 942, jump @16\n      : @813 [@dyn 471] (gas: 3)\n 24972: a0 = s1 + 0x2820\n 24976: a1 = 0x40\n 24979: ra = 944, jump @10\n      : @814 [@dyn 472] (gas: 19)\n 24985: a2 = s1 + 0x20d8\n 24989: a5 = a2 + 0x700\n 24993: a3 = u64 [a5 + 0x60]\n 24996: a4 = u64 [a5 + 0x58]\n 24999: a0 = u64 [a5 + 0x50]\n 25002: a1 = u64 [a5 + 0x48]\n 25005: a5 = s1 + 0x100\n 25009: u64 [a5 + 0x50] = a0\n 25012: u64 [a5 + 0x48] = a3\n 25015: a0 = a0 | a3\n 25018: u64 [a5 + 0x58] = a1\n 25021: a1 = a1 | a4\n 25024: a1 = a1 | a0\n 25027: a1 = a1 >> 0x20\n 25030: u64 [a5 + 0x40] = a4\n 25033: a0 = a0 | a4\n 25036: a0 = a0 << 0x20\n 25039: a0 = a0 | a1\n 25042: jump @747 if a0 != 0\n      : @815 (gas: 7)\n 25046: u64 [a2 + 1856] = 0\n 25050: u64 [a2 + 1848] = 0\n 25054: u64 [a2 + 1840] = 0\n 25058: a1 = s1 + 0x2800\n 25062: u64 [a2 + 1832] = 0x40\n 25067: a0 = u64 [s1 + 0x158]\n 25071: ra = 946, jump @12\n      : @816 [@dyn 473] (gas: 14)\n 25077: a3 = s1 + 0x100\n 25081: a0 = u64 [a3 + 0x48]\n 25084: a2 = u64 [a3 + 0x40]\n 25087: a2 = a2 | a0\n 25090: a0 = 0x100000000\n 25100: u64 [a3 + 0x40] = a0\n 25103: a0 = 0xffffffc0\n 25113: a1 = u64 [a3 + 0x58]\n 25116: a0 = a1 <u a0\n 25119: a1 = u64 [a3 + 0x50]\n 25122: a0 = 0 if a1 != 0\n 25124: u64 [a3 + 0x48] = a2\n 25127: a0 = 0 if a2 != 0\n 25129: jump @747 if a0 == 0\n      : @817 (gas: 5)\n 25133: a0 = u64 [s1 + 0x158]\n 25137: i32 a0 = a0 + 0x40\n 25140: t0 = 0x3b4\n 25144: a2 = s1 + 0x20d8\n 25148: fallthrough\n      : @818 [@dyn 474] (gas: 6)\n 25149: u64 [a2 + 1824] = 0\n 25153: u64 [a2 + 1816] = 0\n 25157: u64 [a2 + 1800] = 0x8\n 25162: a1 = s1 + 0x27e0\n 25166: u64 [a2 + 1808] = 0\n 25170: ra = 950, jump @12\n      : @819 [@dyn 475] (gas: 4)\n 25176: a2 = s1 + 0x100\n 25180: a0 = u64 [a2 + 0x40]\n 25183: a0 = a0 + 0xffffffffffffffa0\n 25186: t0 = 952, jump @1217\n      : @820 [@dyn 476] (gas: 1)\n 25192: jump @747 if a0 == 0\n      : @821 (gas: 5)\n 25196: a0 = u64 [s1 + 0x158]\n 25200: i32 a0 = a0 + 0x60\n 25203: t0 = 0x3ba\n 25207: a2 = s1 + 0x20d8\n 25211: fallthrough\n      : @822 [@dyn 477] (gas: 7)\n 25212: u64 [a2 + 1784] = 0\n 25216: u64 [a2 + 1776] = 0\n 25220: a1 = u64 [s1 + 0xb8]\n 25224: u64 [a2 + 0x700] = a1\n 25228: a1 = s1 + 0x27c0\n 25232: u64 [a2 + 1768] = 0\n 25236: ra = 956, jump @12\n      : @823 [@dyn 478] (gas: 5)\n 25242: a0 = u64 [s1 + 0x158]\n 25246: i32 a0 = a0 + 0x20\n 25249: t0 = 0x3be\n 25253: a2 = s1 + 0x20d8\n 25257: fallthrough\n      : @824 [@dyn 479] (gas: 6)\n 25258: u64 [a2 + 1760] = 0\n 25262: u64 [a2 + 1752] = 0\n 25266: u64 [a2 + 1736] = 0x80\n 25272: a1 = s1 + 0x27a0\n 25276: u64 [a2 + 1744] = 0\n 25280: ra = 960, jump @12\n      : @825 [@dyn 480] (gas: 5)\n 25286: a0 = 0x100000000\n 25296: a2 = s1 + 0x100\n 25300: u64 [a2 + 0x40] = a0\n 25303: a0 = 0xffffff80\n 25313: t0 = 962, jump @1217\n      : @826 [@dyn 481] (gas: 1)\n 25319: jump @747 if a0 == 0\n      : @827 (gas: 5)\n 25323: a0 = u64 [s1 + 0x158]\n 25327: i32 a0 = a0 + 0x80\n 25331: t0 = 0x3c4\n 25335: a2 = s1 + 0x20d8\n 25339: fallthrough\n      : @828 [@dyn 482] (gas: 6)\n 25340: u64 [a2 + 1728] = 0\n 25344: u64 [a2 + 1720] = 0\n 25348: u64 [a2 + 1704] = 0x3\n 25353: a1 = s1 + 0x2780\n 25357: u64 [a2 + 1712] = 0\n 25361: ra = 966, jump @12\n      : @829 [@dyn 483] (gas: 4)\n 25367: a2 = s1 + 0x100\n 25371: a0 = u64 [a2 + 0x40]\n 25374: a0 = a0 + 0xffffffffffffff60\n 25378: t0 = 968, jump @1217\n      : @830 [@dyn 484] (gas: 1)\n 25384: jump @747 if a0 == 0\n      : @831 (gas: 5)\n 25388: a0 = u64 [s1 + 0x158]\n 25392: i32 a0 = a0 + 0xa0\n 25396: t0 = 0x3ca\n 25400: a2 = s1 + 0x20d8\n 25404: fallthrough\n      : @832 [@dyn 485] (gas: 7)\n 25405: u64 [a2 + 1688] = 0\n 25409: u64 [a2 + 1680] = 0\n 25413: a1 = 0x4450540000000000\n 25423: u64 [a2 + 0x6a0] = a1\n 25427: a1 = s1 + 0x2760\n 25431: u64 [a2 + 1672] = 0\n 25435: ra = 972, jump @12\n      : @833 [@dyn 486] (gas: 47)\n 25441: a0 = u64 [s1 + 0x78]\n 25444: a4 = s1 + 0x20d8\n 25448: a5 = a4 + 0x600\n 25452: u64 [a5 + 0x58] = a0\n 25455: a0 = u64 [s1 + 0xc0]\n 25459: u64 [a5 + 0x50] = a0\n 25462: a0 = u64 [s1 + 0xc8]\n 25466: u64 [a5 + 0x48] = a0\n 25469: a0 = u64 [0x20060]\n 25474: a1 = u64 [0x20068]\n 25479: a2 = u64 [0x20070]\n 25484: a3 = u64 [0x20078]\n 25489: u64 [a5 + 0x80] = a0\n 25493: u64 [a5 + 0x78] = a1\n 25496: u64 [a5 + 0x70] = a2\n 25499: u64 [a5 + 0x68] = a3\n 25502: a2 = s1 + 0x2740\n 25506: a3 = s1 + 0x2720\n 25510: u64 [a4 + 1632] = 0\n 25514: a0 = u64 [s1 + 0x158]\n 25518: ra = 0x3ce\n 25522: sp = sp + 0xffffffffffffff60\n 25526: u64 [sp + 0x98] = ra\n 25530: u64 [sp + 0x90] = s0\n 25534: u64 [sp + 0x88] = s1\n 25538: s0 = sp + 0xa0\n 25542: sp = sp & 0xffffffffffffffe0\n 25545: a4 = u64 [a3]\n 25547: u64 [sp + 0x38] = a4\n 25550: a4 = u64 [a3 + 0x8]\n 25553: u64 [sp + 0x28] = a4\n 25556: a4 = u64 [a3 + 0x10]\n 25559: u64 [sp + 0x20] = a4\n 25562: a3 = u64 [a3 + 0x18]\n 25565: u64 [sp + 0x18] = a3\n 25568: a3 = u64 [a2]\n 25570: u64 [sp + 0x10] = a3\n 25573: a3 = u64 [a2 + 0x8]\n 25576: u64 [sp + 0x8] = a3\n 25579: a3 = u64 [a2 + 0x10]\n 25582: u64 [sp] = a3\n 25584: s1 = u64 [a2 + 0x18]\n 25587: i32 a0 = a0 + 0\n 25589: a1 = 0xc0\n 25593: u64 [sp + 0x30] = a1\n 25596: ra = 0xa\n 25599: jump @0\n      : @834 [@dyn 487] (gas: 1)\n 25602: jump @1004\n      : @835 (gas: 8)\n 25605: a0 = u64 [s1 + 0x38]\n 25608: a1 = u64 [s1 + 0x50]\n 25611: a0 = a0 | a1\n 25614: a1 = u64 [s1 + 0x48]\n 25617: a2 = u64 [s1 + 0x40]\n 25620: a1 = a1 | a2\n 25623: a0 = a0 | a1\n 25626: jump @847 if a0 != 0\n      : @836 (gas: 5)\n 25630: u64 [s1 + 272] = 0\n 25634: u64 [s1 + 280] = 0\n 25638: u64 [s1 + 288] = 0\n 25642: u64 [s1 + 296] = 0\n 25646: jump @850\n      : @837 (gas: 11)\n 25649: ra = t0\n 25651: a4 = u64 [s1 + 0x50]\n 25654: a5 = u64 [s1 + 0xd8]\n 25658: a4 = a4 ^ a5\n 25661: a5 = u64 [s1 + 0x38]\n 25664: t0 = a4 | a5\n 25667: a5 = u64 [s1 + 0x48]\n 25670: a4 = u64 [s1 + 0x40]\n 25673: a5 = a5 | a4\n 25676: a4 = t0 | a5\n 25679: jump @846 if a4 == 0\n      : @838 (gas: 6)\n 25683: a4 = a1 <u t1\n 25686: a3 = a3 + a4\n 25689: t0 = a3 ^ ra\n 25692: a5 = a3 <u ra\n 25695: a5 = a4 if t0 == 0\n 25698: t0 = 976, jump @1226\n      : @839 [@dyn 488] (gas: 1)\n 25704: jump @747 if a0 != 0\n      : @840 (gas: 3)\n 25708: a0 = s1 + 0x7ff\n 25712: a0 = a0 + 0x121\n 25716: ra = 978, jump @10\n      : @841 [@dyn 489] (gas: 18)\n 25722: a0 = s1 + 0x7ff\n 25726: a0 = a0 + 0xd1\n 25730: a1 = u64 [a0 + 0x68]\n 25733: u64 [s1 + 0x130] = a1\n 25737: a1 = u64 [a0 + 0x60]\n 25740: u64 [s1 + 0x128] = a1\n 25744: a1 = u64 [a0 + 0x58]\n 25747: u64 [s1 + 0x120] = a1\n 25751: a0 = u64 [a0 + 0x50]\n 25754: u64 [s1 + 0x118] = a0\n 25758: a0 = u64 [s1 + 0x50]\n 25761: a0 = a0 << 0x3b\n 25764: a0 = a0 >> 0x38\n 25767: u64 [s1 + 0x158] = a0\n 25771: a2 = a0 + 0xffffffffffffff80\n 25774: a0 = 0xffffffffffffffff\n 25777: a1 = 0xffffffffffffffff\n 25780: ra = 980, jump @1255\n      : @842 [@dyn 490] (gas: 6)\n 25786: u64 [s1 + 0x110] = a0\n 25790: u64 [s1 + 0x108] = a1\n 25794: a0 = 0xffffffffffffffff\n 25797: a1 = 0xffffffffffffffff\n 25800: a2 = u64 [s1 + 0x158]\n 25804: ra = 982, jump @1255\n      : @843 [@dyn 491] (gas: 7)\n 25810: u64 [s1 + 0x100] = a0\n 25814: u64 [s1 + 0xf8] = a1\n 25818: a1 = u64 [s1 + 0x158]\n 25822: a2 = 0x80 - a1\n 25826: a0 = 0xffffffffffffffff\n 25829: a1 = 0xffffffffffffffff\n 25832: ra = 984, jump @1260\n      : @844 [@dyn 492] (gas: 18)\n 25838: a3 = u64 [s1 + 0xf8]\n 25842: a3 = a3 | a1\n 25845: a2 = u64 [s1 + 0x158]\n 25849: a4 = a2 <u 0x80\n 25853: u64 [s1 + 0xf8] = a4\n 25857: a1 = u64 [s1 + 0x108]\n 25861: a3 = a1 if a4 == 0\n 25864: a3 = 0xffffffffffffffff if a2 == 0\n 25867: u64 [s1 + 0x108] = a3\n 25871: a3 = u64 [s1 + 0x100]\n 25875: a3 = a3 | a0\n 25878: a0 = u64 [s1 + 0x110]\n 25882: a3 = a0 if a4 == 0\n 25885: a3 = 0xffffffffffffffff if a2 == 0\n 25888: u64 [s1 + 0x110] = a3\n 25892: a0 = 0xffffffffffffffff\n 25895: a1 = 0xffffffffffffffff\n 25898: ra = 986, jump @1255\n      : @845 [@dyn 493] (gas: 32)\n 25904: a2 = u64 [s1 + 0xf8]\n 25908: a1 = 0 if a2 == 0\n 25910: a0 = 0 if a2 == 0\n 25912: a2 = u64 [s1 + 0x118]\n 25916: a3 = u64 [s1 + 0x110]\n 25920: a2 = a2 & ~a3\n 25923: a3 = u64 [s1 + 0x120]\n 25927: a4 = u64 [s1 + 0x108]\n 25931: a3 = a3 & ~a4\n 25934: a4 = u64 [s1 + 0x128]\n 25938: a0 = a4 & ~a0\n 25941: a4 = u64 [s1 + 0x130]\n 25945: a1 = a4 & ~a1\n 25948: a4 = u64 [s1 + 0x140]\n 25952: a5 = s1 + 0x7ff\n 25956: a5 = a5 + 0xd1\n 25960: u64 [a5 + 0x48] = a4\n 25963: a4 = u64 [s1 + 0x138]\n 25967: u64 [a5 + 0x40] = a4\n 25970: a4 = u64 [s1 + 0x148]\n 25974: u64 [a5 + 0x38] = a4\n 25977: a4 = u64 [s1 + 0x150]\n 25981: u64 [a5 + 0x30] = a4\n 25984: u64 [a5 + 0x28] = a1\n 25987: u64 [a5 + 0x20] = a0\n 25990: u64 [a5 + 0x18] = a3\n 25993: a0 = s1 + 0x7ff\n 25997: a0 = a0 + 0x101\n 26001: a1 = s1 + 0x7ff\n 26005: a1 = a1 + 0xe1\n 26009: u64 [a5 + 0x10] = a2\n 26012: ra = 988, jump @16\n      : @846 [@dyn 494] (gas: 16)\n 26018: a5 = u64 [s1 + 0x50]\n 26021: a0 = a5 >> 0x3f\n 26024: a2 = u64 [s1 + 0x40]\n 26027: a1 = a2 << 0x1\n 26030: a4 = a1 | a0\n 26033: a1 = a2 >> 0x3f\n 26036: a0 = u64 [s1 + 0x38]\n 26039: a2 = a0 << 0x1\n 26042: a1 = a1 | a2\n 26045: a2 = a0 >> 0x3f\n 26048: a3 = u64 [s1 + 0x48]\n 26051: a3 = a3 << 0x1\n 26054: a2 = a2 | a3\n 26057: a3 = a5 << 0x1\n 26060: a3 = a3 + 0x1\n 26063: jump @857\n      : @847 (gas: 10)\n 26066: a0 = u64 [s1 + 0xe8]\n 26070: a1 = u64 [s1 + 0xe0]\n 26074: a0 = a0 | a1\n 26077: a1 = 0xffffffe0\n 26087: a2 = u64 [s1 + 0xf8]\n 26091: a1 = a2 <u a1\n 26094: a2 = u64 [s1 + 0xf0]\n 26098: a1 = 0 if a2 != 0\n 26100: a1 = 0 if a0 != 0\n 26102: jump @747 if a1 == 0\n      : @848 (gas: 5)\n 26106: a0 = u64 [s1 + 0xf8]\n 26110: i32 a1 = a0 + 0x20\n 26113: a0 = s1 + 0x7ff\n 26117: a0 = a0 + 0x161\n 26121: ra = 990, jump @10\n      : @849 [@dyn 495] (gas: 12)\n 26127: a0 = s1 + 0x7ff\n 26131: a0 = a0 + 0xd1\n 26135: a1 = u64 [a0 + 0xa8]\n 26139: a2 = s1 + 0x100\n 26143: u64 [a2 + 0x28] = a1\n 26146: a1 = u64 [a0 + 0xa0]\n 26150: u64 [a2 + 0x20] = a1\n 26153: a1 = u64 [a0 + 0x98]\n 26157: u64 [a2 + 0x18] = a1\n 26160: a0 = u64 [a0 + 0x90]\n 26164: u64 [a2 + 0x10] = a0\n 26167: fallthrough\n      : @850 (gas: 7)\n 26168: a0 = u64 [s1 + 0x50]\n 26171: a0 = a0 << 0x3\n 26174: u64 [s1 + 0x158] = a0\n 26178: i32 a2 = a0 + 0xffffffffffffff80\n 26181: a0 = 0xffffffffffffffff\n 26184: a1 = 0xffffffffffffffff\n 26187: ra = 992, jump @1255\n      : @851 [@dyn 496] (gas: 8)\n 26193: u64 [s1 + 0x148] = a0\n 26197: u64 [s1 + 0x150] = a1\n 26201: a0 = u64 [s1 + 0x50]\n 26204: i32 a2 = a0 << 0x3\n 26207: u64 [s1 + 0x140] = a2\n 26211: a0 = 0xffffffffffffffff\n 26214: a1 = 0xffffffffffffffff\n 26217: ra = 994, jump @1255\n      : @852 [@dyn 497] (gas: 1)\n 26223: t0 = 996, jump @1239\n      : @853 [@dyn 498] (gas: 1)\n 26229: ra = 998, jump @1260\n      : @854 [@dyn 499] (gas: 1)\n 26235: t0 = 1000, jump @1209\n      : @855 [@dyn 500] (gas: 1)\n 26241: ra = 1002, jump @1255\n      : @856 [@dyn 501] (gas: 32)\n 26247: a2 = u64 [s1 + 0x130]\n 26251: a1 = 0 if a2 == 0\n 26253: a0 = 0 if a2 == 0\n 26255: a4 = u64 [s1 + 0x40]\n 26258: a2 = a4 >> 0x3f\n 26261: a5 = u64 [s1 + 0x38]\n 26264: a3 = a5 << 0x1\n 26267: t0 = a3 | a2\n 26270: a2 = a5 >> 0x3f\n 26273: a3 = u64 [s1 + 0x48]\n 26276: a3 = a3 << 0x1\n 26279: t1 = a3 | a2\n 26282: a4 = a4 << 0x1\n 26285: a3 = u64 [s1 + 0x50]\n 26288: a5 = a3 >> 0x3f\n 26291: t2 = a4 | a5\n 26294: a2 = u64 [s1 + 0x110]\n 26298: a4 = u64 [s1 + 0x158]\n 26302: a5 = a2 & ~a4\n 26305: a2 = u64 [s1 + 0x118]\n 26309: a4 = u64 [s1 + 0x150]\n 26313: a4 = a2 & ~a4\n 26316: a2 = u64 [s1 + 0x120]\n 26320: a0 = a2 & ~a0\n 26323: a2 = u64 [s1 + 0x128]\n 26327: a1 = a2 & ~a1\n 26330: a4 = a4 | t2\n 26333: a3 = a3 << 0x1\n 26336: a3 = a3 | a5\n 26339: a2 = a1 | t1\n 26342: a1 = a0 | t0\n 26345: fallthrough\n      : @857 (gas: 25)\n 26346: a0 = s1 + 0x1000\n 26350: u64 [a0 + 0xfffffffffffff8a0] = a3\n 26354: a0 = u64 [s1 + 0x30]\n 26357: a3 = s1 + 0x1000\n 26361: u64 [a3 + 0xfffffffffffff8c0] = a0\n 26365: a0 = s1 + 0x1000\n 26369: u64 [a0 + 0xfffffffffffff8a8] = a4\n 26373: a0 = u64 [s1 + 0x28]\n 26376: a3 = s1 + 0x1000\n 26380: u64 [a3 + 0xfffffffffffff8c8] = a0\n 26384: a0 = s1 + 0x1000\n 26388: u64 [a0 + 0xfffffffffffff8b0] = a1\n 26392: a3 = s1 + 0x7ff\n 26396: a3 = a3 + 0xd1\n 26400: a0 = u64 [s1 + 0x18]\n 26403: u64 [a3] = a0\n 26405: a0 = s1 + 0x1000\n 26409: u64 [a0 + 0xfffffffffffff8b8] = a2\n 26413: a0 = s1 + 0x7ff\n 26417: a0 = a0 + 0xc1\n 26421: a1 = s1 + 0x7ff\n 26425: a1 = a1 + 0xa1\n 26429: a2 = u64 [s1 + 0x20]\n 26432: u64 [a3 + 0x8] = a2\n 26435: ra = 1004, jump @16\n      : @858 [@dyn 502] (gas: 16)\n 26441: a0 = u64 [s1 + 0x78]\n 26444: a1 = s1 + 0x1000\n 26448: u64 [a1 + 0xfffffffffffff898] = a0\n 26452: a0 = u64 [s1 + 0x80]\n 26456: a1 = s1 + 0x1000\n 26460: u64 [a1 + 0xfffffffffffff890] = a0\n 26464: a0 = u64 [s1 + 0x88]\n 26468: a1 = s1 + 0x1000\n 26472: u64 [a1 + 0xfffffffffffff888] = a0\n 26476: a1 = s1 + 0x7ff\n 26480: a1 = a1 + 0x81\n 26484: a0 = u64 [s1 + 0x90]\n 26488: a2 = s1 + 0x1000\n 26492: u64 [a2 + 0xfffffffffffff880] = a0\n 26496: a0 = 0\n 26498: ra = 1006, jump @12\n      : @859 [@dyn 503] (gas: 12)\n 26504: a0 = s1 + 0x1000\n 26508: u64 [a0 + 4294965368] = 0\n 26512: a0 = s1 + 0x1000\n 26516: u64 [a0 + 4294965360] = 0\n 26520: a1 = s1 + 0x1000\n 26524: u64 [a1 + 4294965344] = 0x2\n 26529: a0 = 0x20\n 26532: a1 = s1 + 0x7ff\n 26536: a1 = a1 + 0x61\n 26539: a2 = s1 + 0x1000\n 26543: u64 [a2 + 4294965352] = 0\n 26547: ra = 1008, jump @12\n      : @860 [@dyn 504] (gas: 3)\n 26553: a1 = 0x40\n 26556: a0 = 0\n 26558: ra = 1010, jump @0\n      : @861 [@dyn 505] (gas: 1)\n 26564: t0 = 1012, jump @1202\n      : @862 [@dyn 506] (gas: 4)\n 26570: ra = 0x3f6\n 26574: ecalli 6 // 'hash_keccak_256'\n 26576: t0 = 0x3f8\n 26580: jump @1225\n      : @863 [@dyn 507] (gas: 1)\n 26583: t0 = 1016, jump @1225\n      : @864 [@dyn 508] (gas: 13)\n 26589: a3 = a3 + s1\n 26592: u64 [a3 + 0xfffffffffffff838] = a2\n 26596: a2 = s1 + 0x1000\n 26600: u64 [a2 + 0xfffffffffffff830] = a1\n 26604: a1 = s1 + 0x1000\n 26608: u64 [a1 + 0xfffffffffffff828] = a0\n 26612: a0 = s1 + 0x7ff\n 26616: a0 = a0 + 0x41\n 26619: a1 = s1 + 0x7ff\n 26623: a1 = a1 + 0x21\n 26626: a2 = s1 + 0x1000\n 26630: u64 [a2 + 0xfffffffffffff820] = a4\n 26634: ra = 1018, jump @14\n      : @865 [@dyn 509] (gas: 13)\n 26640: a0 = s1 + 0x1000\n 26644: a0 = u64 [a0 + 0xfffffffffffff858]\n 26648: a1 = s1 + 0x1000\n 26652: a1 = u64 [a1 + 0xfffffffffffff848]\n 26656: a2 = s1 + 0x1000\n 26660: a2 = u64 [a2 + 0xfffffffffffff840]\n 26664: a3 = s1 + 0x1000\n 26668: a3 = u64 [a3 + 0xfffffffffffff850]\n 26672: a0 = a0 | a1\n 26675: a1 = a2 ^ 0x1\n 26678: a1 = a1 | a3\n 26681: a0 = a0 | a1\n 26684: jump @909 if a0 != 0\n      : @866 (gas: 16)\n 26688: a0 = u64 [s1 + 0x90]\n 26692: a1 = s1 + 0x1000\n 26696: u64 [a1 + 0xfffffffffffff800] = a0\n 26700: a0 = u64 [s1 + 0x88]\n 26704: a1 = s1 + 0x1000\n 26708: u64 [a1 + 0xfffffffffffff808] = a0\n 26712: a0 = u64 [s1 + 0x80]\n 26716: a1 = s1 + 0x1000\n 26720: u64 [a1 + 0xfffffffffffff810] = a0\n 26724: a1 = s1 + 0x7ff\n 26728: a1 = a1 + 0x1\n 26731: a0 = u64 [s1 + 0x78]\n 26734: a2 = s1 + 0x1000\n 26738: u64 [a2 + 0xfffffffffffff818] = a0\n 26742: a0 = 0\n 26744: ra = 1020, jump @12\n      : @867 [@dyn 510] (gas: 7)\n 26750: u64 [s1 + 2040] = 0\n 26754: u64 [s1 + 2032] = 0\n 26758: u64 [s1 + 2016] = 0x3\n 26763: a0 = 0x20\n 26766: a1 = s1 + 0x7e0\n 26770: u64 [s1 + 2024] = 0\n 26774: ra = 1022, jump @12\n      : @868 [@dyn 511] (gas: 3)\n 26780: a1 = 0x40\n 26783: a0 = 0\n 26785: ra = 1024, jump @0\n      : @869 [@dyn 512] (gas: 9)\n 26791: a1 = sp + 0xffffffffffffffe0\n 26794: a1 = a1 & 0xffffffffffffffe0\n 26797: sp = a1\n 26799: i32 a0 = a0 + 0\n 26801: u64 [s1 + 0x150] = a1\n 26805: i32 a2 = a1 + 0\n 26807: a1 = 0x40\n 26810: ecalli 6 // 'hash_keccak_256'\n 26812: fallthrough\n      : @870 (gas: 11)\n 26813: a3 = u64 [s1 + 0x58]\n 26816: a0 = a3 >u 0\n 26818: a2 = u64 [s1 + 0x60]\n 26821: a1 = a2 >u 0\n 26823: a1 = a0 if a2 == 0\n 26826: a2 = a2 | a3\n 26829: a0 = u64 [s1 + 0x68]\n 26832: a0 = a0 >u 0\n 26834: u64 [s1 + 0x158] = a2\n 26838: a0 = a1 if a2 != 0\n 26841: jump @872 if a0 == 0\n      : @871 (gas: 1)\n 26844: jump @1025\n      : @872 (gas: 20)\n 26847: a3 = u64 [s1 + 0x150]\n 26851: a0 = u64 [a3]\n 26853: a1 = u64 [a3 + 0x8]\n 26856: a2 = u64 [a3 + 0x10]\n 26859: a3 = u64 [a3 + 0x18]\n 26862: a4 = reverse a0\n 26864: u64 [s1 + 0x110] = a4\n 26868: a1 = reverse a1\n 26870: u64 [s1 + 0x108] = a1\n 26874: a2 = reverse a2\n 26876: u64 [s1 + 0x100] = a2\n 26880: a0 = reverse a3\n 26882: u64 [s1 + 0xf8] = a0\n 26886: u64 [s1 + 0x7a0] = a0\n 26890: u64 [s1 + 0x7a8] = a2\n 26894: u64 [s1 + 0x7b0] = a1\n 26898: a0 = s1 + 0x7c0\n 26902: a1 = s1 + 0x7a0\n 26906: u64 [s1 + 0x7b8] = a4\n 26910: ra = 1026, jump @14\n      : @873 [@dyn 513] (gas: 11)\n 26916: a2 = u64 [s1 + 0x7c0]\n 26920: a0 = u64 [s1 + 0x7c8]\n 26924: a1 = u64 [s1 + 0x7d0]\n 26928: a3 = u64 [s1 + 0x7d8]\n 26932: u64 [s1 + 0x778] = a3\n 26936: u64 [s1 + 0x770] = a1\n 26940: u64 [s1 + 0x768] = a0\n 26944: a0 = s1 + 0x780\n 26948: a1 = s1 + 0x760\n 26952: u64 [s1 + 0x760] = a2\n 26956: ra = 1028, jump @1075\n      : @874 [@dyn 514] (gas: 29)\n 26962: a5 = s1 + 0x700\n 26966: a0 = u64 [a5 + 0x80]\n 26970: a1 = u64 [a5 + 0x88]\n 26974: a2 = u64 [a5 + 0x90]\n 26978: a3 = u64 [a5 + 0x98]\n 26982: a4 = u64 [s1 + 0x60]\n 26985: u64 [a5 + 0x18] = a4\n 26988: a4 = u64 [s1 + 0x58]\n 26991: u64 [a5 + 0x10] = a4\n 26994: a4 = u64 [s1 + 0x68]\n 26997: u64 [a5 + 0x8] = a4\n 27000: a4 = u64 [s1 + 0x70]\n 27003: u64 [a5] = a4\n 27005: u64 [a5 + 0x38] = a3\n 27008: u64 [a5 + 0x30] = a2\n 27011: u64 [a5 + 0x28] = a1\n 27014: u64 [a5 + 0x20] = a0\n 27017: a0 = u64 [s1 + 0x110]\n 27021: u64 [a5 + 0x58] = a0\n 27024: a0 = u64 [s1 + 0x108]\n 27028: u64 [a5 + 0x50] = a0\n 27031: a0 = u64 [s1 + 0x100]\n 27035: u64 [a5 + 0x48] = a0\n 27038: a0 = s1 + 0x740\n 27042: a1 = s1 + 0x720\n 27046: a2 = s1 + 0x700\n 27050: a3 = u64 [s1 + 0xf8]\n 27054: u64 [a5 + 0x40] = a3\n 27057: ra = 1030, jump @1152\n      : @875 [@dyn 515] (gas: 7)\n 27063: a0 = u64 [s1 + 0x70]\n 27066: a0 = a0 <u 0x20\n 27069: a1 = u64 [s1 + 0x68]\n 27072: a0 = 0 if a1 != 0\n 27074: a1 = u64 [s1 + 0x158]\n 27078: a0 = 0 if a1 != 0\n 27080: jump @885 if a0 != 0\n      : @876 (gas: 15)\n 27084: a0 = u64 [s1 + 0x70]\n 27087: a0 = a0 & 0xffffffffffffffe0\n 27090: u64 [s1 + 0x118] = a0\n 27094: a0 = u64 [s1 + 0xf8]\n 27098: a2 = s1 + 0x600\n 27102: u64 [a2 + 0xe0] = a0\n 27106: a0 = u64 [s1 + 0x100]\n 27110: u64 [a2 + 0xe8] = a0\n 27114: a0 = u64 [s1 + 0x108]\n 27118: u64 [a2 + 0xf0] = a0\n 27122: a1 = s1 + 0x6e0\n 27126: a0 = u64 [s1 + 0x110]\n 27130: u64 [a2 + 0xf8] = a0\n 27134: a0 = 0\n 27136: ra = 1032, jump @12\n      : @877 [@dyn 516] (gas: 3)\n 27142: a1 = 0x20\n 27145: a0 = 0\n 27147: ra = 1034, jump @0\n      : @878 [@dyn 517] (gas: 4)\n 27153: a1 = sp + 0xffffffffffffffe0\n 27156: a1 = a1 & 0xffffffffffffffe0\n 27159: u64 [s1 + 0x158] = a1\n 27163: t0 = 1036, jump @1215\n      : @879 [@dyn 518] (gas: 20)\n 27169: ecalli 6 // 'hash_keccak_256'\n 27171: a5 = 0\n 27173: a2 = 0\n 27175: ra = 0\n 27177: t2 = 0\n 27179: a3 = u64 [s1 + 0x158]\n 27183: a0 = u64 [a3]\n 27185: a1 = u64 [a3 + 0x8]\n 27188: a4 = u64 [a3 + 0x10]\n 27191: a3 = u64 [a3 + 0x18]\n 27194: a0 = reverse a0\n 27196: u64 [s1 + 0x148] = a0\n 27200: a0 = reverse a1\n 27202: a1 = s1 + 0x100\n 27206: u64 [a1 + 0x40] = a0\n 27209: a0 = reverse a4\n 27211: u64 [a1 + 0x50] = a0\n 27214: a0 = reverse a3\n 27216: u64 [a1 + 0x58] = a0\n 27219: fallthrough\n      : @880 (gas: 17)\n 27220: a0 = u64 [s1 + 0x118]\n 27224: a0 = a5 <u a0\n 27227: a3 = a0 ^ 0x1\n 27230: a3 = 0x1 if a2 != 0\n 27233: a0 = ra | t2\n 27236: a3 = 0x1 if a0 != 0\n 27239: a4 = u64 [s1 + 0xd0]\n 27243: u64 [s1 + 0x138] = a5\n 27247: t1 = a4 + a5\n 27250: a5 = u64 [s1 + 0xc0]\n 27254: u64 [s1 + 0x130] = a2\n 27258: a2 = a2 + a5\n 27261: a1 = u64 [s1 + 0xc8]\n 27265: a0 = a1 + ra\n 27268: t0 = u64 [s1 + 0xb8]\n 27272: t0 = t0 + t2\n 27275: jump @887 if a3 != 0\n      : @881 (gas: 20)\n 27279: u64 [s1 + 0x120] = ra\n 27283: u64 [s1 + 0x128] = t2\n 27287: a3 = t1 <u a4\n 27290: a2 = a2 + a3\n 27293: a4 = a2 ^ a5\n 27296: a5 = a2 <u a5\n 27299: a5 = a3 if a4 == 0\n 27302: a5 = a5 + a0\n 27305: a3 = a5 <u a0\n 27308: a1 = a0 <u a1\n 27311: a0 = t0 + a1\n 27314: a0 = a0 + a3\n 27317: a1 = t1 | a5\n 27320: a0 = a0 | a2\n 27323: a1 = a1 | a0\n 27326: a1 = a1 >> 0x20\n 27329: a0 = a0 | a5\n 27332: a0 = a0 << 0x20\n 27335: a0 = a0 | a1\n 27338: jump @883 if a0 == 0\n      : @882 (gas: 1)\n 27341: jump @747\n      : @883 (gas: 26)\n 27344: i32 a1 = t1 + 0\n 27346: a0 = s1 + 0x4000\n 27350: i32 a0 = a0 + 0xfffffffffffffac0\n 27354: ecalli 1 // 'call_data_load'\n 27356: a3 = s1 + 0x38d8\n 27360: a4 = a3 + 0x100\n 27364: a0 = u64 [a4 + 0xe8]\n 27368: a1 = u64 [a4 + 0xf0]\n 27372: a2 = u64 [a4 + 0xf8]\n 27376: a3 = u64 [a3 + 0x200]\n 27380: a4 = s1 + 0x200\n 27384: u64 [a4 + 0xd8] = a3\n 27388: u64 [a4 + 0xd0] = a2\n 27392: u64 [a4 + 0xc8] = a1\n 27396: u64 [a4 + 0xc0] = a0\n 27400: a0 = u64 [s1 + 0x148]\n 27404: u64 [a4 + 0xf8] = a0\n 27408: a0 = u64 [s1 + 0x140]\n 27412: u64 [a4 + 0xf0] = a0\n 27416: a0 = u64 [s1 + 0x150]\n 27420: u64 [a4 + 0xe8] = a0\n 27424: a0 = s1 + 0x2e0\n 27428: a1 = s1 + 0x2c0\n 27432: a2 = u64 [s1 + 0x158]\n 27436: u64 [a4 + 0xe0] = a2\n 27440: ra = 1038, jump @16\n      : @884 [@dyn 519] (gas: 33)\n 27446: a5 = s1 + 0x100\n 27450: a2 = u64 [a5 + 0x58]\n 27453: a2 = a2 + 0x1\n 27456: a0 = a2 <u 0x1\n 27459: a1 = u64 [a5 + 0x50]\n 27462: a1 = a1 + a0\n 27465: u64 [a5 + 0x58] = a2\n 27468: u64 [a5 + 0x50] = a1\n 27471: a0 = a2 | a1\n 27474: a0 = a0 <u 0x1\n 27477: a1 = u64 [a5 + 0x40]\n 27480: a0 = a0 + a1\n 27483: a1 = a0 <u a1\n 27486: a2 = u64 [a5 + 0x48]\n 27489: a2 = a2 + a1\n 27492: u64 [a5 + 0x48] = a2\n 27495: a2 = u64 [a5 + 0x38]\n 27498: a1 = a2 + 0x20\n 27501: a2 = a1 <u a2\n 27504: a4 = u64 [a5 + 0x30]\n 27507: a3 = a4 + a2\n 27510: a4 = a3 <u a4\n 27513: a4 = a2 if a2 == 0\n 27516: a2 = u64 [a5 + 0x20]\n 27519: a4 = a4 + a2\n 27522: a2 = a4 <u a2\n 27525: t2 = u64 [s1 + 0x128]\n 27529: t2 = t2 + a2\n 27532: u64 [a5 + 0x40] = a0\n 27535: a5 = a1\n 27537: a2 = a3\n 27539: ra = a4\n 27541: jump @880\n      : @885 (gas: 8)\n 27544: a0 = u64 [s1 + 0x70]\n 27547: a1 = u64 [s1 + 0x58]\n 27550: a0 = a0 | a1\n 27553: a1 = u64 [s1 + 0x60]\n 27556: a2 = u64 [s1 + 0x68]\n 27559: a1 = a1 | a2\n 27562: a0 = a0 | a1\n 27565: jump @898 if a0 != 0\n      : @886 (gas: 5)\n 27569: u64 [s1 + 240] = 0\n 27573: u64 [s1 + 280] = 0\n 27577: u64 [s1 + 288] = 0\n 27581: u64 [s1 + 296] = 0\n 27585: jump @901\n      : @887 (gas: 11)\n 27588: u64 [s1 + 0x138] = t1\n 27592: a3 = u64 [s1 + 0x70]\n 27595: a1 = u64 [s1 + 0x118]\n 27599: a3 = a3 ^ a1\n 27602: a4 = u64 [s1 + 0x58]\n 27605: a3 = a3 | a4\n 27608: a4 = u64 [s1 + 0x60]\n 27611: a5 = u64 [s1 + 0x68]\n 27614: a4 = a4 | a5\n 27617: a3 = a3 | a4\n 27620: jump @897 if a3 == 0\n      : @888 (gas: 22)\n 27624: a1 = u64 [s1 + 0xd0]\n 27628: a4 = u64 [s1 + 0x138]\n 27632: a3 = a4 <u a1\n 27635: a2 = a2 + a3\n 27638: a1 = u64 [s1 + 0xc0]\n 27642: t1 = a2 ^ a1\n 27645: a5 = a2 <u a1\n 27648: a5 = a3 if t1 == 0\n 27651: a5 = a5 + a0\n 27654: a3 = a5 <u a0\n 27657: a1 = u64 [s1 + 0xc8]\n 27661: a1 = a0 <u a1\n 27664: a0 = t0 + a1\n 27667: a0 = a0 + a3\n 27670: a1 = a4 | a5\n 27673: a0 = a0 | a2\n 27676: a1 = a1 | a0\n 27679: a1 = a1 >> 0x20\n 27682: a0 = a0 | a5\n 27685: a0 = a0 << 0x20\n 27688: a0 = a0 | a1\n 27691: jump @890 if a0 == 0\n      : @889 (gas: 1)\n 27694: jump @747\n      : @890 (gas: 8)\n 27697: a0 = u64 [s1 + 0x70]\n 27700: a0 = a0 << 0x3b\n 27703: a0 = a0 >> 0x38\n 27706: u64 [s1 + 0x130] = a0\n 27710: a2 = a0 + 0xffffffffffffff80\n 27713: a0 = 0xffffffffffffffff\n 27716: a1 = 0xffffffffffffffff\n 27719: ra = 1040, jump @1255\n      : @891 [@dyn 520] (gas: 6)\n 27725: u64 [s1 + 0x120] = a0\n 27729: u64 [s1 + 0x128] = a1\n 27733: a0 = 0xffffffffffffffff\n 27736: a1 = 0xffffffffffffffff\n 27739: a2 = u64 [s1 + 0x130]\n 27743: ra = 1042, jump @1255\n      : @892 [@dyn 521] (gas: 7)\n 27749: u64 [s1 + 0x118] = a0\n 27753: u64 [s1 + 0xf0] = a1\n 27757: a1 = u64 [s1 + 0x130]\n 27761: a2 = 0x80 - a1\n 27765: a0 = 0xffffffffffffffff\n 27768: a1 = 0xffffffffffffffff\n 27771: ra = 1044, jump @1260\n      : @893 [@dyn 522] (gas: 18)\n 27777: a3 = u64 [s1 + 0xf0]\n 27781: a3 = a3 | a1\n 27784: a2 = u64 [s1 + 0x130]\n 27788: a4 = a2 <u 0x80\n 27792: u64 [s1 + 0xf0] = a4\n 27796: a1 = u64 [s1 + 0x128]\n 27800: a3 = a1 if a4 == 0\n 27803: a3 = 0xffffffffffffffff if a2 == 0\n 27806: u64 [s1 + 0x128] = a3\n 27810: a3 = u64 [s1 + 0x118]\n 27814: a0 = a0 | a3\n 27817: a3 = u64 [s1 + 0x120]\n 27821: a0 = a3 if a4 == 0\n 27824: a0 = 0xffffffffffffffff if a2 == 0\n 27827: u64 [s1 + 0x120] = a0\n 27831: a0 = 0xffffffffffffffff\n 27834: a1 = 0xffffffffffffffff\n 27837: ra = 1046, jump @1255\n      : @894 [@dyn 523] (gas: 12)\n 27843: a2 = u64 [s1 + 0xf0]\n 27847: a1 = 0 if a2 == 0\n 27849: u64 [s1 + 0x130] = a1\n 27853: a0 = 0 if a2 == 0\n 27855: u64 [s1 + 0x118] = a0\n 27859: a1 = i32 [s1 + 0x138]\n 27863: a0 = s1 + 0x4000\n 27867: i32 a0 = a0 + 0xfffffffffffffae0\n 27871: ra = 0x418\n 27875: ecalli 1 // 'call_data_load'\n 27877: t0 = 0x41a\n 27881: jump @1253\n      : @895 [@dyn 524] (gas: 1)\n 27884: t0 = 1050, jump @1253\n      : @896 [@dyn 525] (gas: 29)\n 27890: a0 = u64 [a4 + 0x8]\n 27893: a1 = u64 [a4 + 0x10]\n 27896: a2 = u64 [a4 + 0x18]\n 27899: a3 = u64 [a4 + 0x20]\n 27902: a5 = s1 + 0x100\n 27906: a4 = u64 [a5 + 0x20]\n 27909: a4 = a0 & ~a4\n 27912: a0 = u64 [a5 + 0x28]\n 27915: a0 = a1 & ~a0\n 27918: a1 = u64 [a5 + 0x18]\n 27921: a1 = a2 & ~a1\n 27924: a2 = u64 [a5 + 0x30]\n 27927: a2 = a3 & ~a2\n 27930: a3 = u64 [a5 + 0x48]\n 27933: u64 [s1 + 0x6d8] = a3\n 27937: a3 = u64 [a5 + 0x40]\n 27940: u64 [s1 + 0x6d0] = a3\n 27944: a3 = u64 [a5 + 0x50]\n 27947: u64 [s1 + 0x6c8] = a3\n 27951: a3 = u64 [a5 + 0x58]\n 27954: a5 = s1 + 0x600\n 27958: u64 [a5 + 0xc0] = a3\n 27962: u64 [a5 + 0xb8] = a2\n 27966: u64 [a5 + 0xb0] = a1\n 27970: u64 [a5 + 0xa8] = a0\n 27974: a0 = s1 + 0x6c0\n 27978: a1 = s1 + 0x6a0\n 27982: u64 [a5 + 0xa0] = a4\n 27986: ra = 1052, jump @16\n      : @897 [@dyn 526] (gas: 16)\n 27992: a5 = u64 [s1 + 0x70]\n 27995: a0 = a5 >> 0x3f\n 27998: a2 = u64 [s1 + 0x68]\n 28001: a1 = a2 << 0x1\n 28004: a4 = a1 | a0\n 28007: a1 = a2 >> 0x3f\n 28010: a0 = u64 [s1 + 0x58]\n 28013: a2 = a0 << 0x1\n 28016: a1 = a1 | a2\n 28019: a2 = a0 >> 0x3f\n 28022: a3 = u64 [s1 + 0x60]\n 28025: a3 = a3 << 0x1\n 28028: a2 = a2 | a3\n 28031: a3 = a5 << 0x1\n 28034: a3 = a3 + 0x1\n 28037: jump @908\n      : @898 (gas: 12)\n 28040: a2 = u64 [s1 + 0xc8]\n 28044: a0 = u64 [s1 + 0xd0]\n 28048: a0 = a0 | a2\n 28051: a1 = u64 [s1 + 0xc0]\n 28055: a3 = u64 [s1 + 0xb8]\n 28059: a1 = a1 | a3\n 28062: a0 = a0 | a1\n 28065: a0 = a0 >> 0x20\n 28068: a1 = a1 | a2\n 28071: a1 = a1 << 0x20\n 28074: a0 = a0 | a1\n 28077: jump @900 if a0 == 0\n      : @899 (gas: 1)\n 28080: jump @747\n      : @900 (gas: 16)\n 28083: a1 = i32 [s1 + 0xd0]\n 28087: a0 = s1 + 0x4000\n 28091: i32 a0 = a0 + 0xfffffffffffffb00\n 28095: ecalli 1 // 'call_data_load'\n 28097: a0 = s1 + 0x38d8\n 28101: a2 = a0 + 0x200\n 28105: a1 = u64 [a2 + 0x40]\n 28108: a0 = s1 + 0x100\n 28112: u64 [a0 + 0x28] = a1\n 28115: a1 = u64 [a2 + 0x38]\n 28118: u64 [a0 + 0x20] = a1\n 28121: a1 = u64 [a2 + 0x30]\n 28124: u64 [a0 + 0x18] = a1\n 28127: a0 = u64 [a2 + 0x28]\n 28130: u64 [s1 + 0xf0] = a0\n 28134: fallthrough\n      : @901 (gas: 7)\n 28135: a0 = u64 [s1 + 0x70]\n 28138: a0 = a0 << 0x3\n 28141: u64 [s1 + 0x158] = a0\n 28145: i32 a2 = a0 + 0xffffffffffffff80\n 28148: a0 = 0xffffffffffffffff\n 28151: a1 = 0xffffffffffffffff\n 28154: ra = 1054, jump @1255\n      : @902 [@dyn 527] (gas: 8)\n 28160: u64 [s1 + 0x148] = a0\n 28164: u64 [s1 + 0x150] = a1\n 28168: a0 = u64 [s1 + 0x70]\n 28171: i32 a2 = a0 << 0x3\n 28174: u64 [s1 + 0x140] = a2\n 28178: a0 = 0xffffffffffffffff\n 28181: a1 = 0xffffffffffffffff\n 28184: ra = 1056, jump @1255\n      : @903 [@dyn 528] (gas: 1)\n 28190: t0 = 1058, jump @1239\n      : @904 [@dyn 529] (gas: 1)\n 28196: ra = 1060, jump @1260\n      : @905 [@dyn 530] (gas: 1)\n 28202: t0 = 1062, jump @1209\n      : @906 [@dyn 531] (gas: 1)\n 28208: ra = 1064, jump @1255\n      : @907 [@dyn 532] (gas: 32)\n 28214: a2 = u64 [s1 + 0x130]\n 28218: a1 = 0 if a2 == 0\n 28220: a0 = 0 if a2 == 0\n 28222: a4 = u64 [s1 + 0x68]\n 28225: a2 = a4 >> 0x3f\n 28228: a5 = u64 [s1 + 0x58]\n 28231: a3 = a5 << 0x1\n 28234: t0 = a3 | a2\n 28237: a2 = a5 >> 0x3f\n 28240: a3 = u64 [s1 + 0x60]\n 28243: a3 = a3 << 0x1\n 28246: t1 = a3 | a2\n 28249: a4 = a4 << 0x1\n 28252: a3 = u64 [s1 + 0x70]\n 28255: a5 = a3 >> 0x3f\n 28258: t2 = a4 | a5\n 28261: a2 = u64 [s1 + 0xf0]\n 28265: a4 = u64 [s1 + 0x158]\n 28269: a5 = a2 & ~a4\n 28272: a2 = u64 [s1 + 0x118]\n 28276: a4 = u64 [s1 + 0x150]\n 28280: a4 = a2 & ~a4\n 28283: a2 = u64 [s1 + 0x120]\n 28287: a0 = a2 & ~a0\n 28290: a2 = u64 [s1 + 0x128]\n 28294: a1 = a2 & ~a1\n 28297: a4 = a4 | t2\n 28300: a3 = a3 << 0x1\n 28303: a3 = a3 | a5\n 28306: a2 = a1 | t1\n 28309: a1 = a0 | t0\n 28312: fallthrough\n      : @908 (gas: 17)\n 28313: a5 = s1 + 0x600\n 28317: u64 [a5 + 0x60] = a3\n 28320: a0 = u64 [s1 + 0xf8]\n 28324: u64 [a5 + 0x80] = a0\n 28328: u64 [a5 + 0x68] = a4\n 28331: a3 = s1 + 0x100\n 28335: a0 = u64 [a3]\n 28337: u64 [a5 + 0x88] = a0\n 28341: u64 [a5 + 0x70] = a1\n 28344: a0 = u64 [a3 + 0x8]\n 28347: u64 [a5 + 0x90] = a0\n 28351: u64 [a5 + 0x78] = a2\n 28354: a0 = s1 + 0x680\n 28358: a1 = s1 + 0x660\n 28362: a2 = u64 [a3 + 0x10]\n 28365: u64 [a5 + 0x98] = a2\n 28369: ra = 1066, jump @16\n      : @909 [@dyn 533] (gas: 11)\n 28375: a0 = u64 [s1 + 0x98]\n 28379: u64 [s1 + 0x640] = a0\n 28383: a0 = u64 [s1 + 0xa0]\n 28387: u64 [s1 + 0x648] = a0\n 28391: a0 = u64 [s1 + 0xa8]\n 28395: u64 [s1 + 0x650] = a0\n 28399: a1 = s1 + 0x640\n 28403: a0 = u64 [s1 + 0xb0]\n 28407: u64 [s1 + 0x658] = a0\n 28411: a0 = 0\n 28413: ra = 1068, jump @12\n      : @910 [@dyn 534] (gas: 7)\n 28419: u64 [s1 + 1592] = 0\n 28423: u64 [s1 + 1584] = 0\n 28427: u64 [s1 + 1568] = 0x4\n 28432: a0 = 0x20\n 28435: a1 = s1 + 0x620\n 28439: u64 [s1 + 1576] = 0\n 28443: ra = 1070, jump @12\n      : @911 [@dyn 535] (gas: 3)\n 28449: a1 = 0x40\n 28452: a0 = 0\n 28454: ra = 1072, jump @0\n      : @912 [@dyn 536] (gas: 1)\n 28460: t0 = 1074, jump @1202\n      : @913 [@dyn 537] (gas: 21)\n 28466: ecalli 6 // 'hash_keccak_256'\n 28468: a3 = u64 [s1 + 0x158]\n 28472: a0 = u64 [a3 + 0x18]\n 28475: a1 = u64 [a3 + 0x10]\n 28478: a2 = u64 [a3 + 0x8]\n 28481: a3 = u64 [a3]\n 28483: a4 = reverse a0\n 28485: u64 [s1 + 0x140] = a4\n 28489: a0 = reverse a1\n 28491: u64 [s1 + 0x158] = a0\n 28495: a1 = reverse a2\n 28497: u64 [s1 + 0x150] = a1\n 28501: a2 = reverse a3\n 28503: u64 [s1 + 0x148] = a2\n 28507: u64 [s1 + 0x5f8] = a2\n 28511: u64 [s1 + 0x5f0] = a1\n 28515: u64 [s1 + 0x5e8] = a0\n 28519: a0 = s1 + 0x600\n 28523: a1 = s1 + 0x5e0\n 28527: u64 [s1 + 0x5e0] = a4\n 28531: ra = 1076, jump @14\n      : @914 [@dyn 538] (gas: 22)\n 28537: a4 = s1 + 0x600\n 28541: a0 = u64 [a4 + 0x8]\n 28544: a1 = u64 [a4]\n 28546: a2 = u64 [a4 + 0x10]\n 28549: a3 = u64 [a4 + 0x18]\n 28552: a1 = a1 & 0xffffffffffffff00\n 28556: a4 = a1 | 0x1\n 28559: u64 [s1 + 0x5b8] = a3\n 28563: u64 [s1 + 0x5b0] = a2\n 28567: u64 [s1 + 0x5a8] = a0\n 28571: a0 = u64 [s1 + 0x148]\n 28575: u64 [s1 + 0x5d8] = a0\n 28579: a0 = u64 [s1 + 0x150]\n 28583: u64 [s1 + 0x5d0] = a0\n 28587: a0 = u64 [s1 + 0x158]\n 28591: u64 [s1 + 0x5c8] = a0\n 28595: a0 = u64 [s1 + 0x140]\n 28599: u64 [s1 + 0x5c0] = a0\n 28603: a0 = s1 + 0x5c0\n 28607: a1 = s1 + 0x5a0\n 28611: u64 [s1 + 0x5a0] = a4\n 28615: ra = 1078, jump @16\n      : @915 [@dyn 539] (gas: 5)\n 28621: a0 = s1 + 0x4000\n 28625: i32 a0 = a0 + 0xfffffffffffffb20\n 28629: ra = 0x438\n 28633: ecalli 3 // 'caller'\n 28635: fallthrough\n      : @916 [@dyn 540] (gas: 6)\n 28636: a2 = s1 + 0x38d8\n 28640: a3 = a2 + 0x200\n 28644: a0 = u64 [a3 + 0x50]\n 28647: a1 = i32 [a3 + 0x58]\n 28650: a2 = u64 [a3 + 0x48]\n 28653: t0 = 1082, jump @1227\n      : @917 [@dyn 541] (gas: 7)\n 28659: u64 [s1 + 1432] = 0\n 28663: u64 [s1 + 0x590] = a1\n 28667: u64 [s1 + 0x588] = a0\n 28671: a1 = s1 + 0x580\n 28675: u64 [s1 + 0x580] = a3\n 28679: a0 = 0\n 28681: ra = 1084, jump @12\n      : @918 [@dyn 542] (gas: 7)\n 28687: u64 [s1 + 1400] = 0\n 28691: u64 [s1 + 1392] = 0\n 28695: u64 [s1 + 1376] = 0x5\n 28700: a0 = 0x20\n 28703: a1 = s1 + 0x560\n 28707: u64 [s1 + 1384] = 0\n 28711: ra = 1086, jump @12\n      : @919 [@dyn 543] (gas: 3)\n 28717: a1 = 0x40\n 28720: a0 = 0\n 28722: ra = 1088, jump @0\n      : @920 [@dyn 544] (gas: 1)\n 28728: t0 = 1090, jump @1202\n      : @921 [@dyn 545] (gas: 3)\n 28734: ra = 0x444\n 28738: ecalli 6 // 'hash_keccak_256'\n 28740: fallthrough\n      : @922 [@dyn 546] (gas: 3)\n 28741: a5 = s1 + 0x100\n 28745: a3 = u64 [a5 + 0x58]\n 28748: t0 = 1094, jump @1216\n      : @923 [@dyn 547] (gas: 11)\n 28754: u64 [a5 + 0x40] = a2\n 28757: u64 [s1 + 0x538] = a2\n 28761: u64 [a5 + 0x48] = a1\n 28764: u64 [s1 + 0x530] = a1\n 28768: u64 [a5 + 0x50] = a0\n 28771: u64 [s1 + 0x528] = a0\n 28775: a0 = s1 + 0x540\n 28779: a1 = s1 + 0x520\n 28783: u64 [a5 + 0x58] = a4\n 28786: u64 [s1 + 0x520] = a4\n 28790: ra = 1096, jump @14\n      : @924 [@dyn 548] (gas: 13)\n 28796: a0 = s1 + 0x500\n 28800: a5 = u64 [a0 + 0x58]\n 28803: a3 = u64 [a0 + 0x50]\n 28806: a2 = u64 [a0 + 0x48]\n 28809: a0 = a5 >u 0\n 28811: a1 = a3 >u 0\n 28813: a1 = a0 if a5 != 0\n 28816: a4 = a3\n 28818: a0 = a3 | a5\n 28821: a3 = a2\n 28823: a2 = a2 >u 0\n 28825: a2 = a1 if a0 != 0\n 28828: jump @926 if a2 == 0\n      : @925 (gas: 1)\n 28831: jump @1028\n      : @926 (gas: 29)\n 28834: a0 = u64 [s1 + 0x540]\n 28838: u64 [s1 + 0x138] = a0\n 28842: a0 = a0 + 0x1\n 28845: a1 = a0 <u 0x1\n 28848: u64 [s1 + 0x130] = a3\n 28852: a1 = a1 + a3\n 28855: a2 = a0 | a1\n 28858: a2 = a2 <u 0x1\n 28861: u64 [s1 + 0x128] = a4\n 28865: a2 = a2 + a4\n 28868: a3 = a2 <u a4\n 28871: u64 [s1 + 0x120] = a5\n 28875: a3 = a3 + a5\n 28878: a4 = u64 [s1 + 0x158]\n 28882: a5 = s1 + 0x500\n 28886: u64 [a5] = a4\n 28888: u64 [s1 + 0x4e0] = a0\n 28892: a0 = u64 [s1 + 0x150]\n 28896: u64 [a5 + 0x8] = a0\n 28899: a0 = u64 [s1 + 0x148]\n 28903: u64 [a5 + 0x10] = a0\n 28906: u64 [s1 + 0x4e8] = a1\n 28910: a0 = u64 [s1 + 0x140]\n 28914: u64 [a5 + 0x18] = a0\n 28917: u64 [s1 + 0x4f0] = a2\n 28921: a0 = s1 + 0x500\n 28925: a1 = s1 + 0x4e0\n 28929: u64 [s1 + 0x4f8] = a3\n 28933: ra = 1098, jump @16\n      : @927 [@dyn 549] (gas: 20)\n 28939: a0 = u64 [s1 + 0x120]\n 28943: u64 [s1 + 0x478] = a0\n 28947: a0 = u64 [s1 + 0x128]\n 28951: u64 [s1 + 0x470] = a0\n 28955: a0 = u64 [s1 + 0x130]\n 28959: u64 [s1 + 0x468] = a0\n 28963: a0 = u64 [s1 + 0x138]\n 28967: u64 [s1 + 0x460] = a0\n 28971: a0 = u64 [s1 + 0x140]\n 28975: u64 [s1 + 0x498] = a0\n 28979: a0 = u64 [s1 + 0x148]\n 28983: u64 [s1 + 0x490] = a0\n 28987: a0 = u64 [s1 + 0x150]\n 28991: u64 [s1 + 0x488] = a0\n 28995: a0 = s1 + 0x4a0\n 28999: a1 = s1 + 0x480\n 29003: a2 = s1 + 0x460\n 29007: a3 = u64 [s1 + 0x158]\n 29011: u64 [s1 + 0x480] = a3\n 29015: ra = 1100, jump @1161\n      : @928 [@dyn 550] (gas: 23)\n 29021: a0 = u64 [s1 + 0x4d8]\n 29025: u64 [s1 + 0x150] = a0\n 29029: a0 = u64 [s1 + 0x4d0]\n 29033: u64 [s1 + 0x148] = a0\n 29037: a0 = u64 [s1 + 0x4c8]\n 29041: u64 [s1 + 0x140] = a0\n 29045: a0 = u64 [s1 + 0x4c0]\n 29049: u64 [s1 + 0x158] = a0\n 29053: a2 = u64 [s1 + 0x4a0]\n 29057: u64 [s1 + 0x110] = a2\n 29061: a0 = u64 [s1 + 0x4a8]\n 29065: u64 [s1 + 0x128] = a0\n 29069: a1 = u64 [s1 + 0x4b0]\n 29073: u64 [s1 + 0x120] = a1\n 29077: a3 = u64 [s1 + 0x4b8]\n 29081: u64 [s1 + 0x118] = a3\n 29085: u64 [s1 + 0x438] = a3\n 29089: u64 [s1 + 0x430] = a1\n 29093: u64 [s1 + 0x428] = a0\n 29097: a0 = s1 + 0x440\n 29101: a1 = s1 + 0x420\n 29105: u64 [s1 + 0x420] = a2\n 29109: ra = 1102, jump @14\n      : @929 [@dyn 551] (gas: 24)\n 29115: a0 = u64 [s1 + 0x440]\n 29119: u64 [s1 + 0x108] = a0\n 29123: a0 = u64 [s1 + 0x448]\n 29127: u64 [s1 + 0x100] = a0\n 29131: a0 = u64 [s1 + 0x450]\n 29135: u64 [s1 + 0xf8] = a0\n 29139: a0 = u64 [s1 + 0x458]\n 29143: u64 [s1 + 0xf0] = a0\n 29147: a5 = u64 [s1 + 0x158]\n 29151: a0 = a5 >> 0x3d\n 29154: a2 = u64 [s1 + 0x140]\n 29158: a1 = a2 << 0x3\n 29161: a0 = a0 | a1\n 29164: a1 = a2 >> 0x3d\n 29167: a3 = u64 [s1 + 0x148]\n 29171: a2 = a3 << 0x3\n 29174: a1 = a1 | a2\n 29177: a2 = a3 >> 0x3d\n 29180: a3 = u64 [s1 + 0x150]\n 29184: a3 = a3 << 0x3\n 29187: a2 = a2 | a3\n 29190: a5 = a5 << 0x3\n 29193: u64 [s1 + 0x140] = a5\n 29197: t0 = 1104, jump @1221\n      : @930 [@dyn 552] (gas: 6)\n 29203: u64 [s1 + 0x130] = a4\n 29207: i32 a2 = a5 + 0xffffffffffffff80\n 29210: u64 [s1 + 0xd8] = a2\n 29214: a0 = u64 [s1 + 0x90]\n 29218: a1 = u64 [s1 + 0x88]\n 29222: ra = 1106, jump @1260\n      : @931 [@dyn 553] (gas: 8)\n 29228: u64 [s1 + 0xe8] = a0\n 29232: u64 [s1 + 0x150] = a1\n 29236: a0 = u64 [s1 + 0x158]\n 29240: i32 a2 = a0 << 0x3\n 29243: u64 [s1 + 0x148] = a2\n 29247: a0 = u64 [s1 + 0x80]\n 29251: a1 = u64 [s1 + 0x78]\n 29254: ra = 1108, jump @1260\n      : @932 [@dyn 554] (gas: 8)\n 29260: u64 [s1 + 0x158] = a0\n 29264: u64 [s1 + 0xe0] = a1\n 29268: a1 = u64 [s1 + 0x140]\n 29272: i32 a2 = 0x80 - a1\n 29276: u64 [s1 + 0xd0] = a2\n 29280: a0 = u64 [s1 + 0x90]\n 29284: a1 = u64 [s1 + 0x88]\n 29288: ra = 1110, jump @1255\n      : @933 [@dyn 555] (gas: 21)\n 29294: a2 = u64 [s1 + 0x158]\n 29298: a2 = a2 | a0\n 29301: a0 = u64 [s1 + 0x140]\n 29305: a4 = a0 <u 0x80\n 29309: u64 [s1 + 0x138] = a4\n 29313: a3 = u64 [s1 + 0xe8]\n 29317: a2 = a3 if a4 == 0\n 29320: a3 = u64 [s1 + 0x80]\n 29324: a2 = a3 if a0 == 0\n 29327: u64 [s1 + 0x158] = a2\n 29331: a2 = u64 [s1 + 0xe0]\n 29335: a1 = a1 | a2\n 29338: a2 = u64 [s1 + 0x150]\n 29342: a1 = a2 if a4 == 0\n 29345: a2 = u64 [s1 + 0x78]\n 29348: a1 = a2 if a0 == 0\n 29351: u64 [s1 + 0x150] = a1\n 29355: a0 = u64 [s1 + 0x90]\n 29359: a1 = u64 [s1 + 0x88]\n 29363: a2 = u64 [s1 + 0x148]\n 29367: ra = 1112, jump @1260\n      : @934 [@dyn 556] (gas: 19)\n 29373: a2 = a1\n 29375: a1 = u64 [s1 + 0x138]\n 29379: a0 = 0 if a1 == 0\n 29381: a2 = 0 if a1 == 0\n 29383: a3 = u64 [s1 + 0x130]\n 29387: a1 = u64 [s1 + 0x150]\n 29391: a1 = 0 if a3 != 0\n 29393: u64 [s1 + 0x150] = a1\n 29397: a1 = u64 [s1 + 0x158]\n 29401: a1 = 0 if a3 != 0\n 29403: u64 [s1 + 0x158] = a1\n 29407: a2 = 0 if a3 != 0\n 29409: u64 [s1 + 0xe8] = a2\n 29413: a0 = 0 if a3 != 0\n 29415: u64 [s1 + 0xe0] = a0\n 29419: a0 = 0xffffffffffffffff\n 29422: a1 = 0xffffffffffffffff\n 29425: a2 = u64 [s1 + 0xd8]\n 29429: ra = 1114, jump @1260\n      : @935 [@dyn 557] (gas: 6)\n 29435: u64 [s1 + 0xc8] = a0\n 29439: u64 [s1 + 0xd8] = a1\n 29443: a0 = 0xffffffffffffffff\n 29446: a1 = 0xffffffffffffffff\n 29449: a2 = u64 [s1 + 0x148]\n 29453: ra = 1116, jump @1260\n      : @936 [@dyn 558] (gas: 6)\n 29459: u64 [s1 + 0xb8] = a0\n 29463: u64 [s1 + 0xc0] = a1\n 29467: a0 = 0xffffffffffffffff\n 29470: a1 = 0xffffffffffffffff\n 29473: a2 = u64 [s1 + 0xd0]\n 29477: ra = 1118, jump @1255\n      : @937 [@dyn 559] (gas: 18)\n 29483: a4 = u64 [s1 + 0xb8]\n 29487: a4 = a4 | a0\n 29490: a3 = u64 [s1 + 0x138]\n 29494: a0 = u64 [s1 + 0xc8]\n 29498: a4 = a0 if a3 == 0\n 29501: a2 = u64 [s1 + 0x140]\n 29505: a4 = 0xffffffffffffffff if a2 == 0\n 29508: u64 [s1 + 0xd0] = a4\n 29512: a4 = u64 [s1 + 0xc0]\n 29516: a4 = a4 | a1\n 29519: a1 = u64 [s1 + 0xd8]\n 29523: a4 = a1 if a3 == 0\n 29526: a4 = 0xffffffffffffffff if a2 == 0\n 29529: u64 [s1 + 0x140] = a4\n 29533: a0 = 0xffffffffffffffff\n 29536: a1 = 0xffffffffffffffff\n 29539: a2 = u64 [s1 + 0x148]\n 29543: ra = 1120, jump @1260\n      : @938 [@dyn 560] (gas: 46)\n 29549: a2 = u64 [s1 + 0x138]\n 29553: a0 = 0 if a2 == 0\n 29555: a1 = 0 if a2 == 0\n 29557: a2 = u64 [s1 + 0x140]\n 29561: a2 = a2 ^ 0xffffffffffffffff\n 29564: a3 = u64 [s1 + 0xd0]\n 29568: a3 = a3 ^ 0xffffffffffffffff\n 29571: a1 = a1 ^ 0xffffffffffffffff\n 29574: a0 = a0 ^ 0xffffffffffffffff\n 29577: a5 = u64 [s1 + 0x130]\n 29581: a3 = 0xffffffffffffffff if a5 != 0\n 29584: a2 = 0xffffffffffffffff if a5 != 0\n 29587: a0 = 0xffffffffffffffff if a5 != 0\n 29590: a1 = 0xffffffffffffffff if a5 != 0\n 29593: a4 = u64 [s1 + 0xf0]\n 29597: a2 = a2 & a4\n 29600: a4 = u64 [s1 + 0xf8]\n 29604: a3 = a3 & a4\n 29607: a5 = s1 + 0x100\n 29611: a4 = u64 [a5]\n 29613: a1 = a1 & a4\n 29616: a4 = u64 [a5 + 0x8]\n 29619: a0 = a0 & a4\n 29622: a4 = u64 [a5 + 0x58]\n 29625: a3 = a3 | a4\n 29628: a4 = u64 [a5 + 0x50]\n 29631: a2 = a2 | a4\n 29634: a4 = u64 [s1 + 0xe0]\n 29638: a0 = a0 | a4\n 29641: a4 = u64 [s1 + 0xe8]\n 29645: a1 = a1 | a4\n 29648: a4 = u64 [a5 + 0x18]\n 29651: u64 [s1 + 0x418] = a4\n 29655: a4 = u64 [a5 + 0x20]\n 29658: u64 [s1 + 0x410] = a4\n 29662: a4 = u64 [a5 + 0x28]\n 29665: u64 [s1 + 0x408] = a4\n 29669: a4 = u64 [a5 + 0x10]\n 29672: u64 [s1 + 0x400] = a4\n 29676: u64 [s1 + 0x3e8] = a1\n 29680: u64 [s1 + 0x3e0] = a0\n 29684: u64 [s1 + 0x3f8] = a2\n 29688: a0 = s1 + 0x400\n 29692: a1 = s1 + 0x3e0\n 29696: u64 [s1 + 0x3f0] = a3\n 29700: ra = 1122, jump @16\n      : @939 [@dyn 561] (gas: 3)\n 29706: a0 = s1 + 0x3c0\n 29710: a1 = 0x40\n 29713: ra = 1124, jump @10\n      : @940 [@dyn 562] (gas: 6)\n 29719: a3 = s1 + 0x300\n 29723: a0 = u64 [a3 + 0xd8]\n 29727: a1 = u64 [a3 + 0xd0]\n 29731: a2 = u64 [a3 + 0xc8]\n 29735: a4 = u64 [a3 + 0xc0]\n 29739: t0 = 1126, jump @1241\n      : @941 [@dyn 563] (gas: 1)\n 29745: jump @943 if a0 == 0\n      : @942 (gas: 1)\n 29748: jump @747\n      : @943 (gas: 13)\n 29751: a3 = a4\n 29753: a0 = u64 [s1 + 0x98]\n 29757: u64 [s1 + 0x3a0] = a0\n 29761: a0 = u64 [s1 + 0xa0]\n 29765: u64 [s1 + 0x3a8] = a0\n 29769: a0 = u64 [s1 + 0xa8]\n 29773: u64 [s1 + 0x3b0] = a0\n 29777: a1 = s1 + 0x3a0\n 29781: a0 = u64 [s1 + 0xb0]\n 29785: u64 [s1 + 0x3b8] = a0\n 29789: a0 = a4\n 29791: u64 [s1 + 0x158] = a3\n 29795: ra = 1128, jump @12\n      : @944 [@dyn 564] (gas: 46)\n 29801: a0 = s1 + 0x4000\n 29805: i32 a0 = a0 + 0xfffffffffffffb40\n 29809: ecalli 3 // 'caller'\n 29811: a2 = s1 + 0x38d8\n 29815: a3 = a2 + 0x200\n 29819: a0 = u64 [a3 + 0x70]\n 29822: a1 = i32 [a3 + 0x78]\n 29825: a2 = u64 [a3 + 0x68]\n 29828: a3 = reverse a0\n 29830: a0 = a3 << 0x20\n 29833: a1 = reverse a1\n 29835: a1 = a1 >> 0x20\n 29838: t0 = a1 | a0\n 29841: a3 = a3 >> 0x20\n 29844: a2 = reverse a2\n 29846: a1 = a2 << 0x20\n 29849: a1 = a1 | a3\n 29852: a2 = a2 >> 0x20\n 29855: u64 [s1 + 856] = 0\n 29859: a0 = u64 [s1 + 0x78]\n 29862: u64 [s1 + 0x378] = a0\n 29866: a0 = u64 [s1 + 0x80]\n 29870: u64 [s1 + 0x370] = a0\n 29874: a0 = u64 [s1 + 0x88]\n 29878: u64 [s1 + 0x368] = a0\n 29882: a0 = u64 [s1 + 0x90]\n 29886: u64 [s1 + 0x360] = a0\n 29890: a3 = u64 [0x200c8]\n 29895: a4 = u64 [0x200d0]\n 29900: a5 = u64 [0x200d8]\n 29905: a0 = u64 [0x200e0]\n 29910: u64 [s1 + 0x398] = a3\n 29914: a3 = s1 + 0x300\n 29918: u64 [a3 + 0x90] = a4\n 29922: u64 [a3 + 0x88] = a5\n 29926: u64 [a3 + 0x80] = a0\n 29930: u64 [a3 + 0x50] = a2\n 29933: u64 [a3 + 0x48] = a1\n 29936: a1 = 0x20\n 29939: a2 = s1 + 0x380\n 29943: a3 = s1 + 0x360\n 29947: a4 = s1 + 0x340\n 29951: u64 [s1 + 0x340] = t0\n 29955: a0 = u64 [s1 + 0x158]\n 29959: ra = 0x4d6\n 29963: jump @19\n      : @945 (gas: 3)\n 29966: a0 = 0\n 29968: a1 = 0\n 29970: ra = 1130, jump @0\n      : @946 [@dyn 565] (gas: 7)\n 29976: i32 a1 = a0 + 0\n 29978: a0 = 0x1\n 29981: a2 = 0\n 29983: ecalli 8 // 'seal_return'\n 29985: t0 = 0x46c\n 29989: a2 = s1 + 0x30d8\n 29993: jump @948\n      : @947 (gas: 3)\n 29995: t0 = 0x46c\n 29999: a2 = s1 + 0x30d8\n 30003: fallthrough\n      : @948 [@dyn 566] (gas: 12)\n 30004: a0 = u64 [s1 + 0x158]\n 30008: a3 = a2 + 0x500\n 30012: u64 [a3 + 0xa8] = a0\n 30016: a0 = u64 [s1 + 0x150]\n 30020: u64 [a3 + 0xb0] = a0\n 30024: a0 = u64 [s1 + 0x148]\n 30028: u64 [a3 + 0xb8] = a0\n 30032: a1 = s1 + 0x3680\n 30036: a0 = u64 [s1 + 0x140]\n 30040: u64 [a3 + 0xc0] = a0\n 30044: a0 = 0\n 30046: ra = 1134, jump @12\n      : @949 [@dyn 567] (gas: 3)\n 30052: t0 = 0x470\n 30056: a2 = s1 + 0x30d8\n 30060: fallthrough\n      : @950 [@dyn 568] (gas: 7)\n 30061: u64 [a2 + 1440] = 0\n 30065: u64 [a2 + 1432] = 0\n 30069: u64 [a2 + 1416] = 0x6\n 30074: a0 = 0x20\n 30077: a1 = s1 + 0x3660\n 30081: u64 [a2 + 1424] = 0\n 30085: ra = 1138, jump @12\n      : @951 [@dyn 569] (gas: 3)\n 30091: a1 = 0x40\n 30094: a0 = 0\n 30096: ra = 1140, jump @0\n      : @952 [@dyn 570] (gas: 1)\n 30102: t0 = 1142, jump @1205\n      : @953 [@dyn 571] (gas: 4)\n 30108: ra = 0x478\n 30112: ecalli 6 // 'hash_keccak_256'\n 30114: t0 = 0x47a\n 30118: jump @1203\n      : @954 [@dyn 572] (gas: 1)\n 30121: t0 = 1146, jump @1203\n      : @955 [@dyn 573] (gas: 11)\n 30127: u64 [a2 + 1408] = 0\n 30131: a0 = u64 [s1 + 0x128]\n 30135: a3 = a2 + 0x500\n 30139: u64 [a3 + 0x78] = a0\n 30142: a0 = u64 [s1 + 0x130]\n 30146: u64 [a3 + 0x70] = a0\n 30149: a1 = s1 + 0x3640\n 30153: a0 = u64 [s1 + 0x138]\n 30157: u64 [a3 + 0x68] = a0\n 30160: a0 = 0\n 30162: ra = 1148, jump @12\n      : @956 [@dyn 574] (gas: 4)\n 30168: t0 = 0x47e\n 30172: a2 = s1 + 0x30d8\n 30176: a0 = u64 [s1 + 0x108]\n 30180: fallthrough\n      : @957 [@dyn 575] (gas: 11)\n 30181: a4 = a2 + 0x500\n 30185: u64 [a4 + 0x60] = a0\n 30188: a0 = u64 [s1 + 0x110]\n 30192: u64 [a4 + 0x58] = a0\n 30195: a0 = u64 [s1 + 0x118]\n 30199: u64 [a4 + 0x50] = a0\n 30202: a0 = 0x20\n 30205: a1 = s1 + 0x3620\n 30209: a3 = u64 [s1 + 0x120]\n 30213: u64 [a4 + 0x48] = a3\n 30216: ra = 1152, jump @12\n      : @958 [@dyn 576] (gas: 3)\n 30222: a1 = 0x40\n 30225: a0 = 0\n 30227: ra = 1154, jump @0\n      : @959 [@dyn 577] (gas: 1)\n 30233: t0 = 1156, jump @1205\n      : @960 [@dyn 578] (gas: 23)\n 30239: ecalli 6 // 'hash_keccak_256'\n 30241: a3 = u64 [s1 + 0x120]\n 30245: a0 = u64 [a3 + 0x18]\n 30248: a1 = u64 [a3 + 0x10]\n 30251: a2 = u64 [a3 + 0x8]\n 30254: a3 = u64 [a3]\n 30256: a4 = reverse a0\n 30258: u64 [s1 + 0x108] = a4\n 30262: a0 = reverse a1\n 30264: u64 [s1 + 0x120] = a0\n 30268: a1 = reverse a2\n 30270: u64 [s1 + 0x118] = a1\n 30274: a3 = reverse a3\n 30276: u64 [s1 + 0x110] = a3\n 30280: a2 = s1 + 0x30d8\n 30284: a5 = a2 + 0x500\n 30288: u64 [a5 + 0x20] = a3\n 30291: u64 [a5 + 0x18] = a1\n 30294: u64 [a5 + 0x10] = a0\n 30297: a0 = s1 + 0x3600\n 30301: a1 = s1 + 0x35e0\n 30305: u64 [a5 + 0x8] = a4\n 30308: ra = 1158, jump @14\n      : @961 [@dyn 579] (gas: 23)\n 30314: a5 = s1 + 0x30d8\n 30318: a0 = u64 [a5 + 0x530]\n 30322: a1 = u64 [a5 + 0x528]\n 30326: a2 = u64 [a5 + 0x538]\n 30330: a3 = u64 [a5 + 0x540]\n 30334: a1 = a1 & 0xffffffffffffff00\n 30338: a4 = a1 | 0x1\n 30341: u64 [a5 + 0x4e0] = a3\n 30345: a3 = a5 + 0x400\n 30349: u64 [a3 + 0xd8] = a2\n 30353: u64 [a3 + 0xd0] = a0\n 30357: a0 = u64 [s1 + 0x110]\n 30361: u64 [a5 + 0x500] = a0\n 30365: a0 = u64 [s1 + 0x118]\n 30369: u64 [a3 + 0xf8] = a0\n 30373: a0 = u64 [s1 + 0x120]\n 30377: u64 [a3 + 0xf0] = a0\n 30381: a0 = u64 [s1 + 0x108]\n 30385: u64 [a3 + 0xe8] = a0\n 30389: a0 = s1 + 0x35c0\n 30393: a1 = s1 + 0x35a0\n 30397: u64 [a3 + 0xc8] = a4\n 30401: ra = 1160, jump @16\n      : @962 [@dyn 580] (gas: 1)\n 30407: t0 = 1162, jump @1248\n      : @963 [@dyn 581] (gas: 11)\n 30413: a3 = a2 + 0x400\n 30417: u64 [a3 + 0xc0] = a0\n 30421: a0 = u64 [s1 + 0x148]\n 30425: u64 [a3 + 0xb8] = a0\n 30429: a0 = u64 [s1 + 0x150]\n 30433: u64 [a3 + 0xb0] = a0\n 30437: a1 = s1 + 0x3580\n 30441: a0 = u64 [s1 + 0x158]\n 30445: u64 [a3 + 0xa8] = a0\n 30449: a0 = 0\n 30451: ra = 1164, jump @12\n      : @964 [@dyn 582] (gas: 3)\n 30457: t0 = 0x48e\n 30461: a2 = s1 + 0x30d8\n 30465: fallthrough\n      : @965 [@dyn 583] (gas: 7)\n 30466: u64 [a2 + 1184] = 0\n 30470: u64 [a2 + 1176] = 0\n 30474: u64 [a2 + 1160] = 0x3\n 30479: a0 = 0x20\n 30482: a1 = s1 + 0x3560\n 30486: u64 [a2 + 1168] = 0\n 30490: ra = 1168, jump @12\n      : @966 [@dyn 584] (gas: 3)\n 30496: a1 = 0x40\n 30499: a0 = 0\n 30501: ra = 1170, jump @0\n      : @967 [@dyn 585] (gas: 1)\n 30507: t0 = 1172, jump @1205\n      : @968 [@dyn 586] (gas: 32)\n 30513: ecalli 6 // 'hash_keccak_256'\n 30515: a3 = u64 [s1 + 0x120]\n 30519: a0 = u64 [a3]\n 30521: a1 = u64 [a3 + 0x8]\n 30524: a2 = u64 [a3 + 0x10]\n 30527: a3 = u64 [a3 + 0x18]\n 30530: a0 = reverse a0\n 30532: a1 = reverse a1\n 30534: a2 = reverse a2\n 30536: a3 = reverse a3\n 30538: a4 = a3 + 0x1\n 30541: a3 = a4 <u 0x1\n 30544: a3 = a3 + a2\n 30547: a2 = a4 | a3\n 30550: a2 = a2 <u 0x1\n 30553: a5 = a1 + a2\n 30556: a1 = a5 <u a1\n 30559: t0 = a0 + a1\n 30562: a1 = s1 + 0x100\n 30566: u64 [a1 + 0x20] = a4\n 30569: a2 = s1 + 0x30d8\n 30573: a0 = a2 + 0x400\n 30577: u64 [a0 + 0x48] = a4\n 30580: u64 [a1 + 0x18] = a3\n 30583: u64 [a0 + 0x50] = a3\n 30586: u64 [a1 + 0x10] = a5\n 30589: u64 [a0 + 0x58] = a5\n 30592: a0 = s1 + 0x3540\n 30596: a1 = s1 + 0x3520\n 30600: u64 [s1 + 0x108] = t0\n 30604: u64 [a2 + 0x460] = t0\n 30608: ra = 1174, jump @14\n      : @969 [@dyn 587] (gas: 12)\n 30614: a1 = s1 + 0x30d8\n 30618: a3 = a1 + 0x400\n 30622: a2 = u64 [a3 + 0x80]\n 30626: a0 = u64 [a3 + 0x78]\n 30629: a1 = u64 [a3 + 0x70]\n 30632: a3 = a0\n 30634: a4 = a2\n 30636: a0 = a0 | a2\n 30639: a2 = a1\n 30641: a1 = a1 <u 0x1\n 30644: a1 = 0 if a0 != 0\n 30646: jump @990 if a1 != 0\n      : @970 (gas: 8)\n 30650: a0 = s1 + 0x30d8\n 30654: u64 [a0 + 664] = 0\n 30658: u64 [a0 + 656] = 0\n 30662: u64 [a0 + 648] = 0\n 30666: a2 = a0\n 30668: t0 = 0x498\n 30672: a0 = 0x4e487b7100000000\n 30682: fallthrough\n      : @971 [@dyn 588] (gas: 4)\n 30683: a1 = s1 + 0x3360\n 30687: u64 [a2 + 0x2a0] = a0\n 30691: a0 = 0\n 30693: ra = 1178, jump @12\n      : @972 [@dyn 589] (gas: 9)\n 30699: a1 = s1 + 0x30d8\n 30703: u64 [a1 + 640] = 0\n 30707: u64 [a1 + 632] = 0\n 30711: u64 [a1 + 616] = 0x41\n 30716: a2 = a1\n 30718: a0 = 0x4\n 30721: a1 = s1 + 0x3340\n 30725: u64 [a2 + 624] = 0\n 30729: ra = 1180, jump @12\n      : @973 [@dyn 590] (gas: 3)\n 30735: a1 = 0x24\n 30738: a0 = 0\n 30740: ra = 1182, jump @0\n      : @974 [@dyn 591] (gas: 1)\n 30746: t0 = 1184, jump @1247\n      : @975 [@dyn 592] (gas: 2)\n 30752: ecalli 8 // 'seal_return'\n 30754: fallthrough\n      : @976 (gas: 11)\n 30755: a0 = u64 [s1 + 0x158]\n 30759: u64 [a2 + 0x48] = a0\n 30762: a0 = u64 [s1 + 0x150]\n 30766: u64 [a2 + 0x50] = a0\n 30769: a0 = u64 [s1 + 0x148]\n 30773: u64 [a2 + 0x58] = a0\n 30776: a1 = s1 + 0x3120\n 30780: a0 = u64 [s1 + 0x140]\n 30784: u64 [a2 + 0x60] = a0\n 30787: a0 = 0\n 30789: ra = 1186, jump @12\n      : @977 [@dyn 593] (gas: 3)\n 30795: t0 = 0x4a4\n 30799: a2 = s1 + 0x30d8\n 30803: fallthrough\n      : @978 [@dyn 594] (gas: 7)\n 30804: u64 [a2 + 64] = 0\n 30807: u64 [a2 + 56] = 0\n 30810: u64 [a2 + 40] = 0x6\n 30814: a0 = 0x20\n 30817: a1 = s1 + 0x3100\n 30821: u64 [a2 + 48] = 0\n 30824: ra = 1190, jump @12\n      : @979 [@dyn 595] (gas: 3)\n 30830: a1 = 0x40\n 30833: a0 = 0\n 30835: ra = 1192, jump @0\n      : @980 [@dyn 596] (gas: 1)\n 30841: t0 = 1194, jump @1205\n      : @981 [@dyn 597] (gas: 4)\n 30847: ra = 0x4ac\n 30851: ecalli 6 // 'hash_keccak_256'\n 30853: t0 = 0x4ae\n 30857: jump @1203\n      : @982 [@dyn 598] (gas: 1)\n 30860: t0 = 1198, jump @1203\n      : @983 [@dyn 599] (gas: 10)\n 30866: u64 [a2 + 32] = 0\n 30869: a0 = u64 [s1 + 0x128]\n 30873: u64 [a2 + 0x18] = a0\n 30876: a0 = u64 [s1 + 0x130]\n 30880: u64 [a2 + 0x10] = a0\n 30883: a1 = s1 + 0x30e0\n 30887: a0 = u64 [s1 + 0x138]\n 30891: u64 [a2 + 0x8] = a0\n 30894: a0 = 0\n 30896: ra = 1200, jump @12\n      : @984 [@dyn 600] (gas: 13)\n 30902: a0 = u64 [s1 + 0x108]\n 30906: a1 = s1 + 0x30d8\n 30910: u64 [a1] = a0\n 30912: a0 = u64 [s1 + 0x110]\n 30916: u64 [a1 + 0xfffffffffffffff8] = a0\n 30919: a0 = u64 [s1 + 0x118]\n 30923: u64 [a1 + 0xfffffffffffffff0] = a0\n 30926: a3 = a1\n 30928: a0 = 0x20\n 30931: a1 = s1 + 0x30c0\n 30935: a2 = u64 [s1 + 0x120]\n 30939: u64 [a3 + 0xffffffffffffffe8] = a2\n 30942: ra = 1202, jump @12\n      : @985 [@dyn 601] (gas: 3)\n 30948: a1 = 0x40\n 30951: a0 = 0\n 30953: ra = 1204, jump @0\n      : @986 [@dyn 602] (gas: 1)\n 30959: t0 = 1206, jump @1205\n      : @987 [@dyn 603] (gas: 23)\n 30965: ecalli 6 // 'hash_keccak_256'\n 30967: a3 = u64 [s1 + 0x120]\n 30971: a0 = u64 [a3 + 0x18]\n 30974: a1 = u64 [a3 + 0x10]\n 30977: a2 = u64 [a3 + 0x8]\n 30980: a3 = u64 [a3]\n 30982: a4 = reverse a0\n 30984: u64 [s1 + 0x120] = a4\n 30988: a1 = reverse a1\n 30990: u64 [s1 + 0x118] = a1\n 30994: a2 = reverse a2\n 30996: u64 [s1 + 0x110] = a2\n 31000: a3 = reverse a3\n 31002: u64 [s1 + 0x108] = a3\n 31006: a5 = s1 + 0x28d8\n 31010: u64 [a5 + 0x7c0] = a3\n 31014: a3 = a5 + 0x700\n 31018: u64 [a3 + 0xb8] = a2\n 31022: u64 [a3 + 0xb0] = a1\n 31026: a0 = s1 + 0x30a0\n 31030: a1 = s1 + 0x3080\n 31034: u64 [a3 + 0xa8] = a4\n 31038: ra = 1208, jump @14\n      : @988 [@dyn 604] (gas: 22)\n 31044: a4 = s1 + 0x28d8\n 31048: a5 = a4 + 0x700\n 31052: a0 = u64 [a5 + 0xd0]\n 31056: a1 = u64 [a5 + 0xd8]\n 31060: a2 = u64 [a5 + 0xc8]\n 31064: a3 = u64 [a5 + 0xe0]\n 31068: a2 = a2 & 0xffffffffffffff00\n 31072: u64 [a5 + 0x80] = a3\n 31076: u64 [a5 + 0x78] = a1\n 31079: u64 [a5 + 0x70] = a0\n 31082: u64 [a5 + 0x68] = a2\n 31085: a0 = u64 [s1 + 0x108]\n 31089: u64 [a5 + 0xa0] = a0\n 31093: a0 = u64 [s1 + 0x110]\n 31097: u64 [a5 + 0x98] = a0\n 31101: a0 = u64 [s1 + 0x118]\n 31105: u64 [a5 + 0x90] = a0\n 31109: a0 = s1 + 0x3060\n 31113: a1 = s1 + 0x3040\n 31117: a2 = u64 [s1 + 0x120]\n 31121: u64 [a5 + 0x88] = a2\n 31125: ra = 1210, jump @16\n      : @989 [@dyn 605] (gas: 34)\n 31131: a4 = s1 + 0x28d8\n 31135: u64 [a4 + 1824] = 0\n 31139: a5 = s1 + 0x100\n 31143: a0 = u64 [a5 + 0x28]\n 31146: u64 [a4 + 0x718] = a0\n 31150: a0 = u64 [a5 + 0x30]\n 31153: u64 [a4 + 0x710] = a0\n 31157: a0 = u64 [a5 + 0x38]\n 31160: u64 [a4 + 0x708] = a0\n 31164: a0 = u64 [a5 + 0x40]\n 31167: u64 [a4 + 0x740] = a0\n 31171: a0 = u64 [a5 + 0x48]\n 31174: u64 [a4 + 0x738] = a0\n 31178: a0 = u64 [a5 + 0x50]\n 31181: u64 [a4 + 0x730] = a0\n 31185: a0 = u64 [0x20030]\n 31190: a1 = u64 [0x20038]\n 31195: a2 = u64 [0x20040]\n 31200: a3 = u64 [a5 + 0x58]\n 31203: a5 = a4 + 0x700\n 31207: u64 [a5 + 0x28] = a3\n 31210: u64 [a5 + 0x60] = a0\n 31213: u64 [a5 + 0x58] = a1\n 31216: u64 [a5 + 0x50] = a2\n 31219: a1 = a4\n 31221: a0 = u64 [0x20048]\n 31226: a2 = s1 + 0x3020\n 31230: a3 = s1 + 0x3000\n 31234: a4 = s1 + 0x2fe0\n 31238: u64 [a1 + 0x748] = a0\n 31242: a0 = 0\n 31244: a1 = 0\n 31246: ra = 0x4d6\n 31250: jump @19\n      : @990 (gas: 32)\n 31253: t0 = s1 + 0x30d8\n 31257: a5 = t0 + 0x400\n 31261: a1 = u64 [a5 + 0x68]\n 31264: u64 [s1 + 0x100] = a1\n 31268: a0 = 0xffffffff\n 31278: u64 [s1 + 0xf8] = a0\n 31282: a0 = a1 + 0x1\n 31285: a1 = a0 <u 0x1\n 31288: u64 [s1 + 0xf0] = a2\n 31292: a1 = a1 + a2\n 31295: a2 = a0 | a1\n 31298: a2 = a2 <u 0x1\n 31301: u64 [s1 + 0xe8] = a3\n 31305: a2 = a2 + a3\n 31308: a3 = a2 <u a3\n 31311: u64 [s1 + 0xe0] = a4\n 31315: a3 = a3 + a4\n 31318: a4 = u64 [s1 + 0x120]\n 31322: u64 [a5 + 0x28] = a4\n 31325: u64 [a5 + 0x8] = a0\n 31328: a0 = u64 [s1 + 0x118]\n 31332: u64 [a5 + 0x30] = a0\n 31335: a0 = u64 [s1 + 0x110]\n 31339: u64 [a5 + 0x38] = a0\n 31342: u64 [a5 + 0x10] = a1\n 31345: a0 = u64 [s1 + 0x108]\n 31349: u64 [a5 + 0x40] = a0\n 31352: u64 [a5 + 0x18] = a2\n 31355: a0 = s1 + 0x3500\n 31359: a1 = s1 + 0x34e0\n 31363: u64 [a5 + 0x20] = a3\n 31366: ra = 1212, jump @16\n      : @991 [@dyn 606] (gas: 23)\n 31372: a0 = s1 + 0x30d8\n 31376: a1 = u64 [s1 + 0xe0]\n 31380: a2 = a0 + 0x300\n 31384: u64 [a2 + 0xa0] = a1\n 31388: a1 = u64 [s1 + 0xe8]\n 31392: u64 [a2 + 0x98] = a1\n 31396: a1 = u64 [s1 + 0xf0]\n 31400: u64 [a2 + 0x90] = a1\n 31404: a1 = u64 [s1 + 0x100]\n 31408: u64 [a2 + 0x88] = a1\n 31412: a1 = u64 [s1 + 0x108]\n 31416: u64 [a2 + 0xc0] = a1\n 31420: a1 = u64 [s1 + 0x110]\n 31424: u64 [a2 + 0xb8] = a1\n 31428: a1 = u64 [s1 + 0x118]\n 31432: u64 [a2 + 0xb0] = a1\n 31436: a4 = a0\n 31438: a0 = s1 + 0x34a0\n 31442: a1 = s1 + 0x3480\n 31446: a2 = s1 + 0x3460\n 31450: a3 = u64 [s1 + 0x120]\n 31454: u64 [a4 + 0x3a8] = a3\n 31458: ra = 1214, jump @1161\n      : @992 [@dyn 607] (gas: 26)\n 31464: a0 = s1 + 0x30d8\n 31468: a1 = u64 [a0 + 0x400]\n 31472: u64 [s1 + 0x118] = a1\n 31476: a5 = a0 + 0x300\n 31480: a1 = u64 [a5 + 0xf8]\n 31484: u64 [s1 + 0x110] = a1\n 31488: a1 = u64 [a5 + 0xf0]\n 31492: u64 [s1 + 0x108] = a1\n 31496: a1 = u64 [a5 + 0xe8]\n 31500: u64 [s1 + 0x120] = a1\n 31504: a2 = u64 [a5 + 0xc8]\n 31508: u64 [s1 + 0xd0] = a2\n 31512: a1 = u64 [a5 + 0xd0]\n 31516: u64 [s1 + 0xe8] = a1\n 31520: a3 = u64 [a5 + 0xd8]\n 31524: u64 [s1 + 0xe0] = a3\n 31528: a4 = u64 [a5 + 0xe0]\n 31532: u64 [s1 + 0xd8] = a4\n 31536: u64 [a5 + 0x60] = a4\n 31539: u64 [a5 + 0x58] = a3\n 31542: u64 [a5 + 0x50] = a1\n 31545: a3 = a0\n 31547: a0 = s1 + 0x3440\n 31551: a1 = s1 + 0x3420\n 31555: u64 [a3 + 0x348] = a2\n 31559: ra = 1216, jump @14\n      : @993 [@dyn 608] (gas: 26)\n 31565: a0 = s1 + 0x30d8\n 31569: a2 = a0 + 0x300\n 31573: a1 = u64 [a2 + 0x68]\n 31576: u64 [s1 + 0xc8] = a1\n 31580: a1 = u64 [a2 + 0x70]\n 31583: u64 [s1 + 0xc0] = a1\n 31587: a1 = u64 [a2 + 0x78]\n 31590: u64 [s1 + 0xb8] = a1\n 31594: a0 = u64 [a2 + 0x80]\n 31598: u64 [s1 + 0xb0] = a0\n 31602: a5 = u64 [s1 + 0x120]\n 31606: a0 = a5 >> 0x3d\n 31609: a2 = u64 [s1 + 0x108]\n 31613: a1 = a2 << 0x3\n 31616: a0 = a0 | a1\n 31619: a1 = a2 >> 0x3d\n 31622: a3 = u64 [s1 + 0x110]\n 31626: a2 = a3 << 0x3\n 31629: a1 = a1 | a2\n 31632: a2 = a3 >> 0x3d\n 31635: a3 = u64 [s1 + 0x118]\n 31639: a3 = a3 << 0x3\n 31642: a2 = a2 | a3\n 31645: a5 = a5 << 0x3\n 31648: u64 [s1 + 0x108] = a5\n 31652: t0 = 1218, jump @1221\n      : @994 [@dyn 609] (gas: 6)\n 31658: u64 [s1 + 0xf0] = a4\n 31662: i32 a2 = a5 + 0xffffffffffffff80\n 31665: u64 [s1 + 0x98] = a2\n 31669: a0 = u64 [s1 + 0x138]\n 31673: a1 = u64 [s1 + 0x130]\n 31677: ra = 1220, jump @1260\n      : @995 [@dyn 610] (gas: 8)\n 31683: u64 [s1 + 0xa8] = a0\n 31687: u64 [s1 + 0x118] = a1\n 31691: a0 = u64 [s1 + 0x120]\n 31695: i32 a2 = a0 << 0x3\n 31698: u64 [s1 + 0x110] = a2\n 31702: a0 = u64 [s1 + 0x128]\n 31706: a1 = 0\n 31708: ra = 1222, jump @1260\n      : @996 [@dyn 611] (gas: 8)\n 31714: u64 [s1 + 0x120] = a0\n 31718: u64 [s1 + 0xa0] = a1\n 31722: a1 = u64 [s1 + 0x108]\n 31726: i32 a2 = 0x80 - a1\n 31730: u64 [s1 + 0x90] = a2\n 31734: a0 = u64 [s1 + 0x138]\n 31738: a1 = u64 [s1 + 0x130]\n 31742: ra = 1224, jump @1255\n      : @997 [@dyn 612] (gas: 20)\n 31748: a3 = u64 [s1 + 0x120]\n 31752: a3 = a3 | a0\n 31755: a2 = u64 [s1 + 0x108]\n 31759: a4 = a2 <u 0x80\n 31763: u64 [s1 + 0x100] = a4\n 31767: a0 = u64 [s1 + 0xa8]\n 31771: a3 = a0 if a4 == 0\n 31774: a0 = u64 [s1 + 0x128]\n 31778: a3 = a0 if a2 == 0\n 31781: u64 [s1 + 0x120] = a3\n 31785: a0 = u64 [s1 + 0xa0]\n 31789: a0 = a0 | a1\n 31792: a1 = u64 [s1 + 0x118]\n 31796: a0 = a1 if a4 == 0\n 31799: a0 = 0 if a2 == 0\n 31801: u64 [s1 + 0x118] = a0\n 31805: a0 = u64 [s1 + 0x138]\n 31809: a1 = u64 [s1 + 0x130]\n 31813: a2 = u64 [s1 + 0x110]\n 31817: ra = 1226, jump @1260\n      : @998 [@dyn 613] (gas: 19)\n 31823: a2 = a1\n 31825: a1 = u64 [s1 + 0x100]\n 31829: a0 = 0 if a1 == 0\n 31831: a2 = 0 if a1 == 0\n 31833: a3 = u64 [s1 + 0xf0]\n 31837: a1 = u64 [s1 + 0x118]\n 31841: a1 = 0 if a3 != 0\n 31843: u64 [s1 + 0x118] = a1\n 31847: a1 = u64 [s1 + 0x120]\n 31851: a1 = 0 if a3 != 0\n 31853: u64 [s1 + 0x120] = a1\n 31857: a2 = 0 if a3 != 0\n 31859: u64 [s1 + 0xa8] = a2\n 31863: a0 = 0 if a3 != 0\n 31865: u64 [s1 + 0xa0] = a0\n 31869: a0 = 0xffffffffffffffff\n 31872: a1 = 0xffffffffffffffff\n 31875: a2 = u64 [s1 + 0x98]\n 31879: ra = 1228, jump @1260\n      : @999 [@dyn 614] (gas: 6)\n 31885: u64 [s1 + 0x88] = a0\n 31889: u64 [s1 + 0x98] = a1\n 31893: a0 = u64 [s1 + 0xf8]\n 31897: a1 = 0\n 31899: a2 = u64 [s1 + 0x110]\n 31903: ra = 1230, jump @1260\n      : @1000 [@dyn 615] (gas: 6)\n 31909: u64 [s1 + 0x78] = a0\n 31912: u64 [s1 + 0x80] = a1\n 31916: a0 = 0xffffffffffffffff\n 31919: a1 = 0xffffffffffffffff\n 31922: a2 = u64 [s1 + 0x90]\n 31926: ra = 1232, jump @1255\n      : @1001 [@dyn 616] (gas: 19)\n 31932: a4 = u64 [s1 + 0x78]\n 31935: a4 = a4 | a0\n 31938: a3 = u64 [s1 + 0x100]\n 31942: a0 = u64 [s1 + 0x88]\n 31946: a4 = a0 if a3 == 0\n 31949: a0 = u64 [s1 + 0xf8]\n 31953: a2 = u64 [s1 + 0x108]\n 31957: a4 = a0 if a2 == 0\n 31960: u64 [s1 + 0xf8] = a4\n 31964: a0 = u64 [s1 + 0x80]\n 31968: a1 = a1 | a0\n 31971: a0 = u64 [s1 + 0x98]\n 31975: a1 = a0 if a3 == 0\n 31978: a1 = 0 if a2 == 0\n 31980: u64 [s1 + 0x108] = a1\n 31984: a0 = 0xffffffffffffffff\n 31987: a1 = 0xffffffffffffffff\n 31990: a2 = u64 [s1 + 0x110]\n 31994: ra = 1234, jump @1260\n      : @1002 [@dyn 617] (gas: 47)\n 32000: a2 = u64 [s1 + 0x100]\n 32004: a0 = 0 if a2 == 0\n 32006: a1 = 0 if a2 == 0\n 32008: a2 = u64 [s1 + 0x108]\n 32012: a2 = a2 ^ 0xffffffffffffffff\n 32015: a3 = u64 [s1 + 0xf8]\n 32019: a3 = a3 ^ 0xffffffffffffffff\n 32022: a1 = a1 ^ 0xffffffffffffffff\n 32025: a0 = a0 ^ 0xffffffffffffffff\n 32028: a5 = u64 [s1 + 0xf0]\n 32032: a3 = 0xffffffffffffffff if a5 != 0\n 32035: a2 = 0xffffffffffffffff if a5 != 0\n 32038: a0 = 0xffffffffffffffff if a5 != 0\n 32041: a1 = 0xffffffffffffffff if a5 != 0\n 32044: a4 = u64 [s1 + 0xb0]\n 32048: a2 = a2 & a4\n 32051: a4 = u64 [s1 + 0xb8]\n 32055: a3 = a3 & a4\n 32058: a4 = u64 [s1 + 0xc0]\n 32062: a1 = a1 & a4\n 32065: a4 = u64 [s1 + 0xc8]\n 32069: a0 = a0 & a4\n 32072: a4 = u64 [s1 + 0x120]\n 32076: a3 = a3 | a4\n 32079: a4 = u64 [s1 + 0x118]\n 32083: a2 = a2 | a4\n 32086: a4 = u64 [s1 + 0xa0]\n 32090: a0 = a0 | a4\n 32093: a4 = u64 [s1 + 0xa8]\n 32097: a1 = a1 | a4\n 32100: a4 = s1 + 0x30d8\n 32104: a5 = u64 [s1 + 0xd8]\n 32108: u64 [a4 + 0x340] = a5\n 32112: a5 = u64 [s1 + 0xe0]\n 32116: u64 [a4 + 0x338] = a5\n 32120: a5 = u64 [s1 + 0xe8]\n 32124: u64 [a4 + 0x330] = a5\n 32128: a5 = u64 [s1 + 0xd0]\n 32132: u64 [a4 + 0x328] = a5\n 32136: a5 = a4 + 0x300\n 32140: u64 [a5 + 0x10] = a1\n 32143: u64 [a5 + 0x8] = a0\n 32146: u64 [a5 + 0x20] = a2\n 32149: a0 = s1 + 0x3400\n 32153: a1 = s1 + 0x33e0\n 32157: u64 [a5 + 0x18] = a3\n 32160: ra = 1236, jump @16\n      : @1003 [@dyn 618] (gas: 33)\n 32166: a4 = s1 + 0x30d8\n 32170: u64 [a4 + 704] = 0\n 32174: a5 = s1 + 0x100\n 32178: a0 = u64 [a5 + 0x28]\n 32181: u64 [a4 + 0x2b8] = a0\n 32185: a0 = u64 [a5 + 0x30]\n 32188: u64 [a4 + 0x2b0] = a0\n 32192: a0 = u64 [a5 + 0x38]\n 32195: u64 [a4 + 0x2a8] = a0\n 32199: a0 = u64 [a5 + 0x40]\n 32202: u64 [a4 + 0x2e0] = a0\n 32206: a0 = u64 [a5 + 0x48]\n 32209: u64 [a4 + 0x2d8] = a0\n 32213: a0 = u64 [a5 + 0x50]\n 32216: u64 [a4 + 0x2d0] = a0\n 32220: a0 = u64 [0x20010]\n 32225: a1 = u64 [0x20018]\n 32230: a2 = u64 [0x20020]\n 32235: a3 = u64 [a5 + 0x58]\n 32238: a5 = a4 + 0x200\n 32242: u64 [a5 + 0xc8] = a3\n 32246: u64 [a4 + 0x300] = a0\n 32250: u64 [a5 + 0xf8] = a1\n 32254: u64 [a5 + 0xf0] = a2\n 32258: a1 = a4\n 32260: a0 = u64 [0x20028]\n 32265: a2 = s1 + 0x33c0\n 32269: a3 = s1 + 0x33a0\n 32273: a4 = s1 + 0x3380\n 32277: u64 [a1 + 0x2e8] = a0\n 32281: a0 = 0\n 32283: a1 = 0\n 32285: ra = 1238, jump @19\n      : @1004 [@dyn 619] (gas: 3)\n 32291: a0 = 0\n 32293: a1 = 0\n 32295: ra = 1240, jump @0\n      : @1005 [@dyn 620] (gas: 7)\n 32301: i32 a1 = a0 + 0\n 32303: a0 = 0\n 32305: a2 = 0\n 32307: ecalli 8 // 'seal_return'\n 32309: t0 = 0x46c\n 32313: a2 = s1 + 0x30d8\n 32317: jump @948\n      : @1006 (gas: 6)\n 32320: u64 [s1 + 400] = 0\n 32324: u64 [s1 + 392] = 0\n 32328: u64 [s1 + 384] = 0\n 32332: t0 = 0x4da\n 32336: a0 = 0x4e487b7100000000\n 32346: fallthrough\n      : @1007 [@dyn 621] (gas: 4)\n 32347: a1 = s1 + 0x180\n 32351: u64 [s1 + 0x198] = a0\n 32355: a0 = 0\n 32357: ra = 1244, jump @12\n      : @1008 [@dyn 622] (gas: 8)\n 32363: u64 [s1 + 376] = 0\n 32367: u64 [s1 + 368] = 0\n 32371: u64 [s1 + 352] = 0x41\n 32376: a0 = 0x4\n 32379: a1 = s1 + 0x160\n 32383: u64 [s1 + 360] = 0\n 32387: ra = 0x49c\n 32391: jump @12\n      : @1009 (gas: 3)\n 32394: a0 = 0\n 32396: ra = 0x46a\n 32400: jump @0\n      : @1010 (gas: 6)\n 32403: u64 [s1 + 464] = 0\n 32407: u64 [s1 + 456] = 0\n 32411: u64 [s1 + 448] = 0\n 32415: t0 = 0x4de\n 32419: a0 = 0x4e487b7100000000\n 32429: fallthrough\n      : @1011 [@dyn 623] (gas: 4)\n 32430: a1 = s1 + 0x1c0\n 32434: u64 [s1 + 0x1d8] = a0\n 32438: a0 = 0\n 32440: ra = 1248, jump @12\n      : @1012 [@dyn 624] (gas: 8)\n 32446: u64 [s1 + 440] = 0\n 32450: u64 [s1 + 432] = 0\n 32454: u64 [s1 + 416] = 0x41\n 32459: a0 = 0x4\n 32462: a1 = s1 + 0x1a0\n 32466: u64 [s1 + 424] = 0\n 32470: ra = 0x49c\n 32474: jump @12\n      : @1013 (gas: 9)\n 32477: a0 = s1 + 0x7ff\n 32481: a0 = a0 + 0xd1\n 32485: u64 [a0 + 864] = 0\n 32489: u64 [a0 + 856] = 0\n 32493: u64 [a0 + 848] = 0\n 32497: a2 = a0\n 32499: t0 = 0x4e2\n 32503: a0 = 0x4e487b7100000000\n 32513: fallthrough\n      : @1014 [@dyn 625] (gas: 5)\n 32514: a1 = s1 + 0x7ff\n 32518: a1 = a1 + 0x421\n 32522: u64 [a2 + 0x368] = a0\n 32526: a0 = 0\n 32528: ra = 1252, jump @12\n      : @1015 [@dyn 626] (gas: 12)\n 32534: a0 = s1 + 0x7ff\n 32538: a0 = a0 + 0xd1\n 32542: u64 [a0 + 840] = 0\n 32546: u64 [a0 + 832] = 0\n 32550: u64 [a0 + 824] = 0\n 32554: a2 = a0\n 32556: a0 = 0x4\n 32559: a1 = s1 + 0x7ff\n 32563: a1 = a1 + 0x401\n 32567: u64 [a2 + 816] = 0\n 32571: ra = 0x49c\n 32575: jump @12\n      : @1016 (gas: 6)\n 32578: u64 [s1 + 528] = 0\n 32582: u64 [s1 + 520] = 0\n 32586: u64 [s1 + 512] = 0\n 32590: t0 = 0x4e6\n 32594: a0 = 0x4e487b7100000000\n 32604: fallthrough\n      : @1017 [@dyn 627] (gas: 4)\n 32605: a1 = s1 + 0x200\n 32609: u64 [s1 + 0x218] = a0\n 32613: a0 = 0\n 32615: ra = 1256, jump @12\n      : @1018 [@dyn 628] (gas: 8)\n 32621: u64 [s1 + 504] = 0\n 32625: u64 [s1 + 496] = 0\n 32629: u64 [s1 + 480] = 0x41\n 32634: a0 = 0x4\n 32637: a1 = s1 + 0x1e0\n 32641: u64 [s1 + 488] = 0\n 32645: ra = 0x49c\n 32649: jump @12\n      : @1019 (gas: 10)\n 32652: a0 = s1 + 0x20d8\n 32656: u64 [a0 + 1336] = 0\n 32660: u64 [a0 + 1328] = 0\n 32664: u64 [a0 + 1320] = 0\n 32668: a2 = a0\n 32670: a0 = 0x4e487b7100000000\n 32680: a1 = s1 + 0x2600\n 32684: u64 [a2 + 0x540] = a0\n 32688: a0 = 0\n 32690: ra = 1258, jump @12\n      : @1020 [@dyn 629] (gas: 10)\n 32696: a1 = s1 + 0x20d8\n 32700: u64 [a1 + 1312] = 0\n 32704: u64 [a1 + 1304] = 0\n 32708: u64 [a1 + 1288] = 0x41\n 32713: a2 = a1\n 32715: a0 = 0x4\n 32718: a1 = s1 + 0x25e0\n 32722: u64 [a2 + 1296] = 0\n 32726: ra = 0x49c\n 32730: jump @12\n      : @1021 (gas: 4)\n 32733: i32 a1 = a5 + 0\n 32735: u64 [s1 + 0x158] = a1\n 32739: a0 = u64 [s1 + 0xb8]\n 32743: ra = 1260, jump @0\n      : @1022 [@dyn 630] (gas: 5)\n 32749: i32 a1 = a0 + 0\n 32751: a0 = 0\n 32753: a2 = u64 [s1 + 0x158]\n 32757: ecalli 8 // 'seal_return'\n 32759: fallthrough\n      : @1023 (gas: 10)\n 32760: a0 = s1 + 0x20d8\n 32764: u64 [a0 + 1496] = 0\n 32768: u64 [a0 + 1488] = 0\n 32772: u64 [a0 + 1480] = 0\n 32776: a2 = a0\n 32778: a0 = 0x4e487b7100000000\n 32788: a1 = s1 + 0x26a0\n 32792: u64 [a2 + 0x5e0] = a0\n 32796: a0 = 0\n 32798: ra = 1262, jump @12\n      : @1024 [@dyn 631] (gas: 10)\n 32804: a1 = s1 + 0x20d8\n 32808: u64 [a1 + 1472] = 0\n 32812: u64 [a1 + 1464] = 0\n 32816: u64 [a1 + 1448] = 0x41\n 32821: a2 = a1\n 32823: a0 = 0x4\n 32826: a1 = s1 + 0x2680\n 32830: u64 [a2 + 1456] = 0\n 32834: ra = 0x49c\n 32838: jump @12\n      : @1025 (gas: 6)\n 32841: u64 [s1 + 688] = 0\n 32845: u64 [s1 + 680] = 0\n 32849: u64 [s1 + 672] = 0\n 32853: t0 = 0x4f0\n 32857: a0 = 0x4e487b7100000000\n 32867: fallthrough\n      : @1026 [@dyn 632] (gas: 4)\n 32868: a1 = s1 + 0x2a0\n 32872: u64 [s1 + 0x2b8] = a0\n 32876: a0 = 0\n 32878: ra = 1266, jump @12\n      : @1027 [@dyn 633] (gas: 8)\n 32884: u64 [s1 + 664] = 0\n 32888: u64 [s1 + 656] = 0\n 32892: u64 [s1 + 640] = 0x41\n 32897: a0 = 0x4\n 32900: a1 = s1 + 0x280\n 32904: u64 [s1 + 648] = 0\n 32908: ra = 0x49c\n 32912: jump @12\n      : @1028 (gas: 6)\n 32915: u64 [s1 + 816] = 0\n 32919: u64 [s1 + 808] = 0\n 32923: u64 [s1 + 800] = 0\n 32927: t0 = 0x4f4\n 32931: a0 = 0x4e487b7100000000\n 32941: fallthrough\n      : @1029 [@dyn 634] (gas: 4)\n 32942: a1 = s1 + 0x320\n 32946: u64 [s1 + 0x338] = a0\n 32950: a0 = 0\n 32952: ra = 1270, jump @12\n      : @1030 [@dyn 635] (gas: 8)\n 32958: u64 [s1 + 792] = 0\n 32962: u64 [s1 + 784] = 0\n 32966: u64 [s1 + 768] = 0x41\n 32971: a0 = 0x4\n 32974: a1 = s1 + 0x300\n 32978: u64 [s1 + 776] = 0\n 32982: ra = 0x49c\n 32986: jump @12\n      : @1031 (gas: 37)\n 32989: sp = sp + 0xffffffffffffff60\n 32993: u64 [sp + 0x98] = ra\n 32997: u64 [sp + 0x90] = s0\n 33001: u64 [sp + 0x88] = s1\n 33005: s0 = sp + 0xa0\n 33009: sp = sp & 0xffffffffffffffe0\n 33012: a4 = u64 [a1]\n 33014: s1 = u64 [a2 + 0x8]\n 33017: ra = u64 [a1 + 0x8]\n 33020: t1 = u64 [a2]\n 33022: a3 = a4 + 0x1f\n 33025: u64 [sp + 0x58] = a4\n 33028: t0 = a3 <u a4\n 33031: a5 = ra + t0\n 33034: u64 [sp + 0x40] = t1\n 33037: t1 = a3 <u t1\n 33040: a3 = a5 ^ s1\n 33043: u64 [sp + 0x48] = s1\n 33046: a4 = a5 <u s1\n 33049: a4 = t1 if a3 == 0\n 33052: t2 = u64 [a1 + 0x10]\n 33055: a3 = a5 <u ra\n 33058: a3 = t0 if t0 == 0\n 33061: t0 = u64 [a2 + 0x18]\n 33064: t1 = u64 [a1 + 0x18]\n 33067: s1 = u64 [a2 + 0x10]\n 33070: a3 = a3 + t2\n 33073: a1 = a3 <u t2\n 33076: a1 = a1 + t1\n 33079: a2 = a1 ^ t0\n 33082: a1 = a1 <s t0\n 33085: a5 = a3 <u s1\n 33088: a1 = a5 if a2 == 0\n 33091: a3 = a3 ^ s1\n 33094: a2 = a2 | a3\n 33097: a4 = a1 if a2 != 0\n 33100: jump @1038 if a4 == 0\n      : @1032 (gas: 14)\n 33104: u64 [sp + 0x28] = t0\n 33107: u64 [sp + 0x30] = s1\n 33110: u64 [sp + 0x38] = a0\n 33113: a0 = u64 [sp + 0x58]\n 33116: a0 = a0 | t2\n 33119: u64 [sp + 0x18] = t1\n 33122: a1 = ra | t1\n 33125: a0 = a0 | a1\n 33128: a0 = a0 >> 0x20\n 33131: u64 [sp + 0x20] = t2\n 33134: a1 = a1 | t2\n 33137: a1 = a1 << 0x20\n 33140: a0 = a0 | a1\n 33143: jump @1037 if a0 != 0\n      : @1033 (gas: 5)\n 33147: s1 = ra\n 33149: a1 = i32 [sp + 0x58]\n 33152: i32 a0 = sp + 0x60\n 33155: ecalli 1 // 'call_data_load'\n 33157: fallthrough\n      : @1034 (gas: 8)\n 33158: t2 = u64 [sp + 0x78]\n 33161: a0 = u64 [sp + 0x70]\n 33164: a2 = u64 [sp + 0x68]\n 33167: u64 [sp + 0x50] = a0\n 33170: a0 = a0 | t2\n 33173: a1 = a2 <u 0x1\n 33176: a1 = 0 if a0 != 0\n 33178: jump @1039 if a1 == 0\n      : @1035 (gas: 46)\n 33182: a1 = u64 [sp + 0x60]\n 33185: a0 = u64 [sp + 0x58]\n 33188: a4 = a0 + 0x20\n 33191: a3 = a4 <u a0\n 33194: t1 = s1 + a3\n 33197: u64 [sp + 0x8] = a1\n 33200: a1 = a1 + a4\n 33203: t0 = a1 <u a4\n 33206: u64 [sp + 0x10] = a2\n 33209: a2 = a2 + t1\n 33212: a2 = a2 + t0\n 33215: a5 = a2 ^ t1\n 33218: a0 = a2 <u t1\n 33221: a0 = t0 if a5 == 0\n 33224: a5 = t1 <u s1\n 33227: a5 = a3 if a3 == 0\n 33230: a3 = u64 [sp + 0x20]\n 33233: ra = a3 + a5\n 33236: s1 = ra <u a3\n 33239: t0 = u64 [sp + 0x18]\n 33242: t0 = t0 + s1\n 33245: s1 = u64 [sp + 0x48]\n 33248: a5 = a2 ^ s1\n 33251: a2 = s1 <u a2\n 33254: s1 = u64 [sp + 0x40]\n 33257: a1 = s1 <u a1\n 33260: a1 = a2 if a5 != 0\n 33263: a2 = u64 [sp + 0x50]\n 33266: a2 = a2 + ra\n 33269: a5 = a2 <u ra\n 33272: u64 [sp + 0x58] = t2\n 33275: s1 = t0 + t2\n 33278: a5 = a5 + s1\n 33281: a0 = a0 + a2\n 33284: a2 = a0 <u a2\n 33287: a2 = a2 + a5\n 33290: s1 = u64 [sp + 0x28]\n 33293: a5 = a2 ^ s1\n 33296: a2 = s1 <u a2\n 33299: t2 = u64 [sp + 0x30]\n 33302: s1 = t2 <u a0\n 33305: s1 = a2 if a5 != 0\n 33308: a0 = a0 ^ t2\n 33311: a0 = a0 | a5\n 33314: a1 = s1 if a0 != 0\n 33317: jump @1038 if a1 != 0\n      : @1036 (gas: 19)\n 33320: a0 = u64 [sp + 0x38]\n 33323: a1 = u64 [sp + 0x8]\n 33326: u64 [a0 + 0x20] = a1\n 33329: u64 [a0] = a4\n 33331: a1 = u64 [sp + 0x10]\n 33334: u64 [a0 + 0x28] = a1\n 33337: u64 [a0 + 0x8] = t1\n 33340: a1 = u64 [sp + 0x50]\n 33343: u64 [a0 + 0x30] = a1\n 33346: u64 [a0 + 0x10] = ra\n 33349: a1 = u64 [sp + 0x58]\n 33352: u64 [a0 + 0x38] = a1\n 33355: u64 [a0 + 0x18] = t0\n 33358: sp = s0 + 0xffffffffffffff60\n 33362: ra = u64 [sp + 0x98]\n 33366: s0 = u64 [sp + 0x90]\n 33370: s1 = u64 [sp + 0x88]\n 33374: sp = sp + 0xa0\n 33378: ret\n      : @1037 (gas: 1)\n 33380: trap\n      : @1038 (gas: 4)\n 33381: a0 = 0\n 33383: a1 = 0\n 33385: ra = 0x4f8\n 33389: jump @0\n      : @1039 (gas: 2)\n 33393: a0 = 0\n 33395: ra = 1272, jump @0\n      : @1040 [@dyn 636] (gas: 7)\n 33402: i32 a1 = a0 + 0\n 33404: a0 = 0x1\n 33407: a2 = 0\n 33409: ra = 0x4fa\n 33413: ecalli 8 // 'seal_return'\n 33415: t0 = 0x4fc\n 33419: jump @1252\n      : @1041 [@dyn 637] (gas: 1)\n 33422: t0 = 1276, jump @1252\n      : @1042 [@dyn 638] (gas: 5)\n 33428: a1 = 0x4\n 33431: ra = 0x4fe\n 33435: ecalli 1 // 'call_data_load'\n 33437: t0 = 0x500\n 33441: jump @1231\n      : @1043 [@dyn 639] (gas: 1)\n 33444: t0 = 1280, jump @1231\n      : @1044 [@dyn 640] (gas: 1)\n 33450: jump @1047 if a3 == 0\n      : @1045 (gas: 1)\n 33453: t0 = 1282, jump @1240\n      : @1046 [@dyn 641] (gas: 1)\n 33459: ret\n      : @1047 (gas: 3)\n 33461: a0 = 0\n 33463: a1 = 0\n 33465: ra = 1284, jump @0\n      : @1048 [@dyn 642] (gas: 7)\n 33472: i32 a1 = a0 + 0\n 33474: a0 = 0x1\n 33477: a2 = 0\n 33479: ra = 0x506\n 33483: ecalli 8 // 'seal_return'\n 33485: t0 = 0x508\n 33489: jump @1252\n      : @1049 [@dyn 643] (gas: 1)\n 33492: t0 = 1288, jump @1252\n      : @1050 [@dyn 644] (gas: 5)\n 33498: a1 = 0x24\n 33501: ra = 0x50a\n 33505: ecalli 1 // 'call_data_load'\n 33507: t0 = 0x50c\n 33511: jump @1231\n      : @1051 [@dyn 645] (gas: 1)\n 33514: t0 = 1292, jump @1231\n      : @1052 [@dyn 646] (gas: 1)\n 33520: jump @1055 if a3 == 0\n      : @1053 (gas: 1)\n 33523: t0 = 1294, jump @1240\n      : @1054 [@dyn 647] (gas: 1)\n 33529: ret\n      : @1055 (gas: 3)\n 33531: a0 = 0\n 33533: a1 = 0\n 33535: ra = 1296, jump @0\n      : @1056 [@dyn 648] (gas: 6)\n 33542: i32 a1 = a0 + 0\n 33544: a0 = 0x1\n 33547: a2 = 0\n 33549: ra = 0x512\n 33553: ecalli 8 // 'seal_return'\n 33555: fallthrough\n      : @1057 [@dyn 649] (gas: 18)\n 33556: sp = sp + 0xfffffffffffffeb0\n 33560: u64 [sp + 0x148] = ra\n 33564: u64 [sp + 0x140] = s0\n 33568: u64 [sp + 0x138] = s1\n 33572: s0 = sp + 0x150\n 33576: sp = sp & 0xfffffffffffffff0\n 33579: a4 = u64 [a1 + 0x10]\n 33582: t0 = u64 [a1 + 0x18]\n 33585: s1 = u64 [a1 + 0x8]\n 33588: a1 = u64 [a1]\n 33590: a5 = s1 | t0\n 33593: a3 = a1 | a4\n 33596: a3 = a3 | a5\n 33599: a3 = a3 >> 0x20\n 33602: a5 = a5 | a4\n 33605: a5 = a5 << 0x20\n 33608: a3 = a3 | a5\n 33611: jump @1074 if a3 != 0\n      : @1058 (gas: 14)\n 33615: u64 [sp + 0x18] = s1\n 33618: u64 [sp + 0x10] = t0\n 33621: u64 [sp + 0x60] = a4\n 33624: u64 [sp] = a0\n 33626: a0 = u64 [a2 + 0x18]\n 33629: u64 [sp + 0x68] = a0\n 33632: s1 = u64 [a2 + 0x10]\n 33635: a0 = u64 [a2 + 0x8]\n 33638: u64 [sp + 0x30] = a0\n 33641: a0 = u64 [a2]\n 33643: u64 [sp + 0x58] = a0\n 33646: a0 = sp + 0x110\n 33650: u64 [sp + 0x20] = a1\n 33653: ra = 1300, jump @10\n      : @1059 [@dyn 650] (gas: 13)\n 33660: a0 = u64 [sp + 0x58]\n 33663: a3 = a0\n 33665: a0 = a0 | s1\n 33668: a1 = u64 [sp + 0x68]\n 33671: a2 = u64 [sp + 0x30]\n 33674: a1 = a1 | a2\n 33677: a0 = a0 | a1\n 33680: a0 = a0 >> 0x20\n 33683: u64 [sp + 0x8] = s1\n 33686: a1 = a1 | s1\n 33689: a1 = a1 << 0x20\n 33692: a0 = a0 | a1\n 33695: jump @1074 if a0 != 0\n      : @1060 (gas: 14)\n 33699: a0 = u64 [sp + 0x128]\n 33703: a1 = u64 [sp + 0x120]\n 33707: a2 = u64 [sp + 0x118]\n 33711: s1 = u64 [sp + 0x110]\n 33715: u64 [sp + 0xf0] = s1\n 33719: u64 [sp + 0x40] = a2\n 33722: u64 [sp + 0xf8] = a2\n 33726: u64 [sp + 0x48] = a1\n 33729: u64 [sp + 0x100] = a1\n 33733: a1 = sp + 0xf0\n 33737: u64 [sp + 0x50] = a0\n 33740: u64 [sp + 0x108] = a0\n 33744: a0 = a3\n 33746: ra = 1302, jump @12\n      : @1061 [@dyn 651] (gas: 39)\n 33753: u64 [sp + 120] = 0\n 33756: u64 [sp + 112] = 0\n 33759: u64 [sp + 128] = 0\n 33763: u64 [sp + 136] = 0\n 33767: a1 = u64 [sp + 0x20]\n 33770: a0 = a1 + 0x20\n 33773: u64 [sp + 0x28] = a0\n 33776: a0 = a0 <u a1\n 33779: a2 = u64 [sp + 0x18]\n 33782: a1 = a2 + a0\n 33785: u64 [sp + 0x20] = a1\n 33788: a1 = a1 <u a2\n 33791: a1 = a0 if a0 == 0\n 33794: a0 = u64 [sp + 0x60]\n 33797: a1 = a1 + a0\n 33800: u64 [sp + 0x18] = a1\n 33803: a0 = a1 <u a0\n 33806: a1 = u64 [sp + 0x10]\n 33809: a0 = a0 + a1\n 33812: u64 [sp + 0x10] = a0\n 33815: a0 = u64 [sp + 0x58]\n 33818: t0 = a0 + 0x20\n 33821: a0 = t0 <u a0\n 33824: a1 = u64 [sp + 0x30]\n 33827: a2 = a1 + a0\n 33830: t1 = a2\n 33832: a1 = a2 <u a1\n 33835: a1 = a0 if a0 == 0\n 33838: a0 = u64 [sp + 0x8]\n 33841: a1 = a1 + a0\n 33844: u64 [sp + 0x30] = a1\n 33847: a0 = a1 <u a0\n 33850: t2 = u64 [sp + 0x68]\n 33853: t2 = t2 + a0\n 33856: u64 [sp + 0x38] = s1\n 33859: u64 [sp + 0x68] = t2\n 33862: u64 [sp + 0x58] = a2\n 33865: u64 [sp + 0x60] = t0\n 33868: fallthrough\n      : @1062 (gas: 19)\n 33869: a0 = u64 [sp + 0x78]\n 33872: a0 = a0 <u s1\n 33875: s1 = u64 [sp + 0x40]\n 33878: a2 = u64 [sp + 0x70]\n 33881: a1 = a2 ^ s1\n 33884: a2 = a2 <u s1\n 33887: a2 = a0 if a1 == 0\n 33890: a4 = u64 [sp + 0x48]\n 33893: a0 = u64 [sp + 0x80]\n 33897: ra = a0 <u a4\n 33900: a5 = u64 [sp + 0x50]\n 33903: a3 = u64 [sp + 0x88]\n 33907: a1 = a3 ^ a5\n 33910: a3 = a3 <u a5\n 33913: a3 = ra if a1 == 0\n 33916: a0 = a0 ^ a4\n 33919: a0 = a0 | a1\n 33922: a3 = a2 if a0 == 0\n 33925: jump @1070 if a3 == 0\n      : @1063 (gas: 30)\n 33929: a0 = u64 [sp + 0x28]\n 33932: a1 = u64 [sp + 0x78]\n 33935: a1 = a1 + a0\n 33938: a0 = a1 <u a0\n 33941: a4 = u64 [sp + 0x20]\n 33944: a2 = u64 [sp + 0x70]\n 33947: a2 = a2 + a4\n 33950: a2 = a2 + a0\n 33953: a3 = a2 ^ a4\n 33956: a4 = a2 <u a4\n 33959: a4 = a0 if a3 == 0\n 33962: a0 = u64 [sp + 0x80]\n 33966: a3 = u64 [sp + 0x18]\n 33969: a0 = a0 + a3\n 33972: a3 = a0 <u a3\n 33975: a5 = u64 [sp + 0x88]\n 33979: s1 = u64 [sp + 0x10]\n 33982: a5 = a5 + s1\n 33985: a3 = a3 + a5\n 33988: a4 = a4 + a0\n 33991: a0 = a4 <u a0\n 33994: a0 = a0 + a3\n 33997: a0 = a0 | a2\n 34000: a2 = a1 | a4\n 34003: a2 = a2 | a0\n 34006: a0 = a0 | a4\n 34009: a2 = a2 >> 0x20\n 34012: a0 = a0 << 0x20\n 34015: a0 = a0 | a2\n 34018: jump @1074 if a0 != 0\n      : @1064 (gas: 2)\n 34022: a0 = sp + 0xb0\n 34026: ra = 1304, jump @10\n      : @1065 [@dyn 652] (gas: 24)\n 34033: a1 = u64 [sp + 0x60]\n 34036: a0 = u64 [sp + 0x78]\n 34039: a0 = a0 + a1\n 34042: a1 = a0 <u a1\n 34045: a4 = u64 [sp + 0x58]\n 34048: a2 = u64 [sp + 0x70]\n 34051: a2 = a2 + a4\n 34054: a2 = a2 + a1\n 34057: a3 = a2 ^ a4\n 34060: a4 = a2 <u a4\n 34063: a4 = a1 if a3 == 0\n 34066: a3 = u64 [sp + 0x30]\n 34069: a1 = u64 [sp + 0x80]\n 34073: a1 = a1 + a3\n 34076: a3 = a1 <u a3\n 34079: a5 = u64 [sp + 0x68]\n 34082: s1 = u64 [sp + 0x88]\n 34086: a5 = a5 + s1\n 34089: a3 = a3 + a5\n 34092: a4 = a4 + a1\n 34095: a1 = a4 <u a1\n 34098: a1 = a1 + a3\n 34101: a1 = a1 | a2\n 34104: t0 = 1306, jump @1235\n      : @1066 [@dyn 653] (gas: 2)\n 34110: s1 = u64 [sp + 0x38]\n 34113: jump @1074 if a1 != 0\n      : @1067 (gas: 10)\n 34117: a2 = u64 [sp + 0xc8]\n 34121: a1 = u64 [sp + 0xc0]\n 34125: a3 = u64 [sp + 0xb8]\n 34129: a4 = u64 [sp + 0xb0]\n 34133: u64 [sp + 0x90] = a4\n 34137: u64 [sp + 0x98] = a3\n 34141: u64 [sp + 0xa0] = a1\n 34145: a1 = sp + 0x90\n 34149: u64 [sp + 0xa8] = a2\n 34153: ra = 1308, jump @12\n      : @1068 [@dyn 654] (gas: 5)\n 34160: a1 = u64 [sp + 0x78]\n 34163: a0 = a1 + 0x20\n 34166: a1 = a0 <u a1\n 34169: a3 = u64 [sp + 0x70]\n 34172: t0 = 1310, jump @1243\n      : @1069 [@dyn 655] (gas: 13)\n 34178: a1 = u64 [sp + 0x80]\n 34182: a3 = a3 + a1\n 34185: a1 = a3 <u a1\n 34188: a4 = u64 [sp + 0x88]\n 34192: a4 = a4 + a1\n 34195: u64 [sp + 0x88] = a4\n 34199: u64 [sp + 0x78] = a0\n 34202: u64 [sp + 0x70] = a2\n 34205: u64 [sp + 0x80] = a3\n 34209: t2 = u64 [sp + 0x68]\n 34212: t1 = u64 [sp + 0x58]\n 34215: t0 = u64 [sp + 0x60]\n 34218: jump @1062\n      : @1070 (gas: 24)\n 34221: a0 = u64 [sp + 0x38]\n 34224: a0 = a0 + t0\n 34227: a1 = a0 <u t0\n 34230: a2 = t1 + s1\n 34233: a2 = a2 + a1\n 34236: t0 = a2 ^ t1\n 34239: a3 = a2 <u t1\n 34242: a3 = a1 if t0 == 0\n 34245: t0 = u64 [sp + 0x30]\n 34248: a1 = t0 + a4\n 34251: t0 = a1 <u t0\n 34254: a5 = a5 + t2\n 34257: a5 = a5 + t0\n 34260: a3 = a3 + a1\n 34263: a1 = a3 <u a1\n 34266: a1 = a1 + a5\n 34269: a1 = a1 | a2\n 34272: a2 = a0 | a3\n 34275: a2 = a2 | a1\n 34278: a1 = a1 | a3\n 34281: a2 = a2 >> 0x20\n 34284: a1 = a1 << 0x20\n 34287: a1 = a1 | a2\n 34290: jump @1074 if a1 != 0\n      : @1071 (gas: 7)\n 34294: s1 = t1\n 34296: u64 [sp + 232] = 0\n 34300: u64 [sp + 224] = 0\n 34304: u64 [sp + 216] = 0\n 34308: a1 = sp + 0xd0\n 34312: u64 [sp + 208] = 0\n 34316: ra = 1312, jump @12\n      : @1072 [@dyn 656] (gas: 5)\n 34323: a1 = u64 [sp + 0x38]\n 34326: a0 = a1 + 0x1f\n 34329: a1 = a0 <u a1\n 34332: a3 = u64 [sp + 0x40]\n 34335: t0 = 1314, jump @1243\n      : @1073 [@dyn 657] (gas: 34)\n 34341: a1 = u64 [sp + 0x48]\n 34344: a3 = a3 + a1\n 34347: a1 = a3 <u a1\n 34350: a4 = u64 [sp + 0x50]\n 34353: a1 = a1 + a4\n 34356: a0 = a0 & 0xffffffffffffffe0\n 34359: a4 = u64 [sp + 0x60]\n 34362: a0 = a0 + a4\n 34365: a4 = a0 <u a4\n 34368: a2 = a2 + s1\n 34371: a2 = a2 + a4\n 34374: a5 = a2 ^ s1\n 34377: s1 = a2 <u s1\n 34380: s1 = a4 if a5 == 0\n 34383: a5 = u64 [sp + 0x30]\n 34386: a3 = a3 + a5\n 34389: s1 = s1 + a3\n 34392: a4 = s1 <u a3\n 34395: a3 = a3 <u a5\n 34398: a5 = u64 [sp + 0x68]\n 34401: a1 = a1 + a5\n 34404: a1 = a1 + a3\n 34407: a1 = a1 + a4\n 34410: a3 = u64 [sp]\n 34412: u64 [a3] = a0\n 34414: u64 [a3 + 0x8] = a2\n 34417: u64 [a3 + 0x10] = s1\n 34420: u64 [a3 + 0x18] = a1\n 34423: sp = s0 + 0xfffffffffffffeb0\n 34427: ra = u64 [sp + 0x148]\n 34431: s0 = u64 [sp + 0x140]\n 34435: s1 = u64 [sp + 0x138]\n 34439: sp = sp + 0x150\n 34443: ret\n      : @1074 (gas: 1)\n 34445: trap\n      : @1075 (gas: 33)\n 34446: sp = sp + 0xffffffffffffffa0\n 34449: u64 [sp + 0x58] = ra\n 34452: u64 [sp + 0x50] = s0\n 34455: u64 [sp + 0x48] = s1\n 34458: s0 = sp + 0x60\n 34461: sp = sp & 0xfffffffffffffff0\n 34464: a2 = u64 [a1 + 0x10]\n 34467: a5 = u64 [a1 + 0x8]\n 34470: a4 = u64 [a1]\n 34472: a1 = u64 [a1 + 0x18]\n 34475: t0 = a2 << 0x3f\n 34478: a3 = a5 >> 0x1\n 34481: t0 = a3 | t0\n 34484: a3 = a1 << 0x3f\n 34487: a2 = a2 >> 0x1\n 34490: a3 = a3 | a2\n 34493: a5 = a5 << 0x3f\n 34496: a2 = a4 >> 0x1\n 34499: a5 = a5 | a2\n 34502: t1 = a1 >> 0x1\n 34505: a4 = a4 & 0x1\n 34508: a1 = -a4\n 34510: s1 = a4 <u 0x1\n 34513: a2 = a5 & 0x7f\n 34516: t2 = a1 & a3\n 34519: a3 = a1 & t0\n 34522: a2 = a5 if a4 != 0\n 34525: a4 = a1 & t1\n 34528: a1 = a2 <u 0x20\n 34531: a1 = 0 if a3 != 0\n 34533: a5 = t2 | a4\n 34536: a1 = 0 if a5 != 0\n 34538: jump @1078 if s1 != a1\n      : @1076 (gas: 5)\n 34541: u64 [a0] = a2\n 34543: u64 [a0 + 0x8] = a3\n 34546: u64 [a0 + 0x10] = t2\n 34549: u64 [a0 + 0x18] = a4\n 34552: t0 = 1316, jump @1236\n      : @1077 [@dyn 658] (gas: 1)\n 34558: ret\n      : @1078 (gas: 1)\n 34560: t0 = 1318, jump @1220\n      : @1079 [@dyn 659] (gas: 1)\n 34566: ra = 1320, jump @12\n      : @1080 [@dyn 660] (gas: 7)\n 34573: u64 [sp + 24] = 0\n 34576: u64 [sp + 16] = 0\n 34579: u64 [sp + 0] = 0x22\n 34582: a0 = 0x4\n 34585: a1 = sp\n 34587: u64 [sp + 8] = 0\n 34590: ra = 1322, jump @12\n      : @1081 [@dyn 661] (gas: 3)\n 34597: a1 = 0x24\n 34600: a0 = 0\n 34602: ra = 1324, jump @0\n      : @1082 [@dyn 662] (gas: 1)\n 34609: t0 = 1326, jump @1247\n      : @1083 [@dyn 663] (gas: 3)\n 34615: ra = 0x530\n 34619: ecalli 8 // 'seal_return'\n 34621: fallthrough\n      : @1084 [@dyn 664] (gas: 31)\n 34622: sp = sp + 0xfffffffffffffe00\n 34626: u64 [sp + 0x1f8] = ra\n 34630: u64 [sp + 0x1f0] = s0\n 34634: u64 [sp + 0x1e8] = s1\n 34638: s0 = sp + 0x200\n 34642: sp = sp & 0xffffffffffffffe0\n 34645: s1 = sp\n 34647: a3 = u64 [a2 + 0x10]\n 34650: u64 [s1 + 0x90] = a3\n 34654: a3 = u64 [a2]\n 34656: u64 [s1 + 0x98] = a3\n 34660: a3 = u64 [a2 + 0x18]\n 34663: u64 [s1 + 0x88] = a3\n 34667: a2 = u64 [a2 + 0x8]\n 34670: u64 [s1 + 0x80] = a2\n 34674: a2 = u64 [a1]\n 34676: a3 = u64 [a1 + 0x8]\n 34679: a4 = u64 [a1 + 0x10]\n 34682: a1 = u64 [a1 + 0x18]\n 34685: u64 [s1 + 0x18] = a0\n 34688: u64 [s1 + 0x70] = a1\n 34691: u64 [s1 + 0x1b8] = a1\n 34695: u64 [s1 + 0x38] = a4\n 34698: u64 [s1 + 0x1b0] = a4\n 34702: u64 [s1 + 0x60] = a3\n 34705: u64 [s1 + 0x1a8] = a3\n 34709: a0 = s1 + 0x1c0\n 34713: a1 = s1 + 0x1a0\n 34717: u64 [s1 + 0x68] = a2\n 34720: u64 [s1 + 0x1a0] = a2\n 34724: ra = 1330, jump @14\n      : @1085 [@dyn 665] (gas: 16)\n 34731: a4 = s1 + 0x100\n 34735: a0 = u64 [a4 + 0xd8]\n 34739: a1 = u64 [a4 + 0xd0]\n 34743: a2 = u64 [a4 + 0xc8]\n 34747: a3 = u64 [a4 + 0xc0]\n 34751: u64 [s1 + 0x30] = a0\n 34754: u64 [a4 + 0x78] = a0\n 34757: u64 [s1 + 0x28] = a1\n 34760: u64 [a4 + 0x70] = a1\n 34763: u64 [s1 + 0x20] = a2\n 34766: u64 [a4 + 0x68] = a2\n 34769: a0 = s1 + 0x180\n 34773: a1 = s1 + 0x160\n 34777: u64 [s1 + 0x78] = a3\n 34780: u64 [a4 + 0x60] = a3\n 34783: ra = 1332, jump @1075\n      : @1086 [@dyn 666] (gas: 12)\n 34789: a0 = u64 [s1 + 0x88]\n 34793: a1 = u64 [s1 + 0x80]\n 34797: a0 = a0 | a1\n 34800: a2 = u64 [s1 + 0x90]\n 34804: a1 = u64 [s1 + 0x98]\n 34808: a1 = a1 | a2\n 34811: a1 = a1 | a0\n 34814: a1 = a1 >> 0x20\n 34817: a0 = a0 | a2\n 34820: a0 = a0 << 0x20\n 34823: a0 = a0 | a1\n 34826: jump @1104 if a0 != 0\n      : @1087 (gas: 16)\n 34830: a4 = s1 + 0x100\n 34834: a0 = u64 [a4 + 0x98]\n 34838: a2 = u64 [a4 + 0x90]\n 34842: a1 = u64 [a4 + 0x88]\n 34846: a3 = u64 [a4 + 0x80]\n 34850: u64 [s1 + 0x40] = a3\n 34853: u64 [a4 + 0x40] = a3\n 34856: u64 [s1 + 0x50] = a1\n 34859: u64 [a4 + 0x48] = a1\n 34862: u64 [s1 + 0x48] = a2\n 34865: u64 [a4 + 0x50] = a2\n 34868: a1 = s1 + 0x140\n 34872: u64 [s1 + 0x58] = a0\n 34875: u64 [a4 + 0x58] = a0\n 34878: a0 = u64 [s1 + 0x98]\n 34882: ra = 1334, jump @12\n      : @1088 [@dyn 667] (gas: 3)\n 34889: a3 = u64 [s1 + 0x78]\n 34892: a0 = a3 & 0x1\n 34895: jump @1092 if a0 != 0\n      : @1089 (gas: 10)\n 34899: a0 = u64 [s1 + 0x88]\n 34903: a1 = u64 [s1 + 0x90]\n 34907: a0 = a0 | a1\n 34910: a1 = 0xffffffe0\n 34920: a2 = u64 [s1 + 0x98]\n 34924: a1 = a2 <u a1\n 34927: a2 = u64 [s1 + 0x80]\n 34931: a1 = 0 if a2 != 0\n 34933: a1 = 0 if a0 != 0\n 34935: jump @1104 if a1 == 0\n      : @1090 (gas: 12)\n 34939: a1 = a3 & 0xffffffffffffff00\n 34943: a0 = u64 [s1 + 0x98]\n 34947: i32 a0 = a0 + 0x20\n 34950: a2 = u64 [s1 + 0x20]\n 34953: u64 [s1 + 0xa8] = a2\n 34957: u64 [s1 + 0xa0] = a1\n 34961: a1 = u64 [s1 + 0x28]\n 34964: u64 [s1 + 0xb0] = a1\n 34968: a1 = s1 + 0xa0\n 34972: a2 = u64 [s1 + 0x30]\n 34975: u64 [s1 + 0xb8] = a2\n 34979: ra = 1336, jump @12\n      : @1091 [@dyn 668] (gas: 27)\n 34986: a5 = 0\n 34988: t2 = 0\n 34990: t0 = 0\n 34992: a0 = u64 [s1 + 0x48]\n 34995: a1 = u64 [s1 + 0x40]\n 34998: a0 = a0 | a1\n 35001: a1 = u64 [s1 + 0x58]\n 35004: a2 = u64 [s1 + 0x50]\n 35007: a1 = a1 | a2\n 35010: a0 = a0 | a1\n 35013: a1 = u64 [s1 + 0x98]\n 35017: a3 = a1 + 0x20\n 35020: a1 = a3 <u a1\n 35023: a2 = u64 [s1 + 0x80]\n 35027: a4 = a2 + a1\n 35030: a2 = a4 <u a2\n 35033: a2 = a1 if a1 == 0\n 35036: a1 = u64 [s1 + 0x90]\n 35040: a2 = a2 + a1\n 35043: u64 [s1 + 0x38] = a2\n 35046: a1 = a2 <u a1\n 35049: a2 = u64 [s1 + 0x88]\n 35053: a1 = a1 + a2\n 35056: u64 [s1 + 0x30] = a1\n 35059: a0 = a0 >u 0\n 35061: a0 = a0 << 0x5\n 35064: jump @1103\n      : @1092 (gas: 12)\n 35067: a0 = u64 [s1 + 0x68]\n 35070: a2 = s1 + 0x100\n 35074: u64 [a2 + 0x20] = a0\n 35077: a0 = u64 [s1 + 0x60]\n 35080: u64 [a2 + 0x28] = a0\n 35083: a0 = u64 [s1 + 0x38]\n 35086: u64 [a2 + 0x30] = a0\n 35089: a1 = s1 + 0x120\n 35093: a0 = u64 [s1 + 0x70]\n 35096: u64 [a2 + 0x38] = a0\n 35099: a0 = 0\n 35101: ra = 1338, jump @12\n      : @1093 [@dyn 669] (gas: 3)\n 35108: a1 = 0x20\n 35111: a0 = 0\n 35113: ra = 1340, jump @0\n      : @1094 [@dyn 670] (gas: 4)\n 35120: a1 = sp + 0xffffffffffffffe0\n 35123: a1 = a1 & 0xffffffffffffffe0\n 35126: u64 [s1 + 0x78] = a1\n 35129: t0 = 1342, jump @1215\n      : @1095 [@dyn 671] (gas: 33)\n 35135: ecalli 6 // 'hash_keccak_256'\n 35137: a5 = 0\n 35139: t2 = 0\n 35141: t0 = 0\n 35143: a0 = u64 [s1 + 0x98]\n 35147: a1 = a0 + 0x20\n 35150: u64 [s1 + 0x28] = a1\n 35153: a0 = a1 <u a0\n 35156: a1 = u64 [s1 + 0x80]\n 35160: a2 = a1 + a0\n 35163: u64 [s1 + 0x20] = a2\n 35166: a1 = a2 <u a1\n 35169: a1 = a0 if a0 == 0\n 35172: a0 = u64 [s1 + 0x90]\n 35176: a1 = a1 + a0\n 35179: u64 [s1 + 0x38] = a1\n 35182: a0 = a1 <u a0\n 35185: a1 = u64 [s1 + 0x88]\n 35189: a0 = a0 + a1\n 35192: u64 [s1 + 0x30] = a0\n 35195: a3 = u64 [s1 + 0x78]\n 35198: a0 = u64 [a3]\n 35200: a1 = u64 [a3 + 0x8]\n 35203: a2 = u64 [a3 + 0x10]\n 35206: a3 = u64 [a3 + 0x18]\n 35209: a0 = reverse a0\n 35211: u64 [s1 + 0x90] = a0\n 35215: t1 = reverse a1\n 35217: a1 = 0\n 35219: a0 = reverse a2\n 35221: u64 [s1 + 0x88] = a0\n 35225: ra = reverse a3\n 35227: fallthrough\n      : @1096 (gas: 17)\n 35228: u64 [s1 + 0x98] = a1\n 35232: a0 = u64 [s1 + 0x40]\n 35235: a0 = a1 <u a0\n 35238: a2 = u64 [s1 + 0x50]\n 35241: a1 = a5 ^ a2\n 35244: a2 = a5 <u a2\n 35247: a2 = a0 if a1 == 0\n 35250: a4 = u64 [s1 + 0x48]\n 35253: a0 = t2 <u a4\n 35256: a3 = u64 [s1 + 0x58]\n 35259: a1 = t0 ^ a3\n 35262: a3 = t0 <u a3\n 35265: a3 = a0 if a1 == 0\n 35268: a0 = t2 ^ a4\n 35271: a0 = a0 | a1\n 35274: a3 = a2 if a0 == 0\n 35277: jump @1102 if a3 == 0\n      : @1097 (gas: 16)\n 35281: a0 = ra\n 35283: u64 [s1 + 0x60] = a0\n 35286: u64 [s1 + 0xe0] = a0\n 35290: a0 = u64 [s1 + 0x88]\n 35294: u64 [s1 + 0xe8] = a0\n 35298: a0 = t1\n 35300: u64 [s1 + 0x68] = a0\n 35303: u64 [s1 + 0xf0] = a0\n 35307: a0 = s1 + 0x100\n 35311: a1 = s1 + 0xe0\n 35315: a2 = u64 [s1 + 0x90]\n 35319: u64 [s1 + 0xf8] = a2\n 35323: u64 [s1 + 0x80] = t0\n 35327: u64 [s1 + 0x78] = t2\n 35330: u64 [s1 + 0x70] = a5\n 35333: ra = 1344, jump @14\n      : @1098 [@dyn 672] (gas: 24)\n 35340: a1 = u64 [s1 + 0x28]\n 35343: a0 = u64 [s1 + 0x98]\n 35347: a0 = a0 + a1\n 35350: a1 = a0 <u a1\n 35353: a4 = u64 [s1 + 0x20]\n 35356: a2 = u64 [s1 + 0x70]\n 35359: a2 = a2 + a4\n 35362: a2 = a2 + a1\n 35365: a3 = a2 ^ a4\n 35368: a4 = a2 <u a4\n 35371: a4 = a1 if a3 == 0\n 35374: a3 = u64 [s1 + 0x38]\n 35377: a1 = u64 [s1 + 0x78]\n 35380: a1 = a1 + a3\n 35383: t0 = a1 <u a3\n 35386: a5 = u64 [s1 + 0x30]\n 35389: a3 = u64 [s1 + 0x80]\n 35393: a5 = a5 + a3\n 35396: a3 = a5 + t0\n 35399: a4 = a4 + a1\n 35402: a1 = a4 <u a1\n 35405: a1 = a1 + a3\n 35408: a1 = a1 | a2\n 35411: t0 = 1346, jump @1235\n      : @1099 [@dyn 673] (gas: 1)\n 35417: jump @1104 if a1 != 0\n      : @1100 (gas: 11)\n 35421: a5 = s1 + 0x100\n 35425: a2 = u64 [a5 + 0x18]\n 35428: a1 = u64 [a5 + 0x10]\n 35431: a3 = u64 [a5 + 0x8]\n 35434: a4 = u64 [a5]\n 35436: u64 [s1 + 0xc0] = a4\n 35440: u64 [s1 + 0xc8] = a3\n 35444: u64 [s1 + 0xd0] = a1\n 35448: a1 = s1 + 0xc0\n 35452: u64 [s1 + 0xd8] = a2\n 35456: ra = 1348, jump @12\n      : @1101 [@dyn 674] (gas: 30)\n 35463: a1 = u64 [s1 + 0x60]\n 35466: a1 = a1 + 0x1\n 35469: a0 = a1 <u 0x1\n 35472: a2 = u64 [s1 + 0x88]\n 35476: a2 = a2 + a0\n 35479: u64 [s1 + 0x88] = a2\n 35483: ra = a1\n 35485: a0 = a1 | a2\n 35488: a0 = a0 <u 0x1\n 35491: a1 = u64 [s1 + 0x68]\n 35494: t1 = a1 + a0\n 35497: a1 = t1 <u a1\n 35500: a2 = u64 [s1 + 0x90]\n 35504: a2 = a2 + a1\n 35507: u64 [s1 + 0x90] = a2\n 35511: a2 = u64 [s1 + 0x98]\n 35515: a1 = a2 + 0x20\n 35518: a2 = a1 <u a2\n 35521: a4 = u64 [s1 + 0x70]\n 35524: a3 = a4 + a2\n 35527: a4 = a3 <u a4\n 35530: a4 = a2 if a2 == 0\n 35533: a2 = u64 [s1 + 0x78]\n 35536: a4 = a4 + a2\n 35539: a2 = a4 <u a2\n 35542: t0 = u64 [s1 + 0x80]\n 35546: t0 = t0 + a2\n 35549: a5 = a3\n 35551: t2 = a4\n 35553: jump @1096\n      : @1102 (gas: 4)\n 35556: a3 = u64 [s1 + 0x28]\n 35559: a4 = u64 [s1 + 0x20]\n 35562: a0 = u64 [s1 + 0x98]\n 35566: fallthrough\n      : @1103 (gas: 27)\n 35567: a0 = a0 + a3\n 35570: a1 = a0 <u a3\n 35573: a2 = a4 + a5\n 35576: a2 = a2 + a1\n 35579: a3 = a2 ^ a4\n 35582: a4 = a2 <u a4\n 35585: a4 = a1 if a3 == 0\n 35588: a5 = u64 [s1 + 0x38]\n 35591: a1 = a5 + t2\n 35594: a4 = a4 + a1\n 35597: a3 = a4 <u a1\n 35600: a1 = a1 <u a5\n 35603: a5 = u64 [s1 + 0x30]\n 35606: a5 = a5 + t0\n 35609: a1 = a1 + a5\n 35612: a1 = a1 + a3\n 35615: a3 = u64 [s1 + 0x18]\n 35618: u64 [a3] = a0\n 35620: u64 [a3 + 0x8] = a2\n 35623: u64 [a3 + 0x10] = a4\n 35626: u64 [a3 + 0x18] = a1\n 35629: sp = s0 + 0xfffffffffffffe00\n 35633: ra = u64 [sp + 0x1f8]\n 35637: s0 = u64 [sp + 0x1f0]\n 35641: s1 = u64 [sp + 0x1e8]\n 35645: sp = sp + 0x200\n 35649: ret\n      : @1104 (gas: 1)\n 35651: trap\n      : @1105 [@dyn 675] (gas: 4)\n 35652: a5 = a3 <u 0xffffffffffffff80\n 35655: a5 = 0 if a0 != 0\n 35657: a5 = 0 if a4 != 0\n 35659: jump @1109 if a5 == 0\n      : @1106 (gas: 2)\n 35662: a4 = a3 + 0x80\n 35666: t0 = 1352, jump @1219\n      : @1107 [@dyn 676] (gas: 1)\n 35672: ra = 1354, jump @12\n      : @1108 [@dyn 677] (gas: 5)\n 35679: sp = s0 + 0xffffffffffffff90\n 35682: ra = u64 [sp + 0x68]\n 35685: s0 = u64 [sp + 0x60]\n 35688: sp = sp + 0x70\n 35691: ret\n      : @1109 (gas: 1)\n 35693: t0 = 1356, jump @1220\n      : @1110 [@dyn 678] (gas: 1)\n 35699: ra = 1358, jump @12\n      : @1111 [@dyn 679] (gas: 7)\n 35706: u64 [sp + 24] = 0\n 35709: u64 [sp + 16] = 0\n 35712: u64 [sp + 0] = 0x41\n 35715: a0 = 0x4\n 35718: a1 = sp\n 35720: u64 [sp + 8] = 0\n 35723: ra = 1360, jump @12\n      : @1112 [@dyn 680] (gas: 3)\n 35730: a1 = 0x24\n 35733: a0 = 0\n 35735: ra = 1362, jump @0\n      : @1113 [@dyn 681] (gas: 1)\n 35742: t0 = 1364, jump @1247\n      : @1114 [@dyn 682] (gas: 4)\n 35748: ra = 0x556\n 35752: ecalli 8 // 'seal_return'\n 35754: t0 = 0x558\n 35758: jump @1237\n      : @1115 [@dyn 683] (gas: 1)\n 35761: t0 = 1368, jump @1237\n      : @1116 [@dyn 684] (gas: 4)\n 35767: a5 = a3 <u 0xffffffffffffffc0\n 35770: a5 = 0 if a0 != 0\n 35772: a5 = 0 if a4 != 0\n 35774: jump @1120 if a5 == 0\n      : @1117 (gas: 2)\n 35777: a4 = a3 + 0x40\n 35780: t0 = 1370, jump @1219\n      : @1118 [@dyn 685] (gas: 1)\n 35786: ra = 1372, jump @12\n      : @1119 [@dyn 686] (gas: 5)\n 35793: sp = s0 + 0xffffffffffffff90\n 35796: ra = u64 [sp + 0x68]\n 35799: s0 = u64 [sp + 0x60]\n 35802: sp = sp + 0x70\n 35805: ret\n      : @1120 (gas: 1)\n 35807: t0 = 1374, jump @1220\n      : @1121 [@dyn 687] (gas: 1)\n 35813: ra = 1376, jump @12\n      : @1122 [@dyn 688] (gas: 7)\n 35820: u64 [sp + 24] = 0\n 35823: u64 [sp + 16] = 0\n 35826: u64 [sp + 0] = 0x41\n 35829: a0 = 0x4\n 35832: a1 = sp\n 35834: u64 [sp + 8] = 0\n 35837: ra = 1378, jump @12\n      : @1123 [@dyn 689] (gas: 3)\n 35844: a1 = 0x24\n 35847: a0 = 0\n 35849: ra = 1380, jump @0\n      : @1124 [@dyn 690] (gas: 1)\n 35856: t0 = 1382, jump @1247\n      : @1125 [@dyn 691] (gas: 3)\n 35862: ra = 0x568\n 35866: ecalli 8 // 'seal_return'\n 35868: fallthrough\n      : @1126 [@dyn 692] (gas: 46)\n 35869: sp = sp + 0xffffffffffffff70\n 35873: u64 [sp + 0x88] = ra\n 35877: u64 [sp + 0x80] = s0\n 35881: u64 [sp + 0x78] = s1\n 35884: s0 = sp + 0x90\n 35888: sp = sp & 0xfffffffffffffff0\n 35891: t0 = a0\n 35893: a2 = u64 [a1]\n 35895: t2 = u64 [a0 + 0x8]\n 35898: a5 = u64 [a1 + 0x8]\n 35901: t1 = u64 [a0]\n 35903: a3 = a2 + 0x1f\n 35906: ra = a3 <u a2\n 35909: a2 = a5 + ra\n 35912: a3 = a3 & 0xffffffffffffffe0\n 35915: u64 [sp + 0x8] = t1\n 35918: t1 = t1 + a3\n 35921: a4 = t1 <u a3\n 35924: a3 = a2 + t2\n 35927: a3 = a3 + a4\n 35930: s1 = a3 ^ a2\n 35933: a0 = a3 <u a2\n 35936: a0 = a4 if s1 == 0\n 35939: a4 = u64 [t0 + 0x18]\n 35942: a5 = a2 <u a5\n 35945: s1 = u64 [a1 + 0x10]\n 35948: t0 = u64 [t0 + 0x10]\n 35951: a1 = u64 [a1 + 0x18]\n 35954: a5 = ra if ra == 0\n 35957: a5 = a5 + s1\n 35960: s1 = a5 <u s1\n 35963: a2 = a5 + t0\n 35966: a0 = a0 + a2\n 35969: a5 = a2 <u a5\n 35972: a2 = a0 <u a2\n 35975: a1 = a1 + a4\n 35978: a1 = a1 + s1\n 35981: a1 = a1 + a5\n 35984: a5 = a1 + a2\n 35987: a1 = a5 >u 0\n 35989: a2 = a0 >u 0\n 35991: a2 = a1 if a5 != 0\n 35994: a1 = a0 | a5\n 35997: s1 = a3 >u 0\n 35999: s1 = a2 if a1 != 0\n 36002: jump @1130 if s1 != 0\n      : @1127 (gas: 13)\n 36005: a1 = u64 [sp + 0x8]\n 36008: a1 = t1 <u a1\n 36011: a2 = a3 ^ t2\n 36014: s1 = a3 <u t2\n 36017: s1 = a1 if a2 == 0\n 36020: a1 = a0 <u t0\n 36023: a2 = a5 ^ a4\n 36026: a4 = a5 <u a4\n 36029: a4 = a1 if a2 == 0\n 36032: a1 = a0 ^ t0\n 36035: a1 = a1 | a2\n 36038: a4 = s1 if a1 == 0\n 36041: jump @1130 if a4 != 0\n      : @1128 (gas: 7)\n 36044: u64 [sp + 0x50] = t1\n 36047: u64 [sp + 0x58] = a3\n 36050: u64 [sp + 0x60] = a0\n 36053: a0 = 0x40\n 36056: a1 = sp + 0x50\n 36059: u64 [sp + 0x68] = a5\n 36062: ra = 1386, jump @12\n      : @1129 [@dyn 693] (gas: 6)\n 36069: sp = s0 + 0xffffffffffffff70\n 36073: ra = u64 [sp + 0x88]\n 36077: s0 = u64 [sp + 0x80]\n 36081: s1 = u64 [sp + 0x78]\n 36084: sp = sp + 0x90\n 36088: ret\n      : @1130 (gas: 6)\n 36090: u64 [sp + 64] = 0\n 36093: u64 [sp + 56] = 0\n 36096: u64 [sp + 48] = 0\n 36099: t0 = 0x56c\n 36103: a0 = 0x4e487b7100000000\n 36113: fallthrough\n      : @1131 [@dyn 694] (gas: 4)\n 36114: a1 = sp + 0x30\n 36117: u64 [sp + 0x48] = a0\n 36120: a0 = 0\n 36122: ra = 1390, jump @12\n      : @1132 [@dyn 695] (gas: 7)\n 36129: u64 [sp + 40] = 0\n 36132: u64 [sp + 32] = 0\n 36135: u64 [sp + 16] = 0x41\n 36139: a0 = 0x4\n 36142: a1 = sp + 0x10\n 36145: u64 [sp + 24] = 0\n 36148: ra = 1392, jump @12\n      : @1133 [@dyn 696] (gas: 3)\n 36155: a1 = 0x24\n 36158: a0 = 0\n 36160: ra = 1394, jump @0\n      : @1134 [@dyn 697] (gas: 1)\n 36167: t0 = 1396, jump @1247\n      : @1135 [@dyn 698] (gas: 3)\n 36173: ra = 0x576\n 36177: ecalli 8 // 'seal_return'\n 36179: fallthrough\n      : @1136 [@dyn 699] (gas: 16)\n 36180: sp = sp + 0xfffffffffffffee0\n 36184: u64 [sp + 0x118] = ra\n 36188: u64 [sp + 0x110] = s0\n 36192: u64 [sp + 0x108] = s1\n 36196: s0 = sp + 0x120\n 36200: sp = sp & 0xffffffffffffffe0\n 36203: s1 = sp\n 36205: a3 = u64 [a2]\n 36207: u64 [s1 + 0x58] = a3\n 36210: a3 = u64 [a2 + 0x8]\n 36213: u64 [s1 + 0x50] = a3\n 36216: a3 = u64 [a2 + 0x10]\n 36219: u64 [s1 + 0x48] = a3\n 36222: a2 = u64 [a2 + 0x18]\n 36225: u64 [s1 + 0x40] = a2\n 36228: t0 = 1400, jump @1222\n      : @1137 [@dyn 700] (gas: 1)\n 36234: ra = 1402, jump @14\n      : @1138 [@dyn 701] (gas: 20)\n 36241: a0 = u64 [s1 + 0xf8]\n 36245: t0 = u64 [s1 + 0xe0]\n 36249: a2 = u64 [s1 + 0xf0]\n 36253: a3 = u64 [s1 + 0xe8]\n 36257: a1 = u64 [s1 + 0x40]\n 36260: a4 = a0 ^ a1\n 36263: a1 = a1 <u a0\n 36266: a0 = u64 [s1 + 0x48]\n 36269: a5 = a0 <u a2\n 36272: a5 = a1 if a4 != 0\n 36275: a1 = u64 [s1 + 0x50]\n 36278: t1 = a3 ^ a1\n 36281: a3 = a1 <u a3\n 36284: a1 = u64 [s1 + 0x58]\n 36287: a1 = a1 <u t0\n 36290: a1 = a3 if t1 != 0\n 36293: a0 = a0 ^ a2\n 36296: a0 = a0 | a4\n 36299: a1 = a5 if a0 != 0\n 36302: jump @1145 if a1 == 0\n      : @1139 (gas: 1)\n 36306: t0 = 1404, jump @1246\n      : @1140 [@dyn 702] (gas: 1)\n 36312: ra = 1406, jump @12\n      : @1141 [@dyn 703] (gas: 3)\n 36319: a1 = 0x20\n 36322: a0 = 0\n 36324: ra = 1408, jump @0\n      : @1142 [@dyn 704] (gas: 4)\n 36331: a1 = sp + 0xffffffffffffffe0\n 36334: a1 = a1 & 0xffffffffffffffe0\n 36337: u64 [s1 + 0x30] = a1\n 36340: t0 = 1410, jump @1215\n      : @1143 [@dyn 705] (gas: 39)\n 36346: ecalli 6 // 'hash_keccak_256'\n 36348: a3 = u64 [s1 + 0x30]\n 36351: a0 = u64 [a3]\n 36353: a1 = u64 [a3 + 0x8]\n 36356: a2 = u64 [a3 + 0x18]\n 36359: a3 = u64 [a3 + 0x10]\n 36362: t0 = reverse a0\n 36364: a1 = reverse a1\n 36366: a2 = reverse a2\n 36368: a3 = reverse a3\n 36370: a0 = u64 [s1 + 0x48]\n 36373: a4 = a0 >> 0x3e\n 36376: a5 = u64 [s1 + 0x40]\n 36379: a5 = a5 << 0x2\n 36382: t1 = a5 | a4\n 36385: a4 = u64 [s1 + 0x50]\n 36388: a5 = a4 >> 0x3e\n 36391: a0 = a0 << 0x2\n 36394: t2 = a0 | a5\n 36397: a0 = u64 [s1 + 0x58]\n 36400: a5 = a0 >> 0x3e\n 36403: a4 = a4 << 0x2\n 36406: a4 = a4 | a5\n 36409: a5 = a0 << 0x2\n 36412: a4 = a4 + a3\n 36415: a5 = a5 + a2\n 36418: a2 = a5 <u a2\n 36421: a4 = a4 + a2\n 36424: a0 = a4 ^ a3\n 36427: a3 = a4 <u a3\n 36430: a3 = a2 if a0 == 0\n 36433: t2 = t2 + a1\n 36436: a3 = a3 + t2\n 36439: a0 = a3 <u t2\n 36442: t0 = t0 + t1\n 36445: a1 = t2 <u a1\n 36448: a1 = a1 + t0\n 36451: a0 = a0 + a1\n 36454: t0 = 1412, jump @1224\n      : @1144 [@dyn 706] (gas: 1)\n 36460: ret\n      : @1145 (gas: 1)\n 36462: t0 = 1414, jump @1228\n      : @1146 [@dyn 707] (gas: 1)\n 36468: ra = 1416, jump @12\n      : @1147 [@dyn 708] (gas: 1)\n 36475: t0 = 1418, jump @1250\n      : @1148 [@dyn 709] (gas: 1)\n 36481: ra = 1420, jump @12\n      : @1149 [@dyn 710] (gas: 3)\n 36488: a1 = 0x24\n 36491: a0 = 0\n 36493: ra = 1422, jump @0\n      : @1150 [@dyn 711] (gas: 1)\n 36500: t0 = 1424, jump @1247\n      : @1151 [@dyn 712] (gas: 3)\n 36506: ra = 0x592\n 36510: ecalli 8 // 'seal_return'\n 36512: fallthrough\n      : @1152 [@dyn 713] (gas: 16)\n 36513: sp = sp + 0xffffffffffffff20\n 36517: u64 [sp + 0xd8] = ra\n 36521: u64 [sp + 0xd0] = s0\n 36525: u64 [sp + 0xc8] = s1\n 36529: s0 = sp + 0xe0\n 36533: sp = sp & 0xffffffffffffffe0\n 36536: s1 = sp\n 36538: t0 = u64 [a1 + 0x18]\n 36541: t1 = u64 [a1 + 0x10]\n 36544: a5 = u64 [a1]\n 36546: a4 = u64 [a1 + 0x8]\n 36549: a1 = t1 | t0\n 36552: a3 = a5 <u 0x20\n 36555: a3 = 0 if a4 != 0\n 36557: a3 = 0 if a1 != 0\n 36559: jump @1160 if a3 != 0\n      : @1153 (gas: 23)\n 36563: a1 = u64 [a2 + 0x18]\n 36566: u64 [s1 + 0x48] = a1\n 36569: a1 = u64 [a2 + 0x10]\n 36572: u64 [s1 + 0x20] = a1\n 36575: a1 = u64 [a2 + 0x8]\n 36578: u64 [s1 + 0x58] = a1\n 36581: a1 = u64 [a2]\n 36583: u64 [s1 + 0x50] = a1\n 36586: a2 = u64 [a0 + 0x18]\n 36589: a1 = u64 [a0 + 0x10]\n 36592: a3 = u64 [a0 + 0x8]\n 36595: a0 = u64 [a0]\n 36597: u64 [s1 + 0xa0] = a0\n 36601: u64 [s1 + 0xa8] = a3\n 36605: u64 [s1 + 0xb0] = a1\n 36609: a1 = s1 + 0xa0\n 36613: u64 [s1 + 0xb8] = a2\n 36617: a0 = 0\n 36619: u64 [s1 + 0x18] = t0\n 36622: u64 [s1 + 0x40] = t1\n 36625: u64 [s1 + 0x38] = a4\n 36628: u64 [s1 + 0x30] = a5\n 36631: ra = 1428, jump @12\n      : @1154 [@dyn 714] (gas: 3)\n 36638: a1 = 0x20\n 36641: a0 = 0\n 36643: ra = 1430, jump @0\n      : @1155 [@dyn 715] (gas: 4)\n 36650: a1 = sp + 0xffffffffffffffe0\n 36653: a1 = a1 & 0xffffffffffffffe0\n 36656: u64 [s1 + 0x28] = a1\n 36659: t0 = 1432, jump @1215\n      : @1156 [@dyn 716] (gas: 107)\n 36665: ecalli 6 // 'hash_keccak_256'\n 36667: a2 = u64 [s1 + 0x50]\n 36670: a1 = a2 + 0x1f\n 36673: a0 = a1 <u a2\n 36676: t2 = a2\n 36678: a4 = u64 [s1 + 0x58]\n 36681: a3 = a4 + a0\n 36684: a2 = a3 <u a4\n 36687: t1 = a4\n 36689: a2 = a0 if a0 == 0\n 36692: a0 = u64 [s1 + 0x20]\n 36695: t0 = a0 + a2\n 36698: a2 = t0 << 0x3b\n 36701: a4 = a3 >> 0x5\n 36704: a2 = a2 | a4\n 36707: a3 = a3 << 0x3b\n 36710: a1 = a1 >> 0x5\n 36713: a5 = a1 | a3\n 36716: a1 = t2 <u 0x20\n 36719: a1 = 0 if t1 != 0\n 36721: a4 = u64 [s1 + 0x28]\n 36724: a3 = u64 [a4 + 0x18]\n 36727: t1 = u64 [a4 + 0x10]\n 36730: a4 = u64 [s1 + 0x48]\n 36733: a4 = a4 | a0\n 36736: a1 = 0 if a4 != 0\n 36738: ra = reverse a3\n 36740: a3 = reverse t1\n 36742: a2 = 0 if a1 != 0\n 36744: a5 = 0 if a1 != 0\n 36746: a5 = a5 + ra\n 36749: u64 [s1 + 0x58] = a5\n 36752: a0 = a5 <u ra\n 36755: a5 = a3 + a0\n 36758: a2 = a2 + a5\n 36761: u64 [s1 + 0x50] = a2\n 36764: a5 = a2 ^ a3\n 36767: a2 = a2 <u a3\n 36770: a2 = a0 if a5 == 0\n 36773: u64 [s1 + 0x10] = a2\n 36776: a0 = u64 [s1 + 0x30]\n 36779: t2 = a0 + 0x1f\n 36782: a2 = t2 <u a0\n 36785: a0 = u64 [s1 + 0x38]\n 36788: a4 = a0 + a2\n 36791: a5 = a4 <u a0\n 36794: a5 = a2 if a2 == 0\n 36797: t1 = u64 [s1 + 0x40]\n 36800: t1 = t1 + a5\n 36803: a2 = t1 << 0x3b\n 36806: a0 = a4 >> 0x5\n 36809: a0 = a0 | a2\n 36812: a4 = a4 << 0x3b\n 36815: a2 = t2 >> 0x5\n 36818: a2 = a2 | a4\n 36821: a2 = a2 + ra\n 36824: u64 [s1 + 0x38] = a2\n 36827: a2 = a2 <u ra\n 36830: a4 = a3 + a2\n 36833: a4 = a4 + a0\n 36836: a0 = a4 ^ a3\n 36839: u64 [s1 + 0x30] = a4\n 36842: a3 = a4 <u a3\n 36845: a3 = a2 if a0 == 0\n 36848: a0 = u64 [s1 + 0x20]\n 36851: a0 = t0 <u a0\n 36854: a2 = u64 [s1 + 0x48]\n 36857: a0 = a0 + a2\n 36860: a2 = t0 >> 0x5\n 36863: a4 = a0 << 0x3b\n 36866: a2 = a2 | a4\n 36869: a4 = u64 [s1 + 0x28]\n 36872: t0 = u64 [a4]\n 36874: a4 = u64 [a4 + 0x8]\n 36877: a0 = a0 >> 0x5\n 36880: a2 = 0 if a1 != 0\n 36882: a0 = 0 if a1 != 0\n 36884: a1 = reverse a4\n 36886: a4 = reverse t0\n 36888: a0 = a0 + a4\n 36891: a2 = a2 + a1\n 36894: a5 = a2 <u a1\n 36897: a0 = a0 + a5\n 36900: t2 = u64 [s1 + 0x10]\n 36903: t2 = t2 + a2\n 36906: a2 = t2 <u a2\n 36909: t0 = a0 + a2\n 36912: a0 = u64 [s1 + 0x40]\n 36915: a0 = t1 <u a0\n 36918: a2 = u64 [s1 + 0x18]\n 36921: a0 = a0 + a2\n 36924: a2 = t1 >> 0x5\n 36927: a5 = a0 << 0x3b\n 36930: a2 = a2 | a5\n 36933: a5 = u64 [s1 + 0x58]\n 36936: a0 = a0 >> 0x5\n 36939: a0 = a0 + a4\n 36942: a4 = u64 [s1 + 0x50]\n 36945: a2 = a2 + a1\n 36948: a1 = a2 <u a1\n 36951: a0 = a0 + a1\n 36954: a3 = a3 + a2\n 36957: u64 [s1 + 0x28] = a3\n 36960: a1 = a3 <u a2\n 36963: a0 = a0 + a1\n 36966: u64 [s1 + 0x20] = a0\n 36969: fallthrough\n      : @1157 (gas: 16)\n 36970: a0 = u64 [s1 + 0x38]\n 36973: a0 = a5 <u a0\n 36976: a2 = u64 [s1 + 0x30]\n 36979: a1 = a4 ^ a2\n 36982: a2 = a4 <u a2\n 36985: a2 = a0 if a1 == 0\n 36988: a0 = u64 [s1 + 0x28]\n 36991: t1 = t2 <u a0\n 36994: a3 = u64 [s1 + 0x20]\n 36997: a1 = t0 ^ a3\n 37000: a3 = t0 <u a3\n 37003: a3 = t1 if a1 == 0\n 37006: a0 = t2 ^ a0\n 37009: a0 = a0 | a1\n 37012: a3 = a2 if a0 == 0\n 37015: jump @1160 if a3 == 0\n      : @1158 (gas: 17)\n 37018: u64 [s1 + 120] = 0\n 37021: u64 [s1 + 112] = 0\n 37024: u64 [s1 + 104] = 0\n 37027: u64 [s1 + 96] = 0\n 37030: u64 [s1 + 0x80] = a5\n 37034: u64 [s1 + 0x88] = a4\n 37038: a2 = t2\n 37040: u64 [s1 + 0x90] = a2\n 37044: a0 = s1 + 0x80\n 37048: a1 = s1 + 0x60\n 37051: a3 = t0\n 37053: u64 [s1 + 0x98] = a3\n 37057: u64 [s1 + 0x58] = a5\n 37060: u64 [s1 + 0x50] = a4\n 37063: u64 [s1 + 0x48] = a3\n 37066: u64 [s1 + 0x40] = a2\n 37069: ra = 1434, jump @16\n      : @1159 [@dyn 717] (gas: 14)\n 37076: t0 = u64 [s1 + 0x48]\n 37079: a4 = u64 [s1 + 0x50]\n 37082: a5 = u64 [s1 + 0x58]\n 37085: a5 = a5 + 0x1\n 37088: a0 = a5 <u 0x1\n 37091: a4 = a4 + a0\n 37094: a0 = a5 | a4\n 37097: a0 = a0 <u 0x1\n 37100: a1 = u64 [s1 + 0x40]\n 37103: a0 = a0 + a1\n 37106: a1 = a0 <u a1\n 37109: t0 = t0 + a1\n 37112: t2 = a0\n 37114: jump @1157\n      : @1160 (gas: 6)\n 37117: sp = s0 + 0xffffffffffffff20\n 37121: ra = u64 [sp + 0xd8]\n 37125: s0 = u64 [sp + 0xd0]\n 37129: s1 = u64 [sp + 0xc8]\n 37133: sp = sp + 0xe0\n 37137: ret\n      : @1161 (gas: 16)\n 37139: sp = sp + 0xfffffffffffffee0\n 37143: u64 [sp + 0x118] = ra\n 37147: u64 [sp + 0x110] = s0\n 37151: u64 [sp + 0x108] = s1\n 37155: s0 = sp + 0x120\n 37159: sp = sp & 0xffffffffffffffe0\n 37162: s1 = sp\n 37164: a3 = u64 [a2]\n 37166: u64 [s1 + 0x48] = a3\n 37169: a3 = u64 [a2 + 0x8]\n 37172: u64 [s1 + 0x40] = a3\n 37175: a3 = u64 [a2 + 0x10]\n 37178: u64 [s1 + 0x50] = a3\n 37181: a2 = u64 [a2 + 0x18]\n 37184: u64 [s1 + 0x58] = a2\n 37187: t0 = 1436, jump @1222\n      : @1162 [@dyn 718] (gas: 1)\n 37193: ra = 1438, jump @14\n      : @1163 [@dyn 719] (gas: 20)\n 37200: a0 = u64 [s1 + 0xf8]\n 37204: t0 = u64 [s1 + 0xe0]\n 37208: a2 = u64 [s1 + 0xf0]\n 37212: a3 = u64 [s1 + 0xe8]\n 37216: a1 = u64 [s1 + 0x58]\n 37219: a4 = a0 ^ a1\n 37222: a1 = a1 <u a0\n 37225: a0 = u64 [s1 + 0x50]\n 37228: a5 = a0 <u a2\n 37231: a5 = a1 if a4 != 0\n 37234: a1 = u64 [s1 + 0x40]\n 37237: t1 = a3 ^ a1\n 37240: a3 = a1 <u a3\n 37243: a1 = u64 [s1 + 0x48]\n 37246: a1 = a1 <u t0\n 37249: a1 = a3 if t1 != 0\n 37252: a0 = a0 ^ a2\n 37255: a0 = a0 | a4\n 37258: a1 = a5 if a0 != 0\n 37261: jump @1170 if a1 == 0\n      : @1164 (gas: 1)\n 37265: t0 = 1440, jump @1246\n      : @1165 [@dyn 720] (gas: 1)\n 37271: ra = 1442, jump @12\n      : @1166 [@dyn 721] (gas: 3)\n 37278: a1 = 0x20\n 37281: a0 = 0\n 37283: ra = 1444, jump @0\n      : @1167 [@dyn 722] (gas: 4)\n 37290: a1 = sp + 0xffffffffffffffe0\n 37293: a1 = a1 & 0xffffffffffffffe0\n 37296: u64 [s1 + 0x30] = a1\n 37299: t0 = 1446, jump @1215\n      : @1168 [@dyn 723] (gas: 29)\n 37305: ecalli 6 // 'hash_keccak_256'\n 37307: a3 = u64 [s1 + 0x30]\n 37310: a0 = u64 [a3]\n 37312: a1 = u64 [a3 + 0x8]\n 37315: a2 = u64 [a3 + 0x18]\n 37318: a3 = u64 [a3 + 0x10]\n 37321: t0 = reverse a0\n 37323: a1 = reverse a1\n 37325: a2 = reverse a2\n 37327: a3 = reverse a3\n 37329: a4 = u64 [s1 + 0x40]\n 37332: a4 = a4 + a3\n 37335: a5 = u64 [s1 + 0x48]\n 37338: a5 = a5 + a2\n 37341: a2 = a5 <u a2\n 37344: a4 = a4 + a2\n 37347: a0 = a4 ^ a3\n 37350: a3 = a4 <u a3\n 37353: a3 = a2 if a0 == 0\n 37356: a0 = u64 [s1 + 0x50]\n 37359: a0 = a0 + a1\n 37362: a3 = a3 + a0\n 37365: t1 = a3 <u a0\n 37368: a2 = u64 [s1 + 0x58]\n 37371: t0 = t0 + a2\n 37374: a0 = a0 <u a1\n 37377: a0 = a0 + t0\n 37380: a0 = a0 + t1\n 37383: t0 = 1448, jump @1224\n      : @1169 [@dyn 724] (gas: 1)\n 37389: ret\n      : @1170 (gas: 1)\n 37391: t0 = 1450, jump @1228\n      : @1171 [@dyn 725] (gas: 1)\n 37397: ra = 1452, jump @12\n      : @1172 [@dyn 726] (gas: 1)\n 37404: t0 = 1454, jump @1250\n      : @1173 [@dyn 727] (gas: 1)\n 37410: ra = 1456, jump @12\n      : @1174 [@dyn 728] (gas: 3)\n 37417: a1 = 0x24\n 37420: a0 = 0\n 37422: ra = 1458, jump @0\n      : @1175 [@dyn 729] (gas: 1)\n 37429: t0 = 1460, jump @1247\n      : @1176 [@dyn 730] (gas: 3)\n 37435: ra = 0x5b6\n 37439: ecalli 8 // 'seal_return'\n 37441: fallthrough\n      : @1177 [@dyn 731] (gas: 10)\n 37442: sp = sp + 0xffffffffffffff30\n 37446: u64 [sp + 0xc8] = ra\n 37450: u64 [sp + 0xc0] = s0\n 37454: u64 [sp + 0xb8] = s1\n 37458: s0 = sp + 0xd0\n 37462: sp = sp & 0xfffffffffffffff0\n 37465: u64 [sp + 0x8] = a0\n 37468: a0 = sp + 0x90\n 37472: a1 = 0x40\n 37475: ra = 1464, jump @10\n      : @1178 [@dyn 732] (gas: 15)\n 37482: a0 = u64 [sp + 0xa8]\n 37486: u64 [sp + 0x18] = a0\n 37489: s1 = u64 [sp + 0xa0]\n 37493: a2 = u64 [sp + 0x98]\n 37497: u64 [sp + 0x28] = a2\n 37500: a1 = u64 [sp + 0x90]\n 37504: u64 [sp + 0x20] = a1\n 37507: u64 [sp + 0x88] = a0\n 37511: u64 [sp + 0x80] = s1\n 37515: u64 [sp + 0x78] = a2\n 37518: a0 = sp + 0x70\n 37521: u64 [sp + 0x70] = a1\n 37524: ra = 0x5ba\n 37528: t0 = 0x558\n 37532: jump @1237\n      : @1179 [@dyn 733] (gas: 12)\n 37535: a0 = u64 [sp + 0x18]\n 37538: a1 = u64 [sp + 0x28]\n 37541: a0 = a0 | a1\n 37544: a1 = u64 [sp + 0x20]\n 37547: a1 = a1 | s1\n 37550: a1 = a1 | a0\n 37553: a1 = a1 >> 0x20\n 37556: u64 [sp + 0x10] = s1\n 37559: a0 = a0 | s1\n 37562: a0 = a0 << 0x20\n 37565: a0 = a0 | a1\n 37568: jump @1184 if a0 != 0\n      : @1180 (gas: 8)\n 37572: u64 [sp + 104] = 0\n 37575: u64 [sp + 96] = 0\n 37578: u64 [sp + 88] = 0\n 37581: a1 = sp + 0x50\n 37584: u64 [sp + 80] = 0x60\n 37588: s1 = u64 [sp + 0x20]\n 37591: a0 = s1\n 37593: ra = 1468, jump @12\n      : @1181 [@dyn 734] (gas: 9)\n 37600: a0 = u64 [sp + 0x10]\n 37603: a1 = u64 [sp + 0x18]\n 37606: a0 = a0 | a1\n 37609: a1 = 0xffffffe0\n 37619: a1 = s1 <u a1\n 37622: a2 = u64 [sp + 0x28]\n 37625: a1 = 0 if a2 != 0\n 37627: a1 = 0 if a0 != 0\n 37629: jump @1184 if a1 == 0\n      : @1182 (gas: 8)\n 37632: s1 = u64 [sp + 0x20]\n 37635: i32 a0 = s1 + 0x20\n 37638: u64 [sp + 72] = 0\n 37641: u64 [sp + 64] = 0\n 37644: u64 [sp + 48] = 0x60\n 37648: a1 = sp + 0x30\n 37651: u64 [sp + 56] = 0\n 37654: ra = 1470, jump @12\n      : @1183 [@dyn 735] (gas: 14)\n 37661: a0 = u64 [sp + 0x8]\n 37664: a1 = u64 [sp + 0x18]\n 37667: u64 [a0 + 0x18] = a1\n 37670: a1 = u64 [sp + 0x10]\n 37673: u64 [a0 + 0x10] = a1\n 37676: a1 = u64 [sp + 0x28]\n 37679: u64 [a0 + 0x8] = a1\n 37682: u64 [a0] = s1\n 37684: sp = s0 + 0xffffffffffffff30\n 37688: ra = u64 [sp + 0xc8]\n 37692: s0 = u64 [sp + 0xc0]\n 37696: s1 = u64 [sp + 0xb8]\n 37700: sp = sp + 0xd0\n 37704: ret\n      : @1184 (gas: 1)\n 37706: trap\n      : @1185 (gas: 14)\n 37707: sp = sp + 0xffffffffffffff20\n 37711: u64 [sp + 0xd8] = ra\n 37715: u64 [sp + 0xd0] = s0\n 37719: u64 [sp + 0xc8] = s1\n 37723: s0 = sp + 0xe0\n 37727: sp = sp & 0xfffffffffffffff0\n 37730: a1 = u64 [a0 + 0x10]\n 37733: a2 = u64 [a0 + 0x18]\n 37736: a3 = u64 [a0 + 0x8]\n 37739: a0 = u64 [a0]\n 37741: a2 = a2 | a3\n 37744: a0 = a0 | a1\n 37747: a0 = a0 | a2\n 37750: jump @1187 if a0 == 0\n      : @1186 (gas: 6)\n 37753: sp = s0 + 0xffffffffffffff20\n 37757: ra = u64 [sp + 0xd8]\n 37761: s0 = u64 [sp + 0xd0]\n 37765: s1 = u64 [sp + 0xc8]\n 37769: sp = sp + 0xe0\n 37773: ret\n      : @1187 (gas: 3)\n 37775: a0 = sp + 0xa0\n 37779: a1 = 0x40\n 37782: ra = 1472, jump @10\n      : @1188 [@dyn 736] (gas: 15)\n 37789: a2 = u64 [sp + 0xb8]\n 37793: s1 = u64 [sp + 0xb0]\n 37797: a0 = u64 [sp + 0xa8]\n 37801: a1 = u64 [sp + 0xa0]\n 37805: u64 [sp + 0x10] = a0\n 37808: u64 [sp + 0x8] = a2\n 37811: a0 = a0 | a2\n 37814: u64 [sp + 0x18] = a1\n 37817: a1 = a1 | s1\n 37820: a1 = a1 | a0\n 37823: a1 = a1 >> 0x20\n 37826: a0 = a0 | s1\n 37829: a0 = a0 << 0x20\n 37832: a0 = a0 | a1\n 37835: jump @1195 if a0 != 0\n      : @1189 (gas: 8)\n 37839: u64 [sp + 144] = 0\n 37843: u64 [sp + 136] = 0\n 37847: u64 [sp + 128] = 0\n 37851: a0 = 0x8c379a000000000\n 37861: a1 = sp + 0x80\n 37865: u64 [sp + 0x98] = a0\n 37869: a0 = u64 [sp + 0x18]\n 37872: ra = 1474, jump @12\n      : @1190 [@dyn 737] (gas: 11)\n 37879: a2 = u64 [sp + 0x8]\n 37882: a2 = a2 | s1\n 37885: s1 = 0x100000000\n 37895: a0 = 0xfffffffc\n 37905: a1 = u64 [sp + 0x18]\n 37908: a0 = a1 <u a0\n 37911: a1 = u64 [sp + 0x10]\n 37914: a0 = 0 if a1 != 0\n 37916: u64 [sp + 0x8] = a2\n 37919: a0 = 0 if a2 != 0\n 37921: jump @1195 if a0 == 0\n      : @1191 (gas: 9)\n 37924: a0 = i32 [sp + 0x18]\n 37927: u64 [sp] = a0\n 37929: i32 a0 = a0 + 0x4\n 37932: u64 [sp + 120] = 0\n 37935: u64 [sp + 112] = 0\n 37938: u64 [sp + 96] = 0x20\n 37942: a1 = sp + 0x60\n 37945: u64 [sp + 104] = 0\n 37948: ra = 1476, jump @12\n      : @1192 [@dyn 738] (gas: 8)\n 37955: a0 = s1 + 0xffffffffffffffdc\n 37958: a1 = u64 [sp + 0x18]\n 37961: a0 = a1 <u a0\n 37964: a1 = u64 [sp + 0x10]\n 37967: a0 = 0 if a1 != 0\n 37969: a1 = u64 [sp + 0x8]\n 37972: a0 = 0 if a1 != 0\n 37974: jump @1195 if a0 == 0\n      : @1193 (gas: 8)\n 37977: a0 = u64 [sp]\n 37979: i32 a0 = a0 + 0x24\n 37982: u64 [sp + 88] = 0\n 37985: u64 [sp + 80] = 0\n 37988: u64 [sp + 64] = 0x9\n 37992: a1 = sp + 0x40\n 37995: u64 [sp + 72] = 0\n 37998: ra = 1478, jump @12\n      : @1194 [@dyn 739] (gas: 8)\n 38005: a0 = 0xffffffbc\n 38015: a1 = u64 [sp + 0x18]\n 38018: a0 = a1 <u a0\n 38021: a1 = u64 [sp + 0x10]\n 38024: a0 = 0 if a1 != 0\n 38026: a1 = u64 [sp + 0x8]\n 38029: a0 = 0 if a1 != 0\n 38031: jump @1196 if a0 != 0\n      : @1195 (gas: 1)\n 38034: trap\n      : @1196 (gas: 10)\n 38035: s1 = u64 [sp]\n 38037: i32 a0 = s1 + 0x44\n 38040: a1 = u64 [0x200e8]\n 38045: u64 [sp + 40] = 0\n 38048: u64 [sp + 0x38] = a1\n 38051: a1 = 0x7200000000000000\n 38061: u64 [sp + 0x30] = a1\n 38064: a1 = sp + 0x20\n 38067: u64 [sp + 32] = 0\n 38070: ra = 1480, jump @12\n      : @1197 [@dyn 740] (gas: 3)\n 38077: a1 = 0x64\n 38080: a0 = s1\n 38082: ra = 1482, jump @0\n      : @1198 [@dyn 741] (gas: 7)\n 38089: i32 a1 = a0 + 0\n 38091: a0 = 0x1\n 38094: a2 = 0x64\n 38097: ecalli 8 // 'seal_return'\n 38099: a0 = 0\n 38101: ra = 0x5cc\n 38105: jump @22\n      : @1199 [export #0: 'call'] (gas: 2)\n 38109: a0 = 0\n 38111: ra = 1484, jump @22\n      : @1200 [@dyn 742] [export #1: 'deploy'] (gas: 2)\n 38118: a0 = 0x1\n 38121: ra = 1486, jump @22\n      : @1201 [@dyn 743] (gas: 11)\n 38128: a0 = sp + 0xffffffffffffffe0\n 38131: a0 = a0 & 0xffffffffffffffe0\n 38134: u64 [s1 + 0x150] = a0\n 38138: sp = a0\n 38140: a1 = 0\n 38142: u64 [a0 + 24] = 0\n 38145: u64 [a0 + 16] = 0\n 38148: u64 [a0 + 8] = 0\n 38151: u64 [a0 + 0] = 0\n 38153: i32 a0 = a0 + 0\n 38155: jump [t0]\n      : @1202 (gas: 8)\n 38157: a1 = sp + 0xffffffffffffffe0\n 38160: a1 = a1 & 0xffffffffffffffe0\n 38163: u64 [s1 + 0x158] = a1\n 38167: sp = a1\n 38169: i32 a0 = a0 + 0\n 38171: i32 a2 = a1 + 0\n 38173: a1 = 0x40\n 38176: jump [t0]\n      : @1203 (gas: 16)\n 38178: a3 = u64 [s1 + 0x120]\n 38182: a0 = u64 [a3 + 0x18]\n 38185: a1 = u64 [a3 + 0x10]\n 38188: a2 = u64 [a3 + 0x8]\n 38191: a3 = u64 [a3]\n 38193: a0 = reverse a0\n 38195: u64 [s1 + 0x120] = a0\n 38199: a0 = reverse a1\n 38201: u64 [s1 + 0x118] = a0\n 38205: a0 = reverse a2\n 38207: u64 [s1 + 0x110] = a0\n 38211: a0 = reverse a3\n 38213: u64 [s1 + 0x108] = a0\n 38217: a0 = 0x30d8\n 38221: a2 = s1 + a0\n 38224: jump [t0]\n      : @1204 (gas: 9)\n 38226: a3 = u64 [s1 + 0x150]\n 38230: a0 = u64 [a3 + 0x10]\n 38233: a1 = u64 [a3 + 0x18]\n 38236: a2 = u64 [a3 + 0x8]\n 38239: a3 = u64 [a3]\n 38241: a1 = a1 | a2\n 38244: a0 = a0 | a3\n 38247: a0 = a0 | a1\n 38250: jump [t0]\n      : @1205 (gas: 8)\n 38252: a1 = sp + 0xffffffffffffffe0\n 38255: a1 = a1 & 0xffffffffffffffe0\n 38258: u64 [s1 + 0x120] = a1\n 38262: sp = a1\n 38264: i32 a0 = a0 + 0\n 38266: i32 a2 = a1 + 0\n 38268: a1 = 0x40\n 38271: jump [t0]\n      : @1206 (gas: 12)\n 38273: a5 = s1 + 0x100\n 38277: a2 = u64 [a5 + 0x50]\n 38280: a0 = u64 [a5 + 0x48]\n 38283: a3 = u64 [a5 + 0x40]\n 38286: a3 = a3 | a0\n 38289: a4 = 0x100000000\n 38299: a0 = 0xfffffffc\n 38309: a0 = a2 <u a0\n 38312: a1 = u64 [a5 + 0x58]\n 38315: a0 = 0 if a1 != 0\n 38317: a0 = 0 if a3 != 0\n 38319: jump [t0]\n      : @1207 (gas: 22)\n 38321: a4 = u64 [s1 + 0x158]\n 38325: a2 = a4 <u 0x80\n 38329: a3 = u64 [s1 + 0xf8]\n 38333: a1 = a3 if a2 != 0\n 38336: a5 = u64 [s1 + 0x100]\n 38340: a3 = u64 [s1 + 0x110]\n 38344: a3 = a3 | a5\n 38347: a3 = a0 if a2 == 0\n 38350: a1 = 0xffffffffffffffff if a4 == 0\n 38353: a3 = 0xffffffffffffffff if a4 == 0\n 38356: a4 = u64 [s1 + 0x108]\n 38360: a4 = 0 if a2 == 0\n 38362: a5 = 0 if a2 == 0\n 38364: a0 = u64 [s1 + 0x118]\n 38368: a2 = a0 & ~a3\n 38371: a0 = u64 [s1 + 0x120]\n 38375: a0 = a0 & ~a1\n 38378: a1 = u64 [s1 + 0x128]\n 38382: a1 = a1 & ~a5\n 38385: a3 = u64 [s1 + 0x130]\n 38389: a3 = a3 & ~a4\n 38392: jump [t0]\n      : @1208 (gas: 9)\n 38394: a0 = 0xffffffbc\n 38404: a2 = s1 + 0x100\n 38408: a1 = u64 [a2 + 0x50]\n 38411: a0 = a1 <u a0\n 38414: a1 = u64 [a2 + 0x58]\n 38417: a0 = 0 if a1 != 0\n 38419: a1 = u64 [a2 + 0x48]\n 38422: a0 = 0 if a1 != 0\n 38424: jump [t0]\n      : @1209 (gas: 19)\n 38426: a3 = u64 [s1 + 0x130]\n 38430: a3 = a3 | a1\n 38433: a2 = u64 [s1 + 0x158]\n 38437: a4 = a2 <u 0x80\n 38441: u64 [s1 + 0x130] = a4\n 38445: a1 = u64 [s1 + 0x150]\n 38449: a3 = a1 if a4 == 0\n 38452: a3 = 0xffffffffffffffff if a2 == 0\n 38455: u64 [s1 + 0x150] = a3\n 38459: a3 = u64 [s1 + 0x138]\n 38463: a3 = a3 | a0\n 38466: a0 = u64 [s1 + 0x148]\n 38470: a3 = a0 if a4 == 0\n 38473: a3 = 0xffffffffffffffff if a2 == 0\n 38476: u64 [s1 + 0x158] = a3\n 38480: a0 = 0xffffffffffffffff\n 38483: a1 = 0xffffffffffffffff\n 38486: a2 = u64 [s1 + 0x140]\n 38490: jump [t0]\n      : @1210 (gas: 11)\n 38492: a3 = u64 [s1 + 0x158]\n 38496: a0 = u64 [a3 + 0x18]\n 38499: a1 = u64 [a3 + 0x10]\n 38502: a2 = u64 [a3 + 0x8]\n 38505: a3 = u64 [a3]\n 38507: a4 = reverse a0\n 38509: a0 = reverse a1\n 38511: a1 = reverse a2\n 38513: a2 = reverse a3\n 38515: a3 = s1 + 0x20d8\n 38519: jump [t0]\n      : @1211 (gas: 21)\n 38521: a0 = reverse a0\n 38523: a3 = a0 >> 0x20\n 38526: a1 = reverse a1\n 38528: a4 = a1 << 0x20\n 38531: a3 = a3 | a4\n 38534: a0 = a0 << 0x20\n 38537: a2 = reverse a2\n 38539: a2 = a2 >> 0x20\n 38542: a0 = a0 | a2\n 38545: a1 = a1 >> 0x20\n 38548: a2 = u64 [s1 + 0x110]\n 38552: a1 = a1 ^ a2\n 38555: a2 = u64 [s1 + 0x118]\n 38559: a0 = a0 ^ a2\n 38562: a0 = a0 | a1\n 38565: a1 = u64 [s1 + 0x120]\n 38569: a1 = a1 ^ a3\n 38572: a0 = a0 | a1\n 38575: a0 = a0 <u 0x1\n 38578: a1 = s1 + 0x30d8\n 38582: jump [t0]\n      : @1212 (gas: 11)\n 38584: a2 = u64 [s1 + 0x150]\n 38588: a2 = a2 + 0x1\n 38591: a0 = a2 <u 0x1\n 38594: a1 = u64 [s1 + 0x148]\n 38598: a1 = a1 + a0\n 38601: u64 [s1 + 0x150] = a2\n 38605: u64 [s1 + 0x148] = a1\n 38609: a0 = a2 | a1\n 38612: a0 = a0 <u 0x1\n 38615: a1 = u64 [s1 + 0x138]\n 38619: jump [t0]\n      : @1213 (gas: 10)\n 38621: a0 = u64 [a3 + 0x18]\n 38624: a1 = u64 [a3 + 0x10]\n 38627: a2 = u64 [a3 + 0x8]\n 38630: a3 = u64 [a3]\n 38632: a4 = reverse a0\n 38634: a0 = reverse a1\n 38636: a1 = reverse a2\n 38638: a2 = reverse a3\n 38640: a3 = s1 + 0x30d8\n 38644: jump [t0]\n      : @1214 (gas: 10)\n 38646: a1 = s1 + 0x100\n 38650: a4 = u64 [a1 + 0x48]\n 38653: a3 = u64 [a1 + 0x50]\n 38656: a2 = u64 [a1 + 0x58]\n 38659: a0 = u64 [a1 + 0x40]\n 38662: a0 = a0 + 0xffffffffffffffdc\n 38665: a0 = a3 <u a0\n 38668: a0 = 0 if a2 != 0\n 38670: a0 = 0 if a4 != 0\n 38672: jump [t0]\n      : @1215 (gas: 5)\n 38674: sp = a1\n 38676: i32 a0 = a0 + 0\n 38678: i32 a2 = a1 + 0\n 38680: a1 = 0x20\n 38683: jump [t0]\n      : @1216 (gas: 9)\n 38685: a0 = u64 [a3 + 0x18]\n 38688: a1 = u64 [a3 + 0x10]\n 38691: a2 = u64 [a3 + 0x8]\n 38694: a3 = u64 [a3]\n 38696: a4 = reverse a0\n 38698: a0 = reverse a1\n 38700: a1 = reverse a2\n 38702: a2 = reverse a3\n 38704: jump [t0]\n      : @1217 (gas: 7)\n 38706: a1 = u64 [a2 + 0x58]\n 38709: a0 = a1 <u a0\n 38712: a1 = u64 [a2 + 0x50]\n 38715: a0 = 0 if a1 != 0\n 38717: a1 = u64 [a2 + 0x48]\n 38720: a0 = 0 if a1 != 0\n 38722: jump [t0]\n      : @1218 (gas: 15)\n 38724: a5 = a5 + a2\n 38727: a4 = a5 <u a2\n 38730: a2 = a2 <u t2\n 38733: a0 = a0 + a2\n 38736: a0 = a0 + a4\n 38739: a2 = a1 | a5\n 38742: a0 = a0 | a3\n 38745: a2 = a2 | a0\n 38748: a2 = a2 >> 0x20\n 38751: a0 = a0 | a5\n 38754: a0 = a0 << 0x20\n 38757: a0 = a0 | a2\n 38760: u64 [s1 + 0x158] = t1\n 38764: u64 [s1 + 0x100] = t2\n 38768: jump [t0]\n      : @1219 (gas: 14)\n 38770: a3 = a4 <u a3\n 38773: a5 = a0 + a3\n 38776: a0 = a5 <u a0\n 38779: a0 = a3 if a3 == 0\n 38782: a0 = a0 + a2\n 38785: a2 = a0 <u a2\n 38788: a2 = a2 + a1\n 38791: u64 [sp + 0x40] = a4\n 38794: u64 [sp + 0x48] = a5\n 38797: u64 [sp + 0x50] = a0\n 38800: a0 = 0x40\n 38803: a1 = sp + a0\n 38806: u64 [sp + 0x58] = a2\n 38809: jump [t0]\n      : @1220 (gas: 8)\n 38811: u64 [sp + 48] = 0\n 38814: u64 [sp + 40] = 0\n 38817: u64 [sp + 32] = 0\n 38820: a0 = 0x4e487b7100000000\n 38830: a1 = sp + 0x20\n 38833: u64 [sp + 0x38] = a0\n 38836: a0 = 0\n 38838: jump [t0]\n      : @1221 (gas: 10)\n 38840: a3 = a0 >u 0\n 38842: a4 = a5 <u 0x100\n 38846: a4 = a4 ^ 0x1\n 38849: a4 = a3 if a0 != 0\n 38852: a0 = a2 >u 0\n 38854: a3 = a1 >u 0\n 38856: a3 = a0 if a2 != 0\n 38859: a1 = a1 | a2\n 38862: a4 = a3 if a1 != 0\n 38865: jump [t0]\n      : @1222 (gas: 16)\n 38867: a2 = u64 [a1]\n 38869: a3 = u64 [a1 + 0x8]\n 38872: a4 = u64 [a1 + 0x10]\n 38875: a1 = u64 [a1 + 0x18]\n 38878: u64 [s1 + 0x38] = a0\n 38881: u64 [s1 + 0x30] = a1\n 38884: u64 [s1 + 0xd8] = a1\n 38888: u64 [s1 + 0x18] = a4\n 38891: u64 [s1 + 0xd0] = a4\n 38895: u64 [s1 + 0x20] = a3\n 38898: u64 [s1 + 0xc8] = a3\n 38902: a0 = s1 + 0xe0\n 38906: a1 = s1 + 0xc0\n 38910: u64 [s1 + 0x28] = a2\n 38913: u64 [s1 + 0xc0] = a2\n 38917: jump [t0]\n      : @1223 (gas: 13)\n 38919: a0 = u64 [a5 + 0xa0]\n 38923: u64 [s1 + 0x148] = a0\n 38927: a2 = u64 [a5 + 0x98]\n 38931: u64 [s1 + 0x140] = a2\n 38935: a4 = u64 [a5 + 0x90]\n 38939: u64 [s1 + 0x150] = a4\n 38943: a3 = u64 [a5 + 0x88]\n 38947: u64 [s1 + 0x158] = a3\n 38951: u64 [a5 + 0x80] = a0\n 38955: u64 [a5 + 0x78] = a2\n 38958: u64 [a5 + 0x70] = a4\n 38961: a0 = 0x2000\n 38965: jump [t0]\n      : @1224 (gas: 16)\n 38967: a1 = u64 [s1 + 0x38]\n 38970: a2 = 0\n 38972: u64 [a1 + 56] = 0\n 38975: u64 [a1 + 48] = 0\n 38978: u64 [a1 + 40] = 0\n 38981: u64 [a1 + 32] = 0\n 38984: u64 [a1] = a5\n 38986: u64 [a1 + 0x8] = a4\n 38989: u64 [a1 + 0x10] = a3\n 38992: u64 [a1 + 0x18] = a0\n 38995: sp = s0 + 0xfffffffffffffee0\n 38999: ra = u64 [sp + 0x118]\n 39003: s0 = u64 [sp + 0x110]\n 39007: s1 = u64 [sp + 0x108]\n 39011: sp = sp + 0x120\n 39015: jump [t0]\n      : @1225 (gas: 11)\n 39017: a3 = u64 [s1 + 0x158]\n 39021: a0 = u64 [a3 + 0x18]\n 39024: a1 = u64 [a3 + 0x10]\n 39027: a2 = u64 [a3 + 0x8]\n 39030: a3 = u64 [a3]\n 39032: a4 = reverse a0\n 39034: a0 = reverse a1\n 39036: a1 = reverse a2\n 39038: a2 = reverse a3\n 39040: a3 = 0x1000\n 39044: jump [t0]\n      : @1226 (gas: 13)\n 39046: a5 = a5 + a2\n 39049: a4 = a5 <u a2\n 39052: a2 = a2 <u t2\n 39055: a0 = a0 + a2\n 39058: a0 = a0 + a4\n 39061: a2 = a1 | a5\n 39064: a0 = a0 | a3\n 39067: a2 = a2 | a0\n 39070: a2 = a2 >> 0x20\n 39073: a0 = a0 | a5\n 39076: a0 = a0 << 0x20\n 39079: a0 = a0 | a2\n 39082: jump [t0]\n      : @1227 (gas: 11)\n 39084: a0 = reverse a0\n 39086: a3 = a0 << 0x20\n 39089: a1 = reverse a1\n 39091: a1 = a1 >> 0x20\n 39094: a3 = a3 | a1\n 39097: a0 = a0 >> 0x20\n 39100: a1 = reverse a2\n 39102: a2 = a1 << 0x20\n 39105: a0 = a0 | a2\n 39108: a1 = a1 >> 0x20\n 39111: jump [t0]\n      : @1228 (gas: 8)\n 39113: u64 [s1 + 176] = 0\n 39117: u64 [s1 + 168] = 0\n 39121: u64 [s1 + 160] = 0\n 39125: a0 = 0x4e487b7100000000\n 39135: a1 = s1 + 0xa0\n 39139: u64 [s1 + 0xb8] = a0\n 39143: a0 = 0\n 39145: jump [t0]\n      : @1229 (gas: 7)\n 39147: a1 = u64 [a2 + 0x50]\n 39150: a0 = a1 <u a0\n 39153: a1 = u64 [a2 + 0x48]\n 39156: a0 = 0 if a1 != 0\n 39158: a1 = u64 [a2 + 0x58]\n 39161: a0 = 0 if a1 != 0\n 39163: jump [t0]\n      : @1230 (gas: 9)\n 39165: a2 = a2 | a0\n 39168: a3 = 0x100000000\n 39178: a0 = 0xffffffe0\n 39188: a1 = u64 [a4 + 0x58]\n 39191: a0 = a1 <u a0\n 39194: a1 = u64 [a4 + 0x50]\n 39197: a0 = 0 if a1 != 0\n 39199: a0 = 0 if a2 != 0\n 39201: jump [t0]\n      : @1231 (gas: 10)\n 39203: a0 = u64 [sp + 0x10]\n 39206: a1 = u64 [sp + 0x18]\n 39209: a2 = 0x100000000\n 39219: a2 = a2 ^ a0\n 39222: a2 = a2 | a1\n 39225: a3 = a0 >> 0x20\n 39228: a3 = a3 <u 0x1\n 39231: a3 = 0 if a1 != 0\n 39233: a3 = 0 if a2 == 0\n 39235: jump [t0]\n      : @1232 (gas: 13)\n 39237: a2 = s1 + 0x100\n 39241: a1 = u64 [a2 + 0x50]\n 39244: a0 = u64 [a2 + 0x40]\n 39247: a0 = a0 | a1\n 39250: a3 = u64 [a2 + 0x48]\n 39253: a1 = u64 [a2 + 0x58]\n 39256: a1 = a1 | a3\n 39259: a1 = a1 | a0\n 39262: a1 = a1 >> 0x20\n 39265: a0 = a0 | a3\n 39268: a0 = a0 << 0x20\n 39271: a0 = a0 | a1\n 39274: jump [t0]\n      : @1233 (gas: 13)\n 39276: a3 = s1 + 0x100\n 39280: a0 = u64 [a3 + 0x48]\n 39283: a1 = u64 [a3 + 0x50]\n 39286: a0 = a0 | a1\n 39289: a2 = u64 [a3 + 0x40]\n 39292: a1 = u64 [a3 + 0x58]\n 39295: a1 = a1 | a2\n 39298: a1 = a1 | a0\n 39301: a1 = a1 >> 0x20\n 39304: a0 = a0 | a2\n 39307: a0 = a0 << 0x20\n 39310: a0 = a0 | a1\n 39313: jump [t0]\n      : @1234 (gas: 10)\n 39315: u64 [s1 + 0x100] = a0\n 39319: u64 [s1 + 0x108] = a1\n 39323: a0 = u64 [s1 + 0xf8]\n 39327: a0 = a0 | a1\n 39330: u64 [s1 + 0xf8] = a0\n 39334: a0 = u64 [s1 + 0x158]\n 39338: a2 = a0 + 0xffffffffffffff80\n 39341: a0 = 0xffffffffffffffff\n 39344: a1 = 0xffffffffffffffff\n 39347: jump [t0]\n      : @1235 (gas: 7)\n 39349: a2 = a0 | a4\n 39352: a2 = a2 | a1\n 39355: a1 = a1 | a4\n 39358: a2 = a2 >> 0x20\n 39361: a1 = a1 << 0x20\n 39364: a1 = a1 | a2\n 39367: jump [t0]\n      : @1236 (gas: 6)\n 39369: sp = s0 + 0xffffffffffffffa0\n 39372: ra = u64 [sp + 0x58]\n 39375: s0 = u64 [sp + 0x50]\n 39378: s1 = u64 [sp + 0x48]\n 39381: sp = sp + 0x60\n 39384: jump [t0]\n      : @1237 (gas: 11)\n 39386: sp = sp + 0xffffffffffffff90\n 39389: u64 [sp + 0x68] = ra\n 39392: u64 [sp + 0x60] = s0\n 39395: s0 = sp + 0x70\n 39398: sp = sp & 0xfffffffffffffff0\n 39401: a1 = u64 [a0 + 0x18]\n 39404: a2 = u64 [a0 + 0x10]\n 39407: a3 = u64 [a0]\n 39409: a0 = u64 [a0 + 0x8]\n 39412: a4 = a2 | a1\n 39415: jump [t0]\n      : @1238 (gas: 7)\n 39417: a3 = u64 [s1 + 0x158]\n 39421: a0 = u64 [a3 + 0x18]\n 39424: a1 = u64 [a3 + 0x10]\n 39427: a2 = u64 [a3 + 0x8]\n 39430: a3 = u64 [a3]\n 39432: a0 = reverse a0\n 39434: jump [t0]\n      : @1239 (gas: 7)\n 39436: u64 [s1 + 0x138] = a0\n 39440: u64 [s1 + 0x130] = a1\n 39444: a1 = u64 [s1 + 0x158]\n 39448: i32 a2 = 0x80 - a1\n 39452: a0 = 0xffffffffffffffff\n 39455: a1 = 0xffffffffffffffff\n 39458: jump [t0]\n      : @1240 (gas: 12)\n 39460: a2 = u64 [sp]\n 39462: a3 = u64 [sp + 0x8]\n 39465: u64 [s1] = a2\n 39467: u64 [s1 + 0x8] = a3\n 39470: u64 [s1 + 0x10] = a0\n 39473: u64 [s1 + 0x18] = a1\n 39476: sp = s0 + 0xffffffffffffffc0\n 39479: ra = u64 [sp + 0x38]\n 39482: s0 = u64 [sp + 0x30]\n 39485: s1 = u64 [sp + 0x28]\n 39488: sp = sp + 0x40\n 39491: jump [t0]\n      : @1241 (gas: 8)\n 39493: a0 = a0 | a2\n 39496: a2 = a4 | a1\n 39499: a2 = a2 | a0\n 39502: a2 = a2 >> 0x20\n 39505: a0 = a0 | a1\n 39508: a0 = a0 << 0x20\n 39511: a0 = a0 | a2\n 39514: jump [t0]\n      : @1242 (gas: 8)\n 39516: a4 = a4 | a2\n 39519: a2 = a0 | a1\n 39522: a2 = a2 | a4\n 39525: a2 = a2 >> 0x20\n 39528: a1 = a1 | a4\n 39531: a1 = a1 << 0x20\n 39534: a1 = a1 | a2\n 39537: jump [t0]\n      : @1243 (gas: 4)\n 39539: a2 = a3 + a1\n 39542: a3 = a2 <u a3\n 39545: a3 = a1 if a1 == 0\n 39548: jump [t0]\n      : @1244 (gas: 7)\n 39550: a0 = a0 << 0x3b\n 39553: a1 = a0 >> 0x38\n 39556: u64 [s1 + 0x158] = a1\n 39560: a2 = 0x80 - a1\n 39564: a0 = 0xffffffffffffffff\n 39567: a1 = 0xffffffffffffffff\n 39570: jump [t0]\n      : @1245 (gas: 7)\n 39572: a1 = u64 [s1 + 0x108]\n 39576: a0 = a1 <u a0\n 39579: a1 = u64 [s1 + 0xf8]\n 39583: a0 = 0 if a1 != 0\n 39585: a1 = u64 [s1 + 0x100]\n 39589: a0 = 0 if a1 != 0\n 39591: jump [t0]\n      : @1246 (gas: 11)\n 39593: a0 = u64 [s1 + 0x28]\n 39596: u64 [s1 + 0x60] = a0\n 39599: a0 = u64 [s1 + 0x20]\n 39602: u64 [s1 + 0x68] = a0\n 39605: a0 = u64 [s1 + 0x18]\n 39608: u64 [s1 + 0x70] = a0\n 39611: a1 = s1 + 0x60\n 39614: a0 = u64 [s1 + 0x30]\n 39617: u64 [s1 + 0x78] = a0\n 39620: a0 = 0\n 39622: jump [t0]\n      : @1247 (gas: 4)\n 39624: i32 a1 = a0 + 0\n 39626: a0 = 0x1\n 39629: a2 = 0x24\n 39632: jump [t0]\n      : @1248 (gas: 4)\n 39634: a0 = u64 [s1 + 0x140]\n 39638: a1 = 0x30d8\n 39642: a2 = s1 + a1\n 39645: jump [t0]\n      : @1249 (gas: 7)\n 39647: a0 = a0 + 0xffffffffffffffc0\n 39650: a1 = u64 [a3 + 0x58]\n 39653: a0 = a1 <u a0\n 39656: a1 = u64 [a3 + 0x50]\n 39659: a0 = 0 if a1 != 0\n 39661: a0 = 0 if a2 != 0\n 39663: jump [t0]\n      : @1250 (gas: 8)\n 39665: a2 = 0\n 39667: u64 [s1 + 152] = 0\n 39671: u64 [s1 + 144] = 0\n 39675: u64 [s1 + 128] = 0x32\n 39680: a0 = 0x4\n 39683: a1 = s1 + 0x80\n 39687: u64 [s1 + 136] = 0\n 39691: jump [t0]\n      : @1251 (gas: 4)\n 39693: a0 = u64 [s1 + 0x158]\n 39697: a0 = i32 [a0]\n 39699: a1 = 0x23\n 39702: jump [t0]\n      : @1252 (gas: 9)\n 39704: sp = sp + 0xffffffffffffffc0\n 39707: u64 [sp + 0x38] = ra\n 39710: u64 [sp + 0x30] = s0\n 39713: u64 [sp + 0x28] = s1\n 39716: s0 = sp + 0x40\n 39719: sp = sp & 0xffffffffffffffe0\n 39722: s1 = a0\n 39724: i32 a0 = sp + 0\n 39726: jump [t0]\n      : @1253 (gas: 4)\n 39728: a0 = 0x38d8\n 39732: a3 = s1 + a0\n 39735: a4 = a3 + 0x200\n 39739: jump [t0]\n      : @1254 (gas: 6)\n 39741: a3 = a3 + a1\n 39744: a1 = a3 <u a1\n 39747: a4 = u64 [s1 + 0x140]\n 39751: a4 = a4 + a1\n 39754: a1 = s1 + 0x18d8\n 39758: jump [t0]\n      : @1255 (gas: 2)\n 39760: a3 = a2 & 0x40\n 39763: jump @1259 if a3 != 0\n      : @1256 (gas: 1)\n 39766: jump @1258 if a2 == 0\n      : @1257 (gas: 6)\n 39769: i32 a3 = 0x40 - a2\n 39772: a3 = a1 << a3\n 39775: a1 = a1 >> a2\n 39778: a0 = a0 >> a2\n 39781: a0 = a0 | a3\n 39784: ret\n      : @1258 (gas: 1)\n 39786: ret\n      : @1259 (gas: 4)\n 39788: a0 = a2 + 0xffffffffffffffc0\n 39791: a0 = a1 >> a0\n 39794: a1 = 0\n 39796: ret\n      : @1260 (gas: 2)\n 39798: a3 = a2 & 0x40\n 39801: jump @1264 if a3 != 0\n      : @1261 (gas: 1)\n 39804: jump @1263 if a2 == 0\n      : @1262 (gas: 6)\n 39807: i32 a3 = 0x40 - a2\n 39810: a3 = a0 >> a3\n 39813: a0 = a0 << a2\n 39816: a1 = a1 << a2\n 39819: a1 = a1 | a3\n 39822: ret\n      : @1263 (gas: 1)\n 39824: ret\n      : @1264 (gas: 4)\n 39826: a1 = a2 + 0xffffffffffffffc0\n 39829: a1 = a0 << a1\n 39832: a0 = 0\n 39834: ret\n","bytecode":{"object":"50564d0000ceb6000000000000010700c10001c000400380f02079646165726c41006465746e6172679e1b205b2a481be62438fab5c47ce0de1977cb7e2e946a81263fc1fd5e022567c7995799502b72c144c6ea205288fc19ddb83c657f4826f633dc6864cf3fc6c16e61726720746f4e726564616f6c705552f0ee3dd35b317d0b433057c6fe37e78984f787e9ba52f6ebb45d27c4cc8de472746e6f63206f4e6f6c7075207463612064696c61766e49006e6f6973726576f317fc5a4b1b1dbfb7976eea5b33f7df38a53bffa748fffd35381eefa9dbd87b6f6c707520746f4eaa0ddefbb574e2ca0bbb406894f758d4496d2b1f19015cbf0cf48ce0bfc6d502656e776f20746f4e0480c40c000000000e0000001c0000002a000000300000003d00000048000000570000005a00000065000000770000008200000063616c6c5f646174615f636f707963616c6c5f646174615f6c6f616463616c6c5f646174615f73697a6563616c6c65726465706f7369745f6576656e746765745f73746f72616765686173685f6b656363616b5f3235366e6f777365616c5f72657475726e7365745f696d6d757461626c655f646174617365745f73746f7261676576616c75655f7472616e73666572726564051302c0dd940463616c6cc0e694066465706c6f7906c0e4b482e702c09c9b6800b201f6025c035e0325042d04ce04d304080544059905d005db05f005fc053b066006e406f006f6067f078d07a207a807cf07df07130823083808510865087a089408a008cb08ee08f808fe080a0910092e09ac09cd09d709dd09e909ef09290a550aa20ad90a360b7f0b8f0bd50be90bf30b160c260c680c740cf10c7e0de10dee0d500e5e0ed20ee00ef10e3b0f490f6b0faa0fb80fc90f1b1031103c107d10d710f51003110a1162119e11c911e011fb1102122a124e12591260126e127512a112ae12db12e612ed12ff120a1329134413a913b013e613ed13191420145d146b1472147f149514c214cb14e914f414fb140915101533158515f0155e1669167a163f17a4174518521858188d18bf18da181c1929192f19231aea1a471b5d1b831ba91bb41bd81be21b261ca21cb41cfb1c5e1dcc1d2b1ec11e2e1f851fed1f4e204821db21eb21382273229d22a822ae220523a6230c247524d4241e257925dd25ee2564267626cf266f27ab2726288d289828a82851296129a729ad29272a342a3a2a462a562a6e2a742aa62aaf2acd2ad82ade2aeb2af12a142b5b2b682bca2b562cb32cf82c4b2dc22df52d002e102e242f872f0b3018301e302a303f3048306a309a30be30c930cf30dc30e23005311331283135319c312c3232326e327b32f9328533ee33fb335a346834eb3403355c35653593356f36bf36153732373f37453751376637a6373438413880388d38e238e83811396939c539d239283a2e3a573ab43a103b493b6b3b763b7c3ba93bf23b743caa3c1d3db63dc13dd13db83e073f0d3f873f943f9a3fa63fc43fca3ffa3f034021402c4032403f4045406a4083409d40ce40db40e140ed40384141415f416a41704181418b41ad41de41fc413d424a4250427442d142f042fb425f438c4397439d43ae43b843dc43f4431244434450445644a944e54410452745414547456f4593459e45a445b145b745df45ec45154620462646374641465c4665467c46e346e9461f47254751475747a247af47b547c1471c4840484b4851485e4864488648b8481c4922493a495d49a349a949294a574a624a084b564b934bae4be24bef4b884c954c174d254d9b4d5c4eca4eb84f175063507350b3504751a651b3510f521d525852a2521e5350531f545254be548d5522568756e956ef56055728572e5758575e579357a0579158c358c958e158e758ed58f35839599259d259ed59135aca5ad85a1f5bbf5bf15b5f5cb65cc15cd15c785d865dd65ddc5d1a5f285f585f5e5f765f7c5f825f885fce5f3b6077609260b8608c619961f5613d62586268627c629a62aa62c662e762fc62176328633d636163026468647a64ba64d264ee643065a2650f6651666f6675667b668166876649678867b967c467ca67d767dd6710687e689c68a76824695269b769066a116a216a366b4d6c656c816cc36cec6cf26c586d006e1e6e246e2a6e306e366ed76e036f216f2c6f326f796fcd6fdc6ff36f0f702d7038703e70457052707c700b715d71bb7113722c724c726e72bd72fb7213732b736d730a741774317469741875347564756d758b7596759c75a975af75d875e5750e7619761f766a76c776cd76f976027720772b7731779677db77eb770f781a7820784b7854786e7879787f788c789278b678e478ef78f57844799b798c7ae87a4d7baa7bc37be27b047c4f7c8d7ca57cbc7c007da67d237e2d7e5b7e6b7eae7ebe7e027f167f5d7f6d7fb87fed7f248064807480ae80be807a828e829482a482aa82b382c082d482da82ea82f082f982068314837c83d983f1843e857085828513862586fe8606870d872587318737873e87ab87e5874988aa88248930893f890c8a598a878a448b588b5f8b738b7a8b928b9e8ba48bb18bb78bca8bd18be58bec8b048c108c168c1d8ce58c128d218d3b8d478d4d8d548d8a8d918dd88ddf8deb8dfa8d6c8e748e7b8e818e888e948e9a8ea18e1e8f2a8f398fd4904991509197919e91aa91b9910d9215921c922292299235923b9242926a929f92e0921d939d93f79343947594bd94c994e694f0948b791052093b3309010001ae9833c8780883881f8488e0553801000128390af00002ae8a123d08f000023308000102c8870732003308000102c88707320000003908f800025108a005330700010383770a092893059511f07b10087b15647583873308205010029c7c78017c797c7a027c7b03978808d4980897aa1097bb18d4ba0ad4a8087c79057c7a047c7b067c7c07979908d4a90997bb1097cc18d4cb0bd4b909979920d489027c79097c7a087c7b0a7c7c0b979908d4a90997bb1097cc18d4cb0bd4b9097c7a0d7c7b0c7c7c0e7c780f97aa08d4ba0a97cc10978818d4c808d4a808978820d498037c78117c7a107c7b127c7c13978808d4a80897bb1097cc18d4cb0bd4b8087c7a157c7b147c7c167c791797aa08d4ba0a97cc10979918d4c909d4a909979920d4890a7c78197c79187c7b1a7c7c1b978808d4980897bb1097cc18d4cb0bd4b8087c791d7c7b1c7c7c1e7c771f979908d4b90997cc10977718d4c707d49707977720d487076f776fa86f396f2a7b5a187b59107b58087b57821008821595111032009511d87b10207b15187b161082897b19088289087b19828510828618837733082050100453fe6f686f59821a6faa821b086fbb787b18787a10787908787898bc38787c1f98bc30787c1e98bc28787c1d98bc20787c1c98bc18787c1b98bc10787c1a98bb08787b1998ab38787b1798ab30787b1698ab28787b1598ab20787b1498ab18787b1398ab10787b1298aa08787a11989a38787a0f989a30787a0e989a28787a0d989a20787a0c989a18787a0b989a10787a0a98990878790998893878790798893078790698892878790598892078790498891878790398891078790298880878780182102082151882161095112832009511a07b10587b15507b16489515608411e06476828718828910828a0882886f776f996faa6f887b18187b1a107b19087b17491138491130491128491120481140208318831a20831b403309ff33070a05821738821830821928821a206f776f886f996faa7b6a187b69107b68087b67501206d9960032009511a07b10587b15507b16489515608411e08282828308828b10828818827c18827910827a0882776fc66f996faa6f776f846fbb6f386f2c7b17187b1a107b19087b167b1c387b18307b1b287b14208318831a203309ff330b2033070a0a50120873960032006f6882196f99821a086faa821b106fbb7b1b587b1a507b19487b18408218186f888219206f99821a286faa821b386fbb7b1b787b1a707b19687b18608379831740330802821a300a04955160ff8210980082159000821688009511a0003200951120ff7b10d8007b15d0007b16c8009515e0008411e082bc7b1c4082bc087b1c4882bc107b1c5082bb187b1b5833020c82ab7b1b1882ab087b1b2082ab107b1b2882aa187b1a308296829a087b1a829a107b1a088299187b1910837783887b183833000e28defb7b183850100ed8fb6f687b187882186f887b18708218086f887b18688218106f887b18608218186f887b1898008218206f887b1890008218286f887b1888008218306f887b1880008218406f887b18b8008218486f887b18b0008218506f887b18a8008218586f887b18a0008379831760330803821a380a04955120ff8210d8008215d0008216c8009511e00032009511f07b10087b158475010a02013d07f40002510507501010095010122e019511e0fe7b1018017b1510017b160801951520018411e04921b8004921b0004921a00080003307409518a0004921a80050101489fc4921d8004921d0004921c8004921c0008317c0000a0b018217d0008218d8008219c800821ac000d49808d4a707d4870751071633073308501016c1fa837833070133090a08018317e0000a038217e8008118f0008219e0006f77977a206f88988820d4a8087b18189877206f98978920d497077b171098862049117849117049116895178000951860491160501018ecfc8017940082189800977720d476067b18388217107b17288217187b17204911584911504911484911409517409518207b163050101a2dfd33078000330850101c2afa8377330833090a285efa33078000330850101e15fa8378330733093300200a0801951110fe7b10e8017b15e0017b16d8019515f0019511f0c48411e064169569d8384929e0004929d8004929c80080003307409568a0394929d00050102256fb3307f400027b6758013907f400025517040728c16e956700408377c0f933083300240a01019567d838817704015247bd629c850a28bd3052475bcba58d0a28c611524723d425a10a28ba3d52470e88a8af0a283b3a51471d6a82cc5e0a52473eb97fd10a28983b524749450f010a286d12524757c4d43b0a28ce385247f71c974a0a28990d5247baf28f4f0a285a235247c7c186630a28342951479b6706690a28b740501226128e003300280a0b33022a28668e0050122a628e0051070628156e8267580181775617430728086e956700408377a0fb3308040a019568d838958900028297e0007b6718018297d8007b6710018297d0007b6708018297c8007b670001956700408377c0fb3308240a019568d838828700037b672001958900028297f8007b6728018297f0007b6730018297e8007b6738019567602333084050102cdbf89568d820958c000250122e80900083774003c867077bca6833003033024605283c9200501232ca91005107062865509567d820492760024927580249275002956820234927480282675801501034c2f9956b000182b74882b940501236249100520706282e50826758018377209568d8207b694801648949284002492838024928300295680023492928027b6a40015010387ef9956a000182a94882a74050123ac2920052070628ea4f8267580183774033023c9569d820014929200249291802492910029568e0224929080250103e40f91407a0ffffff0000000095690001501240d38e0052070628a84f826758018377603302429569d82001492900024929f8014929e801609568c0224929f001501044fdf8826718013302469569d82001959a00017ba7e000826710017ba7d800826708017ba7d0009568a022826700017ba7c8003307501048c6f89567d8204927c0014927b8014927b001647a33072095688022492aa8010250104aa3f8330840330750104c0df750124e158c003300500a0633025228568d00501252528d0095ac00017bc980007bc8787bc77095676022956840227bcb6850105457f9956ad82095ab000182b7900082b8880082b9980082baa00082633001d3730bd8730782623801d88208dbb70882642001d3a407d8a40a826c2801d89c0bdb7a0bd3c909d49707db7b0852080628004d9569d820826700017b97a800826708017b97b000826710017b97b80095688021826718017b97c0003307501056e5f79569d8204929a0004929980049298800023307209568602149299000501058c4f7330840330750105a2ef650125c368b0033005e0a0633026028778c00501260738c00826c20017bac20826c28017bac18826c30017bac10826c38017bac087ba9407ba8387ba73095672021956800219569e0207bab285010623183009568d8208287487b6730018287507b6738018287587b6748018287607b6740019567c02033084050106405f69567d82082787b682801957c00ff82c9f8007b69200182cbf0007b6b500182cae8007b6a5801956cd8187bc8e00795c800077b89d8007b8bd0009567a0207b8ac80033006633024605283c8f00826740019568d818958900077b97a000826748017b979800826738017b979000648a9567802095686020826930017ba98807501068acf7956a000182a72882a850d4870782a92082a858d49808d47808988820d49707977720d48707510706280f4d956bd81895bc000782c7c00082c8b80082c9b00082caa8007bca687bc9707bc878956840207bc780008267580150106a5bf68267300195770188780182693801c89808d48709889901826a4801c8a909d8a90a826b4001c8ba0a956bd81895bc00077bc9387bc8307bc72895672020956800207bca4050106c06f7956b000182b72882b92050126e748d00520706287e4c956bd81895bc000782c75882c8507b69280182c9489777207b6a2001987a2082675801837720492b20077bc9087bc8109568e01f7bca187b670801501070bcf582683001958702d88708826a3801501272908e0082684801501274508f00958c00067bcad8007bc9d0007bc7c80064899567c01f9568a01f7b9be0065010766ff6956a000182a92882a720501278bf8e0052070628e74b956cd81882cb000782c8f80682c9f00682cae806826758018377407bcaa80695ca00067ba9b0007ba8b8009568801f7babc0007b67000150107a29f59567601f33084050107ce6f3956cd81882c3a0067b63200182c498067b64180182c090067b60100182673001957203d8720782693801c87908d89809da770982ca88067b6a380182674801c87909d87907826b4001c8b7077bc340067bc438067bc0300695cb00067bba287bb7607bb9587bb8509567401f9568201f9569001f7bc2480650107e527a9568d818958c000682c77082c9800082cb687b6b480182ca7882621001d32700d8270c82633801d83b04da040c82681801c98a0bd88a0a648082682001c98909c9a909d8cb0ac9a909c9cb0bc92707c94704826a4801c93a0a9567d8187b7ae8057b7820067b7018067b7210067b7308067b74f0057b7bf805647a9567e01e9568c01e7ba9000650208000a57e1407a0ffffff0000000095690001829858d878078298509487829828948752070628714a82675801837960956ad8188267380195ab00057bb7c800826710017bb7d000826718017bb7d8009568a01e826720017bb7e0007b693001649750208200b1f39567801e330840502084006df2956bd81895bc000582c9c00082cab80082c7b00082c8a800956c00017bc7487bc940d497077bc850d4a808d478089888207bca38d4a707977720d4870751070628e249492ba005492b9805492b90059568601e492b880520826750015020860042f39567401e8268580150208800fdf1956a000182a74082a938d47909140700000000010000007ba7281407e0ffffff0000000082a850d8780782a84894877ba9589497520706287b49956cd81882c2800582c8780582ca700582cb6805816950017b69200183972095c900057b9b487b9a507b98589568201e7bc2600550208a00c0f29567001e8268080150208c007bf1956900018297289577c050228e00018a00520706281c49956cd81882c8380582c9300582ca2805140bffffffff00000000d28b0b8499ff84aaff82672001837740492c20057bca08057bc910059568e01d7bcb18055020900057f29567c01d826800015020920012f114070000000001000000956900017b97281407a0ffffff000000005022940087890052070628a248956cd81882c9000582c8f80482caf00482cbe804826720018377607bcbc80495cb00047bbad0007bb8d8009568a01d7bb9e00050209600e8f19567801d8268300150209800a3f09569000182972895778050229a002989005207062844489569d818959a000482a7c0007b67180182a7b8007b67280182a7b0007b67300182a7a8007b67580182672001837780004929a00449299804492a880080009568601d4929900450209c0077f1826850019587a000d88708826a480150229e00498a00826838015022a000088b00958c00047bc9307bc728826718017bc760826728017bc758826730017bc750826758017bc7487bca38648a9567401d9568201d9569001d7bab40045020a2009d729568d818828770048282800482836804828a780482684801d3870bd8870c648082645001d84308dab80c82693801c99a0bd89a0a82694001c99209c9a909d8cb0ac9a909c9cb0bc90707c98708c94307d498085022a400e5880051080628364783787b685801826720013300ec042815ef5022a6000284003300a8000a0b3302aa00285384005022aa004f84005107062801648267580181775617430728f46395670040837780fc3308040a019568d838958900038297c0007b6740018297b8007b6748018297b0007b6750018297a8007b675801956760383300ac003302080528ba89009567d830827888077b683801827890077b683001807898077b68280149276007492758074927500764799567403895682038492948075020ae00e8f09567d830827870077b682001827868077b681801807778077b671001956700408377a0fc3300b0000a03019569d8388297d0038298c8038199d8035022b200a0840049284007492838077b87280795670038492830075020b4005781005022b600d78800959a00077ba720826748017ba718826750017ba7109568e037826758017ba70833075020b80068ef9567d830492700074927f8064927f006647a3307209568c037492ae806065020ba0044ef33084033075020bc00aded5022be001383003300c0000a063302c20028b882005022c200b482004929e00682672801959a00067ba7d800826730017ba7d0009568a037826738017ba7c80033075020c400f1ee3302c6009569d8308267080101959b00067bb7c000826710017bb7b800826718017bb7b00033072095688037826a20017bbaa8005020c800b7ee33084033075020ca0020ed5022cc008682003300ce000a06826a20013302d00028e28300826a20015022d000da830095ac00067bc980007bc8787bc77095676037956840377bcb685020d2005def9567d8307c77880652070628f761956720373308405020d40017ed9569d830018292600695980006828c58828a50828748d42a0bd4c708d4b808988820d4cb0b97bb20d4b808510806289e44492938064929300649292806140b00000000a079c308956800377b9b40067b6a58017b6750017b6240017b6c48015020d600e9ed5022d800d88100520706285d4483977b6738018377049569d830492920064929180649290806209568e036492910067b6a48017b6b40015020da00aced5022dc0010830052070628204482673801837724956bd830492b0006492bf805492be8050f9568c036492bf0055020de0079ed5022e000e1810052070628ed43826738018377443a080000023a09080002956ad8307ba8e005492ad0057ba9d8059568a036492ac80533005e032839ed5022e2009a80003300e4000a0b3302e60028eb80005022e600e780005107062899605022e800958600ac7806288c60956760143300ea003302fc0428878600956ad81095ab000382b7880082b8900080a99803492a80037bb9787bb870956840147bb76833075020ec00d0ec3302ee009569d810014929600349295803492948030533072095682014492950035020f000a9ec33084033075020f20012eb5022f4001980003300f6000a063302f80028f484005022f800f084007b6758016f877b6750016f977b6748016fa77b674001956700143308405020fa0028eb9567d810957900038298407b68b0008298387b68a8008298307b68a0008298287b68b800956b000182b8407b9882b8487b78f80282b8507b78f00264799567e0139568c01382ba587b9ae8025020fc0001ed8264a000826ba800826ab0008267b800d4a409d4b708d49808988820d4b909979920d498085108062863429568d810828220038283180382891003828c08037b6ce0007b8cc8027b69e8007b89d0027b63f0007b83d80264899568a0137b62f8007b92e0025020fe00a2eb8268b8009587207b67c800d887078269a000c879087b68d000d89808da77088267a800c878087b68c000d878078268b000c887077b67d800826740019568d810958900027b97c000826748017b97b800826750017b97b000648995688013826758017b97a80233075020000134eb3308203307502002019de99518e08488e07b685801502204019f80000a0633023303330c3300956b000182ba5882a782a80882a91082aa186f777bb7386f846f977bb7306fa77bb7288267c8007bb7588267d0007bb7508267c0007bb7488267d8007bb740018267e000d872078269e800d39308d89309da8709826bf000d8bc07826af800d3a008d8a00ada870ad3bc07d48707da790a520a062801357b6c08017b6010017b6318017b622001956ad8108267280195ab00017bb768826730017bb7707b6400017ba478019567601295684012826938017bb980005020060147eb956b000182b75882ba48d4a70982b84082bc50d4c808d48909989920d4a808978820d4980851080628a940956bd81082b2a00182b8980182b990017b6a480182ba88017bba48017bb950017bb85801956820127bb260017b6758017b6c500150200801eee982675801957420d8740982675001c89708d8780ada990a82674801c8a709d8790a82674001c8a7077b67400182672801957701887a01826b3001c8ab0b7b6b30017b672801d4b70a88aa0182670001c87a0ad87a0b82673801c8b7077b67380182622001952201882b0182631801c8b303d4320b88bb0182670801c87b0bd87b0c82601001c8c0007b6458017b6850017b69480164a464bc2888fe50220a01b17c33000c010a0b33020e0128037d50220e01007d51070628b35c8267580181779569d8285617030728a25c4929400649293806492930069567202f9568002f4929280650201001f9e99567d82882775806956800017b87489567d828827750067b87589567d828827748067b87509567e02e330840502012019ce7956ad82895ac000682cb2082c81882c91082c7085022140189810051080628333f956b000182b848978820988920492a000682b85095ac00057bc8e80082b8587bc8f0009568c02e7bc9f8007b675801330016032879e850221601da7b330018010a0b33021a01282c7c50221a01297c51070628dc5b826758018177562783000828ce5b956700408377e0f93308040a019568d838958900018297207b67788297187b6780008297107b6788008297087b67900095670040837700fa3308240a019568d838958900018297407b67b0008297387b67a8008297307b67a0008297287b67980095670040837720fa3308440a0101956cd83895ca000182a76082a85882a950d4780a889b0194ab520b0628405b82ca4801826b580180b295ac04d8ac0ac8a90bd89b09daaa09c88909d88908c8870a9567d8104917204917184917107b72087b7c287b7b307b7938647b95672011956800119569e0107bba4050201c01c0669568d810828760956900017b97188287587b97208287507b97108287487b9728828780007b97388287787b97308287707b97488287687b974095670040837740fa3308640a0101956cd83895ca000182a7800082a87882a970d4780a889b0194ab520b0628875a82ca68019563ff079533d100826b580180b295ac04d8ac0ac8a90bd89b09daaa09c88909d88908c8870a4923a8074923a007492398077b3290077b3cb007953c00077bcbb8007bc9c0009567a01095688010956960107bcac80050201e01f9659568ff079588d100958900078297e8007b67b8008297e0007b67c8008297d8007b67c0008297d0007b67d0009568d81082877b6760958900ff8297f8007b67588297f0007b67688297e8007b677095670040837760fa330020010a03019569d83882979001819898018299880150222201557d9569ff079599d10049298807959b00077bb880007bb778956840107bba703307502024010fe69569ff079599d10049296807492960074929500701330720956820104929580750202601e9e533084033075020280152e49518e08488e07b68500164818377838933084033002a010a06826a500133022c0128487b826a500150222c01417b956aff0795aad100492a0807492a0007492af806492af006800095ac00077bc9287bc8207bc718956700109568ff079588e1079569ff079599c1077bcb1050202e011e6b9563ff079533d1009538000782873082324807828938828a40957b80d87b07c8790c95ccffd39c08d89c09da870995a7ffc87909d8790788a801c98208c8780a7b3bb0064923e8064923e0064923d806953b0006492bd00080007bbcb8007bb9c0009567ff079577a1079568ff07958881077bbac80050203001816f9567ff07957761073308800050203201a7e39567ff079577d100957b000682b8a80082b9a00082ba980082b79000d4a808d4970ad48a0a98aa20d49808978820d4a80851080628283b83787b6850013307a000502034010be39518e08488e07b680801648183778389826850010a06826908018297183a08a000028292829a10829b08d387073a08a800023a0cb000023a09b80002d3b808d48707d3ca0ad39208d4a808d487077b6750019567ff079577410733084050203601fde29569ff079599d100959c000682c7880082c8800082ca7082cb78d48a03d47b0cd4780264948269500151090628e5317b620001954900057b9ad0007b9bd8007b97e8009567ff079577a1067b98e0007b6a08017b6bf8007b6850017b6ce8007b63f000330038013302460528117c8269e8008267f000d4970798772082685001d49808978820d4870751070628263a826798009569ff079599d100959a00057ba7b0008267a0007ba7b8008267a8007ba7c0009568ff07958881068267b0007ba7c8008267080150203a0167e395670040837780fa0a0301140900000000010000001407e0ffffff00000000826b0801d87b078268f800948782680001948752070628b0399567d8387b69500164798277b0018198b8018299a8016f77977a206f88988820d4a8029877206f98978920d4790998882083b720956aff0795aad100492aa8057ba8a0057ba998059568ff07958861067ba290057b67d80050203c01d1e2956700408377a0fa0a070195690001829b088297509577c0d87b078268f8009487829894875207062827399567d838827cc8018278d0018279d801827ae00183b740956bff0795bbd1007bba880595ba00057ba980007ba8789568ff07958841067bac707b673850203e0164e2956a000182a73882a830d4870782a948889801947852080628fa5e8268400195871fd88708c898088488018477e0957a207b6a40d87a07c8780a7b6a48d88a08da77087b68509567ff079577210633084050204001d6e09569ff079599d100829768057b675001829a60057b6af000829b58057b6be800829c50057b6ce000492928058268407b9810057b9748057b9a40057b9b3805959b00057bbc308267487bb7189567ff07957701069568ff079588e105826a507bba2050204201366c8267e0008268e8008269f000826c5001d48c0cd49708d4c808988820d49c0c97cc20d4c80851080628fb379569ff079599d100826840017b98f004826848017b98f804826830017b9800059568ff079588c105826a38017b9a08055020440144e18262280182684001c82808d828098260100182674801c80707c89707d3070ad8070bdaa90b8263200182693001c83909d8390a82641801826c3801c84c0cc8ca0a826c580180ccc89b0bd89b09c8a909d88c08887a01858801db7a0888b701889a01da970ad4b909db9a08826a4801826b400152080628c65dd43207d44008d48707987720d43808978820d4870751070628313782693001d49b0782683801d4a808d48707987720d49808978820d48707510706280e37826350018264f000d434071400e0ffffff00000000826ce000d80c088269e8009498947852080628e43683227b62280183c72083b87b6820017b60580150204601bede837782682001826928010a01826240018267e000c87202d872088267e80082694801c87909c88909d3790ad8790bdaa80b826830018267f000c87808d8780a826c380182675001c87c0cc8ca0ac88b0bd88b08c8a808d4b808826a5801d8a20a949a948a520a062861368327209569ff079599d1004929e8044929e0044929d8049568ff079588a1054929d00450204801b7df1407a0ffffff0000000050224a01af7852070628223682670801837960956aff0795aad1008267e00095ab00047bb7b0008267e8007bb7b8008267f0007bb7c0009568ff0795888105826750017bb7c8007b691801649750204c015adf8267789569ff079599d100959a00047ba7a800826780007ba7a000826788007ba798009568ff0795886105826790007ba79000330750204e011fdf9569ff079599d100492988044929800449297004023307209568ff07958841054929780450205001f5de3308403307502052015edd5022540165720a06956c000182ca5882a71882a81082a90882aa6f7b6f876f986faa9569ff079599d1007bca407b9a48047bc848959a00047ba8407bc7507ba7389567ff07957721059568ff07958801057bcb587bab305020560181df9568ff079588d100958a000482a96882a76082a858647a6492d497076489888801947852080628685b956cff0795ccd10082c750047b6738019577018878017b693001c89808d487098899017b6a2801c8a909d8a90a7b622001c82a0a826b58017bcb10047bc7f0038267500195cb00047bb718826748017bb7207bc8f803826740017bb7287bb99567ff079577e1049568ff079588c1047bba085020580158df9567ff079577d100956c000182c820957900037b98880082c8287b98800082c8307b987882c8387b987082c8407b98a80082c8487b98a00082c8507b989800647b9567ff07957781049568ff07958861049569ff079599410482ca587bba900350205a014e69956aff0795aad10095ab000382b7e80082b8e00082b9d80082bad000d49707d4a808d4870751070628a95a9568ff079588d100958900038297c8007b6758018297c0007b6750018297b8007b6748018297b0007b6740019567ff079577e1038268080150205c01e6db956bff0795bbd10095bc000382c71082c81882c92082ca287bbae80295ba00027ba9e0007ba8d8007ba7d000826758017bc708826750017bc7826748017ba7f8009567ff079577c1039568ff079588a103826940017ba9f00050205e012ade826740019579017b69380188970182684801c887077b673001d4970788770182685001c887077b672801d8870782685801c887077b6720019567ff07957781038268d800502060013ddb9567ff079577d100957900028298b0007b6810018298b8007b6808018078c0027b680001826820017b988800826828017b988000826830017b9878647a9567ff07957761039568ff0795884103826938017ba97002502062010ddd956aff0795aad10080a7a40295ab000282b8a80097772082690001d479097bb848826708017bb738826710017bb730826720017bb768826728017bb760826730017bb758826738017bb7509567ff07957721039568ff07958801037bb9405020640121dd9567ff079577e102826838502066016dda956aff0795aad10082a2100282a3180282a4200282a0280282674001957902d8790c82684801c8c807d88708dacc08826b5001c8b808d8b80c826b5801c8bc0c7ba0e8017ba4e0017ba3d8017ba2d0017bac08027ba800027ba7f8019567ff079577c1029568ff079588a1027ba9f001502068019adc9567ff07957781028268180150206a01e5d99568ff079588d100958b000182b9c80082bac00082b7b80082b8b0007b67f0007b69e800d497077b68f800d4a808d478089888207b6ae000d4a707977720d487075107062856319567ff07957761028268f80050206c018cd99567ff079577d100957a000182a8a80082a9a00082a798007b68487b6938d498087b67408877017b683801948752070628435882674001957803d8780764827b683082684801c87809d88908649b7b6928da770882695001c8890c7b6c18956aff0795aad10082a790017b6750d89c0782685801c878097b69207ba250017bab58017bac60019567ff07957741029568ff07958821027ba9680150206e0117db956bff0795bbd10095bc000182c97082c77882c8800082ca88007bca287bc8207bc7189567ff07957701029568ff079588e1017bc91050207001e95e956bff0795bbd10095bc000182c73082c83882c94082ca487bbae800826a487bbac800826a387bbac000826a407bbab800826a507bbab0007bb9e0007bb8d8007bb7d0008267207bc7088267187bc78267287bb7f8009567ff079577c1019568ff079588a1019569ff0795998101826a307bbaf0005020720181668269408e97826850888820858801db97088267388e77826a488ea9daa70982673801da780952090628b73b8267508477e07b67d8009567ff079577d1008268307b78708268287b78788268187b7880009568ff07958841018269207b79880033075020740105d93308203307502076016ed79518e08488e07b68500150227801706e0a064926580120330233043300492630013303330c956b000182ba5082a782a80882a91082aa186f777bb7406f877bb7386f9733097bb7486fa782ba307bb750018267d8007b6a3001d87a07857b017b631801943b017b6c28017b692001d4c907947b018268f80082635801c83808826af000c82a0a8269e000c849098267e800c80707510b0628023b7b601001d8380bc8ba0a642cd32a027b6c0801d8ca0cda2b0c50227a01f96d51070628bc2e9567600250207c01fad6956b000282b76082b86882b97082ba787bba387bb9307bb8287bb720826740017bb758826738017bb750826748017bb7489567400295682002826950017bb94050207e0157d950228001116dc87802d8820882674001c887077b67400182675801957320d8730a82670801c8a704d8740bdaaa0b82670001c87b0bd87b0a82601001c8a00082673001957a20d87a0c82681801c8c807d88708dacc0882692001c89808d8980c82692801c89c0c7b6238017b635801644264b46473648928cbfe50228201cf6a330084010a0b3302860128216b502286011e6b51070628d14a50228801cd70ac780628c54a9567e01850208a01f26795670040837780fb33080433008c010a0133028e0128c57050228e01c27082b7a80082b8b00082b9b80082bac000956bd8187bba95ba00ff7ba9f8007ba8f0009568c0187ba7e800330750209001ecd6330292019569d810014929e0074929d8074929c807033307209568a0184929d00750209401c5d63308403307502096012ed550229801356a33009a010a0633029c0128116f50229c010e6f7b6740016f877b6748016f977b6758016fa77b6750019567801833084050209e0147d5956bd81095bc000782c7c0007b67980082c8b8007b68900082c9b0007b69a00082caa8007b6aa8007bc7a0007bc898007bc99000956760187bca88003300a0013302580528826e956740183308405020a201f3d49567d810957c000782c980007b69380182ca787b6a300182cb707b6b280182c8687b6820017bc9207bca187bcb107bc808826850017bc840826858017bc838826848017bc830647b95672018956800189569e017826a40017bba28075020a4017a5b9568d810958c000782c75082c96082cb487b6b180182ca5882622801d32700d8270c82632001d83b04da040c82683001c98a0bd88a0a648082683801c98909c9a909d8cb0ac9a909c9cb0bc92707c94704826a1801c93a0a9567d8107b7ac8067b7800077b70f8067b72f0067b73e8067b74d0067b7bd806647a9567c0179568a0177ba9e0065020a601cd5f8267a800826898008269a000d48909826a9000d4a708d49808988820d4a909979920d4980851080628922b956ad8108268200195ab00067bb8a800826828017bb8b000826830017bb8b80095688017826938017bb9c0005020a801dfd4826740019579017b69400188970182684801c887077b674801d4970788770182685801c887077b673801d8870782685001c887077b675801956760173308405020aa0163d39567d810957900068298a0007b688800829898007b688000829890007b6878829888007b6870956b000182b8587b986082b8387b985882b8487b98506479956740179568201782ba407b9a48065020ac013bd5826a708268788269800082678800d48707d49a08d47808988820d49707977720d48707510706289f2a9569d8108292800682937806959c000682c87082cb681407ffffffff000000007b67d8007b6bb8007bcb287b68c0007bc8307b63c8007b933806956800177b62d0007b92400664a75020ae01d0d3826758019568d810958900067b9720826738017b9718826748017b971064899568e016826740017b97080633075020b0019dd333082033075020b20106d29518e08488e07b6858015022b40108690a0649263801330c49263001956b000182ba5882a782a80882a91082aa186f777bb7086f877bb7106f977bb7206fa77bb718330a1407e0ffffff000000007b67b0008267707bb7588267787bb750826780007bb748826788007bb74001826458019540208267b80082683801d878078269c000d39c08d89c09da8709826bc800d8ba0264a7826ad00082683001d3a803d8a80ada320a7b670001d3b707d437077b602801d8400bda790a82675001c8b708d87807dabb0782694801c8790bd89b0782694001c89707520a0628e6217b6be0007b67e8007b68f0007b6cf800956ad8108267180195ab00037bb7c800826720017bb7d000826710017bb7d8009567c0149568a014826908017bb9e0005020b60162d3956a000182a74882a840d487078268b00082a958d8890882a9509498947852080628cb28956bd81095bc000382c7f80082c8f00082c9e800826ad800d2a7078488ff8499ff492bc0037bc9a8007bc8b000956880147bc7b800826728015020b8010bd2956b000182b81895880188870182b920c879097bb9207bb818d4980788770182b810c88707d8870882b908c889097bb90882b938959901889801826cf800c88c0c7bb938d4c90888880182b9c89808d8980982ba30c89a0a7bba3082b9287bb9588269f0007bb9508269e0007bb9488269e8007bb9407bb710648a286bfe5022ba01eb643300bc010a0b3302be01283d655022be013a6551070628ed445022c001e96aac780628e1449567e01c3300c2013302fc0428dc6a3302c4019568d81801828708047b675801828710047b675001808718047b6748019567c01c5020c601de619567d8184927e00382684801957a00037ba8d800826850017ba8d0009568a01c826958017ba9c80033075020c801f8d09567d8184927c0034927b8034927b003647a3307209568801c492aa803015020ca01d4d033084033075020cc013dcf5022ce0144643300d0010a063302d2012820695022d2011d697b6720016f877b6728016f977b6738016fa77b6730019567601c3308405020d40156cf9568d818958c00035022d601fa66837740fcc867077bca683300d8013302580528b5689567201c3308405020da0126cf9567d818957c000382c9607b69180182ca587b6a100182cb507b6b080182c8487b6800017bc9957900027b9af8007b9bf0007b98e800826830017bc820826838017bc818826828017bc810647b9567001c9568e01b9569c01b826a20017bba08035020dc01a8559568d818958c000382c73082c94082cb287b6bf80082ca3882620801d32700d8270c82630001d83b04da040c82681001c98a0bd88a0a648082681801c98909c9a909d8cb0ac9a909c9cb0bc92707c94704826af800c93a0a9567d818957c00027bcaa8007bc8e0007b70d8027b72d0027b73c8027b74b0027bcbb800647a9567a01b9568801b7ba9c0025020de01f7595022e001406751070628db259569d81882670001959a00027ba78800826708017ba79000826710017ba798009568601b826718017ba7a000826758015020e20124cf9567401b3308405020e401e0cd956cd81882c380027b63180182c478027b64100182c070027b60080182c268027b620001826a200195aa0188a70182682801c88707d47a0888880182693801c89808d89809826b3001c8b9097bc320027bc418027bc010027bc2080295cb00027bb9407bb8387bb7309567201b9568001b9569e01a7bba285020e6014b549568d818958c000282c75082c96082cb487b6b380182ca5882620801d32700d8270c82630001d83b04da040c82681001c98a0bd88a0a648082681801c98909c9a909d8cb0ac9a909c9cb0bc92707c94704826a3801c93a0a9567d8187b7ac8017b7800027b70f8017b72f0017b73e8017b74d0017b7bd801647a9567c01a9568a01a7ba9e0015020e8019e58956a000182a74882a840d487071408e0ffffff0000000082a958d8890882a9509498947852080628642482675801837920956ad8188267000195ab00017bb7a800826708017bb7b000826710017bb7b8009568801a826718017bb7c0007b69300164975020ea01a4cd9567601a3308405020ec0160cc956bd81895bc000182c9a00082ca980082c8900082c78800956c00017bc8507bc948d48909d4a708d498089888207bca40d4a909979920d4980851080628d823492b8001492b7801492b70019568401a492b6801207b6738015020ee0138cd9567201a826858015020f001f3cb956c000182c83882c74882c940d4790a140b00000000010000001407e0ffffff00000000d8780782c950949794a75207062877239569d818959c000182c7607b67180182c7587b67200182c7507b67280182c7487b67580183887b6800018387204929400149293801491c28409568001a492930017b6a10017b6b08015020f201a7cc8267380195776082683801d88708826a50015022f401766582684001c88a0ad88a08826b4801c88b0b9568d8187b89d0007b87c800826718017b870001826720017b87f800826728017b87f000826758017b87e8007b8ad800648a9567e0199568c0199569a0197babe0005020f601be4d3302f8019568d81801958900018297207b6718018297187b6720018297107b6728018297087b67580195678019826830015020fa01c8ca95690001829a388297089577c0d87a07829850948782981094875207062860229568d8188287c0007b6710018287b8007b67300182675801d8a7096474826b500182682801d3b802d8b807648cda29078263400182622001c9320064a8c9bc0ac99a0bc9840a95a4e0d8a40cc8cb0a95aaffd3ba08d8ba0bda8c0bd8320282694801826c1801c99c0cc92c0cd87008c98c02956cd81882c8b0007b68f800c97007887801c9820982c8a8007b6808019577ffc87b0bd87b07c87909826700018377407bc488007bca90007bcb9800956860197bc9a0005020fc0123cb9567d818826818017b7840826820017b7838826828017b7830826858017b7828826810017b7860826830017b78588268f8007b7850647b956740199568201995690019826a08017bba485020fe015b4c9568d81882877082828000828368828a7882685001d3870bd8870c648482603801d80308dab80c82694001c99a0bd89a0a82694801c99209c9a909d8cb0ac9a909c9cb0bc94707c98708c90307d4980850220002a66251080628f82083787b685801826700013300ec0428d7c850220202c45d330004020a0b3302060228165e50220602135e51070628c63d50220802c263ac780628ba3d9567a02e33000a023302fc0428b5639568d828958900058297d8007b6718018297d0007b67c0008297c8007b67c8004928a005492898054928900564899567802e9568602e4929880550200c02e0ca9567d8288278b0057b6858018278a8057b6850018077b8057b67480195670040837700fc0a039569d838959a000382a73082a82881a9386f77987a206f88978b20d4ba0a9777206f99989920d4970798882082694801d3980882695001d39707d4870782685801d3a808d487078877019568d82849288005492878057b8768059567402e4928700550200e021d5b9567202e330840502010021ac8956bd82895bc000582c96082ca5882c75082c8487b6928017bc9407b6a20017bca387b6730017bc7309567002e7b6838017bc8283300120233025805285d619567e02d33084050201402cec79567d828827a20057b6a5001827918057b694801827c10057b6c4001827b08057b6b58014927e0044927d8044927d0044927c804407b7a00057b79f8047b7cf00464799567c02d9568a02d7b9be80450201602415350221802636051070628251f9569d8284929c0044929b8044929b0049568802d4929a804088267580150201a0281c8956a000182a75082a848d487071408e0ffffff0000000082a958d8890882a9409498947852080628d81e82675801837720956ad828492a98043a09580002492a9004492a88049568602d7b69b8007ba9a00450201c0229c8956c000182c93882cb20d4b90782c83082ca28d4a808d48707987720d4b808978820d48707510706287f1e956ad8288267580195ab00047bb768826740017bb770826748017bb7789568402d826750017bb78000649750201e02cdc79567202d3308405020200289c69567d828827960047b695001827858047b684801827b50047b6b4001827a48047b6a58014927200449271804492710044927080440957c00047bc9407bc8387bcb3064799567002d9568e02c7b9a280450202202fb51502224021d5f51070628df1d9569d828492900044929f8034929f0039568c02c4929e8030382675801502026023bc7956b000182b75082b848d48707140ae0ffffff0000000082b858d8a80882b9409498947852080628921d826758018377209569d8284929d8034929d003140800000000005450447b98e0039568a02c4929c8037b6a100150202802dec6956b000182b72882b820d4870782b93882b810d8890882ba3094a89478520806283c1d839720956bd8288268580195b900037b98a800826840017b98b000826848017b98b8009568802c826a50017b9ac0007b67800050202a0282c6826718019777209877209569d8284929a0037b6778959a00037ba798008267c0007ba790009568602c8267c8007ba78800330750202c0249c69569d828492980034929780349296803013307209568402c4929700350202e0227c633084033075020300290c45022320297590a06956900018298588287187b97488287107b97408287087b973082877b97289567202c82983850203402b2c49568d828958b000382b96082ba5882b75082b8487b67f8007b69f000d49707d4a809d479099899207b6ae800d4a707977720d49707510706282f1c9567002c7b68d8005020360269c49569d828959b000382b84082b73882ba307b678800956b00017bb858d478087bba5088a7017bb8389487520706286d43826728016f7a7b6aa800829728037b67b000826730016f787b68a000826740016f7b7b6b9800826748016f777b679000959c00027bc7e8007bcbf0007bc8f8009567e02b9568c02b7b9a00035020380212c6956bd82895bc000382c90882c71082c81882ca2095bc00027bcac0007bc8b8007bc7b0009567a02b9568802b7bc9a80050203a02ea49956bd82895bc000282c7c80082c8d00082c9d80082cae0007bca8000826a58017bca60826a88007bca58826a50017bca50826ab0007bca487bc9787bc8707bc7688267a8007bc7a0008267a0007bc79800826798007bc790009567602b9568402b9569202b826a90007bca880050203c028a518262b000826c50018ec7882820858801dbc708826b88008eb7826a58018ea9daa70982673801da7809d4ac077b67e00098233f97c40198cc3f64b797b00198bb3f97aa019728017b68707b6c687b63607b60587b64507b6b487b6a4052090628951a842ce07b6cd000826790009569d828959a00027ba708826798007ba7108267a0007ba7189568e02a8267a8007ba720330750203e02dcc333082033075020400245c29518e08488e07b6850015022420247590a064926580120330333023304492630013300330c956b000182ba5082a782a80882a91082aa186f777bb7406f877bb7386f9733097bb7486fa782ba307bb750018267d0007b6a3001d87a07857b017b602001940b017b692801d4c907947b018268d80082675801c87808826af800c8a3008269e800c829098267f000643ac874038267e000510b0628d8197b6c10017b64180182675801d8780bc8b0006427d3a002d8a00cda2b0c647bc89c0cd89c02d87909c89307c82707d4c809d47007d47909989920d4c707977720d49707510706286d19956760267b6b08017b6a000150204402a3c1956bd82095bc000582c7880082c8900082c9980082caa0007bca607bc9587bc8507bc748826740017bc78000826738017bc778826748017bc7709567402695682026826950017bc96850204602f7c350224802b157c87802d8820882674001c887077b67400182675801957320d8730a82670001c8a709d8790bdaaa0b82670801c87b0bd87b0a82641801c8a40482673001957a20d87a0c82682001c8c807d88708dacc08826c2801c8c808d8c80c82601001c80c0c7b6238017b635801649364b2647064892894fe50224a026f5533004c020a0b33024e0228c15550224e02be55510706287135502250026d5bac780628653595670040837760fb330804330052020a0133025402286f5b502254026c5b82b7880082b8900082b9980082baa000956bd81095bc00017bca407bc9387bc830956800127bc72833075020560298c1330258029569d81001492920014929180149290801043307209568e0114929100150205a0271c1330840330750205c02dabf50225e02e154330060020a0633026202282d58502262022a5883aad800c86a0a7ba9e0007ba8d8007ba7d0009567c0119568a0117babc800502064021cc29567d8108277e8007b6758019567801133084050206602d8bf956ad81082abc00082a8b80082a9b00082a7a80050226802c5595108062870177c6858018e88492aa000492a98007ba8880095686011492a90007b6758013300160328c7c050226a02285433006c020a0b33026e02287a5450226e027754510706282a3450227002265aac7806281e3495670040837760fc3308040a01956ad83895ab000382b7880082b8900082b9980082baa000956bd83095bc00027bca607bc9587bc850956820337bc7483307502072025ac0330274029569d830014929400249293802492928020233072095680033492930025020760233c03308403307502078029cbe50227a02a35333007c020a06826a580133027e02285f55826a580150227e0258557ba9000295a900017b98f8007b97f0009567e0329568c0327b9be80050208002d9c09567d83095790002829820956700017b78588298187b78508298107b78488298087b78409567a032330840502082027dbe956ad83095ac000182c7e00082c8d80082c9d00082cbc800502284024f585107062811169569000182974095ac00017bc7a8008297487bc7b0008297507bc7b800956880328297587bc7c00064b77b6b5801330016032858bf50228602b952330088020a0b33028a02280b5350228a02085351070628bb32826758018177330843ac780628ac329567803933008c023302080528a7589568d8388287a8007b6758018287b0007b6750018087b8007b674801956700408377c0fc3308040a01956bd83895ba000382a7e80082a8f00082a9f80082ba00047bbaa0007bb998007bb89000956860397bb78800330750208e02c1be9569d83849298000491978491968063307209568403949197050209002a2be3308403307502092020bbd9518e08488e07b6840016481837783893308400a06826a400182a71882a81082a90882aa6f777b6740016f877b6738016f977b6730016fa77b6728019569d838491960826748017b9758826750017b975095682039826758017b974833075020940233be9569d838826728017b9740826730017b9738826738017b973033072095680039826a40017b9a285020960206be3308403307502098026fbc50229a02765133009c020a06826a580133029e02287253826a580150229e026b53956ad8387ba995a900ff7b98f8007b97f0009567e0389568c0387b9be8005020a002aabe9567d8388277087b6758019567a0383308405020a20267bc956ad83095ac000782cbe00082c8d80082c9d00082c7c8005022a402505651080628fb137c6858018e88492ac007492ab8077ba8a80795688038492ab0077b675801330016032852bd5022a602b3503300a8020a0b3302aa022805515022aa02025151070628b5308267580181775617430728a83095670040837720fc3308040a019568d838958900038297607b6740018297587b6748018297507b6750018297487b675801956760323300ac02330208052872569567d830827888017b683801827890017b683001807898017b68280149276001492758014927500164799567403295682032492948015020ae02a1bd9567d830827870017b682001827868017b681801807778017b67100195670040837740fc3300b0020a03019569d838959a000382a77082a86881a9785022b202585149284001492838017b87280195670032492830015020b402104e5022b6029155959a00017ba720826748017ba718826750017ba7109568e031826758017ba70833075020b80223bc9567d830492700014927f8004927f000647a3307209568c031492ae800065020ba02ffbb33084033075020bc0268ba5022be02ce4f3300c0020a063302c20228744f5022c202714f4929e000826728017b97d800826730017b97d0009568a031826738017b97c80033075020c402b3bb3302c6029569d83082670801017b97c000826710017b97b800826718017b97b00033072095688031826a20017b9aa8005020c8027dbb33084033075020ca02e6b95022cc024c4f3300ce020a06826a20013302d00228a950826a20015022d002a2507ba980007ba8787ba77095676031956840317bab685020d2022abc3302d4029569d830017c97880051070628b7319567c02f3308405020d602dfb99569d8288292000795980006828cf800828af0008287e800d42a0bd4c708d4b808988820d4cb0b97bb20d4b8085108062864114929d8064929d0064929c806140b00000000a079c3089568a02f7b9be0067b6a58017b6750017b6240017b6c48015020d802afba5022da029e4e52070628241183977b6738018377049569d8284929c0064929b8064929a806209568802f4929b0067b6a48017b6b40015020dc0273ba5022de02d74f52070628e81082673801837724956bd828492ba006492b9806492b88060b9568602f492b90065020e00241ba5022e202a94e52070628b610826738018377443a085000029569d828492970067b988006140800000000006465747b9878069568402f4929680633005e0328fdb951474a65717c0a28752d5022e402544d3300e6020a0b3302e80228a64d5022e802a34d51070628562d5022ea025253ac7806284a2d956700408377e0fb3308040a019567d838957c000382c82082c91882ca1082cb089567d8207b6850017b7800057b694801957c00047bc9f8007b6a40017bcaf0009568c0257b6b38017bcbe80033075020ec0276b99567d8204927e0044927d8044927d004647a3307209568a025492ac804025020ee0252b933084033075020f002bbb75022f202c24c3300f4020a063302f60228014e5022f602fe4d95ac00047bc9a0007bc898007bc7900095678025956860257bcb88005020f80200ba9569d8208292c00495970004827cb800827ab000827ba800d42a07d4cb08d4870752074601956700243308405020fa02a3b79569d8208292400395980003828c38828a30828728d42a0bd4c708d4b808988820d4cb0b97bb20d4b808510806282b0f492918034929100349290803140b00000000a079c3089568e0237b9b20037b6a58017b6750017b6240017b6c48015020fc0276b85022fe02654c52070628eb0e83977b673801837704330200039569d82001492900034929f8024929e802209568c0234929f0027b6a48017b6b40015020020335b895680001828a48828b508289588287409577dcd87b07949794a752070628960e82673801837724956ad820492ae002492ad802492ac802149568a023492ad00250200403efb750220603574c52070628640e826738018377443a088000023a09880002956ad82095ab00027bb8c0007bb9b800140800000000646564617bb8b00095688023492aa80233005e0328a2b7826738017b976804826740017b977004826748017b97780495684025826750017b97800433077b6258017b6b40017b6c50017b6a48015020080369b79567d820492760049567d820492758049567d8204927480402330720956820259569d8204929500450200a033bb7330840330750200c03a4b59518e08488e07b6838016481837783893308400a06826a380182a71882a81082a90882ab6f726f836f946fb982674001887b01826c4801c9bc0bd47c0c88cc0182685001c9c80ad8c80c82685801c9c80c9577ff9568d8207b8ce0039568d8207b8ad8039568d8207b8bd0039568d8207b87c8039567d8207b7900049567d8207b74f8039567d8207b73f0039567e0249568c0249569a024956ad8207ba2e80350200e0352429567d820827908049567d820827710049568d82082881804956ad82082aa2004956bd8207bbaa003956ad8207ba898039568d8207b8790039567802495686024956ad8207ba988035020100330b79567d8208277c003956800017b87589567d8208277b8037b87509567d8208277b0037b87489567d8208277a8037b87409567402433084050201203c8b4956ad82095ac000382c7800082c87882c97082cb68502214039d4e5207620c9569000182974095ac00037bc7488297487bc7508297507bc758956820248297587bc76064b77b6b580150201603b0b5816758013308205020180317b4837833092033070a08018267b80082605801d870087b683801826ca00082625001d3c20ad8c209daa8098263a800826a4801c93a04d83a0a8268b000826b4001c98b0bc9ab0bd8940ac9ab0b7b6b4801c99404c9c209826a3801c9a909c9700b956ad8107ba788027bab680295ab00027bbc90007ba398027bb9707bb8a0007ba478029567601395684013826948017bb9800050201a039b3f9567201333084050201c03c6b39569d810018292600295980002828c58828b50828748d42b0ad4c708d4a808988820d4ca0a97aa20d4a8085208500b9578207b685001d87803c83b087b685801d8b808da3308c8c8087b684001d8c808c828087b6848014929400249293802492930029568001349292802207b67f0007b6be8007b62e0007b6cb00050201e037bb49567e0128268b8005020200336b3956b000182bc5082b940d49c0782b85882ba48d4a808d48707987720d49808978820d487075207c60a9569d8108292200295970002827818827a10827b088167f0007b67b8007b6bf800959700017b7be8007b6a00017b7af0007b6808017b78f8009568c0127b6210017b92000264c750202203f7b33300330b330233048268f000958740956a00017ba750d887078269e800c879087ba848d89808da77088267b000c878087ba840d878078268e000c887077ba7588268c8008263c000018267f800d8700782690001d39b0a7b6b3801d89b09daa709826c0801d8c207826a1001d3a40bd8a40adab70ad3c207d4b707da790a510a9209d438078269d800826ad000d4a909d49707987720d43909979920d497075207d6097b6220017b6428017b6030017b63c0009567a0127b68c80050202403ffb195680001828c50828940d49c07828a5882634801d4a308d48707987720d49808978820d4870752078e09956bd8107b69400182b2e00195b900018298d8008297d0007b6a5801829ac8007b9aa8007b97b0007b98b800956880127bb2c00164c77b6c50017b63480150202603c8b2826850019587207b671801d8870982674801c89703d8730ada990a82674001c8a702d8720a82675801c8a7077b6758018267c800957a20d87a0b8267d000c8b70cd87c07dabb078268c000c87809d8890b8267d800c8b7077b67d80082603001950001880b0182643801c8b404d4400b88bb0182672001c87b0bd87b0882672801c88707826818017b6850017b6348017b62400164a87b6cd000649364b2644b64742878fed4c307987720d4c808978820d4870752079208492460064924580649245006140700000000a079c3089568ff07958821077b47680664a77b6a08017b6200017b6bf80050202803dab182680801140a00000000010000001407fcffffff00000000d878078269f80094978269000194975107310883877b6750018377049569ff079599d100492948064929400649293006209568ff0795880107492938067b6a580150202a037bb1826bf80095680001828a8289088287589577dcd8790794b794a75107df0782675001837724956cff0795ccd100492c2806492c2006492c10060c9568ff079588e106492c180650202c032fb11407bcffffff0000000050222e03274a51079d07826750018377443a08c000029569ff079599d1004929f8057b980806140800000000726564617b9800069568ff079588c1064929f00550203003dfb033086482675001330060032842af82627082692801d82904826078d3080ad80809daa409826c8000c9cb0ad89a03d8cb0bc83b0b7b6b580182638800c9370b82675801c97b077b675801c99a0bc90809c9490982672801c92707956ad8107ba2e8057ba7c8057ba0f0057bacf80595ac00057bc9d0007ba300067bcbd8009567c0169568a016826958017bc9e00050203203dc3a8267980082689000d487071408e0ffffff000000008269a800d88908826aa00094a894785108a506839720956bd81082687095b900057b98a8008268787b98b000826880007b98b80095688016826a88007b9ac0007b67580150203403ecaf9567601633084050203603a8ae9562d81095280005828aa000828c9800828b900082878800d4ab09d4c708d49808988820d4c909979920d49808520830064922800549227805492270057b6a88009568401649226805207b6798007b6b90007b6c80005020380383af956720168268a80050203a033eae82628000826a880082689800d4a20c140b00000000010000001407e0ffffff00000000d8780782699000949794c75107c50533023c039569d81001959a000582a7607b67280182a7587b67400182a7507b67480182a7487b67500183887b68788387204929400549293805491a284095680016492930057b6c38017b6b300150203e03f0ae8267980095776082689800d8870882699000c88909826a9000d8a90ada880a82688000c88a0ad88a08826b8800c88b0b9568d810958c00047bc9d0007bc7c800826728017b870005826740017bc7f800826748017bc7f000826750017bc7e8007bcad800648a9567e0159568c0159569a0157babe00450204003fc2f9568d810958900058297207b6740018297187b6748018297107b6750018297087b6710019567801582685801502042030bad826a9000826c9800826730019577c0d87c0794a78268380194875107a6049563d8108237c0047b6738018237b8047b67300182681001d8c809826b5001d3ab02d8ab07da29078264480182628000c92403c9ab0ac99a0bc9c80a95a0e0d8a00cc8cb0a95aaffd3ba08d8ba0bda8c0bd82408826c400182698800c99c0cc98c0cd87308c98c0c9569d8108298b0047b682801c97307887801c98c0c8298a8047b6858019577ffc87b0bd87b07c87c0c8267788377407b9088047b9a90047b9b9804956860157b9ca0045020440373ad956c000182c85882ca2882c930d4980782cb38d4ab0bd4b707987720d49b0b97bb20d4b7075207cc03956740155020460309ac956c000182c94882cb10d49b0782c84082ca50d4a808d48707987720d49808978820d487075207990364ba9567d8108279800482787804827b7004827c68047b6ca0007b7c48047b6ba800957c00047bcb507b68b0007bc858956820157b69b8007bc96064a750204803d4ac826c10013309330a330433001407e0ffffff000000007b6708010195c2208267a0007b690001d879078269a800d39a087b6af800d89a09da87098263b000d83407826ab800d3a0087b60f000d8a00ada870ad33407d487077b62200164cbd8c20cda790a82675001c8c708d87807dacc0782694801c8790cd89c0782694001c89707510a38097b67c8007b6cd0007b68e0007b64e800956c00017bcb1082c73882c830d4870782c95882c808d8890882ca2894a8947851089c02959820956700157b6818017b69580150204a03ceaa956a000182a74882a840d4870782a81082a908d8980882a95094989478510866028267180182685801d8870782682801c878097b691001d88908da770882673001c878087b68c000d87807956bd81082b8380482b9300482ba2804826c3801c87c0c7b6c38018267d800d28707330cffd2c908d2ca09492b200495ba00047ba9087ba8109568e0147ba7188267200150204c0370ab956b000182b9959901889701826af800c87a0ad4a9078877018268e800c87804d884088260f000c8800082bc208268e0007bb8508268d0007bb8488268c8007bb84082b8187bb85882b8107bb8288268c0007bb8302862fe9567202233084050204e03d4a99569d8208292600195980001828c58828a50828748d42a0bd4c708d4b808988820d4cb0b97bb20d4b80852085f01492938014929300149292801140b00000000a079c308956800227b9b40017b6a58017b6750017b6240017b6c480150205003a9aa50225203983e5107210183977b673801837704330254039569d82001492920014929180149290801209568e021492910017b6a48017b6b4001502056036aaa50225803ce3f5107e20082673801837724956bd820492b0001492bf800492be8000f9568c021492bf00050205a033aaa50225c03a23e5107b200826738018377443a089000023a09980002956ad8207ba8e000330b492ad0007ba9d8009568a021492ac80050205e03ffa9330864826738015020600366a883783307013309640a08018262f00082645001d82400826ce80082684801d3c80ad8c809daa009826ab000826b4001c9ab07d8ab03826be000826a5801c9ba0bc93b0bd8970ac9ab0bc99707c9c809c90909c9240cd4b909d47c0ad49a0ad4790898aa20978820d4a80852080628d02700d472078269e000d497075207420149263801492640014926500149264801288c01826bb000826cd000d3cb0b826c8800d4cb0bd47b0b510bf20064a482675801d8780bc8b00ad34a07d84a0cda7b0cc89c0cd89c0bd82909c89307c8b707d4c809d4a707d47909989920d4c707977720d4970752078c9567c02a50206203caa79567d828827800027b683001957900018298f8007b6828018298f0007b6820018297e8007b6718018267b00050226403c14150206603b3427b6710017b68f8003307ff3308ff8269580150206803754250226a03b24050206c03694250226e03c43c826b4001956cd8287bcbe001826b38017bcbd801826b48017bcbd001826b50017bcbc80195cb00017bbac0007bb8b8007bb7b0009567a02a9568802a7bb9a80050207003c5a9826760826950d47909826768826858d48707826848826a40d4a808826a7095aa01282d018267f0008268e800d487071408e0ffffff000000008269d800d88908826af80094a8947851088ffe8398209567002b50207203c9a69567d82895790002829840956a00017ba8488298387ba8508298307ba8408297287ba7388262b000019728037b6858018d8980003307ff3308ff50207403aa417b6730017b6818018267b0008a79033307ff3308ff5020760369417b6720017b68280182671801d487077b671801826758018379803307ff3308ff502078034341826b580188b98000826a1801db9a08826c2001826a3001d4ca0ada970a93b8ff93baff939c64c3826c2801939c826760826950d47902826748826b40d47b0b826768826958d4790982673801e0a70482674001e0870a82674801e0c70882675001e03707d49707d4b808d42a09826b70d4b40a01956bd82895bc00017bca68826a90007bca88007bc970826998007bc990007bc7788267a0007bc798007bc880009567602a9568402a8269a8007bc9a00050207a0334a89567202a8268800050207c0383a59567d828957c000182ca6082cb5882c95082c8487b69f8007b6af000d4a907d4b809d479099899207b6be800d4b707977720d49707520703fd9567002a7b68e00050207e033ca59562d82895270001827c40827b388278308ec78ebadbc70a7b68b0008e877b6b88007b6c8000d4cb08956900017b97487b9a587b9850db8a07510706289d2482679000957a0188a70182689800c87808d48a07648b7b6898007b6a9000887701822828017b68d0008268a000c8780c7b6c70d88c078268a800c878097b69a80064277b7ae8007b7bf0007b7cf8009567e0299568c0297b29000150208003c7a6956bd82895bc000182c90882c71082c81882ca207bbac0007bb8b8007bb7b0009567a029956880297bb9a80050208203a32a956bd82882b7c80082b8d00082b9d80082bae0007bba8000826a80007bba60826a88007bba58826ab0007bba50826ad0007bba487bb9787bb8707bb7688267a8007bb7a0008267707bb79800826798007bb79000956760299568402995692029826a90007bba88005020840348328268d000888720857701956c000182c948826bb000dbb90782c95882ca50dba9075107d0018488e07b68d8009567d828826890007b7808826898007b78108268707b78189568e0288269a8007b7920330750208603dca433082033075020880345a39518e08488e07b68500150228a03473a0a064926580120330233043300492630013303330c956b000182ba5082a782a80882a91082aa186f777bb7406f877bb7386f9733097bb7486fa782ba307bb750018267d8007b6a3001d87a07857b017b631801943b017b6c28017b692001d4c907947b018268e00082635801c83808826af800c82a0a8269e800c849098267f000c80707520b8a017b601001d8380bc8ba0a642cd32a027b6c0801d8ca0cda2b0c50228c03d239520798fa9567002750208e03d5a2956bd82095bc000682c72882c83082c93882ca407bca95ba00057ba9f8007ba8f0007ba7e800826740017bc720826738017bc718826748017bc7109567e0269568c026826950017bc9085020900328a550229203e238c87802d8820882674001c887077b67400182675801957320d8730a82670801c8a704d8740bdaaa0b82670001c87b0bd87b0a82601001c8a00082673001957a20d87a0c82681801c8c807d88708dacc0882692001c89808d8980c82692801c89c0c7b6238017b635801644264b46473648928c5fe82678800d4870782688000d4b808d487075207a1014926300149263801492648014926400128e7018263980082642001d83400826b9000d3b80ad8b809daa009826a8000c9ac02d8ac0a826c8800c9c707d8920cc8ca0ac9a70ac9920cc9b809c90909c93407d4a909d4c70ad49a0ad4c90898aa20978820d4a808520845f983787b6858018267783300ec042824a16420826bd000826cd800d3cb0b826c8800d4cb02826c8000826bb000d4bc0cd4c20b510bcd00d8380bc8ba0ad30a02d80a0cda2b0c5022940372395207f6f89567c0285020960333a19567d82882787b683001957900ff8298f8007b6828018298f0007b6820018297e8007b6718018267d000502298032c3b50209a031e3c7b6710017b68f8003307ff3308ff8269580150209c03e03b50229e031d3a5020a003d43b5022a2032f36956bd820826c40017bbce007826c38017bbcd807826c48017bbcd007826c50017bbcc80795bc00077bcac0007bc8b8007bc7b0009567a028956880287bc9a8005020a40330a3826bd00098b73f8269b000979801d4780898973f826a880097a901d4970798a93f826a800097aa01d4a90997ba0195aa01284b018267f0008268e800d487071408e0ffffff000000008269e000d889088269f800949894785108eaf78267e000837820956700295020a60320a09567d828827840956900017b98408278387b98488278307b98388277287b9730018267d0009778037b6850018d8980003307ff3308ff5020a803053b7b6728017b6818018267d0008a79033307ff3308ff5020aa03c43a7b6758017b68200182671801d487077b671801826750018379803307ff3308ff5020ac039e3a826b500188ba800082691801dba908826c580182692801d4c909daa70993b8ff93b9ff93ac7b6c58018262200193a28264d00098473f8263b000973a01d4a7077b67500182678000977701826c880098cb3fd4b70098373f97cc01d47c0c82673001e0970a82673801e0870882674001e0270982674801826b5801e0b707d4c707d40909826b5001d4b808974b01d4ba0a01956bd82095bc00077bca68826a90007bca88007bc870826898007bc890007bc7788267707bc798007bc9800095676028956840288269a8007bc9a0005020ae0372a1956720283308405020b003c29e9569d820959c000782ca6082cb5882c75082c848956c00017bc7507bca48d4a7077bc858d4b808d478089888207bcb40d4b707977720d4870752073ef6492940074929380749293007956800284929280740826758015020b2039d9f956a000182a74882a940d47909140700000000010000007ba7401407c0ffffff0000000082a858d8780782a85094877ba94894975107e7f5826758018377403302b4039569d82001492920074929180749290807089568e027492910075020b6033a9f956900018297409577a05022b803d0345107a8f5826758018377603302ba039569d820014929f8064929f0068268b8007b9800079568c0274929e8065020bc03f89e826758018377203302be039569d820014929e0064929d8064929c80680009568a0274929d0065020c003cc9e14070000000001000000956900017b9740140780ffffff000000005022c2035134510729f582675801837780003302c4039569d820014929c0064929b8064929a80603956880274929b0065020c6037b9e95690001829740957760ff5022c80310345107e8f4826758018377a0003302ca039569d820014929980649299006140800000000005450447b98a00695686027492988065020cc03319e826778956bd82095bc00067bc7588267c0007bc7508267c8007bc7483a076000023a086800023a097000023a0a7800027bc780007bc8787bc9707bca6895694027956a2027492b6006826758013300ce03951160ff7b1098007b1590007b1688009515a0008411e082ab7b1b3882ab087b1b2882ab107b1b2082aa187b1a18829a7b1a10829a087b1a08829a107b1a82961883773308c0007b183033000a28019c28211a826738826850d48707826848826940d49808d487075207b80149261001492618014926200149262801280a026420826b50826cd800d3cb0b826c38d4cb02826c48826b40d4bc0cd4c20b510b5301d8380bc8ba0ad30a02d80a0cda2b0c5022d00324345207a8f39567ff07957721015020d203e19b9567ff079577d1008278687b6830018278607b6828018278587b6820018277507b67180182675097773b9877387b6758019579803307ff3308ff5020d4039c367b6710017b6808013307ff3308ff826958015020d60384367b6700017b68f800826858019a8980003307ff3308ff5020d8038e36826af800d48a0a82695801889b80007b6bf80082680801dab80a939aff7b6a0801826a0001d47a0a82671001dab70a939aff7b6a10013307ff3308ff5020da0326368269f8009398939782691801826a1001e0a909826a2001826b0801e0ba0a826b2801e07b07826b3001e08b08826b4001956cff0795ccd1007bcb48826b38017bcb40826b48017bcb38826b50017bcb307bc8287bc7207bca189567ff07957701019568ff079588e1007bc9105020dc035c9d826c5098c73f826940979801d4780b98983f826738977901d4980898793f826a4897aa01d4a90997ca0195aa01281b018267e8008268e000d487071408e0ffffff000000008269f800d889088269f0009498947851081af28267f8008378209567ff07957761015020de034c9a9567ff079577d1008278a800956900017b98288278a0007b9820827898007b9818827790007b9710018267509777037b6758018379803307ff3308ff5020e00305357b6748017b6850018267508a79037b6940013307ff3308ff5020e203e7345022e4039d335020e60301355022e8039f2f5020ea03cf348269300193989397826b4098b93f826c3897ca01d49a0298c93f826a4897aa01d49a0397bb01826a5098ac3fd4cb0482691001826b5801e0b90c82691801826b5001e0b90b82692001e0790782692801e08908d44b0b97aa01d4ca0ad43809d4270801956700107b7aa0f8826730956a00107ba7c0f8956700107b7ba8f8826728956a00107ba7c8f8956700107b78b0f8956aff0795aad1008267187ba7956700107b79b8f89567ff079577c1009568ff079588a1008269207ba9085020ec03b59b826778956800107b8798f882678000956800107b8790f882678800956800107b8788f89568ff079588810082679000956900107b9780f833075020ee030a9a95670010492778f895670010492770f895680010492860f8023307209568ff0795886195690010492968f85020f003d99933084033075020f20342985022f403492d3300f6030a063302f8032895305022f8039230c86a0a7ba938f8956900107b9830f8956800107b8728f89567ff079577419568ff07958821956900107b9b20f85020fa03769a95670010827758f895680010828848f895690010829940f8956a001082aa50f8d48707859801d4a808d4870752079b0682679000956800107b8700f882678800956800107b8708f882678000956800107b8710f89568ff07958801826778956900107b9718f833075020fc0314994926f8074926f0074926e007033307209568e0074926e8075020fe03f6983308403307502000045f979518e08488e0648183777b68500183893308400a0601826a588ea78269608e98da9708d4a9098267688e777b695801db9807510706286d17826a500182a782a80882a91082aa186f7b7b6b10016f887b6808016f997b6900016fa77b67f8007b67a0077b69a8077b68b0079567c0079568a0077b6bb8075020020462998269c0078267c8078268d007826ad8077b6a78077b6870077b67680795678007956860077b69600750200404421d956c000782c7800082c8880082c9900082ca9800826b607bcb18826b587bcb10826b687bcb08826b707bcb7bca387bc9307bc8287bc720826710017bc758826708017bc750826700017bc748956740079568200795690007826af8007bca4050200604f02482677088772082686894878268580194875207d0018267708477e07b6718018267f800956900067b97e000826700017b97e800826708017b97f0009568e006826710017b97f8003307502008048c97330820330750200a04f5959518e08488e07b68580150220c04f72c0a06330c330933003304826a580182a782a80882ab1082aa186f777b6748016f87956800017b87406fb77b87506fa77b87580182671801d87c07857a01949a01d44007947a01826bd0007b6c3801c8cb03826cc0007b693001c8c9098268c800c808078262b800c84202520a39017b6020017b642801d8b30ac8a909d3c90bd8c90cdaba0cc87c0cd87c0ad88708c88207c8a707d4c308d49707d47808988820d4c707977720d487075107062843ed8338956700408377c0fa0a01956ad83895ab000182b7e80082b8f00082b9f80082aa0002956b00027bbad8007bb9d0007bb8c8007bb7c000826748017bb7f800826740017bb7f000826750017bb7e8009567e0029568c002826958017bb9e00050200e04c897956c000182c95895990188970182c850c878087bc9587bc850d4890788770182c840c88707d8870882c948c889097bc94882c938959820d8980982cb30c89b0ad8ba0bda990b82c920c89b0bd89b0982642801c894047bc740648c64a964b028bffe826770826858d48707826860826968d49808d487075207db014926f0004926180149262001492628012826027b633801826a7082681801d38a0a826b58d4ba0a826b60826c68d4cb0bd4ba0a510a74018268d000826b3801d88b0ac8a9098268c000d38903d8890cda3a0cc87c0cd87c0a8268c800d88708c88207c8a707d4cb08d49707d47808988820d4c707977720d4870751070628e2eb82677097773b9877387b6730019579803307ff3308ff50201004092f7b6720017b6828013307ff3308ff8269300150201204f12e7b6718017b68f000826830019a8980003307ff3308ff50201404fb2e826af000d48a0a82693001889b80007b6bf00082682801dab80a939aff7b6a2801826a1801d4a707826a2001daba079397ff7b6720013307ff3308ff50201604932e8269f00093987b68300193977b67180181683801956700408377e0fa330018040a0133021a0428472e50221a04442e82b70882b81082b91882ba20956c000182cb20e0b70b82c728e0780782c818e0890882c930e09a0982ca487b6ad80682ca407b6ad00682ca507b6ac80682ca58956c00067bcac0007bc9b8007bc8b0007bc7a8009567c0069568a0067bcba00050201c04a695826c7098c73f826968979801d4780b98983f826758977901d4980898793f826a6097aa01d4a90997ca0195aa012814018269c8008267d000d497078268c000826ab800d4a808d48707987720d49808978820d487075107062860ea8168d00095670040837700fb0a019567d83895790002829840956700017b78288298387b78208298307b78188297287b67f000018267709777037b6758018379803307ff3308ff50201e04562d7b6748017b6850018267708a79037b6940013307ff3308ff50202004382d50222204ee2b50202404522d50222604f02750202804202d8269300193989397826b6898b93f826c5897ca01d49a0298c93f826a6097aa01d49a0397bb01826a7098ac3fd4cb048269f000826b5801e0b90c82691801826b5001e0b90b82692001e0790782692801e08908d44b0b97aa01d4ca0ad43809d4270801956c00067bca608267f8007bc780007bcb68956a000182a77bc788007bc87082a7087bc790007bc978956780069568600682a9107bc9980050202a042794826798007b6740068267a0007b6748068267a8007b675006956840068267b0007b675806330750202c048f9249263806492630064926200604330720956820064926280650202e047192330840330750203004da9050223204e1250a06826a580182a71882a81082a90882aa6f7b7b6b40016f877b6758016f987b6850016fa97b6948017b69f8057b68f0057b67e805956700069568e0057b6be005502034040d93956b000682b70882b882b91082ba18848800ff868b017b6ab8057b69b0057b67a805826748017b67d805826750017b67d005826758017b67c805826740017b67c0059567c0059568a0057b6ba00550203604319395670040837720fb330038040a03019569d838959a000282a75081a85882a94850223a04bf28492698057b6890057b678805956880057b6a8005330750203c04839149267805492670054926600505330720956860054926680550203e046591330840330750204004ce8f50224204d524330044040a0601956c000182ca5850224604d1267bc9407b6938057bc8487b6830057bc7507b67280595674005956820057bcb587b6b2005502048040a9295670005827c58827a508279488ec78ea8dbc70864abd4ca07649a8e99db780951090628f40f826740057b6738019577018878017b6a3001c8a808d487098899017b6b2801c8b909d8b90a7b6c2001c8ca0a826b5801956c00057bcb7b67e004826750017bc708826748017bc7107b68e804826740017bc7187b69f004956700059568e0047b6af80450204a04f391826720017b677804826728017b677004826730017b676804826738017b676004826740017b679804826748017b679004826750017b6788049567a0049568800495696004826a58017b6a800450204c04bc1f8267d8047b6750018267d0047b6748018267c8047b6740018267c0047b6758018269a0047b6910018267a8047b6728018268b0047b682001826ab8047b6a18017b6a38047b6830047b67280495674004956820047b69200450204e04cb90826740047b670801826748047b670001826750047b67f800826758047b67f000826c580198c73d82694001979803d4870798983d826a480197a903d4980898a93d826a500197aa03d4a90997cc037b6c400150225004ab257b6b300183c9807b69d80082679000826888005020520450297b67e8007b685001826758018a79037b694801826780008268785020540430297b6758017b68e000826840018d8980007b69d000826790008268880050205604e82882695801d4790982674001887b80007b6b3801826ae800daba09826a8000da7a097b6958018269e000d4980882695001dab908826978da79087b68500182679000826888008269480150205804bf2864898268380193879389826a30018268500194a87b6850018268580194a87b68580194a97b69e80094a77b67e0003307ff3308ff8269d80050205a0481287b67c8007b68d8003307ff3308ff8269480150205c0469287b67b8007b68c0003307ff3308ff8269d00050205e042b28826bb800d47b0b826a38018267c800daa70b82694001939bff7b6bd000826bc000d48b0b8268d800daa80b939bff7b6b40013307ff3308ff82694801502060040f288269380193979398826940018599ff826ad00085aaff8588ff8577ff826c300194caff94c9ff94c7ff94c8ff826bf000d2b909826bf800d2ba0a956c000182cbd2b80882cb08d2b70782cb58d4ba0a82cb50d4b909826be000d4b707826be800d4b80882cb187b6b180482cb207b6b100482cb287b6b080482cb107b6b00047b68e8037b67e0037b69f803956700049568e0037b6af00350206204f48e9567c00333084050206404448c956a000382a7d80082a8d00082a9c80082abc000502266041a2651070628dce364ba826798007b67a0038267a0007b67a8038267a8007b67b0039568a0038267b0007b67b80364b77b6a580150206804298d95670040837740fb0a039569d838959a000282a77081a87882a9686f7a97a7206f88988820d4780298aa206f99979820d4a808989920492658038267787b677803826780007b677003826788007b676803826790007b6760033a0ac800023a0bd000023a0cd800023a07e000027b6a9803956a00037bab90007bac88007ba780007ba9507ba84833082095698003956a6003956b40037b624003826758013300d60428b28e3307330850206a04ee8a837833070133090a0833026c049569d830280b33026c049569d8300182675801959a00057ba7a800826750017ba7b000826748017ba7b80095688036826740017ba7c000330750206e042e8c330270049569d830014929a005492998054929880506330720956860364929900550207204078c330840330750207404708a50227604d61f330078040a0633027a04287c1f50227a04791f4929800582672801959a00057ba778826730017ba77095684036826738017ba768330750207c04ba8b33027e049569d8308267080101959b00057bb760826710017bb758826718017bb75033072095682036826a20017bba4850208004848b330840330750208204ed8950228404531f0a06826a200182a71882a81082a90882aa6f7b7b6b08016f877b6720016f987b6818016faa7b6a10019569d830959c00057bca207bc8187bc710956700369568e0357bcb08502086041c8c956cd83082c7300582c8280582c9380582ca4005848800ff868b017bcae00495ca00047ba9d8007ba7d000826710017bc70005826718017ba7f800826720017ba7f000826708017ba7e8009567c0359568a0357babc80050208804378c50228a040b24959a00047ba7c000826748017ba7b800826750017ba7b00095688035826758017ba7a800330750208c04998a33028e049569d830014929a004492998044929880403330720956860354929900450209004728a330840330750209204db8850229404411e0a06826a200182a782a80882a91082aa186f776f886f996faa95ab0188ba01c89a0ad4ab09889901c8980cd88c08c88702956800017b8b209569d830959700047b7b487b8a187b7a507b8c107b7c5895674035956820357b6208017b92600450209604f08a9568d830958a000482a9800082a77882a870647a649bd497076489888801947852085f029567d830492798024927900249278802647933029804140700000000717b484e01956860337b97a002330750209a04a7899568d830492880024928780249286802416489330704956840334929700250209c048389330824330750209e04ec875022a004ae220a0801826758017b9748826750017b9750826748017b975895682031826740017b976033075020a20447893302a4049569d8300149194049193849192806330720956800314919305020a604248933084033075020a8048d875022aa04f31c3300ac040a063302ae0428991c5022ae04961c491920826728017b9718826730017b97109568e030826738017b970833075020b004dc88826708019568d8307b87826710017b87f8826718017b87f0648a3307209568c030826920017ba9e85020b204ae8833084033075020b40417875022b6047d1c0a06826a200182a71882a81082a90882aa6f7b7b6b20016f887b6818016f997b6910016faa7b6a0801956cd8287bcac00795ca00077ba9b8007ba8b0009567a030956880307baba8005020b8044289956bd82895bc000782c7d00082c8d80082c9c80082cae000849900ff7bca80007bc8787bc7707bc968826708017bc7a000826710017bc79800826718017bc790009567603095684030826920017bc988005020ba046389956bd828492b2007956c000182c7287bb7180782c7307bb7100782c7387bb7080782c7407bb7400782c7487bb7380782c7507bb730073a073000023a083800023a0940000282ca5895bc00077bca287bc7607bc8587bc95064b83a0748000295692030956a0030956be02f7b874807330733083300d60428ab899562d830952c000482c8687b6800011407ffffffff000000007b67f8009587018878017b69f000c89808d487098899017b6ae800c8a909d8a90a7b6be000c8ba0a826b20017bcb287bc708826718017bc730826710017bc7387bc810826708017bc7407bc918956700359568e0347bca205020bc0472889567d8308268e000957900037b98a0008268e8007b9898008268f0007b989000826800017b988800826808017b98c000826810017b98b800826818017b98b000647b9567a0349568803495696034826a20017bbaa8035020be0431169567d830827800047b681801957c000382c8f8007b68100182c8f0007b68080182c8e8007b68200182c9c8007b69d00082c8d0007b68e80082cad8007b6ae00082cbe0007b6bd8007bcb607bca587bc850647a95674034956820347ba948035020c00439879567d830957900038298687b68c8008298707b68c0008298787b68b800829780007b67b000826c200198c73d82690801979803d4870798983d826a100197a903d4980898a93d826a180197aa03d4a90997cc037b6c08015022c204141c7b6bf00083c9807b69980082673801826830015020c404b91f7b67a8007b681801826720018a79037b6910018267280133085020c6049a1f7b6720017b68a000826808018d8980007b69900082673801826830015020c804521f826a2001d47a0a82690801889b80007b6b00018267a800dab70a82672801da970a7b6a20018267a000d4870782681801dab80793977b6718018267380182683001826910015020ca042d1f64898268000193879389826af0008268180194a87b6818018268200194a87b68200194a97b69a80094a77b67a0003307ff3308ff826998005020cc04ef1e7b6788007b6898008267f8003308826910015020ce04d71e7b67787b6880003307ff3308ff826990005020d0049a1e826b78d47b0b826a000182678800daa70b8267f80082690801da970b7b6bf80082678000d4780882679800daa70893987b6808013307ff3308ff826910015020d2047c1e8269000193979398826908018599ff826af80085aaff8588ff8577ff826cf00094caff94c9ff94c7ff94c8ff826bb000d2b909826bb800d2ba0a826bc000d2b808826bc800d2b707826b2001d4ba0a826b1801d4b909826ba000d4b707826ba800d4b808956bd830826cd8007bbc4003826ce0007bbc3803826ce8007bbc3003826cd0007bbc280395bc00037bc8107bc7087bc920956700349568e0337bca185020d4045885956bd830492bc002956c000182c7287bb7b80282c7307bb7b00282c7387bb7a80282c7407bb7e00282c7487bb7d80282c7507bb7d0023a071000023a081800023a0920000282ca5895bc00027bcac8007bb700037bc8f8007bc9f00064b83a072800029569c033956aa033956b80337b87e802330733085020d604a085330733085020d804d9818378330733090a0833026c049569d83028f7f64926900149268801492680013302da04140700000000717b484e01956880017b67980133075020dc04278349267801492670014926600141330704956860014926680133009c04280583330733006a042870814926d0014926c8014926c0013302de04140700000000717b484e019568c0017b67d80133075020e004d4824926b8014926b0014926a001413307049568a0014926a80133009c0428b2829567ff079577d10049276003492758034927500364793302e204140700000000717b484e019568ff07958821047b97680333075020e4047c829567ff079577d10049274803492740034927380364793307049568ff07958801044929300333009c04284d824926100249260802492600023302e604140700000000717b484e01956800027b67180233075020e80425824926f8014926f0014926e001413307049568e0014926e80133009c042803829567d8204927380549273005492728056479140700000000717b484e956800267b97400533075020ea04da819568d8204928200549281805492808054164893307049568e0254929100533009c0428b28183c87b6858018267b8005020ec04198083783307826958010a08019567d8204927d8054927d0054927c8056479140700000000717b484e9568a0267b97e00533075020ee046e819568d8204928c0054928b8054928a805416489330704956880264929b00533009c042846814926b0024926a8024926a0023302f004140700000000717b484e019568a0027b67b80233075020f2041e8149269802492690024926800241330704956880024926880233009c0428fc804926300349262803492620033302f404140700000000717b484e01956820037b67380333075020f604d48049261803492610034926000341330704956800034926080333009c0428b280951160ff7b1098007b1590007b1688009515a0008411e0828b829608828008829395ba1f7b1b58d8ba02c8200c7b1340d83a03d36c0a7b1648d86c0bdaa30b828410d80c0ada220a829218828318829610c84a0ad84a08c83808d32809d92808d86a0cda9c08d36a0ad4a909db980b510b19017b12287b16307b1738821758d447077b1318d43008d487079877207b1420d44808978820d487075207ed0064068118588317600a01018214788217708219687b1750d4470788980194785108d700821860821758957b20d87b0ac8a6037b1808c8b808d8b8027b1910c83909c82909d3390cd83907dac207d8630cdaaa0c821a20c8ca00d8a006821218c86202821648d3690cd89609821640d88608dbc908821950c80909d8090c7b1458c84206c86c0cc89707d89709c8c909821628d3690cd89609821430d87406dbc906d34707d4c707db76085208408217388218087b78207b7b8218107b78287b73088218507b78307b70108218587b78387b7218955160ff8210980082159000821688009511a000320000330733083300f80428937dff33075020f8048d7dff837833070133093300fa040a083302fc04288d185022fc048a183308043300fe040a0133020005288216502200057f16510a0b50220205771732003307330850200405477dff83783307013309330006050a083302080528471850220805441833082433000a050a0133020c05283c1650220c053916510a0b50220e05311732003307330850201005017dff83783307013309330012050a08019511b0fe7b1048017b1540017b163801951550018411f0828b108282188286088288d4260cd4b80ad4ca0a98aa20d4bc0c97cc20d4ca0a520a42037b16187b12107b1b607b178297187b17688296108297087b173082977b1758951710017b182050201405e07cff821758647ad46707821868821930d49808d487079877207b1608d46808978820d487075207ee02821728018218200182191801821610017b16f0007b19407b19f8007b18487b1800019518f0007b17507b17080164a750201605ba7dff49117849117049218000492188008218209587207b1728d88707821918c879087b1820d89808da7708821760c878087b1818d87807821810c887077b1710821758957220d87207821830c878096493d88908da7708821708c878087b1830d87807821468c874047b16387b14687b19587b126001821778d86707821640821970d36908d86909da8709821b4882178000d8b700821c50821a8800d3ca08d8ca0ada800ad3b707d48707da790a510a2801821728821878c87808d87807821b20821970c8b909c87909d3b90ad8b90bdaa70b82178000821a18c8a707d8a70a821c8800821610c86c0cc8ca0ac87b0bd87b07c8a707d49707d4b809d47909d4b707989920977720d497075207ab019517b000502018056b7bff821860821778c88707d88708821b58821970c8b909c88909d3b90ad8b90bdaa80b821a3082188000c8a808d8a80a821c6882168800c86c0cc8ca0ac88b0bd88b08c8a808d4980850221a057d1482163852084c018219c8008218c000821ab800821bb0007b1b90007b1a98007b18a000951890007b19a80050201c05237cff821878958720d88708821a7050221e05f71482188000c88a0ad88a08821b8800c88b0b7b1b88007b17787b19707b1a800082146882135882126028a3fe821738c82707d82708c86309c88909d33902d8390ada280a821230c8b208d82802c84c0cc82c0cc88a0ad88a08c8c808d49808d4a709d48909d4a808989920978820d4980852089b0064364921e8004921e0004921d8009518d0004921d00050202005807bff82183895871fd88708821a40502222055414821848c88a0ad88a08821b50c8b8088477e0821b60c8b707d8b70bc86909c8b909d3690cd86906dacb06821c30c8ca0ac8a606d8a60bd8ca0a821c68c8c808c8a808c8b808821a7ba77ba9087ba6107ba8189551b0fe821048018215400182163801951150013200009511a07b10587b15507b16489515608411f0828910828c08828b82881897923f98ca01d42a02978a3f989901d49a0a97cc3f98b901d49c0c98830184bb019ab888b60184c97fd2a804d2280adbbc09d2380b88982094a8d4b40c94c8ab86167b797b7a087b74107b7b1850222405d1123200502226059b1050202805867aff491118491110490122330704641849110850202a056e7aff330824330750202c05d678ff50222e059713330030050a0801951100fe7b10f8017b15f0017b16e801951500028411e06416829a107b6a9000829a7b6a9800829a187b6a88008299087b6980008289828a08828b108288187b67187b68707b68b8017b6b387b6bb0017b6a607b6aa8019567c0019568a0017b69687b69a00150203205dc7aff956b000182b7d80082b8d00082b9c80082bac0007b67307bb7787b68287bb8707b69207bb96895678001956860017b6a787bba6050203405affe8267880082688000d487078269900082689800d49808d47808988820d49707977720d4870752073903956b000182b7980082b9900082b8880082ba80007b6a407bba407b68507bb8487b69487bb950956840017b67587bb75882679800502036054a79ff826a7884a7015207ac008267880082689000d487071408e0ffffff0000000082699800d8890882698000949894785108cc0284a800ff826798008377208269207b69a8007b68a0008268287b68b0009568a0008269307b69b80050203805e978ff330c33043302826748826840d48707826858826950d49808d4870782689800958a20d88a0882698000c8890bd89b09da880982689000c889097b6938d8890882698800c898087b68308e7797770528f701826768956900017b97208267607b97288267387b9730956820018267707b9738330750203a056f78ff330820330750203c05d776ff9518e08488e07b687850223e05d90d0a06330c33043302826798009578207b6828d8780782688000c878097b6920d88908da770882679000c878087b6838d8780782688800c887077b6730826a7882a782a80882a91082aa186f777b6790006f8333086f977b6788006fa0017b689800826740d87807826950d39c08d89c09da8709826b48d8b407826a58d3a208d8a20ada870ad3b407d48707da790a510a170164077b67607b67e000826788007b67e80064377b67687b67f000956700019568e000826990007b69f8007b6280007b64787b6c70502040057b78ff82682882679800c88707d88708826b20826970c8b909c88909d3b90ad8b90bdaa80b826a38826878c8a808d8a802826c30826a8000c8ac0cc82c0ac88b0bd88b08c8a808d4980850224205620f5208ea00956c000182c91882c81082ca0882cb7b6bc0007b6ac8007b68d0009568c0007b69d800502044050c77ff82686095880188870182698800c879097b6988006480d49807887701826868c87803d8830882699000c889097b69900082699800959820d89809826b70c89b0ad8ba0bda990b826978c89b0bd89b0982628000c8920264ac64b428bbfe826a28826b208267980001c8a707d8a708c8cb09c88909d3b90ad8b90bdaa80b826c38c84c08c88b0bd88b0ad8c808826c30c82c0cc8c808c8a808826a187ba77ba9087bab107ba818955100fe8210f8018215f0018216e8019511000232000088ac80947c94bc510c2295ab800050224805200c50204a053476ff955190821068821560951170320050224c052e0c50204e051976ff4911184911104901413307046418491108502050050176ff3308243307502052056974ff502254052a0f330056050a0833025805282c0e50225805290e88acc0947c94bc510c2195ab4050225a05ae0b50205c05c275ff955190821068821560951170320050225e05bc0b50206005a775ff4911184911104901413307046418491108502062058f75ff330824330750206405f773ff50226605b80e330068050a0801951170ff7b1088007b1580007b1678951590008411f064728289827408828c088273959a1fd89a00c80c0984aae07b1308c8a303d8a30bc8490ac8ba0ad39a06d89a07da6b07822b18d8c90c828610822210828818da000cc86c0cd86c06c82c09c89707d8c90cd89709c8b808c86808c8c808c8980c8ec88e79dbc809d4c7088ea6db8906520658821808d88308d34a09d84a06da9806d82708d3bc09d8bc0bda980bd32708d49808da860b520b317b13507b1a587b17603307409518507b1c6850206a05ae74ff955170ff821088008215800082167895119000320049114049113849113033026c05140700000000717b484e019518307b1748330750206e057274ff49112849112049111041330704951810491118502070055874ff330824330750207205c072ff50227405810d330076050a08019511e0fe7b1018017b1510017b160801951520018411e06416829a7b6a58829a087b6a50829a107b6a488299187b6940502278054f0a50207a05f674ff8267f8008262e0008269f000826ae800826840d3870bd87808826748d8970cdbb80c826850d38a03d8a80a826858d82808db3a08d39707d4b707db7c085108a00050227c05d70c50207e05b473ff3308203307502080051c72ff9518e08488e07b6830502282051e090a06826a3082a782a80882a91882aa106f726f886f996faa826748987b3e826c4097cc02d4bc03826b5098bc3e977702d4c704826758987c3e97bb02d4cb0b977c02c8ab0bc89c0cd89c09c89b0bd3ab07d8ab0ada790ac88404c84a0ad84a07c83202d88408c82808c8870750228405d1093200502286055b0a502088051873ff50228a05760c50208c050b73ff330824330750208e057371ff50229005340c330092050a0801951120ff7b10d8007b15d0007b16c8009515e0008411e06416828218828310828c828b08d4230888ca2094ba948a520a2e028298187b68488298107b68208298087b685882987b6850827918827810827a0882777b67a0007b6aa8007b68b0009568a0007b69b80033077b62187b63407b6b387b6c30502094057572ff330820330750209605dd70ff9518e08488e07b682850229805df070a0682695095981fd898076494826b58c87b0ad8ba0964b3da7709826720c8970297293b98ab05d4b90997aa3b988805d4a80c8848209438826b2882ba1882b310826b48d47b0b94b86fa06f3a9489948cc80c0c7b6c58d80c07c87a0cc8c9097b6950d3a90cd8a909dac7097b691082673095741fd87409826738c8970bd87b0cda990c826340c8c30397393b98b705d4970797bb3b984905d4b909c809097b6938d80909c89a0bc87b0bd3ab077b6b30d8ab0ada790a826720d87207826948c89707982905977b3bd4b909826b2882b282bb08987705948994876fb86f2bc8b707c88909d8890cc8c707826410c89404d89409c89702826740d87307826918c89707983905977c3bd4c909826c58987705c8b707826b50c88909d88908c88707c89a0a7b6a28d89a08c887077b672001826738d87c07826930d39b08d89b09da8709826728d87403826a20d3a208d8a20ada830ad37407d48707da790a510a664916784916704916684916607b6c80007b6b880064497b69900095678000956860642a7b6a98007b6c587b6b507b6a487b694050209a052b72ff826248826b50826c5895cc0188c701c87b0bd4bc07887701826840c88707d88708c8820264742870ff955120ff8210d8008215d0008216c8009511e00032009511e0fe7b1018017b1510017b160801951520018411e06416829a7b6a48829a087b6a40829a107b6a508299187b695850229c05900650209e053771ff8267f8008262e0008269f000826ae800826858d3870bd87808826750d8970cdbb80c826840d38a03d8a80a826848d82808db3a08d39707d4b707db7c08510882005022a00518095020a205f56fff33082033075020a4055d6eff9518e08488e07b68305022a6055f050a06826a3082a782a80882a91882aa106f726f886f996faa826b40c8ab0b826c48c89c0cd89c09c89b0bd3ab07d8ab0ada790a826750c88707c87a0ad87a03826958c89202d88707c82707c837075022a805300632005022aa05ba065020ac05776fff5022ae05d5085020b0056a6fff33082433075020b205d26dff5022b40593083300b6050a0801951130ff7b10c8007b15c0007b16b8009515d0008411f07b1708951790003308405020b805f26dff8217a8007b17188216a000821998007b1928821890007b18207b1788007b1680007b19789517707b18703300ba0533025805283e07821718821828d48707821820d46808d478089888207b1610d46707977720d4870752078a004911684911604911589518504911506082162064675020bc05b36eff821710821818d487071408e0ffffff00000000d886088219289498947851084d821620836720491148491140491130609518304911385020be05766eff8217088218187b78188218107b78108218287b78087b76955130ff8210c8008215c0008216b8009511d000320000951120ff7b10d8007b15d0007b16c8009515e0008411f0827810827918827a088277d4a909d48707d49707510719955120ff8210d8008215d0008216c8009511e00032009517a0003308405020c005bf6cff8219b8008216b0008217a8008218a0007b17107b1908d497077b1818d46808d47808988820d46707977720d487075207c700492190004921880049218000140700000000a079c308951880007b1798008217185020c2059c6dff821908d46909140600000000010000001407fcffffff00000000821818d8780782181094877b190894975107718117187b17837704491178491170491160209518604911685020c405506dff9567dc821818d878078218109487821808948751073c8217837724491158491150491140099518404911485020c6051e6dff1407bcffffff00000000821818d87807821810948782180894875207040082168367443a08e800024911287b1838140800000000000000727b18309518204911205020c805d66cff33086464675020ca053e6bff83783307013309640a0833073300cc0528db6fff33075020cc05d56fff3307015020ce05cb6fff9517e08477e07b675001647133084917184917104917084907837732029518e08488e07b6858016481837783893308403202826a200182a71882a81082a90882aa6f777b6720016f877b6718016f977b6710016fa77b6708013307d830c876093202826a500182a71082a81882a90882aad49808d4a707d4870732029518e08488e07b6820016481837783893308403202956c000182c95082c74882ca40d47a0a140b00000000010000001407fcffffff00000000d8790782c858948794a73202826b580188b98000826af800db9a08826c0001826a1001d4ca0ada970a93b8ff93baff826b0801939b939c82671801e0a70982672001e0870782682801e0c808826a3001e0ba0a32021407bcffffff0000000095690001829850d87807829858948782984894873202826a3001d48a0a82695801889b80007b6b300182685001dab80a939aff7b6a5001826a3801d47a0a82674801dab70a939aff7b6a58013307ff3308ff826940013202826a580182a71882a81082a90882aa6f7b6f876f986fa9956ad82032026f77987a206f88978b20d4ba0a9777206f99989920d4970798882082691001d3980882691801d39707d4870782682001d3a808d487078877019568d83032028269500195990188970182684801c878087b6950017b684801d4890788770182683801320282a71882a81082a90882aa6f7b6f876f986fa9956ad830320295680001828b48828a508289588287409577dcd87a07949794b73202648183778389330820320282a71882a81082a90882aa6f7b6f876f986fa93202829858d87807829850948782984894873202c89c0cd89c0bd84909c89707c8b707d4c809d4a707d47909989920d4c707977720d497077b6358017b6400013202d8ab0ac8a70cd87c07daaa07c89707d89709c889097b1b407b1c487b1750330740c871087b19583202491130491128491120140700000000717b484e9518207b1738330732028e7a88cb000185bb01db7a0b8e978e8adb970ad49808db8a0b32028289828a08828b108288187b67387b68307b68d8007b6b187b6bd0007b6a207b6ac8009567e0009568c0007b69287b69c000320282c7a0007b67480182c998007b69400182cb90007b6b500182ca88007b6a58017bc780007bc9787bcb7033070020320282683833094918384918304918284918207b8c7b8b087b8a107b87189551e0fe821018018215100182160801951120013202826a580182a71882a81082a90882aa6f7b6f876f986fa9330a00103202c89c0cd89c0bd84909c89707c8b707d4c809d4a707d47909989920d4c707977720d4970732026f77977a206f88988820d48a0a9877206f98978920d4970798882032024926b0004926a8004926a000140700000000717b484e9568a0007b67b80033073202829850d87807829848948782985894873202d47909140a00000000010000001407e0ffffff0000000082b858d8780782b85094879497320282171082181814090000000001000000d37909d48909987a2088aa01948a939a320295690001829850829740d48707829a48829858d4a808d47808988820d4a707977720d487073202956a000182a74882a850d4870782a94082a858d49808d47808988820d49707977720d4870732027b6700017b6808018267f800d487077b67f800826758019579803307ff3308ff3202d4b709d48909d4b808989920978820d4980832029551a082105882155082164895116032029511907b10687b15609515708411f0827818827910827a827708d4890b3202826a580182a71882a81082a90882aa6f7732027b6738017b683001826858018d8980003307ff3308ff32028219821a087b697b6a087b67107b68189551c08210388215308216289511403202d49707d48b09d47909989920d48707977720d497073202d49b0bd48709d4b909989920d4b808978820d498083202c88a09d8a90ada880a320297773b9878387b6858019a8980003307ff3308ff320282680801d878078268f800948782680001948732028267287b67608267207b67688267187b67709568608267307b67783307320283783307013309243202826740013308d830c8860932029577c082a858d8780782a8509487949732023309492698004926900049268000323307049568800049268800320282675801817733082332029511c07b10387b15307b16289515408411e06476831732023307d838c8760a95ab00023202c88a0ad88a08826b4001c88b0b9568d8183202849a40520a195109148d9a40cfa80ad09808d09707d4a707320032009597c0d0780733083200849a40520a195109148d9a40d0a70acf9707cf9808d4a808320032009598c0cf87083307320049489220248414d2214225a912294992244992244992244992244992244992244992244992244992244992244992aa24a5942425252554a5242549922449922449922449922449922449922449922449499294a4aa24254994a492a42a494149929424495555494a92925450955292a494529294a48888282222529224494992a494249524a154525252a4489122458a14294a52444494948644888888440489081111d1888824a9506a1411a52429499244122292244992240951a8260a551a1111912222484408112211a511810412482001810412482081041248901241124522524444444444448a888888888884882092440449444444844882241251444444882448228911111102882089244684881089111111115188882811420a414a04114944424444442491441249922422222222a2101121112185202582482412491211092291482422218a888888888888884444444444141111224992244912111191242242249124924844928884488224228924128924122192082288882822422441121111918888880891101111119144928848221111491211112212894412492445922489444444441411410091a494442222222222220a2241444444244992244922224204114124092001242925111111914812114404910492888800924422222288080288041048222222121111114404910492888888888888882022884804221049241289a48888202222222992482249922481a48848208a0824512422454444444444444444444444141141444444444423220211111108442291881444449408410a02514420222222220a226244444422224841208a8808442411092292481023922449922422028888880802499188081111412089444488080249248488888848208a0824812422222222228914448c08890852108822025114452488482412894889441189202222499224111111111151440491482492482412111111114544410a920854152949a994482412198924914892248988888844222222824892244992444444444444441049248924129144229248221149248924121195208a04491491888888202212918844828824092491241291888848104582240a89481149229188481189442211914624494a224a9224892449524424884492248924491291464492944444942449121111111111114444444444449488442211d188882022221229888808890852904495282211444444104922222241442492244992244944440411111111444410111111499224292248a28a22a12421842449222241444424498a24222222222222221291449224222222222222228868000144a2288928224a494a928888888808221a49125512111189888844244124494a2249922449129120222222222212111149222292202222499224111111111111414412912489482292284992244922922449924422499224220144a292224504451c9144244922928824492295242222222208204822111111111111110589888888888828888808898820054191245545241249222292202292544a4944441249228944444422112922224144242291248944a2888888441011111149928888888888888820229224222222514444444410894422894422111141444444444444448a88880822222291442291482412119120224144444424912492484444444444441011414444444424924492242282888888244994445222298924229248222222228288482292444424888824894422918888242522222212414a92941249928848924444a220054904852a2a5292522a252392484412914824924452220992082249922412894444822089442491249248249124924844558228122441124144a24810111145444441c48890882005411409a2288a4810111111111111111189041111894422492291481111114424894412492445922489444444441411414424922449222222222222884422914422918804111111914824495244224822922449121191041091484444144444229122a2200549044511294929a514402449243212914812292249249144924822494444444444444444104922492511111149222222824892244992244922494a92249148242588224112241191881111111144444444441444449408410a8228124451149120228824229120229148248a8888442245444410912412492491144992241211111111454410241111111111114124888888888848224924918888481211092292442289249222499244222222228a8820920490a49248444444444444412488888888244992248988081144049124010490541291482412452222222288442288241211111111115144441031128944222288244929898888481149894849922449229224229244244924222282884422914824524444824824911449249124499220292212449120099288484444444444141141444444441491a494a4249148224944444410092292241289442422912022222222222244441111044944448408224900492a89448488880822499224491211894422a220124444444444448448524404411211112182481240924a221111404444104992a492444444444444049144242222220a2222242248415024499212092292242249224912114424894892944411114514514444444410912411111111444444442412892489888888888820a22451944822494992244992444424128948410a92080a5554a424a5544a46249148221289448924229292942449922449440411111149121189444482208944249124924824912492484455822812244112912812444444248914448c08890852104491201211111144442488888820892222222241140992208948111111114922051123422282140451442288888888202291244922414444449044221289481491208a044994242212111111112922222222220a221289042948a24a91a4a2288a482412918288442289489082208a480451444444108948101111112451444444248822411245225244229148444422222222228a882022222222a21149828888088248241291828888122148411045828888888882881811118988200541149108228948103192481011119124499288082022222208922211112222822089444488088224122222808888041244912009928814912411111111115110115122042908a24810111111414444449288041191244992241111404444441024452246848888209224a9241211212208924808111101444424222222228a8808222222242282142451a548525524924412494444444444444444440411111111111111111141442422118948248888244144224912491144825223121149229288248924928888884444440491204624499224914822492411111122228288209224499244442489888888888828a88a44124912492289188944128924492211499244444444104912499244444444444444141144229124924844124922894424912492484444519524494444001151440411400089a2281211112222828892a42212111122220820884888880820222248441249924892884422492422222222222282880410898a4422121111114124888888489224111111212282882022124000898a8891482412251111111144229148228944444444444444111141442291484404119114454444442249449224499244244944248948922422228248922449121144922449922822222222128948415405101391482491482449944492482211111149922415898820922449454422914422111191882489482211444924892492482492249144828848922449222202888888088228123122444404414422224404414442882822224804258d484492882422499224499224138988884424922892244992244992082222222222220822920882208888888888888888089224499224220144a2221144249224494c441244449220221291248888442449454992248944229124c9884424221111111144041149129124912422828824952822912449249114918848128922222282882489888808222222229148244944222222228248229124918848248948410a92080a5554a424a5544a4624918824229148242229910411414492141111894422224190442292481249249248124924a22a91482222221189249144922449922489229122128948224912440451444444440441441241100411111111111111114124924492489244248048544422884492241989488288481244442292041191882429a248241189244924128948124946242211494444441009229224922449924444448820920490009294221231224404910411891811111144224604114100910082888818112282480411113122808808129148248410224944444444444a9224254929922449924444444a2449924892041111442412894492481244241144442441242222894824910451118948241211894422492222122449922449924424804854442282888844229149240922924882200882a824499224494422128924494624222211111129222222091211111111111105111111128908521044912011111189440411111111491211111111114944414448449082a4a234a5244592284951144544444410111111111144444492242949229148444482244591444444444444410a9208aa8a9214454a194992884424128988244992244992244514111111111111111111114124499224499224499224922a4992242222128924491211492449224992244992449220228920222209221111494422892488a288882812244924499224128944444444044992244992241189489224898822124992c4249204114924411004415492244992242211894492242311892289442482888888882888088908521014492a8aa2888888082225918888888888888820221a9124888888828890882005413412241289884410492aa59244249124924844118944242222888888888888888888882022222222222222222222228888888888449248124922884444101189481011111141242222918844928888a0a888228aa248228848228848228844241291482289202a12492249229128499244228944221111111144828888089222222222a208228a48524a5292484444448410424444248988884805a5228a181111111151103122242248411045828848242205113112892422410a8222494551141149221244444424222222222222228220222222220a224684440429088a92542549924422922411114144249552444414018c28888850228214048d4422112988984422410a822812241289484144914889489082a04852511445444444441011111191242222222222888844229148244208892429444454242211402491249248249148228948101111111111111151444404111111111111111111498a88202291484444224924892411442222888844144444444410898848242291222282a2228a288a228920228a20914490442422118914490451914812491289442291482412111111119124224144241289442211424844441422222aa8a02a221111018c2888088988148988086044414448442422228a00464441444494888844440430a22022242212115100110511114a44a488a0a211110510511011a14444222202185110111211898808604441444844242222525292244992244992244912499224499228699224459224499224499224499224499224499224494a9224494444b4220a94a24890281224a802a52812248a0409aa40291a111149529224892425494a249092244992888888442212059288244992244992244949922449324992249248922492244992449248922449924404922449922492449224412222222222024912441289249224499224499224499244111111489220499224499224499254928888689224494992244952922429a524414120494a200582684444a44491489424894422221188888824492292202211499244444424491249049288480091a888482212910854499224924812492229492449222990024982aa48124912492249498a2a1a4992244992244a4494888888249048922449922492240922921411118124912849128948922449a492c4244992244992942422229a4a0481242908244909a44010458254120492a420902425900241342212a9a424499224499224499224a9a4244992244992244920221225890026059248124881201a1111a924491204222292244992244904811448129492542549922449922449922449501008022910442322222525a94892a4242922224a92400a24094a529292244992922455254992244992244992244992244992242555499224499224499224492649922449922449441129922490244992242522228a88885492240902111149922449922482400a24094a49aa92244992244992a020100452208846444412094422128948129124499224912491024902482a4912492049921411118d88882429492222a2482022224992248988082022812480009294929244124892524a1249208024a52c2109204920054a2aa240024954922a892a45928aa228224592929444952249020820a92222114912158944220510494a45222292884412491449aa8a4a494a1289249244914422922849555124495255294955252995244992241125499224494a1240524552492a4912894444a28888888848a29424258988882249555192244992544a5292222280884a522a010490a44a0248922a9224499214499224498a8844242949929224254992922249151191544a92242949929424494a5212911489a2922449522545a424a98a0889284a499254912889444992249554922449250500"},"methodIdentifiers":{"assignUserRole(address)":"859c62bd","canAccessContract(uint256,address)":"d17fb93e","getContractMeta(uint256)":"4f8ff2ba","getHistory(uint256,uint256)":"6906679b","getHistoryCount(uint256)":"afa8880e","getLatestHash(uint256)":"7c71654a","getUploaderHistory(address)":"4a971cf7","getUserInfo(address)":"6386c1c7","grantAccessToContract(uint256,address)":"cc826a1d","isHashExists(bytes32)":"3bd4c457","owner()":"8da5cb5b","revokeAccessFromContract(uint256,address)":"a125d423","uploadContract(uint256,bytes32,string,string)":"010f4549"}},"hash":"82afbe1e66beddc873939c7f8db740c660415f5c403ac15a83fe878b788f3c04","factoryDependencies":{}}}}